{
	"data": {
		"bytecode": {
			"linkReferences": {},
			"object": "6080604052600a6003556000600760006101000a81548160ff0219169083151502179055506000600760016101000a81548160ff0219169083151502179055506000600760026101000a81548160ff0219169083151502179055506000600760036101000a81548160ff0219169083151502179055503480156200008257600080fd5b5060405162002f0d38038062002f0d8339818101604052810190620000a89190620001e4565b336000806101000a81548173ffffffffffffffffffffffffffffffffffffffff021916908373ffffffffffffffffffffffffffffffffffffffff16021790555080600160006101000a81548173ffffffffffffffffffffffffffffffffffffffff021916908373ffffffffffffffffffffffffffffffffffffffff16021790555081600260006101000a81548173ffffffffffffffffffffffffffffffffffffffff021916908373ffffffffffffffffffffffffffffffffffffffff160217905550600060048190555050506200022b565b600080fd5b600073ffffffffffffffffffffffffffffffffffffffff82169050919050565b6000620001ac826200017f565b9050919050565b620001be816200019f565b8114620001ca57600080fd5b50565b600081519050620001de81620001b3565b92915050565b60008060408385031215620001fe57620001fd6200017a565b5b60006200020e85828601620001cd565b92505060206200022185828601620001cd565b9150509250929050565b612cd2806200023b6000396000f3fe608060405234801561001057600080fd5b50600436106101375760003560e01c80638c590917116100b8578063a82c5bbb1161007c578063a82c5bbb14610309578063a98ad46c14610325578063d104dc1114610343578063e637338b14610361578063e7c360231461037d578063f87867c4146103ae57610137565b80638c590917146102795780638da5cb5b1461029557806392e0d1aa146102b35780639560595a146102cf5780639d1ab736146102eb57610137565b80635cf87b5f116100ff5780635cf87b5f146101e757806368a9f31c146102035780637274e30d146102215780637c3a00fd1461023f5780637ccc5d351461025d57610137565b80630913cbb41461013c578063141961bc1461015a578063155dd5ee146101935780631ec10bb5146101af57806336d4ae71146101cb575b600080fd5b6101446103cc565b6040516101519190611d85565b60405180910390f35b610174600480360381019061016f9190611dea565b6103df565b60405161018a9a99989796959493929190611eb6565b60405180910390f35b6101ad60048036038101906101a89190611dea565b6105e5565b005b6101c960048036038101906101c49190611f93565b610976565b005b6101e560048036038101906101e091906120f5565b610a23565b005b61020160048036038101906101fc9190611dea565b610cc9565b005b61020b610ed0565b60405161021891906121f1565b60405180910390f35b610229610ef6565b604051610236919061220c565b60405180910390f35b610247610efc565b604051610254919061220c565b60405180910390f35b61027760048036038101906102729190611dea565b610f02565b005b610293600480360381019061028e9190612227565b6113c3565b005b61029d611764565b6040516102aa91906121f1565b60405180910390f35b6102cd60048036038101906102c89190611f93565b611788565b005b6102e960048036038101906102e49190611f93565b611835565b005b6102f36118e2565b6040516103009190611d85565b60405180910390f35b610323600480360381019061031e9190612227565b6118f5565b005b61032d611b8c565b60405161033a91906121f1565b60405180910390f35b61034b611bb2565b6040516103589190611d85565b60405180910390f35b61037b60048036038101906103769190611f93565b611bc5565b005b61039760048036038101906103929190612293565b611c72565b6040516103a59291906122d3565b60405180910390f35b6103b6611cb0565b6040516103c39190611d85565b60405180910390f35b600760029054906101000a900460ff1681565b60056020528060005260406000206000915090508060000154908060010180546104089061232b565b80601f01602080910402602001604051908101604052809291908181526020018280546104349061232b565b80156104815780601f1061045657610100808354040283529160200191610481565b820191906000526020600020905b81548152906001019060200180831161046457829003601f168201915b5050505050908060020180546104969061232b565b80601f01602080910402602001604051908101604052809291908181526020018280546104c29061232b565b801561050f5780601f106104e45761010080835404028352916020019161050f565b820191906000526020600020905b8154815290600101906020018083116104f257829003601f168201915b5050505050908060030154908060040154908060050154908060060154908060070160009054906101000a900460ff16908060070160019054906101000a900460ff16908060080180546105629061232b565b80601f016020809104026020016040519081016040528092919081815260200182805461058e9061232b565b80156105db5780601f106105b0576101008083540402835291602001916105db565b820191906000526020600020905b8154815290600101906020018083116105be57829003601f168201915b505050505090508a565b60008054906101000a900473ffffffffffffffffffffffffffffffffffffffff1673ffffffffffffffffffffffffffffffffffffffff163373ffffffffffffffffffffffffffffffffffffffff1614610673576040517f08c379a000000000000000000000000000000000000000000000000000000000815260040161066a906123a8565b60405180910390fd5b8060045481111580156106865750600081115b6106c5576040517f08c379a00000000000000000000000000000000000000000000000000000000081526004016106bc90612414565b60405180910390fd5b816005600082815260200190815260200160002060070160019054906101000a900460ff161561072a576040517f08c379a000000000000000000000000000000000000000000000000000000000815260040161072190612480565b60405180910390fd5b600760039054906101000a900460ff168061077a576040517f08c379a0000000000000000000000000000000000000000000000000000000008152600401610771906124ec565b60405180910390fd5b60006005600086815260200190815260200160002090508060030154816004015410156107dc576040517f08c379a00000000000000000000000000000000000000000000000000000000081526004016107d390612558565b60405180910390fd5b8060070160009054906101000a900460ff161561082e576040517f08c379a0000000000000000000000000000000000000000000000000000000008152600401610825906125c4565b60405180910390fd5b600081600401549050600260009054906101000a900473ffffffffffffffffffffffffffffffffffffffff1673ffffffffffffffffffffffffffffffffffffffff1663a9059cbb60008054906101000a900473ffffffffffffffffffffffffffffffffffffffff16836040518363ffffffff1660e01b81526004016108b49291906125e4565b6020604051808303816000875af11580156108d3573d6000803e3d6000fd5b505050506040513d601f19601f820116820180604052508101906108f79190612622565b610936576040517f08c379a000000000000000000000000000000000000000000000000000000000815260040161092d9061269b565b60405180910390fd5b857fd66662c0ded9e58fd31d5e44944bcfd07ffc15e6927ecc1382e7941cb7bd24c482604051610966919061220c565b60405180910390a2505050505050565b600160009054906101000a900473ffffffffffffffffffffffffffffffffffffffff1673ffffffffffffffffffffffffffffffffffffffff163373ffffffffffffffffffffffffffffffffffffffff1614610a06576040517f08c379a00000000000000000000000000000000000000000000000000000000081526004016109fd90612707565b60405180910390fd5b80600760006101000a81548160ff02191690831515021790555050565b60008054906101000a900473ffffffffffffffffffffffffffffffffffffffff1673ffffffffffffffffffffffffffffffffffffffff163373ffffffffffffffffffffffffffffffffffffffff1614610ab1576040517f08c379a0000000000000000000000000000000000000000000000000000000008152600401610aa8906123a8565b60405180910390fd5b600760009054906101000a900460ff1680610b01576040517f08c379a0000000000000000000000000000000000000000000000000000000008152600401610af8906124ec565b60405180910390fd5b60046000815480929190610b1490612756565b91905055506000606460035485610b2b919061279e565b610b35919061280f565b84610b409190612840565b905060606040518061016001604052806004548152602001888152602001878152602001868152602001600081526020018381526020016000815260200160001515815260200160001515815260200185815260200182815250600560006004548152602001908152602001600020600082015181600001556020820151816001019081610bce9190612a20565b506040820151816002019081610be49190612a20565b50606082015181600301556080820151816004015560a0820151816005015560c0820151816006015560e08201518160070160006101000a81548160ff0219169083151502179055506101008201518160070160016101000a81548160ff021916908315150217905550610120820151816008019081610c649190612a20565b50610140820151816009019080519060200190610c82929190611cc3565b509050506004547fdf1ccadd90c8987aa73568b11e0c57744db13dccf98de0a82f2b9bc6edb3d10486604051610cb8919061220c565b60405180910390a250505050505050565b60008054906101000a900473ffffffffffffffffffffffffffffffffffffffff1673ffffffffffffffffffffffffffffffffffffffff163373ffffffffffffffffffffffffffffffffffffffff1614610d57576040517f08c379a0000000000000000000000000000000000000000000000000000000008152600401610d4e906123a8565b60405180910390fd5b806004548111158015610d6a5750600081115b610da9576040517f08c379a0000000000000000000000000000000000000000000000000000000008152600401610da090612414565b60405180910390fd5b816005600082815260200190815260200160002060070160019054906101000a900460ff1615610e0e576040517f08c379a0000000000000000000000000000000000000000000000000000000008152600401610e0590612480565b60405180910390fd5b600760019054906101000a900460ff1680610e5e576040517f08c379a0000000000000000000000000000000000000000000000000000000008152600401610e55906124ec565b60405180910390fd5b600060056000868152602001908152602001600020905060018160070160006101000a81548160ff02191690831515021790555060008160040181905550847fc13332a43e47b855337e607df3246f6827921cb8d114a3e933ec50107c72ca3d60405160405180910390a25050505050565b600160009054906101000a900473ffffffffffffffffffffffffffffffffffffffff1681565b60045481565b60035481565b60008054906101000a900473ffffffffffffffffffffffffffffffffffffffff1673ffffffffffffffffffffffffffffffffffffffff163373ffffffffffffffffffffffffffffffffffffffff1614610f90576040517f08c379a0000000000000000000000000000000000000000000000000000000008152600401610f87906123a8565b60405180910390fd5b806004548111158015610fa35750600081115b610fe2576040517f08c379a0000000000000000000000000000000000000000000000000000000008152600401610fd990612414565b60405180910390fd5b816005600082815260200190815260200160002060070160019054906101000a900460ff1615611047576040517f08c379a000000000000000000000000000000000000000000000000000000000815260040161103e90612480565b60405180910390fd5b600760029054906101000a900460ff1680611097576040517f08c379a000000000000000000000000000000000000000000000000000000000815260040161108e906124ec565b60405180910390fd5b60006005600086815260200190815260200160002090508060070160009054906101000a900460ff166110ff576040517f08c379a00000000000000000000000000000000000000000000000000000000081526004016110f690612b3e565b60405180910390fd5b80600501548160060154101561114a576040517f08c379a000000000000000000000000000000000000000000000000000000000815260040161114190612baa565b60405180910390fd5b60005b816009018054905081101561139e57600082600901828154811061117457611173612bca565b5b9060005260206000200160009054906101000a900473ffffffffffffffffffffffffffffffffffffffff16905060006006600089815260200190815260200160002060008373ffffffffffffffffffffffffffffffffffffffff1673ffffffffffffffffffffffffffffffffffffffff16815260200190815260200160002090508060010160009054906101000a900460ff1661138957600060646003548360000154611221919061279e565b61122b919061280f565b826000015461123a9190612840565b9050600260009054906101000a900473ffffffffffffffffffffffffffffffffffffffff1673ffffffffffffffffffffffffffffffffffffffff1663a9059cbb84836040518363ffffffff1660e01b81526004016112999291906125e4565b6020604051808303816000875af11580156112b8573d6000803e3d6000fd5b505050506040513d601f19601f820116820180604052508101906112dc9190612622565b61131b576040517f08c379a00000000000000000000000000000000000000000000000000000000081526004016113129061269b565b60405180910390fd5b60018260010160006101000a81548160ff0219169083151502179055508273ffffffffffffffffffffffffffffffffffffffff16897f59847e4ba422d73f002fefd39a152ab5aa2ece97ae139061e192cef79e7ec8fe8360405161137f919061220c565b60405180910390a3505b5050808061139690612756565b91505061114d565b5060018160070160016101000a81548160ff0219169083151502179055505050505050565b8160045481111580156113d65750600081115b611415576040517f08c379a000000000000000000000000000000000000000000000000000000000815260040161140c90612414565b60405180910390fd5b826005600082815260200190815260200160002060070160019054906101000a900460ff161561147a576040517f08c379a000000000000000000000000000000000000000000000000000000000815260040161147190612480565b60405180910390fd5b600060056000868152602001908152602001600020905080600301548482600401546114a69190612840565b11156114e7576040517f08c379a00000000000000000000000000000000000000000000000000000000081526004016114de90612c45565b60405180910390fd5b600260009054906101000a900473ffffffffffffffffffffffffffffffffffffffff1673ffffffffffffffffffffffffffffffffffffffff166323b872dd3330876040518463ffffffff1660e01b815260040161154693929190612c65565b6020604051808303816000875af1158015611565573d6000803e3d6000fd5b505050506040513d601f19601f820116820180604052508101906115899190612622565b6115c8576040517f08c379a00000000000000000000000000000000000000000000000000000000081526004016115bf9061269b565b60405180910390fd5b60006006600087815260200190815260200160002060003373ffffffffffffffffffffffffffffffffffffffff1673ffffffffffffffffffffffffffffffffffffffff16815260200190815260200160002060000154036116895780600901339080600181540180825580915050600190039060005260206000200160009091909190916101000a81548173ffffffffffffffffffffffffffffffffffffffff021916908373ffffffffffffffffffffffffffffffffffffffff1602179055505b836006600087815260200190815260200160002060003373ffffffffffffffffffffffffffffffffffffffff1673ffffffffffffffffffffffffffffffffffffffff16815260200190815260200160002060000160008282546116ec9190612840565b92505081905550838160040160008282546117079190612840565b925050819055503373ffffffffffffffffffffffffffffffffffffffff16857fee5e682f79085c85b959874a59b4897eae17b6448ab068a467169ca1b2e1a88886604051611755919061220c565b60405180910390a35050505050565b60008054906101000a900473ffffffffffffffffffffffffffffffffffffffff1681565b600160009054906101000a900473ffffffffffffffffffffffffffffffffffffffff1673ffffffffffffffffffffffffffffffffffffffff163373ffffffffffffffffffffffffffffffffffffffff1614611818576040517f08c379a000000000000000000000000000000000000000000000000000000000815260040161180f90612707565b60405180910390fd5b80600760026101000a81548160ff02191690831515021790555050565b600160009054906101000a900473ffffffffffffffffffffffffffffffffffffffff1673ffffffffffffffffffffffffffffffffffffffff163373ffffffffffffffffffffffffffffffffffffffff16146118c5576040517f08c379a00000000000000000000000000000000000000000000000000000000081526004016118bc90612707565b60405180910390fd5b80600760016101000a81548160ff02191690831515021790555050565b600760019054906101000a900460ff1681565b60008054906101000a900473ffffffffffffffffffffffffffffffffffffffff1673ffffffffffffffffffffffffffffffffffffffff163373ffffffffffffffffffffffffffffffffffffffff1614611983576040517f08c379a000000000000000000000000000000000000000000000000000000000815260040161197a906123a8565b60405180910390fd5b8160045481111580156119965750600081115b6119d5576040517f08c379a00000000000000000000000000000000000000000000000000000000081526004016119cc90612414565b60405180910390fd5b826005600082815260200190815260200160002060070160019054906101000a900460ff1615611a3a576040517f08c379a0000000000000000000000000000000000000000000000000000000008152600401611a3190612480565b60405180910390fd5b6000600560008681526020019081526020016000209050600260009054906101000a900473ffffffffffffffffffffffffffffffffffffffff1673ffffffffffffffffffffffffffffffffffffffff166323b872dd3330876040518463ffffffff1660e01b8152600401611ab093929190612c65565b6020604051808303816000875af1158015611acf573d6000803e3d6000fd5b505050506040513d601f19601f82011682018060405250810190611af39190612622565b611b32576040517f08c379a0000000000000000000000000000000000000000000000000000000008152600401611b299061269b565b60405180910390fd5b83816006016000828254611b469190612840565b92505081905550847f37090086ade94a2b98bc07a0a2c732ce0cb0fc3e5ad2118d95fd71fb5fafff6a85604051611b7d919061220c565b60405180910390a25050505050565b600260009054906101000a900473ffffffffffffffffffffffffffffffffffffffff1681565b600760039054906101000a900460ff1681565b600160009054906101000a900473ffffffffffffffffffffffffffffffffffffffff1673ffffffffffffffffffffffffffffffffffffffff163373ffffffffffffffffffffffffffffffffffffffff1614611c55576040517f08c379a0000000000000000000000000000000000000000000000000000000008152600401611c4c90612707565b60405180910390fd5b80600760036101000a81548160ff02191690831515021790555050565b6006602052816000526040600020602052806000526040600020600091509150508060000154908060010160009054906101000a900460ff16905082565b600760009054906101000a900460ff1681565b828054828255906000526020600020908101928215611d3c579160200282015b82811115611d3b5782518260006101000a81548173ffffffffffffffffffffffffffffffffffffffff021916908373ffffffffffffffffffffffffffffffffffffffff16021790555091602001919060010190611ce3565b5b509050611d499190611d4d565b5090565b5b80821115611d66576000816000905550600101611d4e565b5090565b60008115159050919050565b611d7f81611d6a565b82525050565b6000602082019050611d9a6000830184611d76565b92915050565b6000604051905090565b600080fd5b600080fd5b6000819050919050565b611dc781611db4565b8114611dd257600080fd5b50565b600081359050611de481611dbe565b92915050565b600060208284031215611e0057611dff611daa565b5b6000611e0e84828501611dd5565b91505092915050565b611e2081611db4565b82525050565b600081519050919050565b600082825260208201905092915050565b60005b83811015611e60578082015181840152602081019050611e45565b60008484015250505050565b6000601f19601f8301169050919050565b6000611e8882611e26565b611e928185611e31565b9350611ea2818560208601611e42565b611eab81611e6c565b840191505092915050565b600061014082019050611ecc600083018d611e17565b8181036020830152611ede818c611e7d565b90508181036040830152611ef2818b611e7d565b9050611f01606083018a611e17565b611f0e6080830189611e17565b611f1b60a0830188611e17565b611f2860c0830187611e17565b611f3560e0830186611d76565b611f43610100830185611d76565b818103610120830152611f568184611e7d565b90509b9a5050505050505050505050565b611f7081611d6a565b8114611f7b57600080fd5b50565b600081359050611f8d81611f67565b92915050565b600060208284031215611fa957611fa8611daa565b5b6000611fb784828501611f7e565b91505092915050565b600080fd5b600080fd5b7f4e487b7100000000000000000000000000000000000000000000000000000000600052604160045260246000fd5b61200282611e6c565b810181811067ffffffffffffffff8211171561202157612020611fca565b5b80604052505050565b6000612034611da0565b90506120408282611ff9565b919050565b600067ffffffffffffffff8211156120605761205f611fca565b5b61206982611e6c565b9050602081019050919050565b82818337600083830152505050565b600061209861209384612045565b61202a565b9050828152602081018484840111156120b4576120b3611fc5565b5b6120bf848285612076565b509392505050565b600082601f8301126120dc576120db611fc0565b5b81356120ec848260208601612085565b91505092915050565b6000806000806080858703121561210f5761210e611daa565b5b600085013567ffffffffffffffff81111561212d5761212c611daf565b5b612139878288016120c7565b945050602085013567ffffffffffffffff81111561215a57612159611daf565b5b612166878288016120c7565b935050604061217787828801611dd5565b925050606085013567ffffffffffffffff81111561219857612197611daf565b5b6121a4878288016120c7565b91505092959194509250565b600073ffffffffffffffffffffffffffffffffffffffff82169050919050565b60006121db826121b0565b9050919050565b6121eb816121d0565b82525050565b600060208201905061220660008301846121e2565b92915050565b60006020820190506122216000830184611e17565b92915050565b6000806040838503121561223e5761223d611daa565b5b600061224c85828601611dd5565b925050602061225d85828601611dd5565b9150509250929050565b612270816121d0565b811461227b57600080fd5b50565b60008135905061228d81612267565b92915050565b600080604083850312156122aa576122a9611daa565b5b60006122b885828601611dd5565b92505060206122c98582860161227e565b9150509250929050565b60006040820190506122e86000830185611e17565b6122f56020830184611d76565b9392505050565b7f4e487b7100000000000000000000000000000000000000000000000000000000600052602260045260246000fd5b6000600282049050600182168061234357607f821691505b602082108103612356576123556122fc565b5b50919050565b7f4e6f74206f776e65720000000000000000000000000000000000000000000000600082015250565b6000612392600983611e31565b915061239d8261235c565b602082019050919050565b600060208201905081810360008301526123c181612385565b9050919050565b7f43616d706169676e20646f6573206e6f74206578697374000000000000000000600082015250565b60006123fe601783611e31565b9150612409826123c8565b602082019050919050565b6000602082019050818103600083015261242d816123f1565b9050919050565b7f43616d706169676e20616c72656164792066696e616c697a6564000000000000600082015250565b600061246a601a83611e31565b915061247582612434565b602082019050919050565b600060208201905081810360008301526124998161245d565b9050919050565b7f46756e6374696f6e2069732064697361626c6564000000000000000000000000600082015250565b60006124d6601483611e31565b91506124e1826124a0565b602082019050919050565b60006020820190508181036000830152612505816124c9565b9050919050565b7f46756e64696e6720676f616c206e6f74206d6574000000000000000000000000600082015250565b6000612542601483611e31565b915061254d8261250c565b602082019050919050565b6000602082019050818103600083015261257181612535565b9050919050565b7f4c697374696e6720616c726561647920636f6e6669726d656400000000000000600082015250565b60006125ae601983611e31565b91506125b982612578565b602082019050919050565b600060208201905081810360008301526125dd816125a1565b9050919050565b60006040820190506125f960008301856121e2565b6126066020830184611e17565b9392505050565b60008151905061261c81611f67565b92915050565b60006020828403121561263857612637611daa565b5b60006126468482850161260d565b91505092915050565b7f5472616e73666572206661696c65640000000000000000000000000000000000600082015250565b6000612685600f83611e31565b91506126908261264f565b602082019050919050565b600060208201905081810360008301526126b481612678565b9050919050565b7f4e6f74207365636f6e64206f776e657200000000000000000000000000000000600082015250565b60006126f1601083611e31565b91506126fc826126bb565b602082019050919050565b60006020820190508181036000830152612720816126e4565b9050919050565b7f4e487b7100000000000000000000000000000000000000000000000000000000600052601160045260246000fd5b600061276182611db4565b91507fffffffffffffffffffffffffffffffffffffffffffffffffffffffffffffffff820361279357612792612727565b5b600182019050919050565b60006127a982611db4565b91506127b483611db4565b92508282026127c281611db4565b915082820484148315176127d9576127d8612727565b5b5092915050565b7f4e487b7100000000000000000000000000000000000000000000000000000000600052601260045260246000fd5b600061281a82611db4565b915061282583611db4565b925082612835576128346127e0565b5b828204905092915050565b600061284b82611db4565b915061285683611db4565b925082820190508082111561286e5761286d612727565b5b92915050565b60008190508160005260206000209050919050565b60006020601f8301049050919050565b600082821b905092915050565b6000600883026128d67fffffffffffffffffffffffffffffffffffffffffffffffffffffffffffffffff82612899565b6128e08683612899565b95508019841693508086168417925050509392505050565b6000819050919050565b600061291d61291861291384611db4565b6128f8565b611db4565b9050919050565b6000819050919050565b61293783612902565b61294b61294382612924565b8484546128a6565b825550505050565b600090565b612960612953565b61296b81848461292e565b505050565b5b8181101561298f57612984600082612958565b600181019050612971565b5050565b601f8211156129d4576129a581612874565b6129ae84612889565b810160208510156129bd578190505b6129d16129c985612889565b830182612970565b50505b505050565b600082821c905092915050565b60006129f7600019846008026129d9565b1980831691505092915050565b6000612a1083836129e6565b9150826002028217905092915050565b612a2982611e26565b67ffffffffffffffff811115612a4257612a41611fca565b5b612a4c825461232b565b612a57828285612993565b600060209050601f831160018114612a8a5760008415612a78578287015190505b612a828582612a04565b865550612aea565b601f198416612a9886612874565b60005b82811015612ac057848901518255600182019150602085019450602081019050612a9b565b86831015612add5784890151612ad9601f8916826129e6565b8355505b6001600288020188555050505b505050505050565b7f4c697374696e67206e6f7420636f6e6669726d65640000000000000000000000600082015250565b6000612b28601583611e31565b9150612b3382612af2565b602082019050919050565b60006020820190508181036000830152612b5781612b1b565b9050919050565b7f5061796261636b20676f616c206e6f7420726561636865640000000000000000600082015250565b6000612b94601883611e31565b9150612b9f82612b5e565b602082019050919050565b60006020820190508181036000830152612bc381612b87565b9050919050565b7f4e487b7100000000000000000000000000000000000000000000000000000000600052603260045260246000fd5b7f457863656564732066756e64696e6720676f616c000000000000000000000000600082015250565b6000612c2f601483611e31565b9150612c3a82612bf9565b602082019050919050565b60006020820190508181036000830152612c5e81612c22565b9050919050565b6000606082019050612c7a60008301866121e2565b612c8760208301856121e2565b612c946040830184611e17565b94935050505056fea264697066735822122026b303cf215841fa65c720785862c4084eafe5cfc2515e1c1ab11adcf4e8989264736f6c63430008120033",
			"opcodes": "PUSH1 0x80 PUSH1 0x40 MSTORE PUSH1 0xA PUSH1 0x3 SSTORE PUSH1 0x0 PUSH1 0x7 PUSH1 0x0 PUSH2 0x100 EXP DUP2 SLOAD DUP2 PUSH1 0xFF MUL NOT AND SWAP1 DUP4 ISZERO ISZERO MUL OR SWAP1 SSTORE POP PUSH1 0x0 PUSH1 0x7 PUSH1 0x1 PUSH2 0x100 EXP DUP2 SLOAD DUP2 PUSH1 0xFF MUL NOT AND SWAP1 DUP4 ISZERO ISZERO MUL OR SWAP1 SSTORE POP PUSH1 0x0 PUSH1 0x7 PUSH1 0x2 PUSH2 0x100 EXP DUP2 SLOAD DUP2 PUSH1 0xFF MUL NOT AND SWAP1 DUP4 ISZERO ISZERO MUL OR SWAP1 SSTORE POP PUSH1 0x0 PUSH1 0x7 PUSH1 0x3 PUSH2 0x100 EXP DUP2 SLOAD DUP2 PUSH1 0xFF MUL NOT AND SWAP1 DUP4 ISZERO ISZERO MUL OR SWAP1 SSTORE POP CALLVALUE DUP1 ISZERO PUSH3 0x82 JUMPI PUSH1 0x0 DUP1 REVERT JUMPDEST POP PUSH1 0x40 MLOAD PUSH3 0x2F0D CODESIZE SUB DUP1 PUSH3 0x2F0D DUP4 CODECOPY DUP2 DUP2 ADD PUSH1 0x40 MSTORE DUP2 ADD SWAP1 PUSH3 0xA8 SWAP2 SWAP1 PUSH3 0x1E4 JUMP JUMPDEST CALLER PUSH1 0x0 DUP1 PUSH2 0x100 EXP DUP2 SLOAD DUP2 PUSH20 0xFFFFFFFFFFFFFFFFFFFFFFFFFFFFFFFFFFFFFFFF MUL NOT AND SWAP1 DUP4 PUSH20 0xFFFFFFFFFFFFFFFFFFFFFFFFFFFFFFFFFFFFFFFF AND MUL OR SWAP1 SSTORE POP DUP1 PUSH1 0x1 PUSH1 0x0 PUSH2 0x100 EXP DUP2 SLOAD DUP2 PUSH20 0xFFFFFFFFFFFFFFFFFFFFFFFFFFFFFFFFFFFFFFFF MUL NOT AND SWAP1 DUP4 PUSH20 0xFFFFFFFFFFFFFFFFFFFFFFFFFFFFFFFFFFFFFFFF AND MUL OR SWAP1 SSTORE POP DUP2 PUSH1 0x2 PUSH1 0x0 PUSH2 0x100 EXP DUP2 SLOAD DUP2 PUSH20 0xFFFFFFFFFFFFFFFFFFFFFFFFFFFFFFFFFFFFFFFF MUL NOT AND SWAP1 DUP4 PUSH20 0xFFFFFFFFFFFFFFFFFFFFFFFFFFFFFFFFFFFFFFFF AND MUL OR SWAP1 SSTORE POP PUSH1 0x0 PUSH1 0x4 DUP2 SWAP1 SSTORE POP POP POP PUSH3 0x22B JUMP JUMPDEST PUSH1 0x0 DUP1 REVERT JUMPDEST PUSH1 0x0 PUSH20 0xFFFFFFFFFFFFFFFFFFFFFFFFFFFFFFFFFFFFFFFF DUP3 AND SWAP1 POP SWAP2 SWAP1 POP JUMP JUMPDEST PUSH1 0x0 PUSH3 0x1AC DUP3 PUSH3 0x17F JUMP JUMPDEST SWAP1 POP SWAP2 SWAP1 POP JUMP JUMPDEST PUSH3 0x1BE DUP2 PUSH3 0x19F JUMP JUMPDEST DUP2 EQ PUSH3 0x1CA JUMPI PUSH1 0x0 DUP1 REVERT JUMPDEST POP JUMP JUMPDEST PUSH1 0x0 DUP2 MLOAD SWAP1 POP PUSH3 0x1DE DUP2 PUSH3 0x1B3 JUMP JUMPDEST SWAP3 SWAP2 POP POP JUMP JUMPDEST PUSH1 0x0 DUP1 PUSH1 0x40 DUP4 DUP6 SUB SLT ISZERO PUSH3 0x1FE JUMPI PUSH3 0x1FD PUSH3 0x17A JUMP JUMPDEST JUMPDEST PUSH1 0x0 PUSH3 0x20E DUP6 DUP3 DUP7 ADD PUSH3 0x1CD JUMP JUMPDEST SWAP3 POP POP PUSH1 0x20 PUSH3 0x221 DUP6 DUP3 DUP7 ADD PUSH3 0x1CD JUMP JUMPDEST SWAP2 POP POP SWAP3 POP SWAP3 SWAP1 POP JUMP JUMPDEST PUSH2 0x2CD2 DUP1 PUSH3 0x23B PUSH1 0x0 CODECOPY PUSH1 0x0 RETURN INVALID PUSH1 0x80 PUSH1 0x40 MSTORE CALLVALUE DUP1 ISZERO PUSH2 0x10 JUMPI PUSH1 0x0 DUP1 REVERT JUMPDEST POP PUSH1 0x4 CALLDATASIZE LT PUSH2 0x137 JUMPI PUSH1 0x0 CALLDATALOAD PUSH1 0xE0 SHR DUP1 PUSH4 0x8C590917 GT PUSH2 0xB8 JUMPI DUP1 PUSH4 0xA82C5BBB GT PUSH2 0x7C JUMPI DUP1 PUSH4 0xA82C5BBB EQ PUSH2 0x309 JUMPI DUP1 PUSH4 0xA98AD46C EQ PUSH2 0x325 JUMPI DUP1 PUSH4 0xD104DC11 EQ PUSH2 0x343 JUMPI DUP1 PUSH4 0xE637338B EQ PUSH2 0x361 JUMPI DUP1 PUSH4 0xE7C36023 EQ PUSH2 0x37D JUMPI DUP1 PUSH4 0xF87867C4 EQ PUSH2 0x3AE JUMPI PUSH2 0x137 JUMP JUMPDEST DUP1 PUSH4 0x8C590917 EQ PUSH2 0x279 JUMPI DUP1 PUSH4 0x8DA5CB5B EQ PUSH2 0x295 JUMPI DUP1 PUSH4 0x92E0D1AA EQ PUSH2 0x2B3 JUMPI DUP1 PUSH4 0x9560595A EQ PUSH2 0x2CF JUMPI DUP1 PUSH4 0x9D1AB736 EQ PUSH2 0x2EB JUMPI PUSH2 0x137 JUMP JUMPDEST DUP1 PUSH4 0x5CF87B5F GT PUSH2 0xFF JUMPI DUP1 PUSH4 0x5CF87B5F EQ PUSH2 0x1E7 JUMPI DUP1 PUSH4 0x68A9F31C EQ PUSH2 0x203 JUMPI DUP1 PUSH4 0x7274E30D EQ PUSH2 0x221 JUMPI DUP1 PUSH4 0x7C3A00FD EQ PUSH2 0x23F JUMPI DUP1 PUSH4 0x7CCC5D35 EQ PUSH2 0x25D JUMPI PUSH2 0x137 JUMP JUMPDEST DUP1 PUSH4 0x913CBB4 EQ PUSH2 0x13C JUMPI DUP1 PUSH4 0x141961BC EQ PUSH2 0x15A JUMPI DUP1 PUSH4 0x155DD5EE EQ PUSH2 0x193 JUMPI DUP1 PUSH4 0x1EC10BB5 EQ PUSH2 0x1AF JUMPI DUP1 PUSH4 0x36D4AE71 EQ PUSH2 0x1CB JUMPI JUMPDEST PUSH1 0x0 DUP1 REVERT JUMPDEST PUSH2 0x144 PUSH2 0x3CC JUMP JUMPDEST PUSH1 0x40 MLOAD PUSH2 0x151 SWAP2 SWAP1 PUSH2 0x1D85 JUMP JUMPDEST PUSH1 0x40 MLOAD DUP1 SWAP2 SUB SWAP1 RETURN JUMPDEST PUSH2 0x174 PUSH1 0x4 DUP1 CALLDATASIZE SUB DUP2 ADD SWAP1 PUSH2 0x16F SWAP2 SWAP1 PUSH2 0x1DEA JUMP JUMPDEST PUSH2 0x3DF JUMP JUMPDEST PUSH1 0x40 MLOAD PUSH2 0x18A SWAP11 SWAP10 SWAP9 SWAP8 SWAP7 SWAP6 SWAP5 SWAP4 SWAP3 SWAP2 SWAP1 PUSH2 0x1EB6 JUMP JUMPDEST PUSH1 0x40 MLOAD DUP1 SWAP2 SUB SWAP1 RETURN JUMPDEST PUSH2 0x1AD PUSH1 0x4 DUP1 CALLDATASIZE SUB DUP2 ADD SWAP1 PUSH2 0x1A8 SWAP2 SWAP1 PUSH2 0x1DEA JUMP JUMPDEST PUSH2 0x5E5 JUMP JUMPDEST STOP JUMPDEST PUSH2 0x1C9 PUSH1 0x4 DUP1 CALLDATASIZE SUB DUP2 ADD SWAP1 PUSH2 0x1C4 SWAP2 SWAP1 PUSH2 0x1F93 JUMP JUMPDEST PUSH2 0x976 JUMP JUMPDEST STOP JUMPDEST PUSH2 0x1E5 PUSH1 0x4 DUP1 CALLDATASIZE SUB DUP2 ADD SWAP1 PUSH2 0x1E0 SWAP2 SWAP1 PUSH2 0x20F5 JUMP JUMPDEST PUSH2 0xA23 JUMP JUMPDEST STOP JUMPDEST PUSH2 0x201 PUSH1 0x4 DUP1 CALLDATASIZE SUB DUP2 ADD SWAP1 PUSH2 0x1FC SWAP2 SWAP1 PUSH2 0x1DEA JUMP JUMPDEST PUSH2 0xCC9 JUMP JUMPDEST STOP JUMPDEST PUSH2 0x20B PUSH2 0xED0 JUMP JUMPDEST PUSH1 0x40 MLOAD PUSH2 0x218 SWAP2 SWAP1 PUSH2 0x21F1 JUMP JUMPDEST PUSH1 0x40 MLOAD DUP1 SWAP2 SUB SWAP1 RETURN JUMPDEST PUSH2 0x229 PUSH2 0xEF6 JUMP JUMPDEST PUSH1 0x40 MLOAD PUSH2 0x236 SWAP2 SWAP1 PUSH2 0x220C JUMP JUMPDEST PUSH1 0x40 MLOAD DUP1 SWAP2 SUB SWAP1 RETURN JUMPDEST PUSH2 0x247 PUSH2 0xEFC JUMP JUMPDEST PUSH1 0x40 MLOAD PUSH2 0x254 SWAP2 SWAP1 PUSH2 0x220C JUMP JUMPDEST PUSH1 0x40 MLOAD DUP1 SWAP2 SUB SWAP1 RETURN JUMPDEST PUSH2 0x277 PUSH1 0x4 DUP1 CALLDATASIZE SUB DUP2 ADD SWAP1 PUSH2 0x272 SWAP2 SWAP1 PUSH2 0x1DEA JUMP JUMPDEST PUSH2 0xF02 JUMP JUMPDEST STOP JUMPDEST PUSH2 0x293 PUSH1 0x4 DUP1 CALLDATASIZE SUB DUP2 ADD SWAP1 PUSH2 0x28E SWAP2 SWAP1 PUSH2 0x2227 JUMP JUMPDEST PUSH2 0x13C3 JUMP JUMPDEST STOP JUMPDEST PUSH2 0x29D PUSH2 0x1764 JUMP JUMPDEST PUSH1 0x40 MLOAD PUSH2 0x2AA SWAP2 SWAP1 PUSH2 0x21F1 JUMP JUMPDEST PUSH1 0x40 MLOAD DUP1 SWAP2 SUB SWAP1 RETURN JUMPDEST PUSH2 0x2CD PUSH1 0x4 DUP1 CALLDATASIZE SUB DUP2 ADD SWAP1 PUSH2 0x2C8 SWAP2 SWAP1 PUSH2 0x1F93 JUMP JUMPDEST PUSH2 0x1788 JUMP JUMPDEST STOP JUMPDEST PUSH2 0x2E9 PUSH1 0x4 DUP1 CALLDATASIZE SUB DUP2 ADD SWAP1 PUSH2 0x2E4 SWAP2 SWAP1 PUSH2 0x1F93 JUMP JUMPDEST PUSH2 0x1835 JUMP JUMPDEST STOP JUMPDEST PUSH2 0x2F3 PUSH2 0x18E2 JUMP JUMPDEST PUSH1 0x40 MLOAD PUSH2 0x300 SWAP2 SWAP1 PUSH2 0x1D85 JUMP JUMPDEST PUSH1 0x40 MLOAD DUP1 SWAP2 SUB SWAP1 RETURN JUMPDEST PUSH2 0x323 PUSH1 0x4 DUP1 CALLDATASIZE SUB DUP2 ADD SWAP1 PUSH2 0x31E SWAP2 SWAP1 PUSH2 0x2227 JUMP JUMPDEST PUSH2 0x18F5 JUMP JUMPDEST STOP JUMPDEST PUSH2 0x32D PUSH2 0x1B8C JUMP JUMPDEST PUSH1 0x40 MLOAD PUSH2 0x33A SWAP2 SWAP1 PUSH2 0x21F1 JUMP JUMPDEST PUSH1 0x40 MLOAD DUP1 SWAP2 SUB SWAP1 RETURN JUMPDEST PUSH2 0x34B PUSH2 0x1BB2 JUMP JUMPDEST PUSH1 0x40 MLOAD PUSH2 0x358 SWAP2 SWAP1 PUSH2 0x1D85 JUMP JUMPDEST PUSH1 0x40 MLOAD DUP1 SWAP2 SUB SWAP1 RETURN JUMPDEST PUSH2 0x37B PUSH1 0x4 DUP1 CALLDATASIZE SUB DUP2 ADD SWAP1 PUSH2 0x376 SWAP2 SWAP1 PUSH2 0x1F93 JUMP JUMPDEST PUSH2 0x1BC5 JUMP JUMPDEST STOP JUMPDEST PUSH2 0x397 PUSH1 0x4 DUP1 CALLDATASIZE SUB DUP2 ADD SWAP1 PUSH2 0x392 SWAP2 SWAP1 PUSH2 0x2293 JUMP JUMPDEST PUSH2 0x1C72 JUMP JUMPDEST PUSH1 0x40 MLOAD PUSH2 0x3A5 SWAP3 SWAP2 SWAP1 PUSH2 0x22D3 JUMP JUMPDEST PUSH1 0x40 MLOAD DUP1 SWAP2 SUB SWAP1 RETURN JUMPDEST PUSH2 0x3B6 PUSH2 0x1CB0 JUMP JUMPDEST PUSH1 0x40 MLOAD PUSH2 0x3C3 SWAP2 SWAP1 PUSH2 0x1D85 JUMP JUMPDEST PUSH1 0x40 MLOAD DUP1 SWAP2 SUB SWAP1 RETURN JUMPDEST PUSH1 0x7 PUSH1 0x2 SWAP1 SLOAD SWAP1 PUSH2 0x100 EXP SWAP1 DIV PUSH1 0xFF AND DUP2 JUMP JUMPDEST PUSH1 0x5 PUSH1 0x20 MSTORE DUP1 PUSH1 0x0 MSTORE PUSH1 0x40 PUSH1 0x0 KECCAK256 PUSH1 0x0 SWAP2 POP SWAP1 POP DUP1 PUSH1 0x0 ADD SLOAD SWAP1 DUP1 PUSH1 0x1 ADD DUP1 SLOAD PUSH2 0x408 SWAP1 PUSH2 0x232B JUMP JUMPDEST DUP1 PUSH1 0x1F ADD PUSH1 0x20 DUP1 SWAP2 DIV MUL PUSH1 0x20 ADD PUSH1 0x40 MLOAD SWAP1 DUP2 ADD PUSH1 0x40 MSTORE DUP1 SWAP3 SWAP2 SWAP1 DUP2 DUP2 MSTORE PUSH1 0x20 ADD DUP3 DUP1 SLOAD PUSH2 0x434 SWAP1 PUSH2 0x232B JUMP JUMPDEST DUP1 ISZERO PUSH2 0x481 JUMPI DUP1 PUSH1 0x1F LT PUSH2 0x456 JUMPI PUSH2 0x100 DUP1 DUP4 SLOAD DIV MUL DUP4 MSTORE SWAP2 PUSH1 0x20 ADD SWAP2 PUSH2 0x481 JUMP JUMPDEST DUP3 ADD SWAP2 SWAP1 PUSH1 0x0 MSTORE PUSH1 0x20 PUSH1 0x0 KECCAK256 SWAP1 JUMPDEST DUP2 SLOAD DUP2 MSTORE SWAP1 PUSH1 0x1 ADD SWAP1 PUSH1 0x20 ADD DUP1 DUP4 GT PUSH2 0x464 JUMPI DUP3 SWAP1 SUB PUSH1 0x1F AND DUP3 ADD SWAP2 JUMPDEST POP POP POP POP POP SWAP1 DUP1 PUSH1 0x2 ADD DUP1 SLOAD PUSH2 0x496 SWAP1 PUSH2 0x232B JUMP JUMPDEST DUP1 PUSH1 0x1F ADD PUSH1 0x20 DUP1 SWAP2 DIV MUL PUSH1 0x20 ADD PUSH1 0x40 MLOAD SWAP1 DUP2 ADD PUSH1 0x40 MSTORE DUP1 SWAP3 SWAP2 SWAP1 DUP2 DUP2 MSTORE PUSH1 0x20 ADD DUP3 DUP1 SLOAD PUSH2 0x4C2 SWAP1 PUSH2 0x232B JUMP JUMPDEST DUP1 ISZERO PUSH2 0x50F JUMPI DUP1 PUSH1 0x1F LT PUSH2 0x4E4 JUMPI PUSH2 0x100 DUP1 DUP4 SLOAD DIV MUL DUP4 MSTORE SWAP2 PUSH1 0x20 ADD SWAP2 PUSH2 0x50F JUMP JUMPDEST DUP3 ADD SWAP2 SWAP1 PUSH1 0x0 MSTORE PUSH1 0x20 PUSH1 0x0 KECCAK256 SWAP1 JUMPDEST DUP2 SLOAD DUP2 MSTORE SWAP1 PUSH1 0x1 ADD SWAP1 PUSH1 0x20 ADD DUP1 DUP4 GT PUSH2 0x4F2 JUMPI DUP3 SWAP1 SUB PUSH1 0x1F AND DUP3 ADD SWAP2 JUMPDEST POP POP POP POP POP SWAP1 DUP1 PUSH1 0x3 ADD SLOAD SWAP1 DUP1 PUSH1 0x4 ADD SLOAD SWAP1 DUP1 PUSH1 0x5 ADD SLOAD SWAP1 DUP1 PUSH1 0x6 ADD SLOAD SWAP1 DUP1 PUSH1 0x7 ADD PUSH1 0x0 SWAP1 SLOAD SWAP1 PUSH2 0x100 EXP SWAP1 DIV PUSH1 0xFF AND SWAP1 DUP1 PUSH1 0x7 ADD PUSH1 0x1 SWAP1 SLOAD SWAP1 PUSH2 0x100 EXP SWAP1 DIV PUSH1 0xFF AND SWAP1 DUP1 PUSH1 0x8 ADD DUP1 SLOAD PUSH2 0x562 SWAP1 PUSH2 0x232B JUMP JUMPDEST DUP1 PUSH1 0x1F ADD PUSH1 0x20 DUP1 SWAP2 DIV MUL PUSH1 0x20 ADD PUSH1 0x40 MLOAD SWAP1 DUP2 ADD PUSH1 0x40 MSTORE DUP1 SWAP3 SWAP2 SWAP1 DUP2 DUP2 MSTORE PUSH1 0x20 ADD DUP3 DUP1 SLOAD PUSH2 0x58E SWAP1 PUSH2 0x232B JUMP JUMPDEST DUP1 ISZERO PUSH2 0x5DB JUMPI DUP1 PUSH1 0x1F LT PUSH2 0x5B0 JUMPI PUSH2 0x100 DUP1 DUP4 SLOAD DIV MUL DUP4 MSTORE SWAP2 PUSH1 0x20 ADD SWAP2 PUSH2 0x5DB JUMP JUMPDEST DUP3 ADD SWAP2 SWAP1 PUSH1 0x0 MSTORE PUSH1 0x20 PUSH1 0x0 KECCAK256 SWAP1 JUMPDEST DUP2 SLOAD DUP2 MSTORE SWAP1 PUSH1 0x1 ADD SWAP1 PUSH1 0x20 ADD DUP1 DUP4 GT PUSH2 0x5BE JUMPI DUP3 SWAP1 SUB PUSH1 0x1F AND DUP3 ADD SWAP2 JUMPDEST POP POP POP POP POP SWAP1 POP DUP11 JUMP JUMPDEST PUSH1 0x0 DUP1 SLOAD SWAP1 PUSH2 0x100 EXP SWAP1 DIV PUSH20 0xFFFFFFFFFFFFFFFFFFFFFFFFFFFFFFFFFFFFFFFF AND PUSH20 0xFFFFFFFFFFFFFFFFFFFFFFFFFFFFFFFFFFFFFFFF AND CALLER PUSH20 0xFFFFFFFFFFFFFFFFFFFFFFFFFFFFFFFFFFFFFFFF AND EQ PUSH2 0x673 JUMPI PUSH1 0x40 MLOAD PUSH32 0x8C379A000000000000000000000000000000000000000000000000000000000 DUP2 MSTORE PUSH1 0x4 ADD PUSH2 0x66A SWAP1 PUSH2 0x23A8 JUMP JUMPDEST PUSH1 0x40 MLOAD DUP1 SWAP2 SUB SWAP1 REVERT JUMPDEST DUP1 PUSH1 0x4 SLOAD DUP2 GT ISZERO DUP1 ISZERO PUSH2 0x686 JUMPI POP PUSH1 0x0 DUP2 GT JUMPDEST PUSH2 0x6C5 JUMPI PUSH1 0x40 MLOAD PUSH32 0x8C379A000000000000000000000000000000000000000000000000000000000 DUP2 MSTORE PUSH1 0x4 ADD PUSH2 0x6BC SWAP1 PUSH2 0x2414 JUMP JUMPDEST PUSH1 0x40 MLOAD DUP1 SWAP2 SUB SWAP1 REVERT JUMPDEST DUP2 PUSH1 0x5 PUSH1 0x0 DUP3 DUP2 MSTORE PUSH1 0x20 ADD SWAP1 DUP2 MSTORE PUSH1 0x20 ADD PUSH1 0x0 KECCAK256 PUSH1 0x7 ADD PUSH1 0x1 SWAP1 SLOAD SWAP1 PUSH2 0x100 EXP SWAP1 DIV PUSH1 0xFF AND ISZERO PUSH2 0x72A JUMPI PUSH1 0x40 MLOAD PUSH32 0x8C379A000000000000000000000000000000000000000000000000000000000 DUP2 MSTORE PUSH1 0x4 ADD PUSH2 0x721 SWAP1 PUSH2 0x2480 JUMP JUMPDEST PUSH1 0x40 MLOAD DUP1 SWAP2 SUB SWAP1 REVERT JUMPDEST PUSH1 0x7 PUSH1 0x3 SWAP1 SLOAD SWAP1 PUSH2 0x100 EXP SWAP1 DIV PUSH1 0xFF AND DUP1 PUSH2 0x77A JUMPI PUSH1 0x40 MLOAD PUSH32 0x8C379A000000000000000000000000000000000000000000000000000000000 DUP2 MSTORE PUSH1 0x4 ADD PUSH2 0x771 SWAP1 PUSH2 0x24EC JUMP JUMPDEST PUSH1 0x40 MLOAD DUP1 SWAP2 SUB SWAP1 REVERT JUMPDEST PUSH1 0x0 PUSH1 0x5 PUSH1 0x0 DUP7 DUP2 MSTORE PUSH1 0x20 ADD SWAP1 DUP2 MSTORE PUSH1 0x20 ADD PUSH1 0x0 KECCAK256 SWAP1 POP DUP1 PUSH1 0x3 ADD SLOAD DUP2 PUSH1 0x4 ADD SLOAD LT ISZERO PUSH2 0x7DC JUMPI PUSH1 0x40 MLOAD PUSH32 0x8C379A000000000000000000000000000000000000000000000000000000000 DUP2 MSTORE PUSH1 0x4 ADD PUSH2 0x7D3 SWAP1 PUSH2 0x2558 JUMP JUMPDEST PUSH1 0x40 MLOAD DUP1 SWAP2 SUB SWAP1 REVERT JUMPDEST DUP1 PUSH1 0x7 ADD PUSH1 0x0 SWAP1 SLOAD SWAP1 PUSH2 0x100 EXP SWAP1 DIV PUSH1 0xFF AND ISZERO PUSH2 0x82E JUMPI PUSH1 0x40 MLOAD PUSH32 0x8C379A000000000000000000000000000000000000000000000000000000000 DUP2 MSTORE PUSH1 0x4 ADD PUSH2 0x825 SWAP1 PUSH2 0x25C4 JUMP JUMPDEST PUSH1 0x40 MLOAD DUP1 SWAP2 SUB SWAP1 REVERT JUMPDEST PUSH1 0x0 DUP2 PUSH1 0x4 ADD SLOAD SWAP1 POP PUSH1 0x2 PUSH1 0x0 SWAP1 SLOAD SWAP1 PUSH2 0x100 EXP SWAP1 DIV PUSH20 0xFFFFFFFFFFFFFFFFFFFFFFFFFFFFFFFFFFFFFFFF AND PUSH20 0xFFFFFFFFFFFFFFFFFFFFFFFFFFFFFFFFFFFFFFFF AND PUSH4 0xA9059CBB PUSH1 0x0 DUP1 SLOAD SWAP1 PUSH2 0x100 EXP SWAP1 DIV PUSH20 0xFFFFFFFFFFFFFFFFFFFFFFFFFFFFFFFFFFFFFFFF AND DUP4 PUSH1 0x40 MLOAD DUP4 PUSH4 0xFFFFFFFF AND PUSH1 0xE0 SHL DUP2 MSTORE PUSH1 0x4 ADD PUSH2 0x8B4 SWAP3 SWAP2 SWAP1 PUSH2 0x25E4 JUMP JUMPDEST PUSH1 0x20 PUSH1 0x40 MLOAD DUP1 DUP4 SUB DUP2 PUSH1 0x0 DUP8 GAS CALL ISZERO DUP1 ISZERO PUSH2 0x8D3 JUMPI RETURNDATASIZE PUSH1 0x0 DUP1 RETURNDATACOPY RETURNDATASIZE PUSH1 0x0 REVERT JUMPDEST POP POP POP POP PUSH1 0x40 MLOAD RETURNDATASIZE PUSH1 0x1F NOT PUSH1 0x1F DUP3 ADD AND DUP3 ADD DUP1 PUSH1 0x40 MSTORE POP DUP2 ADD SWAP1 PUSH2 0x8F7 SWAP2 SWAP1 PUSH2 0x2622 JUMP JUMPDEST PUSH2 0x936 JUMPI PUSH1 0x40 MLOAD PUSH32 0x8C379A000000000000000000000000000000000000000000000000000000000 DUP2 MSTORE PUSH1 0x4 ADD PUSH2 0x92D SWAP1 PUSH2 0x269B JUMP JUMPDEST PUSH1 0x40 MLOAD DUP1 SWAP2 SUB SWAP1 REVERT JUMPDEST DUP6 PUSH32 0xD66662C0DED9E58FD31D5E44944BCFD07FFC15E6927ECC1382E7941CB7BD24C4 DUP3 PUSH1 0x40 MLOAD PUSH2 0x966 SWAP2 SWAP1 PUSH2 0x220C JUMP JUMPDEST PUSH1 0x40 MLOAD DUP1 SWAP2 SUB SWAP1 LOG2 POP POP POP POP POP POP JUMP JUMPDEST PUSH1 0x1 PUSH1 0x0 SWAP1 SLOAD SWAP1 PUSH2 0x100 EXP SWAP1 DIV PUSH20 0xFFFFFFFFFFFFFFFFFFFFFFFFFFFFFFFFFFFFFFFF AND PUSH20 0xFFFFFFFFFFFFFFFFFFFFFFFFFFFFFFFFFFFFFFFF AND CALLER PUSH20 0xFFFFFFFFFFFFFFFFFFFFFFFFFFFFFFFFFFFFFFFF AND EQ PUSH2 0xA06 JUMPI PUSH1 0x40 MLOAD PUSH32 0x8C379A000000000000000000000000000000000000000000000000000000000 DUP2 MSTORE PUSH1 0x4 ADD PUSH2 0x9FD SWAP1 PUSH2 0x2707 JUMP JUMPDEST PUSH1 0x40 MLOAD DUP1 SWAP2 SUB SWAP1 REVERT JUMPDEST DUP1 PUSH1 0x7 PUSH1 0x0 PUSH2 0x100 EXP DUP2 SLOAD DUP2 PUSH1 0xFF MUL NOT AND SWAP1 DUP4 ISZERO ISZERO MUL OR SWAP1 SSTORE POP POP JUMP JUMPDEST PUSH1 0x0 DUP1 SLOAD SWAP1 PUSH2 0x100 EXP SWAP1 DIV PUSH20 0xFFFFFFFFFFFFFFFFFFFFFFFFFFFFFFFFFFFFFFFF AND PUSH20 0xFFFFFFFFFFFFFFFFFFFFFFFFFFFFFFFFFFFFFFFF AND CALLER PUSH20 0xFFFFFFFFFFFFFFFFFFFFFFFFFFFFFFFFFFFFFFFF AND EQ PUSH2 0xAB1 JUMPI PUSH1 0x40 MLOAD PUSH32 0x8C379A000000000000000000000000000000000000000000000000000000000 DUP2 MSTORE PUSH1 0x4 ADD PUSH2 0xAA8 SWAP1 PUSH2 0x23A8 JUMP JUMPDEST PUSH1 0x40 MLOAD DUP1 SWAP2 SUB SWAP1 REVERT JUMPDEST PUSH1 0x7 PUSH1 0x0 SWAP1 SLOAD SWAP1 PUSH2 0x100 EXP SWAP1 DIV PUSH1 0xFF AND DUP1 PUSH2 0xB01 JUMPI PUSH1 0x40 MLOAD PUSH32 0x8C379A000000000000000000000000000000000000000000000000000000000 DUP2 MSTORE PUSH1 0x4 ADD PUSH2 0xAF8 SWAP1 PUSH2 0x24EC JUMP JUMPDEST PUSH1 0x40 MLOAD DUP1 SWAP2 SUB SWAP1 REVERT JUMPDEST PUSH1 0x4 PUSH1 0x0 DUP2 SLOAD DUP1 SWAP3 SWAP2 SWAP1 PUSH2 0xB14 SWAP1 PUSH2 0x2756 JUMP JUMPDEST SWAP2 SWAP1 POP SSTORE POP PUSH1 0x0 PUSH1 0x64 PUSH1 0x3 SLOAD DUP6 PUSH2 0xB2B SWAP2 SWAP1 PUSH2 0x279E JUMP JUMPDEST PUSH2 0xB35 SWAP2 SWAP1 PUSH2 0x280F JUMP JUMPDEST DUP5 PUSH2 0xB40 SWAP2 SWAP1 PUSH2 0x2840 JUMP JUMPDEST SWAP1 POP PUSH1 0x60 PUSH1 0x40 MLOAD DUP1 PUSH2 0x160 ADD PUSH1 0x40 MSTORE DUP1 PUSH1 0x4 SLOAD DUP2 MSTORE PUSH1 0x20 ADD DUP9 DUP2 MSTORE PUSH1 0x20 ADD DUP8 DUP2 MSTORE PUSH1 0x20 ADD DUP7 DUP2 MSTORE PUSH1 0x20 ADD PUSH1 0x0 DUP2 MSTORE PUSH1 0x20 ADD DUP4 DUP2 MSTORE PUSH1 0x20 ADD PUSH1 0x0 DUP2 MSTORE PUSH1 0x20 ADD PUSH1 0x0 ISZERO ISZERO DUP2 MSTORE PUSH1 0x20 ADD PUSH1 0x0 ISZERO ISZERO DUP2 MSTORE PUSH1 0x20 ADD DUP6 DUP2 MSTORE PUSH1 0x20 ADD DUP3 DUP2 MSTORE POP PUSH1 0x5 PUSH1 0x0 PUSH1 0x4 SLOAD DUP2 MSTORE PUSH1 0x20 ADD SWAP1 DUP2 MSTORE PUSH1 0x20 ADD PUSH1 0x0 KECCAK256 PUSH1 0x0 DUP3 ADD MLOAD DUP2 PUSH1 0x0 ADD SSTORE PUSH1 0x20 DUP3 ADD MLOAD DUP2 PUSH1 0x1 ADD SWAP1 DUP2 PUSH2 0xBCE SWAP2 SWAP1 PUSH2 0x2A20 JUMP JUMPDEST POP PUSH1 0x40 DUP3 ADD MLOAD DUP2 PUSH1 0x2 ADD SWAP1 DUP2 PUSH2 0xBE4 SWAP2 SWAP1 PUSH2 0x2A20 JUMP JUMPDEST POP PUSH1 0x60 DUP3 ADD MLOAD DUP2 PUSH1 0x3 ADD SSTORE PUSH1 0x80 DUP3 ADD MLOAD DUP2 PUSH1 0x4 ADD SSTORE PUSH1 0xA0 DUP3 ADD MLOAD DUP2 PUSH1 0x5 ADD SSTORE PUSH1 0xC0 DUP3 ADD MLOAD DUP2 PUSH1 0x6 ADD SSTORE PUSH1 0xE0 DUP3 ADD MLOAD DUP2 PUSH1 0x7 ADD PUSH1 0x0 PUSH2 0x100 EXP DUP2 SLOAD DUP2 PUSH1 0xFF MUL NOT AND SWAP1 DUP4 ISZERO ISZERO MUL OR SWAP1 SSTORE POP PUSH2 0x100 DUP3 ADD MLOAD DUP2 PUSH1 0x7 ADD PUSH1 0x1 PUSH2 0x100 EXP DUP2 SLOAD DUP2 PUSH1 0xFF MUL NOT AND SWAP1 DUP4 ISZERO ISZERO MUL OR SWAP1 SSTORE POP PUSH2 0x120 DUP3 ADD MLOAD DUP2 PUSH1 0x8 ADD SWAP1 DUP2 PUSH2 0xC64 SWAP2 SWAP1 PUSH2 0x2A20 JUMP JUMPDEST POP PUSH2 0x140 DUP3 ADD MLOAD DUP2 PUSH1 0x9 ADD SWAP1 DUP1 MLOAD SWAP1 PUSH1 0x20 ADD SWAP1 PUSH2 0xC82 SWAP3 SWAP2 SWAP1 PUSH2 0x1CC3 JUMP JUMPDEST POP SWAP1 POP POP PUSH1 0x4 SLOAD PUSH32 0xDF1CCADD90C8987AA73568B11E0C57744DB13DCCF98DE0A82F2B9BC6EDB3D104 DUP7 PUSH1 0x40 MLOAD PUSH2 0xCB8 SWAP2 SWAP1 PUSH2 0x220C JUMP JUMPDEST PUSH1 0x40 MLOAD DUP1 SWAP2 SUB SWAP1 LOG2 POP POP POP POP POP POP POP JUMP JUMPDEST PUSH1 0x0 DUP1 SLOAD SWAP1 PUSH2 0x100 EXP SWAP1 DIV PUSH20 0xFFFFFFFFFFFFFFFFFFFFFFFFFFFFFFFFFFFFFFFF AND PUSH20 0xFFFFFFFFFFFFFFFFFFFFFFFFFFFFFFFFFFFFFFFF AND CALLER PUSH20 0xFFFFFFFFFFFFFFFFFFFFFFFFFFFFFFFFFFFFFFFF AND EQ PUSH2 0xD57 JUMPI PUSH1 0x40 MLOAD PUSH32 0x8C379A000000000000000000000000000000000000000000000000000000000 DUP2 MSTORE PUSH1 0x4 ADD PUSH2 0xD4E SWAP1 PUSH2 0x23A8 JUMP JUMPDEST PUSH1 0x40 MLOAD DUP1 SWAP2 SUB SWAP1 REVERT JUMPDEST DUP1 PUSH1 0x4 SLOAD DUP2 GT ISZERO DUP1 ISZERO PUSH2 0xD6A JUMPI POP PUSH1 0x0 DUP2 GT JUMPDEST PUSH2 0xDA9 JUMPI PUSH1 0x40 MLOAD PUSH32 0x8C379A000000000000000000000000000000000000000000000000000000000 DUP2 MSTORE PUSH1 0x4 ADD PUSH2 0xDA0 SWAP1 PUSH2 0x2414 JUMP JUMPDEST PUSH1 0x40 MLOAD DUP1 SWAP2 SUB SWAP1 REVERT JUMPDEST DUP2 PUSH1 0x5 PUSH1 0x0 DUP3 DUP2 MSTORE PUSH1 0x20 ADD SWAP1 DUP2 MSTORE PUSH1 0x20 ADD PUSH1 0x0 KECCAK256 PUSH1 0x7 ADD PUSH1 0x1 SWAP1 SLOAD SWAP1 PUSH2 0x100 EXP SWAP1 DIV PUSH1 0xFF AND ISZERO PUSH2 0xE0E JUMPI PUSH1 0x40 MLOAD PUSH32 0x8C379A000000000000000000000000000000000000000000000000000000000 DUP2 MSTORE PUSH1 0x4 ADD PUSH2 0xE05 SWAP1 PUSH2 0x2480 JUMP JUMPDEST PUSH1 0x40 MLOAD DUP1 SWAP2 SUB SWAP1 REVERT JUMPDEST PUSH1 0x7 PUSH1 0x1 SWAP1 SLOAD SWAP1 PUSH2 0x100 EXP SWAP1 DIV PUSH1 0xFF AND DUP1 PUSH2 0xE5E JUMPI PUSH1 0x40 MLOAD PUSH32 0x8C379A000000000000000000000000000000000000000000000000000000000 DUP2 MSTORE PUSH1 0x4 ADD PUSH2 0xE55 SWAP1 PUSH2 0x24EC JUMP JUMPDEST PUSH1 0x40 MLOAD DUP1 SWAP2 SUB SWAP1 REVERT JUMPDEST PUSH1 0x0 PUSH1 0x5 PUSH1 0x0 DUP7 DUP2 MSTORE PUSH1 0x20 ADD SWAP1 DUP2 MSTORE PUSH1 0x20 ADD PUSH1 0x0 KECCAK256 SWAP1 POP PUSH1 0x1 DUP2 PUSH1 0x7 ADD PUSH1 0x0 PUSH2 0x100 EXP DUP2 SLOAD DUP2 PUSH1 0xFF MUL NOT AND SWAP1 DUP4 ISZERO ISZERO MUL OR SWAP1 SSTORE POP PUSH1 0x0 DUP2 PUSH1 0x4 ADD DUP2 SWAP1 SSTORE POP DUP5 PUSH32 0xC13332A43E47B855337E607DF3246F6827921CB8D114A3E933EC50107C72CA3D PUSH1 0x40 MLOAD PUSH1 0x40 MLOAD DUP1 SWAP2 SUB SWAP1 LOG2 POP POP POP POP POP JUMP JUMPDEST PUSH1 0x1 PUSH1 0x0 SWAP1 SLOAD SWAP1 PUSH2 0x100 EXP SWAP1 DIV PUSH20 0xFFFFFFFFFFFFFFFFFFFFFFFFFFFFFFFFFFFFFFFF AND DUP2 JUMP JUMPDEST PUSH1 0x4 SLOAD DUP2 JUMP JUMPDEST PUSH1 0x3 SLOAD DUP2 JUMP JUMPDEST PUSH1 0x0 DUP1 SLOAD SWAP1 PUSH2 0x100 EXP SWAP1 DIV PUSH20 0xFFFFFFFFFFFFFFFFFFFFFFFFFFFFFFFFFFFFFFFF AND PUSH20 0xFFFFFFFFFFFFFFFFFFFFFFFFFFFFFFFFFFFFFFFF AND CALLER PUSH20 0xFFFFFFFFFFFFFFFFFFFFFFFFFFFFFFFFFFFFFFFF AND EQ PUSH2 0xF90 JUMPI PUSH1 0x40 MLOAD PUSH32 0x8C379A000000000000000000000000000000000000000000000000000000000 DUP2 MSTORE PUSH1 0x4 ADD PUSH2 0xF87 SWAP1 PUSH2 0x23A8 JUMP JUMPDEST PUSH1 0x40 MLOAD DUP1 SWAP2 SUB SWAP1 REVERT JUMPDEST DUP1 PUSH1 0x4 SLOAD DUP2 GT ISZERO DUP1 ISZERO PUSH2 0xFA3 JUMPI POP PUSH1 0x0 DUP2 GT JUMPDEST PUSH2 0xFE2 JUMPI PUSH1 0x40 MLOAD PUSH32 0x8C379A000000000000000000000000000000000000000000000000000000000 DUP2 MSTORE PUSH1 0x4 ADD PUSH2 0xFD9 SWAP1 PUSH2 0x2414 JUMP JUMPDEST PUSH1 0x40 MLOAD DUP1 SWAP2 SUB SWAP1 REVERT JUMPDEST DUP2 PUSH1 0x5 PUSH1 0x0 DUP3 DUP2 MSTORE PUSH1 0x20 ADD SWAP1 DUP2 MSTORE PUSH1 0x20 ADD PUSH1 0x0 KECCAK256 PUSH1 0x7 ADD PUSH1 0x1 SWAP1 SLOAD SWAP1 PUSH2 0x100 EXP SWAP1 DIV PUSH1 0xFF AND ISZERO PUSH2 0x1047 JUMPI PUSH1 0x40 MLOAD PUSH32 0x8C379A000000000000000000000000000000000000000000000000000000000 DUP2 MSTORE PUSH1 0x4 ADD PUSH2 0x103E SWAP1 PUSH2 0x2480 JUMP JUMPDEST PUSH1 0x40 MLOAD DUP1 SWAP2 SUB SWAP1 REVERT JUMPDEST PUSH1 0x7 PUSH1 0x2 SWAP1 SLOAD SWAP1 PUSH2 0x100 EXP SWAP1 DIV PUSH1 0xFF AND DUP1 PUSH2 0x1097 JUMPI PUSH1 0x40 MLOAD PUSH32 0x8C379A000000000000000000000000000000000000000000000000000000000 DUP2 MSTORE PUSH1 0x4 ADD PUSH2 0x108E SWAP1 PUSH2 0x24EC JUMP JUMPDEST PUSH1 0x40 MLOAD DUP1 SWAP2 SUB SWAP1 REVERT JUMPDEST PUSH1 0x0 PUSH1 0x5 PUSH1 0x0 DUP7 DUP2 MSTORE PUSH1 0x20 ADD SWAP1 DUP2 MSTORE PUSH1 0x20 ADD PUSH1 0x0 KECCAK256 SWAP1 POP DUP1 PUSH1 0x7 ADD PUSH1 0x0 SWAP1 SLOAD SWAP1 PUSH2 0x100 EXP SWAP1 DIV PUSH1 0xFF AND PUSH2 0x10FF JUMPI PUSH1 0x40 MLOAD PUSH32 0x8C379A000000000000000000000000000000000000000000000000000000000 DUP2 MSTORE PUSH1 0x4 ADD PUSH2 0x10F6 SWAP1 PUSH2 0x2B3E JUMP JUMPDEST PUSH1 0x40 MLOAD DUP1 SWAP2 SUB SWAP1 REVERT JUMPDEST DUP1 PUSH1 0x5 ADD SLOAD DUP2 PUSH1 0x6 ADD SLOAD LT ISZERO PUSH2 0x114A JUMPI PUSH1 0x40 MLOAD PUSH32 0x8C379A000000000000000000000000000000000000000000000000000000000 DUP2 MSTORE PUSH1 0x4 ADD PUSH2 0x1141 SWAP1 PUSH2 0x2BAA JUMP JUMPDEST PUSH1 0x40 MLOAD DUP1 SWAP2 SUB SWAP1 REVERT JUMPDEST PUSH1 0x0 JUMPDEST DUP2 PUSH1 0x9 ADD DUP1 SLOAD SWAP1 POP DUP2 LT ISZERO PUSH2 0x139E JUMPI PUSH1 0x0 DUP3 PUSH1 0x9 ADD DUP3 DUP2 SLOAD DUP2 LT PUSH2 0x1174 JUMPI PUSH2 0x1173 PUSH2 0x2BCA JUMP JUMPDEST JUMPDEST SWAP1 PUSH1 0x0 MSTORE PUSH1 0x20 PUSH1 0x0 KECCAK256 ADD PUSH1 0x0 SWAP1 SLOAD SWAP1 PUSH2 0x100 EXP SWAP1 DIV PUSH20 0xFFFFFFFFFFFFFFFFFFFFFFFFFFFFFFFFFFFFFFFF AND SWAP1 POP PUSH1 0x0 PUSH1 0x6 PUSH1 0x0 DUP10 DUP2 MSTORE PUSH1 0x20 ADD SWAP1 DUP2 MSTORE PUSH1 0x20 ADD PUSH1 0x0 KECCAK256 PUSH1 0x0 DUP4 PUSH20 0xFFFFFFFFFFFFFFFFFFFFFFFFFFFFFFFFFFFFFFFF AND PUSH20 0xFFFFFFFFFFFFFFFFFFFFFFFFFFFFFFFFFFFFFFFF AND DUP2 MSTORE PUSH1 0x20 ADD SWAP1 DUP2 MSTORE PUSH1 0x20 ADD PUSH1 0x0 KECCAK256 SWAP1 POP DUP1 PUSH1 0x1 ADD PUSH1 0x0 SWAP1 SLOAD SWAP1 PUSH2 0x100 EXP SWAP1 DIV PUSH1 0xFF AND PUSH2 0x1389 JUMPI PUSH1 0x0 PUSH1 0x64 PUSH1 0x3 SLOAD DUP4 PUSH1 0x0 ADD SLOAD PUSH2 0x1221 SWAP2 SWAP1 PUSH2 0x279E JUMP JUMPDEST PUSH2 0x122B SWAP2 SWAP1 PUSH2 0x280F JUMP JUMPDEST DUP3 PUSH1 0x0 ADD SLOAD PUSH2 0x123A SWAP2 SWAP1 PUSH2 0x2840 JUMP JUMPDEST SWAP1 POP PUSH1 0x2 PUSH1 0x0 SWAP1 SLOAD SWAP1 PUSH2 0x100 EXP SWAP1 DIV PUSH20 0xFFFFFFFFFFFFFFFFFFFFFFFFFFFFFFFFFFFFFFFF AND PUSH20 0xFFFFFFFFFFFFFFFFFFFFFFFFFFFFFFFFFFFFFFFF AND PUSH4 0xA9059CBB DUP5 DUP4 PUSH1 0x40 MLOAD DUP4 PUSH4 0xFFFFFFFF AND PUSH1 0xE0 SHL DUP2 MSTORE PUSH1 0x4 ADD PUSH2 0x1299 SWAP3 SWAP2 SWAP1 PUSH2 0x25E4 JUMP JUMPDEST PUSH1 0x20 PUSH1 0x40 MLOAD DUP1 DUP4 SUB DUP2 PUSH1 0x0 DUP8 GAS CALL ISZERO DUP1 ISZERO PUSH2 0x12B8 JUMPI RETURNDATASIZE PUSH1 0x0 DUP1 RETURNDATACOPY RETURNDATASIZE PUSH1 0x0 REVERT JUMPDEST POP POP POP POP PUSH1 0x40 MLOAD RETURNDATASIZE PUSH1 0x1F NOT PUSH1 0x1F DUP3 ADD AND DUP3 ADD DUP1 PUSH1 0x40 MSTORE POP DUP2 ADD SWAP1 PUSH2 0x12DC SWAP2 SWAP1 PUSH2 0x2622 JUMP JUMPDEST PUSH2 0x131B JUMPI PUSH1 0x40 MLOAD PUSH32 0x8C379A000000000000000000000000000000000000000000000000000000000 DUP2 MSTORE PUSH1 0x4 ADD PUSH2 0x1312 SWAP1 PUSH2 0x269B JUMP JUMPDEST PUSH1 0x40 MLOAD DUP1 SWAP2 SUB SWAP1 REVERT JUMPDEST PUSH1 0x1 DUP3 PUSH1 0x1 ADD PUSH1 0x0 PUSH2 0x100 EXP DUP2 SLOAD DUP2 PUSH1 0xFF MUL NOT AND SWAP1 DUP4 ISZERO ISZERO MUL OR SWAP1 SSTORE POP DUP3 PUSH20 0xFFFFFFFFFFFFFFFFFFFFFFFFFFFFFFFFFFFFFFFF AND DUP10 PUSH32 0x59847E4BA422D73F002FEFD39A152AB5AA2ECE97AE139061E192CEF79E7EC8FE DUP4 PUSH1 0x40 MLOAD PUSH2 0x137F SWAP2 SWAP1 PUSH2 0x220C JUMP JUMPDEST PUSH1 0x40 MLOAD DUP1 SWAP2 SUB SWAP1 LOG3 POP JUMPDEST POP POP DUP1 DUP1 PUSH2 0x1396 SWAP1 PUSH2 0x2756 JUMP JUMPDEST SWAP2 POP POP PUSH2 0x114D JUMP JUMPDEST POP PUSH1 0x1 DUP2 PUSH1 0x7 ADD PUSH1 0x1 PUSH2 0x100 EXP DUP2 SLOAD DUP2 PUSH1 0xFF MUL NOT AND SWAP1 DUP4 ISZERO ISZERO MUL OR SWAP1 SSTORE POP POP POP POP POP POP JUMP JUMPDEST DUP2 PUSH1 0x4 SLOAD DUP2 GT ISZERO DUP1 ISZERO PUSH2 0x13D6 JUMPI POP PUSH1 0x0 DUP2 GT JUMPDEST PUSH2 0x1415 JUMPI PUSH1 0x40 MLOAD PUSH32 0x8C379A000000000000000000000000000000000000000000000000000000000 DUP2 MSTORE PUSH1 0x4 ADD PUSH2 0x140C SWAP1 PUSH2 0x2414 JUMP JUMPDEST PUSH1 0x40 MLOAD DUP1 SWAP2 SUB SWAP1 REVERT JUMPDEST DUP3 PUSH1 0x5 PUSH1 0x0 DUP3 DUP2 MSTORE PUSH1 0x20 ADD SWAP1 DUP2 MSTORE PUSH1 0x20 ADD PUSH1 0x0 KECCAK256 PUSH1 0x7 ADD PUSH1 0x1 SWAP1 SLOAD SWAP1 PUSH2 0x100 EXP SWAP1 DIV PUSH1 0xFF AND ISZERO PUSH2 0x147A JUMPI PUSH1 0x40 MLOAD PUSH32 0x8C379A000000000000000000000000000000000000000000000000000000000 DUP2 MSTORE PUSH1 0x4 ADD PUSH2 0x1471 SWAP1 PUSH2 0x2480 JUMP JUMPDEST PUSH1 0x40 MLOAD DUP1 SWAP2 SUB SWAP1 REVERT JUMPDEST PUSH1 0x0 PUSH1 0x5 PUSH1 0x0 DUP7 DUP2 MSTORE PUSH1 0x20 ADD SWAP1 DUP2 MSTORE PUSH1 0x20 ADD PUSH1 0x0 KECCAK256 SWAP1 POP DUP1 PUSH1 0x3 ADD SLOAD DUP5 DUP3 PUSH1 0x4 ADD SLOAD PUSH2 0x14A6 SWAP2 SWAP1 PUSH2 0x2840 JUMP JUMPDEST GT ISZERO PUSH2 0x14E7 JUMPI PUSH1 0x40 MLOAD PUSH32 0x8C379A000000000000000000000000000000000000000000000000000000000 DUP2 MSTORE PUSH1 0x4 ADD PUSH2 0x14DE SWAP1 PUSH2 0x2C45 JUMP JUMPDEST PUSH1 0x40 MLOAD DUP1 SWAP2 SUB SWAP1 REVERT JUMPDEST PUSH1 0x2 PUSH1 0x0 SWAP1 SLOAD SWAP1 PUSH2 0x100 EXP SWAP1 DIV PUSH20 0xFFFFFFFFFFFFFFFFFFFFFFFFFFFFFFFFFFFFFFFF AND PUSH20 0xFFFFFFFFFFFFFFFFFFFFFFFFFFFFFFFFFFFFFFFF AND PUSH4 0x23B872DD CALLER ADDRESS DUP8 PUSH1 0x40 MLOAD DUP5 PUSH4 0xFFFFFFFF AND PUSH1 0xE0 SHL DUP2 MSTORE PUSH1 0x4 ADD PUSH2 0x1546 SWAP4 SWAP3 SWAP2 SWAP1 PUSH2 0x2C65 JUMP JUMPDEST PUSH1 0x20 PUSH1 0x40 MLOAD DUP1 DUP4 SUB DUP2 PUSH1 0x0 DUP8 GAS CALL ISZERO DUP1 ISZERO PUSH2 0x1565 JUMPI RETURNDATASIZE PUSH1 0x0 DUP1 RETURNDATACOPY RETURNDATASIZE PUSH1 0x0 REVERT JUMPDEST POP POP POP POP PUSH1 0x40 MLOAD RETURNDATASIZE PUSH1 0x1F NOT PUSH1 0x1F DUP3 ADD AND DUP3 ADD DUP1 PUSH1 0x40 MSTORE POP DUP2 ADD SWAP1 PUSH2 0x1589 SWAP2 SWAP1 PUSH2 0x2622 JUMP JUMPDEST PUSH2 0x15C8 JUMPI PUSH1 0x40 MLOAD PUSH32 0x8C379A000000000000000000000000000000000000000000000000000000000 DUP2 MSTORE PUSH1 0x4 ADD PUSH2 0x15BF SWAP1 PUSH2 0x269B JUMP JUMPDEST PUSH1 0x40 MLOAD DUP1 SWAP2 SUB SWAP1 REVERT JUMPDEST PUSH1 0x0 PUSH1 0x6 PUSH1 0x0 DUP8 DUP2 MSTORE PUSH1 0x20 ADD SWAP1 DUP2 MSTORE PUSH1 0x20 ADD PUSH1 0x0 KECCAK256 PUSH1 0x0 CALLER PUSH20 0xFFFFFFFFFFFFFFFFFFFFFFFFFFFFFFFFFFFFFFFF AND PUSH20 0xFFFFFFFFFFFFFFFFFFFFFFFFFFFFFFFFFFFFFFFF AND DUP2 MSTORE PUSH1 0x20 ADD SWAP1 DUP2 MSTORE PUSH1 0x20 ADD PUSH1 0x0 KECCAK256 PUSH1 0x0 ADD SLOAD SUB PUSH2 0x1689 JUMPI DUP1 PUSH1 0x9 ADD CALLER SWAP1 DUP1 PUSH1 0x1 DUP2 SLOAD ADD DUP1 DUP3 SSTORE DUP1 SWAP2 POP POP PUSH1 0x1 SWAP1 SUB SWAP1 PUSH1 0x0 MSTORE PUSH1 0x20 PUSH1 0x0 KECCAK256 ADD PUSH1 0x0 SWAP1 SWAP2 SWAP1 SWAP2 SWAP1 SWAP2 PUSH2 0x100 EXP DUP2 SLOAD DUP2 PUSH20 0xFFFFFFFFFFFFFFFFFFFFFFFFFFFFFFFFFFFFFFFF MUL NOT AND SWAP1 DUP4 PUSH20 0xFFFFFFFFFFFFFFFFFFFFFFFFFFFFFFFFFFFFFFFF AND MUL OR SWAP1 SSTORE POP JUMPDEST DUP4 PUSH1 0x6 PUSH1 0x0 DUP8 DUP2 MSTORE PUSH1 0x20 ADD SWAP1 DUP2 MSTORE PUSH1 0x20 ADD PUSH1 0x0 KECCAK256 PUSH1 0x0 CALLER PUSH20 0xFFFFFFFFFFFFFFFFFFFFFFFFFFFFFFFFFFFFFFFF AND PUSH20 0xFFFFFFFFFFFFFFFFFFFFFFFFFFFFFFFFFFFFFFFF AND DUP2 MSTORE PUSH1 0x20 ADD SWAP1 DUP2 MSTORE PUSH1 0x20 ADD PUSH1 0x0 KECCAK256 PUSH1 0x0 ADD PUSH1 0x0 DUP3 DUP3 SLOAD PUSH2 0x16EC SWAP2 SWAP1 PUSH2 0x2840 JUMP JUMPDEST SWAP3 POP POP DUP2 SWAP1 SSTORE POP DUP4 DUP2 PUSH1 0x4 ADD PUSH1 0x0 DUP3 DUP3 SLOAD PUSH2 0x1707 SWAP2 SWAP1 PUSH2 0x2840 JUMP JUMPDEST SWAP3 POP POP DUP2 SWAP1 SSTORE POP CALLER PUSH20 0xFFFFFFFFFFFFFFFFFFFFFFFFFFFFFFFFFFFFFFFF AND DUP6 PUSH32 0xEE5E682F79085C85B959874A59B4897EAE17B6448AB068A467169CA1B2E1A888 DUP7 PUSH1 0x40 MLOAD PUSH2 0x1755 SWAP2 SWAP1 PUSH2 0x220C JUMP JUMPDEST PUSH1 0x40 MLOAD DUP1 SWAP2 SUB SWAP1 LOG3 POP POP POP POP POP JUMP JUMPDEST PUSH1 0x0 DUP1 SLOAD SWAP1 PUSH2 0x100 EXP SWAP1 DIV PUSH20 0xFFFFFFFFFFFFFFFFFFFFFFFFFFFFFFFFFFFFFFFF AND DUP2 JUMP JUMPDEST PUSH1 0x1 PUSH1 0x0 SWAP1 SLOAD SWAP1 PUSH2 0x100 EXP SWAP1 DIV PUSH20 0xFFFFFFFFFFFFFFFFFFFFFFFFFFFFFFFFFFFFFFFF AND PUSH20 0xFFFFFFFFFFFFFFFFFFFFFFFFFFFFFFFFFFFFFFFF AND CALLER PUSH20 0xFFFFFFFFFFFFFFFFFFFFFFFFFFFFFFFFFFFFFFFF AND EQ PUSH2 0x1818 JUMPI PUSH1 0x40 MLOAD PUSH32 0x8C379A000000000000000000000000000000000000000000000000000000000 DUP2 MSTORE PUSH1 0x4 ADD PUSH2 0x180F SWAP1 PUSH2 0x2707 JUMP JUMPDEST PUSH1 0x40 MLOAD DUP1 SWAP2 SUB SWAP1 REVERT JUMPDEST DUP1 PUSH1 0x7 PUSH1 0x2 PUSH2 0x100 EXP DUP2 SLOAD DUP2 PUSH1 0xFF MUL NOT AND SWAP1 DUP4 ISZERO ISZERO MUL OR SWAP1 SSTORE POP POP JUMP JUMPDEST PUSH1 0x1 PUSH1 0x0 SWAP1 SLOAD SWAP1 PUSH2 0x100 EXP SWAP1 DIV PUSH20 0xFFFFFFFFFFFFFFFFFFFFFFFFFFFFFFFFFFFFFFFF AND PUSH20 0xFFFFFFFFFFFFFFFFFFFFFFFFFFFFFFFFFFFFFFFF AND CALLER PUSH20 0xFFFFFFFFFFFFFFFFFFFFFFFFFFFFFFFFFFFFFFFF AND EQ PUSH2 0x18C5 JUMPI PUSH1 0x40 MLOAD PUSH32 0x8C379A000000000000000000000000000000000000000000000000000000000 DUP2 MSTORE PUSH1 0x4 ADD PUSH2 0x18BC SWAP1 PUSH2 0x2707 JUMP JUMPDEST PUSH1 0x40 MLOAD DUP1 SWAP2 SUB SWAP1 REVERT JUMPDEST DUP1 PUSH1 0x7 PUSH1 0x1 PUSH2 0x100 EXP DUP2 SLOAD DUP2 PUSH1 0xFF MUL NOT AND SWAP1 DUP4 ISZERO ISZERO MUL OR SWAP1 SSTORE POP POP JUMP JUMPDEST PUSH1 0x7 PUSH1 0x1 SWAP1 SLOAD SWAP1 PUSH2 0x100 EXP SWAP1 DIV PUSH1 0xFF AND DUP2 JUMP JUMPDEST PUSH1 0x0 DUP1 SLOAD SWAP1 PUSH2 0x100 EXP SWAP1 DIV PUSH20 0xFFFFFFFFFFFFFFFFFFFFFFFFFFFFFFFFFFFFFFFF AND PUSH20 0xFFFFFFFFFFFFFFFFFFFFFFFFFFFFFFFFFFFFFFFF AND CALLER PUSH20 0xFFFFFFFFFFFFFFFFFFFFFFFFFFFFFFFFFFFFFFFF AND EQ PUSH2 0x1983 JUMPI PUSH1 0x40 MLOAD PUSH32 0x8C379A000000000000000000000000000000000000000000000000000000000 DUP2 MSTORE PUSH1 0x4 ADD PUSH2 0x197A SWAP1 PUSH2 0x23A8 JUMP JUMPDEST PUSH1 0x40 MLOAD DUP1 SWAP2 SUB SWAP1 REVERT JUMPDEST DUP2 PUSH1 0x4 SLOAD DUP2 GT ISZERO DUP1 ISZERO PUSH2 0x1996 JUMPI POP PUSH1 0x0 DUP2 GT JUMPDEST PUSH2 0x19D5 JUMPI PUSH1 0x40 MLOAD PUSH32 0x8C379A000000000000000000000000000000000000000000000000000000000 DUP2 MSTORE PUSH1 0x4 ADD PUSH2 0x19CC SWAP1 PUSH2 0x2414 JUMP JUMPDEST PUSH1 0x40 MLOAD DUP1 SWAP2 SUB SWAP1 REVERT JUMPDEST DUP3 PUSH1 0x5 PUSH1 0x0 DUP3 DUP2 MSTORE PUSH1 0x20 ADD SWAP1 DUP2 MSTORE PUSH1 0x20 ADD PUSH1 0x0 KECCAK256 PUSH1 0x7 ADD PUSH1 0x1 SWAP1 SLOAD SWAP1 PUSH2 0x100 EXP SWAP1 DIV PUSH1 0xFF AND ISZERO PUSH2 0x1A3A JUMPI PUSH1 0x40 MLOAD PUSH32 0x8C379A000000000000000000000000000000000000000000000000000000000 DUP2 MSTORE PUSH1 0x4 ADD PUSH2 0x1A31 SWAP1 PUSH2 0x2480 JUMP JUMPDEST PUSH1 0x40 MLOAD DUP1 SWAP2 SUB SWAP1 REVERT JUMPDEST PUSH1 0x0 PUSH1 0x5 PUSH1 0x0 DUP7 DUP2 MSTORE PUSH1 0x20 ADD SWAP1 DUP2 MSTORE PUSH1 0x20 ADD PUSH1 0x0 KECCAK256 SWAP1 POP PUSH1 0x2 PUSH1 0x0 SWAP1 SLOAD SWAP1 PUSH2 0x100 EXP SWAP1 DIV PUSH20 0xFFFFFFFFFFFFFFFFFFFFFFFFFFFFFFFFFFFFFFFF AND PUSH20 0xFFFFFFFFFFFFFFFFFFFFFFFFFFFFFFFFFFFFFFFF AND PUSH4 0x23B872DD CALLER ADDRESS DUP8 PUSH1 0x40 MLOAD DUP5 PUSH4 0xFFFFFFFF AND PUSH1 0xE0 SHL DUP2 MSTORE PUSH1 0x4 ADD PUSH2 0x1AB0 SWAP4 SWAP3 SWAP2 SWAP1 PUSH2 0x2C65 JUMP JUMPDEST PUSH1 0x20 PUSH1 0x40 MLOAD DUP1 DUP4 SUB DUP2 PUSH1 0x0 DUP8 GAS CALL ISZERO DUP1 ISZERO PUSH2 0x1ACF JUMPI RETURNDATASIZE PUSH1 0x0 DUP1 RETURNDATACOPY RETURNDATASIZE PUSH1 0x0 REVERT JUMPDEST POP POP POP POP PUSH1 0x40 MLOAD RETURNDATASIZE PUSH1 0x1F NOT PUSH1 0x1F DUP3 ADD AND DUP3 ADD DUP1 PUSH1 0x40 MSTORE POP DUP2 ADD SWAP1 PUSH2 0x1AF3 SWAP2 SWAP1 PUSH2 0x2622 JUMP JUMPDEST PUSH2 0x1B32 JUMPI PUSH1 0x40 MLOAD PUSH32 0x8C379A000000000000000000000000000000000000000000000000000000000 DUP2 MSTORE PUSH1 0x4 ADD PUSH2 0x1B29 SWAP1 PUSH2 0x269B JUMP JUMPDEST PUSH1 0x40 MLOAD DUP1 SWAP2 SUB SWAP1 REVERT JUMPDEST DUP4 DUP2 PUSH1 0x6 ADD PUSH1 0x0 DUP3 DUP3 SLOAD PUSH2 0x1B46 SWAP2 SWAP1 PUSH2 0x2840 JUMP JUMPDEST SWAP3 POP POP DUP2 SWAP1 SSTORE POP DUP5 PUSH32 0x37090086ADE94A2B98BC07A0A2C732CE0CB0FC3E5AD2118D95FD71FB5FAFFF6A DUP6 PUSH1 0x40 MLOAD PUSH2 0x1B7D SWAP2 SWAP1 PUSH2 0x220C JUMP JUMPDEST PUSH1 0x40 MLOAD DUP1 SWAP2 SUB SWAP1 LOG2 POP POP POP POP POP JUMP JUMPDEST PUSH1 0x2 PUSH1 0x0 SWAP1 SLOAD SWAP1 PUSH2 0x100 EXP SWAP1 DIV PUSH20 0xFFFFFFFFFFFFFFFFFFFFFFFFFFFFFFFFFFFFFFFF AND DUP2 JUMP JUMPDEST PUSH1 0x7 PUSH1 0x3 SWAP1 SLOAD SWAP1 PUSH2 0x100 EXP SWAP1 DIV PUSH1 0xFF AND DUP2 JUMP JUMPDEST PUSH1 0x1 PUSH1 0x0 SWAP1 SLOAD SWAP1 PUSH2 0x100 EXP SWAP1 DIV PUSH20 0xFFFFFFFFFFFFFFFFFFFFFFFFFFFFFFFFFFFFFFFF AND PUSH20 0xFFFFFFFFFFFFFFFFFFFFFFFFFFFFFFFFFFFFFFFF AND CALLER PUSH20 0xFFFFFFFFFFFFFFFFFFFFFFFFFFFFFFFFFFFFFFFF AND EQ PUSH2 0x1C55 JUMPI PUSH1 0x40 MLOAD PUSH32 0x8C379A000000000000000000000000000000000000000000000000000000000 DUP2 MSTORE PUSH1 0x4 ADD PUSH2 0x1C4C SWAP1 PUSH2 0x2707 JUMP JUMPDEST PUSH1 0x40 MLOAD DUP1 SWAP2 SUB SWAP1 REVERT JUMPDEST DUP1 PUSH1 0x7 PUSH1 0x3 PUSH2 0x100 EXP DUP2 SLOAD DUP2 PUSH1 0xFF MUL NOT AND SWAP1 DUP4 ISZERO ISZERO MUL OR SWAP1 SSTORE POP POP JUMP JUMPDEST PUSH1 0x6 PUSH1 0x20 MSTORE DUP2 PUSH1 0x0 MSTORE PUSH1 0x40 PUSH1 0x0 KECCAK256 PUSH1 0x20 MSTORE DUP1 PUSH1 0x0 MSTORE PUSH1 0x40 PUSH1 0x0 KECCAK256 PUSH1 0x0 SWAP2 POP SWAP2 POP POP DUP1 PUSH1 0x0 ADD SLOAD SWAP1 DUP1 PUSH1 0x1 ADD PUSH1 0x0 SWAP1 SLOAD SWAP1 PUSH2 0x100 EXP SWAP1 DIV PUSH1 0xFF AND SWAP1 POP DUP3 JUMP JUMPDEST PUSH1 0x7 PUSH1 0x0 SWAP1 SLOAD SWAP1 PUSH2 0x100 EXP SWAP1 DIV PUSH1 0xFF AND DUP2 JUMP JUMPDEST DUP3 DUP1 SLOAD DUP3 DUP3 SSTORE SWAP1 PUSH1 0x0 MSTORE PUSH1 0x20 PUSH1 0x0 KECCAK256 SWAP1 DUP2 ADD SWAP3 DUP3 ISZERO PUSH2 0x1D3C JUMPI SWAP2 PUSH1 0x20 MUL DUP3 ADD JUMPDEST DUP3 DUP2 GT ISZERO PUSH2 0x1D3B JUMPI DUP3 MLOAD DUP3 PUSH1 0x0 PUSH2 0x100 EXP DUP2 SLOAD DUP2 PUSH20 0xFFFFFFFFFFFFFFFFFFFFFFFFFFFFFFFFFFFFFFFF MUL NOT AND SWAP1 DUP4 PUSH20 0xFFFFFFFFFFFFFFFFFFFFFFFFFFFFFFFFFFFFFFFF AND MUL OR SWAP1 SSTORE POP SWAP2 PUSH1 0x20 ADD SWAP2 SWAP1 PUSH1 0x1 ADD SWAP1 PUSH2 0x1CE3 JUMP JUMPDEST JUMPDEST POP SWAP1 POP PUSH2 0x1D49 SWAP2 SWAP1 PUSH2 0x1D4D JUMP JUMPDEST POP SWAP1 JUMP JUMPDEST JUMPDEST DUP1 DUP3 GT ISZERO PUSH2 0x1D66 JUMPI PUSH1 0x0 DUP2 PUSH1 0x0 SWAP1 SSTORE POP PUSH1 0x1 ADD PUSH2 0x1D4E JUMP JUMPDEST POP SWAP1 JUMP JUMPDEST PUSH1 0x0 DUP2 ISZERO ISZERO SWAP1 POP SWAP2 SWAP1 POP JUMP JUMPDEST PUSH2 0x1D7F DUP2 PUSH2 0x1D6A JUMP JUMPDEST DUP3 MSTORE POP POP JUMP JUMPDEST PUSH1 0x0 PUSH1 0x20 DUP3 ADD SWAP1 POP PUSH2 0x1D9A PUSH1 0x0 DUP4 ADD DUP5 PUSH2 0x1D76 JUMP JUMPDEST SWAP3 SWAP2 POP POP JUMP JUMPDEST PUSH1 0x0 PUSH1 0x40 MLOAD SWAP1 POP SWAP1 JUMP JUMPDEST PUSH1 0x0 DUP1 REVERT JUMPDEST PUSH1 0x0 DUP1 REVERT JUMPDEST PUSH1 0x0 DUP2 SWAP1 POP SWAP2 SWAP1 POP JUMP JUMPDEST PUSH2 0x1DC7 DUP2 PUSH2 0x1DB4 JUMP JUMPDEST DUP2 EQ PUSH2 0x1DD2 JUMPI PUSH1 0x0 DUP1 REVERT JUMPDEST POP JUMP JUMPDEST PUSH1 0x0 DUP2 CALLDATALOAD SWAP1 POP PUSH2 0x1DE4 DUP2 PUSH2 0x1DBE JUMP JUMPDEST SWAP3 SWAP2 POP POP JUMP JUMPDEST PUSH1 0x0 PUSH1 0x20 DUP3 DUP5 SUB SLT ISZERO PUSH2 0x1E00 JUMPI PUSH2 0x1DFF PUSH2 0x1DAA JUMP JUMPDEST JUMPDEST PUSH1 0x0 PUSH2 0x1E0E DUP5 DUP3 DUP6 ADD PUSH2 0x1DD5 JUMP JUMPDEST SWAP2 POP POP SWAP3 SWAP2 POP POP JUMP JUMPDEST PUSH2 0x1E20 DUP2 PUSH2 0x1DB4 JUMP JUMPDEST DUP3 MSTORE POP POP JUMP JUMPDEST PUSH1 0x0 DUP2 MLOAD SWAP1 POP SWAP2 SWAP1 POP JUMP JUMPDEST PUSH1 0x0 DUP3 DUP3 MSTORE PUSH1 0x20 DUP3 ADD SWAP1 POP SWAP3 SWAP2 POP POP JUMP JUMPDEST PUSH1 0x0 JUMPDEST DUP4 DUP2 LT ISZERO PUSH2 0x1E60 JUMPI DUP1 DUP3 ADD MLOAD DUP2 DUP5 ADD MSTORE PUSH1 0x20 DUP2 ADD SWAP1 POP PUSH2 0x1E45 JUMP JUMPDEST PUSH1 0x0 DUP5 DUP5 ADD MSTORE POP POP POP POP JUMP JUMPDEST PUSH1 0x0 PUSH1 0x1F NOT PUSH1 0x1F DUP4 ADD AND SWAP1 POP SWAP2 SWAP1 POP JUMP JUMPDEST PUSH1 0x0 PUSH2 0x1E88 DUP3 PUSH2 0x1E26 JUMP JUMPDEST PUSH2 0x1E92 DUP2 DUP6 PUSH2 0x1E31 JUMP JUMPDEST SWAP4 POP PUSH2 0x1EA2 DUP2 DUP6 PUSH1 0x20 DUP7 ADD PUSH2 0x1E42 JUMP JUMPDEST PUSH2 0x1EAB DUP2 PUSH2 0x1E6C JUMP JUMPDEST DUP5 ADD SWAP2 POP POP SWAP3 SWAP2 POP POP JUMP JUMPDEST PUSH1 0x0 PUSH2 0x140 DUP3 ADD SWAP1 POP PUSH2 0x1ECC PUSH1 0x0 DUP4 ADD DUP14 PUSH2 0x1E17 JUMP JUMPDEST DUP2 DUP2 SUB PUSH1 0x20 DUP4 ADD MSTORE PUSH2 0x1EDE DUP2 DUP13 PUSH2 0x1E7D JUMP JUMPDEST SWAP1 POP DUP2 DUP2 SUB PUSH1 0x40 DUP4 ADD MSTORE PUSH2 0x1EF2 DUP2 DUP12 PUSH2 0x1E7D JUMP JUMPDEST SWAP1 POP PUSH2 0x1F01 PUSH1 0x60 DUP4 ADD DUP11 PUSH2 0x1E17 JUMP JUMPDEST PUSH2 0x1F0E PUSH1 0x80 DUP4 ADD DUP10 PUSH2 0x1E17 JUMP JUMPDEST PUSH2 0x1F1B PUSH1 0xA0 DUP4 ADD DUP9 PUSH2 0x1E17 JUMP JUMPDEST PUSH2 0x1F28 PUSH1 0xC0 DUP4 ADD DUP8 PUSH2 0x1E17 JUMP JUMPDEST PUSH2 0x1F35 PUSH1 0xE0 DUP4 ADD DUP7 PUSH2 0x1D76 JUMP JUMPDEST PUSH2 0x1F43 PUSH2 0x100 DUP4 ADD DUP6 PUSH2 0x1D76 JUMP JUMPDEST DUP2 DUP2 SUB PUSH2 0x120 DUP4 ADD MSTORE PUSH2 0x1F56 DUP2 DUP5 PUSH2 0x1E7D JUMP JUMPDEST SWAP1 POP SWAP12 SWAP11 POP POP POP POP POP POP POP POP POP POP POP JUMP JUMPDEST PUSH2 0x1F70 DUP2 PUSH2 0x1D6A JUMP JUMPDEST DUP2 EQ PUSH2 0x1F7B JUMPI PUSH1 0x0 DUP1 REVERT JUMPDEST POP JUMP JUMPDEST PUSH1 0x0 DUP2 CALLDATALOAD SWAP1 POP PUSH2 0x1F8D DUP2 PUSH2 0x1F67 JUMP JUMPDEST SWAP3 SWAP2 POP POP JUMP JUMPDEST PUSH1 0x0 PUSH1 0x20 DUP3 DUP5 SUB SLT ISZERO PUSH2 0x1FA9 JUMPI PUSH2 0x1FA8 PUSH2 0x1DAA JUMP JUMPDEST JUMPDEST PUSH1 0x0 PUSH2 0x1FB7 DUP5 DUP3 DUP6 ADD PUSH2 0x1F7E JUMP JUMPDEST SWAP2 POP POP SWAP3 SWAP2 POP POP JUMP JUMPDEST PUSH1 0x0 DUP1 REVERT JUMPDEST PUSH1 0x0 DUP1 REVERT JUMPDEST PUSH32 0x4E487B7100000000000000000000000000000000000000000000000000000000 PUSH1 0x0 MSTORE PUSH1 0x41 PUSH1 0x4 MSTORE PUSH1 0x24 PUSH1 0x0 REVERT JUMPDEST PUSH2 0x2002 DUP3 PUSH2 0x1E6C JUMP JUMPDEST DUP2 ADD DUP2 DUP2 LT PUSH8 0xFFFFFFFFFFFFFFFF DUP3 GT OR ISZERO PUSH2 0x2021 JUMPI PUSH2 0x2020 PUSH2 0x1FCA JUMP JUMPDEST JUMPDEST DUP1 PUSH1 0x40 MSTORE POP POP POP JUMP JUMPDEST PUSH1 0x0 PUSH2 0x2034 PUSH2 0x1DA0 JUMP JUMPDEST SWAP1 POP PUSH2 0x2040 DUP3 DUP3 PUSH2 0x1FF9 JUMP JUMPDEST SWAP2 SWAP1 POP JUMP JUMPDEST PUSH1 0x0 PUSH8 0xFFFFFFFFFFFFFFFF DUP3 GT ISZERO PUSH2 0x2060 JUMPI PUSH2 0x205F PUSH2 0x1FCA JUMP JUMPDEST JUMPDEST PUSH2 0x2069 DUP3 PUSH2 0x1E6C JUMP JUMPDEST SWAP1 POP PUSH1 0x20 DUP2 ADD SWAP1 POP SWAP2 SWAP1 POP JUMP JUMPDEST DUP3 DUP2 DUP4 CALLDATACOPY PUSH1 0x0 DUP4 DUP4 ADD MSTORE POP POP POP JUMP JUMPDEST PUSH1 0x0 PUSH2 0x2098 PUSH2 0x2093 DUP5 PUSH2 0x2045 JUMP JUMPDEST PUSH2 0x202A JUMP JUMPDEST SWAP1 POP DUP3 DUP2 MSTORE PUSH1 0x20 DUP2 ADD DUP5 DUP5 DUP5 ADD GT ISZERO PUSH2 0x20B4 JUMPI PUSH2 0x20B3 PUSH2 0x1FC5 JUMP JUMPDEST JUMPDEST PUSH2 0x20BF DUP5 DUP3 DUP6 PUSH2 0x2076 JUMP JUMPDEST POP SWAP4 SWAP3 POP POP POP JUMP JUMPDEST PUSH1 0x0 DUP3 PUSH1 0x1F DUP4 ADD SLT PUSH2 0x20DC JUMPI PUSH2 0x20DB PUSH2 0x1FC0 JUMP JUMPDEST JUMPDEST DUP2 CALLDATALOAD PUSH2 0x20EC DUP5 DUP3 PUSH1 0x20 DUP7 ADD PUSH2 0x2085 JUMP JUMPDEST SWAP2 POP POP SWAP3 SWAP2 POP POP JUMP JUMPDEST PUSH1 0x0 DUP1 PUSH1 0x0 DUP1 PUSH1 0x80 DUP6 DUP8 SUB SLT ISZERO PUSH2 0x210F JUMPI PUSH2 0x210E PUSH2 0x1DAA JUMP JUMPDEST JUMPDEST PUSH1 0x0 DUP6 ADD CALLDATALOAD PUSH8 0xFFFFFFFFFFFFFFFF DUP2 GT ISZERO PUSH2 0x212D JUMPI PUSH2 0x212C PUSH2 0x1DAF JUMP JUMPDEST JUMPDEST PUSH2 0x2139 DUP8 DUP3 DUP9 ADD PUSH2 0x20C7 JUMP JUMPDEST SWAP5 POP POP PUSH1 0x20 DUP6 ADD CALLDATALOAD PUSH8 0xFFFFFFFFFFFFFFFF DUP2 GT ISZERO PUSH2 0x215A JUMPI PUSH2 0x2159 PUSH2 0x1DAF JUMP JUMPDEST JUMPDEST PUSH2 0x2166 DUP8 DUP3 DUP9 ADD PUSH2 0x20C7 JUMP JUMPDEST SWAP4 POP POP PUSH1 0x40 PUSH2 0x2177 DUP8 DUP3 DUP9 ADD PUSH2 0x1DD5 JUMP JUMPDEST SWAP3 POP POP PUSH1 0x60 DUP6 ADD CALLDATALOAD PUSH8 0xFFFFFFFFFFFFFFFF DUP2 GT ISZERO PUSH2 0x2198 JUMPI PUSH2 0x2197 PUSH2 0x1DAF JUMP JUMPDEST JUMPDEST PUSH2 0x21A4 DUP8 DUP3 DUP9 ADD PUSH2 0x20C7 JUMP JUMPDEST SWAP2 POP POP SWAP3 SWAP6 SWAP2 SWAP5 POP SWAP3 POP JUMP JUMPDEST PUSH1 0x0 PUSH20 0xFFFFFFFFFFFFFFFFFFFFFFFFFFFFFFFFFFFFFFFF DUP3 AND SWAP1 POP SWAP2 SWAP1 POP JUMP JUMPDEST PUSH1 0x0 PUSH2 0x21DB DUP3 PUSH2 0x21B0 JUMP JUMPDEST SWAP1 POP SWAP2 SWAP1 POP JUMP JUMPDEST PUSH2 0x21EB DUP2 PUSH2 0x21D0 JUMP JUMPDEST DUP3 MSTORE POP POP JUMP JUMPDEST PUSH1 0x0 PUSH1 0x20 DUP3 ADD SWAP1 POP PUSH2 0x2206 PUSH1 0x0 DUP4 ADD DUP5 PUSH2 0x21E2 JUMP JUMPDEST SWAP3 SWAP2 POP POP JUMP JUMPDEST PUSH1 0x0 PUSH1 0x20 DUP3 ADD SWAP1 POP PUSH2 0x2221 PUSH1 0x0 DUP4 ADD DUP5 PUSH2 0x1E17 JUMP JUMPDEST SWAP3 SWAP2 POP POP JUMP JUMPDEST PUSH1 0x0 DUP1 PUSH1 0x40 DUP4 DUP6 SUB SLT ISZERO PUSH2 0x223E JUMPI PUSH2 0x223D PUSH2 0x1DAA JUMP JUMPDEST JUMPDEST PUSH1 0x0 PUSH2 0x224C DUP6 DUP3 DUP7 ADD PUSH2 0x1DD5 JUMP JUMPDEST SWAP3 POP POP PUSH1 0x20 PUSH2 0x225D DUP6 DUP3 DUP7 ADD PUSH2 0x1DD5 JUMP JUMPDEST SWAP2 POP POP SWAP3 POP SWAP3 SWAP1 POP JUMP JUMPDEST PUSH2 0x2270 DUP2 PUSH2 0x21D0 JUMP JUMPDEST DUP2 EQ PUSH2 0x227B JUMPI PUSH1 0x0 DUP1 REVERT JUMPDEST POP JUMP JUMPDEST PUSH1 0x0 DUP2 CALLDATALOAD SWAP1 POP PUSH2 0x228D DUP2 PUSH2 0x2267 JUMP JUMPDEST SWAP3 SWAP2 POP POP JUMP JUMPDEST PUSH1 0x0 DUP1 PUSH1 0x40 DUP4 DUP6 SUB SLT ISZERO PUSH2 0x22AA JUMPI PUSH2 0x22A9 PUSH2 0x1DAA JUMP JUMPDEST JUMPDEST PUSH1 0x0 PUSH2 0x22B8 DUP6 DUP3 DUP7 ADD PUSH2 0x1DD5 JUMP JUMPDEST SWAP3 POP POP PUSH1 0x20 PUSH2 0x22C9 DUP6 DUP3 DUP7 ADD PUSH2 0x227E JUMP JUMPDEST SWAP2 POP POP SWAP3 POP SWAP3 SWAP1 POP JUMP JUMPDEST PUSH1 0x0 PUSH1 0x40 DUP3 ADD SWAP1 POP PUSH2 0x22E8 PUSH1 0x0 DUP4 ADD DUP6 PUSH2 0x1E17 JUMP JUMPDEST PUSH2 0x22F5 PUSH1 0x20 DUP4 ADD DUP5 PUSH2 0x1D76 JUMP JUMPDEST SWAP4 SWAP3 POP POP POP JUMP JUMPDEST PUSH32 0x4E487B7100000000000000000000000000000000000000000000000000000000 PUSH1 0x0 MSTORE PUSH1 0x22 PUSH1 0x4 MSTORE PUSH1 0x24 PUSH1 0x0 REVERT JUMPDEST PUSH1 0x0 PUSH1 0x2 DUP3 DIV SWAP1 POP PUSH1 0x1 DUP3 AND DUP1 PUSH2 0x2343 JUMPI PUSH1 0x7F DUP3 AND SWAP2 POP JUMPDEST PUSH1 0x20 DUP3 LT DUP2 SUB PUSH2 0x2356 JUMPI PUSH2 0x2355 PUSH2 0x22FC JUMP JUMPDEST JUMPDEST POP SWAP2 SWAP1 POP JUMP JUMPDEST PUSH32 0x4E6F74206F776E65720000000000000000000000000000000000000000000000 PUSH1 0x0 DUP3 ADD MSTORE POP JUMP JUMPDEST PUSH1 0x0 PUSH2 0x2392 PUSH1 0x9 DUP4 PUSH2 0x1E31 JUMP JUMPDEST SWAP2 POP PUSH2 0x239D DUP3 PUSH2 0x235C JUMP JUMPDEST PUSH1 0x20 DUP3 ADD SWAP1 POP SWAP2 SWAP1 POP JUMP JUMPDEST PUSH1 0x0 PUSH1 0x20 DUP3 ADD SWAP1 POP DUP2 DUP2 SUB PUSH1 0x0 DUP4 ADD MSTORE PUSH2 0x23C1 DUP2 PUSH2 0x2385 JUMP JUMPDEST SWAP1 POP SWAP2 SWAP1 POP JUMP JUMPDEST PUSH32 0x43616D706169676E20646F6573206E6F74206578697374000000000000000000 PUSH1 0x0 DUP3 ADD MSTORE POP JUMP JUMPDEST PUSH1 0x0 PUSH2 0x23FE PUSH1 0x17 DUP4 PUSH2 0x1E31 JUMP JUMPDEST SWAP2 POP PUSH2 0x2409 DUP3 PUSH2 0x23C8 JUMP JUMPDEST PUSH1 0x20 DUP3 ADD SWAP1 POP SWAP2 SWAP1 POP JUMP JUMPDEST PUSH1 0x0 PUSH1 0x20 DUP3 ADD SWAP1 POP DUP2 DUP2 SUB PUSH1 0x0 DUP4 ADD MSTORE PUSH2 0x242D DUP2 PUSH2 0x23F1 JUMP JUMPDEST SWAP1 POP SWAP2 SWAP1 POP JUMP JUMPDEST PUSH32 0x43616D706169676E20616C72656164792066696E616C697A6564000000000000 PUSH1 0x0 DUP3 ADD MSTORE POP JUMP JUMPDEST PUSH1 0x0 PUSH2 0x246A PUSH1 0x1A DUP4 PUSH2 0x1E31 JUMP JUMPDEST SWAP2 POP PUSH2 0x2475 DUP3 PUSH2 0x2434 JUMP JUMPDEST PUSH1 0x20 DUP3 ADD SWAP1 POP SWAP2 SWAP1 POP JUMP JUMPDEST PUSH1 0x0 PUSH1 0x20 DUP3 ADD SWAP1 POP DUP2 DUP2 SUB PUSH1 0x0 DUP4 ADD MSTORE PUSH2 0x2499 DUP2 PUSH2 0x245D JUMP JUMPDEST SWAP1 POP SWAP2 SWAP1 POP JUMP JUMPDEST PUSH32 0x46756E6374696F6E2069732064697361626C6564000000000000000000000000 PUSH1 0x0 DUP3 ADD MSTORE POP JUMP JUMPDEST PUSH1 0x0 PUSH2 0x24D6 PUSH1 0x14 DUP4 PUSH2 0x1E31 JUMP JUMPDEST SWAP2 POP PUSH2 0x24E1 DUP3 PUSH2 0x24A0 JUMP JUMPDEST PUSH1 0x20 DUP3 ADD SWAP1 POP SWAP2 SWAP1 POP JUMP JUMPDEST PUSH1 0x0 PUSH1 0x20 DUP3 ADD SWAP1 POP DUP2 DUP2 SUB PUSH1 0x0 DUP4 ADD MSTORE PUSH2 0x2505 DUP2 PUSH2 0x24C9 JUMP JUMPDEST SWAP1 POP SWAP2 SWAP1 POP JUMP JUMPDEST PUSH32 0x46756E64696E6720676F616C206E6F74206D6574000000000000000000000000 PUSH1 0x0 DUP3 ADD MSTORE POP JUMP JUMPDEST PUSH1 0x0 PUSH2 0x2542 PUSH1 0x14 DUP4 PUSH2 0x1E31 JUMP JUMPDEST SWAP2 POP PUSH2 0x254D DUP3 PUSH2 0x250C JUMP JUMPDEST PUSH1 0x20 DUP3 ADD SWAP1 POP SWAP2 SWAP1 POP JUMP JUMPDEST PUSH1 0x0 PUSH1 0x20 DUP3 ADD SWAP1 POP DUP2 DUP2 SUB PUSH1 0x0 DUP4 ADD MSTORE PUSH2 0x2571 DUP2 PUSH2 0x2535 JUMP JUMPDEST SWAP1 POP SWAP2 SWAP1 POP JUMP JUMPDEST PUSH32 0x4C697374696E6720616C726561647920636F6E6669726D656400000000000000 PUSH1 0x0 DUP3 ADD MSTORE POP JUMP JUMPDEST PUSH1 0x0 PUSH2 0x25AE PUSH1 0x19 DUP4 PUSH2 0x1E31 JUMP JUMPDEST SWAP2 POP PUSH2 0x25B9 DUP3 PUSH2 0x2578 JUMP JUMPDEST PUSH1 0x20 DUP3 ADD SWAP1 POP SWAP2 SWAP1 POP JUMP JUMPDEST PUSH1 0x0 PUSH1 0x20 DUP3 ADD SWAP1 POP DUP2 DUP2 SUB PUSH1 0x0 DUP4 ADD MSTORE PUSH2 0x25DD DUP2 PUSH2 0x25A1 JUMP JUMPDEST SWAP1 POP SWAP2 SWAP1 POP JUMP JUMPDEST PUSH1 0x0 PUSH1 0x40 DUP3 ADD SWAP1 POP PUSH2 0x25F9 PUSH1 0x0 DUP4 ADD DUP6 PUSH2 0x21E2 JUMP JUMPDEST PUSH2 0x2606 PUSH1 0x20 DUP4 ADD DUP5 PUSH2 0x1E17 JUMP JUMPDEST SWAP4 SWAP3 POP POP POP JUMP JUMPDEST PUSH1 0x0 DUP2 MLOAD SWAP1 POP PUSH2 0x261C DUP2 PUSH2 0x1F67 JUMP JUMPDEST SWAP3 SWAP2 POP POP JUMP JUMPDEST PUSH1 0x0 PUSH1 0x20 DUP3 DUP5 SUB SLT ISZERO PUSH2 0x2638 JUMPI PUSH2 0x2637 PUSH2 0x1DAA JUMP JUMPDEST JUMPDEST PUSH1 0x0 PUSH2 0x2646 DUP5 DUP3 DUP6 ADD PUSH2 0x260D JUMP JUMPDEST SWAP2 POP POP SWAP3 SWAP2 POP POP JUMP JUMPDEST PUSH32 0x5472616E73666572206661696C65640000000000000000000000000000000000 PUSH1 0x0 DUP3 ADD MSTORE POP JUMP JUMPDEST PUSH1 0x0 PUSH2 0x2685 PUSH1 0xF DUP4 PUSH2 0x1E31 JUMP JUMPDEST SWAP2 POP PUSH2 0x2690 DUP3 PUSH2 0x264F JUMP JUMPDEST PUSH1 0x20 DUP3 ADD SWAP1 POP SWAP2 SWAP1 POP JUMP JUMPDEST PUSH1 0x0 PUSH1 0x20 DUP3 ADD SWAP1 POP DUP2 DUP2 SUB PUSH1 0x0 DUP4 ADD MSTORE PUSH2 0x26B4 DUP2 PUSH2 0x2678 JUMP JUMPDEST SWAP1 POP SWAP2 SWAP1 POP JUMP JUMPDEST PUSH32 0x4E6F74207365636F6E64206F776E657200000000000000000000000000000000 PUSH1 0x0 DUP3 ADD MSTORE POP JUMP JUMPDEST PUSH1 0x0 PUSH2 0x26F1 PUSH1 0x10 DUP4 PUSH2 0x1E31 JUMP JUMPDEST SWAP2 POP PUSH2 0x26FC DUP3 PUSH2 0x26BB JUMP JUMPDEST PUSH1 0x20 DUP3 ADD SWAP1 POP SWAP2 SWAP1 POP JUMP JUMPDEST PUSH1 0x0 PUSH1 0x20 DUP3 ADD SWAP1 POP DUP2 DUP2 SUB PUSH1 0x0 DUP4 ADD MSTORE PUSH2 0x2720 DUP2 PUSH2 0x26E4 JUMP JUMPDEST SWAP1 POP SWAP2 SWAP1 POP JUMP JUMPDEST PUSH32 0x4E487B7100000000000000000000000000000000000000000000000000000000 PUSH1 0x0 MSTORE PUSH1 0x11 PUSH1 0x4 MSTORE PUSH1 0x24 PUSH1 0x0 REVERT JUMPDEST PUSH1 0x0 PUSH2 0x2761 DUP3 PUSH2 0x1DB4 JUMP JUMPDEST SWAP2 POP PUSH32 0xFFFFFFFFFFFFFFFFFFFFFFFFFFFFFFFFFFFFFFFFFFFFFFFFFFFFFFFFFFFFFFFF DUP3 SUB PUSH2 0x2793 JUMPI PUSH2 0x2792 PUSH2 0x2727 JUMP JUMPDEST JUMPDEST PUSH1 0x1 DUP3 ADD SWAP1 POP SWAP2 SWAP1 POP JUMP JUMPDEST PUSH1 0x0 PUSH2 0x27A9 DUP3 PUSH2 0x1DB4 JUMP JUMPDEST SWAP2 POP PUSH2 0x27B4 DUP4 PUSH2 0x1DB4 JUMP JUMPDEST SWAP3 POP DUP3 DUP3 MUL PUSH2 0x27C2 DUP2 PUSH2 0x1DB4 JUMP JUMPDEST SWAP2 POP DUP3 DUP3 DIV DUP5 EQ DUP4 ISZERO OR PUSH2 0x27D9 JUMPI PUSH2 0x27D8 PUSH2 0x2727 JUMP JUMPDEST JUMPDEST POP SWAP3 SWAP2 POP POP JUMP JUMPDEST PUSH32 0x4E487B7100000000000000000000000000000000000000000000000000000000 PUSH1 0x0 MSTORE PUSH1 0x12 PUSH1 0x4 MSTORE PUSH1 0x24 PUSH1 0x0 REVERT JUMPDEST PUSH1 0x0 PUSH2 0x281A DUP3 PUSH2 0x1DB4 JUMP JUMPDEST SWAP2 POP PUSH2 0x2825 DUP4 PUSH2 0x1DB4 JUMP JUMPDEST SWAP3 POP DUP3 PUSH2 0x2835 JUMPI PUSH2 0x2834 PUSH2 0x27E0 JUMP JUMPDEST JUMPDEST DUP3 DUP3 DIV SWAP1 POP SWAP3 SWAP2 POP POP JUMP JUMPDEST PUSH1 0x0 PUSH2 0x284B DUP3 PUSH2 0x1DB4 JUMP JUMPDEST SWAP2 POP PUSH2 0x2856 DUP4 PUSH2 0x1DB4 JUMP JUMPDEST SWAP3 POP DUP3 DUP3 ADD SWAP1 POP DUP1 DUP3 GT ISZERO PUSH2 0x286E JUMPI PUSH2 0x286D PUSH2 0x2727 JUMP JUMPDEST JUMPDEST SWAP3 SWAP2 POP POP JUMP JUMPDEST PUSH1 0x0 DUP2 SWAP1 POP DUP2 PUSH1 0x0 MSTORE PUSH1 0x20 PUSH1 0x0 KECCAK256 SWAP1 POP SWAP2 SWAP1 POP JUMP JUMPDEST PUSH1 0x0 PUSH1 0x20 PUSH1 0x1F DUP4 ADD DIV SWAP1 POP SWAP2 SWAP1 POP JUMP JUMPDEST PUSH1 0x0 DUP3 DUP3 SHL SWAP1 POP SWAP3 SWAP2 POP POP JUMP JUMPDEST PUSH1 0x0 PUSH1 0x8 DUP4 MUL PUSH2 0x28D6 PUSH32 0xFFFFFFFFFFFFFFFFFFFFFFFFFFFFFFFFFFFFFFFFFFFFFFFFFFFFFFFFFFFFFFFF DUP3 PUSH2 0x2899 JUMP JUMPDEST PUSH2 0x28E0 DUP7 DUP4 PUSH2 0x2899 JUMP JUMPDEST SWAP6 POP DUP1 NOT DUP5 AND SWAP4 POP DUP1 DUP7 AND DUP5 OR SWAP3 POP POP POP SWAP4 SWAP3 POP POP POP JUMP JUMPDEST PUSH1 0x0 DUP2 SWAP1 POP SWAP2 SWAP1 POP JUMP JUMPDEST PUSH1 0x0 PUSH2 0x291D PUSH2 0x2918 PUSH2 0x2913 DUP5 PUSH2 0x1DB4 JUMP JUMPDEST PUSH2 0x28F8 JUMP JUMPDEST PUSH2 0x1DB4 JUMP JUMPDEST SWAP1 POP SWAP2 SWAP1 POP JUMP JUMPDEST PUSH1 0x0 DUP2 SWAP1 POP SWAP2 SWAP1 POP JUMP JUMPDEST PUSH2 0x2937 DUP4 PUSH2 0x2902 JUMP JUMPDEST PUSH2 0x294B PUSH2 0x2943 DUP3 PUSH2 0x2924 JUMP JUMPDEST DUP5 DUP5 SLOAD PUSH2 0x28A6 JUMP JUMPDEST DUP3 SSTORE POP POP POP POP JUMP JUMPDEST PUSH1 0x0 SWAP1 JUMP JUMPDEST PUSH2 0x2960 PUSH2 0x2953 JUMP JUMPDEST PUSH2 0x296B DUP2 DUP5 DUP5 PUSH2 0x292E JUMP JUMPDEST POP POP POP JUMP JUMPDEST JUMPDEST DUP2 DUP2 LT ISZERO PUSH2 0x298F JUMPI PUSH2 0x2984 PUSH1 0x0 DUP3 PUSH2 0x2958 JUMP JUMPDEST PUSH1 0x1 DUP2 ADD SWAP1 POP PUSH2 0x2971 JUMP JUMPDEST POP POP JUMP JUMPDEST PUSH1 0x1F DUP3 GT ISZERO PUSH2 0x29D4 JUMPI PUSH2 0x29A5 DUP2 PUSH2 0x2874 JUMP JUMPDEST PUSH2 0x29AE DUP5 PUSH2 0x2889 JUMP JUMPDEST DUP2 ADD PUSH1 0x20 DUP6 LT ISZERO PUSH2 0x29BD JUMPI DUP2 SWAP1 POP JUMPDEST PUSH2 0x29D1 PUSH2 0x29C9 DUP6 PUSH2 0x2889 JUMP JUMPDEST DUP4 ADD DUP3 PUSH2 0x2970 JUMP JUMPDEST POP POP JUMPDEST POP POP POP JUMP JUMPDEST PUSH1 0x0 DUP3 DUP3 SHR SWAP1 POP SWAP3 SWAP2 POP POP JUMP JUMPDEST PUSH1 0x0 PUSH2 0x29F7 PUSH1 0x0 NOT DUP5 PUSH1 0x8 MUL PUSH2 0x29D9 JUMP JUMPDEST NOT DUP1 DUP4 AND SWAP2 POP POP SWAP3 SWAP2 POP POP JUMP JUMPDEST PUSH1 0x0 PUSH2 0x2A10 DUP4 DUP4 PUSH2 0x29E6 JUMP JUMPDEST SWAP2 POP DUP3 PUSH1 0x2 MUL DUP3 OR SWAP1 POP SWAP3 SWAP2 POP POP JUMP JUMPDEST PUSH2 0x2A29 DUP3 PUSH2 0x1E26 JUMP JUMPDEST PUSH8 0xFFFFFFFFFFFFFFFF DUP2 GT ISZERO PUSH2 0x2A42 JUMPI PUSH2 0x2A41 PUSH2 0x1FCA JUMP JUMPDEST JUMPDEST PUSH2 0x2A4C DUP3 SLOAD PUSH2 0x232B JUMP JUMPDEST PUSH2 0x2A57 DUP3 DUP3 DUP6 PUSH2 0x2993 JUMP JUMPDEST PUSH1 0x0 PUSH1 0x20 SWAP1 POP PUSH1 0x1F DUP4 GT PUSH1 0x1 DUP2 EQ PUSH2 0x2A8A JUMPI PUSH1 0x0 DUP5 ISZERO PUSH2 0x2A78 JUMPI DUP3 DUP8 ADD MLOAD SWAP1 POP JUMPDEST PUSH2 0x2A82 DUP6 DUP3 PUSH2 0x2A04 JUMP JUMPDEST DUP7 SSTORE POP PUSH2 0x2AEA JUMP JUMPDEST PUSH1 0x1F NOT DUP5 AND PUSH2 0x2A98 DUP7 PUSH2 0x2874 JUMP JUMPDEST PUSH1 0x0 JUMPDEST DUP3 DUP2 LT ISZERO PUSH2 0x2AC0 JUMPI DUP5 DUP10 ADD MLOAD DUP3 SSTORE PUSH1 0x1 DUP3 ADD SWAP2 POP PUSH1 0x20 DUP6 ADD SWAP5 POP PUSH1 0x20 DUP2 ADD SWAP1 POP PUSH2 0x2A9B JUMP JUMPDEST DUP7 DUP4 LT ISZERO PUSH2 0x2ADD JUMPI DUP5 DUP10 ADD MLOAD PUSH2 0x2AD9 PUSH1 0x1F DUP10 AND DUP3 PUSH2 0x29E6 JUMP JUMPDEST DUP4 SSTORE POP JUMPDEST PUSH1 0x1 PUSH1 0x2 DUP9 MUL ADD DUP9 SSTORE POP POP POP JUMPDEST POP POP POP POP POP POP JUMP JUMPDEST PUSH32 0x4C697374696E67206E6F7420636F6E6669726D65640000000000000000000000 PUSH1 0x0 DUP3 ADD MSTORE POP JUMP JUMPDEST PUSH1 0x0 PUSH2 0x2B28 PUSH1 0x15 DUP4 PUSH2 0x1E31 JUMP JUMPDEST SWAP2 POP PUSH2 0x2B33 DUP3 PUSH2 0x2AF2 JUMP JUMPDEST PUSH1 0x20 DUP3 ADD SWAP1 POP SWAP2 SWAP1 POP JUMP JUMPDEST PUSH1 0x0 PUSH1 0x20 DUP3 ADD SWAP1 POP DUP2 DUP2 SUB PUSH1 0x0 DUP4 ADD MSTORE PUSH2 0x2B57 DUP2 PUSH2 0x2B1B JUMP JUMPDEST SWAP1 POP SWAP2 SWAP1 POP JUMP JUMPDEST PUSH32 0x5061796261636B20676F616C206E6F7420726561636865640000000000000000 PUSH1 0x0 DUP3 ADD MSTORE POP JUMP JUMPDEST PUSH1 0x0 PUSH2 0x2B94 PUSH1 0x18 DUP4 PUSH2 0x1E31 JUMP JUMPDEST SWAP2 POP PUSH2 0x2B9F DUP3 PUSH2 0x2B5E JUMP JUMPDEST PUSH1 0x20 DUP3 ADD SWAP1 POP SWAP2 SWAP1 POP JUMP JUMPDEST PUSH1 0x0 PUSH1 0x20 DUP3 ADD SWAP1 POP DUP2 DUP2 SUB PUSH1 0x0 DUP4 ADD MSTORE PUSH2 0x2BC3 DUP2 PUSH2 0x2B87 JUMP JUMPDEST SWAP1 POP SWAP2 SWAP1 POP JUMP JUMPDEST PUSH32 0x4E487B7100000000000000000000000000000000000000000000000000000000 PUSH1 0x0 MSTORE PUSH1 0x32 PUSH1 0x4 MSTORE PUSH1 0x24 PUSH1 0x0 REVERT JUMPDEST PUSH32 0x457863656564732066756E64696E6720676F616C000000000000000000000000 PUSH1 0x0 DUP3 ADD MSTORE POP JUMP JUMPDEST PUSH1 0x0 PUSH2 0x2C2F PUSH1 0x14 DUP4 PUSH2 0x1E31 JUMP JUMPDEST SWAP2 POP PUSH2 0x2C3A DUP3 PUSH2 0x2BF9 JUMP JUMPDEST PUSH1 0x20 DUP3 ADD SWAP1 POP SWAP2 SWAP1 POP JUMP JUMPDEST PUSH1 0x0 PUSH1 0x20 DUP3 ADD SWAP1 POP DUP2 DUP2 SUB PUSH1 0x0 DUP4 ADD MSTORE PUSH2 0x2C5E DUP2 PUSH2 0x2C22 JUMP JUMPDEST SWAP1 POP SWAP2 SWAP1 POP JUMP JUMPDEST PUSH1 0x0 PUSH1 0x60 DUP3 ADD SWAP1 POP PUSH2 0x2C7A PUSH1 0x0 DUP4 ADD DUP7 PUSH2 0x21E2 JUMP JUMPDEST PUSH2 0x2C87 PUSH1 0x20 DUP4 ADD DUP6 PUSH2 0x21E2 JUMP JUMPDEST PUSH2 0x2C94 PUSH1 0x40 DUP4 ADD DUP5 PUSH2 0x1E17 JUMP JUMPDEST SWAP5 SWAP4 POP POP POP POP JUMP INVALID LOG2 PUSH5 0x6970667358 0x22 SLT KECCAK256 0x26 0xB3 SUB 0xCF 0x21 PC COINBASE STATICCALL PUSH6 0xC720785862C4 ADDMOD 0x4E 0xAF 0xE5 0xCF 0xC2 MLOAD 0x5E SHR BYTE 0xB1 BYTE 0xDC DELEGATECALL 0xE8 SWAP9 SWAP3 PUSH5 0x736F6C6343 STOP ADDMOD SLT STOP CALLER "
		},
		"gasEstimates": {
			"creation": {
				"codeDepositCost": "2294800",
				"executionCost": "infinite",
				"totalCost": "infinite"
			},
			"external": {
				"addPaybackFunds(uint256,uint256)": "infinite",
				"campaignCount()": "2496",
				"campaigns(uint256)": "infinite",
				"confirmListing(uint256)": "39800",
				"confirmListingEnabled()": "2632",
				"contribute(uint256,uint256)": "infinite",
				"contributors(uint256,address)": "infinite",
				"createCampaign(string,string,uint256,string)": "infinite",
				"createCampaignEnabled()": "2603",
				"interestRate()": "2518",
				"owner()": "2556",
				"payBack(uint256)": "infinite",
				"payBackEnabled()": "2545",
				"secondOwner()": "2559",
				"setConfirmListingEnabled(bool)": "26988",
				"setCreateCampaignEnabled(bool)": "26939",
				"setPayBackEnabled(bool)": "26966",
				"setWithdrawFundsEnabled(bool)": "26987",
				"usdtToken()": "2558",
				"withdrawFunds(uint256)": "infinite",
				"withdrawFundsEnabled()": "2587"
			}
		},
		"methodIdentifiers": {
			"addPaybackFunds(uint256,uint256)": "a82c5bbb",
			"campaignCount()": "7274e30d",
			"campaigns(uint256)": "141961bc",
			"confirmListing(uint256)": "5cf87b5f",
			"confirmListingEnabled()": "9d1ab736",
			"contribute(uint256,uint256)": "8c590917",
			"contributors(uint256,address)": "e7c36023",
			"createCampaign(string,string,uint256,string)": "36d4ae71",
			"createCampaignEnabled()": "f87867c4",
			"interestRate()": "7c3a00fd",
			"owner()": "8da5cb5b",
			"payBack(uint256)": "7ccc5d35",
			"payBackEnabled()": "0913cbb4",
			"secondOwner()": "68a9f31c",
			"setConfirmListingEnabled(bool)": "9560595a",
			"setCreateCampaignEnabled(bool)": "1ec10bb5",
			"setPayBackEnabled(bool)": "92e0d1aa",
			"setWithdrawFundsEnabled(bool)": "e637338b",
			"usdtToken()": "a98ad46c",
			"withdrawFunds(uint256)": "155dd5ee",
			"withdrawFundsEnabled()": "d104dc11"
		}
	},
	"abi": [
		{
			"inputs": [
				{
					"internalType": "address",
					"name": "_usdtToken",
					"type": "address"
				},
				{
					"internalType": "address",
					"name": "_secondOwner",
					"type": "address"
				}
			],
			"stateMutability": "nonpayable",
			"type": "constructor"
		},
		{
			"anonymous": false,
			"inputs": [
				{
					"indexed": true,
					"internalType": "uint256",
					"name": "campaignId",
					"type": "uint256"
				},
				{
					"indexed": false,
					"internalType": "uint256",
					"name": "fundingGoal",
					"type": "uint256"
				}
			],
			"name": "CampaignCreated",
			"type": "event"
		},
		{
			"anonymous": false,
			"inputs": [
				{
					"indexed": true,
					"internalType": "uint256",
					"name": "campaignId",
					"type": "uint256"
				},
				{
					"indexed": true,
					"internalType": "address",
					"name": "contributor",
					"type": "address"
				},
				{
					"indexed": false,
					"internalType": "uint256",
					"name": "amount",
					"type": "uint256"
				}
			],
			"name": "Contribution",
			"type": "event"
		},
		{
			"anonymous": false,
			"inputs": [
				{
					"indexed": true,
					"internalType": "uint256",
					"name": "campaignId",
					"type": "uint256"
				},
				{
					"indexed": false,
					"internalType": "uint256",
					"name": "amount",
					"type": "uint256"
				}
			],
			"name": "FundsWithdrawn",
			"type": "event"
		},
		{
			"anonymous": false,
			"inputs": [
				{
					"indexed": true,
					"internalType": "uint256",
					"name": "campaignId",
					"type": "uint256"
				}
			],
			"name": "ListingConfirmed",
			"type": "event"
		},
		{
			"anonymous": false,
			"inputs": [
				{
					"indexed": true,
					"internalType": "uint256",
					"name": "campaignId",
					"type": "uint256"
				},
				{
					"indexed": true,
					"internalType": "address",
					"name": "contributor",
					"type": "address"
				},
				{
					"indexed": false,
					"internalType": "uint256",
					"name": "amount",
					"type": "uint256"
				}
			],
			"name": "PaidBack",
			"type": "event"
		},
		{
			"anonymous": false,
			"inputs": [
				{
					"indexed": true,
					"internalType": "uint256",
					"name": "campaignId",
					"type": "uint256"
				},
				{
					"indexed": false,
					"internalType": "uint256",
					"name": "amount",
					"type": "uint256"
				}
			],
			"name": "PaybackAdded",
			"type": "event"
		},
		{
			"inputs": [
				{
					"internalType": "uint256",
					"name": "_campaignId",
					"type": "uint256"
				},
				{
					"internalType": "uint256",
					"name": "_amount",
					"type": "uint256"
				}
			],
			"name": "addPaybackFunds",
			"outputs": [],
			"stateMutability": "nonpayable",
			"type": "function"
		},
		{
			"inputs": [],
			"name": "campaignCount",
			"outputs": [
				{
					"internalType": "uint256",
					"name": "",
					"type": "uint256"
				}
			],
			"stateMutability": "view",
			"type": "function"
		},
		{
			"inputs": [
				{
					"internalType": "uint256",
					"name": "",
					"type": "uint256"
				}
			],
			"name": "campaigns",
			"outputs": [
				{
					"internalType": "uint256",
					"name": "id",
					"type": "uint256"
				},
				{
					"internalType": "string",
					"name": "exchangeName",
					"type": "string"
				},
				{
					"internalType": "string",
					"name": "supportedChains",
					"type": "string"
				},
				{
					"internalType": "uint256",
					"name": "fundingGoal",
					"type": "uint256"
				},
				{
					"internalType": "uint256",
					"name": "totalContributed",
					"type": "uint256"
				},
				{
					"internalType": "uint256",
					"name": "paybackGoal",
					"type": "uint256"
				},
				{
					"internalType": "uint256",
					"name": "totalPaybackAdded",
					"type": "uint256"
				},
				{
					"internalType": "bool",
					"name": "listingConfirmed",
					"type": "bool"
				},
				{
					"internalType": "bool",
					"name": "finalized",
					"type": "bool"
				},
				{
					"internalType": "string",
					"name": "logoImageUrl",
					"type": "string"
				}
			],
			"stateMutability": "view",
			"type": "function"
		},
		{
			"inputs": [
				{
					"internalType": "uint256",
					"name": "_campaignId",
					"type": "uint256"
				}
			],
			"name": "confirmListing",
			"outputs": [],
			"stateMutability": "nonpayable",
			"type": "function"
		},
		{
			"inputs": [],
			"name": "confirmListingEnabled",
			"outputs": [
				{
					"internalType": "bool",
					"name": "",
					"type": "bool"
				}
			],
			"stateMutability": "view",
			"type": "function"
		},
		{
			"inputs": [
				{
					"internalType": "uint256",
					"name": "_campaignId",
					"type": "uint256"
				},
				{
					"internalType": "uint256",
					"name": "_amount",
					"type": "uint256"
				}
			],
			"name": "contribute",
			"outputs": [],
			"stateMutability": "nonpayable",
			"type": "function"
		},
		{
			"inputs": [
				{
					"internalType": "uint256",
					"name": "",
					"type": "uint256"
				},
				{
					"internalType": "address",
					"name": "",
					"type": "address"
				}
			],
			"name": "contributors",
			"outputs": [
				{
					"internalType": "uint256",
					"name": "amount",
					"type": "uint256"
				},
				{
					"internalType": "bool",
					"name": "paidBack",
					"type": "bool"
				}
			],
			"stateMutability": "view",
			"type": "function"
		},
		{
			"inputs": [
				{
					"internalType": "string",
					"name": "_exchangeName",
					"type": "string"
				},
				{
					"internalType": "string",
					"name": "_supportedChains",
					"type": "string"
				},
				{
					"internalType": "uint256",
					"name": "_fundingGoal",
					"type": "uint256"
				},
				{
					"internalType": "string",
					"name": "_logoImageUrl",
					"type": "string"
				}
			],
			"name": "createCampaign",
			"outputs": [],
			"stateMutability": "nonpayable",
			"type": "function"
		},
		{
			"inputs": [],
			"name": "createCampaignEnabled",
			"outputs": [
				{
					"internalType": "bool",
					"name": "",
					"type": "bool"
				}
			],
			"stateMutability": "view",
			"type": "function"
		},
		{
			"inputs": [],
			"name": "interestRate",
			"outputs": [
				{
					"internalType": "uint256",
					"name": "",
					"type": "uint256"
				}
			],
			"stateMutability": "view",
			"type": "function"
		},
		{
			"inputs": [],
			"name": "owner",
			"outputs": [
				{
					"internalType": "address",
					"name": "",
					"type": "address"
				}
			],
			"stateMutability": "view",
			"type": "function"
		},
		{
			"inputs": [
				{
					"internalType": "uint256",
					"name": "_campaignId",
					"type": "uint256"
				}
			],
			"name": "payBack",
			"outputs": [],
			"stateMutability": "nonpayable",
			"type": "function"
		},
		{
			"inputs": [],
			"name": "payBackEnabled",
			"outputs": [
				{
					"internalType": "bool",
					"name": "",
					"type": "bool"
				}
			],
			"stateMutability": "view",
			"type": "function"
		},
		{
			"inputs": [],
			"name": "secondOwner",
			"outputs": [
				{
					"internalType": "address",
					"name": "",
					"type": "address"
				}
			],
			"stateMutability": "view",
			"type": "function"
		},
		{
			"inputs": [
				{
					"internalType": "bool",
					"name": "_enabled",
					"type": "bool"
				}
			],
			"name": "setConfirmListingEnabled",
			"outputs": [],
			"stateMutability": "nonpayable",
			"type": "function"
		},
		{
			"inputs": [
				{
					"internalType": "bool",
					"name": "_enabled",
					"type": "bool"
				}
			],
			"name": "setCreateCampaignEnabled",
			"outputs": [],
			"stateMutability": "nonpayable",
			"type": "function"
		},
		{
			"inputs": [
				{
					"internalType": "bool",
					"name": "_enabled",
					"type": "bool"
				}
			],
			"name": "setPayBackEnabled",
			"outputs": [],
			"stateMutability": "nonpayable",
			"type": "function"
		},
		{
			"inputs": [
				{
					"internalType": "bool",
					"name": "_enabled",
					"type": "bool"
				}
			],
			"name": "setWithdrawFundsEnabled",
			"outputs": [],
			"stateMutability": "nonpayable",
			"type": "function"
		},
		{
			"inputs": [],
			"name": "usdtToken",
			"outputs": [
				{
					"internalType": "address",
					"name": "",
					"type": "address"
				}
			],
			"stateMutability": "view",
			"type": "function"
		},
		{
			"inputs": [
				{
					"internalType": "uint256",
					"name": "_campaignId",
					"type": "uint256"
				}
			],
			"name": "withdrawFunds",
			"outputs": [],
			"stateMutability": "nonpayable",
			"type": "function"
		},
		{
			"inputs": [],
			"name": "withdrawFundsEnabled",
			"outputs": [
				{
					"internalType": "bool",
					"name": "",
					"type": "bool"
				}
			],
			"stateMutability": "view",
			"type": "function"
		}
	]
}