{
	"data": {
		"bytecode": {
			"linkReferences": {},
			"object": "608060405234801562000010575f80fd5b506040516200540b3803806200540b833981810160405281019062000036919062000339565b60015f8190555082600860016101000a81548173ffffffffffffffffffffffffffffffffffffffff021916908373ffffffffffffffffffffffffffffffffffffffff16021790555083600b5f6101000a81548173ffffffffffffffffffffffffffffffffffffffff021916908373ffffffffffffffffffffffffffffffffffffffff1602179055508160095f6101000a81548173ffffffffffffffffffffffffffffffffffffffff021916908373ffffffffffffffffffffffffffffffffffffffff16021790555080600a5f6101000a81548173ffffffffffffffffffffffffffffffffffffffff021916908373ffffffffffffffffffffffffffffffffffffffff1602179055505f600c6040516200014f9062000400565b90815260200160405180910390205f6101000a81548160ff0219169083151502179055505f600c604051620001849062000464565b90815260200160405180910390205f6101000a81548160ff0219169083151502179055505f600c604051620001b990620004c8565b90815260200160405180910390205f6101000a81548160ff0219169083151502179055505f600c604051620001ee906200052c565b90815260200160405180910390205f6101000a81548160ff0219169083151502179055505f600c604051620002239062000590565b90815260200160405180910390205f6101000a81548160ff0219169083151502179055505f600c6040516200025890620005f4565b90815260200160405180910390205f6101000a81548160ff0219169083151502179055505f600c6040516200028d9062000658565b90815260200160405180910390205f6101000a81548160ff0219169083151502179055505f60085f6101000a81548160ff021916908315150217905550505050506200066e565b5f80fd5b5f73ffffffffffffffffffffffffffffffffffffffff82169050919050565b5f6200030382620002d8565b9050919050565b6200031581620002f7565b811462000320575f80fd5b50565b5f8151905062000333816200030a565b92915050565b5f805f8060808587031215620003545762000353620002d4565b5b5f620003638782880162000323565b9450506020620003768782880162000323565b9350506040620003898782880162000323565b92505060606200039c8782880162000323565b91505092959194509250565b5f81905092915050565b7f617070726f7665456c656d656e740000000000000000000000000000000000005f82015250565b5f620003e8600e83620003a8565b9150620003f582620003b2565b600e82019050919050565b5f6200040c82620003da565b9150819050919050565b7f72656a656374456c656d656e74000000000000000000000000000000000000005f82015250565b5f6200044c600d83620003a8565b9150620004598262000416565b600d82019050919050565b5f62000470826200043e565b9150819050919050565b7f72656d6f7665456c656d656e74000000000000000000000000000000000000005f82015250565b5f620004b0600d83620003a8565b9150620004bd826200047a565b600d82019050919050565b5f620004d482620004a2565b9150819050919050565b7f636f6e6669726d557064617465000000000000000000000000000000000000005f82015250565b5f62000514600d83620003a8565b91506200052182620004de565b600d82019050919050565b5f620005388262000506565b9150819050919050565b7f72656675736555706461746500000000000000000000000000000000000000005f82015250565b5f62000578600c83620003a8565b9150620005858262000542565b600c82019050919050565b5f6200059c826200056a565b9150819050919050565b7f6368616e676541646d696e0000000000000000000000000000000000000000005f82015250565b5f620005dc600b83620003a8565b9150620005e982620005a6565b600b82019050919050565b5f6200060082620005ce565b9150819050919050565b7f6368616e67655365636f6e6441646d696e0000000000000000000000000000005f82015250565b5f62000640601183620003a8565b91506200064d826200060a565b601182019050919050565b5f620006648262000632565b9150819050919050565b614d8f806200067c5f395ff3fe608060405234801561000f575f80fd5b506004361061025b575f3560e01c80636b8d04fb11610144578063c07473f6116100c1578063d4f1e38611610085578063d4f1e38614610707578063d69eca4c14610711578063dd8087d11461072f578063e0d64b371461074b578063f851a44014610785578063f9089bf2146107a35761025b565b8063c07473f614610651578063c5e48e5a14610681578063c7b3564e1461069f578063c9b3829f146106bb578063cc78d728146106d75761025b565b80638b52e06c116101085780638b52e06c146105d55780638f283970146105f35780638fddd0221461060f5780639fc37abf14610619578063c019963a146106355761025b565b80636b8d04fb1461053357806372bae674146105635780637547c7a31461057f5780637cdd15c11461059b57806384d804be146105b75761025b565b806325d5971f116101dd5780633b72bad5116101a15780633b72bad51461045d57806351d18598146104795780635dcc9391146104975780635ff329af146104b5578063613dab3e146104e557806367be4673146105155761025b565b806325d5971f146103cd57806327855b13146103e95780632a9aaa761461040757806336ead39f146104235780633ae732591461043f5761025b565b806317504b981161022457806317504b98146103175780631d002cc0146103335780631d32e9b3146103635780631faa11281461038157806320cb13ab1461039d5761025b565b806253b4b31461025f578063013eba921461027d5780630d67f59e146102ad5780630dba280c146102cb57806316934fc4146102e7575b5f80fd5b6102676107d3565b60405161027491906136d3565b60405180910390f35b61029760048036038101906102929190613757565b6107e5565b6040516102a4919061379a565b60405180910390f35b6102b56107fa565b6040516102c2919061380e565b60405180910390f35b6102e560048036038101906102e0919061398d565b61081f565b005b61030160048036038101906102fc9190613757565b6108ff565b60405161030e919061379a565b60405180910390f35b610331600480360381019061032c9190613a11565b610914565b005b61034d60048036038101906103489190613757565b610a62565b60405161035a919061379a565b60405180910390f35b61036b610a77565b6040516103789190613a7a565b60405180910390f35b61039b60048036038101906103969190613a93565b610a9c565b005b6103b760048036038101906103b29190613abe565b610c76565b6040516103c4919061379a565b60405180910390f35b6103e760048036038101906103e29190613a93565b610cc5565b005b6103f1610e97565b6040516103fe919061379a565b60405180910390f35b610421600480360381019061041c9190613a11565b610eab565b005b61043d60048036038101906104389190613a93565b610ff8565b005b610447611274565b604051610454919061379a565b60405180910390f35b61047760048036038101906104729190613a93565b61127a565b005b6104816114e0565b60405161048e919061379a565b60405180910390f35b61049f6114e9565b6040516104ac919061379a565b60405180910390f35b6104cf60048036038101906104ca9190613757565b6114f1565b6040516104dc919061379a565b60405180910390f35b6104ff60048036038101906104fa9190613afc565b6116d3565b60405161050c91906136d3565b60405180910390f35b61051d611708565b60405161052a919061379a565b60405180910390f35b61054d60048036038101906105489190613757565b61170e565b60405161055a91906136d3565b60405180910390f35b61057d60048036038101906105789190613abe565b6117dd565b005b61059960048036038101906105949190613a93565b611930565b005b6105b560048036038101906105b09190613b43565b611b59565b005b6105bf611ee4565b6040516105cc919061379a565b60405180910390f35b6105dd611eeb565b6040516105ea9190613a7a565b60405180910390f35b61060d60048036038101906106089190613757565b611f10565b005b6106176120f2565b005b610633600480360381019061062e9190613a93565b6121ac565b005b61064f600480360381019061064a919061398d565b612330565b005b61066b60048036038101906106669190613757565b612410565b604051610678919061379a565b60405180910390f35b610689612425565b604051610696919061379a565b60405180910390f35b6106b960048036038101906106b4919061398d565b61242e565b005b6106d560048036038101906106d09190613a93565b61250e565b005b6106f160048036038101906106ec9190613757565b6126e9565b6040516106fe919061379a565b60405180910390f35b61070f61272f565b005b610719612a93565b604051610726919061379a565b60405180910390f35b61074960048036038101906107449190613757565b612b32565b005b61076560048036038101906107609190613a93565b612d13565b60405161077c9b9a99989796959493929190613c91565b60405180910390f35b61078d613132565b60405161079a9190613a7a565b60405180910390f35b6107bd60048036038101906107b89190613a93565b613158565b6040516107ca919061379a565b60405180910390f35b60085f9054906101000a900460ff1681565b6003602052805f5260405f205f915090505481565b600b5f9054906101000a900473ffffffffffffffffffffffffffffffffffffffff1681565b3373ffffffffffffffffffffffffffffffffffffffff1660055f8481526020019081526020015f206007015f9054906101000a900473ffffffffffffffffffffffffffffffffffffffff1673ffffffffffffffffffffffffffffffffffffffff16146108c0576040517f08c379a00000000000000000000000000000000000000000000000000000000081526004016108b790613db5565b60405180910390fd5b8060055f8481526020019081526020015f2060030190816108e19190613fc4565b504260055f8481526020019081526020015f20600901819055505050565b6001602052805f5260405f205f915090505481565b600860019054906101000a900473ffffffffffffffffffffffffffffffffffffffff1673ffffffffffffffffffffffffffffffffffffffff163373ffffffffffffffffffffffffffffffffffffffff16146109a4576040517f08c379a000000000000000000000000000000000000000000000000000000000815260040161099b90614103565b60405180910390fd5b6040518060400160405280601181526020017f6368616e67655365636f6e6441646d696e00000000000000000000000000000081525080519060200120828051906020012014610a29576040517f08c379a0000000000000000000000000000000000000000000000000000000008152600401610a2090614191565b60405180910390fd5b80600c83604051610a3a91906141e9565b90815260200160405180910390205f6101000a81548160ff0219169083151502179055505050565b6004602052805f5260405f205f915090505481565b60095f9054906101000a900473ffffffffffffffffffffffffffffffffffffffff1681565b600860019054906101000a900473ffffffffffffffffffffffffffffffffffffffff1673ffffffffffffffffffffffffffffffffffffffff163373ffffffffffffffffffffffffffffffffffffffff1614610b2c576040517f08c379a0000000000000000000000000000000000000000000000000000000008152600401610b2390614103565b60405180910390fd5b6040518060400160405280600d81526020017f72656a656374456c656d656e7400000000000000000000000000000000000000815250600c81604051610b7291906141e9565b90815260200160405180910390205f9054906101000a900460ff16610bcc576040517f08c379a0000000000000000000000000000000000000000000000000000000008152600401610bc390614249565b60405180910390fd5b5f60055f8481526020019081526020015f206008015414610c22576040517f08c379a0000000000000000000000000000000000000000000000000000000008152600401610c19906142b1565b60405180910390fd5b6005805f8481526020019081526020015f20600801819055507f7421121a093bc9eb406a03cd9273c7efbf9d3d438d9904850f9048abf95bb7f482604051610c6a919061379a565b60405180910390a15050565b5f808242610c8491906142fc565b90505f610c9082613158565b90505f600c60648388610ca3919061432f565b610cad919061439d565b610cb7919061439d565b905080935050505092915050565b610ccd61319b565b620f4240811015610d13576040517f08c379a0000000000000000000000000000000000000000000000000000000008152600401610d0a9061443d565b60405180910390fd5b8060015f3373ffffffffffffffffffffffffffffffffffffffff1673ffffffffffffffffffffffffffffffffffffffff1681526020019081526020015f20541015610d93576040517f08c379a0000000000000000000000000000000000000000000000000000000008152600401610d8a906144a5565b60405180910390fd5b8060015f3373ffffffffffffffffffffffffffffffffffffffff1673ffffffffffffffffffffffffffffffffffffffff1681526020019081526020015f205f828254610ddf91906142fc565b925050819055508060075f828254610df791906142fc565b925050819055504260035f3373ffffffffffffffffffffffffffffffffffffffff1673ffffffffffffffffffffffffffffffffffffffff1681526020019081526020015f2081905550610e8c3382600b5f9054906101000a900473ffffffffffffffffffffffffffffffffffffffff1673ffffffffffffffffffffffffffffffffffffffff166131e89092919063ffffffff16565b610e94613267565b50565b600c6301da9c00610ea8919061439d565b81565b60095f9054906101000a900473ffffffffffffffffffffffffffffffffffffffff1673ffffffffffffffffffffffffffffffffffffffff163373ffffffffffffffffffffffffffffffffffffffff1614610f3a576040517f08c379a0000000000000000000000000000000000000000000000000000000008152600401610f3190614533565b60405180910390fd5b6040518060400160405280601181526020017f6368616e67655365636f6e6441646d696e00000000000000000000000000000081525080519060200120828051906020012003610fbf576040517f08c379a0000000000000000000000000000000000000000000000000000000008152600401610fb6906145c1565b60405180910390fd5b80600c83604051610fd091906141e9565b90815260200160405180910390205f6101000a81548160ff0219169083151502179055505050565b600860019054906101000a900473ffffffffffffffffffffffffffffffffffffffff1673ffffffffffffffffffffffffffffffffffffffff163373ffffffffffffffffffffffffffffffffffffffff1614611088576040517f08c379a000000000000000000000000000000000000000000000000000000000815260040161107f90614103565b60405180910390fd5b6040518060400160405280600c81526020017f7265667573655570646174650000000000000000000000000000000000000000815250600c816040516110ce91906141e9565b90815260200160405180910390205f9054906101000a900460ff16611128576040517f08c379a000000000000000000000000000000000000000000000000000000000815260040161111f90614249565b60405180910390fd5b600460055f8481526020019081526020015f20600801540361117f576040517f08c379a00000000000000000000000000000000000000000000000000000000081526004016111769061464f565b60405180910390fd5b600160055f8481526020019081526020015f2060080154036111d05760405180602001604052805f81525060055f8481526020019081526020015f2060020190816111ca9190613fc4565b50611270565b600260055f8481526020019081526020015f2060080154036112215760405180602001604052805f81525060055f8481526020019081526020015f20600301908161121b9190613fc4565b5061126f565b600360055f8481526020019081526020015f20600801540361126e5760405180602001604052805f81525060055f8481526020019081526020015f20600401908161126c9190613fc4565b505b5b5b5050565b60075481565b600860019054906101000a900473ffffffffffffffffffffffffffffffffffffffff1673ffffffffffffffffffffffffffffffffffffffff163373ffffffffffffffffffffffffffffffffffffffff161461130a576040517f08c379a000000000000000000000000000000000000000000000000000000000815260040161130190614103565b60405180910390fd5b6040518060400160405280600d81526020017f636f6e6669726d55706461746500000000000000000000000000000000000000815250600c8160405161135091906141e9565b90815260200160405180910390205f9054906101000a900460ff166113aa576040517f08c379a00000000000000000000000000000000000000000000000000000000081526004016113a190614249565b60405180910390fd5b600460055f8481526020019081526020015f206008015403611401576040517f08c379a00000000000000000000000000000000000000000000000000000000081526004016113f89061464f565b60405180910390fd5b600160055f8481526020019081526020015f20600801540361143c57600260055f8481526020019081526020015f20600801819055506114b0565b600260055f8481526020019081526020015f20600801540361147757600360055f8481526020019081526020015f20600801819055506114af565b600360055f8481526020019081526020015f2060080154036114ae57600460055f8481526020019081526020015f20600801819055505b5b5b6103e860055f8481526020019081526020015f20600a015f8282546114d5919061466d565b925050819055505050565b5f600754905090565b6301da9c0081565b5f8060015f8473ffffffffffffffffffffffffffffffffffffffff1673ffffffffffffffffffffffffffffffffffffffff1681526020019081526020015f20540361153e575f90506116ce565b5f60035f8473ffffffffffffffffffffffffffffffffffffffff1673ffffffffffffffffffffffffffffffffffffffff1681526020019081526020015f20544261158891906142fc565b9050600c6301da9c0061159b919061439d565b8110156115ab575f9150506116ce565b5f80600c6301da9c006115be919061439d565b836115c9919061439d565b90505f5b818110156116a9575f600c6301da9c006115e7919061439d565b826115f2919061432f565b60035f8973ffffffffffffffffffffffffffffffffffffffff1673ffffffffffffffffffffffffffffffffffffffff1681526020019081526020015f205461163a919061466d565b90505f61168460015f8a73ffffffffffffffffffffffffffffffffffffffff1673ffffffffffffffffffffffffffffffffffffffff1681526020019081526020015f205483610c76565b90508085611692919061466d565b9450505080806116a1906146a0565b9150506115cd565b505f6064603c846116ba919061432f565b6116c4919061439d565b9050809450505050505b919050565b600c818051602081018201805184825260208301602085012081835280955050505050505f915054906101000a900460ff1681565b60065481565b5f805f90505b6006548110156117d3578273ffffffffffffffffffffffffffffffffffffffff1660055f8381526020019081526020015f206007015f9054906101000a900473ffffffffffffffffffffffffffffffffffffffff1673ffffffffffffffffffffffffffffffffffffffff161480156117b157505f600581111561179a576117996146e7565b5b60055f8381526020019081526020015f2060080154145b156117c05760019150506117d8565b80806117cb906146a0565b915050611714565b505f90505b919050565b6117e561319b565b5f8111611827576040517f08c379a000000000000000000000000000000000000000000000000000000000815260040161181e9061475e565b60405180910390fd5b8060025f3373ffffffffffffffffffffffffffffffffffffffff1673ffffffffffffffffffffffffffffffffffffffff1681526020019081526020015f205410156118a7576040517f08c379a000000000000000000000000000000000000000000000000000000000815260040161189e906147c6565b60405180910390fd5b8060025f3373ffffffffffffffffffffffffffffffffffffffff1673ffffffffffffffffffffffffffffffffffffffff1681526020019081526020015f205f8282546118f391906142fc565b925050819055508060055f8481526020019081526020015f20600a015f82825461191d919061466d565b9250508190555061192c613267565b5050565b61193861319b565b60085f9054906101000a900460ff16611986576040517f08c379a000000000000000000000000000000000000000000000000000000000815260040161197d9061482e565b60405180910390fd5b620f42408110156119cc576040517f08c379a00000000000000000000000000000000000000000000000000000000081526004016119c390614896565b60405180910390fd5b611a1a333083600b5f9054906101000a900473ffffffffffffffffffffffffffffffffffffffff1673ffffffffffffffffffffffffffffffffffffffff16613270909392919063ffffffff16565b8060015f3373ffffffffffffffffffffffffffffffffffffffff1673ffffffffffffffffffffffffffffffffffffffff1681526020019081526020015f205f828254611a66919061466d565b925050819055508060075f828254611a7e919061466d565b925050819055505f60035f3373ffffffffffffffffffffffffffffffffffffffff1673ffffffffffffffffffffffffffffffffffffffff1681526020019081526020015f205403611b0c574260045f3373ffffffffffffffffffffffffffffffffffffffff1673ffffffffffffffffffffffffffffffffffffffff1681526020019081526020015f20819055505b4260035f3373ffffffffffffffffffffffffffffffffffffffff1673ffffffffffffffffffffffffffffffffffffffff1681526020019081526020015f2081905550611b56613267565b50565b611b6161319b565b60085f9054906101000a900460ff16611baf576040517f08c379a0000000000000000000000000000000000000000000000000000000008152600401611ba69061482e565b60405180910390fd5b6402540be400600b5f9054906101000a900473ffffffffffffffffffffffffffffffffffffffff1673ffffffffffffffffffffffffffffffffffffffff166370a08231336040518263ffffffff1660e01b8152600401611c0f9190613a7a565b602060405180830381865afa158015611c2a573d5f803e3d5ffd5b505050506040513d601f19601f82011682018060405250810190611c4e91906148c8565b1015611c8f576040517f08c379a0000000000000000000000000000000000000000000000000000000008152600401611c8690614963565b60405180910390fd5b611ce233306402540be400600b5f9054906101000a900473ffffffffffffffffffffffffffffffffffffffff1673ffffffffffffffffffffffffffffffffffffffff16613270909392919063ffffffff16565b60405180610160016040528085815260200184815260200160405180602001604052805f815250815260200160405180602001604052805f815250815260200160405180602001604052805f81525081526020018381526020018281526020013373ffffffffffffffffffffffffffffffffffffffff1681526020015f8152602001428152602001600181525060055f60065481526020019081526020015f205f820151815f019081611d959190613fc4565b506020820151816001019081611dab9190613fc4565b506040820151816002019081611dc19190613fc4565b506060820151816003019081611dd79190613fc4565b506080820151816004019081611ded9190613fc4565b5060a0820151816005019081611e039190613fc4565b5060c0820151816006019081611e199190613fc4565b5060e0820151816007015f6101000a81548173ffffffffffffffffffffffffffffffffffffffff021916908373ffffffffffffffffffffffffffffffffffffffff1602179055506101008201518160080155610120820151816009015561014082015181600a01559050507ff0d06e2e518a804c9a10fa68cab030edcf83b96217600c6415d780008923fef660065433604051611eb7929190614981565b60405180910390a160065f815480929190611ed1906146a0565b9190505550611ede613267565b50505050565b620f424081565b600a5f9054906101000a900473ffffffffffffffffffffffffffffffffffffffff1681565b600a5f9054906101000a900473ffffffffffffffffffffffffffffffffffffffff1673ffffffffffffffffffffffffffffffffffffffff163373ffffffffffffffffffffffffffffffffffffffff1614611f9f576040517f08c379a0000000000000000000000000000000000000000000000000000000008152600401611f9690614a18565b60405180910390fd5b6040518060400160405280600b81526020017f6368616e676541646d696e000000000000000000000000000000000000000000815250600c81604051611fe591906141e9565b90815260200160405180910390205f9054906101000a900460ff1661203f576040517f08c379a000000000000000000000000000000000000000000000000000000000815260040161203690614249565b60405180910390fd5b5f73ffffffffffffffffffffffffffffffffffffffff168273ffffffffffffffffffffffffffffffffffffffff16036120ad576040517f08c379a00000000000000000000000000000000000000000000000000000000081526004016120a490614a80565b60405180910390fd5b81600860016101000a81548173ffffffffffffffffffffffffffffffffffffffff021916908373ffffffffffffffffffffffffffffffffffffffff1602179055505050565b600860019054906101000a900473ffffffffffffffffffffffffffffffffffffffff1673ffffffffffffffffffffffffffffffffffffffff163373ffffffffffffffffffffffffffffffffffffffff1614612182576040517f08c379a000000000000000000000000000000000000000000000000000000000815260040161217990614103565b60405180910390fd5b60085f9054906101000a900460ff161560085f6101000a81548160ff021916908315150217905550565b600860019054906101000a900473ffffffffffffffffffffffffffffffffffffffff1673ffffffffffffffffffffffffffffffffffffffff163373ffffffffffffffffffffffffffffffffffffffff161461223c576040517f08c379a000000000000000000000000000000000000000000000000000000000815260040161223390614103565b60405180910390fd5b6040518060400160405280600d81526020017f72656d6f7665456c656d656e7400000000000000000000000000000000000000815250600c8160405161228291906141e9565b90815260200160405180910390205f9054906101000a900460ff166122dc576040517f08c379a00000000000000000000000000000000000000000000000000000000081526004016122d390614249565b60405180910390fd5b6005805f8481526020019081526020015f20600801819055507fcec9cdff740b6d842df3489c0dcafe7e1592acfcdae1e8e5daed0378935144aa82604051612324919061379a565b60405180910390a15050565b3373ffffffffffffffffffffffffffffffffffffffff1660055f8481526020019081526020015f206007015f9054906101000a900473ffffffffffffffffffffffffffffffffffffffff1673ffffffffffffffffffffffffffffffffffffffff16146123d1576040517f08c379a00000000000000000000000000000000000000000000000000000000081526004016123c890613db5565b60405180910390fd5b8060055f8481526020019081526020015f2060020190816123f29190613fc4565b504260055f8481526020019081526020015f20600901819055505050565b6002602052805f5260405f205f915090505481565b6402540be40081565b3373ffffffffffffffffffffffffffffffffffffffff1660055f8481526020019081526020015f206007015f9054906101000a900473ffffffffffffffffffffffffffffffffffffffff1673ffffffffffffffffffffffffffffffffffffffff16146124cf576040517f08c379a00000000000000000000000000000000000000000000000000000000081526004016124c690613db5565b60405180910390fd5b8060055f8481526020019081526020015f2060040190816124f09190613fc4565b504260055f8481526020019081526020015f20600901819055505050565b600860019054906101000a900473ffffffffffffffffffffffffffffffffffffffff1673ffffffffffffffffffffffffffffffffffffffff163373ffffffffffffffffffffffffffffffffffffffff161461259e576040517f08c379a000000000000000000000000000000000000000000000000000000000815260040161259590614103565b60405180910390fd5b6040518060400160405280600e81526020017f617070726f7665456c656d656e74000000000000000000000000000000000000815250600c816040516125e491906141e9565b90815260200160405180910390205f9054906101000a900460ff1661263e576040517f08c379a000000000000000000000000000000000000000000000000000000000815260040161263590614249565b60405180910390fd5b5f60055f8481526020019081526020015f206008015414612694576040517f08c379a000000000000000000000000000000000000000000000000000000000815260040161268b906142b1565b60405180910390fd5b600160055f8481526020019081526020015f20600801819055507f95fccd35767acd458fa3ab76976172cdefe7357a3cf51bc50b93c41c53984c1d826040516126dd919061379a565b60405180910390a15050565b5f60035f8373ffffffffffffffffffffffffffffffffffffffff1673ffffffffffffffffffffffffffffffffffffffff1681526020019081526020015f20549050919050565b61273761319b565b5f60015f3373ffffffffffffffffffffffffffffffffffffffff1673ffffffffffffffffffffffffffffffffffffffff1681526020019081526020015f2054116127b6576040517f08c379a00000000000000000000000000000000000000000000000000000000081526004016127ad90614ae8565b60405180910390fd5b5f60035f3373ffffffffffffffffffffffffffffffffffffffff1673ffffffffffffffffffffffffffffffffffffffff1681526020019081526020015f20544261280091906142fc565b9050600c6301da9c00612813919061439d565b811015612855576040517f08c379a000000000000000000000000000000000000000000000000000000000815260040161284c90614b50565b60405180910390fd5b5f80600c6301da9c00612868919061439d565b83612873919061439d565b90505f5b81811015612953575f600c6301da9c00612891919061439d565b8261289c919061432f565b60035f3373ffffffffffffffffffffffffffffffffffffffff1673ffffffffffffffffffffffffffffffffffffffff1681526020019081526020015f20546128e4919061466d565b90505f61292e60015f3373ffffffffffffffffffffffffffffffffffffffff1673ffffffffffffffffffffffffffffffffffffffff1681526020019081526020015f205483610c76565b9050808561293c919061466d565b94505050808061294b906146a0565b915050612877565b505f6064603c84612964919061432f565b61296e919061439d565b90505f6064602885612980919061432f565b61298a919061439d565b9050629896808261299b919061439d565b60025f3373ffffffffffffffffffffffffffffffffffffffff1673ffffffffffffffffffffffffffffffffffffffff1681526020019081526020015f205f8282546129e6919061466d565b925050819055504260035f3373ffffffffffffffffffffffffffffffffffffffff1673ffffffffffffffffffffffffffffffffffffffff1681526020019081526020015f2081905550612a7b3383600b5f9054906101000a900473ffffffffffffffffffffffffffffffffffffffff1673ffffffffffffffffffffffffffffffffffffffff166131e89092919063ffffffff16565b612a84816132f2565b5050505050612a91613267565b565b5f600b5f9054906101000a900473ffffffffffffffffffffffffffffffffffffffff1673ffffffffffffffffffffffffffffffffffffffff166370a08231306040518263ffffffff1660e01b8152600401612aee9190613a7a565b602060405180830381865afa158015612b09573d5f803e3d5ffd5b505050506040513d601f19601f82011682018060405250810190612b2d91906148c8565b905090565b600a5f9054906101000a900473ffffffffffffffffffffffffffffffffffffffff1673ffffffffffffffffffffffffffffffffffffffff163373ffffffffffffffffffffffffffffffffffffffff1614612bc1576040517f08c379a0000000000000000000000000000000000000000000000000000000008152600401612bb890614a18565b60405180910390fd5b6040518060400160405280601181526020017f6368616e67655365636f6e6441646d696e000000000000000000000000000000815250600c81604051612c0791906141e9565b90815260200160405180910390205f9054906101000a900460ff16612c61576040517f08c379a0000000000000000000000000000000000000000000000000000000008152600401612c5890614249565b60405180910390fd5b5f73ffffffffffffffffffffffffffffffffffffffff168273ffffffffffffffffffffffffffffffffffffffff1603612ccf576040517f08c379a0000000000000000000000000000000000000000000000000000000008152600401612cc690614bde565b60405180910390fd5b8160095f6101000a81548173ffffffffffffffffffffffffffffffffffffffff021916908373ffffffffffffffffffffffffffffffffffffffff1602179055505050565b6005602052805f5260405f205f91509050805f018054612d3290613e00565b80601f0160208091040260200160405190810160405280929190818152602001828054612d5e90613e00565b8015612da95780601f10612d8057610100808354040283529160200191612da9565b820191905f5260205f20905b815481529060010190602001808311612d8c57829003601f168201915b505050505090806001018054612dbe90613e00565b80601f0160208091040260200160405190810160405280929190818152602001828054612dea90613e00565b8015612e355780601f10612e0c57610100808354040283529160200191612e35565b820191905f5260205f20905b815481529060010190602001808311612e1857829003601f168201915b505050505090806002018054612e4a90613e00565b80601f0160208091040260200160405190810160405280929190818152602001828054612e7690613e00565b8015612ec15780601f10612e9857610100808354040283529160200191612ec1565b820191905f5260205f20905b815481529060010190602001808311612ea457829003601f168201915b505050505090806003018054612ed690613e00565b80601f0160208091040260200160405190810160405280929190818152602001828054612f0290613e00565b8015612f4d5780601f10612f2457610100808354040283529160200191612f4d565b820191905f5260205f20905b815481529060010190602001808311612f3057829003601f168201915b505050505090806004018054612f6290613e00565b80601f0160208091040260200160405190810160405280929190818152602001828054612f8e90613e00565b8015612fd95780601f10612fb057610100808354040283529160200191612fd9565b820191905f5260205f20905b815481529060010190602001808311612fbc57829003601f168201915b505050505090806005018054612fee90613e00565b80601f016020809104026020016040519081016040528092919081815260200182805461301a90613e00565b80156130655780601f1061303c57610100808354040283529160200191613065565b820191905f5260205f20905b81548152906001019060200180831161304857829003601f168201915b50505050509080600601805461307a90613e00565b80601f01602080910402602001604051908101604052809291908181526020018280546130a690613e00565b80156130f15780601f106130c8576101008083540402835291602001916130f1565b820191905f5260205f20905b8154815290600101906020018083116130d457829003601f168201915b505050505090806007015f9054906101000a900473ffffffffffffffffffffffffffffffffffffffff169080600801549080600901549080600a015490508b565b600860019054906101000a900473ffffffffffffffffffffffffffffffffffffffff1681565b5f806301da9c008361316a919061439d565b90506003811061317e576003915050613196565b60028103613190576002915050613196565b60019150505b919050565b60025f54036131df576040517f08c379a00000000000000000000000000000000000000000000000000000000081526004016131d690614c46565b60405180910390fd5b60025f81905550565b613262838473ffffffffffffffffffffffffffffffffffffffff1663a9059cbb858560405160240161321b929190614c64565b604051602081830303815290604052915060e01b6020820180517bffffffffffffffffffffffffffffffffffffffffffffffffffffffff83818316178352505050506133f9565b505050565b60015f81905550565b6132ec848573ffffffffffffffffffffffffffffffffffffffff166323b872dd8686866040516024016132a593929190614c8b565b604051602081830303815290604052915060e01b6020820180517bffffffffffffffffffffffffffffffffffffffffffffffffffffffff83818316178352505050506133f9565b50505050565b5f6132fb61348e565b90505f810361330a57506133f6565b5f5b6006548110156133f3575f60055f8381526020019081526020015f20905060058081111561333d5761333c6146e7565b5b8160080154146133df575f838583600a0154613359919061432f565b613363919061439d565b90505f8111156133dd576133dc826007015f9054906101000a900473ffffffffffffffffffffffffffffffffffffffff1682600b5f9054906101000a900473ffffffffffffffffffffffffffffffffffffffff1673ffffffffffffffffffffffffffffffffffffffff166131e89092919063ffffffff16565b5b505b5080806133eb906146a0565b91505061330c565b50505b50565b5f613423828473ffffffffffffffffffffffffffffffffffffffff1661350a90919063ffffffff16565b90505f8151141580156134475750808060200190518101906134459190614cd4565b155b1561348957826040517f5274afe70000000000000000000000000000000000000000000000000000000081526004016134809190613a7a565b60405180910390fd5b505050565b5f805f90505f5b600654811015613502576005808111156134b2576134b16146e7565b5b60055f8381526020019081526020015f2060080154146134ef5760055f8281526020019081526020015f20600a0154826134ec919061466d565b91505b80806134fa906146a0565b915050613495565b508091505090565b606061351783835f61351f565b905092915050565b60608147101561356657306040517fcd78605900000000000000000000000000000000000000000000000000000000815260040161355d9190613a7a565b60405180910390fd5b5f808573ffffffffffffffffffffffffffffffffffffffff16848660405161358e9190614d43565b5f6040518083038185875af1925050503d805f81146135c8576040519150601f19603f3d011682016040523d82523d5f602084013e6135cd565b606091505b50915091506135dd8683836135e8565b925050509392505050565b6060826135fd576135f882613675565b61366d565b5f825114801561362357505f8473ffffffffffffffffffffffffffffffffffffffff163b145b1561366557836040517f9996b31500000000000000000000000000000000000000000000000000000000815260040161365c9190613a7a565b60405180910390fd5b81905061366e565b5b9392505050565b5f815111156136875780518082602001fd5b6040517f1425ea4200000000000000000000000000000000000000000000000000000000815260040160405180910390fd5b5f8115159050919050565b6136cd816136b9565b82525050565b5f6020820190506136e65f8301846136c4565b92915050565b5f604051905090565b5f80fd5b5f80fd5b5f73ffffffffffffffffffffffffffffffffffffffff82169050919050565b5f613726826136fd565b9050919050565b6137368161371c565b8114613740575f80fd5b50565b5f813590506137518161372d565b92915050565b5f6020828403121561376c5761376b6136f5565b5b5f61377984828501613743565b91505092915050565b5f819050919050565b61379481613782565b82525050565b5f6020820190506137ad5f83018461378b565b92915050565b5f819050919050565b5f6137d66137d16137cc846136fd565b6137b3565b6136fd565b9050919050565b5f6137e7826137bc565b9050919050565b5f6137f8826137dd565b9050919050565b613808816137ee565b82525050565b5f6020820190506138215f8301846137ff565b92915050565b61383081613782565b811461383a575f80fd5b50565b5f8135905061384b81613827565b92915050565b5f80fd5b5f80fd5b5f601f19601f8301169050919050565b7f4e487b71000000000000000000000000000000000000000000000000000000005f52604160045260245ffd5b61389f82613859565b810181811067ffffffffffffffff821117156138be576138bd613869565b5b80604052505050565b5f6138d06136ec565b90506138dc8282613896565b919050565b5f67ffffffffffffffff8211156138fb576138fa613869565b5b61390482613859565b9050602081019050919050565b828183375f83830152505050565b5f61393161392c846138e1565b6138c7565b90508281526020810184848401111561394d5761394c613855565b5b613958848285613911565b509392505050565b5f82601f83011261397457613973613851565b5b813561398484826020860161391f565b91505092915050565b5f80604083850312156139a3576139a26136f5565b5b5f6139b08582860161383d565b925050602083013567ffffffffffffffff8111156139d1576139d06136f9565b5b6139dd85828601613960565b9150509250929050565b6139f0816136b9565b81146139fa575f80fd5b50565b5f81359050613a0b816139e7565b92915050565b5f8060408385031215613a2757613a266136f5565b5b5f83013567ffffffffffffffff811115613a4457613a436136f9565b5b613a5085828601613960565b9250506020613a61858286016139fd565b9150509250929050565b613a748161371c565b82525050565b5f602082019050613a8d5f830184613a6b565b92915050565b5f60208284031215613aa857613aa76136f5565b5b5f613ab58482850161383d565b91505092915050565b5f8060408385031215613ad457613ad36136f5565b5b5f613ae18582860161383d565b9250506020613af28582860161383d565b9150509250929050565b5f60208284031215613b1157613b106136f5565b5b5f82013567ffffffffffffffff811115613b2e57613b2d6136f9565b5b613b3a84828501613960565b91505092915050565b5f805f8060808587031215613b5b57613b5a6136f5565b5b5f85013567ffffffffffffffff811115613b7857613b776136f9565b5b613b8487828801613960565b945050602085013567ffffffffffffffff811115613ba557613ba46136f9565b5b613bb187828801613960565b935050604085013567ffffffffffffffff811115613bd257613bd16136f9565b5b613bde87828801613960565b925050606085013567ffffffffffffffff811115613bff57613bfe6136f9565b5b613c0b87828801613960565b91505092959194509250565b5f81519050919050565b5f82825260208201905092915050565b5f5b83811015613c4e578082015181840152602081019050613c33565b5f8484015250505050565b5f613c6382613c17565b613c6d8185613c21565b9350613c7d818560208601613c31565b613c8681613859565b840191505092915050565b5f610160820190508181035f830152613caa818e613c59565b90508181036020830152613cbe818d613c59565b90508181036040830152613cd2818c613c59565b90508181036060830152613ce6818b613c59565b90508181036080830152613cfa818a613c59565b905081810360a0830152613d0e8189613c59565b905081810360c0830152613d228188613c59565b9050613d3160e0830187613a6b565b613d3f61010083018661378b565b613d4d61012083018561378b565b613d5b61014083018461378b565b9c9b505050505050505050505050565b7f4f6e6c792063726561746f722063616e207570646174650000000000000000005f82015250565b5f613d9f601783613c21565b9150613daa82613d6b565b602082019050919050565b5f6020820190508181035f830152613dcc81613d93565b9050919050565b7f4e487b71000000000000000000000000000000000000000000000000000000005f52602260045260245ffd5b5f6002820490506001821680613e1757607f821691505b602082108103613e2a57613e29613dd3565b5b50919050565b5f819050815f5260205f209050919050565b5f6020601f8301049050919050565b5f82821b905092915050565b5f60088302613e8c7fffffffffffffffffffffffffffffffffffffffffffffffffffffffffffffffff82613e51565b613e968683613e51565b95508019841693508086168417925050509392505050565b5f613ec8613ec3613ebe84613782565b6137b3565b613782565b9050919050565b5f819050919050565b613ee183613eae565b613ef5613eed82613ecf565b848454613e5d565b825550505050565b5f90565b613f09613efd565b613f14818484613ed8565b505050565b5b81811015613f3757613f2c5f82613f01565b600181019050613f1a565b5050565b601f821115613f7c57613f4d81613e30565b613f5684613e42565b81016020851015613f65578190505b613f79613f7185613e42565b830182613f19565b50505b505050565b5f82821c905092915050565b5f613f9c5f1984600802613f81565b1980831691505092915050565b5f613fb48383613f8d565b9150826002028217905092915050565b613fcd82613c17565b67ffffffffffffffff811115613fe657613fe5613869565b5b613ff08254613e00565b613ffb828285613f3b565b5f60209050601f83116001811461402c575f841561401a578287015190505b6140248582613fa9565b86555061408b565b601f19841661403a86613e30565b5f5b828110156140615784890151825560018201915060208501945060208101905061403c565b8683101561407e578489015161407a601f891682613f8d565b8355505b6001600288020188555050505b505050505050565b7f4f6e6c792061646d696e2063616e20706572666f726d207468697320616374695f8201527f6f6e000000000000000000000000000000000000000000000000000000000000602082015250565b5f6140ed602283613c21565b91506140f882614093565b604082019050919050565b5f6020820190508181035f83015261411a816140e1565b9050919050565b7f41646d696e2063616e206f6e6c7920746f67676c65206368616e67655365636f5f8201527f6e6441646d696e00000000000000000000000000000000000000000000000000602082015250565b5f61417b602783613c21565b915061418682614121565b604082019050919050565b5f6020820190508181035f8301526141a88161416f565b9050919050565b5f81905092915050565b5f6141c382613c17565b6141cd81856141af565b93506141dd818560208601613c31565b80840191505092915050565b5f6141f482846141b9565b915081905092915050565b7f46756e6374696f6e2069732064697361626c65640000000000000000000000005f82015250565b5f614233601483613c21565b915061423e826141ff565b602082019050919050565b5f6020820190508181035f83015261426081614227565b9050919050565b7f456c656d656e74206973206e6f742070656e64696e6720617070726f76616c005f82015250565b5f61429b601f83613c21565b91506142a682614267565b602082019050919050565b5f6020820190508181035f8301526142c88161428f565b9050919050565b7f4e487b71000000000000000000000000000000000000000000000000000000005f52601160045260245ffd5b5f61430682613782565b915061431183613782565b9250828203905081811115614329576143286142cf565b5b92915050565b5f61433982613782565b915061434483613782565b925082820261435281613782565b91508282048414831517614369576143686142cf565b5b5092915050565b7f4e487b71000000000000000000000000000000000000000000000000000000005f52601260045260245ffd5b5f6143a782613782565b91506143b283613782565b9250826143c2576143c1614370565b5b828204905092915050565b7f4d696e696d756d20756e7374616b6520616d6f756e74206973203120746f6b655f8201527f6e00000000000000000000000000000000000000000000000000000000000000602082015250565b5f614427602183613c21565b9150614432826143cd565b604082019050919050565b5f6020820190508181035f8301526144548161441b565b9050919050565b7f496e73756666696369656e74207374616b656420616d6f756e740000000000005f82015250565b5f61448f601a83613c21565b915061449a8261445b565b602082019050919050565b5f6020820190508181035f8301526144bc81614483565b9050919050565b7f4f6e6c79207365636f6e642061646d696e2063616e20706572666f726d2074685f8201527f697320616374696f6e0000000000000000000000000000000000000000000000602082015250565b5f61451d602983613c21565b9150614528826144c3565b604082019050919050565b5f6020820190508181035f83015261454a81614511565b9050919050565b7f5365636f6e642061646d696e2063616e6e6f7420746f67676c65206368616e675f8201527f655365636f6e6441646d696e0000000000000000000000000000000000000000602082015250565b5f6145ab602c83613c21565b91506145b682614551565b604082019050919050565b5f6020820190508181035f8301526145d88161459f565b9050919050565b7f456c656d656e7420697320616c726561647920696e20746865205072657374695f8201527f6765207068617365000000000000000000000000000000000000000000000000602082015250565b5f614639602883613c21565b9150614644826145df565b604082019050919050565b5f6020820190508181035f8301526146668161462d565b9050919050565b5f61467782613782565b915061468283613782565b925082820190508082111561469a576146996142cf565b5b92915050565b5f6146aa82613782565b91507fffffffffffffffffffffffffffffffffffffffffffffffffffffffffffffffff82036146dc576146db6142cf565b5b600182019050919050565b7f4e487b71000000000000000000000000000000000000000000000000000000005f52602160045260245ffd5b7f416d6f756e74206d7573742062652067726561746572207468616e207a65726f5f82015250565b5f614748602083613c21565b915061475382614714565b602082019050919050565b5f6020820190508181035f8301526147758161473c565b9050919050565b7f496e73756666696369656e7420766f74696e6720706f776572000000000000005f82015250565b5f6147b0601983613c21565b91506147bb8261477c565b602082019050919050565b5f6020820190508181035f8301526147dd816147a4565b9050919050565b7f5374616b696e672069732064697361626c6564000000000000000000000000005f82015250565b5f614818601383613c21565b9150614823826147e4565b602082019050919050565b5f6020820190508181035f8301526148458161480c565b9050919050565b7f4d696e696d756d207374616b6520616d6f756e74206973203120746f6b656e005f82015250565b5f614880601f83613c21565b915061488b8261484c565b602082019050919050565b5f6020820190508181035f8301526148ad81614874565b9050919050565b5f815190506148c281613827565b92915050565b5f602082840312156148dd576148dc6136f5565b5b5f6148ea848285016148b4565b91505092915050565b7f496e73756666696369656e7420746f6b656e7320746f2063726561746520656c5f8201527f656d656e74000000000000000000000000000000000000000000000000000000602082015250565b5f61494d602583613c21565b9150614958826148f3565b604082019050919050565b5f6020820190508181035f83015261497a81614941565b9050919050565b5f6040820190506149945f83018561378b565b6149a16020830184613a6b565b9392505050565b7f4f6e6c792074686972642061646d696e2063616e20706572666f726d207468695f8201527f7320616374696f6e000000000000000000000000000000000000000000000000602082015250565b5f614a02602883613c21565b9150614a0d826149a8565b604082019050919050565b5f6020820190508181035f830152614a2f816149f6565b9050919050565b7f4e65772061646d696e20616464726573732063616e6e6f74206265207a65726f5f82015250565b5f614a6a602083613c21565b9150614a7582614a36565b602082019050919050565b5f6020820190508181035f830152614a9781614a5e565b9050919050565b7f4e6f207374616b656420616d6f756e74000000000000000000000000000000005f82015250565b5f614ad2601083613c21565b9150614add82614a9e565b602082019050919050565b5f6020820190508181035f830152614aff81614ac6565b9050919050565b7f43616e6e6f7420636c61696d206265666f72652061206d6f6e746800000000005f82015250565b5f614b3a601b83613c21565b9150614b4582614b06565b602082019050919050565b5f6020820190508181035f830152614b6781614b2e565b9050919050565b7f4e6577207365636f6e642061646d696e20616464726573732063616e6e6f74205f8201527f6265207a65726f00000000000000000000000000000000000000000000000000602082015250565b5f614bc8602783613c21565b9150614bd382614b6e565b604082019050919050565b5f6020820190508181035f830152614bf581614bbc565b9050919050565b7f5265656e7472616e637947756172643a207265656e7472616e742063616c6c005f82015250565b5f614c30601f83613c21565b9150614c3b82614bfc565b602082019050919050565b5f6020820190508181035f830152614c5d81614c24565b9050919050565b5f604082019050614c775f830185613a6b565b614c84602083018461378b565b9392505050565b5f606082019050614c9e5f830186613a6b565b614cab6020830185613a6b565b614cb8604083018461378b565b949350505050565b5f81519050614cce816139e7565b92915050565b5f60208284031215614ce957614ce86136f5565b5b5f614cf684828501614cc0565b91505092915050565b5f81519050919050565b5f81905092915050565b5f614d1d82614cff565b614d278185614d09565b9350614d37818560208601613c31565b80840191505092915050565b5f614d4e8284614d13565b91508190509291505056fea26469706673582212200e96692b36f8f35234272749e76a737227e045a89ea2a721ee738e8dae3d11cf64736f6c63430008140033",
			"opcodes": "PUSH1 0x80 PUSH1 0x40 MSTORE CALLVALUE DUP1 ISZERO PUSH3 0x10 JUMPI PUSH0 DUP1 REVERT JUMPDEST POP PUSH1 0x40 MLOAD PUSH3 0x540B CODESIZE SUB DUP1 PUSH3 0x540B DUP4 CODECOPY DUP2 DUP2 ADD PUSH1 0x40 MSTORE DUP2 ADD SWAP1 PUSH3 0x36 SWAP2 SWAP1 PUSH3 0x339 JUMP JUMPDEST PUSH1 0x1 PUSH0 DUP2 SWAP1 SSTORE POP DUP3 PUSH1 0x8 PUSH1 0x1 PUSH2 0x100 EXP DUP2 SLOAD DUP2 PUSH20 0xFFFFFFFFFFFFFFFFFFFFFFFFFFFFFFFFFFFFFFFF MUL NOT AND SWAP1 DUP4 PUSH20 0xFFFFFFFFFFFFFFFFFFFFFFFFFFFFFFFFFFFFFFFF AND MUL OR SWAP1 SSTORE POP DUP4 PUSH1 0xB PUSH0 PUSH2 0x100 EXP DUP2 SLOAD DUP2 PUSH20 0xFFFFFFFFFFFFFFFFFFFFFFFFFFFFFFFFFFFFFFFF MUL NOT AND SWAP1 DUP4 PUSH20 0xFFFFFFFFFFFFFFFFFFFFFFFFFFFFFFFFFFFFFFFF AND MUL OR SWAP1 SSTORE POP DUP2 PUSH1 0x9 PUSH0 PUSH2 0x100 EXP DUP2 SLOAD DUP2 PUSH20 0xFFFFFFFFFFFFFFFFFFFFFFFFFFFFFFFFFFFFFFFF MUL NOT AND SWAP1 DUP4 PUSH20 0xFFFFFFFFFFFFFFFFFFFFFFFFFFFFFFFFFFFFFFFF AND MUL OR SWAP1 SSTORE POP DUP1 PUSH1 0xA PUSH0 PUSH2 0x100 EXP DUP2 SLOAD DUP2 PUSH20 0xFFFFFFFFFFFFFFFFFFFFFFFFFFFFFFFFFFFFFFFF MUL NOT AND SWAP1 DUP4 PUSH20 0xFFFFFFFFFFFFFFFFFFFFFFFFFFFFFFFFFFFFFFFF AND MUL OR SWAP1 SSTORE POP PUSH0 PUSH1 0xC PUSH1 0x40 MLOAD PUSH3 0x14F SWAP1 PUSH3 0x400 JUMP JUMPDEST SWAP1 DUP2 MSTORE PUSH1 0x20 ADD PUSH1 0x40 MLOAD DUP1 SWAP2 SUB SWAP1 KECCAK256 PUSH0 PUSH2 0x100 EXP DUP2 SLOAD DUP2 PUSH1 0xFF MUL NOT AND SWAP1 DUP4 ISZERO ISZERO MUL OR SWAP1 SSTORE POP PUSH0 PUSH1 0xC PUSH1 0x40 MLOAD PUSH3 0x184 SWAP1 PUSH3 0x464 JUMP JUMPDEST SWAP1 DUP2 MSTORE PUSH1 0x20 ADD PUSH1 0x40 MLOAD DUP1 SWAP2 SUB SWAP1 KECCAK256 PUSH0 PUSH2 0x100 EXP DUP2 SLOAD DUP2 PUSH1 0xFF MUL NOT AND SWAP1 DUP4 ISZERO ISZERO MUL OR SWAP1 SSTORE POP PUSH0 PUSH1 0xC PUSH1 0x40 MLOAD PUSH3 0x1B9 SWAP1 PUSH3 0x4C8 JUMP JUMPDEST SWAP1 DUP2 MSTORE PUSH1 0x20 ADD PUSH1 0x40 MLOAD DUP1 SWAP2 SUB SWAP1 KECCAK256 PUSH0 PUSH2 0x100 EXP DUP2 SLOAD DUP2 PUSH1 0xFF MUL NOT AND SWAP1 DUP4 ISZERO ISZERO MUL OR SWAP1 SSTORE POP PUSH0 PUSH1 0xC PUSH1 0x40 MLOAD PUSH3 0x1EE SWAP1 PUSH3 0x52C JUMP JUMPDEST SWAP1 DUP2 MSTORE PUSH1 0x20 ADD PUSH1 0x40 MLOAD DUP1 SWAP2 SUB SWAP1 KECCAK256 PUSH0 PUSH2 0x100 EXP DUP2 SLOAD DUP2 PUSH1 0xFF MUL NOT AND SWAP1 DUP4 ISZERO ISZERO MUL OR SWAP1 SSTORE POP PUSH0 PUSH1 0xC PUSH1 0x40 MLOAD PUSH3 0x223 SWAP1 PUSH3 0x590 JUMP JUMPDEST SWAP1 DUP2 MSTORE PUSH1 0x20 ADD PUSH1 0x40 MLOAD DUP1 SWAP2 SUB SWAP1 KECCAK256 PUSH0 PUSH2 0x100 EXP DUP2 SLOAD DUP2 PUSH1 0xFF MUL NOT AND SWAP1 DUP4 ISZERO ISZERO MUL OR SWAP1 SSTORE POP PUSH0 PUSH1 0xC PUSH1 0x40 MLOAD PUSH3 0x258 SWAP1 PUSH3 0x5F4 JUMP JUMPDEST SWAP1 DUP2 MSTORE PUSH1 0x20 ADD PUSH1 0x40 MLOAD DUP1 SWAP2 SUB SWAP1 KECCAK256 PUSH0 PUSH2 0x100 EXP DUP2 SLOAD DUP2 PUSH1 0xFF MUL NOT AND SWAP1 DUP4 ISZERO ISZERO MUL OR SWAP1 SSTORE POP PUSH0 PUSH1 0xC PUSH1 0x40 MLOAD PUSH3 0x28D SWAP1 PUSH3 0x658 JUMP JUMPDEST SWAP1 DUP2 MSTORE PUSH1 0x20 ADD PUSH1 0x40 MLOAD DUP1 SWAP2 SUB SWAP1 KECCAK256 PUSH0 PUSH2 0x100 EXP DUP2 SLOAD DUP2 PUSH1 0xFF MUL NOT AND SWAP1 DUP4 ISZERO ISZERO MUL OR SWAP1 SSTORE POP PUSH0 PUSH1 0x8 PUSH0 PUSH2 0x100 EXP DUP2 SLOAD DUP2 PUSH1 0xFF MUL NOT AND SWAP1 DUP4 ISZERO ISZERO MUL OR SWAP1 SSTORE POP POP POP POP POP PUSH3 0x66E JUMP JUMPDEST PUSH0 DUP1 REVERT JUMPDEST PUSH0 PUSH20 0xFFFFFFFFFFFFFFFFFFFFFFFFFFFFFFFFFFFFFFFF DUP3 AND SWAP1 POP SWAP2 SWAP1 POP JUMP JUMPDEST PUSH0 PUSH3 0x303 DUP3 PUSH3 0x2D8 JUMP JUMPDEST SWAP1 POP SWAP2 SWAP1 POP JUMP JUMPDEST PUSH3 0x315 DUP2 PUSH3 0x2F7 JUMP JUMPDEST DUP2 EQ PUSH3 0x320 JUMPI PUSH0 DUP1 REVERT JUMPDEST POP JUMP JUMPDEST PUSH0 DUP2 MLOAD SWAP1 POP PUSH3 0x333 DUP2 PUSH3 0x30A JUMP JUMPDEST SWAP3 SWAP2 POP POP JUMP JUMPDEST PUSH0 DUP1 PUSH0 DUP1 PUSH1 0x80 DUP6 DUP8 SUB SLT ISZERO PUSH3 0x354 JUMPI PUSH3 0x353 PUSH3 0x2D4 JUMP JUMPDEST JUMPDEST PUSH0 PUSH3 0x363 DUP8 DUP3 DUP9 ADD PUSH3 0x323 JUMP JUMPDEST SWAP5 POP POP PUSH1 0x20 PUSH3 0x376 DUP8 DUP3 DUP9 ADD PUSH3 0x323 JUMP JUMPDEST SWAP4 POP POP PUSH1 0x40 PUSH3 0x389 DUP8 DUP3 DUP9 ADD PUSH3 0x323 JUMP JUMPDEST SWAP3 POP POP PUSH1 0x60 PUSH3 0x39C DUP8 DUP3 DUP9 ADD PUSH3 0x323 JUMP JUMPDEST SWAP2 POP POP SWAP3 SWAP6 SWAP2 SWAP5 POP SWAP3 POP JUMP JUMPDEST PUSH0 DUP2 SWAP1 POP SWAP3 SWAP2 POP POP JUMP JUMPDEST PUSH32 0x617070726F7665456C656D656E74000000000000000000000000000000000000 PUSH0 DUP3 ADD MSTORE POP JUMP JUMPDEST PUSH0 PUSH3 0x3E8 PUSH1 0xE DUP4 PUSH3 0x3A8 JUMP JUMPDEST SWAP2 POP PUSH3 0x3F5 DUP3 PUSH3 0x3B2 JUMP JUMPDEST PUSH1 0xE DUP3 ADD SWAP1 POP SWAP2 SWAP1 POP JUMP JUMPDEST PUSH0 PUSH3 0x40C DUP3 PUSH3 0x3DA JUMP JUMPDEST SWAP2 POP DUP2 SWAP1 POP SWAP2 SWAP1 POP JUMP JUMPDEST PUSH32 0x72656A656374456C656D656E7400000000000000000000000000000000000000 PUSH0 DUP3 ADD MSTORE POP JUMP JUMPDEST PUSH0 PUSH3 0x44C PUSH1 0xD DUP4 PUSH3 0x3A8 JUMP JUMPDEST SWAP2 POP PUSH3 0x459 DUP3 PUSH3 0x416 JUMP JUMPDEST PUSH1 0xD DUP3 ADD SWAP1 POP SWAP2 SWAP1 POP JUMP JUMPDEST PUSH0 PUSH3 0x470 DUP3 PUSH3 0x43E JUMP JUMPDEST SWAP2 POP DUP2 SWAP1 POP SWAP2 SWAP1 POP JUMP JUMPDEST PUSH32 0x72656D6F7665456C656D656E7400000000000000000000000000000000000000 PUSH0 DUP3 ADD MSTORE POP JUMP JUMPDEST PUSH0 PUSH3 0x4B0 PUSH1 0xD DUP4 PUSH3 0x3A8 JUMP JUMPDEST SWAP2 POP PUSH3 0x4BD DUP3 PUSH3 0x47A JUMP JUMPDEST PUSH1 0xD DUP3 ADD SWAP1 POP SWAP2 SWAP1 POP JUMP JUMPDEST PUSH0 PUSH3 0x4D4 DUP3 PUSH3 0x4A2 JUMP JUMPDEST SWAP2 POP DUP2 SWAP1 POP SWAP2 SWAP1 POP JUMP JUMPDEST PUSH32 0x636F6E6669726D55706461746500000000000000000000000000000000000000 PUSH0 DUP3 ADD MSTORE POP JUMP JUMPDEST PUSH0 PUSH3 0x514 PUSH1 0xD DUP4 PUSH3 0x3A8 JUMP JUMPDEST SWAP2 POP PUSH3 0x521 DUP3 PUSH3 0x4DE JUMP JUMPDEST PUSH1 0xD DUP3 ADD SWAP1 POP SWAP2 SWAP1 POP JUMP JUMPDEST PUSH0 PUSH3 0x538 DUP3 PUSH3 0x506 JUMP JUMPDEST SWAP2 POP DUP2 SWAP1 POP SWAP2 SWAP1 POP JUMP JUMPDEST PUSH32 0x7265667573655570646174650000000000000000000000000000000000000000 PUSH0 DUP3 ADD MSTORE POP JUMP JUMPDEST PUSH0 PUSH3 0x578 PUSH1 0xC DUP4 PUSH3 0x3A8 JUMP JUMPDEST SWAP2 POP PUSH3 0x585 DUP3 PUSH3 0x542 JUMP JUMPDEST PUSH1 0xC DUP3 ADD SWAP1 POP SWAP2 SWAP1 POP JUMP JUMPDEST PUSH0 PUSH3 0x59C DUP3 PUSH3 0x56A JUMP JUMPDEST SWAP2 POP DUP2 SWAP1 POP SWAP2 SWAP1 POP JUMP JUMPDEST PUSH32 0x6368616E676541646D696E000000000000000000000000000000000000000000 PUSH0 DUP3 ADD MSTORE POP JUMP JUMPDEST PUSH0 PUSH3 0x5DC PUSH1 0xB DUP4 PUSH3 0x3A8 JUMP JUMPDEST SWAP2 POP PUSH3 0x5E9 DUP3 PUSH3 0x5A6 JUMP JUMPDEST PUSH1 0xB DUP3 ADD SWAP1 POP SWAP2 SWAP1 POP JUMP JUMPDEST PUSH0 PUSH3 0x600 DUP3 PUSH3 0x5CE JUMP JUMPDEST SWAP2 POP DUP2 SWAP1 POP SWAP2 SWAP1 POP JUMP JUMPDEST PUSH32 0x6368616E67655365636F6E6441646D696E000000000000000000000000000000 PUSH0 DUP3 ADD MSTORE POP JUMP JUMPDEST PUSH0 PUSH3 0x640 PUSH1 0x11 DUP4 PUSH3 0x3A8 JUMP JUMPDEST SWAP2 POP PUSH3 0x64D DUP3 PUSH3 0x60A JUMP JUMPDEST PUSH1 0x11 DUP3 ADD SWAP1 POP SWAP2 SWAP1 POP JUMP JUMPDEST PUSH0 PUSH3 0x664 DUP3 PUSH3 0x632 JUMP JUMPDEST SWAP2 POP DUP2 SWAP1 POP SWAP2 SWAP1 POP JUMP JUMPDEST PUSH2 0x4D8F DUP1 PUSH3 0x67C PUSH0 CODECOPY PUSH0 RETURN INVALID PUSH1 0x80 PUSH1 0x40 MSTORE CALLVALUE DUP1 ISZERO PUSH2 0xF JUMPI PUSH0 DUP1 REVERT JUMPDEST POP PUSH1 0x4 CALLDATASIZE LT PUSH2 0x25B JUMPI PUSH0 CALLDATALOAD PUSH1 0xE0 SHR DUP1 PUSH4 0x6B8D04FB GT PUSH2 0x144 JUMPI DUP1 PUSH4 0xC07473F6 GT PUSH2 0xC1 JUMPI DUP1 PUSH4 0xD4F1E386 GT PUSH2 0x85 JUMPI DUP1 PUSH4 0xD4F1E386 EQ PUSH2 0x707 JUMPI DUP1 PUSH4 0xD69ECA4C EQ PUSH2 0x711 JUMPI DUP1 PUSH4 0xDD8087D1 EQ PUSH2 0x72F JUMPI DUP1 PUSH4 0xE0D64B37 EQ PUSH2 0x74B JUMPI DUP1 PUSH4 0xF851A440 EQ PUSH2 0x785 JUMPI DUP1 PUSH4 0xF9089BF2 EQ PUSH2 0x7A3 JUMPI PUSH2 0x25B JUMP JUMPDEST DUP1 PUSH4 0xC07473F6 EQ PUSH2 0x651 JUMPI DUP1 PUSH4 0xC5E48E5A EQ PUSH2 0x681 JUMPI DUP1 PUSH4 0xC7B3564E EQ PUSH2 0x69F JUMPI DUP1 PUSH4 0xC9B3829F EQ PUSH2 0x6BB JUMPI DUP1 PUSH4 0xCC78D728 EQ PUSH2 0x6D7 JUMPI PUSH2 0x25B JUMP JUMPDEST DUP1 PUSH4 0x8B52E06C GT PUSH2 0x108 JUMPI DUP1 PUSH4 0x8B52E06C EQ PUSH2 0x5D5 JUMPI DUP1 PUSH4 0x8F283970 EQ PUSH2 0x5F3 JUMPI DUP1 PUSH4 0x8FDDD022 EQ PUSH2 0x60F JUMPI DUP1 PUSH4 0x9FC37ABF EQ PUSH2 0x619 JUMPI DUP1 PUSH4 0xC019963A EQ PUSH2 0x635 JUMPI PUSH2 0x25B JUMP JUMPDEST DUP1 PUSH4 0x6B8D04FB EQ PUSH2 0x533 JUMPI DUP1 PUSH4 0x72BAE674 EQ PUSH2 0x563 JUMPI DUP1 PUSH4 0x7547C7A3 EQ PUSH2 0x57F JUMPI DUP1 PUSH4 0x7CDD15C1 EQ PUSH2 0x59B JUMPI DUP1 PUSH4 0x84D804BE EQ PUSH2 0x5B7 JUMPI PUSH2 0x25B JUMP JUMPDEST DUP1 PUSH4 0x25D5971F GT PUSH2 0x1DD JUMPI DUP1 PUSH4 0x3B72BAD5 GT PUSH2 0x1A1 JUMPI DUP1 PUSH4 0x3B72BAD5 EQ PUSH2 0x45D JUMPI DUP1 PUSH4 0x51D18598 EQ PUSH2 0x479 JUMPI DUP1 PUSH4 0x5DCC9391 EQ PUSH2 0x497 JUMPI DUP1 PUSH4 0x5FF329AF EQ PUSH2 0x4B5 JUMPI DUP1 PUSH4 0x613DAB3E EQ PUSH2 0x4E5 JUMPI DUP1 PUSH4 0x67BE4673 EQ PUSH2 0x515 JUMPI PUSH2 0x25B JUMP JUMPDEST DUP1 PUSH4 0x25D5971F EQ PUSH2 0x3CD JUMPI DUP1 PUSH4 0x27855B13 EQ PUSH2 0x3E9 JUMPI DUP1 PUSH4 0x2A9AAA76 EQ PUSH2 0x407 JUMPI DUP1 PUSH4 0x36EAD39F EQ PUSH2 0x423 JUMPI DUP1 PUSH4 0x3AE73259 EQ PUSH2 0x43F JUMPI PUSH2 0x25B JUMP JUMPDEST DUP1 PUSH4 0x17504B98 GT PUSH2 0x224 JUMPI DUP1 PUSH4 0x17504B98 EQ PUSH2 0x317 JUMPI DUP1 PUSH4 0x1D002CC0 EQ PUSH2 0x333 JUMPI DUP1 PUSH4 0x1D32E9B3 EQ PUSH2 0x363 JUMPI DUP1 PUSH4 0x1FAA1128 EQ PUSH2 0x381 JUMPI DUP1 PUSH4 0x20CB13AB EQ PUSH2 0x39D JUMPI PUSH2 0x25B JUMP JUMPDEST DUP1 PUSH3 0x53B4B3 EQ PUSH2 0x25F JUMPI DUP1 PUSH4 0x13EBA92 EQ PUSH2 0x27D JUMPI DUP1 PUSH4 0xD67F59E EQ PUSH2 0x2AD JUMPI DUP1 PUSH4 0xDBA280C EQ PUSH2 0x2CB JUMPI DUP1 PUSH4 0x16934FC4 EQ PUSH2 0x2E7 JUMPI JUMPDEST PUSH0 DUP1 REVERT JUMPDEST PUSH2 0x267 PUSH2 0x7D3 JUMP JUMPDEST PUSH1 0x40 MLOAD PUSH2 0x274 SWAP2 SWAP1 PUSH2 0x36D3 JUMP JUMPDEST PUSH1 0x40 MLOAD DUP1 SWAP2 SUB SWAP1 RETURN JUMPDEST PUSH2 0x297 PUSH1 0x4 DUP1 CALLDATASIZE SUB DUP2 ADD SWAP1 PUSH2 0x292 SWAP2 SWAP1 PUSH2 0x3757 JUMP JUMPDEST PUSH2 0x7E5 JUMP JUMPDEST PUSH1 0x40 MLOAD PUSH2 0x2A4 SWAP2 SWAP1 PUSH2 0x379A JUMP JUMPDEST PUSH1 0x40 MLOAD DUP1 SWAP2 SUB SWAP1 RETURN JUMPDEST PUSH2 0x2B5 PUSH2 0x7FA JUMP JUMPDEST PUSH1 0x40 MLOAD PUSH2 0x2C2 SWAP2 SWAP1 PUSH2 0x380E JUMP JUMPDEST PUSH1 0x40 MLOAD DUP1 SWAP2 SUB SWAP1 RETURN JUMPDEST PUSH2 0x2E5 PUSH1 0x4 DUP1 CALLDATASIZE SUB DUP2 ADD SWAP1 PUSH2 0x2E0 SWAP2 SWAP1 PUSH2 0x398D JUMP JUMPDEST PUSH2 0x81F JUMP JUMPDEST STOP JUMPDEST PUSH2 0x301 PUSH1 0x4 DUP1 CALLDATASIZE SUB DUP2 ADD SWAP1 PUSH2 0x2FC SWAP2 SWAP1 PUSH2 0x3757 JUMP JUMPDEST PUSH2 0x8FF JUMP JUMPDEST PUSH1 0x40 MLOAD PUSH2 0x30E SWAP2 SWAP1 PUSH2 0x379A JUMP JUMPDEST PUSH1 0x40 MLOAD DUP1 SWAP2 SUB SWAP1 RETURN JUMPDEST PUSH2 0x331 PUSH1 0x4 DUP1 CALLDATASIZE SUB DUP2 ADD SWAP1 PUSH2 0x32C SWAP2 SWAP1 PUSH2 0x3A11 JUMP JUMPDEST PUSH2 0x914 JUMP JUMPDEST STOP JUMPDEST PUSH2 0x34D PUSH1 0x4 DUP1 CALLDATASIZE SUB DUP2 ADD SWAP1 PUSH2 0x348 SWAP2 SWAP1 PUSH2 0x3757 JUMP JUMPDEST PUSH2 0xA62 JUMP JUMPDEST PUSH1 0x40 MLOAD PUSH2 0x35A SWAP2 SWAP1 PUSH2 0x379A JUMP JUMPDEST PUSH1 0x40 MLOAD DUP1 SWAP2 SUB SWAP1 RETURN JUMPDEST PUSH2 0x36B PUSH2 0xA77 JUMP JUMPDEST PUSH1 0x40 MLOAD PUSH2 0x378 SWAP2 SWAP1 PUSH2 0x3A7A JUMP JUMPDEST PUSH1 0x40 MLOAD DUP1 SWAP2 SUB SWAP1 RETURN JUMPDEST PUSH2 0x39B PUSH1 0x4 DUP1 CALLDATASIZE SUB DUP2 ADD SWAP1 PUSH2 0x396 SWAP2 SWAP1 PUSH2 0x3A93 JUMP JUMPDEST PUSH2 0xA9C JUMP JUMPDEST STOP JUMPDEST PUSH2 0x3B7 PUSH1 0x4 DUP1 CALLDATASIZE SUB DUP2 ADD SWAP1 PUSH2 0x3B2 SWAP2 SWAP1 PUSH2 0x3ABE JUMP JUMPDEST PUSH2 0xC76 JUMP JUMPDEST PUSH1 0x40 MLOAD PUSH2 0x3C4 SWAP2 SWAP1 PUSH2 0x379A JUMP JUMPDEST PUSH1 0x40 MLOAD DUP1 SWAP2 SUB SWAP1 RETURN JUMPDEST PUSH2 0x3E7 PUSH1 0x4 DUP1 CALLDATASIZE SUB DUP2 ADD SWAP1 PUSH2 0x3E2 SWAP2 SWAP1 PUSH2 0x3A93 JUMP JUMPDEST PUSH2 0xCC5 JUMP JUMPDEST STOP JUMPDEST PUSH2 0x3F1 PUSH2 0xE97 JUMP JUMPDEST PUSH1 0x40 MLOAD PUSH2 0x3FE SWAP2 SWAP1 PUSH2 0x379A JUMP JUMPDEST PUSH1 0x40 MLOAD DUP1 SWAP2 SUB SWAP1 RETURN JUMPDEST PUSH2 0x421 PUSH1 0x4 DUP1 CALLDATASIZE SUB DUP2 ADD SWAP1 PUSH2 0x41C SWAP2 SWAP1 PUSH2 0x3A11 JUMP JUMPDEST PUSH2 0xEAB JUMP JUMPDEST STOP JUMPDEST PUSH2 0x43D PUSH1 0x4 DUP1 CALLDATASIZE SUB DUP2 ADD SWAP1 PUSH2 0x438 SWAP2 SWAP1 PUSH2 0x3A93 JUMP JUMPDEST PUSH2 0xFF8 JUMP JUMPDEST STOP JUMPDEST PUSH2 0x447 PUSH2 0x1274 JUMP JUMPDEST PUSH1 0x40 MLOAD PUSH2 0x454 SWAP2 SWAP1 PUSH2 0x379A JUMP JUMPDEST PUSH1 0x40 MLOAD DUP1 SWAP2 SUB SWAP1 RETURN JUMPDEST PUSH2 0x477 PUSH1 0x4 DUP1 CALLDATASIZE SUB DUP2 ADD SWAP1 PUSH2 0x472 SWAP2 SWAP1 PUSH2 0x3A93 JUMP JUMPDEST PUSH2 0x127A JUMP JUMPDEST STOP JUMPDEST PUSH2 0x481 PUSH2 0x14E0 JUMP JUMPDEST PUSH1 0x40 MLOAD PUSH2 0x48E SWAP2 SWAP1 PUSH2 0x379A JUMP JUMPDEST PUSH1 0x40 MLOAD DUP1 SWAP2 SUB SWAP1 RETURN JUMPDEST PUSH2 0x49F PUSH2 0x14E9 JUMP JUMPDEST PUSH1 0x40 MLOAD PUSH2 0x4AC SWAP2 SWAP1 PUSH2 0x379A JUMP JUMPDEST PUSH1 0x40 MLOAD DUP1 SWAP2 SUB SWAP1 RETURN JUMPDEST PUSH2 0x4CF PUSH1 0x4 DUP1 CALLDATASIZE SUB DUP2 ADD SWAP1 PUSH2 0x4CA SWAP2 SWAP1 PUSH2 0x3757 JUMP JUMPDEST PUSH2 0x14F1 JUMP JUMPDEST PUSH1 0x40 MLOAD PUSH2 0x4DC SWAP2 SWAP1 PUSH2 0x379A JUMP JUMPDEST PUSH1 0x40 MLOAD DUP1 SWAP2 SUB SWAP1 RETURN JUMPDEST PUSH2 0x4FF PUSH1 0x4 DUP1 CALLDATASIZE SUB DUP2 ADD SWAP1 PUSH2 0x4FA SWAP2 SWAP1 PUSH2 0x3AFC JUMP JUMPDEST PUSH2 0x16D3 JUMP JUMPDEST PUSH1 0x40 MLOAD PUSH2 0x50C SWAP2 SWAP1 PUSH2 0x36D3 JUMP JUMPDEST PUSH1 0x40 MLOAD DUP1 SWAP2 SUB SWAP1 RETURN JUMPDEST PUSH2 0x51D PUSH2 0x1708 JUMP JUMPDEST PUSH1 0x40 MLOAD PUSH2 0x52A SWAP2 SWAP1 PUSH2 0x379A JUMP JUMPDEST PUSH1 0x40 MLOAD DUP1 SWAP2 SUB SWAP1 RETURN JUMPDEST PUSH2 0x54D PUSH1 0x4 DUP1 CALLDATASIZE SUB DUP2 ADD SWAP1 PUSH2 0x548 SWAP2 SWAP1 PUSH2 0x3757 JUMP JUMPDEST PUSH2 0x170E JUMP JUMPDEST PUSH1 0x40 MLOAD PUSH2 0x55A SWAP2 SWAP1 PUSH2 0x36D3 JUMP JUMPDEST PUSH1 0x40 MLOAD DUP1 SWAP2 SUB SWAP1 RETURN JUMPDEST PUSH2 0x57D PUSH1 0x4 DUP1 CALLDATASIZE SUB DUP2 ADD SWAP1 PUSH2 0x578 SWAP2 SWAP1 PUSH2 0x3ABE JUMP JUMPDEST PUSH2 0x17DD JUMP JUMPDEST STOP JUMPDEST PUSH2 0x599 PUSH1 0x4 DUP1 CALLDATASIZE SUB DUP2 ADD SWAP1 PUSH2 0x594 SWAP2 SWAP1 PUSH2 0x3A93 JUMP JUMPDEST PUSH2 0x1930 JUMP JUMPDEST STOP JUMPDEST PUSH2 0x5B5 PUSH1 0x4 DUP1 CALLDATASIZE SUB DUP2 ADD SWAP1 PUSH2 0x5B0 SWAP2 SWAP1 PUSH2 0x3B43 JUMP JUMPDEST PUSH2 0x1B59 JUMP JUMPDEST STOP JUMPDEST PUSH2 0x5BF PUSH2 0x1EE4 JUMP JUMPDEST PUSH1 0x40 MLOAD PUSH2 0x5CC SWAP2 SWAP1 PUSH2 0x379A JUMP JUMPDEST PUSH1 0x40 MLOAD DUP1 SWAP2 SUB SWAP1 RETURN JUMPDEST PUSH2 0x5DD PUSH2 0x1EEB JUMP JUMPDEST PUSH1 0x40 MLOAD PUSH2 0x5EA SWAP2 SWAP1 PUSH2 0x3A7A JUMP JUMPDEST PUSH1 0x40 MLOAD DUP1 SWAP2 SUB SWAP1 RETURN JUMPDEST PUSH2 0x60D PUSH1 0x4 DUP1 CALLDATASIZE SUB DUP2 ADD SWAP1 PUSH2 0x608 SWAP2 SWAP1 PUSH2 0x3757 JUMP JUMPDEST PUSH2 0x1F10 JUMP JUMPDEST STOP JUMPDEST PUSH2 0x617 PUSH2 0x20F2 JUMP JUMPDEST STOP JUMPDEST PUSH2 0x633 PUSH1 0x4 DUP1 CALLDATASIZE SUB DUP2 ADD SWAP1 PUSH2 0x62E SWAP2 SWAP1 PUSH2 0x3A93 JUMP JUMPDEST PUSH2 0x21AC JUMP JUMPDEST STOP JUMPDEST PUSH2 0x64F PUSH1 0x4 DUP1 CALLDATASIZE SUB DUP2 ADD SWAP1 PUSH2 0x64A SWAP2 SWAP1 PUSH2 0x398D JUMP JUMPDEST PUSH2 0x2330 JUMP JUMPDEST STOP JUMPDEST PUSH2 0x66B PUSH1 0x4 DUP1 CALLDATASIZE SUB DUP2 ADD SWAP1 PUSH2 0x666 SWAP2 SWAP1 PUSH2 0x3757 JUMP JUMPDEST PUSH2 0x2410 JUMP JUMPDEST PUSH1 0x40 MLOAD PUSH2 0x678 SWAP2 SWAP1 PUSH2 0x379A JUMP JUMPDEST PUSH1 0x40 MLOAD DUP1 SWAP2 SUB SWAP1 RETURN JUMPDEST PUSH2 0x689 PUSH2 0x2425 JUMP JUMPDEST PUSH1 0x40 MLOAD PUSH2 0x696 SWAP2 SWAP1 PUSH2 0x379A JUMP JUMPDEST PUSH1 0x40 MLOAD DUP1 SWAP2 SUB SWAP1 RETURN JUMPDEST PUSH2 0x6B9 PUSH1 0x4 DUP1 CALLDATASIZE SUB DUP2 ADD SWAP1 PUSH2 0x6B4 SWAP2 SWAP1 PUSH2 0x398D JUMP JUMPDEST PUSH2 0x242E JUMP JUMPDEST STOP JUMPDEST PUSH2 0x6D5 PUSH1 0x4 DUP1 CALLDATASIZE SUB DUP2 ADD SWAP1 PUSH2 0x6D0 SWAP2 SWAP1 PUSH2 0x3A93 JUMP JUMPDEST PUSH2 0x250E JUMP JUMPDEST STOP JUMPDEST PUSH2 0x6F1 PUSH1 0x4 DUP1 CALLDATASIZE SUB DUP2 ADD SWAP1 PUSH2 0x6EC SWAP2 SWAP1 PUSH2 0x3757 JUMP JUMPDEST PUSH2 0x26E9 JUMP JUMPDEST PUSH1 0x40 MLOAD PUSH2 0x6FE SWAP2 SWAP1 PUSH2 0x379A JUMP JUMPDEST PUSH1 0x40 MLOAD DUP1 SWAP2 SUB SWAP1 RETURN JUMPDEST PUSH2 0x70F PUSH2 0x272F JUMP JUMPDEST STOP JUMPDEST PUSH2 0x719 PUSH2 0x2A93 JUMP JUMPDEST PUSH1 0x40 MLOAD PUSH2 0x726 SWAP2 SWAP1 PUSH2 0x379A JUMP JUMPDEST PUSH1 0x40 MLOAD DUP1 SWAP2 SUB SWAP1 RETURN JUMPDEST PUSH2 0x749 PUSH1 0x4 DUP1 CALLDATASIZE SUB DUP2 ADD SWAP1 PUSH2 0x744 SWAP2 SWAP1 PUSH2 0x3757 JUMP JUMPDEST PUSH2 0x2B32 JUMP JUMPDEST STOP JUMPDEST PUSH2 0x765 PUSH1 0x4 DUP1 CALLDATASIZE SUB DUP2 ADD SWAP1 PUSH2 0x760 SWAP2 SWAP1 PUSH2 0x3A93 JUMP JUMPDEST PUSH2 0x2D13 JUMP JUMPDEST PUSH1 0x40 MLOAD PUSH2 0x77C SWAP12 SWAP11 SWAP10 SWAP9 SWAP8 SWAP7 SWAP6 SWAP5 SWAP4 SWAP3 SWAP2 SWAP1 PUSH2 0x3C91 JUMP JUMPDEST PUSH1 0x40 MLOAD DUP1 SWAP2 SUB SWAP1 RETURN JUMPDEST PUSH2 0x78D PUSH2 0x3132 JUMP JUMPDEST PUSH1 0x40 MLOAD PUSH2 0x79A SWAP2 SWAP1 PUSH2 0x3A7A JUMP JUMPDEST PUSH1 0x40 MLOAD DUP1 SWAP2 SUB SWAP1 RETURN JUMPDEST PUSH2 0x7BD PUSH1 0x4 DUP1 CALLDATASIZE SUB DUP2 ADD SWAP1 PUSH2 0x7B8 SWAP2 SWAP1 PUSH2 0x3A93 JUMP JUMPDEST PUSH2 0x3158 JUMP JUMPDEST PUSH1 0x40 MLOAD PUSH2 0x7CA SWAP2 SWAP1 PUSH2 0x379A JUMP JUMPDEST PUSH1 0x40 MLOAD DUP1 SWAP2 SUB SWAP1 RETURN JUMPDEST PUSH1 0x8 PUSH0 SWAP1 SLOAD SWAP1 PUSH2 0x100 EXP SWAP1 DIV PUSH1 0xFF AND DUP2 JUMP JUMPDEST PUSH1 0x3 PUSH1 0x20 MSTORE DUP1 PUSH0 MSTORE PUSH1 0x40 PUSH0 KECCAK256 PUSH0 SWAP2 POP SWAP1 POP SLOAD DUP2 JUMP JUMPDEST PUSH1 0xB PUSH0 SWAP1 SLOAD SWAP1 PUSH2 0x100 EXP SWAP1 DIV PUSH20 0xFFFFFFFFFFFFFFFFFFFFFFFFFFFFFFFFFFFFFFFF AND DUP2 JUMP JUMPDEST CALLER PUSH20 0xFFFFFFFFFFFFFFFFFFFFFFFFFFFFFFFFFFFFFFFF AND PUSH1 0x5 PUSH0 DUP5 DUP2 MSTORE PUSH1 0x20 ADD SWAP1 DUP2 MSTORE PUSH1 0x20 ADD PUSH0 KECCAK256 PUSH1 0x7 ADD PUSH0 SWAP1 SLOAD SWAP1 PUSH2 0x100 EXP SWAP1 DIV PUSH20 0xFFFFFFFFFFFFFFFFFFFFFFFFFFFFFFFFFFFFFFFF AND PUSH20 0xFFFFFFFFFFFFFFFFFFFFFFFFFFFFFFFFFFFFFFFF AND EQ PUSH2 0x8C0 JUMPI PUSH1 0x40 MLOAD PUSH32 0x8C379A000000000000000000000000000000000000000000000000000000000 DUP2 MSTORE PUSH1 0x4 ADD PUSH2 0x8B7 SWAP1 PUSH2 0x3DB5 JUMP JUMPDEST PUSH1 0x40 MLOAD DUP1 SWAP2 SUB SWAP1 REVERT JUMPDEST DUP1 PUSH1 0x5 PUSH0 DUP5 DUP2 MSTORE PUSH1 0x20 ADD SWAP1 DUP2 MSTORE PUSH1 0x20 ADD PUSH0 KECCAK256 PUSH1 0x3 ADD SWAP1 DUP2 PUSH2 0x8E1 SWAP2 SWAP1 PUSH2 0x3FC4 JUMP JUMPDEST POP TIMESTAMP PUSH1 0x5 PUSH0 DUP5 DUP2 MSTORE PUSH1 0x20 ADD SWAP1 DUP2 MSTORE PUSH1 0x20 ADD PUSH0 KECCAK256 PUSH1 0x9 ADD DUP2 SWAP1 SSTORE POP POP POP JUMP JUMPDEST PUSH1 0x1 PUSH1 0x20 MSTORE DUP1 PUSH0 MSTORE PUSH1 0x40 PUSH0 KECCAK256 PUSH0 SWAP2 POP SWAP1 POP SLOAD DUP2 JUMP JUMPDEST PUSH1 0x8 PUSH1 0x1 SWAP1 SLOAD SWAP1 PUSH2 0x100 EXP SWAP1 DIV PUSH20 0xFFFFFFFFFFFFFFFFFFFFFFFFFFFFFFFFFFFFFFFF AND PUSH20 0xFFFFFFFFFFFFFFFFFFFFFFFFFFFFFFFFFFFFFFFF AND CALLER PUSH20 0xFFFFFFFFFFFFFFFFFFFFFFFFFFFFFFFFFFFFFFFF AND EQ PUSH2 0x9A4 JUMPI PUSH1 0x40 MLOAD PUSH32 0x8C379A000000000000000000000000000000000000000000000000000000000 DUP2 MSTORE PUSH1 0x4 ADD PUSH2 0x99B SWAP1 PUSH2 0x4103 JUMP JUMPDEST PUSH1 0x40 MLOAD DUP1 SWAP2 SUB SWAP1 REVERT JUMPDEST PUSH1 0x40 MLOAD DUP1 PUSH1 0x40 ADD PUSH1 0x40 MSTORE DUP1 PUSH1 0x11 DUP2 MSTORE PUSH1 0x20 ADD PUSH32 0x6368616E67655365636F6E6441646D696E000000000000000000000000000000 DUP2 MSTORE POP DUP1 MLOAD SWAP1 PUSH1 0x20 ADD KECCAK256 DUP3 DUP1 MLOAD SWAP1 PUSH1 0x20 ADD KECCAK256 EQ PUSH2 0xA29 JUMPI PUSH1 0x40 MLOAD PUSH32 0x8C379A000000000000000000000000000000000000000000000000000000000 DUP2 MSTORE PUSH1 0x4 ADD PUSH2 0xA20 SWAP1 PUSH2 0x4191 JUMP JUMPDEST PUSH1 0x40 MLOAD DUP1 SWAP2 SUB SWAP1 REVERT JUMPDEST DUP1 PUSH1 0xC DUP4 PUSH1 0x40 MLOAD PUSH2 0xA3A SWAP2 SWAP1 PUSH2 0x41E9 JUMP JUMPDEST SWAP1 DUP2 MSTORE PUSH1 0x20 ADD PUSH1 0x40 MLOAD DUP1 SWAP2 SUB SWAP1 KECCAK256 PUSH0 PUSH2 0x100 EXP DUP2 SLOAD DUP2 PUSH1 0xFF MUL NOT AND SWAP1 DUP4 ISZERO ISZERO MUL OR SWAP1 SSTORE POP POP POP JUMP JUMPDEST PUSH1 0x4 PUSH1 0x20 MSTORE DUP1 PUSH0 MSTORE PUSH1 0x40 PUSH0 KECCAK256 PUSH0 SWAP2 POP SWAP1 POP SLOAD DUP2 JUMP JUMPDEST PUSH1 0x9 PUSH0 SWAP1 SLOAD SWAP1 PUSH2 0x100 EXP SWAP1 DIV PUSH20 0xFFFFFFFFFFFFFFFFFFFFFFFFFFFFFFFFFFFFFFFF AND DUP2 JUMP JUMPDEST PUSH1 0x8 PUSH1 0x1 SWAP1 SLOAD SWAP1 PUSH2 0x100 EXP SWAP1 DIV PUSH20 0xFFFFFFFFFFFFFFFFFFFFFFFFFFFFFFFFFFFFFFFF AND PUSH20 0xFFFFFFFFFFFFFFFFFFFFFFFFFFFFFFFFFFFFFFFF AND CALLER PUSH20 0xFFFFFFFFFFFFFFFFFFFFFFFFFFFFFFFFFFFFFFFF AND EQ PUSH2 0xB2C JUMPI PUSH1 0x40 MLOAD PUSH32 0x8C379A000000000000000000000000000000000000000000000000000000000 DUP2 MSTORE PUSH1 0x4 ADD PUSH2 0xB23 SWAP1 PUSH2 0x4103 JUMP JUMPDEST PUSH1 0x40 MLOAD DUP1 SWAP2 SUB SWAP1 REVERT JUMPDEST PUSH1 0x40 MLOAD DUP1 PUSH1 0x40 ADD PUSH1 0x40 MSTORE DUP1 PUSH1 0xD DUP2 MSTORE PUSH1 0x20 ADD PUSH32 0x72656A656374456C656D656E7400000000000000000000000000000000000000 DUP2 MSTORE POP PUSH1 0xC DUP2 PUSH1 0x40 MLOAD PUSH2 0xB72 SWAP2 SWAP1 PUSH2 0x41E9 JUMP JUMPDEST SWAP1 DUP2 MSTORE PUSH1 0x20 ADD PUSH1 0x40 MLOAD DUP1 SWAP2 SUB SWAP1 KECCAK256 PUSH0 SWAP1 SLOAD SWAP1 PUSH2 0x100 EXP SWAP1 DIV PUSH1 0xFF AND PUSH2 0xBCC JUMPI PUSH1 0x40 MLOAD PUSH32 0x8C379A000000000000000000000000000000000000000000000000000000000 DUP2 MSTORE PUSH1 0x4 ADD PUSH2 0xBC3 SWAP1 PUSH2 0x4249 JUMP JUMPDEST PUSH1 0x40 MLOAD DUP1 SWAP2 SUB SWAP1 REVERT JUMPDEST PUSH0 PUSH1 0x5 PUSH0 DUP5 DUP2 MSTORE PUSH1 0x20 ADD SWAP1 DUP2 MSTORE PUSH1 0x20 ADD PUSH0 KECCAK256 PUSH1 0x8 ADD SLOAD EQ PUSH2 0xC22 JUMPI PUSH1 0x40 MLOAD PUSH32 0x8C379A000000000000000000000000000000000000000000000000000000000 DUP2 MSTORE PUSH1 0x4 ADD PUSH2 0xC19 SWAP1 PUSH2 0x42B1 JUMP JUMPDEST PUSH1 0x40 MLOAD DUP1 SWAP2 SUB SWAP1 REVERT JUMPDEST PUSH1 0x5 DUP1 PUSH0 DUP5 DUP2 MSTORE PUSH1 0x20 ADD SWAP1 DUP2 MSTORE PUSH1 0x20 ADD PUSH0 KECCAK256 PUSH1 0x8 ADD DUP2 SWAP1 SSTORE POP PUSH32 0x7421121A093BC9EB406A03CD9273C7EFBF9D3D438D9904850F9048ABF95BB7F4 DUP3 PUSH1 0x40 MLOAD PUSH2 0xC6A SWAP2 SWAP1 PUSH2 0x379A JUMP JUMPDEST PUSH1 0x40 MLOAD DUP1 SWAP2 SUB SWAP1 LOG1 POP POP JUMP JUMPDEST PUSH0 DUP1 DUP3 TIMESTAMP PUSH2 0xC84 SWAP2 SWAP1 PUSH2 0x42FC JUMP JUMPDEST SWAP1 POP PUSH0 PUSH2 0xC90 DUP3 PUSH2 0x3158 JUMP JUMPDEST SWAP1 POP PUSH0 PUSH1 0xC PUSH1 0x64 DUP4 DUP9 PUSH2 0xCA3 SWAP2 SWAP1 PUSH2 0x432F JUMP JUMPDEST PUSH2 0xCAD SWAP2 SWAP1 PUSH2 0x439D JUMP JUMPDEST PUSH2 0xCB7 SWAP2 SWAP1 PUSH2 0x439D JUMP JUMPDEST SWAP1 POP DUP1 SWAP4 POP POP POP POP SWAP3 SWAP2 POP POP JUMP JUMPDEST PUSH2 0xCCD PUSH2 0x319B JUMP JUMPDEST PUSH3 0xF4240 DUP2 LT ISZERO PUSH2 0xD13 JUMPI PUSH1 0x40 MLOAD PUSH32 0x8C379A000000000000000000000000000000000000000000000000000000000 DUP2 MSTORE PUSH1 0x4 ADD PUSH2 0xD0A SWAP1 PUSH2 0x443D JUMP JUMPDEST PUSH1 0x40 MLOAD DUP1 SWAP2 SUB SWAP1 REVERT JUMPDEST DUP1 PUSH1 0x1 PUSH0 CALLER PUSH20 0xFFFFFFFFFFFFFFFFFFFFFFFFFFFFFFFFFFFFFFFF AND PUSH20 0xFFFFFFFFFFFFFFFFFFFFFFFFFFFFFFFFFFFFFFFF AND DUP2 MSTORE PUSH1 0x20 ADD SWAP1 DUP2 MSTORE PUSH1 0x20 ADD PUSH0 KECCAK256 SLOAD LT ISZERO PUSH2 0xD93 JUMPI PUSH1 0x40 MLOAD PUSH32 0x8C379A000000000000000000000000000000000000000000000000000000000 DUP2 MSTORE PUSH1 0x4 ADD PUSH2 0xD8A SWAP1 PUSH2 0x44A5 JUMP JUMPDEST PUSH1 0x40 MLOAD DUP1 SWAP2 SUB SWAP1 REVERT JUMPDEST DUP1 PUSH1 0x1 PUSH0 CALLER PUSH20 0xFFFFFFFFFFFFFFFFFFFFFFFFFFFFFFFFFFFFFFFF AND PUSH20 0xFFFFFFFFFFFFFFFFFFFFFFFFFFFFFFFFFFFFFFFF AND DUP2 MSTORE PUSH1 0x20 ADD SWAP1 DUP2 MSTORE PUSH1 0x20 ADD PUSH0 KECCAK256 PUSH0 DUP3 DUP3 SLOAD PUSH2 0xDDF SWAP2 SWAP1 PUSH2 0x42FC JUMP JUMPDEST SWAP3 POP POP DUP2 SWAP1 SSTORE POP DUP1 PUSH1 0x7 PUSH0 DUP3 DUP3 SLOAD PUSH2 0xDF7 SWAP2 SWAP1 PUSH2 0x42FC JUMP JUMPDEST SWAP3 POP POP DUP2 SWAP1 SSTORE POP TIMESTAMP PUSH1 0x3 PUSH0 CALLER PUSH20 0xFFFFFFFFFFFFFFFFFFFFFFFFFFFFFFFFFFFFFFFF AND PUSH20 0xFFFFFFFFFFFFFFFFFFFFFFFFFFFFFFFFFFFFFFFF AND DUP2 MSTORE PUSH1 0x20 ADD SWAP1 DUP2 MSTORE PUSH1 0x20 ADD PUSH0 KECCAK256 DUP2 SWAP1 SSTORE POP PUSH2 0xE8C CALLER DUP3 PUSH1 0xB PUSH0 SWAP1 SLOAD SWAP1 PUSH2 0x100 EXP SWAP1 DIV PUSH20 0xFFFFFFFFFFFFFFFFFFFFFFFFFFFFFFFFFFFFFFFF AND PUSH20 0xFFFFFFFFFFFFFFFFFFFFFFFFFFFFFFFFFFFFFFFF AND PUSH2 0x31E8 SWAP1 SWAP3 SWAP2 SWAP1 PUSH4 0xFFFFFFFF AND JUMP JUMPDEST PUSH2 0xE94 PUSH2 0x3267 JUMP JUMPDEST POP JUMP JUMPDEST PUSH1 0xC PUSH4 0x1DA9C00 PUSH2 0xEA8 SWAP2 SWAP1 PUSH2 0x439D JUMP JUMPDEST DUP2 JUMP JUMPDEST PUSH1 0x9 PUSH0 SWAP1 SLOAD SWAP1 PUSH2 0x100 EXP SWAP1 DIV PUSH20 0xFFFFFFFFFFFFFFFFFFFFFFFFFFFFFFFFFFFFFFFF AND PUSH20 0xFFFFFFFFFFFFFFFFFFFFFFFFFFFFFFFFFFFFFFFF AND CALLER PUSH20 0xFFFFFFFFFFFFFFFFFFFFFFFFFFFFFFFFFFFFFFFF AND EQ PUSH2 0xF3A JUMPI PUSH1 0x40 MLOAD PUSH32 0x8C379A000000000000000000000000000000000000000000000000000000000 DUP2 MSTORE PUSH1 0x4 ADD PUSH2 0xF31 SWAP1 PUSH2 0x4533 JUMP JUMPDEST PUSH1 0x40 MLOAD DUP1 SWAP2 SUB SWAP1 REVERT JUMPDEST PUSH1 0x40 MLOAD DUP1 PUSH1 0x40 ADD PUSH1 0x40 MSTORE DUP1 PUSH1 0x11 DUP2 MSTORE PUSH1 0x20 ADD PUSH32 0x6368616E67655365636F6E6441646D696E000000000000000000000000000000 DUP2 MSTORE POP DUP1 MLOAD SWAP1 PUSH1 0x20 ADD KECCAK256 DUP3 DUP1 MLOAD SWAP1 PUSH1 0x20 ADD KECCAK256 SUB PUSH2 0xFBF JUMPI PUSH1 0x40 MLOAD PUSH32 0x8C379A000000000000000000000000000000000000000000000000000000000 DUP2 MSTORE PUSH1 0x4 ADD PUSH2 0xFB6 SWAP1 PUSH2 0x45C1 JUMP JUMPDEST PUSH1 0x40 MLOAD DUP1 SWAP2 SUB SWAP1 REVERT JUMPDEST DUP1 PUSH1 0xC DUP4 PUSH1 0x40 MLOAD PUSH2 0xFD0 SWAP2 SWAP1 PUSH2 0x41E9 JUMP JUMPDEST SWAP1 DUP2 MSTORE PUSH1 0x20 ADD PUSH1 0x40 MLOAD DUP1 SWAP2 SUB SWAP1 KECCAK256 PUSH0 PUSH2 0x100 EXP DUP2 SLOAD DUP2 PUSH1 0xFF MUL NOT AND SWAP1 DUP4 ISZERO ISZERO MUL OR SWAP1 SSTORE POP POP POP JUMP JUMPDEST PUSH1 0x8 PUSH1 0x1 SWAP1 SLOAD SWAP1 PUSH2 0x100 EXP SWAP1 DIV PUSH20 0xFFFFFFFFFFFFFFFFFFFFFFFFFFFFFFFFFFFFFFFF AND PUSH20 0xFFFFFFFFFFFFFFFFFFFFFFFFFFFFFFFFFFFFFFFF AND CALLER PUSH20 0xFFFFFFFFFFFFFFFFFFFFFFFFFFFFFFFFFFFFFFFF AND EQ PUSH2 0x1088 JUMPI PUSH1 0x40 MLOAD PUSH32 0x8C379A000000000000000000000000000000000000000000000000000000000 DUP2 MSTORE PUSH1 0x4 ADD PUSH2 0x107F SWAP1 PUSH2 0x4103 JUMP JUMPDEST PUSH1 0x40 MLOAD DUP1 SWAP2 SUB SWAP1 REVERT JUMPDEST PUSH1 0x40 MLOAD DUP1 PUSH1 0x40 ADD PUSH1 0x40 MSTORE DUP1 PUSH1 0xC DUP2 MSTORE PUSH1 0x20 ADD PUSH32 0x7265667573655570646174650000000000000000000000000000000000000000 DUP2 MSTORE POP PUSH1 0xC DUP2 PUSH1 0x40 MLOAD PUSH2 0x10CE SWAP2 SWAP1 PUSH2 0x41E9 JUMP JUMPDEST SWAP1 DUP2 MSTORE PUSH1 0x20 ADD PUSH1 0x40 MLOAD DUP1 SWAP2 SUB SWAP1 KECCAK256 PUSH0 SWAP1 SLOAD SWAP1 PUSH2 0x100 EXP SWAP1 DIV PUSH1 0xFF AND PUSH2 0x1128 JUMPI PUSH1 0x40 MLOAD PUSH32 0x8C379A000000000000000000000000000000000000000000000000000000000 DUP2 MSTORE PUSH1 0x4 ADD PUSH2 0x111F SWAP1 PUSH2 0x4249 JUMP JUMPDEST PUSH1 0x40 MLOAD DUP1 SWAP2 SUB SWAP1 REVERT JUMPDEST PUSH1 0x4 PUSH1 0x5 PUSH0 DUP5 DUP2 MSTORE PUSH1 0x20 ADD SWAP1 DUP2 MSTORE PUSH1 0x20 ADD PUSH0 KECCAK256 PUSH1 0x8 ADD SLOAD SUB PUSH2 0x117F JUMPI PUSH1 0x40 MLOAD PUSH32 0x8C379A000000000000000000000000000000000000000000000000000000000 DUP2 MSTORE PUSH1 0x4 ADD PUSH2 0x1176 SWAP1 PUSH2 0x464F JUMP JUMPDEST PUSH1 0x40 MLOAD DUP1 SWAP2 SUB SWAP1 REVERT JUMPDEST PUSH1 0x1 PUSH1 0x5 PUSH0 DUP5 DUP2 MSTORE PUSH1 0x20 ADD SWAP1 DUP2 MSTORE PUSH1 0x20 ADD PUSH0 KECCAK256 PUSH1 0x8 ADD SLOAD SUB PUSH2 0x11D0 JUMPI PUSH1 0x40 MLOAD DUP1 PUSH1 0x20 ADD PUSH1 0x40 MSTORE DUP1 PUSH0 DUP2 MSTORE POP PUSH1 0x5 PUSH0 DUP5 DUP2 MSTORE PUSH1 0x20 ADD SWAP1 DUP2 MSTORE PUSH1 0x20 ADD PUSH0 KECCAK256 PUSH1 0x2 ADD SWAP1 DUP2 PUSH2 0x11CA SWAP2 SWAP1 PUSH2 0x3FC4 JUMP JUMPDEST POP PUSH2 0x1270 JUMP JUMPDEST PUSH1 0x2 PUSH1 0x5 PUSH0 DUP5 DUP2 MSTORE PUSH1 0x20 ADD SWAP1 DUP2 MSTORE PUSH1 0x20 ADD PUSH0 KECCAK256 PUSH1 0x8 ADD SLOAD SUB PUSH2 0x1221 JUMPI PUSH1 0x40 MLOAD DUP1 PUSH1 0x20 ADD PUSH1 0x40 MSTORE DUP1 PUSH0 DUP2 MSTORE POP PUSH1 0x5 PUSH0 DUP5 DUP2 MSTORE PUSH1 0x20 ADD SWAP1 DUP2 MSTORE PUSH1 0x20 ADD PUSH0 KECCAK256 PUSH1 0x3 ADD SWAP1 DUP2 PUSH2 0x121B SWAP2 SWAP1 PUSH2 0x3FC4 JUMP JUMPDEST POP PUSH2 0x126F JUMP JUMPDEST PUSH1 0x3 PUSH1 0x5 PUSH0 DUP5 DUP2 MSTORE PUSH1 0x20 ADD SWAP1 DUP2 MSTORE PUSH1 0x20 ADD PUSH0 KECCAK256 PUSH1 0x8 ADD SLOAD SUB PUSH2 0x126E JUMPI PUSH1 0x40 MLOAD DUP1 PUSH1 0x20 ADD PUSH1 0x40 MSTORE DUP1 PUSH0 DUP2 MSTORE POP PUSH1 0x5 PUSH0 DUP5 DUP2 MSTORE PUSH1 0x20 ADD SWAP1 DUP2 MSTORE PUSH1 0x20 ADD PUSH0 KECCAK256 PUSH1 0x4 ADD SWAP1 DUP2 PUSH2 0x126C SWAP2 SWAP1 PUSH2 0x3FC4 JUMP JUMPDEST POP JUMPDEST JUMPDEST JUMPDEST POP POP JUMP JUMPDEST PUSH1 0x7 SLOAD DUP2 JUMP JUMPDEST PUSH1 0x8 PUSH1 0x1 SWAP1 SLOAD SWAP1 PUSH2 0x100 EXP SWAP1 DIV PUSH20 0xFFFFFFFFFFFFFFFFFFFFFFFFFFFFFFFFFFFFFFFF AND PUSH20 0xFFFFFFFFFFFFFFFFFFFFFFFFFFFFFFFFFFFFFFFF AND CALLER PUSH20 0xFFFFFFFFFFFFFFFFFFFFFFFFFFFFFFFFFFFFFFFF AND EQ PUSH2 0x130A JUMPI PUSH1 0x40 MLOAD PUSH32 0x8C379A000000000000000000000000000000000000000000000000000000000 DUP2 MSTORE PUSH1 0x4 ADD PUSH2 0x1301 SWAP1 PUSH2 0x4103 JUMP JUMPDEST PUSH1 0x40 MLOAD DUP1 SWAP2 SUB SWAP1 REVERT JUMPDEST PUSH1 0x40 MLOAD DUP1 PUSH1 0x40 ADD PUSH1 0x40 MSTORE DUP1 PUSH1 0xD DUP2 MSTORE PUSH1 0x20 ADD PUSH32 0x636F6E6669726D55706461746500000000000000000000000000000000000000 DUP2 MSTORE POP PUSH1 0xC DUP2 PUSH1 0x40 MLOAD PUSH2 0x1350 SWAP2 SWAP1 PUSH2 0x41E9 JUMP JUMPDEST SWAP1 DUP2 MSTORE PUSH1 0x20 ADD PUSH1 0x40 MLOAD DUP1 SWAP2 SUB SWAP1 KECCAK256 PUSH0 SWAP1 SLOAD SWAP1 PUSH2 0x100 EXP SWAP1 DIV PUSH1 0xFF AND PUSH2 0x13AA JUMPI PUSH1 0x40 MLOAD PUSH32 0x8C379A000000000000000000000000000000000000000000000000000000000 DUP2 MSTORE PUSH1 0x4 ADD PUSH2 0x13A1 SWAP1 PUSH2 0x4249 JUMP JUMPDEST PUSH1 0x40 MLOAD DUP1 SWAP2 SUB SWAP1 REVERT JUMPDEST PUSH1 0x4 PUSH1 0x5 PUSH0 DUP5 DUP2 MSTORE PUSH1 0x20 ADD SWAP1 DUP2 MSTORE PUSH1 0x20 ADD PUSH0 KECCAK256 PUSH1 0x8 ADD SLOAD SUB PUSH2 0x1401 JUMPI PUSH1 0x40 MLOAD PUSH32 0x8C379A000000000000000000000000000000000000000000000000000000000 DUP2 MSTORE PUSH1 0x4 ADD PUSH2 0x13F8 SWAP1 PUSH2 0x464F JUMP JUMPDEST PUSH1 0x40 MLOAD DUP1 SWAP2 SUB SWAP1 REVERT JUMPDEST PUSH1 0x1 PUSH1 0x5 PUSH0 DUP5 DUP2 MSTORE PUSH1 0x20 ADD SWAP1 DUP2 MSTORE PUSH1 0x20 ADD PUSH0 KECCAK256 PUSH1 0x8 ADD SLOAD SUB PUSH2 0x143C JUMPI PUSH1 0x2 PUSH1 0x5 PUSH0 DUP5 DUP2 MSTORE PUSH1 0x20 ADD SWAP1 DUP2 MSTORE PUSH1 0x20 ADD PUSH0 KECCAK256 PUSH1 0x8 ADD DUP2 SWAP1 SSTORE POP PUSH2 0x14B0 JUMP JUMPDEST PUSH1 0x2 PUSH1 0x5 PUSH0 DUP5 DUP2 MSTORE PUSH1 0x20 ADD SWAP1 DUP2 MSTORE PUSH1 0x20 ADD PUSH0 KECCAK256 PUSH1 0x8 ADD SLOAD SUB PUSH2 0x1477 JUMPI PUSH1 0x3 PUSH1 0x5 PUSH0 DUP5 DUP2 MSTORE PUSH1 0x20 ADD SWAP1 DUP2 MSTORE PUSH1 0x20 ADD PUSH0 KECCAK256 PUSH1 0x8 ADD DUP2 SWAP1 SSTORE POP PUSH2 0x14AF JUMP JUMPDEST PUSH1 0x3 PUSH1 0x5 PUSH0 DUP5 DUP2 MSTORE PUSH1 0x20 ADD SWAP1 DUP2 MSTORE PUSH1 0x20 ADD PUSH0 KECCAK256 PUSH1 0x8 ADD SLOAD SUB PUSH2 0x14AE JUMPI PUSH1 0x4 PUSH1 0x5 PUSH0 DUP5 DUP2 MSTORE PUSH1 0x20 ADD SWAP1 DUP2 MSTORE PUSH1 0x20 ADD PUSH0 KECCAK256 PUSH1 0x8 ADD DUP2 SWAP1 SSTORE POP JUMPDEST JUMPDEST JUMPDEST PUSH2 0x3E8 PUSH1 0x5 PUSH0 DUP5 DUP2 MSTORE PUSH1 0x20 ADD SWAP1 DUP2 MSTORE PUSH1 0x20 ADD PUSH0 KECCAK256 PUSH1 0xA ADD PUSH0 DUP3 DUP3 SLOAD PUSH2 0x14D5 SWAP2 SWAP1 PUSH2 0x466D JUMP JUMPDEST SWAP3 POP POP DUP2 SWAP1 SSTORE POP POP POP JUMP JUMPDEST PUSH0 PUSH1 0x7 SLOAD SWAP1 POP SWAP1 JUMP JUMPDEST PUSH4 0x1DA9C00 DUP2 JUMP JUMPDEST PUSH0 DUP1 PUSH1 0x1 PUSH0 DUP5 PUSH20 0xFFFFFFFFFFFFFFFFFFFFFFFFFFFFFFFFFFFFFFFF AND PUSH20 0xFFFFFFFFFFFFFFFFFFFFFFFFFFFFFFFFFFFFFFFF AND DUP2 MSTORE PUSH1 0x20 ADD SWAP1 DUP2 MSTORE PUSH1 0x20 ADD PUSH0 KECCAK256 SLOAD SUB PUSH2 0x153E JUMPI PUSH0 SWAP1 POP PUSH2 0x16CE JUMP JUMPDEST PUSH0 PUSH1 0x3 PUSH0 DUP5 PUSH20 0xFFFFFFFFFFFFFFFFFFFFFFFFFFFFFFFFFFFFFFFF AND PUSH20 0xFFFFFFFFFFFFFFFFFFFFFFFFFFFFFFFFFFFFFFFF AND DUP2 MSTORE PUSH1 0x20 ADD SWAP1 DUP2 MSTORE PUSH1 0x20 ADD PUSH0 KECCAK256 SLOAD TIMESTAMP PUSH2 0x1588 SWAP2 SWAP1 PUSH2 0x42FC JUMP JUMPDEST SWAP1 POP PUSH1 0xC PUSH4 0x1DA9C00 PUSH2 0x159B SWAP2 SWAP1 PUSH2 0x439D JUMP JUMPDEST DUP2 LT ISZERO PUSH2 0x15AB JUMPI PUSH0 SWAP2 POP POP PUSH2 0x16CE JUMP JUMPDEST PUSH0 DUP1 PUSH1 0xC PUSH4 0x1DA9C00 PUSH2 0x15BE SWAP2 SWAP1 PUSH2 0x439D JUMP JUMPDEST DUP4 PUSH2 0x15C9 SWAP2 SWAP1 PUSH2 0x439D JUMP JUMPDEST SWAP1 POP PUSH0 JUMPDEST DUP2 DUP2 LT ISZERO PUSH2 0x16A9 JUMPI PUSH0 PUSH1 0xC PUSH4 0x1DA9C00 PUSH2 0x15E7 SWAP2 SWAP1 PUSH2 0x439D JUMP JUMPDEST DUP3 PUSH2 0x15F2 SWAP2 SWAP1 PUSH2 0x432F JUMP JUMPDEST PUSH1 0x3 PUSH0 DUP10 PUSH20 0xFFFFFFFFFFFFFFFFFFFFFFFFFFFFFFFFFFFFFFFF AND PUSH20 0xFFFFFFFFFFFFFFFFFFFFFFFFFFFFFFFFFFFFFFFF AND DUP2 MSTORE PUSH1 0x20 ADD SWAP1 DUP2 MSTORE PUSH1 0x20 ADD PUSH0 KECCAK256 SLOAD PUSH2 0x163A SWAP2 SWAP1 PUSH2 0x466D JUMP JUMPDEST SWAP1 POP PUSH0 PUSH2 0x1684 PUSH1 0x1 PUSH0 DUP11 PUSH20 0xFFFFFFFFFFFFFFFFFFFFFFFFFFFFFFFFFFFFFFFF AND PUSH20 0xFFFFFFFFFFFFFFFFFFFFFFFFFFFFFFFFFFFFFFFF AND DUP2 MSTORE PUSH1 0x20 ADD SWAP1 DUP2 MSTORE PUSH1 0x20 ADD PUSH0 KECCAK256 SLOAD DUP4 PUSH2 0xC76 JUMP JUMPDEST SWAP1 POP DUP1 DUP6 PUSH2 0x1692 SWAP2 SWAP1 PUSH2 0x466D JUMP JUMPDEST SWAP5 POP POP POP DUP1 DUP1 PUSH2 0x16A1 SWAP1 PUSH2 0x46A0 JUMP JUMPDEST SWAP2 POP POP PUSH2 0x15CD JUMP JUMPDEST POP PUSH0 PUSH1 0x64 PUSH1 0x3C DUP5 PUSH2 0x16BA SWAP2 SWAP1 PUSH2 0x432F JUMP JUMPDEST PUSH2 0x16C4 SWAP2 SWAP1 PUSH2 0x439D JUMP JUMPDEST SWAP1 POP DUP1 SWAP5 POP POP POP POP POP JUMPDEST SWAP2 SWAP1 POP JUMP JUMPDEST PUSH1 0xC DUP2 DUP1 MLOAD PUSH1 0x20 DUP2 ADD DUP3 ADD DUP1 MLOAD DUP5 DUP3 MSTORE PUSH1 0x20 DUP4 ADD PUSH1 0x20 DUP6 ADD KECCAK256 DUP2 DUP4 MSTORE DUP1 SWAP6 POP POP POP POP POP POP PUSH0 SWAP2 POP SLOAD SWAP1 PUSH2 0x100 EXP SWAP1 DIV PUSH1 0xFF AND DUP2 JUMP JUMPDEST PUSH1 0x6 SLOAD DUP2 JUMP JUMPDEST PUSH0 DUP1 PUSH0 SWAP1 POP JUMPDEST PUSH1 0x6 SLOAD DUP2 LT ISZERO PUSH2 0x17D3 JUMPI DUP3 PUSH20 0xFFFFFFFFFFFFFFFFFFFFFFFFFFFFFFFFFFFFFFFF AND PUSH1 0x5 PUSH0 DUP4 DUP2 MSTORE PUSH1 0x20 ADD SWAP1 DUP2 MSTORE PUSH1 0x20 ADD PUSH0 KECCAK256 PUSH1 0x7 ADD PUSH0 SWAP1 SLOAD SWAP1 PUSH2 0x100 EXP SWAP1 DIV PUSH20 0xFFFFFFFFFFFFFFFFFFFFFFFFFFFFFFFFFFFFFFFF AND PUSH20 0xFFFFFFFFFFFFFFFFFFFFFFFFFFFFFFFFFFFFFFFF AND EQ DUP1 ISZERO PUSH2 0x17B1 JUMPI POP PUSH0 PUSH1 0x5 DUP2 GT ISZERO PUSH2 0x179A JUMPI PUSH2 0x1799 PUSH2 0x46E7 JUMP JUMPDEST JUMPDEST PUSH1 0x5 PUSH0 DUP4 DUP2 MSTORE PUSH1 0x20 ADD SWAP1 DUP2 MSTORE PUSH1 0x20 ADD PUSH0 KECCAK256 PUSH1 0x8 ADD SLOAD EQ JUMPDEST ISZERO PUSH2 0x17C0 JUMPI PUSH1 0x1 SWAP2 POP POP PUSH2 0x17D8 JUMP JUMPDEST DUP1 DUP1 PUSH2 0x17CB SWAP1 PUSH2 0x46A0 JUMP JUMPDEST SWAP2 POP POP PUSH2 0x1714 JUMP JUMPDEST POP PUSH0 SWAP1 POP JUMPDEST SWAP2 SWAP1 POP JUMP JUMPDEST PUSH2 0x17E5 PUSH2 0x319B JUMP JUMPDEST PUSH0 DUP2 GT PUSH2 0x1827 JUMPI PUSH1 0x40 MLOAD PUSH32 0x8C379A000000000000000000000000000000000000000000000000000000000 DUP2 MSTORE PUSH1 0x4 ADD PUSH2 0x181E SWAP1 PUSH2 0x475E JUMP JUMPDEST PUSH1 0x40 MLOAD DUP1 SWAP2 SUB SWAP1 REVERT JUMPDEST DUP1 PUSH1 0x2 PUSH0 CALLER PUSH20 0xFFFFFFFFFFFFFFFFFFFFFFFFFFFFFFFFFFFFFFFF AND PUSH20 0xFFFFFFFFFFFFFFFFFFFFFFFFFFFFFFFFFFFFFFFF AND DUP2 MSTORE PUSH1 0x20 ADD SWAP1 DUP2 MSTORE PUSH1 0x20 ADD PUSH0 KECCAK256 SLOAD LT ISZERO PUSH2 0x18A7 JUMPI PUSH1 0x40 MLOAD PUSH32 0x8C379A000000000000000000000000000000000000000000000000000000000 DUP2 MSTORE PUSH1 0x4 ADD PUSH2 0x189E SWAP1 PUSH2 0x47C6 JUMP JUMPDEST PUSH1 0x40 MLOAD DUP1 SWAP2 SUB SWAP1 REVERT JUMPDEST DUP1 PUSH1 0x2 PUSH0 CALLER PUSH20 0xFFFFFFFFFFFFFFFFFFFFFFFFFFFFFFFFFFFFFFFF AND PUSH20 0xFFFFFFFFFFFFFFFFFFFFFFFFFFFFFFFFFFFFFFFF AND DUP2 MSTORE PUSH1 0x20 ADD SWAP1 DUP2 MSTORE PUSH1 0x20 ADD PUSH0 KECCAK256 PUSH0 DUP3 DUP3 SLOAD PUSH2 0x18F3 SWAP2 SWAP1 PUSH2 0x42FC JUMP JUMPDEST SWAP3 POP POP DUP2 SWAP1 SSTORE POP DUP1 PUSH1 0x5 PUSH0 DUP5 DUP2 MSTORE PUSH1 0x20 ADD SWAP1 DUP2 MSTORE PUSH1 0x20 ADD PUSH0 KECCAK256 PUSH1 0xA ADD PUSH0 DUP3 DUP3 SLOAD PUSH2 0x191D SWAP2 SWAP1 PUSH2 0x466D JUMP JUMPDEST SWAP3 POP POP DUP2 SWAP1 SSTORE POP PUSH2 0x192C PUSH2 0x3267 JUMP JUMPDEST POP POP JUMP JUMPDEST PUSH2 0x1938 PUSH2 0x319B JUMP JUMPDEST PUSH1 0x8 PUSH0 SWAP1 SLOAD SWAP1 PUSH2 0x100 EXP SWAP1 DIV PUSH1 0xFF AND PUSH2 0x1986 JUMPI PUSH1 0x40 MLOAD PUSH32 0x8C379A000000000000000000000000000000000000000000000000000000000 DUP2 MSTORE PUSH1 0x4 ADD PUSH2 0x197D SWAP1 PUSH2 0x482E JUMP JUMPDEST PUSH1 0x40 MLOAD DUP1 SWAP2 SUB SWAP1 REVERT JUMPDEST PUSH3 0xF4240 DUP2 LT ISZERO PUSH2 0x19CC JUMPI PUSH1 0x40 MLOAD PUSH32 0x8C379A000000000000000000000000000000000000000000000000000000000 DUP2 MSTORE PUSH1 0x4 ADD PUSH2 0x19C3 SWAP1 PUSH2 0x4896 JUMP JUMPDEST PUSH1 0x40 MLOAD DUP1 SWAP2 SUB SWAP1 REVERT JUMPDEST PUSH2 0x1A1A CALLER ADDRESS DUP4 PUSH1 0xB PUSH0 SWAP1 SLOAD SWAP1 PUSH2 0x100 EXP SWAP1 DIV PUSH20 0xFFFFFFFFFFFFFFFFFFFFFFFFFFFFFFFFFFFFFFFF AND PUSH20 0xFFFFFFFFFFFFFFFFFFFFFFFFFFFFFFFFFFFFFFFF AND PUSH2 0x3270 SWAP1 SWAP4 SWAP3 SWAP2 SWAP1 PUSH4 0xFFFFFFFF AND JUMP JUMPDEST DUP1 PUSH1 0x1 PUSH0 CALLER PUSH20 0xFFFFFFFFFFFFFFFFFFFFFFFFFFFFFFFFFFFFFFFF AND PUSH20 0xFFFFFFFFFFFFFFFFFFFFFFFFFFFFFFFFFFFFFFFF AND DUP2 MSTORE PUSH1 0x20 ADD SWAP1 DUP2 MSTORE PUSH1 0x20 ADD PUSH0 KECCAK256 PUSH0 DUP3 DUP3 SLOAD PUSH2 0x1A66 SWAP2 SWAP1 PUSH2 0x466D JUMP JUMPDEST SWAP3 POP POP DUP2 SWAP1 SSTORE POP DUP1 PUSH1 0x7 PUSH0 DUP3 DUP3 SLOAD PUSH2 0x1A7E SWAP2 SWAP1 PUSH2 0x466D JUMP JUMPDEST SWAP3 POP POP DUP2 SWAP1 SSTORE POP PUSH0 PUSH1 0x3 PUSH0 CALLER PUSH20 0xFFFFFFFFFFFFFFFFFFFFFFFFFFFFFFFFFFFFFFFF AND PUSH20 0xFFFFFFFFFFFFFFFFFFFFFFFFFFFFFFFFFFFFFFFF AND DUP2 MSTORE PUSH1 0x20 ADD SWAP1 DUP2 MSTORE PUSH1 0x20 ADD PUSH0 KECCAK256 SLOAD SUB PUSH2 0x1B0C JUMPI TIMESTAMP PUSH1 0x4 PUSH0 CALLER PUSH20 0xFFFFFFFFFFFFFFFFFFFFFFFFFFFFFFFFFFFFFFFF AND PUSH20 0xFFFFFFFFFFFFFFFFFFFFFFFFFFFFFFFFFFFFFFFF AND DUP2 MSTORE PUSH1 0x20 ADD SWAP1 DUP2 MSTORE PUSH1 0x20 ADD PUSH0 KECCAK256 DUP2 SWAP1 SSTORE POP JUMPDEST TIMESTAMP PUSH1 0x3 PUSH0 CALLER PUSH20 0xFFFFFFFFFFFFFFFFFFFFFFFFFFFFFFFFFFFFFFFF AND PUSH20 0xFFFFFFFFFFFFFFFFFFFFFFFFFFFFFFFFFFFFFFFF AND DUP2 MSTORE PUSH1 0x20 ADD SWAP1 DUP2 MSTORE PUSH1 0x20 ADD PUSH0 KECCAK256 DUP2 SWAP1 SSTORE POP PUSH2 0x1B56 PUSH2 0x3267 JUMP JUMPDEST POP JUMP JUMPDEST PUSH2 0x1B61 PUSH2 0x319B JUMP JUMPDEST PUSH1 0x8 PUSH0 SWAP1 SLOAD SWAP1 PUSH2 0x100 EXP SWAP1 DIV PUSH1 0xFF AND PUSH2 0x1BAF JUMPI PUSH1 0x40 MLOAD PUSH32 0x8C379A000000000000000000000000000000000000000000000000000000000 DUP2 MSTORE PUSH1 0x4 ADD PUSH2 0x1BA6 SWAP1 PUSH2 0x482E JUMP JUMPDEST PUSH1 0x40 MLOAD DUP1 SWAP2 SUB SWAP1 REVERT JUMPDEST PUSH5 0x2540BE400 PUSH1 0xB PUSH0 SWAP1 SLOAD SWAP1 PUSH2 0x100 EXP SWAP1 DIV PUSH20 0xFFFFFFFFFFFFFFFFFFFFFFFFFFFFFFFFFFFFFFFF AND PUSH20 0xFFFFFFFFFFFFFFFFFFFFFFFFFFFFFFFFFFFFFFFF AND PUSH4 0x70A08231 CALLER PUSH1 0x40 MLOAD DUP3 PUSH4 0xFFFFFFFF AND PUSH1 0xE0 SHL DUP2 MSTORE PUSH1 0x4 ADD PUSH2 0x1C0F SWAP2 SWAP1 PUSH2 0x3A7A JUMP JUMPDEST PUSH1 0x20 PUSH1 0x40 MLOAD DUP1 DUP4 SUB DUP2 DUP7 GAS STATICCALL ISZERO DUP1 ISZERO PUSH2 0x1C2A JUMPI RETURNDATASIZE PUSH0 DUP1 RETURNDATACOPY RETURNDATASIZE PUSH0 REVERT JUMPDEST POP POP POP POP PUSH1 0x40 MLOAD RETURNDATASIZE PUSH1 0x1F NOT PUSH1 0x1F DUP3 ADD AND DUP3 ADD DUP1 PUSH1 0x40 MSTORE POP DUP2 ADD SWAP1 PUSH2 0x1C4E SWAP2 SWAP1 PUSH2 0x48C8 JUMP JUMPDEST LT ISZERO PUSH2 0x1C8F JUMPI PUSH1 0x40 MLOAD PUSH32 0x8C379A000000000000000000000000000000000000000000000000000000000 DUP2 MSTORE PUSH1 0x4 ADD PUSH2 0x1C86 SWAP1 PUSH2 0x4963 JUMP JUMPDEST PUSH1 0x40 MLOAD DUP1 SWAP2 SUB SWAP1 REVERT JUMPDEST PUSH2 0x1CE2 CALLER ADDRESS PUSH5 0x2540BE400 PUSH1 0xB PUSH0 SWAP1 SLOAD SWAP1 PUSH2 0x100 EXP SWAP1 DIV PUSH20 0xFFFFFFFFFFFFFFFFFFFFFFFFFFFFFFFFFFFFFFFF AND PUSH20 0xFFFFFFFFFFFFFFFFFFFFFFFFFFFFFFFFFFFFFFFF AND PUSH2 0x3270 SWAP1 SWAP4 SWAP3 SWAP2 SWAP1 PUSH4 0xFFFFFFFF AND JUMP JUMPDEST PUSH1 0x40 MLOAD DUP1 PUSH2 0x160 ADD PUSH1 0x40 MSTORE DUP1 DUP6 DUP2 MSTORE PUSH1 0x20 ADD DUP5 DUP2 MSTORE PUSH1 0x20 ADD PUSH1 0x40 MLOAD DUP1 PUSH1 0x20 ADD PUSH1 0x40 MSTORE DUP1 PUSH0 DUP2 MSTORE POP DUP2 MSTORE PUSH1 0x20 ADD PUSH1 0x40 MLOAD DUP1 PUSH1 0x20 ADD PUSH1 0x40 MSTORE DUP1 PUSH0 DUP2 MSTORE POP DUP2 MSTORE PUSH1 0x20 ADD PUSH1 0x40 MLOAD DUP1 PUSH1 0x20 ADD PUSH1 0x40 MSTORE DUP1 PUSH0 DUP2 MSTORE POP DUP2 MSTORE PUSH1 0x20 ADD DUP4 DUP2 MSTORE PUSH1 0x20 ADD DUP3 DUP2 MSTORE PUSH1 0x20 ADD CALLER PUSH20 0xFFFFFFFFFFFFFFFFFFFFFFFFFFFFFFFFFFFFFFFF AND DUP2 MSTORE PUSH1 0x20 ADD PUSH0 DUP2 MSTORE PUSH1 0x20 ADD TIMESTAMP DUP2 MSTORE PUSH1 0x20 ADD PUSH1 0x1 DUP2 MSTORE POP PUSH1 0x5 PUSH0 PUSH1 0x6 SLOAD DUP2 MSTORE PUSH1 0x20 ADD SWAP1 DUP2 MSTORE PUSH1 0x20 ADD PUSH0 KECCAK256 PUSH0 DUP3 ADD MLOAD DUP2 PUSH0 ADD SWAP1 DUP2 PUSH2 0x1D95 SWAP2 SWAP1 PUSH2 0x3FC4 JUMP JUMPDEST POP PUSH1 0x20 DUP3 ADD MLOAD DUP2 PUSH1 0x1 ADD SWAP1 DUP2 PUSH2 0x1DAB SWAP2 SWAP1 PUSH2 0x3FC4 JUMP JUMPDEST POP PUSH1 0x40 DUP3 ADD MLOAD DUP2 PUSH1 0x2 ADD SWAP1 DUP2 PUSH2 0x1DC1 SWAP2 SWAP1 PUSH2 0x3FC4 JUMP JUMPDEST POP PUSH1 0x60 DUP3 ADD MLOAD DUP2 PUSH1 0x3 ADD SWAP1 DUP2 PUSH2 0x1DD7 SWAP2 SWAP1 PUSH2 0x3FC4 JUMP JUMPDEST POP PUSH1 0x80 DUP3 ADD MLOAD DUP2 PUSH1 0x4 ADD SWAP1 DUP2 PUSH2 0x1DED SWAP2 SWAP1 PUSH2 0x3FC4 JUMP JUMPDEST POP PUSH1 0xA0 DUP3 ADD MLOAD DUP2 PUSH1 0x5 ADD SWAP1 DUP2 PUSH2 0x1E03 SWAP2 SWAP1 PUSH2 0x3FC4 JUMP JUMPDEST POP PUSH1 0xC0 DUP3 ADD MLOAD DUP2 PUSH1 0x6 ADD SWAP1 DUP2 PUSH2 0x1E19 SWAP2 SWAP1 PUSH2 0x3FC4 JUMP JUMPDEST POP PUSH1 0xE0 DUP3 ADD MLOAD DUP2 PUSH1 0x7 ADD PUSH0 PUSH2 0x100 EXP DUP2 SLOAD DUP2 PUSH20 0xFFFFFFFFFFFFFFFFFFFFFFFFFFFFFFFFFFFFFFFF MUL NOT AND SWAP1 DUP4 PUSH20 0xFFFFFFFFFFFFFFFFFFFFFFFFFFFFFFFFFFFFFFFF AND MUL OR SWAP1 SSTORE POP PUSH2 0x100 DUP3 ADD MLOAD DUP2 PUSH1 0x8 ADD SSTORE PUSH2 0x120 DUP3 ADD MLOAD DUP2 PUSH1 0x9 ADD SSTORE PUSH2 0x140 DUP3 ADD MLOAD DUP2 PUSH1 0xA ADD SSTORE SWAP1 POP POP PUSH32 0xF0D06E2E518A804C9A10FA68CAB030EDCF83B96217600C6415D780008923FEF6 PUSH1 0x6 SLOAD CALLER PUSH1 0x40 MLOAD PUSH2 0x1EB7 SWAP3 SWAP2 SWAP1 PUSH2 0x4981 JUMP JUMPDEST PUSH1 0x40 MLOAD DUP1 SWAP2 SUB SWAP1 LOG1 PUSH1 0x6 PUSH0 DUP2 SLOAD DUP1 SWAP3 SWAP2 SWAP1 PUSH2 0x1ED1 SWAP1 PUSH2 0x46A0 JUMP JUMPDEST SWAP2 SWAP1 POP SSTORE POP PUSH2 0x1EDE PUSH2 0x3267 JUMP JUMPDEST POP POP POP POP JUMP JUMPDEST PUSH3 0xF4240 DUP2 JUMP JUMPDEST PUSH1 0xA PUSH0 SWAP1 SLOAD SWAP1 PUSH2 0x100 EXP SWAP1 DIV PUSH20 0xFFFFFFFFFFFFFFFFFFFFFFFFFFFFFFFFFFFFFFFF AND DUP2 JUMP JUMPDEST PUSH1 0xA PUSH0 SWAP1 SLOAD SWAP1 PUSH2 0x100 EXP SWAP1 DIV PUSH20 0xFFFFFFFFFFFFFFFFFFFFFFFFFFFFFFFFFFFFFFFF AND PUSH20 0xFFFFFFFFFFFFFFFFFFFFFFFFFFFFFFFFFFFFFFFF AND CALLER PUSH20 0xFFFFFFFFFFFFFFFFFFFFFFFFFFFFFFFFFFFFFFFF AND EQ PUSH2 0x1F9F JUMPI PUSH1 0x40 MLOAD PUSH32 0x8C379A000000000000000000000000000000000000000000000000000000000 DUP2 MSTORE PUSH1 0x4 ADD PUSH2 0x1F96 SWAP1 PUSH2 0x4A18 JUMP JUMPDEST PUSH1 0x40 MLOAD DUP1 SWAP2 SUB SWAP1 REVERT JUMPDEST PUSH1 0x40 MLOAD DUP1 PUSH1 0x40 ADD PUSH1 0x40 MSTORE DUP1 PUSH1 0xB DUP2 MSTORE PUSH1 0x20 ADD PUSH32 0x6368616E676541646D696E000000000000000000000000000000000000000000 DUP2 MSTORE POP PUSH1 0xC DUP2 PUSH1 0x40 MLOAD PUSH2 0x1FE5 SWAP2 SWAP1 PUSH2 0x41E9 JUMP JUMPDEST SWAP1 DUP2 MSTORE PUSH1 0x20 ADD PUSH1 0x40 MLOAD DUP1 SWAP2 SUB SWAP1 KECCAK256 PUSH0 SWAP1 SLOAD SWAP1 PUSH2 0x100 EXP SWAP1 DIV PUSH1 0xFF AND PUSH2 0x203F JUMPI PUSH1 0x40 MLOAD PUSH32 0x8C379A000000000000000000000000000000000000000000000000000000000 DUP2 MSTORE PUSH1 0x4 ADD PUSH2 0x2036 SWAP1 PUSH2 0x4249 JUMP JUMPDEST PUSH1 0x40 MLOAD DUP1 SWAP2 SUB SWAP1 REVERT JUMPDEST PUSH0 PUSH20 0xFFFFFFFFFFFFFFFFFFFFFFFFFFFFFFFFFFFFFFFF AND DUP3 PUSH20 0xFFFFFFFFFFFFFFFFFFFFFFFFFFFFFFFFFFFFFFFF AND SUB PUSH2 0x20AD JUMPI PUSH1 0x40 MLOAD PUSH32 0x8C379A000000000000000000000000000000000000000000000000000000000 DUP2 MSTORE PUSH1 0x4 ADD PUSH2 0x20A4 SWAP1 PUSH2 0x4A80 JUMP JUMPDEST PUSH1 0x40 MLOAD DUP1 SWAP2 SUB SWAP1 REVERT JUMPDEST DUP2 PUSH1 0x8 PUSH1 0x1 PUSH2 0x100 EXP DUP2 SLOAD DUP2 PUSH20 0xFFFFFFFFFFFFFFFFFFFFFFFFFFFFFFFFFFFFFFFF MUL NOT AND SWAP1 DUP4 PUSH20 0xFFFFFFFFFFFFFFFFFFFFFFFFFFFFFFFFFFFFFFFF AND MUL OR SWAP1 SSTORE POP POP POP JUMP JUMPDEST PUSH1 0x8 PUSH1 0x1 SWAP1 SLOAD SWAP1 PUSH2 0x100 EXP SWAP1 DIV PUSH20 0xFFFFFFFFFFFFFFFFFFFFFFFFFFFFFFFFFFFFFFFF AND PUSH20 0xFFFFFFFFFFFFFFFFFFFFFFFFFFFFFFFFFFFFFFFF AND CALLER PUSH20 0xFFFFFFFFFFFFFFFFFFFFFFFFFFFFFFFFFFFFFFFF AND EQ PUSH2 0x2182 JUMPI PUSH1 0x40 MLOAD PUSH32 0x8C379A000000000000000000000000000000000000000000000000000000000 DUP2 MSTORE PUSH1 0x4 ADD PUSH2 0x2179 SWAP1 PUSH2 0x4103 JUMP JUMPDEST PUSH1 0x40 MLOAD DUP1 SWAP2 SUB SWAP1 REVERT JUMPDEST PUSH1 0x8 PUSH0 SWAP1 SLOAD SWAP1 PUSH2 0x100 EXP SWAP1 DIV PUSH1 0xFF AND ISZERO PUSH1 0x8 PUSH0 PUSH2 0x100 EXP DUP2 SLOAD DUP2 PUSH1 0xFF MUL NOT AND SWAP1 DUP4 ISZERO ISZERO MUL OR SWAP1 SSTORE POP JUMP JUMPDEST PUSH1 0x8 PUSH1 0x1 SWAP1 SLOAD SWAP1 PUSH2 0x100 EXP SWAP1 DIV PUSH20 0xFFFFFFFFFFFFFFFFFFFFFFFFFFFFFFFFFFFFFFFF AND PUSH20 0xFFFFFFFFFFFFFFFFFFFFFFFFFFFFFFFFFFFFFFFF AND CALLER PUSH20 0xFFFFFFFFFFFFFFFFFFFFFFFFFFFFFFFFFFFFFFFF AND EQ PUSH2 0x223C JUMPI PUSH1 0x40 MLOAD PUSH32 0x8C379A000000000000000000000000000000000000000000000000000000000 DUP2 MSTORE PUSH1 0x4 ADD PUSH2 0x2233 SWAP1 PUSH2 0x4103 JUMP JUMPDEST PUSH1 0x40 MLOAD DUP1 SWAP2 SUB SWAP1 REVERT JUMPDEST PUSH1 0x40 MLOAD DUP1 PUSH1 0x40 ADD PUSH1 0x40 MSTORE DUP1 PUSH1 0xD DUP2 MSTORE PUSH1 0x20 ADD PUSH32 0x72656D6F7665456C656D656E7400000000000000000000000000000000000000 DUP2 MSTORE POP PUSH1 0xC DUP2 PUSH1 0x40 MLOAD PUSH2 0x2282 SWAP2 SWAP1 PUSH2 0x41E9 JUMP JUMPDEST SWAP1 DUP2 MSTORE PUSH1 0x20 ADD PUSH1 0x40 MLOAD DUP1 SWAP2 SUB SWAP1 KECCAK256 PUSH0 SWAP1 SLOAD SWAP1 PUSH2 0x100 EXP SWAP1 DIV PUSH1 0xFF AND PUSH2 0x22DC JUMPI PUSH1 0x40 MLOAD PUSH32 0x8C379A000000000000000000000000000000000000000000000000000000000 DUP2 MSTORE PUSH1 0x4 ADD PUSH2 0x22D3 SWAP1 PUSH2 0x4249 JUMP JUMPDEST PUSH1 0x40 MLOAD DUP1 SWAP2 SUB SWAP1 REVERT JUMPDEST PUSH1 0x5 DUP1 PUSH0 DUP5 DUP2 MSTORE PUSH1 0x20 ADD SWAP1 DUP2 MSTORE PUSH1 0x20 ADD PUSH0 KECCAK256 PUSH1 0x8 ADD DUP2 SWAP1 SSTORE POP PUSH32 0xCEC9CDFF740B6D842DF3489C0DCAFE7E1592ACFCDAE1E8E5DAED0378935144AA DUP3 PUSH1 0x40 MLOAD PUSH2 0x2324 SWAP2 SWAP1 PUSH2 0x379A JUMP JUMPDEST PUSH1 0x40 MLOAD DUP1 SWAP2 SUB SWAP1 LOG1 POP POP JUMP JUMPDEST CALLER PUSH20 0xFFFFFFFFFFFFFFFFFFFFFFFFFFFFFFFFFFFFFFFF AND PUSH1 0x5 PUSH0 DUP5 DUP2 MSTORE PUSH1 0x20 ADD SWAP1 DUP2 MSTORE PUSH1 0x20 ADD PUSH0 KECCAK256 PUSH1 0x7 ADD PUSH0 SWAP1 SLOAD SWAP1 PUSH2 0x100 EXP SWAP1 DIV PUSH20 0xFFFFFFFFFFFFFFFFFFFFFFFFFFFFFFFFFFFFFFFF AND PUSH20 0xFFFFFFFFFFFFFFFFFFFFFFFFFFFFFFFFFFFFFFFF AND EQ PUSH2 0x23D1 JUMPI PUSH1 0x40 MLOAD PUSH32 0x8C379A000000000000000000000000000000000000000000000000000000000 DUP2 MSTORE PUSH1 0x4 ADD PUSH2 0x23C8 SWAP1 PUSH2 0x3DB5 JUMP JUMPDEST PUSH1 0x40 MLOAD DUP1 SWAP2 SUB SWAP1 REVERT JUMPDEST DUP1 PUSH1 0x5 PUSH0 DUP5 DUP2 MSTORE PUSH1 0x20 ADD SWAP1 DUP2 MSTORE PUSH1 0x20 ADD PUSH0 KECCAK256 PUSH1 0x2 ADD SWAP1 DUP2 PUSH2 0x23F2 SWAP2 SWAP1 PUSH2 0x3FC4 JUMP JUMPDEST POP TIMESTAMP PUSH1 0x5 PUSH0 DUP5 DUP2 MSTORE PUSH1 0x20 ADD SWAP1 DUP2 MSTORE PUSH1 0x20 ADD PUSH0 KECCAK256 PUSH1 0x9 ADD DUP2 SWAP1 SSTORE POP POP POP JUMP JUMPDEST PUSH1 0x2 PUSH1 0x20 MSTORE DUP1 PUSH0 MSTORE PUSH1 0x40 PUSH0 KECCAK256 PUSH0 SWAP2 POP SWAP1 POP SLOAD DUP2 JUMP JUMPDEST PUSH5 0x2540BE400 DUP2 JUMP JUMPDEST CALLER PUSH20 0xFFFFFFFFFFFFFFFFFFFFFFFFFFFFFFFFFFFFFFFF AND PUSH1 0x5 PUSH0 DUP5 DUP2 MSTORE PUSH1 0x20 ADD SWAP1 DUP2 MSTORE PUSH1 0x20 ADD PUSH0 KECCAK256 PUSH1 0x7 ADD PUSH0 SWAP1 SLOAD SWAP1 PUSH2 0x100 EXP SWAP1 DIV PUSH20 0xFFFFFFFFFFFFFFFFFFFFFFFFFFFFFFFFFFFFFFFF AND PUSH20 0xFFFFFFFFFFFFFFFFFFFFFFFFFFFFFFFFFFFFFFFF AND EQ PUSH2 0x24CF JUMPI PUSH1 0x40 MLOAD PUSH32 0x8C379A000000000000000000000000000000000000000000000000000000000 DUP2 MSTORE PUSH1 0x4 ADD PUSH2 0x24C6 SWAP1 PUSH2 0x3DB5 JUMP JUMPDEST PUSH1 0x40 MLOAD DUP1 SWAP2 SUB SWAP1 REVERT JUMPDEST DUP1 PUSH1 0x5 PUSH0 DUP5 DUP2 MSTORE PUSH1 0x20 ADD SWAP1 DUP2 MSTORE PUSH1 0x20 ADD PUSH0 KECCAK256 PUSH1 0x4 ADD SWAP1 DUP2 PUSH2 0x24F0 SWAP2 SWAP1 PUSH2 0x3FC4 JUMP JUMPDEST POP TIMESTAMP PUSH1 0x5 PUSH0 DUP5 DUP2 MSTORE PUSH1 0x20 ADD SWAP1 DUP2 MSTORE PUSH1 0x20 ADD PUSH0 KECCAK256 PUSH1 0x9 ADD DUP2 SWAP1 SSTORE POP POP POP JUMP JUMPDEST PUSH1 0x8 PUSH1 0x1 SWAP1 SLOAD SWAP1 PUSH2 0x100 EXP SWAP1 DIV PUSH20 0xFFFFFFFFFFFFFFFFFFFFFFFFFFFFFFFFFFFFFFFF AND PUSH20 0xFFFFFFFFFFFFFFFFFFFFFFFFFFFFFFFFFFFFFFFF AND CALLER PUSH20 0xFFFFFFFFFFFFFFFFFFFFFFFFFFFFFFFFFFFFFFFF AND EQ PUSH2 0x259E JUMPI PUSH1 0x40 MLOAD PUSH32 0x8C379A000000000000000000000000000000000000000000000000000000000 DUP2 MSTORE PUSH1 0x4 ADD PUSH2 0x2595 SWAP1 PUSH2 0x4103 JUMP JUMPDEST PUSH1 0x40 MLOAD DUP1 SWAP2 SUB SWAP1 REVERT JUMPDEST PUSH1 0x40 MLOAD DUP1 PUSH1 0x40 ADD PUSH1 0x40 MSTORE DUP1 PUSH1 0xE DUP2 MSTORE PUSH1 0x20 ADD PUSH32 0x617070726F7665456C656D656E74000000000000000000000000000000000000 DUP2 MSTORE POP PUSH1 0xC DUP2 PUSH1 0x40 MLOAD PUSH2 0x25E4 SWAP2 SWAP1 PUSH2 0x41E9 JUMP JUMPDEST SWAP1 DUP2 MSTORE PUSH1 0x20 ADD PUSH1 0x40 MLOAD DUP1 SWAP2 SUB SWAP1 KECCAK256 PUSH0 SWAP1 SLOAD SWAP1 PUSH2 0x100 EXP SWAP1 DIV PUSH1 0xFF AND PUSH2 0x263E JUMPI PUSH1 0x40 MLOAD PUSH32 0x8C379A000000000000000000000000000000000000000000000000000000000 DUP2 MSTORE PUSH1 0x4 ADD PUSH2 0x2635 SWAP1 PUSH2 0x4249 JUMP JUMPDEST PUSH1 0x40 MLOAD DUP1 SWAP2 SUB SWAP1 REVERT JUMPDEST PUSH0 PUSH1 0x5 PUSH0 DUP5 DUP2 MSTORE PUSH1 0x20 ADD SWAP1 DUP2 MSTORE PUSH1 0x20 ADD PUSH0 KECCAK256 PUSH1 0x8 ADD SLOAD EQ PUSH2 0x2694 JUMPI PUSH1 0x40 MLOAD PUSH32 0x8C379A000000000000000000000000000000000000000000000000000000000 DUP2 MSTORE PUSH1 0x4 ADD PUSH2 0x268B SWAP1 PUSH2 0x42B1 JUMP JUMPDEST PUSH1 0x40 MLOAD DUP1 SWAP2 SUB SWAP1 REVERT JUMPDEST PUSH1 0x1 PUSH1 0x5 PUSH0 DUP5 DUP2 MSTORE PUSH1 0x20 ADD SWAP1 DUP2 MSTORE PUSH1 0x20 ADD PUSH0 KECCAK256 PUSH1 0x8 ADD DUP2 SWAP1 SSTORE POP PUSH32 0x95FCCD35767ACD458FA3AB76976172CDEFE7357A3CF51BC50B93C41C53984C1D DUP3 PUSH1 0x40 MLOAD PUSH2 0x26DD SWAP2 SWAP1 PUSH2 0x379A JUMP JUMPDEST PUSH1 0x40 MLOAD DUP1 SWAP2 SUB SWAP1 LOG1 POP POP JUMP JUMPDEST PUSH0 PUSH1 0x3 PUSH0 DUP4 PUSH20 0xFFFFFFFFFFFFFFFFFFFFFFFFFFFFFFFFFFFFFFFF AND PUSH20 0xFFFFFFFFFFFFFFFFFFFFFFFFFFFFFFFFFFFFFFFF AND DUP2 MSTORE PUSH1 0x20 ADD SWAP1 DUP2 MSTORE PUSH1 0x20 ADD PUSH0 KECCAK256 SLOAD SWAP1 POP SWAP2 SWAP1 POP JUMP JUMPDEST PUSH2 0x2737 PUSH2 0x319B JUMP JUMPDEST PUSH0 PUSH1 0x1 PUSH0 CALLER PUSH20 0xFFFFFFFFFFFFFFFFFFFFFFFFFFFFFFFFFFFFFFFF AND PUSH20 0xFFFFFFFFFFFFFFFFFFFFFFFFFFFFFFFFFFFFFFFF AND DUP2 MSTORE PUSH1 0x20 ADD SWAP1 DUP2 MSTORE PUSH1 0x20 ADD PUSH0 KECCAK256 SLOAD GT PUSH2 0x27B6 JUMPI PUSH1 0x40 MLOAD PUSH32 0x8C379A000000000000000000000000000000000000000000000000000000000 DUP2 MSTORE PUSH1 0x4 ADD PUSH2 0x27AD SWAP1 PUSH2 0x4AE8 JUMP JUMPDEST PUSH1 0x40 MLOAD DUP1 SWAP2 SUB SWAP1 REVERT JUMPDEST PUSH0 PUSH1 0x3 PUSH0 CALLER PUSH20 0xFFFFFFFFFFFFFFFFFFFFFFFFFFFFFFFFFFFFFFFF AND PUSH20 0xFFFFFFFFFFFFFFFFFFFFFFFFFFFFFFFFFFFFFFFF AND DUP2 MSTORE PUSH1 0x20 ADD SWAP1 DUP2 MSTORE PUSH1 0x20 ADD PUSH0 KECCAK256 SLOAD TIMESTAMP PUSH2 0x2800 SWAP2 SWAP1 PUSH2 0x42FC JUMP JUMPDEST SWAP1 POP PUSH1 0xC PUSH4 0x1DA9C00 PUSH2 0x2813 SWAP2 SWAP1 PUSH2 0x439D JUMP JUMPDEST DUP2 LT ISZERO PUSH2 0x2855 JUMPI PUSH1 0x40 MLOAD PUSH32 0x8C379A000000000000000000000000000000000000000000000000000000000 DUP2 MSTORE PUSH1 0x4 ADD PUSH2 0x284C SWAP1 PUSH2 0x4B50 JUMP JUMPDEST PUSH1 0x40 MLOAD DUP1 SWAP2 SUB SWAP1 REVERT JUMPDEST PUSH0 DUP1 PUSH1 0xC PUSH4 0x1DA9C00 PUSH2 0x2868 SWAP2 SWAP1 PUSH2 0x439D JUMP JUMPDEST DUP4 PUSH2 0x2873 SWAP2 SWAP1 PUSH2 0x439D JUMP JUMPDEST SWAP1 POP PUSH0 JUMPDEST DUP2 DUP2 LT ISZERO PUSH2 0x2953 JUMPI PUSH0 PUSH1 0xC PUSH4 0x1DA9C00 PUSH2 0x2891 SWAP2 SWAP1 PUSH2 0x439D JUMP JUMPDEST DUP3 PUSH2 0x289C SWAP2 SWAP1 PUSH2 0x432F JUMP JUMPDEST PUSH1 0x3 PUSH0 CALLER PUSH20 0xFFFFFFFFFFFFFFFFFFFFFFFFFFFFFFFFFFFFFFFF AND PUSH20 0xFFFFFFFFFFFFFFFFFFFFFFFFFFFFFFFFFFFFFFFF AND DUP2 MSTORE PUSH1 0x20 ADD SWAP1 DUP2 MSTORE PUSH1 0x20 ADD PUSH0 KECCAK256 SLOAD PUSH2 0x28E4 SWAP2 SWAP1 PUSH2 0x466D JUMP JUMPDEST SWAP1 POP PUSH0 PUSH2 0x292E PUSH1 0x1 PUSH0 CALLER PUSH20 0xFFFFFFFFFFFFFFFFFFFFFFFFFFFFFFFFFFFFFFFF AND PUSH20 0xFFFFFFFFFFFFFFFFFFFFFFFFFFFFFFFFFFFFFFFF AND DUP2 MSTORE PUSH1 0x20 ADD SWAP1 DUP2 MSTORE PUSH1 0x20 ADD PUSH0 KECCAK256 SLOAD DUP4 PUSH2 0xC76 JUMP JUMPDEST SWAP1 POP DUP1 DUP6 PUSH2 0x293C SWAP2 SWAP1 PUSH2 0x466D JUMP JUMPDEST SWAP5 POP POP POP DUP1 DUP1 PUSH2 0x294B SWAP1 PUSH2 0x46A0 JUMP JUMPDEST SWAP2 POP POP PUSH2 0x2877 JUMP JUMPDEST POP PUSH0 PUSH1 0x64 PUSH1 0x3C DUP5 PUSH2 0x2964 SWAP2 SWAP1 PUSH2 0x432F JUMP JUMPDEST PUSH2 0x296E SWAP2 SWAP1 PUSH2 0x439D JUMP JUMPDEST SWAP1 POP PUSH0 PUSH1 0x64 PUSH1 0x28 DUP6 PUSH2 0x2980 SWAP2 SWAP1 PUSH2 0x432F JUMP JUMPDEST PUSH2 0x298A SWAP2 SWAP1 PUSH2 0x439D JUMP JUMPDEST SWAP1 POP PUSH3 0x989680 DUP3 PUSH2 0x299B SWAP2 SWAP1 PUSH2 0x439D JUMP JUMPDEST PUSH1 0x2 PUSH0 CALLER PUSH20 0xFFFFFFFFFFFFFFFFFFFFFFFFFFFFFFFFFFFFFFFF AND PUSH20 0xFFFFFFFFFFFFFFFFFFFFFFFFFFFFFFFFFFFFFFFF AND DUP2 MSTORE PUSH1 0x20 ADD SWAP1 DUP2 MSTORE PUSH1 0x20 ADD PUSH0 KECCAK256 PUSH0 DUP3 DUP3 SLOAD PUSH2 0x29E6 SWAP2 SWAP1 PUSH2 0x466D JUMP JUMPDEST SWAP3 POP POP DUP2 SWAP1 SSTORE POP TIMESTAMP PUSH1 0x3 PUSH0 CALLER PUSH20 0xFFFFFFFFFFFFFFFFFFFFFFFFFFFFFFFFFFFFFFFF AND PUSH20 0xFFFFFFFFFFFFFFFFFFFFFFFFFFFFFFFFFFFFFFFF AND DUP2 MSTORE PUSH1 0x20 ADD SWAP1 DUP2 MSTORE PUSH1 0x20 ADD PUSH0 KECCAK256 DUP2 SWAP1 SSTORE POP PUSH2 0x2A7B CALLER DUP4 PUSH1 0xB PUSH0 SWAP1 SLOAD SWAP1 PUSH2 0x100 EXP SWAP1 DIV PUSH20 0xFFFFFFFFFFFFFFFFFFFFFFFFFFFFFFFFFFFFFFFF AND PUSH20 0xFFFFFFFFFFFFFFFFFFFFFFFFFFFFFFFFFFFFFFFF AND PUSH2 0x31E8 SWAP1 SWAP3 SWAP2 SWAP1 PUSH4 0xFFFFFFFF AND JUMP JUMPDEST PUSH2 0x2A84 DUP2 PUSH2 0x32F2 JUMP JUMPDEST POP POP POP POP POP PUSH2 0x2A91 PUSH2 0x3267 JUMP JUMPDEST JUMP JUMPDEST PUSH0 PUSH1 0xB PUSH0 SWAP1 SLOAD SWAP1 PUSH2 0x100 EXP SWAP1 DIV PUSH20 0xFFFFFFFFFFFFFFFFFFFFFFFFFFFFFFFFFFFFFFFF AND PUSH20 0xFFFFFFFFFFFFFFFFFFFFFFFFFFFFFFFFFFFFFFFF AND PUSH4 0x70A08231 ADDRESS PUSH1 0x40 MLOAD DUP3 PUSH4 0xFFFFFFFF AND PUSH1 0xE0 SHL DUP2 MSTORE PUSH1 0x4 ADD PUSH2 0x2AEE SWAP2 SWAP1 PUSH2 0x3A7A JUMP JUMPDEST PUSH1 0x20 PUSH1 0x40 MLOAD DUP1 DUP4 SUB DUP2 DUP7 GAS STATICCALL ISZERO DUP1 ISZERO PUSH2 0x2B09 JUMPI RETURNDATASIZE PUSH0 DUP1 RETURNDATACOPY RETURNDATASIZE PUSH0 REVERT JUMPDEST POP POP POP POP PUSH1 0x40 MLOAD RETURNDATASIZE PUSH1 0x1F NOT PUSH1 0x1F DUP3 ADD AND DUP3 ADD DUP1 PUSH1 0x40 MSTORE POP DUP2 ADD SWAP1 PUSH2 0x2B2D SWAP2 SWAP1 PUSH2 0x48C8 JUMP JUMPDEST SWAP1 POP SWAP1 JUMP JUMPDEST PUSH1 0xA PUSH0 SWAP1 SLOAD SWAP1 PUSH2 0x100 EXP SWAP1 DIV PUSH20 0xFFFFFFFFFFFFFFFFFFFFFFFFFFFFFFFFFFFFFFFF AND PUSH20 0xFFFFFFFFFFFFFFFFFFFFFFFFFFFFFFFFFFFFFFFF AND CALLER PUSH20 0xFFFFFFFFFFFFFFFFFFFFFFFFFFFFFFFFFFFFFFFF AND EQ PUSH2 0x2BC1 JUMPI PUSH1 0x40 MLOAD PUSH32 0x8C379A000000000000000000000000000000000000000000000000000000000 DUP2 MSTORE PUSH1 0x4 ADD PUSH2 0x2BB8 SWAP1 PUSH2 0x4A18 JUMP JUMPDEST PUSH1 0x40 MLOAD DUP1 SWAP2 SUB SWAP1 REVERT JUMPDEST PUSH1 0x40 MLOAD DUP1 PUSH1 0x40 ADD PUSH1 0x40 MSTORE DUP1 PUSH1 0x11 DUP2 MSTORE PUSH1 0x20 ADD PUSH32 0x6368616E67655365636F6E6441646D696E000000000000000000000000000000 DUP2 MSTORE POP PUSH1 0xC DUP2 PUSH1 0x40 MLOAD PUSH2 0x2C07 SWAP2 SWAP1 PUSH2 0x41E9 JUMP JUMPDEST SWAP1 DUP2 MSTORE PUSH1 0x20 ADD PUSH1 0x40 MLOAD DUP1 SWAP2 SUB SWAP1 KECCAK256 PUSH0 SWAP1 SLOAD SWAP1 PUSH2 0x100 EXP SWAP1 DIV PUSH1 0xFF AND PUSH2 0x2C61 JUMPI PUSH1 0x40 MLOAD PUSH32 0x8C379A000000000000000000000000000000000000000000000000000000000 DUP2 MSTORE PUSH1 0x4 ADD PUSH2 0x2C58 SWAP1 PUSH2 0x4249 JUMP JUMPDEST PUSH1 0x40 MLOAD DUP1 SWAP2 SUB SWAP1 REVERT JUMPDEST PUSH0 PUSH20 0xFFFFFFFFFFFFFFFFFFFFFFFFFFFFFFFFFFFFFFFF AND DUP3 PUSH20 0xFFFFFFFFFFFFFFFFFFFFFFFFFFFFFFFFFFFFFFFF AND SUB PUSH2 0x2CCF JUMPI PUSH1 0x40 MLOAD PUSH32 0x8C379A000000000000000000000000000000000000000000000000000000000 DUP2 MSTORE PUSH1 0x4 ADD PUSH2 0x2CC6 SWAP1 PUSH2 0x4BDE JUMP JUMPDEST PUSH1 0x40 MLOAD DUP1 SWAP2 SUB SWAP1 REVERT JUMPDEST DUP2 PUSH1 0x9 PUSH0 PUSH2 0x100 EXP DUP2 SLOAD DUP2 PUSH20 0xFFFFFFFFFFFFFFFFFFFFFFFFFFFFFFFFFFFFFFFF MUL NOT AND SWAP1 DUP4 PUSH20 0xFFFFFFFFFFFFFFFFFFFFFFFFFFFFFFFFFFFFFFFF AND MUL OR SWAP1 SSTORE POP POP POP JUMP JUMPDEST PUSH1 0x5 PUSH1 0x20 MSTORE DUP1 PUSH0 MSTORE PUSH1 0x40 PUSH0 KECCAK256 PUSH0 SWAP2 POP SWAP1 POP DUP1 PUSH0 ADD DUP1 SLOAD PUSH2 0x2D32 SWAP1 PUSH2 0x3E00 JUMP JUMPDEST DUP1 PUSH1 0x1F ADD PUSH1 0x20 DUP1 SWAP2 DIV MUL PUSH1 0x20 ADD PUSH1 0x40 MLOAD SWAP1 DUP2 ADD PUSH1 0x40 MSTORE DUP1 SWAP3 SWAP2 SWAP1 DUP2 DUP2 MSTORE PUSH1 0x20 ADD DUP3 DUP1 SLOAD PUSH2 0x2D5E SWAP1 PUSH2 0x3E00 JUMP JUMPDEST DUP1 ISZERO PUSH2 0x2DA9 JUMPI DUP1 PUSH1 0x1F LT PUSH2 0x2D80 JUMPI PUSH2 0x100 DUP1 DUP4 SLOAD DIV MUL DUP4 MSTORE SWAP2 PUSH1 0x20 ADD SWAP2 PUSH2 0x2DA9 JUMP JUMPDEST DUP3 ADD SWAP2 SWAP1 PUSH0 MSTORE PUSH1 0x20 PUSH0 KECCAK256 SWAP1 JUMPDEST DUP2 SLOAD DUP2 MSTORE SWAP1 PUSH1 0x1 ADD SWAP1 PUSH1 0x20 ADD DUP1 DUP4 GT PUSH2 0x2D8C JUMPI DUP3 SWAP1 SUB PUSH1 0x1F AND DUP3 ADD SWAP2 JUMPDEST POP POP POP POP POP SWAP1 DUP1 PUSH1 0x1 ADD DUP1 SLOAD PUSH2 0x2DBE SWAP1 PUSH2 0x3E00 JUMP JUMPDEST DUP1 PUSH1 0x1F ADD PUSH1 0x20 DUP1 SWAP2 DIV MUL PUSH1 0x20 ADD PUSH1 0x40 MLOAD SWAP1 DUP2 ADD PUSH1 0x40 MSTORE DUP1 SWAP3 SWAP2 SWAP1 DUP2 DUP2 MSTORE PUSH1 0x20 ADD DUP3 DUP1 SLOAD PUSH2 0x2DEA SWAP1 PUSH2 0x3E00 JUMP JUMPDEST DUP1 ISZERO PUSH2 0x2E35 JUMPI DUP1 PUSH1 0x1F LT PUSH2 0x2E0C JUMPI PUSH2 0x100 DUP1 DUP4 SLOAD DIV MUL DUP4 MSTORE SWAP2 PUSH1 0x20 ADD SWAP2 PUSH2 0x2E35 JUMP JUMPDEST DUP3 ADD SWAP2 SWAP1 PUSH0 MSTORE PUSH1 0x20 PUSH0 KECCAK256 SWAP1 JUMPDEST DUP2 SLOAD DUP2 MSTORE SWAP1 PUSH1 0x1 ADD SWAP1 PUSH1 0x20 ADD DUP1 DUP4 GT PUSH2 0x2E18 JUMPI DUP3 SWAP1 SUB PUSH1 0x1F AND DUP3 ADD SWAP2 JUMPDEST POP POP POP POP POP SWAP1 DUP1 PUSH1 0x2 ADD DUP1 SLOAD PUSH2 0x2E4A SWAP1 PUSH2 0x3E00 JUMP JUMPDEST DUP1 PUSH1 0x1F ADD PUSH1 0x20 DUP1 SWAP2 DIV MUL PUSH1 0x20 ADD PUSH1 0x40 MLOAD SWAP1 DUP2 ADD PUSH1 0x40 MSTORE DUP1 SWAP3 SWAP2 SWAP1 DUP2 DUP2 MSTORE PUSH1 0x20 ADD DUP3 DUP1 SLOAD PUSH2 0x2E76 SWAP1 PUSH2 0x3E00 JUMP JUMPDEST DUP1 ISZERO PUSH2 0x2EC1 JUMPI DUP1 PUSH1 0x1F LT PUSH2 0x2E98 JUMPI PUSH2 0x100 DUP1 DUP4 SLOAD DIV MUL DUP4 MSTORE SWAP2 PUSH1 0x20 ADD SWAP2 PUSH2 0x2EC1 JUMP JUMPDEST DUP3 ADD SWAP2 SWAP1 PUSH0 MSTORE PUSH1 0x20 PUSH0 KECCAK256 SWAP1 JUMPDEST DUP2 SLOAD DUP2 MSTORE SWAP1 PUSH1 0x1 ADD SWAP1 PUSH1 0x20 ADD DUP1 DUP4 GT PUSH2 0x2EA4 JUMPI DUP3 SWAP1 SUB PUSH1 0x1F AND DUP3 ADD SWAP2 JUMPDEST POP POP POP POP POP SWAP1 DUP1 PUSH1 0x3 ADD DUP1 SLOAD PUSH2 0x2ED6 SWAP1 PUSH2 0x3E00 JUMP JUMPDEST DUP1 PUSH1 0x1F ADD PUSH1 0x20 DUP1 SWAP2 DIV MUL PUSH1 0x20 ADD PUSH1 0x40 MLOAD SWAP1 DUP2 ADD PUSH1 0x40 MSTORE DUP1 SWAP3 SWAP2 SWAP1 DUP2 DUP2 MSTORE PUSH1 0x20 ADD DUP3 DUP1 SLOAD PUSH2 0x2F02 SWAP1 PUSH2 0x3E00 JUMP JUMPDEST DUP1 ISZERO PUSH2 0x2F4D JUMPI DUP1 PUSH1 0x1F LT PUSH2 0x2F24 JUMPI PUSH2 0x100 DUP1 DUP4 SLOAD DIV MUL DUP4 MSTORE SWAP2 PUSH1 0x20 ADD SWAP2 PUSH2 0x2F4D JUMP JUMPDEST DUP3 ADD SWAP2 SWAP1 PUSH0 MSTORE PUSH1 0x20 PUSH0 KECCAK256 SWAP1 JUMPDEST DUP2 SLOAD DUP2 MSTORE SWAP1 PUSH1 0x1 ADD SWAP1 PUSH1 0x20 ADD DUP1 DUP4 GT PUSH2 0x2F30 JUMPI DUP3 SWAP1 SUB PUSH1 0x1F AND DUP3 ADD SWAP2 JUMPDEST POP POP POP POP POP SWAP1 DUP1 PUSH1 0x4 ADD DUP1 SLOAD PUSH2 0x2F62 SWAP1 PUSH2 0x3E00 JUMP JUMPDEST DUP1 PUSH1 0x1F ADD PUSH1 0x20 DUP1 SWAP2 DIV MUL PUSH1 0x20 ADD PUSH1 0x40 MLOAD SWAP1 DUP2 ADD PUSH1 0x40 MSTORE DUP1 SWAP3 SWAP2 SWAP1 DUP2 DUP2 MSTORE PUSH1 0x20 ADD DUP3 DUP1 SLOAD PUSH2 0x2F8E SWAP1 PUSH2 0x3E00 JUMP JUMPDEST DUP1 ISZERO PUSH2 0x2FD9 JUMPI DUP1 PUSH1 0x1F LT PUSH2 0x2FB0 JUMPI PUSH2 0x100 DUP1 DUP4 SLOAD DIV MUL DUP4 MSTORE SWAP2 PUSH1 0x20 ADD SWAP2 PUSH2 0x2FD9 JUMP JUMPDEST DUP3 ADD SWAP2 SWAP1 PUSH0 MSTORE PUSH1 0x20 PUSH0 KECCAK256 SWAP1 JUMPDEST DUP2 SLOAD DUP2 MSTORE SWAP1 PUSH1 0x1 ADD SWAP1 PUSH1 0x20 ADD DUP1 DUP4 GT PUSH2 0x2FBC JUMPI DUP3 SWAP1 SUB PUSH1 0x1F AND DUP3 ADD SWAP2 JUMPDEST POP POP POP POP POP SWAP1 DUP1 PUSH1 0x5 ADD DUP1 SLOAD PUSH2 0x2FEE SWAP1 PUSH2 0x3E00 JUMP JUMPDEST DUP1 PUSH1 0x1F ADD PUSH1 0x20 DUP1 SWAP2 DIV MUL PUSH1 0x20 ADD PUSH1 0x40 MLOAD SWAP1 DUP2 ADD PUSH1 0x40 MSTORE DUP1 SWAP3 SWAP2 SWAP1 DUP2 DUP2 MSTORE PUSH1 0x20 ADD DUP3 DUP1 SLOAD PUSH2 0x301A SWAP1 PUSH2 0x3E00 JUMP JUMPDEST DUP1 ISZERO PUSH2 0x3065 JUMPI DUP1 PUSH1 0x1F LT PUSH2 0x303C JUMPI PUSH2 0x100 DUP1 DUP4 SLOAD DIV MUL DUP4 MSTORE SWAP2 PUSH1 0x20 ADD SWAP2 PUSH2 0x3065 JUMP JUMPDEST DUP3 ADD SWAP2 SWAP1 PUSH0 MSTORE PUSH1 0x20 PUSH0 KECCAK256 SWAP1 JUMPDEST DUP2 SLOAD DUP2 MSTORE SWAP1 PUSH1 0x1 ADD SWAP1 PUSH1 0x20 ADD DUP1 DUP4 GT PUSH2 0x3048 JUMPI DUP3 SWAP1 SUB PUSH1 0x1F AND DUP3 ADD SWAP2 JUMPDEST POP POP POP POP POP SWAP1 DUP1 PUSH1 0x6 ADD DUP1 SLOAD PUSH2 0x307A SWAP1 PUSH2 0x3E00 JUMP JUMPDEST DUP1 PUSH1 0x1F ADD PUSH1 0x20 DUP1 SWAP2 DIV MUL PUSH1 0x20 ADD PUSH1 0x40 MLOAD SWAP1 DUP2 ADD PUSH1 0x40 MSTORE DUP1 SWAP3 SWAP2 SWAP1 DUP2 DUP2 MSTORE PUSH1 0x20 ADD DUP3 DUP1 SLOAD PUSH2 0x30A6 SWAP1 PUSH2 0x3E00 JUMP JUMPDEST DUP1 ISZERO PUSH2 0x30F1 JUMPI DUP1 PUSH1 0x1F LT PUSH2 0x30C8 JUMPI PUSH2 0x100 DUP1 DUP4 SLOAD DIV MUL DUP4 MSTORE SWAP2 PUSH1 0x20 ADD SWAP2 PUSH2 0x30F1 JUMP JUMPDEST DUP3 ADD SWAP2 SWAP1 PUSH0 MSTORE PUSH1 0x20 PUSH0 KECCAK256 SWAP1 JUMPDEST DUP2 SLOAD DUP2 MSTORE SWAP1 PUSH1 0x1 ADD SWAP1 PUSH1 0x20 ADD DUP1 DUP4 GT PUSH2 0x30D4 JUMPI DUP3 SWAP1 SUB PUSH1 0x1F AND DUP3 ADD SWAP2 JUMPDEST POP POP POP POP POP SWAP1 DUP1 PUSH1 0x7 ADD PUSH0 SWAP1 SLOAD SWAP1 PUSH2 0x100 EXP SWAP1 DIV PUSH20 0xFFFFFFFFFFFFFFFFFFFFFFFFFFFFFFFFFFFFFFFF AND SWAP1 DUP1 PUSH1 0x8 ADD SLOAD SWAP1 DUP1 PUSH1 0x9 ADD SLOAD SWAP1 DUP1 PUSH1 0xA ADD SLOAD SWAP1 POP DUP12 JUMP JUMPDEST PUSH1 0x8 PUSH1 0x1 SWAP1 SLOAD SWAP1 PUSH2 0x100 EXP SWAP1 DIV PUSH20 0xFFFFFFFFFFFFFFFFFFFFFFFFFFFFFFFFFFFFFFFF AND DUP2 JUMP JUMPDEST PUSH0 DUP1 PUSH4 0x1DA9C00 DUP4 PUSH2 0x316A SWAP2 SWAP1 PUSH2 0x439D JUMP JUMPDEST SWAP1 POP PUSH1 0x3 DUP2 LT PUSH2 0x317E JUMPI PUSH1 0x3 SWAP2 POP POP PUSH2 0x3196 JUMP JUMPDEST PUSH1 0x2 DUP2 SUB PUSH2 0x3190 JUMPI PUSH1 0x2 SWAP2 POP POP PUSH2 0x3196 JUMP JUMPDEST PUSH1 0x1 SWAP2 POP POP JUMPDEST SWAP2 SWAP1 POP JUMP JUMPDEST PUSH1 0x2 PUSH0 SLOAD SUB PUSH2 0x31DF JUMPI PUSH1 0x40 MLOAD PUSH32 0x8C379A000000000000000000000000000000000000000000000000000000000 DUP2 MSTORE PUSH1 0x4 ADD PUSH2 0x31D6 SWAP1 PUSH2 0x4C46 JUMP JUMPDEST PUSH1 0x40 MLOAD DUP1 SWAP2 SUB SWAP1 REVERT JUMPDEST PUSH1 0x2 PUSH0 DUP2 SWAP1 SSTORE POP JUMP JUMPDEST PUSH2 0x3262 DUP4 DUP5 PUSH20 0xFFFFFFFFFFFFFFFFFFFFFFFFFFFFFFFFFFFFFFFF AND PUSH4 0xA9059CBB DUP6 DUP6 PUSH1 0x40 MLOAD PUSH1 0x24 ADD PUSH2 0x321B SWAP3 SWAP2 SWAP1 PUSH2 0x4C64 JUMP JUMPDEST PUSH1 0x40 MLOAD PUSH1 0x20 DUP2 DUP4 SUB SUB DUP2 MSTORE SWAP1 PUSH1 0x40 MSTORE SWAP2 POP PUSH1 0xE0 SHL PUSH1 0x20 DUP3 ADD DUP1 MLOAD PUSH28 0xFFFFFFFFFFFFFFFFFFFFFFFFFFFFFFFFFFFFFFFFFFFFFFFFFFFFFFFF DUP4 DUP2 DUP4 AND OR DUP4 MSTORE POP POP POP POP PUSH2 0x33F9 JUMP JUMPDEST POP POP POP JUMP JUMPDEST PUSH1 0x1 PUSH0 DUP2 SWAP1 SSTORE POP JUMP JUMPDEST PUSH2 0x32EC DUP5 DUP6 PUSH20 0xFFFFFFFFFFFFFFFFFFFFFFFFFFFFFFFFFFFFFFFF AND PUSH4 0x23B872DD DUP7 DUP7 DUP7 PUSH1 0x40 MLOAD PUSH1 0x24 ADD PUSH2 0x32A5 SWAP4 SWAP3 SWAP2 SWAP1 PUSH2 0x4C8B JUMP JUMPDEST PUSH1 0x40 MLOAD PUSH1 0x20 DUP2 DUP4 SUB SUB DUP2 MSTORE SWAP1 PUSH1 0x40 MSTORE SWAP2 POP PUSH1 0xE0 SHL PUSH1 0x20 DUP3 ADD DUP1 MLOAD PUSH28 0xFFFFFFFFFFFFFFFFFFFFFFFFFFFFFFFFFFFFFFFFFFFFFFFFFFFFFFFF DUP4 DUP2 DUP4 AND OR DUP4 MSTORE POP POP POP POP PUSH2 0x33F9 JUMP JUMPDEST POP POP POP POP JUMP JUMPDEST PUSH0 PUSH2 0x32FB PUSH2 0x348E JUMP JUMPDEST SWAP1 POP PUSH0 DUP2 SUB PUSH2 0x330A JUMPI POP PUSH2 0x33F6 JUMP JUMPDEST PUSH0 JUMPDEST PUSH1 0x6 SLOAD DUP2 LT ISZERO PUSH2 0x33F3 JUMPI PUSH0 PUSH1 0x5 PUSH0 DUP4 DUP2 MSTORE PUSH1 0x20 ADD SWAP1 DUP2 MSTORE PUSH1 0x20 ADD PUSH0 KECCAK256 SWAP1 POP PUSH1 0x5 DUP1 DUP2 GT ISZERO PUSH2 0x333D JUMPI PUSH2 0x333C PUSH2 0x46E7 JUMP JUMPDEST JUMPDEST DUP2 PUSH1 0x8 ADD SLOAD EQ PUSH2 0x33DF JUMPI PUSH0 DUP4 DUP6 DUP4 PUSH1 0xA ADD SLOAD PUSH2 0x3359 SWAP2 SWAP1 PUSH2 0x432F JUMP JUMPDEST PUSH2 0x3363 SWAP2 SWAP1 PUSH2 0x439D JUMP JUMPDEST SWAP1 POP PUSH0 DUP2 GT ISZERO PUSH2 0x33DD JUMPI PUSH2 0x33DC DUP3 PUSH1 0x7 ADD PUSH0 SWAP1 SLOAD SWAP1 PUSH2 0x100 EXP SWAP1 DIV PUSH20 0xFFFFFFFFFFFFFFFFFFFFFFFFFFFFFFFFFFFFFFFF AND DUP3 PUSH1 0xB PUSH0 SWAP1 SLOAD SWAP1 PUSH2 0x100 EXP SWAP1 DIV PUSH20 0xFFFFFFFFFFFFFFFFFFFFFFFFFFFFFFFFFFFFFFFF AND PUSH20 0xFFFFFFFFFFFFFFFFFFFFFFFFFFFFFFFFFFFFFFFF AND PUSH2 0x31E8 SWAP1 SWAP3 SWAP2 SWAP1 PUSH4 0xFFFFFFFF AND JUMP JUMPDEST JUMPDEST POP JUMPDEST POP DUP1 DUP1 PUSH2 0x33EB SWAP1 PUSH2 0x46A0 JUMP JUMPDEST SWAP2 POP POP PUSH2 0x330C JUMP JUMPDEST POP POP JUMPDEST POP JUMP JUMPDEST PUSH0 PUSH2 0x3423 DUP3 DUP5 PUSH20 0xFFFFFFFFFFFFFFFFFFFFFFFFFFFFFFFFFFFFFFFF AND PUSH2 0x350A SWAP1 SWAP2 SWAP1 PUSH4 0xFFFFFFFF AND JUMP JUMPDEST SWAP1 POP PUSH0 DUP2 MLOAD EQ ISZERO DUP1 ISZERO PUSH2 0x3447 JUMPI POP DUP1 DUP1 PUSH1 0x20 ADD SWAP1 MLOAD DUP2 ADD SWAP1 PUSH2 0x3445 SWAP2 SWAP1 PUSH2 0x4CD4 JUMP JUMPDEST ISZERO JUMPDEST ISZERO PUSH2 0x3489 JUMPI DUP3 PUSH1 0x40 MLOAD PUSH32 0x5274AFE700000000000000000000000000000000000000000000000000000000 DUP2 MSTORE PUSH1 0x4 ADD PUSH2 0x3480 SWAP2 SWAP1 PUSH2 0x3A7A JUMP JUMPDEST PUSH1 0x40 MLOAD DUP1 SWAP2 SUB SWAP1 REVERT JUMPDEST POP POP POP JUMP JUMPDEST PUSH0 DUP1 PUSH0 SWAP1 POP PUSH0 JUMPDEST PUSH1 0x6 SLOAD DUP2 LT ISZERO PUSH2 0x3502 JUMPI PUSH1 0x5 DUP1 DUP2 GT ISZERO PUSH2 0x34B2 JUMPI PUSH2 0x34B1 PUSH2 0x46E7 JUMP JUMPDEST JUMPDEST PUSH1 0x5 PUSH0 DUP4 DUP2 MSTORE PUSH1 0x20 ADD SWAP1 DUP2 MSTORE PUSH1 0x20 ADD PUSH0 KECCAK256 PUSH1 0x8 ADD SLOAD EQ PUSH2 0x34EF JUMPI PUSH1 0x5 PUSH0 DUP3 DUP2 MSTORE PUSH1 0x20 ADD SWAP1 DUP2 MSTORE PUSH1 0x20 ADD PUSH0 KECCAK256 PUSH1 0xA ADD SLOAD DUP3 PUSH2 0x34EC SWAP2 SWAP1 PUSH2 0x466D JUMP JUMPDEST SWAP2 POP JUMPDEST DUP1 DUP1 PUSH2 0x34FA SWAP1 PUSH2 0x46A0 JUMP JUMPDEST SWAP2 POP POP PUSH2 0x3495 JUMP JUMPDEST POP DUP1 SWAP2 POP POP SWAP1 JUMP JUMPDEST PUSH1 0x60 PUSH2 0x3517 DUP4 DUP4 PUSH0 PUSH2 0x351F JUMP JUMPDEST SWAP1 POP SWAP3 SWAP2 POP POP JUMP JUMPDEST PUSH1 0x60 DUP2 SELFBALANCE LT ISZERO PUSH2 0x3566 JUMPI ADDRESS PUSH1 0x40 MLOAD PUSH32 0xCD78605900000000000000000000000000000000000000000000000000000000 DUP2 MSTORE PUSH1 0x4 ADD PUSH2 0x355D SWAP2 SWAP1 PUSH2 0x3A7A JUMP JUMPDEST PUSH1 0x40 MLOAD DUP1 SWAP2 SUB SWAP1 REVERT JUMPDEST PUSH0 DUP1 DUP6 PUSH20 0xFFFFFFFFFFFFFFFFFFFFFFFFFFFFFFFFFFFFFFFF AND DUP5 DUP7 PUSH1 0x40 MLOAD PUSH2 0x358E SWAP2 SWAP1 PUSH2 0x4D43 JUMP JUMPDEST PUSH0 PUSH1 0x40 MLOAD DUP1 DUP4 SUB DUP2 DUP6 DUP8 GAS CALL SWAP3 POP POP POP RETURNDATASIZE DUP1 PUSH0 DUP2 EQ PUSH2 0x35C8 JUMPI PUSH1 0x40 MLOAD SWAP2 POP PUSH1 0x1F NOT PUSH1 0x3F RETURNDATASIZE ADD AND DUP3 ADD PUSH1 0x40 MSTORE RETURNDATASIZE DUP3 MSTORE RETURNDATASIZE PUSH0 PUSH1 0x20 DUP5 ADD RETURNDATACOPY PUSH2 0x35CD JUMP JUMPDEST PUSH1 0x60 SWAP2 POP JUMPDEST POP SWAP2 POP SWAP2 POP PUSH2 0x35DD DUP7 DUP4 DUP4 PUSH2 0x35E8 JUMP JUMPDEST SWAP3 POP POP POP SWAP4 SWAP3 POP POP POP JUMP JUMPDEST PUSH1 0x60 DUP3 PUSH2 0x35FD JUMPI PUSH2 0x35F8 DUP3 PUSH2 0x3675 JUMP JUMPDEST PUSH2 0x366D JUMP JUMPDEST PUSH0 DUP3 MLOAD EQ DUP1 ISZERO PUSH2 0x3623 JUMPI POP PUSH0 DUP5 PUSH20 0xFFFFFFFFFFFFFFFFFFFFFFFFFFFFFFFFFFFFFFFF AND EXTCODESIZE EQ JUMPDEST ISZERO PUSH2 0x3665 JUMPI DUP4 PUSH1 0x40 MLOAD PUSH32 0x9996B31500000000000000000000000000000000000000000000000000000000 DUP2 MSTORE PUSH1 0x4 ADD PUSH2 0x365C SWAP2 SWAP1 PUSH2 0x3A7A JUMP JUMPDEST PUSH1 0x40 MLOAD DUP1 SWAP2 SUB SWAP1 REVERT JUMPDEST DUP2 SWAP1 POP PUSH2 0x366E JUMP JUMPDEST JUMPDEST SWAP4 SWAP3 POP POP POP JUMP JUMPDEST PUSH0 DUP2 MLOAD GT ISZERO PUSH2 0x3687 JUMPI DUP1 MLOAD DUP1 DUP3 PUSH1 0x20 ADD REVERT JUMPDEST PUSH1 0x40 MLOAD PUSH32 0x1425EA4200000000000000000000000000000000000000000000000000000000 DUP2 MSTORE PUSH1 0x4 ADD PUSH1 0x40 MLOAD DUP1 SWAP2 SUB SWAP1 REVERT JUMPDEST PUSH0 DUP2 ISZERO ISZERO SWAP1 POP SWAP2 SWAP1 POP JUMP JUMPDEST PUSH2 0x36CD DUP2 PUSH2 0x36B9 JUMP JUMPDEST DUP3 MSTORE POP POP JUMP JUMPDEST PUSH0 PUSH1 0x20 DUP3 ADD SWAP1 POP PUSH2 0x36E6 PUSH0 DUP4 ADD DUP5 PUSH2 0x36C4 JUMP JUMPDEST SWAP3 SWAP2 POP POP JUMP JUMPDEST PUSH0 PUSH1 0x40 MLOAD SWAP1 POP SWAP1 JUMP JUMPDEST PUSH0 DUP1 REVERT JUMPDEST PUSH0 DUP1 REVERT JUMPDEST PUSH0 PUSH20 0xFFFFFFFFFFFFFFFFFFFFFFFFFFFFFFFFFFFFFFFF DUP3 AND SWAP1 POP SWAP2 SWAP1 POP JUMP JUMPDEST PUSH0 PUSH2 0x3726 DUP3 PUSH2 0x36FD JUMP JUMPDEST SWAP1 POP SWAP2 SWAP1 POP JUMP JUMPDEST PUSH2 0x3736 DUP2 PUSH2 0x371C JUMP JUMPDEST DUP2 EQ PUSH2 0x3740 JUMPI PUSH0 DUP1 REVERT JUMPDEST POP JUMP JUMPDEST PUSH0 DUP2 CALLDATALOAD SWAP1 POP PUSH2 0x3751 DUP2 PUSH2 0x372D JUMP JUMPDEST SWAP3 SWAP2 POP POP JUMP JUMPDEST PUSH0 PUSH1 0x20 DUP3 DUP5 SUB SLT ISZERO PUSH2 0x376C JUMPI PUSH2 0x376B PUSH2 0x36F5 JUMP JUMPDEST JUMPDEST PUSH0 PUSH2 0x3779 DUP5 DUP3 DUP6 ADD PUSH2 0x3743 JUMP JUMPDEST SWAP2 POP POP SWAP3 SWAP2 POP POP JUMP JUMPDEST PUSH0 DUP2 SWAP1 POP SWAP2 SWAP1 POP JUMP JUMPDEST PUSH2 0x3794 DUP2 PUSH2 0x3782 JUMP JUMPDEST DUP3 MSTORE POP POP JUMP JUMPDEST PUSH0 PUSH1 0x20 DUP3 ADD SWAP1 POP PUSH2 0x37AD PUSH0 DUP4 ADD DUP5 PUSH2 0x378B JUMP JUMPDEST SWAP3 SWAP2 POP POP JUMP JUMPDEST PUSH0 DUP2 SWAP1 POP SWAP2 SWAP1 POP JUMP JUMPDEST PUSH0 PUSH2 0x37D6 PUSH2 0x37D1 PUSH2 0x37CC DUP5 PUSH2 0x36FD JUMP JUMPDEST PUSH2 0x37B3 JUMP JUMPDEST PUSH2 0x36FD JUMP JUMPDEST SWAP1 POP SWAP2 SWAP1 POP JUMP JUMPDEST PUSH0 PUSH2 0x37E7 DUP3 PUSH2 0x37BC JUMP JUMPDEST SWAP1 POP SWAP2 SWAP1 POP JUMP JUMPDEST PUSH0 PUSH2 0x37F8 DUP3 PUSH2 0x37DD JUMP JUMPDEST SWAP1 POP SWAP2 SWAP1 POP JUMP JUMPDEST PUSH2 0x3808 DUP2 PUSH2 0x37EE JUMP JUMPDEST DUP3 MSTORE POP POP JUMP JUMPDEST PUSH0 PUSH1 0x20 DUP3 ADD SWAP1 POP PUSH2 0x3821 PUSH0 DUP4 ADD DUP5 PUSH2 0x37FF JUMP JUMPDEST SWAP3 SWAP2 POP POP JUMP JUMPDEST PUSH2 0x3830 DUP2 PUSH2 0x3782 JUMP JUMPDEST DUP2 EQ PUSH2 0x383A JUMPI PUSH0 DUP1 REVERT JUMPDEST POP JUMP JUMPDEST PUSH0 DUP2 CALLDATALOAD SWAP1 POP PUSH2 0x384B DUP2 PUSH2 0x3827 JUMP JUMPDEST SWAP3 SWAP2 POP POP JUMP JUMPDEST PUSH0 DUP1 REVERT JUMPDEST PUSH0 DUP1 REVERT JUMPDEST PUSH0 PUSH1 0x1F NOT PUSH1 0x1F DUP4 ADD AND SWAP1 POP SWAP2 SWAP1 POP JUMP JUMPDEST PUSH32 0x4E487B7100000000000000000000000000000000000000000000000000000000 PUSH0 MSTORE PUSH1 0x41 PUSH1 0x4 MSTORE PUSH1 0x24 PUSH0 REVERT JUMPDEST PUSH2 0x389F DUP3 PUSH2 0x3859 JUMP JUMPDEST DUP2 ADD DUP2 DUP2 LT PUSH8 0xFFFFFFFFFFFFFFFF DUP3 GT OR ISZERO PUSH2 0x38BE JUMPI PUSH2 0x38BD PUSH2 0x3869 JUMP JUMPDEST JUMPDEST DUP1 PUSH1 0x40 MSTORE POP POP POP JUMP JUMPDEST PUSH0 PUSH2 0x38D0 PUSH2 0x36EC JUMP JUMPDEST SWAP1 POP PUSH2 0x38DC DUP3 DUP3 PUSH2 0x3896 JUMP JUMPDEST SWAP2 SWAP1 POP JUMP JUMPDEST PUSH0 PUSH8 0xFFFFFFFFFFFFFFFF DUP3 GT ISZERO PUSH2 0x38FB JUMPI PUSH2 0x38FA PUSH2 0x3869 JUMP JUMPDEST JUMPDEST PUSH2 0x3904 DUP3 PUSH2 0x3859 JUMP JUMPDEST SWAP1 POP PUSH1 0x20 DUP2 ADD SWAP1 POP SWAP2 SWAP1 POP JUMP JUMPDEST DUP3 DUP2 DUP4 CALLDATACOPY PUSH0 DUP4 DUP4 ADD MSTORE POP POP POP JUMP JUMPDEST PUSH0 PUSH2 0x3931 PUSH2 0x392C DUP5 PUSH2 0x38E1 JUMP JUMPDEST PUSH2 0x38C7 JUMP JUMPDEST SWAP1 POP DUP3 DUP2 MSTORE PUSH1 0x20 DUP2 ADD DUP5 DUP5 DUP5 ADD GT ISZERO PUSH2 0x394D JUMPI PUSH2 0x394C PUSH2 0x3855 JUMP JUMPDEST JUMPDEST PUSH2 0x3958 DUP5 DUP3 DUP6 PUSH2 0x3911 JUMP JUMPDEST POP SWAP4 SWAP3 POP POP POP JUMP JUMPDEST PUSH0 DUP3 PUSH1 0x1F DUP4 ADD SLT PUSH2 0x3974 JUMPI PUSH2 0x3973 PUSH2 0x3851 JUMP JUMPDEST JUMPDEST DUP2 CALLDATALOAD PUSH2 0x3984 DUP5 DUP3 PUSH1 0x20 DUP7 ADD PUSH2 0x391F JUMP JUMPDEST SWAP2 POP POP SWAP3 SWAP2 POP POP JUMP JUMPDEST PUSH0 DUP1 PUSH1 0x40 DUP4 DUP6 SUB SLT ISZERO PUSH2 0x39A3 JUMPI PUSH2 0x39A2 PUSH2 0x36F5 JUMP JUMPDEST JUMPDEST PUSH0 PUSH2 0x39B0 DUP6 DUP3 DUP7 ADD PUSH2 0x383D JUMP JUMPDEST SWAP3 POP POP PUSH1 0x20 DUP4 ADD CALLDATALOAD PUSH8 0xFFFFFFFFFFFFFFFF DUP2 GT ISZERO PUSH2 0x39D1 JUMPI PUSH2 0x39D0 PUSH2 0x36F9 JUMP JUMPDEST JUMPDEST PUSH2 0x39DD DUP6 DUP3 DUP7 ADD PUSH2 0x3960 JUMP JUMPDEST SWAP2 POP POP SWAP3 POP SWAP3 SWAP1 POP JUMP JUMPDEST PUSH2 0x39F0 DUP2 PUSH2 0x36B9 JUMP JUMPDEST DUP2 EQ PUSH2 0x39FA JUMPI PUSH0 DUP1 REVERT JUMPDEST POP JUMP JUMPDEST PUSH0 DUP2 CALLDATALOAD SWAP1 POP PUSH2 0x3A0B DUP2 PUSH2 0x39E7 JUMP JUMPDEST SWAP3 SWAP2 POP POP JUMP JUMPDEST PUSH0 DUP1 PUSH1 0x40 DUP4 DUP6 SUB SLT ISZERO PUSH2 0x3A27 JUMPI PUSH2 0x3A26 PUSH2 0x36F5 JUMP JUMPDEST JUMPDEST PUSH0 DUP4 ADD CALLDATALOAD PUSH8 0xFFFFFFFFFFFFFFFF DUP2 GT ISZERO PUSH2 0x3A44 JUMPI PUSH2 0x3A43 PUSH2 0x36F9 JUMP JUMPDEST JUMPDEST PUSH2 0x3A50 DUP6 DUP3 DUP7 ADD PUSH2 0x3960 JUMP JUMPDEST SWAP3 POP POP PUSH1 0x20 PUSH2 0x3A61 DUP6 DUP3 DUP7 ADD PUSH2 0x39FD JUMP JUMPDEST SWAP2 POP POP SWAP3 POP SWAP3 SWAP1 POP JUMP JUMPDEST PUSH2 0x3A74 DUP2 PUSH2 0x371C JUMP JUMPDEST DUP3 MSTORE POP POP JUMP JUMPDEST PUSH0 PUSH1 0x20 DUP3 ADD SWAP1 POP PUSH2 0x3A8D PUSH0 DUP4 ADD DUP5 PUSH2 0x3A6B JUMP JUMPDEST SWAP3 SWAP2 POP POP JUMP JUMPDEST PUSH0 PUSH1 0x20 DUP3 DUP5 SUB SLT ISZERO PUSH2 0x3AA8 JUMPI PUSH2 0x3AA7 PUSH2 0x36F5 JUMP JUMPDEST JUMPDEST PUSH0 PUSH2 0x3AB5 DUP5 DUP3 DUP6 ADD PUSH2 0x383D JUMP JUMPDEST SWAP2 POP POP SWAP3 SWAP2 POP POP JUMP JUMPDEST PUSH0 DUP1 PUSH1 0x40 DUP4 DUP6 SUB SLT ISZERO PUSH2 0x3AD4 JUMPI PUSH2 0x3AD3 PUSH2 0x36F5 JUMP JUMPDEST JUMPDEST PUSH0 PUSH2 0x3AE1 DUP6 DUP3 DUP7 ADD PUSH2 0x383D JUMP JUMPDEST SWAP3 POP POP PUSH1 0x20 PUSH2 0x3AF2 DUP6 DUP3 DUP7 ADD PUSH2 0x383D JUMP JUMPDEST SWAP2 POP POP SWAP3 POP SWAP3 SWAP1 POP JUMP JUMPDEST PUSH0 PUSH1 0x20 DUP3 DUP5 SUB SLT ISZERO PUSH2 0x3B11 JUMPI PUSH2 0x3B10 PUSH2 0x36F5 JUMP JUMPDEST JUMPDEST PUSH0 DUP3 ADD CALLDATALOAD PUSH8 0xFFFFFFFFFFFFFFFF DUP2 GT ISZERO PUSH2 0x3B2E JUMPI PUSH2 0x3B2D PUSH2 0x36F9 JUMP JUMPDEST JUMPDEST PUSH2 0x3B3A DUP5 DUP3 DUP6 ADD PUSH2 0x3960 JUMP JUMPDEST SWAP2 POP POP SWAP3 SWAP2 POP POP JUMP JUMPDEST PUSH0 DUP1 PUSH0 DUP1 PUSH1 0x80 DUP6 DUP8 SUB SLT ISZERO PUSH2 0x3B5B JUMPI PUSH2 0x3B5A PUSH2 0x36F5 JUMP JUMPDEST JUMPDEST PUSH0 DUP6 ADD CALLDATALOAD PUSH8 0xFFFFFFFFFFFFFFFF DUP2 GT ISZERO PUSH2 0x3B78 JUMPI PUSH2 0x3B77 PUSH2 0x36F9 JUMP JUMPDEST JUMPDEST PUSH2 0x3B84 DUP8 DUP3 DUP9 ADD PUSH2 0x3960 JUMP JUMPDEST SWAP5 POP POP PUSH1 0x20 DUP6 ADD CALLDATALOAD PUSH8 0xFFFFFFFFFFFFFFFF DUP2 GT ISZERO PUSH2 0x3BA5 JUMPI PUSH2 0x3BA4 PUSH2 0x36F9 JUMP JUMPDEST JUMPDEST PUSH2 0x3BB1 DUP8 DUP3 DUP9 ADD PUSH2 0x3960 JUMP JUMPDEST SWAP4 POP POP PUSH1 0x40 DUP6 ADD CALLDATALOAD PUSH8 0xFFFFFFFFFFFFFFFF DUP2 GT ISZERO PUSH2 0x3BD2 JUMPI PUSH2 0x3BD1 PUSH2 0x36F9 JUMP JUMPDEST JUMPDEST PUSH2 0x3BDE DUP8 DUP3 DUP9 ADD PUSH2 0x3960 JUMP JUMPDEST SWAP3 POP POP PUSH1 0x60 DUP6 ADD CALLDATALOAD PUSH8 0xFFFFFFFFFFFFFFFF DUP2 GT ISZERO PUSH2 0x3BFF JUMPI PUSH2 0x3BFE PUSH2 0x36F9 JUMP JUMPDEST JUMPDEST PUSH2 0x3C0B DUP8 DUP3 DUP9 ADD PUSH2 0x3960 JUMP JUMPDEST SWAP2 POP POP SWAP3 SWAP6 SWAP2 SWAP5 POP SWAP3 POP JUMP JUMPDEST PUSH0 DUP2 MLOAD SWAP1 POP SWAP2 SWAP1 POP JUMP JUMPDEST PUSH0 DUP3 DUP3 MSTORE PUSH1 0x20 DUP3 ADD SWAP1 POP SWAP3 SWAP2 POP POP JUMP JUMPDEST PUSH0 JUMPDEST DUP4 DUP2 LT ISZERO PUSH2 0x3C4E JUMPI DUP1 DUP3 ADD MLOAD DUP2 DUP5 ADD MSTORE PUSH1 0x20 DUP2 ADD SWAP1 POP PUSH2 0x3C33 JUMP JUMPDEST PUSH0 DUP5 DUP5 ADD MSTORE POP POP POP POP JUMP JUMPDEST PUSH0 PUSH2 0x3C63 DUP3 PUSH2 0x3C17 JUMP JUMPDEST PUSH2 0x3C6D DUP2 DUP6 PUSH2 0x3C21 JUMP JUMPDEST SWAP4 POP PUSH2 0x3C7D DUP2 DUP6 PUSH1 0x20 DUP7 ADD PUSH2 0x3C31 JUMP JUMPDEST PUSH2 0x3C86 DUP2 PUSH2 0x3859 JUMP JUMPDEST DUP5 ADD SWAP2 POP POP SWAP3 SWAP2 POP POP JUMP JUMPDEST PUSH0 PUSH2 0x160 DUP3 ADD SWAP1 POP DUP2 DUP2 SUB PUSH0 DUP4 ADD MSTORE PUSH2 0x3CAA DUP2 DUP15 PUSH2 0x3C59 JUMP JUMPDEST SWAP1 POP DUP2 DUP2 SUB PUSH1 0x20 DUP4 ADD MSTORE PUSH2 0x3CBE DUP2 DUP14 PUSH2 0x3C59 JUMP JUMPDEST SWAP1 POP DUP2 DUP2 SUB PUSH1 0x40 DUP4 ADD MSTORE PUSH2 0x3CD2 DUP2 DUP13 PUSH2 0x3C59 JUMP JUMPDEST SWAP1 POP DUP2 DUP2 SUB PUSH1 0x60 DUP4 ADD MSTORE PUSH2 0x3CE6 DUP2 DUP12 PUSH2 0x3C59 JUMP JUMPDEST SWAP1 POP DUP2 DUP2 SUB PUSH1 0x80 DUP4 ADD MSTORE PUSH2 0x3CFA DUP2 DUP11 PUSH2 0x3C59 JUMP JUMPDEST SWAP1 POP DUP2 DUP2 SUB PUSH1 0xA0 DUP4 ADD MSTORE PUSH2 0x3D0E DUP2 DUP10 PUSH2 0x3C59 JUMP JUMPDEST SWAP1 POP DUP2 DUP2 SUB PUSH1 0xC0 DUP4 ADD MSTORE PUSH2 0x3D22 DUP2 DUP9 PUSH2 0x3C59 JUMP JUMPDEST SWAP1 POP PUSH2 0x3D31 PUSH1 0xE0 DUP4 ADD DUP8 PUSH2 0x3A6B JUMP JUMPDEST PUSH2 0x3D3F PUSH2 0x100 DUP4 ADD DUP7 PUSH2 0x378B JUMP JUMPDEST PUSH2 0x3D4D PUSH2 0x120 DUP4 ADD DUP6 PUSH2 0x378B JUMP JUMPDEST PUSH2 0x3D5B PUSH2 0x140 DUP4 ADD DUP5 PUSH2 0x378B JUMP JUMPDEST SWAP13 SWAP12 POP POP POP POP POP POP POP POP POP POP POP POP JUMP JUMPDEST PUSH32 0x4F6E6C792063726561746F722063616E20757064617465000000000000000000 PUSH0 DUP3 ADD MSTORE POP JUMP JUMPDEST PUSH0 PUSH2 0x3D9F PUSH1 0x17 DUP4 PUSH2 0x3C21 JUMP JUMPDEST SWAP2 POP PUSH2 0x3DAA DUP3 PUSH2 0x3D6B JUMP JUMPDEST PUSH1 0x20 DUP3 ADD SWAP1 POP SWAP2 SWAP1 POP JUMP JUMPDEST PUSH0 PUSH1 0x20 DUP3 ADD SWAP1 POP DUP2 DUP2 SUB PUSH0 DUP4 ADD MSTORE PUSH2 0x3DCC DUP2 PUSH2 0x3D93 JUMP JUMPDEST SWAP1 POP SWAP2 SWAP1 POP JUMP JUMPDEST PUSH32 0x4E487B7100000000000000000000000000000000000000000000000000000000 PUSH0 MSTORE PUSH1 0x22 PUSH1 0x4 MSTORE PUSH1 0x24 PUSH0 REVERT JUMPDEST PUSH0 PUSH1 0x2 DUP3 DIV SWAP1 POP PUSH1 0x1 DUP3 AND DUP1 PUSH2 0x3E17 JUMPI PUSH1 0x7F DUP3 AND SWAP2 POP JUMPDEST PUSH1 0x20 DUP3 LT DUP2 SUB PUSH2 0x3E2A JUMPI PUSH2 0x3E29 PUSH2 0x3DD3 JUMP JUMPDEST JUMPDEST POP SWAP2 SWAP1 POP JUMP JUMPDEST PUSH0 DUP2 SWAP1 POP DUP2 PUSH0 MSTORE PUSH1 0x20 PUSH0 KECCAK256 SWAP1 POP SWAP2 SWAP1 POP JUMP JUMPDEST PUSH0 PUSH1 0x20 PUSH1 0x1F DUP4 ADD DIV SWAP1 POP SWAP2 SWAP1 POP JUMP JUMPDEST PUSH0 DUP3 DUP3 SHL SWAP1 POP SWAP3 SWAP2 POP POP JUMP JUMPDEST PUSH0 PUSH1 0x8 DUP4 MUL PUSH2 0x3E8C PUSH32 0xFFFFFFFFFFFFFFFFFFFFFFFFFFFFFFFFFFFFFFFFFFFFFFFFFFFFFFFFFFFFFFFF DUP3 PUSH2 0x3E51 JUMP JUMPDEST PUSH2 0x3E96 DUP7 DUP4 PUSH2 0x3E51 JUMP JUMPDEST SWAP6 POP DUP1 NOT DUP5 AND SWAP4 POP DUP1 DUP7 AND DUP5 OR SWAP3 POP POP POP SWAP4 SWAP3 POP POP POP JUMP JUMPDEST PUSH0 PUSH2 0x3EC8 PUSH2 0x3EC3 PUSH2 0x3EBE DUP5 PUSH2 0x3782 JUMP JUMPDEST PUSH2 0x37B3 JUMP JUMPDEST PUSH2 0x3782 JUMP JUMPDEST SWAP1 POP SWAP2 SWAP1 POP JUMP JUMPDEST PUSH0 DUP2 SWAP1 POP SWAP2 SWAP1 POP JUMP JUMPDEST PUSH2 0x3EE1 DUP4 PUSH2 0x3EAE JUMP JUMPDEST PUSH2 0x3EF5 PUSH2 0x3EED DUP3 PUSH2 0x3ECF JUMP JUMPDEST DUP5 DUP5 SLOAD PUSH2 0x3E5D JUMP JUMPDEST DUP3 SSTORE POP POP POP POP JUMP JUMPDEST PUSH0 SWAP1 JUMP JUMPDEST PUSH2 0x3F09 PUSH2 0x3EFD JUMP JUMPDEST PUSH2 0x3F14 DUP2 DUP5 DUP5 PUSH2 0x3ED8 JUMP JUMPDEST POP POP POP JUMP JUMPDEST JUMPDEST DUP2 DUP2 LT ISZERO PUSH2 0x3F37 JUMPI PUSH2 0x3F2C PUSH0 DUP3 PUSH2 0x3F01 JUMP JUMPDEST PUSH1 0x1 DUP2 ADD SWAP1 POP PUSH2 0x3F1A JUMP JUMPDEST POP POP JUMP JUMPDEST PUSH1 0x1F DUP3 GT ISZERO PUSH2 0x3F7C JUMPI PUSH2 0x3F4D DUP2 PUSH2 0x3E30 JUMP JUMPDEST PUSH2 0x3F56 DUP5 PUSH2 0x3E42 JUMP JUMPDEST DUP2 ADD PUSH1 0x20 DUP6 LT ISZERO PUSH2 0x3F65 JUMPI DUP2 SWAP1 POP JUMPDEST PUSH2 0x3F79 PUSH2 0x3F71 DUP6 PUSH2 0x3E42 JUMP JUMPDEST DUP4 ADD DUP3 PUSH2 0x3F19 JUMP JUMPDEST POP POP JUMPDEST POP POP POP JUMP JUMPDEST PUSH0 DUP3 DUP3 SHR SWAP1 POP SWAP3 SWAP2 POP POP JUMP JUMPDEST PUSH0 PUSH2 0x3F9C PUSH0 NOT DUP5 PUSH1 0x8 MUL PUSH2 0x3F81 JUMP JUMPDEST NOT DUP1 DUP4 AND SWAP2 POP POP SWAP3 SWAP2 POP POP JUMP JUMPDEST PUSH0 PUSH2 0x3FB4 DUP4 DUP4 PUSH2 0x3F8D JUMP JUMPDEST SWAP2 POP DUP3 PUSH1 0x2 MUL DUP3 OR SWAP1 POP SWAP3 SWAP2 POP POP JUMP JUMPDEST PUSH2 0x3FCD DUP3 PUSH2 0x3C17 JUMP JUMPDEST PUSH8 0xFFFFFFFFFFFFFFFF DUP2 GT ISZERO PUSH2 0x3FE6 JUMPI PUSH2 0x3FE5 PUSH2 0x3869 JUMP JUMPDEST JUMPDEST PUSH2 0x3FF0 DUP3 SLOAD PUSH2 0x3E00 JUMP JUMPDEST PUSH2 0x3FFB DUP3 DUP3 DUP6 PUSH2 0x3F3B JUMP JUMPDEST PUSH0 PUSH1 0x20 SWAP1 POP PUSH1 0x1F DUP4 GT PUSH1 0x1 DUP2 EQ PUSH2 0x402C JUMPI PUSH0 DUP5 ISZERO PUSH2 0x401A JUMPI DUP3 DUP8 ADD MLOAD SWAP1 POP JUMPDEST PUSH2 0x4024 DUP6 DUP3 PUSH2 0x3FA9 JUMP JUMPDEST DUP7 SSTORE POP PUSH2 0x408B JUMP JUMPDEST PUSH1 0x1F NOT DUP5 AND PUSH2 0x403A DUP7 PUSH2 0x3E30 JUMP JUMPDEST PUSH0 JUMPDEST DUP3 DUP2 LT ISZERO PUSH2 0x4061 JUMPI DUP5 DUP10 ADD MLOAD DUP3 SSTORE PUSH1 0x1 DUP3 ADD SWAP2 POP PUSH1 0x20 DUP6 ADD SWAP5 POP PUSH1 0x20 DUP2 ADD SWAP1 POP PUSH2 0x403C JUMP JUMPDEST DUP7 DUP4 LT ISZERO PUSH2 0x407E JUMPI DUP5 DUP10 ADD MLOAD PUSH2 0x407A PUSH1 0x1F DUP10 AND DUP3 PUSH2 0x3F8D JUMP JUMPDEST DUP4 SSTORE POP JUMPDEST PUSH1 0x1 PUSH1 0x2 DUP9 MUL ADD DUP9 SSTORE POP POP POP JUMPDEST POP POP POP POP POP POP JUMP JUMPDEST PUSH32 0x4F6E6C792061646D696E2063616E20706572666F726D20746869732061637469 PUSH0 DUP3 ADD MSTORE PUSH32 0x6F6E000000000000000000000000000000000000000000000000000000000000 PUSH1 0x20 DUP3 ADD MSTORE POP JUMP JUMPDEST PUSH0 PUSH2 0x40ED PUSH1 0x22 DUP4 PUSH2 0x3C21 JUMP JUMPDEST SWAP2 POP PUSH2 0x40F8 DUP3 PUSH2 0x4093 JUMP JUMPDEST PUSH1 0x40 DUP3 ADD SWAP1 POP SWAP2 SWAP1 POP JUMP JUMPDEST PUSH0 PUSH1 0x20 DUP3 ADD SWAP1 POP DUP2 DUP2 SUB PUSH0 DUP4 ADD MSTORE PUSH2 0x411A DUP2 PUSH2 0x40E1 JUMP JUMPDEST SWAP1 POP SWAP2 SWAP1 POP JUMP JUMPDEST PUSH32 0x41646D696E2063616E206F6E6C7920746F67676C65206368616E67655365636F PUSH0 DUP3 ADD MSTORE PUSH32 0x6E6441646D696E00000000000000000000000000000000000000000000000000 PUSH1 0x20 DUP3 ADD MSTORE POP JUMP JUMPDEST PUSH0 PUSH2 0x417B PUSH1 0x27 DUP4 PUSH2 0x3C21 JUMP JUMPDEST SWAP2 POP PUSH2 0x4186 DUP3 PUSH2 0x4121 JUMP JUMPDEST PUSH1 0x40 DUP3 ADD SWAP1 POP SWAP2 SWAP1 POP JUMP JUMPDEST PUSH0 PUSH1 0x20 DUP3 ADD SWAP1 POP DUP2 DUP2 SUB PUSH0 DUP4 ADD MSTORE PUSH2 0x41A8 DUP2 PUSH2 0x416F JUMP JUMPDEST SWAP1 POP SWAP2 SWAP1 POP JUMP JUMPDEST PUSH0 DUP2 SWAP1 POP SWAP3 SWAP2 POP POP JUMP JUMPDEST PUSH0 PUSH2 0x41C3 DUP3 PUSH2 0x3C17 JUMP JUMPDEST PUSH2 0x41CD DUP2 DUP6 PUSH2 0x41AF JUMP JUMPDEST SWAP4 POP PUSH2 0x41DD DUP2 DUP6 PUSH1 0x20 DUP7 ADD PUSH2 0x3C31 JUMP JUMPDEST DUP1 DUP5 ADD SWAP2 POP POP SWAP3 SWAP2 POP POP JUMP JUMPDEST PUSH0 PUSH2 0x41F4 DUP3 DUP5 PUSH2 0x41B9 JUMP JUMPDEST SWAP2 POP DUP2 SWAP1 POP SWAP3 SWAP2 POP POP JUMP JUMPDEST PUSH32 0x46756E6374696F6E2069732064697361626C6564000000000000000000000000 PUSH0 DUP3 ADD MSTORE POP JUMP JUMPDEST PUSH0 PUSH2 0x4233 PUSH1 0x14 DUP4 PUSH2 0x3C21 JUMP JUMPDEST SWAP2 POP PUSH2 0x423E DUP3 PUSH2 0x41FF JUMP JUMPDEST PUSH1 0x20 DUP3 ADD SWAP1 POP SWAP2 SWAP1 POP JUMP JUMPDEST PUSH0 PUSH1 0x20 DUP3 ADD SWAP1 POP DUP2 DUP2 SUB PUSH0 DUP4 ADD MSTORE PUSH2 0x4260 DUP2 PUSH2 0x4227 JUMP JUMPDEST SWAP1 POP SWAP2 SWAP1 POP JUMP JUMPDEST PUSH32 0x456C656D656E74206973206E6F742070656E64696E6720617070726F76616C00 PUSH0 DUP3 ADD MSTORE POP JUMP JUMPDEST PUSH0 PUSH2 0x429B PUSH1 0x1F DUP4 PUSH2 0x3C21 JUMP JUMPDEST SWAP2 POP PUSH2 0x42A6 DUP3 PUSH2 0x4267 JUMP JUMPDEST PUSH1 0x20 DUP3 ADD SWAP1 POP SWAP2 SWAP1 POP JUMP JUMPDEST PUSH0 PUSH1 0x20 DUP3 ADD SWAP1 POP DUP2 DUP2 SUB PUSH0 DUP4 ADD MSTORE PUSH2 0x42C8 DUP2 PUSH2 0x428F JUMP JUMPDEST SWAP1 POP SWAP2 SWAP1 POP JUMP JUMPDEST PUSH32 0x4E487B7100000000000000000000000000000000000000000000000000000000 PUSH0 MSTORE PUSH1 0x11 PUSH1 0x4 MSTORE PUSH1 0x24 PUSH0 REVERT JUMPDEST PUSH0 PUSH2 0x4306 DUP3 PUSH2 0x3782 JUMP JUMPDEST SWAP2 POP PUSH2 0x4311 DUP4 PUSH2 0x3782 JUMP JUMPDEST SWAP3 POP DUP3 DUP3 SUB SWAP1 POP DUP2 DUP2 GT ISZERO PUSH2 0x4329 JUMPI PUSH2 0x4328 PUSH2 0x42CF JUMP JUMPDEST JUMPDEST SWAP3 SWAP2 POP POP JUMP JUMPDEST PUSH0 PUSH2 0x4339 DUP3 PUSH2 0x3782 JUMP JUMPDEST SWAP2 POP PUSH2 0x4344 DUP4 PUSH2 0x3782 JUMP JUMPDEST SWAP3 POP DUP3 DUP3 MUL PUSH2 0x4352 DUP2 PUSH2 0x3782 JUMP JUMPDEST SWAP2 POP DUP3 DUP3 DIV DUP5 EQ DUP4 ISZERO OR PUSH2 0x4369 JUMPI PUSH2 0x4368 PUSH2 0x42CF JUMP JUMPDEST JUMPDEST POP SWAP3 SWAP2 POP POP JUMP JUMPDEST PUSH32 0x4E487B7100000000000000000000000000000000000000000000000000000000 PUSH0 MSTORE PUSH1 0x12 PUSH1 0x4 MSTORE PUSH1 0x24 PUSH0 REVERT JUMPDEST PUSH0 PUSH2 0x43A7 DUP3 PUSH2 0x3782 JUMP JUMPDEST SWAP2 POP PUSH2 0x43B2 DUP4 PUSH2 0x3782 JUMP JUMPDEST SWAP3 POP DUP3 PUSH2 0x43C2 JUMPI PUSH2 0x43C1 PUSH2 0x4370 JUMP JUMPDEST JUMPDEST DUP3 DUP3 DIV SWAP1 POP SWAP3 SWAP2 POP POP JUMP JUMPDEST PUSH32 0x4D696E696D756D20756E7374616B6520616D6F756E74206973203120746F6B65 PUSH0 DUP3 ADD MSTORE PUSH32 0x6E00000000000000000000000000000000000000000000000000000000000000 PUSH1 0x20 DUP3 ADD MSTORE POP JUMP JUMPDEST PUSH0 PUSH2 0x4427 PUSH1 0x21 DUP4 PUSH2 0x3C21 JUMP JUMPDEST SWAP2 POP PUSH2 0x4432 DUP3 PUSH2 0x43CD JUMP JUMPDEST PUSH1 0x40 DUP3 ADD SWAP1 POP SWAP2 SWAP1 POP JUMP JUMPDEST PUSH0 PUSH1 0x20 DUP3 ADD SWAP1 POP DUP2 DUP2 SUB PUSH0 DUP4 ADD MSTORE PUSH2 0x4454 DUP2 PUSH2 0x441B JUMP JUMPDEST SWAP1 POP SWAP2 SWAP1 POP JUMP JUMPDEST PUSH32 0x496E73756666696369656E74207374616B656420616D6F756E74000000000000 PUSH0 DUP3 ADD MSTORE POP JUMP JUMPDEST PUSH0 PUSH2 0x448F PUSH1 0x1A DUP4 PUSH2 0x3C21 JUMP JUMPDEST SWAP2 POP PUSH2 0x449A DUP3 PUSH2 0x445B JUMP JUMPDEST PUSH1 0x20 DUP3 ADD SWAP1 POP SWAP2 SWAP1 POP JUMP JUMPDEST PUSH0 PUSH1 0x20 DUP3 ADD SWAP1 POP DUP2 DUP2 SUB PUSH0 DUP4 ADD MSTORE PUSH2 0x44BC DUP2 PUSH2 0x4483 JUMP JUMPDEST SWAP1 POP SWAP2 SWAP1 POP JUMP JUMPDEST PUSH32 0x4F6E6C79207365636F6E642061646D696E2063616E20706572666F726D207468 PUSH0 DUP3 ADD MSTORE PUSH32 0x697320616374696F6E0000000000000000000000000000000000000000000000 PUSH1 0x20 DUP3 ADD MSTORE POP JUMP JUMPDEST PUSH0 PUSH2 0x451D PUSH1 0x29 DUP4 PUSH2 0x3C21 JUMP JUMPDEST SWAP2 POP PUSH2 0x4528 DUP3 PUSH2 0x44C3 JUMP JUMPDEST PUSH1 0x40 DUP3 ADD SWAP1 POP SWAP2 SWAP1 POP JUMP JUMPDEST PUSH0 PUSH1 0x20 DUP3 ADD SWAP1 POP DUP2 DUP2 SUB PUSH0 DUP4 ADD MSTORE PUSH2 0x454A DUP2 PUSH2 0x4511 JUMP JUMPDEST SWAP1 POP SWAP2 SWAP1 POP JUMP JUMPDEST PUSH32 0x5365636F6E642061646D696E2063616E6E6F7420746F67676C65206368616E67 PUSH0 DUP3 ADD MSTORE PUSH32 0x655365636F6E6441646D696E0000000000000000000000000000000000000000 PUSH1 0x20 DUP3 ADD MSTORE POP JUMP JUMPDEST PUSH0 PUSH2 0x45AB PUSH1 0x2C DUP4 PUSH2 0x3C21 JUMP JUMPDEST SWAP2 POP PUSH2 0x45B6 DUP3 PUSH2 0x4551 JUMP JUMPDEST PUSH1 0x40 DUP3 ADD SWAP1 POP SWAP2 SWAP1 POP JUMP JUMPDEST PUSH0 PUSH1 0x20 DUP3 ADD SWAP1 POP DUP2 DUP2 SUB PUSH0 DUP4 ADD MSTORE PUSH2 0x45D8 DUP2 PUSH2 0x459F JUMP JUMPDEST SWAP1 POP SWAP2 SWAP1 POP JUMP JUMPDEST PUSH32 0x456C656D656E7420697320616C726561647920696E2074686520507265737469 PUSH0 DUP3 ADD MSTORE PUSH32 0x6765207068617365000000000000000000000000000000000000000000000000 PUSH1 0x20 DUP3 ADD MSTORE POP JUMP JUMPDEST PUSH0 PUSH2 0x4639 PUSH1 0x28 DUP4 PUSH2 0x3C21 JUMP JUMPDEST SWAP2 POP PUSH2 0x4644 DUP3 PUSH2 0x45DF JUMP JUMPDEST PUSH1 0x40 DUP3 ADD SWAP1 POP SWAP2 SWAP1 POP JUMP JUMPDEST PUSH0 PUSH1 0x20 DUP3 ADD SWAP1 POP DUP2 DUP2 SUB PUSH0 DUP4 ADD MSTORE PUSH2 0x4666 DUP2 PUSH2 0x462D JUMP JUMPDEST SWAP1 POP SWAP2 SWAP1 POP JUMP JUMPDEST PUSH0 PUSH2 0x4677 DUP3 PUSH2 0x3782 JUMP JUMPDEST SWAP2 POP PUSH2 0x4682 DUP4 PUSH2 0x3782 JUMP JUMPDEST SWAP3 POP DUP3 DUP3 ADD SWAP1 POP DUP1 DUP3 GT ISZERO PUSH2 0x469A JUMPI PUSH2 0x4699 PUSH2 0x42CF JUMP JUMPDEST JUMPDEST SWAP3 SWAP2 POP POP JUMP JUMPDEST PUSH0 PUSH2 0x46AA DUP3 PUSH2 0x3782 JUMP JUMPDEST SWAP2 POP PUSH32 0xFFFFFFFFFFFFFFFFFFFFFFFFFFFFFFFFFFFFFFFFFFFFFFFFFFFFFFFFFFFFFFFF DUP3 SUB PUSH2 0x46DC JUMPI PUSH2 0x46DB PUSH2 0x42CF JUMP JUMPDEST JUMPDEST PUSH1 0x1 DUP3 ADD SWAP1 POP SWAP2 SWAP1 POP JUMP JUMPDEST PUSH32 0x4E487B7100000000000000000000000000000000000000000000000000000000 PUSH0 MSTORE PUSH1 0x21 PUSH1 0x4 MSTORE PUSH1 0x24 PUSH0 REVERT JUMPDEST PUSH32 0x416D6F756E74206D7573742062652067726561746572207468616E207A65726F PUSH0 DUP3 ADD MSTORE POP JUMP JUMPDEST PUSH0 PUSH2 0x4748 PUSH1 0x20 DUP4 PUSH2 0x3C21 JUMP JUMPDEST SWAP2 POP PUSH2 0x4753 DUP3 PUSH2 0x4714 JUMP JUMPDEST PUSH1 0x20 DUP3 ADD SWAP1 POP SWAP2 SWAP1 POP JUMP JUMPDEST PUSH0 PUSH1 0x20 DUP3 ADD SWAP1 POP DUP2 DUP2 SUB PUSH0 DUP4 ADD MSTORE PUSH2 0x4775 DUP2 PUSH2 0x473C JUMP JUMPDEST SWAP1 POP SWAP2 SWAP1 POP JUMP JUMPDEST PUSH32 0x496E73756666696369656E7420766F74696E6720706F77657200000000000000 PUSH0 DUP3 ADD MSTORE POP JUMP JUMPDEST PUSH0 PUSH2 0x47B0 PUSH1 0x19 DUP4 PUSH2 0x3C21 JUMP JUMPDEST SWAP2 POP PUSH2 0x47BB DUP3 PUSH2 0x477C JUMP JUMPDEST PUSH1 0x20 DUP3 ADD SWAP1 POP SWAP2 SWAP1 POP JUMP JUMPDEST PUSH0 PUSH1 0x20 DUP3 ADD SWAP1 POP DUP2 DUP2 SUB PUSH0 DUP4 ADD MSTORE PUSH2 0x47DD DUP2 PUSH2 0x47A4 JUMP JUMPDEST SWAP1 POP SWAP2 SWAP1 POP JUMP JUMPDEST PUSH32 0x5374616B696E672069732064697361626C656400000000000000000000000000 PUSH0 DUP3 ADD MSTORE POP JUMP JUMPDEST PUSH0 PUSH2 0x4818 PUSH1 0x13 DUP4 PUSH2 0x3C21 JUMP JUMPDEST SWAP2 POP PUSH2 0x4823 DUP3 PUSH2 0x47E4 JUMP JUMPDEST PUSH1 0x20 DUP3 ADD SWAP1 POP SWAP2 SWAP1 POP JUMP JUMPDEST PUSH0 PUSH1 0x20 DUP3 ADD SWAP1 POP DUP2 DUP2 SUB PUSH0 DUP4 ADD MSTORE PUSH2 0x4845 DUP2 PUSH2 0x480C JUMP JUMPDEST SWAP1 POP SWAP2 SWAP1 POP JUMP JUMPDEST PUSH32 0x4D696E696D756D207374616B6520616D6F756E74206973203120746F6B656E00 PUSH0 DUP3 ADD MSTORE POP JUMP JUMPDEST PUSH0 PUSH2 0x4880 PUSH1 0x1F DUP4 PUSH2 0x3C21 JUMP JUMPDEST SWAP2 POP PUSH2 0x488B DUP3 PUSH2 0x484C JUMP JUMPDEST PUSH1 0x20 DUP3 ADD SWAP1 POP SWAP2 SWAP1 POP JUMP JUMPDEST PUSH0 PUSH1 0x20 DUP3 ADD SWAP1 POP DUP2 DUP2 SUB PUSH0 DUP4 ADD MSTORE PUSH2 0x48AD DUP2 PUSH2 0x4874 JUMP JUMPDEST SWAP1 POP SWAP2 SWAP1 POP JUMP JUMPDEST PUSH0 DUP2 MLOAD SWAP1 POP PUSH2 0x48C2 DUP2 PUSH2 0x3827 JUMP JUMPDEST SWAP3 SWAP2 POP POP JUMP JUMPDEST PUSH0 PUSH1 0x20 DUP3 DUP5 SUB SLT ISZERO PUSH2 0x48DD JUMPI PUSH2 0x48DC PUSH2 0x36F5 JUMP JUMPDEST JUMPDEST PUSH0 PUSH2 0x48EA DUP5 DUP3 DUP6 ADD PUSH2 0x48B4 JUMP JUMPDEST SWAP2 POP POP SWAP3 SWAP2 POP POP JUMP JUMPDEST PUSH32 0x496E73756666696369656E7420746F6B656E7320746F2063726561746520656C PUSH0 DUP3 ADD MSTORE PUSH32 0x656D656E74000000000000000000000000000000000000000000000000000000 PUSH1 0x20 DUP3 ADD MSTORE POP JUMP JUMPDEST PUSH0 PUSH2 0x494D PUSH1 0x25 DUP4 PUSH2 0x3C21 JUMP JUMPDEST SWAP2 POP PUSH2 0x4958 DUP3 PUSH2 0x48F3 JUMP JUMPDEST PUSH1 0x40 DUP3 ADD SWAP1 POP SWAP2 SWAP1 POP JUMP JUMPDEST PUSH0 PUSH1 0x20 DUP3 ADD SWAP1 POP DUP2 DUP2 SUB PUSH0 DUP4 ADD MSTORE PUSH2 0x497A DUP2 PUSH2 0x4941 JUMP JUMPDEST SWAP1 POP SWAP2 SWAP1 POP JUMP JUMPDEST PUSH0 PUSH1 0x40 DUP3 ADD SWAP1 POP PUSH2 0x4994 PUSH0 DUP4 ADD DUP6 PUSH2 0x378B JUMP JUMPDEST PUSH2 0x49A1 PUSH1 0x20 DUP4 ADD DUP5 PUSH2 0x3A6B JUMP JUMPDEST SWAP4 SWAP3 POP POP POP JUMP JUMPDEST PUSH32 0x4F6E6C792074686972642061646D696E2063616E20706572666F726D20746869 PUSH0 DUP3 ADD MSTORE PUSH32 0x7320616374696F6E000000000000000000000000000000000000000000000000 PUSH1 0x20 DUP3 ADD MSTORE POP JUMP JUMPDEST PUSH0 PUSH2 0x4A02 PUSH1 0x28 DUP4 PUSH2 0x3C21 JUMP JUMPDEST SWAP2 POP PUSH2 0x4A0D DUP3 PUSH2 0x49A8 JUMP JUMPDEST PUSH1 0x40 DUP3 ADD SWAP1 POP SWAP2 SWAP1 POP JUMP JUMPDEST PUSH0 PUSH1 0x20 DUP3 ADD SWAP1 POP DUP2 DUP2 SUB PUSH0 DUP4 ADD MSTORE PUSH2 0x4A2F DUP2 PUSH2 0x49F6 JUMP JUMPDEST SWAP1 POP SWAP2 SWAP1 POP JUMP JUMPDEST PUSH32 0x4E65772061646D696E20616464726573732063616E6E6F74206265207A65726F PUSH0 DUP3 ADD MSTORE POP JUMP JUMPDEST PUSH0 PUSH2 0x4A6A PUSH1 0x20 DUP4 PUSH2 0x3C21 JUMP JUMPDEST SWAP2 POP PUSH2 0x4A75 DUP3 PUSH2 0x4A36 JUMP JUMPDEST PUSH1 0x20 DUP3 ADD SWAP1 POP SWAP2 SWAP1 POP JUMP JUMPDEST PUSH0 PUSH1 0x20 DUP3 ADD SWAP1 POP DUP2 DUP2 SUB PUSH0 DUP4 ADD MSTORE PUSH2 0x4A97 DUP2 PUSH2 0x4A5E JUMP JUMPDEST SWAP1 POP SWAP2 SWAP1 POP JUMP JUMPDEST PUSH32 0x4E6F207374616B656420616D6F756E7400000000000000000000000000000000 PUSH0 DUP3 ADD MSTORE POP JUMP JUMPDEST PUSH0 PUSH2 0x4AD2 PUSH1 0x10 DUP4 PUSH2 0x3C21 JUMP JUMPDEST SWAP2 POP PUSH2 0x4ADD DUP3 PUSH2 0x4A9E JUMP JUMPDEST PUSH1 0x20 DUP3 ADD SWAP1 POP SWAP2 SWAP1 POP JUMP JUMPDEST PUSH0 PUSH1 0x20 DUP3 ADD SWAP1 POP DUP2 DUP2 SUB PUSH0 DUP4 ADD MSTORE PUSH2 0x4AFF DUP2 PUSH2 0x4AC6 JUMP JUMPDEST SWAP1 POP SWAP2 SWAP1 POP JUMP JUMPDEST PUSH32 0x43616E6E6F7420636C61696D206265666F72652061206D6F6E74680000000000 PUSH0 DUP3 ADD MSTORE POP JUMP JUMPDEST PUSH0 PUSH2 0x4B3A PUSH1 0x1B DUP4 PUSH2 0x3C21 JUMP JUMPDEST SWAP2 POP PUSH2 0x4B45 DUP3 PUSH2 0x4B06 JUMP JUMPDEST PUSH1 0x20 DUP3 ADD SWAP1 POP SWAP2 SWAP1 POP JUMP JUMPDEST PUSH0 PUSH1 0x20 DUP3 ADD SWAP1 POP DUP2 DUP2 SUB PUSH0 DUP4 ADD MSTORE PUSH2 0x4B67 DUP2 PUSH2 0x4B2E JUMP JUMPDEST SWAP1 POP SWAP2 SWAP1 POP JUMP JUMPDEST PUSH32 0x4E6577207365636F6E642061646D696E20616464726573732063616E6E6F7420 PUSH0 DUP3 ADD MSTORE PUSH32 0x6265207A65726F00000000000000000000000000000000000000000000000000 PUSH1 0x20 DUP3 ADD MSTORE POP JUMP JUMPDEST PUSH0 PUSH2 0x4BC8 PUSH1 0x27 DUP4 PUSH2 0x3C21 JUMP JUMPDEST SWAP2 POP PUSH2 0x4BD3 DUP3 PUSH2 0x4B6E JUMP JUMPDEST PUSH1 0x40 DUP3 ADD SWAP1 POP SWAP2 SWAP1 POP JUMP JUMPDEST PUSH0 PUSH1 0x20 DUP3 ADD SWAP1 POP DUP2 DUP2 SUB PUSH0 DUP4 ADD MSTORE PUSH2 0x4BF5 DUP2 PUSH2 0x4BBC JUMP JUMPDEST SWAP1 POP SWAP2 SWAP1 POP JUMP JUMPDEST PUSH32 0x5265656E7472616E637947756172643A207265656E7472616E742063616C6C00 PUSH0 DUP3 ADD MSTORE POP JUMP JUMPDEST PUSH0 PUSH2 0x4C30 PUSH1 0x1F DUP4 PUSH2 0x3C21 JUMP JUMPDEST SWAP2 POP PUSH2 0x4C3B DUP3 PUSH2 0x4BFC JUMP JUMPDEST PUSH1 0x20 DUP3 ADD SWAP1 POP SWAP2 SWAP1 POP JUMP JUMPDEST PUSH0 PUSH1 0x20 DUP3 ADD SWAP1 POP DUP2 DUP2 SUB PUSH0 DUP4 ADD MSTORE PUSH2 0x4C5D DUP2 PUSH2 0x4C24 JUMP JUMPDEST SWAP1 POP SWAP2 SWAP1 POP JUMP JUMPDEST PUSH0 PUSH1 0x40 DUP3 ADD SWAP1 POP PUSH2 0x4C77 PUSH0 DUP4 ADD DUP6 PUSH2 0x3A6B JUMP JUMPDEST PUSH2 0x4C84 PUSH1 0x20 DUP4 ADD DUP5 PUSH2 0x378B JUMP JUMPDEST SWAP4 SWAP3 POP POP POP JUMP JUMPDEST PUSH0 PUSH1 0x60 DUP3 ADD SWAP1 POP PUSH2 0x4C9E PUSH0 DUP4 ADD DUP7 PUSH2 0x3A6B JUMP JUMPDEST PUSH2 0x4CAB PUSH1 0x20 DUP4 ADD DUP6 PUSH2 0x3A6B JUMP JUMPDEST PUSH2 0x4CB8 PUSH1 0x40 DUP4 ADD DUP5 PUSH2 0x378B JUMP JUMPDEST SWAP5 SWAP4 POP POP POP POP JUMP JUMPDEST PUSH0 DUP2 MLOAD SWAP1 POP PUSH2 0x4CCE DUP2 PUSH2 0x39E7 JUMP JUMPDEST SWAP3 SWAP2 POP POP JUMP JUMPDEST PUSH0 PUSH1 0x20 DUP3 DUP5 SUB SLT ISZERO PUSH2 0x4CE9 JUMPI PUSH2 0x4CE8 PUSH2 0x36F5 JUMP JUMPDEST JUMPDEST PUSH0 PUSH2 0x4CF6 DUP5 DUP3 DUP6 ADD PUSH2 0x4CC0 JUMP JUMPDEST SWAP2 POP POP SWAP3 SWAP2 POP POP JUMP JUMPDEST PUSH0 DUP2 MLOAD SWAP1 POP SWAP2 SWAP1 POP JUMP JUMPDEST PUSH0 DUP2 SWAP1 POP SWAP3 SWAP2 POP POP JUMP JUMPDEST PUSH0 PUSH2 0x4D1D DUP3 PUSH2 0x4CFF JUMP JUMPDEST PUSH2 0x4D27 DUP2 DUP6 PUSH2 0x4D09 JUMP JUMPDEST SWAP4 POP PUSH2 0x4D37 DUP2 DUP6 PUSH1 0x20 DUP7 ADD PUSH2 0x3C31 JUMP JUMPDEST DUP1 DUP5 ADD SWAP2 POP POP SWAP3 SWAP2 POP POP JUMP JUMPDEST PUSH0 PUSH2 0x4D4E DUP3 DUP5 PUSH2 0x4D13 JUMP JUMPDEST SWAP2 POP DUP2 SWAP1 POP SWAP3 SWAP2 POP POP JUMP INVALID LOG2 PUSH5 0x6970667358 0x22 SLT KECCAK256 0xE SWAP7 PUSH10 0x2B36F8F35234272749E7 PUSH11 0x737227E045A89EA2A721EE PUSH20 0x8E8DAE3D11CF64736F6C63430008140033000000 "
		},
		"gasEstimates": {
			"creation": {
				"codeDepositCost": "3971000",
				"executionCost": "infinite",
				"totalCost": "infinite"
			},
			"external": {
				"ELEMENT_CREATION_COST()": "392",
				"MINIMUM_STAKE_AMOUNT()": "459",
				"SECONDS_IN_MONTH()": "infinite",
				"SECONDS_IN_YEAR()": "414",
				"admin()": "2691",
				"approveElement(uint256)": "infinite",
				"calculateMonthlyReward(uint256,uint256)": "infinite",
				"changeAdmin(address)": "infinite",
				"changeGeneralStatus()": "28856",
				"changeSecondAdmin(address)": "infinite",
				"claimMonthlyReward()": "infinite",
				"confirmUpdate(uint256)": "infinite",
				"createElement(string,string,string,string)": "infinite",
				"elementCount()": "2580",
				"elements(uint256)": "infinite",
				"functionStatus(string)": "infinite",
				"generalStatus()": "2513",
				"getAnnualRewardRate(uint256)": "infinite",
				"getClaimableReward(address)": "infinite",
				"getLastClaimedDate(address)": "2962",
				"getTotalStakedTokens()": "2499",
				"getTotalTokenBalance()": "infinite",
				"hasPendingApplication(address)": "infinite",
				"lastClaimed(address)": "2871",
				"lopToken()": "infinite",
				"refuseUpdate(uint256)": "infinite",
				"rejectElement(uint256)": "infinite",
				"removeElement(uint256)": "infinite",
				"secondAdmin()": "2598",
				"stakeTokens(uint256)": "infinite",
				"stakes(address)": "2937",
				"startingDate(address)": "2870",
				"thirdAdmin()": "2553",
				"toggleFunctionStatus(string,bool)": "infinite",
				"toggleFunctionStatusByAdmin(string,bool)": "infinite",
				"totalStakedTokens()": "2559",
				"updateElementExample(uint256,string)": "infinite",
				"updateElementMedia(uint256,string)": "infinite",
				"updateElementMetrics(uint256,string)": "infinite",
				"voteOnElement(uint256,uint256)": "infinite",
				"votingPower(address)": "2847",
				"withdrawStake(uint256)": "infinite"
			},
			"internal": {
				"distributeElementReward(uint256)": "infinite",
				"getTotalVotes()": "infinite"
			}
		},
		"methodIdentifiers": {
			"ELEMENT_CREATION_COST()": "c5e48e5a",
			"MINIMUM_STAKE_AMOUNT()": "84d804be",
			"SECONDS_IN_MONTH()": "27855b13",
			"SECONDS_IN_YEAR()": "5dcc9391",
			"admin()": "f851a440",
			"approveElement(uint256)": "c9b3829f",
			"calculateMonthlyReward(uint256,uint256)": "20cb13ab",
			"changeAdmin(address)": "8f283970",
			"changeGeneralStatus()": "8fddd022",
			"changeSecondAdmin(address)": "dd8087d1",
			"claimMonthlyReward()": "d4f1e386",
			"confirmUpdate(uint256)": "3b72bad5",
			"createElement(string,string,string,string)": "7cdd15c1",
			"elementCount()": "67be4673",
			"elements(uint256)": "e0d64b37",
			"functionStatus(string)": "613dab3e",
			"generalStatus()": "0053b4b3",
			"getAnnualRewardRate(uint256)": "f9089bf2",
			"getClaimableReward(address)": "5ff329af",
			"getLastClaimedDate(address)": "cc78d728",
			"getTotalStakedTokens()": "51d18598",
			"getTotalTokenBalance()": "d69eca4c",
			"hasPendingApplication(address)": "6b8d04fb",
			"lastClaimed(address)": "013eba92",
			"lopToken()": "0d67f59e",
			"refuseUpdate(uint256)": "36ead39f",
			"rejectElement(uint256)": "1faa1128",
			"removeElement(uint256)": "9fc37abf",
			"secondAdmin()": "1d32e9b3",
			"stakeTokens(uint256)": "7547c7a3",
			"stakes(address)": "16934fc4",
			"startingDate(address)": "1d002cc0",
			"thirdAdmin()": "8b52e06c",
			"toggleFunctionStatus(string,bool)": "2a9aaa76",
			"toggleFunctionStatusByAdmin(string,bool)": "17504b98",
			"totalStakedTokens()": "3ae73259",
			"updateElementExample(uint256,string)": "0dba280c",
			"updateElementMedia(uint256,string)": "c019963a",
			"updateElementMetrics(uint256,string)": "c7b3564e",
			"voteOnElement(uint256,uint256)": "72bae674",
			"votingPower(address)": "c07473f6",
			"withdrawStake(uint256)": "25d5971f"
		}
	},
	"abi": [
		{
			"inputs": [
				{
					"internalType": "address",
					"name": "_lopToken",
					"type": "address"
				},
				{
					"internalType": "address",
					"name": "_firstAdmin",
					"type": "address"
				},
				{
					"internalType": "address",
					"name": "_secondAdmin",
					"type": "address"
				},
				{
					"internalType": "address",
					"name": "_thirdAdmin",
					"type": "address"
				}
			],
			"stateMutability": "nonpayable",
			"type": "constructor"
		},
		{
			"inputs": [
				{
					"internalType": "address",
					"name": "target",
					"type": "address"
				}
			],
			"name": "AddressEmptyCode",
			"type": "error"
		},
		{
			"inputs": [
				{
					"internalType": "address",
					"name": "account",
					"type": "address"
				}
			],
			"name": "AddressInsufficientBalance",
			"type": "error"
		},
		{
			"inputs": [],
			"name": "FailedInnerCall",
			"type": "error"
		},
		{
			"inputs": [
				{
					"internalType": "address",
					"name": "token",
					"type": "address"
				}
			],
			"name": "SafeERC20FailedOperation",
			"type": "error"
		},
		{
			"anonymous": false,
			"inputs": [
				{
					"indexed": false,
					"internalType": "uint256",
					"name": "elementId",
					"type": "uint256"
				}
			],
			"name": "ElementApproved",
			"type": "event"
		},
		{
			"anonymous": false,
			"inputs": [
				{
					"indexed": false,
					"internalType": "uint256",
					"name": "elementId",
					"type": "uint256"
				},
				{
					"indexed": false,
					"internalType": "address",
					"name": "creator",
					"type": "address"
				}
			],
			"name": "ElementCreated",
			"type": "event"
		},
		{
			"anonymous": false,
			"inputs": [
				{
					"indexed": false,
					"internalType": "uint256",
					"name": "elementId",
					"type": "uint256"
				}
			],
			"name": "ElementRejected",
			"type": "event"
		},
		{
			"anonymous": false,
			"inputs": [
				{
					"indexed": false,
					"internalType": "uint256",
					"name": "elementId",
					"type": "uint256"
				}
			],
			"name": "ElementRemoved",
			"type": "event"
		},
		{
			"inputs": [],
			"name": "ELEMENT_CREATION_COST",
			"outputs": [
				{
					"internalType": "uint256",
					"name": "",
					"type": "uint256"
				}
			],
			"stateMutability": "view",
			"type": "function"
		},
		{
			"inputs": [],
			"name": "MINIMUM_STAKE_AMOUNT",
			"outputs": [
				{
					"internalType": "uint256",
					"name": "",
					"type": "uint256"
				}
			],
			"stateMutability": "view",
			"type": "function"
		},
		{
			"inputs": [],
			"name": "SECONDS_IN_MONTH",
			"outputs": [
				{
					"internalType": "uint256",
					"name": "",
					"type": "uint256"
				}
			],
			"stateMutability": "view",
			"type": "function"
		},
		{
			"inputs": [],
			"name": "SECONDS_IN_YEAR",
			"outputs": [
				{
					"internalType": "uint256",
					"name": "",
					"type": "uint256"
				}
			],
			"stateMutability": "view",
			"type": "function"
		},
		{
			"inputs": [],
			"name": "admin",
			"outputs": [
				{
					"internalType": "address",
					"name": "",
					"type": "address"
				}
			],
			"stateMutability": "view",
			"type": "function"
		},
		{
			"inputs": [
				{
					"internalType": "uint256",
					"name": "elementId",
					"type": "uint256"
				}
			],
			"name": "approveElement",
			"outputs": [],
			"stateMutability": "nonpayable",
			"type": "function"
		},
		{
			"inputs": [
				{
					"internalType": "uint256",
					"name": "stakeAmount",
					"type": "uint256"
				},
				{
					"internalType": "uint256",
					"name": "startTime",
					"type": "uint256"
				}
			],
			"name": "calculateMonthlyReward",
			"outputs": [
				{
					"internalType": "uint256",
					"name": "",
					"type": "uint256"
				}
			],
			"stateMutability": "view",
			"type": "function"
		},
		{
			"inputs": [
				{
					"internalType": "address",
					"name": "newAdmin",
					"type": "address"
				}
			],
			"name": "changeAdmin",
			"outputs": [],
			"stateMutability": "nonpayable",
			"type": "function"
		},
		{
			"inputs": [],
			"name": "changeGeneralStatus",
			"outputs": [],
			"stateMutability": "nonpayable",
			"type": "function"
		},
		{
			"inputs": [
				{
					"internalType": "address",
					"name": "newSecondAdmin",
					"type": "address"
				}
			],
			"name": "changeSecondAdmin",
			"outputs": [],
			"stateMutability": "nonpayable",
			"type": "function"
		},
		{
			"inputs": [],
			"name": "claimMonthlyReward",
			"outputs": [],
			"stateMutability": "nonpayable",
			"type": "function"
		},
		{
			"inputs": [
				{
					"internalType": "uint256",
					"name": "elementId",
					"type": "uint256"
				}
			],
			"name": "confirmUpdate",
			"outputs": [],
			"stateMutability": "nonpayable",
			"type": "function"
		},
		{
			"inputs": [
				{
					"internalType": "string",
					"name": "name",
					"type": "string"
				},
				{
					"internalType": "string",
					"name": "description",
					"type": "string"
				},
				{
					"internalType": "string",
					"name": "email",
					"type": "string"
				},
				{
					"internalType": "string",
					"name": "logoUrl",
					"type": "string"
				}
			],
			"name": "createElement",
			"outputs": [],
			"stateMutability": "nonpayable",
			"type": "function"
		},
		{
			"inputs": [],
			"name": "elementCount",
			"outputs": [
				{
					"internalType": "uint256",
					"name": "",
					"type": "uint256"
				}
			],
			"stateMutability": "view",
			"type": "function"
		},
		{
			"inputs": [
				{
					"internalType": "uint256",
					"name": "",
					"type": "uint256"
				}
			],
			"name": "elements",
			"outputs": [
				{
					"internalType": "string",
					"name": "name",
					"type": "string"
				},
				{
					"internalType": "string",
					"name": "description",
					"type": "string"
				},
				{
					"internalType": "string",
					"name": "mediaLink",
					"type": "string"
				},
				{
					"internalType": "string",
					"name": "exampleLink",
					"type": "string"
				},
				{
					"internalType": "string",
					"name": "performanceMetricsLink",
					"type": "string"
				},
				{
					"internalType": "string",
					"name": "email",
					"type": "string"
				},
				{
					"internalType": "string",
					"name": "logoUrl",
					"type": "string"
				},
				{
					"internalType": "address",
					"name": "creator",
					"type": "address"
				},
				{
					"internalType": "uint256",
					"name": "phase",
					"type": "uint256"
				},
				{
					"internalType": "uint256",
					"name": "lastUpdate",
					"type": "uint256"
				},
				{
					"internalType": "uint256",
					"name": "voteCount",
					"type": "uint256"
				}
			],
			"stateMutability": "view",
			"type": "function"
		},
		{
			"inputs": [
				{
					"internalType": "string",
					"name": "",
					"type": "string"
				}
			],
			"name": "functionStatus",
			"outputs": [
				{
					"internalType": "bool",
					"name": "",
					"type": "bool"
				}
			],
			"stateMutability": "view",
			"type": "function"
		},
		{
			"inputs": [],
			"name": "generalStatus",
			"outputs": [
				{
					"internalType": "bool",
					"name": "",
					"type": "bool"
				}
			],
			"stateMutability": "view",
			"type": "function"
		},
		{
			"inputs": [
				{
					"internalType": "uint256",
					"name": "timeElapsed",
					"type": "uint256"
				}
			],
			"name": "getAnnualRewardRate",
			"outputs": [
				{
					"internalType": "uint256",
					"name": "",
					"type": "uint256"
				}
			],
			"stateMutability": "pure",
			"type": "function"
		},
		{
			"inputs": [
				{
					"internalType": "address",
					"name": "user",
					"type": "address"
				}
			],
			"name": "getClaimableReward",
			"outputs": [
				{
					"internalType": "uint256",
					"name": "",
					"type": "uint256"
				}
			],
			"stateMutability": "view",
			"type": "function"
		},
		{
			"inputs": [
				{
					"internalType": "address",
					"name": "user",
					"type": "address"
				}
			],
			"name": "getLastClaimedDate",
			"outputs": [
				{
					"internalType": "uint256",
					"name": "",
					"type": "uint256"
				}
			],
			"stateMutability": "view",
			"type": "function"
		},
		{
			"inputs": [],
			"name": "getTotalStakedTokens",
			"outputs": [
				{
					"internalType": "uint256",
					"name": "",
					"type": "uint256"
				}
			],
			"stateMutability": "view",
			"type": "function"
		},
		{
			"inputs": [],
			"name": "getTotalTokenBalance",
			"outputs": [
				{
					"internalType": "uint256",
					"name": "",
					"type": "uint256"
				}
			],
			"stateMutability": "view",
			"type": "function"
		},
		{
			"inputs": [
				{
					"internalType": "address",
					"name": "creator",
					"type": "address"
				}
			],
			"name": "hasPendingApplication",
			"outputs": [
				{
					"internalType": "bool",
					"name": "",
					"type": "bool"
				}
			],
			"stateMutability": "view",
			"type": "function"
		},
		{
			"inputs": [
				{
					"internalType": "address",
					"name": "",
					"type": "address"
				}
			],
			"name": "lastClaimed",
			"outputs": [
				{
					"internalType": "uint256",
					"name": "",
					"type": "uint256"
				}
			],
			"stateMutability": "view",
			"type": "function"
		},
		{
			"inputs": [],
			"name": "lopToken",
			"outputs": [
				{
					"internalType": "contract IERC20",
					"name": "",
					"type": "address"
				}
			],
			"stateMutability": "view",
			"type": "function"
		},
		{
			"inputs": [
				{
					"internalType": "uint256",
					"name": "elementId",
					"type": "uint256"
				}
			],
			"name": "refuseUpdate",
			"outputs": [],
			"stateMutability": "nonpayable",
			"type": "function"
		},
		{
			"inputs": [
				{
					"internalType": "uint256",
					"name": "elementId",
					"type": "uint256"
				}
			],
			"name": "rejectElement",
			"outputs": [],
			"stateMutability": "nonpayable",
			"type": "function"
		},
		{
			"inputs": [
				{
					"internalType": "uint256",
					"name": "elementId",
					"type": "uint256"
				}
			],
			"name": "removeElement",
			"outputs": [],
			"stateMutability": "nonpayable",
			"type": "function"
		},
		{
			"inputs": [],
			"name": "secondAdmin",
			"outputs": [
				{
					"internalType": "address",
					"name": "",
					"type": "address"
				}
			],
			"stateMutability": "view",
			"type": "function"
		},
		{
			"inputs": [
				{
					"internalType": "uint256",
					"name": "amount",
					"type": "uint256"
				}
			],
			"name": "stakeTokens",
			"outputs": [],
			"stateMutability": "nonpayable",
			"type": "function"
		},
		{
			"inputs": [
				{
					"internalType": "address",
					"name": "",
					"type": "address"
				}
			],
			"name": "stakes",
			"outputs": [
				{
					"internalType": "uint256",
					"name": "",
					"type": "uint256"
				}
			],
			"stateMutability": "view",
			"type": "function"
		},
		{
			"inputs": [
				{
					"internalType": "address",
					"name": "",
					"type": "address"
				}
			],
			"name": "startingDate",
			"outputs": [
				{
					"internalType": "uint256",
					"name": "",
					"type": "uint256"
				}
			],
			"stateMutability": "view",
			"type": "function"
		},
		{
			"inputs": [],
			"name": "thirdAdmin",
			"outputs": [
				{
					"internalType": "address",
					"name": "",
					"type": "address"
				}
			],
			"stateMutability": "view",
			"type": "function"
		},
		{
			"inputs": [
				{
					"internalType": "string",
					"name": "functionName",
					"type": "string"
				},
				{
					"internalType": "bool",
					"name": "status",
					"type": "bool"
				}
			],
			"name": "toggleFunctionStatus",
			"outputs": [],
			"stateMutability": "nonpayable",
			"type": "function"
		},
		{
			"inputs": [
				{
					"internalType": "string",
					"name": "functionName",
					"type": "string"
				},
				{
					"internalType": "bool",
					"name": "status",
					"type": "bool"
				}
			],
			"name": "toggleFunctionStatusByAdmin",
			"outputs": [],
			"stateMutability": "nonpayable",
			"type": "function"
		},
		{
			"inputs": [],
			"name": "totalStakedTokens",
			"outputs": [
				{
					"internalType": "uint256",
					"name": "",
					"type": "uint256"
				}
			],
			"stateMutability": "view",
			"type": "function"
		},
		{
			"inputs": [
				{
					"internalType": "uint256",
					"name": "elementId",
					"type": "uint256"
				},
				{
					"internalType": "string",
					"name": "exampleLink",
					"type": "string"
				}
			],
			"name": "updateElementExample",
			"outputs": [],
			"stateMutability": "nonpayable",
			"type": "function"
		},
		{
			"inputs": [
				{
					"internalType": "uint256",
					"name": "elementId",
					"type": "uint256"
				},
				{
					"internalType": "string",
					"name": "mediaLink",
					"type": "string"
				}
			],
			"name": "updateElementMedia",
			"outputs": [],
			"stateMutability": "nonpayable",
			"type": "function"
		},
		{
			"inputs": [
				{
					"internalType": "uint256",
					"name": "elementId",
					"type": "uint256"
				},
				{
					"internalType": "string",
					"name": "performanceMetricsLink",
					"type": "string"
				}
			],
			"name": "updateElementMetrics",
			"outputs": [],
			"stateMutability": "nonpayable",
			"type": "function"
		},
		{
			"inputs": [
				{
					"internalType": "uint256",
					"name": "elementId",
					"type": "uint256"
				},
				{
					"internalType": "uint256",
					"name": "amount",
					"type": "uint256"
				}
			],
			"name": "voteOnElement",
			"outputs": [],
			"stateMutability": "nonpayable",
			"type": "function"
		},
		{
			"inputs": [
				{
					"internalType": "address",
					"name": "",
					"type": "address"
				}
			],
			"name": "votingPower",
			"outputs": [
				{
					"internalType": "uint256",
					"name": "",
					"type": "uint256"
				}
			],
			"stateMutability": "view",
			"type": "function"
		},
		{
			"inputs": [
				{
					"internalType": "uint256",
					"name": "amount",
					"type": "uint256"
				}
			],
			"name": "withdrawStake",
			"outputs": [],
			"stateMutability": "nonpayable",
			"type": "function"
		}
	]
}