{
	"data": {
		"bytecode": {
			"linkReferences": {},
			"object": "60806040523480156200001157600080fd5b50604051620025df380380620025df83398181016040528101906200003791906200012a565b33600560006101000a81548173ffffffffffffffffffffffffffffffffffffffff021916908373ffffffffffffffffffffffffffffffffffffffff16021790555080600660006101000a81548173ffffffffffffffffffffffffffffffffffffffff021916908373ffffffffffffffffffffffffffffffffffffffff160217905550506200015c565b600080fd5b600073ffffffffffffffffffffffffffffffffffffffff82169050919050565b6000620000f282620000c5565b9050919050565b6200010481620000e5565b81146200011057600080fd5b50565b6000815190506200012481620000f9565b92915050565b600060208284031215620001435762000142620000c0565b5b6000620001538482850162000113565b91505092915050565b612473806200016c6000396000f3fe608060405234801561001057600080fd5b50600436106101215760003560e01c806372bae674116100ad578063cd81b38511610071578063cd81b38514610306578063d4f1e38614610322578063e0d64b371461032c578063f7977a0a14610365578063f851a4401461038357610121565b806372bae674146102525780637547c7a31461026e57806380f2110a1461028a578063c07473f6146102ba578063c9b3829f146102ea57610121565b806327855b13116100f457806327855b13146101c05780633b72bad5146101de5780635dcc9391146101fa57806367be467314610218578063725eca4e1461023657610121565b8063013eba92146101265780630d67f59e1461015657806316934fc41461017457806325d5971f146101a4575b600080fd5b610140600480360381019061013b9190611580565b6103a1565b60405161014d91906115c6565b60405180910390f35b61015e6103b9565b60405161016b9190611640565b60405180910390f35b61018e60048036038101906101899190611580565b6103df565b60405161019b91906115c6565b60405180910390f35b6101be60048036038101906101b99190611687565b6103f7565b005b6101c86105af565b6040516101d591906115c6565b60405180910390f35b6101f860048036038101906101f39190611687565b6105b6565b005b61020261075b565b60405161020f91906115c6565b60405180910390f35b610220610763565b60405161022d91906115c6565b60405180910390f35b610250600480360381019061024b91906117fa565b610769565b005b61026c600480360381019061026791906118b5565b61089a565b005b61028860048036038101906102839190611687565b6109a3565b005b6102a4600480360381019061029f9190611687565b610b68565b6040516102b191906115c6565b60405180910390f35b6102d460048036038101906102cf9190611580565b610b96565b6040516102e191906115c6565b60405180910390f35b61030460048036038101906102ff9190611687565b610bae565b005b610320600480360381019061031b91906118f5565b610cb6565b005b61032a610e61565b005b61034660048036038101906103419190611687565b61113f565b60405161035c9a99989796959493929190611a2a565b60405180910390f35b61036d6114e3565b60405161037a91906115c6565b60405180910390f35b61038b6114e8565b6040516103989190611af0565b60405180910390f35b60026020528060005260406000206000915090505481565b600660009054906101000a900473ffffffffffffffffffffffffffffffffffffffff1681565b60006020528060005260406000206000915090505481565b806000803373ffffffffffffffffffffffffffffffffffffffff1673ffffffffffffffffffffffffffffffffffffffff168152602001908152602001600020541015610478576040517f08c379a000000000000000000000000000000000000000000000000000000000815260040161046f90611b57565b60405180910390fd5b806000803373ffffffffffffffffffffffffffffffffffffffff1673ffffffffffffffffffffffffffffffffffffffff16815260200190815260200160002060008282546104c69190611ba6565b92505081905550600660009054906101000a900473ffffffffffffffffffffffffffffffffffffffff1673ffffffffffffffffffffffffffffffffffffffff1663a9059cbb33836040518363ffffffff1660e01b815260040161052a929190611bda565b6020604051808303816000875af1158015610549573d6000803e3d6000fd5b505050506040513d601f19601f8201168201806040525081019061056d9190611c3b565b6105ac576040517f08c379a00000000000000000000000000000000000000000000000000000000081526004016105a390611cb4565b60405180910390fd5b50565b62278d0081565b600560009054906101000a900473ffffffffffffffffffffffffffffffffffffffff1673ffffffffffffffffffffffffffffffffffffffff163373ffffffffffffffffffffffffffffffffffffffff1614610646576040517f08c379a000000000000000000000000000000000000000000000000000000000815260040161063d90611d46565b60405180910390fd5b600460036000838152602001908152602001600020600701540361069f576040517f08c379a000000000000000000000000000000000000000000000000000000000815260040161069690611dd8565b60405180910390fd5b60016003600083815260200190815260200160002060070154036106de5760026003600083815260200190815260200160002060070181905550610758565b600260036000838152602001908152602001600020600701540361071c57600380600083815260200190815260200160002060070181905550610757565b6003806000838152602001908152602001600020600701540361075657600460036000838152602001908152602001600020600701819055505b5b5b50565b6301e1338081565b60045481565b3373ffffffffffffffffffffffffffffffffffffffff166003600086815260200190815260200160002060060160009054906101000a900473ffffffffffffffffffffffffffffffffffffffff1673ffffffffffffffffffffffffffffffffffffffff161461080d576040517f08c379a000000000000000000000000000000000000000000000000000000000815260040161080490611e44565b60405180910390fd5b826003600086815260200190815260200160002060030190816108309190612066565b50816003600086815260200190815260200160002060040190816108549190612066565b50806003600086815260200190815260200160002060050190816108789190612066565b5042600360008681526020019081526020016000206008018190555050505050565b6000600160003373ffffffffffffffffffffffffffffffffffffffff1673ffffffffffffffffffffffffffffffffffffffff168152602001908152602001600020541161091c576040517f08c379a000000000000000000000000000000000000000000000000000000000815260040161091390612184565b60405180910390fd5b80600160003373ffffffffffffffffffffffffffffffffffffffff1673ffffffffffffffffffffffffffffffffffffffff168152602001908152602001600020600082825461096b9190611ba6565b925050819055508060036000848152602001908152602001600020600901600082825461099891906121a4565b925050819055505050565b600660009054906101000a900473ffffffffffffffffffffffffffffffffffffffff1673ffffffffffffffffffffffffffffffffffffffff166323b872dd3330846040518463ffffffff1660e01b8152600401610a02939291906121d8565b6020604051808303816000875af1158015610a21573d6000803e3d6000fd5b505050506040513d601f19601f82011682018060405250810190610a459190611c3b565b610a84576040517f08c379a0000000000000000000000000000000000000000000000000000000008152600401610a7b90611cb4565b60405180910390fd5b806000803373ffffffffffffffffffffffffffffffffffffffff1673ffffffffffffffffffffffffffffffffffffffff1681526020019081526020016000206000828254610ad291906121a4565b925050819055506000600260003373ffffffffffffffffffffffffffffffffffffffff1673ffffffffffffffffffffffffffffffffffffffff1681526020019081526020016000205403610b655742600260003373ffffffffffffffffffffffffffffffffffffffff1673ffffffffffffffffffffffffffffffffffffffff168152602001908152602001600020819055505b50565b6000600c6064600384610b7b919061220f565b610b859190612280565b610b8f9190612280565b9050919050565b60016020528060005260406000206000915090505481565b600560009054906101000a900473ffffffffffffffffffffffffffffffffffffffff1673ffffffffffffffffffffffffffffffffffffffff163373ffffffffffffffffffffffffffffffffffffffff1614610c3e576040517f08c379a0000000000000000000000000000000000000000000000000000000008152600401610c3590611d46565b60405180910390fd5b6000600360008381526020019081526020016000206007015414610c97576040517f08c379a0000000000000000000000000000000000000000000000000000000008152600401610c8e906122fd565b60405180910390fd5b6001600360008381526020019081526020016000206007018190555050565b6040518061014001604052808481526020018381526020018281526020016040518060200160405280600081525081526020016040518060200160405280600081525081526020016040518060200160405280600081525081526020013373ffffffffffffffffffffffffffffffffffffffff1681526020016000815260200142815260200160008152506003600060045481526020019081526020016000206000820151816000019081610d6b9190612066565b506020820151816001019081610d819190612066565b506040820151816002019081610d979190612066565b506060820151816003019081610dad9190612066565b506080820151816004019081610dc39190612066565b5060a0820151816005019081610dd99190612066565b5060c08201518160060160006101000a81548173ffffffffffffffffffffffffffffffffffffffff021916908373ffffffffffffffffffffffffffffffffffffffff16021790555060e082015181600701556101008201518160080155610120820151816009015590505060046000815480929190610e579061231d565b9190505550505050565b60008060003373ffffffffffffffffffffffffffffffffffffffff1673ffffffffffffffffffffffffffffffffffffffff1681526020019081526020016000205411610ee2576040517f08c379a0000000000000000000000000000000000000000000000000000000008152600401610ed9906123b1565b60405180910390fd5b6000600260003373ffffffffffffffffffffffffffffffffffffffff1673ffffffffffffffffffffffffffffffffffffffff1681526020019081526020016000205442610f2f9190611ba6565b905062278d00811015610f77576040517f08c379a0000000000000000000000000000000000000000000000000000000008152600401610f6e9061241d565b60405180910390fd5b6000610fc06000803373ffffffffffffffffffffffffffffffffffffffff1673ffffffffffffffffffffffffffffffffffffffff16815260200190815260200160002054610b68565b905080600160003373ffffffffffffffffffffffffffffffffffffffff1673ffffffffffffffffffffffffffffffffffffffff168152602001908152602001600020600082825461101191906121a4565b9250508190555042600260003373ffffffffffffffffffffffffffffffffffffffff1673ffffffffffffffffffffffffffffffffffffffff16815260200190815260200160002081905550600660009054906101000a900473ffffffffffffffffffffffffffffffffffffffff1673ffffffffffffffffffffffffffffffffffffffff1663a9059cbb33836040518363ffffffff1660e01b81526004016110b9929190611bda565b6020604051808303816000875af11580156110d8573d6000803e3d6000fd5b505050506040513d601f19601f820116820180604052508101906110fc9190611c3b565b61113b576040517f08c379a000000000000000000000000000000000000000000000000000000000815260040161113290611cb4565b60405180910390fd5b5050565b600360205280600052604060002060009150905080600001805461116290611e93565b80601f016020809104026020016040519081016040528092919081815260200182805461118e90611e93565b80156111db5780601f106111b0576101008083540402835291602001916111db565b820191906000526020600020905b8154815290600101906020018083116111be57829003601f168201915b5050505050908060010180546111f090611e93565b80601f016020809104026020016040519081016040528092919081815260200182805461121c90611e93565b80156112695780601f1061123e57610100808354040283529160200191611269565b820191906000526020600020905b81548152906001019060200180831161124c57829003601f168201915b50505050509080600201805461127e90611e93565b80601f01602080910402602001604051908101604052809291908181526020018280546112aa90611e93565b80156112f75780601f106112cc576101008083540402835291602001916112f7565b820191906000526020600020905b8154815290600101906020018083116112da57829003601f168201915b50505050509080600301805461130c90611e93565b80601f016020809104026020016040519081016040528092919081815260200182805461133890611e93565b80156113855780601f1061135a57610100808354040283529160200191611385565b820191906000526020600020905b81548152906001019060200180831161136857829003601f168201915b50505050509080600401805461139a90611e93565b80601f01602080910402602001604051908101604052809291908181526020018280546113c690611e93565b80156114135780601f106113e857610100808354040283529160200191611413565b820191906000526020600020905b8154815290600101906020018083116113f657829003601f168201915b50505050509080600501805461142890611e93565b80601f016020809104026020016040519081016040528092919081815260200182805461145490611e93565b80156114a15780601f10611476576101008083540402835291602001916114a1565b820191906000526020600020905b81548152906001019060200180831161148457829003601f168201915b5050505050908060060160009054906101000a900473ffffffffffffffffffffffffffffffffffffffff1690806007015490806008015490806009015490508a565b600381565b600560009054906101000a900473ffffffffffffffffffffffffffffffffffffffff1681565b6000604051905090565b600080fd5b600080fd5b600073ffffffffffffffffffffffffffffffffffffffff82169050919050565b600061154d82611522565b9050919050565b61155d81611542565b811461156857600080fd5b50565b60008135905061157a81611554565b92915050565b60006020828403121561159657611595611518565b5b60006115a48482850161156b565b91505092915050565b6000819050919050565b6115c0816115ad565b82525050565b60006020820190506115db60008301846115b7565b92915050565b6000819050919050565b60006116066116016115fc84611522565b6115e1565b611522565b9050919050565b6000611618826115eb565b9050919050565b600061162a8261160d565b9050919050565b61163a8161161f565b82525050565b60006020820190506116556000830184611631565b92915050565b611664816115ad565b811461166f57600080fd5b50565b6000813590506116818161165b565b92915050565b60006020828403121561169d5761169c611518565b5b60006116ab84828501611672565b91505092915050565b600080fd5b600080fd5b6000601f19601f8301169050919050565b7f4e487b7100000000000000000000000000000000000000000000000000000000600052604160045260246000fd5b611707826116be565b810181811067ffffffffffffffff82111715611726576117256116cf565b5b80604052505050565b600061173961150e565b905061174582826116fe565b919050565b600067ffffffffffffffff821115611765576117646116cf565b5b61176e826116be565b9050602081019050919050565b82818337600083830152505050565b600061179d6117988461174a565b61172f565b9050828152602081018484840111156117b9576117b86116b9565b5b6117c484828561177b565b509392505050565b600082601f8301126117e1576117e06116b4565b5b81356117f184826020860161178a565b91505092915050565b6000806000806080858703121561181457611813611518565b5b600061182287828801611672565b945050602085013567ffffffffffffffff8111156118435761184261151d565b5b61184f878288016117cc565b935050604085013567ffffffffffffffff8111156118705761186f61151d565b5b61187c878288016117cc565b925050606085013567ffffffffffffffff81111561189d5761189c61151d565b5b6118a9878288016117cc565b91505092959194509250565b600080604083850312156118cc576118cb611518565b5b60006118da85828601611672565b92505060206118eb85828601611672565b9150509250929050565b60008060006060848603121561190e5761190d611518565b5b600084013567ffffffffffffffff81111561192c5761192b61151d565b5b611938868287016117cc565b935050602084013567ffffffffffffffff8111156119595761195861151d565b5b611965868287016117cc565b925050604084013567ffffffffffffffff8111156119865761198561151d565b5b611992868287016117cc565b9150509250925092565b600081519050919050565b600082825260208201905092915050565b60005b838110156119d65780820151818401526020810190506119bb565b60008484015250505050565b60006119ed8261199c565b6119f781856119a7565b9350611a078185602086016119b8565b611a10816116be565b840191505092915050565b611a2481611542565b82525050565b6000610140820190508181036000830152611a45818d6119e2565b90508181036020830152611a59818c6119e2565b90508181036040830152611a6d818b6119e2565b90508181036060830152611a81818a6119e2565b90508181036080830152611a9581896119e2565b905081810360a0830152611aa981886119e2565b9050611ab860c0830187611a1b565b611ac560e08301866115b7565b611ad36101008301856115b7565b611ae16101208301846115b7565b9b9a5050505050505050505050565b6000602082019050611b056000830184611a1b565b92915050565b7f496e73756666696369656e74207374616b656420616d6f756e74000000000000600082015250565b6000611b41601a836119a7565b9150611b4c82611b0b565b602082019050919050565b60006020820190508181036000830152611b7081611b34565b9050919050565b7f4e487b7100000000000000000000000000000000000000000000000000000000600052601160045260246000fd5b6000611bb1826115ad565b9150611bbc836115ad565b9250828203905081811115611bd457611bd3611b77565b5b92915050565b6000604082019050611bef6000830185611a1b565b611bfc60208301846115b7565b9392505050565b60008115159050919050565b611c1881611c03565b8114611c2357600080fd5b50565b600081519050611c3581611c0f565b92915050565b600060208284031215611c5157611c50611518565b5b6000611c5f84828501611c26565b91505092915050565b7f546f6b656e207472616e73666572206661696c65640000000000000000000000600082015250565b6000611c9e6015836119a7565b9150611ca982611c68565b602082019050919050565b60006020820190508181036000830152611ccd81611c91565b9050919050565b7f4f6e6c792061646d696e2063616e20706572666f726d2074686973206163746960008201527f6f6e000000000000000000000000000000000000000000000000000000000000602082015250565b6000611d306022836119a7565b9150611d3b82611cd4565b604082019050919050565b60006020820190508181036000830152611d5f81611d23565b9050919050565b7f456c656d656e7420697320616c726561647920696e207468652050726573746960008201527f6765207068617365000000000000000000000000000000000000000000000000602082015250565b6000611dc26028836119a7565b9150611dcd82611d66565b604082019050919050565b60006020820190508181036000830152611df181611db5565b9050919050565b7f4f6e6c792063726561746f722063616e20757064617465000000000000000000600082015250565b6000611e2e6017836119a7565b9150611e3982611df8565b602082019050919050565b60006020820190508181036000830152611e5d81611e21565b9050919050565b7f4e487b7100000000000000000000000000000000000000000000000000000000600052602260045260246000fd5b60006002820490506001821680611eab57607f821691505b602082108103611ebe57611ebd611e64565b5b50919050565b60008190508160005260206000209050919050565b60006020601f8301049050919050565b600082821b905092915050565b600060088302611f267fffffffffffffffffffffffffffffffffffffffffffffffffffffffffffffffff82611ee9565b611f308683611ee9565b95508019841693508086168417925050509392505050565b6000611f63611f5e611f59846115ad565b6115e1565b6115ad565b9050919050565b6000819050919050565b611f7d83611f48565b611f91611f8982611f6a565b848454611ef6565b825550505050565b600090565b611fa6611f99565b611fb1818484611f74565b505050565b5b81811015611fd557611fca600082611f9e565b600181019050611fb7565b5050565b601f82111561201a57611feb81611ec4565b611ff484611ed9565b81016020851015612003578190505b61201761200f85611ed9565b830182611fb6565b50505b505050565b600082821c905092915050565b600061203d6000198460080261201f565b1980831691505092915050565b6000612056838361202c565b9150826002028217905092915050565b61206f8261199c565b67ffffffffffffffff811115612088576120876116cf565b5b6120928254611e93565b61209d828285611fd9565b600060209050601f8311600181146120d057600084156120be578287015190505b6120c8858261204a565b865550612130565b601f1984166120de86611ec4565b60005b82811015612106578489015182556001820191506020850194506020810190506120e1565b86831015612123578489015161211f601f89168261202c565b8355505b6001600288020188555050505b505050505050565b7f4e6f20766f74696e6720706f7765720000000000000000000000000000000000600082015250565b600061216e600f836119a7565b915061217982612138565b602082019050919050565b6000602082019050818103600083015261219d81612161565b9050919050565b60006121af826115ad565b91506121ba836115ad565b92508282019050808211156121d2576121d1611b77565b5b92915050565b60006060820190506121ed6000830186611a1b565b6121fa6020830185611a1b565b61220760408301846115b7565b949350505050565b600061221a826115ad565b9150612225836115ad565b9250828202612233816115ad565b9150828204841483151761224a57612249611b77565b5b5092915050565b7f4e487b7100000000000000000000000000000000000000000000000000000000600052601260045260246000fd5b600061228b826115ad565b9150612296836115ad565b9250826122a6576122a5612251565b5b828204905092915050565b7f456c656d656e74206973206e6f742070656e64696e6720617070726f76616c00600082015250565b60006122e7601f836119a7565b91506122f2826122b1565b602082019050919050565b60006020820190508181036000830152612316816122da565b9050919050565b6000612328826115ad565b91507fffffffffffffffffffffffffffffffffffffffffffffffffffffffffffffffff820361235a57612359611b77565b5b600182019050919050565b7f4e6f207374616b656420616d6f756e7400000000000000000000000000000000600082015250565b600061239b6010836119a7565b91506123a682612365565b602082019050919050565b600060208201905081810360008301526123ca8161238e565b9050919050565b7f43616e6e6f7420636c61696d206265666f72652061206d6f6e74680000000000600082015250565b6000612407601b836119a7565b9150612412826123d1565b602082019050919050565b60006020820190508181036000830152612436816123fa565b905091905056fea2646970667358221220ee4e50a862f651dac63dd9c126c09cc9105ce255a21283086b2934b272e72c1464736f6c63430008120033",
			"opcodes": "PUSH1 0x80 PUSH1 0x40 MSTORE CALLVALUE DUP1 ISZERO PUSH3 0x11 JUMPI PUSH1 0x0 DUP1 REVERT JUMPDEST POP PUSH1 0x40 MLOAD PUSH3 0x25DF CODESIZE SUB DUP1 PUSH3 0x25DF DUP4 CODECOPY DUP2 DUP2 ADD PUSH1 0x40 MSTORE DUP2 ADD SWAP1 PUSH3 0x37 SWAP2 SWAP1 PUSH3 0x12A JUMP JUMPDEST CALLER PUSH1 0x5 PUSH1 0x0 PUSH2 0x100 EXP DUP2 SLOAD DUP2 PUSH20 0xFFFFFFFFFFFFFFFFFFFFFFFFFFFFFFFFFFFFFFFF MUL NOT AND SWAP1 DUP4 PUSH20 0xFFFFFFFFFFFFFFFFFFFFFFFFFFFFFFFFFFFFFFFF AND MUL OR SWAP1 SSTORE POP DUP1 PUSH1 0x6 PUSH1 0x0 PUSH2 0x100 EXP DUP2 SLOAD DUP2 PUSH20 0xFFFFFFFFFFFFFFFFFFFFFFFFFFFFFFFFFFFFFFFF MUL NOT AND SWAP1 DUP4 PUSH20 0xFFFFFFFFFFFFFFFFFFFFFFFFFFFFFFFFFFFFFFFF AND MUL OR SWAP1 SSTORE POP POP PUSH3 0x15C JUMP JUMPDEST PUSH1 0x0 DUP1 REVERT JUMPDEST PUSH1 0x0 PUSH20 0xFFFFFFFFFFFFFFFFFFFFFFFFFFFFFFFFFFFFFFFF DUP3 AND SWAP1 POP SWAP2 SWAP1 POP JUMP JUMPDEST PUSH1 0x0 PUSH3 0xF2 DUP3 PUSH3 0xC5 JUMP JUMPDEST SWAP1 POP SWAP2 SWAP1 POP JUMP JUMPDEST PUSH3 0x104 DUP2 PUSH3 0xE5 JUMP JUMPDEST DUP2 EQ PUSH3 0x110 JUMPI PUSH1 0x0 DUP1 REVERT JUMPDEST POP JUMP JUMPDEST PUSH1 0x0 DUP2 MLOAD SWAP1 POP PUSH3 0x124 DUP2 PUSH3 0xF9 JUMP JUMPDEST SWAP3 SWAP2 POP POP JUMP JUMPDEST PUSH1 0x0 PUSH1 0x20 DUP3 DUP5 SUB SLT ISZERO PUSH3 0x143 JUMPI PUSH3 0x142 PUSH3 0xC0 JUMP JUMPDEST JUMPDEST PUSH1 0x0 PUSH3 0x153 DUP5 DUP3 DUP6 ADD PUSH3 0x113 JUMP JUMPDEST SWAP2 POP POP SWAP3 SWAP2 POP POP JUMP JUMPDEST PUSH2 0x2473 DUP1 PUSH3 0x16C PUSH1 0x0 CODECOPY PUSH1 0x0 RETURN INVALID PUSH1 0x80 PUSH1 0x40 MSTORE CALLVALUE DUP1 ISZERO PUSH2 0x10 JUMPI PUSH1 0x0 DUP1 REVERT JUMPDEST POP PUSH1 0x4 CALLDATASIZE LT PUSH2 0x121 JUMPI PUSH1 0x0 CALLDATALOAD PUSH1 0xE0 SHR DUP1 PUSH4 0x72BAE674 GT PUSH2 0xAD JUMPI DUP1 PUSH4 0xCD81B385 GT PUSH2 0x71 JUMPI DUP1 PUSH4 0xCD81B385 EQ PUSH2 0x306 JUMPI DUP1 PUSH4 0xD4F1E386 EQ PUSH2 0x322 JUMPI DUP1 PUSH4 0xE0D64B37 EQ PUSH2 0x32C JUMPI DUP1 PUSH4 0xF7977A0A EQ PUSH2 0x365 JUMPI DUP1 PUSH4 0xF851A440 EQ PUSH2 0x383 JUMPI PUSH2 0x121 JUMP JUMPDEST DUP1 PUSH4 0x72BAE674 EQ PUSH2 0x252 JUMPI DUP1 PUSH4 0x7547C7A3 EQ PUSH2 0x26E JUMPI DUP1 PUSH4 0x80F2110A EQ PUSH2 0x28A JUMPI DUP1 PUSH4 0xC07473F6 EQ PUSH2 0x2BA JUMPI DUP1 PUSH4 0xC9B3829F EQ PUSH2 0x2EA JUMPI PUSH2 0x121 JUMP JUMPDEST DUP1 PUSH4 0x27855B13 GT PUSH2 0xF4 JUMPI DUP1 PUSH4 0x27855B13 EQ PUSH2 0x1C0 JUMPI DUP1 PUSH4 0x3B72BAD5 EQ PUSH2 0x1DE JUMPI DUP1 PUSH4 0x5DCC9391 EQ PUSH2 0x1FA JUMPI DUP1 PUSH4 0x67BE4673 EQ PUSH2 0x218 JUMPI DUP1 PUSH4 0x725ECA4E EQ PUSH2 0x236 JUMPI PUSH2 0x121 JUMP JUMPDEST DUP1 PUSH4 0x13EBA92 EQ PUSH2 0x126 JUMPI DUP1 PUSH4 0xD67F59E EQ PUSH2 0x156 JUMPI DUP1 PUSH4 0x16934FC4 EQ PUSH2 0x174 JUMPI DUP1 PUSH4 0x25D5971F EQ PUSH2 0x1A4 JUMPI JUMPDEST PUSH1 0x0 DUP1 REVERT JUMPDEST PUSH2 0x140 PUSH1 0x4 DUP1 CALLDATASIZE SUB DUP2 ADD SWAP1 PUSH2 0x13B SWAP2 SWAP1 PUSH2 0x1580 JUMP JUMPDEST PUSH2 0x3A1 JUMP JUMPDEST PUSH1 0x40 MLOAD PUSH2 0x14D SWAP2 SWAP1 PUSH2 0x15C6 JUMP JUMPDEST PUSH1 0x40 MLOAD DUP1 SWAP2 SUB SWAP1 RETURN JUMPDEST PUSH2 0x15E PUSH2 0x3B9 JUMP JUMPDEST PUSH1 0x40 MLOAD PUSH2 0x16B SWAP2 SWAP1 PUSH2 0x1640 JUMP JUMPDEST PUSH1 0x40 MLOAD DUP1 SWAP2 SUB SWAP1 RETURN JUMPDEST PUSH2 0x18E PUSH1 0x4 DUP1 CALLDATASIZE SUB DUP2 ADD SWAP1 PUSH2 0x189 SWAP2 SWAP1 PUSH2 0x1580 JUMP JUMPDEST PUSH2 0x3DF JUMP JUMPDEST PUSH1 0x40 MLOAD PUSH2 0x19B SWAP2 SWAP1 PUSH2 0x15C6 JUMP JUMPDEST PUSH1 0x40 MLOAD DUP1 SWAP2 SUB SWAP1 RETURN JUMPDEST PUSH2 0x1BE PUSH1 0x4 DUP1 CALLDATASIZE SUB DUP2 ADD SWAP1 PUSH2 0x1B9 SWAP2 SWAP1 PUSH2 0x1687 JUMP JUMPDEST PUSH2 0x3F7 JUMP JUMPDEST STOP JUMPDEST PUSH2 0x1C8 PUSH2 0x5AF JUMP JUMPDEST PUSH1 0x40 MLOAD PUSH2 0x1D5 SWAP2 SWAP1 PUSH2 0x15C6 JUMP JUMPDEST PUSH1 0x40 MLOAD DUP1 SWAP2 SUB SWAP1 RETURN JUMPDEST PUSH2 0x1F8 PUSH1 0x4 DUP1 CALLDATASIZE SUB DUP2 ADD SWAP1 PUSH2 0x1F3 SWAP2 SWAP1 PUSH2 0x1687 JUMP JUMPDEST PUSH2 0x5B6 JUMP JUMPDEST STOP JUMPDEST PUSH2 0x202 PUSH2 0x75B JUMP JUMPDEST PUSH1 0x40 MLOAD PUSH2 0x20F SWAP2 SWAP1 PUSH2 0x15C6 JUMP JUMPDEST PUSH1 0x40 MLOAD DUP1 SWAP2 SUB SWAP1 RETURN JUMPDEST PUSH2 0x220 PUSH2 0x763 JUMP JUMPDEST PUSH1 0x40 MLOAD PUSH2 0x22D SWAP2 SWAP1 PUSH2 0x15C6 JUMP JUMPDEST PUSH1 0x40 MLOAD DUP1 SWAP2 SUB SWAP1 RETURN JUMPDEST PUSH2 0x250 PUSH1 0x4 DUP1 CALLDATASIZE SUB DUP2 ADD SWAP1 PUSH2 0x24B SWAP2 SWAP1 PUSH2 0x17FA JUMP JUMPDEST PUSH2 0x769 JUMP JUMPDEST STOP JUMPDEST PUSH2 0x26C PUSH1 0x4 DUP1 CALLDATASIZE SUB DUP2 ADD SWAP1 PUSH2 0x267 SWAP2 SWAP1 PUSH2 0x18B5 JUMP JUMPDEST PUSH2 0x89A JUMP JUMPDEST STOP JUMPDEST PUSH2 0x288 PUSH1 0x4 DUP1 CALLDATASIZE SUB DUP2 ADD SWAP1 PUSH2 0x283 SWAP2 SWAP1 PUSH2 0x1687 JUMP JUMPDEST PUSH2 0x9A3 JUMP JUMPDEST STOP JUMPDEST PUSH2 0x2A4 PUSH1 0x4 DUP1 CALLDATASIZE SUB DUP2 ADD SWAP1 PUSH2 0x29F SWAP2 SWAP1 PUSH2 0x1687 JUMP JUMPDEST PUSH2 0xB68 JUMP JUMPDEST PUSH1 0x40 MLOAD PUSH2 0x2B1 SWAP2 SWAP1 PUSH2 0x15C6 JUMP JUMPDEST PUSH1 0x40 MLOAD DUP1 SWAP2 SUB SWAP1 RETURN JUMPDEST PUSH2 0x2D4 PUSH1 0x4 DUP1 CALLDATASIZE SUB DUP2 ADD SWAP1 PUSH2 0x2CF SWAP2 SWAP1 PUSH2 0x1580 JUMP JUMPDEST PUSH2 0xB96 JUMP JUMPDEST PUSH1 0x40 MLOAD PUSH2 0x2E1 SWAP2 SWAP1 PUSH2 0x15C6 JUMP JUMPDEST PUSH1 0x40 MLOAD DUP1 SWAP2 SUB SWAP1 RETURN JUMPDEST PUSH2 0x304 PUSH1 0x4 DUP1 CALLDATASIZE SUB DUP2 ADD SWAP1 PUSH2 0x2FF SWAP2 SWAP1 PUSH2 0x1687 JUMP JUMPDEST PUSH2 0xBAE JUMP JUMPDEST STOP JUMPDEST PUSH2 0x320 PUSH1 0x4 DUP1 CALLDATASIZE SUB DUP2 ADD SWAP1 PUSH2 0x31B SWAP2 SWAP1 PUSH2 0x18F5 JUMP JUMPDEST PUSH2 0xCB6 JUMP JUMPDEST STOP JUMPDEST PUSH2 0x32A PUSH2 0xE61 JUMP JUMPDEST STOP JUMPDEST PUSH2 0x346 PUSH1 0x4 DUP1 CALLDATASIZE SUB DUP2 ADD SWAP1 PUSH2 0x341 SWAP2 SWAP1 PUSH2 0x1687 JUMP JUMPDEST PUSH2 0x113F JUMP JUMPDEST PUSH1 0x40 MLOAD PUSH2 0x35C SWAP11 SWAP10 SWAP9 SWAP8 SWAP7 SWAP6 SWAP5 SWAP4 SWAP3 SWAP2 SWAP1 PUSH2 0x1A2A JUMP JUMPDEST PUSH1 0x40 MLOAD DUP1 SWAP2 SUB SWAP1 RETURN JUMPDEST PUSH2 0x36D PUSH2 0x14E3 JUMP JUMPDEST PUSH1 0x40 MLOAD PUSH2 0x37A SWAP2 SWAP1 PUSH2 0x15C6 JUMP JUMPDEST PUSH1 0x40 MLOAD DUP1 SWAP2 SUB SWAP1 RETURN JUMPDEST PUSH2 0x38B PUSH2 0x14E8 JUMP JUMPDEST PUSH1 0x40 MLOAD PUSH2 0x398 SWAP2 SWAP1 PUSH2 0x1AF0 JUMP JUMPDEST PUSH1 0x40 MLOAD DUP1 SWAP2 SUB SWAP1 RETURN JUMPDEST PUSH1 0x2 PUSH1 0x20 MSTORE DUP1 PUSH1 0x0 MSTORE PUSH1 0x40 PUSH1 0x0 KECCAK256 PUSH1 0x0 SWAP2 POP SWAP1 POP SLOAD DUP2 JUMP JUMPDEST PUSH1 0x6 PUSH1 0x0 SWAP1 SLOAD SWAP1 PUSH2 0x100 EXP SWAP1 DIV PUSH20 0xFFFFFFFFFFFFFFFFFFFFFFFFFFFFFFFFFFFFFFFF AND DUP2 JUMP JUMPDEST PUSH1 0x0 PUSH1 0x20 MSTORE DUP1 PUSH1 0x0 MSTORE PUSH1 0x40 PUSH1 0x0 KECCAK256 PUSH1 0x0 SWAP2 POP SWAP1 POP SLOAD DUP2 JUMP JUMPDEST DUP1 PUSH1 0x0 DUP1 CALLER PUSH20 0xFFFFFFFFFFFFFFFFFFFFFFFFFFFFFFFFFFFFFFFF AND PUSH20 0xFFFFFFFFFFFFFFFFFFFFFFFFFFFFFFFFFFFFFFFF AND DUP2 MSTORE PUSH1 0x20 ADD SWAP1 DUP2 MSTORE PUSH1 0x20 ADD PUSH1 0x0 KECCAK256 SLOAD LT ISZERO PUSH2 0x478 JUMPI PUSH1 0x40 MLOAD PUSH32 0x8C379A000000000000000000000000000000000000000000000000000000000 DUP2 MSTORE PUSH1 0x4 ADD PUSH2 0x46F SWAP1 PUSH2 0x1B57 JUMP JUMPDEST PUSH1 0x40 MLOAD DUP1 SWAP2 SUB SWAP1 REVERT JUMPDEST DUP1 PUSH1 0x0 DUP1 CALLER PUSH20 0xFFFFFFFFFFFFFFFFFFFFFFFFFFFFFFFFFFFFFFFF AND PUSH20 0xFFFFFFFFFFFFFFFFFFFFFFFFFFFFFFFFFFFFFFFF AND DUP2 MSTORE PUSH1 0x20 ADD SWAP1 DUP2 MSTORE PUSH1 0x20 ADD PUSH1 0x0 KECCAK256 PUSH1 0x0 DUP3 DUP3 SLOAD PUSH2 0x4C6 SWAP2 SWAP1 PUSH2 0x1BA6 JUMP JUMPDEST SWAP3 POP POP DUP2 SWAP1 SSTORE POP PUSH1 0x6 PUSH1 0x0 SWAP1 SLOAD SWAP1 PUSH2 0x100 EXP SWAP1 DIV PUSH20 0xFFFFFFFFFFFFFFFFFFFFFFFFFFFFFFFFFFFFFFFF AND PUSH20 0xFFFFFFFFFFFFFFFFFFFFFFFFFFFFFFFFFFFFFFFF AND PUSH4 0xA9059CBB CALLER DUP4 PUSH1 0x40 MLOAD DUP4 PUSH4 0xFFFFFFFF AND PUSH1 0xE0 SHL DUP2 MSTORE PUSH1 0x4 ADD PUSH2 0x52A SWAP3 SWAP2 SWAP1 PUSH2 0x1BDA JUMP JUMPDEST PUSH1 0x20 PUSH1 0x40 MLOAD DUP1 DUP4 SUB DUP2 PUSH1 0x0 DUP8 GAS CALL ISZERO DUP1 ISZERO PUSH2 0x549 JUMPI RETURNDATASIZE PUSH1 0x0 DUP1 RETURNDATACOPY RETURNDATASIZE PUSH1 0x0 REVERT JUMPDEST POP POP POP POP PUSH1 0x40 MLOAD RETURNDATASIZE PUSH1 0x1F NOT PUSH1 0x1F DUP3 ADD AND DUP3 ADD DUP1 PUSH1 0x40 MSTORE POP DUP2 ADD SWAP1 PUSH2 0x56D SWAP2 SWAP1 PUSH2 0x1C3B JUMP JUMPDEST PUSH2 0x5AC JUMPI PUSH1 0x40 MLOAD PUSH32 0x8C379A000000000000000000000000000000000000000000000000000000000 DUP2 MSTORE PUSH1 0x4 ADD PUSH2 0x5A3 SWAP1 PUSH2 0x1CB4 JUMP JUMPDEST PUSH1 0x40 MLOAD DUP1 SWAP2 SUB SWAP1 REVERT JUMPDEST POP JUMP JUMPDEST PUSH3 0x278D00 DUP2 JUMP JUMPDEST PUSH1 0x5 PUSH1 0x0 SWAP1 SLOAD SWAP1 PUSH2 0x100 EXP SWAP1 DIV PUSH20 0xFFFFFFFFFFFFFFFFFFFFFFFFFFFFFFFFFFFFFFFF AND PUSH20 0xFFFFFFFFFFFFFFFFFFFFFFFFFFFFFFFFFFFFFFFF AND CALLER PUSH20 0xFFFFFFFFFFFFFFFFFFFFFFFFFFFFFFFFFFFFFFFF AND EQ PUSH2 0x646 JUMPI PUSH1 0x40 MLOAD PUSH32 0x8C379A000000000000000000000000000000000000000000000000000000000 DUP2 MSTORE PUSH1 0x4 ADD PUSH2 0x63D SWAP1 PUSH2 0x1D46 JUMP JUMPDEST PUSH1 0x40 MLOAD DUP1 SWAP2 SUB SWAP1 REVERT JUMPDEST PUSH1 0x4 PUSH1 0x3 PUSH1 0x0 DUP4 DUP2 MSTORE PUSH1 0x20 ADD SWAP1 DUP2 MSTORE PUSH1 0x20 ADD PUSH1 0x0 KECCAK256 PUSH1 0x7 ADD SLOAD SUB PUSH2 0x69F JUMPI PUSH1 0x40 MLOAD PUSH32 0x8C379A000000000000000000000000000000000000000000000000000000000 DUP2 MSTORE PUSH1 0x4 ADD PUSH2 0x696 SWAP1 PUSH2 0x1DD8 JUMP JUMPDEST PUSH1 0x40 MLOAD DUP1 SWAP2 SUB SWAP1 REVERT JUMPDEST PUSH1 0x1 PUSH1 0x3 PUSH1 0x0 DUP4 DUP2 MSTORE PUSH1 0x20 ADD SWAP1 DUP2 MSTORE PUSH1 0x20 ADD PUSH1 0x0 KECCAK256 PUSH1 0x7 ADD SLOAD SUB PUSH2 0x6DE JUMPI PUSH1 0x2 PUSH1 0x3 PUSH1 0x0 DUP4 DUP2 MSTORE PUSH1 0x20 ADD SWAP1 DUP2 MSTORE PUSH1 0x20 ADD PUSH1 0x0 KECCAK256 PUSH1 0x7 ADD DUP2 SWAP1 SSTORE POP PUSH2 0x758 JUMP JUMPDEST PUSH1 0x2 PUSH1 0x3 PUSH1 0x0 DUP4 DUP2 MSTORE PUSH1 0x20 ADD SWAP1 DUP2 MSTORE PUSH1 0x20 ADD PUSH1 0x0 KECCAK256 PUSH1 0x7 ADD SLOAD SUB PUSH2 0x71C JUMPI PUSH1 0x3 DUP1 PUSH1 0x0 DUP4 DUP2 MSTORE PUSH1 0x20 ADD SWAP1 DUP2 MSTORE PUSH1 0x20 ADD PUSH1 0x0 KECCAK256 PUSH1 0x7 ADD DUP2 SWAP1 SSTORE POP PUSH2 0x757 JUMP JUMPDEST PUSH1 0x3 DUP1 PUSH1 0x0 DUP4 DUP2 MSTORE PUSH1 0x20 ADD SWAP1 DUP2 MSTORE PUSH1 0x20 ADD PUSH1 0x0 KECCAK256 PUSH1 0x7 ADD SLOAD SUB PUSH2 0x756 JUMPI PUSH1 0x4 PUSH1 0x3 PUSH1 0x0 DUP4 DUP2 MSTORE PUSH1 0x20 ADD SWAP1 DUP2 MSTORE PUSH1 0x20 ADD PUSH1 0x0 KECCAK256 PUSH1 0x7 ADD DUP2 SWAP1 SSTORE POP JUMPDEST JUMPDEST JUMPDEST POP JUMP JUMPDEST PUSH4 0x1E13380 DUP2 JUMP JUMPDEST PUSH1 0x4 SLOAD DUP2 JUMP JUMPDEST CALLER PUSH20 0xFFFFFFFFFFFFFFFFFFFFFFFFFFFFFFFFFFFFFFFF AND PUSH1 0x3 PUSH1 0x0 DUP7 DUP2 MSTORE PUSH1 0x20 ADD SWAP1 DUP2 MSTORE PUSH1 0x20 ADD PUSH1 0x0 KECCAK256 PUSH1 0x6 ADD PUSH1 0x0 SWAP1 SLOAD SWAP1 PUSH2 0x100 EXP SWAP1 DIV PUSH20 0xFFFFFFFFFFFFFFFFFFFFFFFFFFFFFFFFFFFFFFFF AND PUSH20 0xFFFFFFFFFFFFFFFFFFFFFFFFFFFFFFFFFFFFFFFF AND EQ PUSH2 0x80D JUMPI PUSH1 0x40 MLOAD PUSH32 0x8C379A000000000000000000000000000000000000000000000000000000000 DUP2 MSTORE PUSH1 0x4 ADD PUSH2 0x804 SWAP1 PUSH2 0x1E44 JUMP JUMPDEST PUSH1 0x40 MLOAD DUP1 SWAP2 SUB SWAP1 REVERT JUMPDEST DUP3 PUSH1 0x3 PUSH1 0x0 DUP7 DUP2 MSTORE PUSH1 0x20 ADD SWAP1 DUP2 MSTORE PUSH1 0x20 ADD PUSH1 0x0 KECCAK256 PUSH1 0x3 ADD SWAP1 DUP2 PUSH2 0x830 SWAP2 SWAP1 PUSH2 0x2066 JUMP JUMPDEST POP DUP2 PUSH1 0x3 PUSH1 0x0 DUP7 DUP2 MSTORE PUSH1 0x20 ADD SWAP1 DUP2 MSTORE PUSH1 0x20 ADD PUSH1 0x0 KECCAK256 PUSH1 0x4 ADD SWAP1 DUP2 PUSH2 0x854 SWAP2 SWAP1 PUSH2 0x2066 JUMP JUMPDEST POP DUP1 PUSH1 0x3 PUSH1 0x0 DUP7 DUP2 MSTORE PUSH1 0x20 ADD SWAP1 DUP2 MSTORE PUSH1 0x20 ADD PUSH1 0x0 KECCAK256 PUSH1 0x5 ADD SWAP1 DUP2 PUSH2 0x878 SWAP2 SWAP1 PUSH2 0x2066 JUMP JUMPDEST POP TIMESTAMP PUSH1 0x3 PUSH1 0x0 DUP7 DUP2 MSTORE PUSH1 0x20 ADD SWAP1 DUP2 MSTORE PUSH1 0x20 ADD PUSH1 0x0 KECCAK256 PUSH1 0x8 ADD DUP2 SWAP1 SSTORE POP POP POP POP POP JUMP JUMPDEST PUSH1 0x0 PUSH1 0x1 PUSH1 0x0 CALLER PUSH20 0xFFFFFFFFFFFFFFFFFFFFFFFFFFFFFFFFFFFFFFFF AND PUSH20 0xFFFFFFFFFFFFFFFFFFFFFFFFFFFFFFFFFFFFFFFF AND DUP2 MSTORE PUSH1 0x20 ADD SWAP1 DUP2 MSTORE PUSH1 0x20 ADD PUSH1 0x0 KECCAK256 SLOAD GT PUSH2 0x91C JUMPI PUSH1 0x40 MLOAD PUSH32 0x8C379A000000000000000000000000000000000000000000000000000000000 DUP2 MSTORE PUSH1 0x4 ADD PUSH2 0x913 SWAP1 PUSH2 0x2184 JUMP JUMPDEST PUSH1 0x40 MLOAD DUP1 SWAP2 SUB SWAP1 REVERT JUMPDEST DUP1 PUSH1 0x1 PUSH1 0x0 CALLER PUSH20 0xFFFFFFFFFFFFFFFFFFFFFFFFFFFFFFFFFFFFFFFF AND PUSH20 0xFFFFFFFFFFFFFFFFFFFFFFFFFFFFFFFFFFFFFFFF AND DUP2 MSTORE PUSH1 0x20 ADD SWAP1 DUP2 MSTORE PUSH1 0x20 ADD PUSH1 0x0 KECCAK256 PUSH1 0x0 DUP3 DUP3 SLOAD PUSH2 0x96B SWAP2 SWAP1 PUSH2 0x1BA6 JUMP JUMPDEST SWAP3 POP POP DUP2 SWAP1 SSTORE POP DUP1 PUSH1 0x3 PUSH1 0x0 DUP5 DUP2 MSTORE PUSH1 0x20 ADD SWAP1 DUP2 MSTORE PUSH1 0x20 ADD PUSH1 0x0 KECCAK256 PUSH1 0x9 ADD PUSH1 0x0 DUP3 DUP3 SLOAD PUSH2 0x998 SWAP2 SWAP1 PUSH2 0x21A4 JUMP JUMPDEST SWAP3 POP POP DUP2 SWAP1 SSTORE POP POP POP JUMP JUMPDEST PUSH1 0x6 PUSH1 0x0 SWAP1 SLOAD SWAP1 PUSH2 0x100 EXP SWAP1 DIV PUSH20 0xFFFFFFFFFFFFFFFFFFFFFFFFFFFFFFFFFFFFFFFF AND PUSH20 0xFFFFFFFFFFFFFFFFFFFFFFFFFFFFFFFFFFFFFFFF AND PUSH4 0x23B872DD CALLER ADDRESS DUP5 PUSH1 0x40 MLOAD DUP5 PUSH4 0xFFFFFFFF AND PUSH1 0xE0 SHL DUP2 MSTORE PUSH1 0x4 ADD PUSH2 0xA02 SWAP4 SWAP3 SWAP2 SWAP1 PUSH2 0x21D8 JUMP JUMPDEST PUSH1 0x20 PUSH1 0x40 MLOAD DUP1 DUP4 SUB DUP2 PUSH1 0x0 DUP8 GAS CALL ISZERO DUP1 ISZERO PUSH2 0xA21 JUMPI RETURNDATASIZE PUSH1 0x0 DUP1 RETURNDATACOPY RETURNDATASIZE PUSH1 0x0 REVERT JUMPDEST POP POP POP POP PUSH1 0x40 MLOAD RETURNDATASIZE PUSH1 0x1F NOT PUSH1 0x1F DUP3 ADD AND DUP3 ADD DUP1 PUSH1 0x40 MSTORE POP DUP2 ADD SWAP1 PUSH2 0xA45 SWAP2 SWAP1 PUSH2 0x1C3B JUMP JUMPDEST PUSH2 0xA84 JUMPI PUSH1 0x40 MLOAD PUSH32 0x8C379A000000000000000000000000000000000000000000000000000000000 DUP2 MSTORE PUSH1 0x4 ADD PUSH2 0xA7B SWAP1 PUSH2 0x1CB4 JUMP JUMPDEST PUSH1 0x40 MLOAD DUP1 SWAP2 SUB SWAP1 REVERT JUMPDEST DUP1 PUSH1 0x0 DUP1 CALLER PUSH20 0xFFFFFFFFFFFFFFFFFFFFFFFFFFFFFFFFFFFFFFFF AND PUSH20 0xFFFFFFFFFFFFFFFFFFFFFFFFFFFFFFFFFFFFFFFF AND DUP2 MSTORE PUSH1 0x20 ADD SWAP1 DUP2 MSTORE PUSH1 0x20 ADD PUSH1 0x0 KECCAK256 PUSH1 0x0 DUP3 DUP3 SLOAD PUSH2 0xAD2 SWAP2 SWAP1 PUSH2 0x21A4 JUMP JUMPDEST SWAP3 POP POP DUP2 SWAP1 SSTORE POP PUSH1 0x0 PUSH1 0x2 PUSH1 0x0 CALLER PUSH20 0xFFFFFFFFFFFFFFFFFFFFFFFFFFFFFFFFFFFFFFFF AND PUSH20 0xFFFFFFFFFFFFFFFFFFFFFFFFFFFFFFFFFFFFFFFF AND DUP2 MSTORE PUSH1 0x20 ADD SWAP1 DUP2 MSTORE PUSH1 0x20 ADD PUSH1 0x0 KECCAK256 SLOAD SUB PUSH2 0xB65 JUMPI TIMESTAMP PUSH1 0x2 PUSH1 0x0 CALLER PUSH20 0xFFFFFFFFFFFFFFFFFFFFFFFFFFFFFFFFFFFFFFFF AND PUSH20 0xFFFFFFFFFFFFFFFFFFFFFFFFFFFFFFFFFFFFFFFF AND DUP2 MSTORE PUSH1 0x20 ADD SWAP1 DUP2 MSTORE PUSH1 0x20 ADD PUSH1 0x0 KECCAK256 DUP2 SWAP1 SSTORE POP JUMPDEST POP JUMP JUMPDEST PUSH1 0x0 PUSH1 0xC PUSH1 0x64 PUSH1 0x3 DUP5 PUSH2 0xB7B SWAP2 SWAP1 PUSH2 0x220F JUMP JUMPDEST PUSH2 0xB85 SWAP2 SWAP1 PUSH2 0x2280 JUMP JUMPDEST PUSH2 0xB8F SWAP2 SWAP1 PUSH2 0x2280 JUMP JUMPDEST SWAP1 POP SWAP2 SWAP1 POP JUMP JUMPDEST PUSH1 0x1 PUSH1 0x20 MSTORE DUP1 PUSH1 0x0 MSTORE PUSH1 0x40 PUSH1 0x0 KECCAK256 PUSH1 0x0 SWAP2 POP SWAP1 POP SLOAD DUP2 JUMP JUMPDEST PUSH1 0x5 PUSH1 0x0 SWAP1 SLOAD SWAP1 PUSH2 0x100 EXP SWAP1 DIV PUSH20 0xFFFFFFFFFFFFFFFFFFFFFFFFFFFFFFFFFFFFFFFF AND PUSH20 0xFFFFFFFFFFFFFFFFFFFFFFFFFFFFFFFFFFFFFFFF AND CALLER PUSH20 0xFFFFFFFFFFFFFFFFFFFFFFFFFFFFFFFFFFFFFFFF AND EQ PUSH2 0xC3E JUMPI PUSH1 0x40 MLOAD PUSH32 0x8C379A000000000000000000000000000000000000000000000000000000000 DUP2 MSTORE PUSH1 0x4 ADD PUSH2 0xC35 SWAP1 PUSH2 0x1D46 JUMP JUMPDEST PUSH1 0x40 MLOAD DUP1 SWAP2 SUB SWAP1 REVERT JUMPDEST PUSH1 0x0 PUSH1 0x3 PUSH1 0x0 DUP4 DUP2 MSTORE PUSH1 0x20 ADD SWAP1 DUP2 MSTORE PUSH1 0x20 ADD PUSH1 0x0 KECCAK256 PUSH1 0x7 ADD SLOAD EQ PUSH2 0xC97 JUMPI PUSH1 0x40 MLOAD PUSH32 0x8C379A000000000000000000000000000000000000000000000000000000000 DUP2 MSTORE PUSH1 0x4 ADD PUSH2 0xC8E SWAP1 PUSH2 0x22FD JUMP JUMPDEST PUSH1 0x40 MLOAD DUP1 SWAP2 SUB SWAP1 REVERT JUMPDEST PUSH1 0x1 PUSH1 0x3 PUSH1 0x0 DUP4 DUP2 MSTORE PUSH1 0x20 ADD SWAP1 DUP2 MSTORE PUSH1 0x20 ADD PUSH1 0x0 KECCAK256 PUSH1 0x7 ADD DUP2 SWAP1 SSTORE POP POP JUMP JUMPDEST PUSH1 0x40 MLOAD DUP1 PUSH2 0x140 ADD PUSH1 0x40 MSTORE DUP1 DUP5 DUP2 MSTORE PUSH1 0x20 ADD DUP4 DUP2 MSTORE PUSH1 0x20 ADD DUP3 DUP2 MSTORE PUSH1 0x20 ADD PUSH1 0x40 MLOAD DUP1 PUSH1 0x20 ADD PUSH1 0x40 MSTORE DUP1 PUSH1 0x0 DUP2 MSTORE POP DUP2 MSTORE PUSH1 0x20 ADD PUSH1 0x40 MLOAD DUP1 PUSH1 0x20 ADD PUSH1 0x40 MSTORE DUP1 PUSH1 0x0 DUP2 MSTORE POP DUP2 MSTORE PUSH1 0x20 ADD PUSH1 0x40 MLOAD DUP1 PUSH1 0x20 ADD PUSH1 0x40 MSTORE DUP1 PUSH1 0x0 DUP2 MSTORE POP DUP2 MSTORE PUSH1 0x20 ADD CALLER PUSH20 0xFFFFFFFFFFFFFFFFFFFFFFFFFFFFFFFFFFFFFFFF AND DUP2 MSTORE PUSH1 0x20 ADD PUSH1 0x0 DUP2 MSTORE PUSH1 0x20 ADD TIMESTAMP DUP2 MSTORE PUSH1 0x20 ADD PUSH1 0x0 DUP2 MSTORE POP PUSH1 0x3 PUSH1 0x0 PUSH1 0x4 SLOAD DUP2 MSTORE PUSH1 0x20 ADD SWAP1 DUP2 MSTORE PUSH1 0x20 ADD PUSH1 0x0 KECCAK256 PUSH1 0x0 DUP3 ADD MLOAD DUP2 PUSH1 0x0 ADD SWAP1 DUP2 PUSH2 0xD6B SWAP2 SWAP1 PUSH2 0x2066 JUMP JUMPDEST POP PUSH1 0x20 DUP3 ADD MLOAD DUP2 PUSH1 0x1 ADD SWAP1 DUP2 PUSH2 0xD81 SWAP2 SWAP1 PUSH2 0x2066 JUMP JUMPDEST POP PUSH1 0x40 DUP3 ADD MLOAD DUP2 PUSH1 0x2 ADD SWAP1 DUP2 PUSH2 0xD97 SWAP2 SWAP1 PUSH2 0x2066 JUMP JUMPDEST POP PUSH1 0x60 DUP3 ADD MLOAD DUP2 PUSH1 0x3 ADD SWAP1 DUP2 PUSH2 0xDAD SWAP2 SWAP1 PUSH2 0x2066 JUMP JUMPDEST POP PUSH1 0x80 DUP3 ADD MLOAD DUP2 PUSH1 0x4 ADD SWAP1 DUP2 PUSH2 0xDC3 SWAP2 SWAP1 PUSH2 0x2066 JUMP JUMPDEST POP PUSH1 0xA0 DUP3 ADD MLOAD DUP2 PUSH1 0x5 ADD SWAP1 DUP2 PUSH2 0xDD9 SWAP2 SWAP1 PUSH2 0x2066 JUMP JUMPDEST POP PUSH1 0xC0 DUP3 ADD MLOAD DUP2 PUSH1 0x6 ADD PUSH1 0x0 PUSH2 0x100 EXP DUP2 SLOAD DUP2 PUSH20 0xFFFFFFFFFFFFFFFFFFFFFFFFFFFFFFFFFFFFFFFF MUL NOT AND SWAP1 DUP4 PUSH20 0xFFFFFFFFFFFFFFFFFFFFFFFFFFFFFFFFFFFFFFFF AND MUL OR SWAP1 SSTORE POP PUSH1 0xE0 DUP3 ADD MLOAD DUP2 PUSH1 0x7 ADD SSTORE PUSH2 0x100 DUP3 ADD MLOAD DUP2 PUSH1 0x8 ADD SSTORE PUSH2 0x120 DUP3 ADD MLOAD DUP2 PUSH1 0x9 ADD SSTORE SWAP1 POP POP PUSH1 0x4 PUSH1 0x0 DUP2 SLOAD DUP1 SWAP3 SWAP2 SWAP1 PUSH2 0xE57 SWAP1 PUSH2 0x231D JUMP JUMPDEST SWAP2 SWAP1 POP SSTORE POP POP POP POP JUMP JUMPDEST PUSH1 0x0 DUP1 PUSH1 0x0 CALLER PUSH20 0xFFFFFFFFFFFFFFFFFFFFFFFFFFFFFFFFFFFFFFFF AND PUSH20 0xFFFFFFFFFFFFFFFFFFFFFFFFFFFFFFFFFFFFFFFF AND DUP2 MSTORE PUSH1 0x20 ADD SWAP1 DUP2 MSTORE PUSH1 0x20 ADD PUSH1 0x0 KECCAK256 SLOAD GT PUSH2 0xEE2 JUMPI PUSH1 0x40 MLOAD PUSH32 0x8C379A000000000000000000000000000000000000000000000000000000000 DUP2 MSTORE PUSH1 0x4 ADD PUSH2 0xED9 SWAP1 PUSH2 0x23B1 JUMP JUMPDEST PUSH1 0x40 MLOAD DUP1 SWAP2 SUB SWAP1 REVERT JUMPDEST PUSH1 0x0 PUSH1 0x2 PUSH1 0x0 CALLER PUSH20 0xFFFFFFFFFFFFFFFFFFFFFFFFFFFFFFFFFFFFFFFF AND PUSH20 0xFFFFFFFFFFFFFFFFFFFFFFFFFFFFFFFFFFFFFFFF AND DUP2 MSTORE PUSH1 0x20 ADD SWAP1 DUP2 MSTORE PUSH1 0x20 ADD PUSH1 0x0 KECCAK256 SLOAD TIMESTAMP PUSH2 0xF2F SWAP2 SWAP1 PUSH2 0x1BA6 JUMP JUMPDEST SWAP1 POP PUSH3 0x278D00 DUP2 LT ISZERO PUSH2 0xF77 JUMPI PUSH1 0x40 MLOAD PUSH32 0x8C379A000000000000000000000000000000000000000000000000000000000 DUP2 MSTORE PUSH1 0x4 ADD PUSH2 0xF6E SWAP1 PUSH2 0x241D JUMP JUMPDEST PUSH1 0x40 MLOAD DUP1 SWAP2 SUB SWAP1 REVERT JUMPDEST PUSH1 0x0 PUSH2 0xFC0 PUSH1 0x0 DUP1 CALLER PUSH20 0xFFFFFFFFFFFFFFFFFFFFFFFFFFFFFFFFFFFFFFFF AND PUSH20 0xFFFFFFFFFFFFFFFFFFFFFFFFFFFFFFFFFFFFFFFF AND DUP2 MSTORE PUSH1 0x20 ADD SWAP1 DUP2 MSTORE PUSH1 0x20 ADD PUSH1 0x0 KECCAK256 SLOAD PUSH2 0xB68 JUMP JUMPDEST SWAP1 POP DUP1 PUSH1 0x1 PUSH1 0x0 CALLER PUSH20 0xFFFFFFFFFFFFFFFFFFFFFFFFFFFFFFFFFFFFFFFF AND PUSH20 0xFFFFFFFFFFFFFFFFFFFFFFFFFFFFFFFFFFFFFFFF AND DUP2 MSTORE PUSH1 0x20 ADD SWAP1 DUP2 MSTORE PUSH1 0x20 ADD PUSH1 0x0 KECCAK256 PUSH1 0x0 DUP3 DUP3 SLOAD PUSH2 0x1011 SWAP2 SWAP1 PUSH2 0x21A4 JUMP JUMPDEST SWAP3 POP POP DUP2 SWAP1 SSTORE POP TIMESTAMP PUSH1 0x2 PUSH1 0x0 CALLER PUSH20 0xFFFFFFFFFFFFFFFFFFFFFFFFFFFFFFFFFFFFFFFF AND PUSH20 0xFFFFFFFFFFFFFFFFFFFFFFFFFFFFFFFFFFFFFFFF AND DUP2 MSTORE PUSH1 0x20 ADD SWAP1 DUP2 MSTORE PUSH1 0x20 ADD PUSH1 0x0 KECCAK256 DUP2 SWAP1 SSTORE POP PUSH1 0x6 PUSH1 0x0 SWAP1 SLOAD SWAP1 PUSH2 0x100 EXP SWAP1 DIV PUSH20 0xFFFFFFFFFFFFFFFFFFFFFFFFFFFFFFFFFFFFFFFF AND PUSH20 0xFFFFFFFFFFFFFFFFFFFFFFFFFFFFFFFFFFFFFFFF AND PUSH4 0xA9059CBB CALLER DUP4 PUSH1 0x40 MLOAD DUP4 PUSH4 0xFFFFFFFF AND PUSH1 0xE0 SHL DUP2 MSTORE PUSH1 0x4 ADD PUSH2 0x10B9 SWAP3 SWAP2 SWAP1 PUSH2 0x1BDA JUMP JUMPDEST PUSH1 0x20 PUSH1 0x40 MLOAD DUP1 DUP4 SUB DUP2 PUSH1 0x0 DUP8 GAS CALL ISZERO DUP1 ISZERO PUSH2 0x10D8 JUMPI RETURNDATASIZE PUSH1 0x0 DUP1 RETURNDATACOPY RETURNDATASIZE PUSH1 0x0 REVERT JUMPDEST POP POP POP POP PUSH1 0x40 MLOAD RETURNDATASIZE PUSH1 0x1F NOT PUSH1 0x1F DUP3 ADD AND DUP3 ADD DUP1 PUSH1 0x40 MSTORE POP DUP2 ADD SWAP1 PUSH2 0x10FC SWAP2 SWAP1 PUSH2 0x1C3B JUMP JUMPDEST PUSH2 0x113B JUMPI PUSH1 0x40 MLOAD PUSH32 0x8C379A000000000000000000000000000000000000000000000000000000000 DUP2 MSTORE PUSH1 0x4 ADD PUSH2 0x1132 SWAP1 PUSH2 0x1CB4 JUMP JUMPDEST PUSH1 0x40 MLOAD DUP1 SWAP2 SUB SWAP1 REVERT JUMPDEST POP POP JUMP JUMPDEST PUSH1 0x3 PUSH1 0x20 MSTORE DUP1 PUSH1 0x0 MSTORE PUSH1 0x40 PUSH1 0x0 KECCAK256 PUSH1 0x0 SWAP2 POP SWAP1 POP DUP1 PUSH1 0x0 ADD DUP1 SLOAD PUSH2 0x1162 SWAP1 PUSH2 0x1E93 JUMP JUMPDEST DUP1 PUSH1 0x1F ADD PUSH1 0x20 DUP1 SWAP2 DIV MUL PUSH1 0x20 ADD PUSH1 0x40 MLOAD SWAP1 DUP2 ADD PUSH1 0x40 MSTORE DUP1 SWAP3 SWAP2 SWAP1 DUP2 DUP2 MSTORE PUSH1 0x20 ADD DUP3 DUP1 SLOAD PUSH2 0x118E SWAP1 PUSH2 0x1E93 JUMP JUMPDEST DUP1 ISZERO PUSH2 0x11DB JUMPI DUP1 PUSH1 0x1F LT PUSH2 0x11B0 JUMPI PUSH2 0x100 DUP1 DUP4 SLOAD DIV MUL DUP4 MSTORE SWAP2 PUSH1 0x20 ADD SWAP2 PUSH2 0x11DB JUMP JUMPDEST DUP3 ADD SWAP2 SWAP1 PUSH1 0x0 MSTORE PUSH1 0x20 PUSH1 0x0 KECCAK256 SWAP1 JUMPDEST DUP2 SLOAD DUP2 MSTORE SWAP1 PUSH1 0x1 ADD SWAP1 PUSH1 0x20 ADD DUP1 DUP4 GT PUSH2 0x11BE JUMPI DUP3 SWAP1 SUB PUSH1 0x1F AND DUP3 ADD SWAP2 JUMPDEST POP POP POP POP POP SWAP1 DUP1 PUSH1 0x1 ADD DUP1 SLOAD PUSH2 0x11F0 SWAP1 PUSH2 0x1E93 JUMP JUMPDEST DUP1 PUSH1 0x1F ADD PUSH1 0x20 DUP1 SWAP2 DIV MUL PUSH1 0x20 ADD PUSH1 0x40 MLOAD SWAP1 DUP2 ADD PUSH1 0x40 MSTORE DUP1 SWAP3 SWAP2 SWAP1 DUP2 DUP2 MSTORE PUSH1 0x20 ADD DUP3 DUP1 SLOAD PUSH2 0x121C SWAP1 PUSH2 0x1E93 JUMP JUMPDEST DUP1 ISZERO PUSH2 0x1269 JUMPI DUP1 PUSH1 0x1F LT PUSH2 0x123E JUMPI PUSH2 0x100 DUP1 DUP4 SLOAD DIV MUL DUP4 MSTORE SWAP2 PUSH1 0x20 ADD SWAP2 PUSH2 0x1269 JUMP JUMPDEST DUP3 ADD SWAP2 SWAP1 PUSH1 0x0 MSTORE PUSH1 0x20 PUSH1 0x0 KECCAK256 SWAP1 JUMPDEST DUP2 SLOAD DUP2 MSTORE SWAP1 PUSH1 0x1 ADD SWAP1 PUSH1 0x20 ADD DUP1 DUP4 GT PUSH2 0x124C JUMPI DUP3 SWAP1 SUB PUSH1 0x1F AND DUP3 ADD SWAP2 JUMPDEST POP POP POP POP POP SWAP1 DUP1 PUSH1 0x2 ADD DUP1 SLOAD PUSH2 0x127E SWAP1 PUSH2 0x1E93 JUMP JUMPDEST DUP1 PUSH1 0x1F ADD PUSH1 0x20 DUP1 SWAP2 DIV MUL PUSH1 0x20 ADD PUSH1 0x40 MLOAD SWAP1 DUP2 ADD PUSH1 0x40 MSTORE DUP1 SWAP3 SWAP2 SWAP1 DUP2 DUP2 MSTORE PUSH1 0x20 ADD DUP3 DUP1 SLOAD PUSH2 0x12AA SWAP1 PUSH2 0x1E93 JUMP JUMPDEST DUP1 ISZERO PUSH2 0x12F7 JUMPI DUP1 PUSH1 0x1F LT PUSH2 0x12CC JUMPI PUSH2 0x100 DUP1 DUP4 SLOAD DIV MUL DUP4 MSTORE SWAP2 PUSH1 0x20 ADD SWAP2 PUSH2 0x12F7 JUMP JUMPDEST DUP3 ADD SWAP2 SWAP1 PUSH1 0x0 MSTORE PUSH1 0x20 PUSH1 0x0 KECCAK256 SWAP1 JUMPDEST DUP2 SLOAD DUP2 MSTORE SWAP1 PUSH1 0x1 ADD SWAP1 PUSH1 0x20 ADD DUP1 DUP4 GT PUSH2 0x12DA JUMPI DUP3 SWAP1 SUB PUSH1 0x1F AND DUP3 ADD SWAP2 JUMPDEST POP POP POP POP POP SWAP1 DUP1 PUSH1 0x3 ADD DUP1 SLOAD PUSH2 0x130C SWAP1 PUSH2 0x1E93 JUMP JUMPDEST DUP1 PUSH1 0x1F ADD PUSH1 0x20 DUP1 SWAP2 DIV MUL PUSH1 0x20 ADD PUSH1 0x40 MLOAD SWAP1 DUP2 ADD PUSH1 0x40 MSTORE DUP1 SWAP3 SWAP2 SWAP1 DUP2 DUP2 MSTORE PUSH1 0x20 ADD DUP3 DUP1 SLOAD PUSH2 0x1338 SWAP1 PUSH2 0x1E93 JUMP JUMPDEST DUP1 ISZERO PUSH2 0x1385 JUMPI DUP1 PUSH1 0x1F LT PUSH2 0x135A JUMPI PUSH2 0x100 DUP1 DUP4 SLOAD DIV MUL DUP4 MSTORE SWAP2 PUSH1 0x20 ADD SWAP2 PUSH2 0x1385 JUMP JUMPDEST DUP3 ADD SWAP2 SWAP1 PUSH1 0x0 MSTORE PUSH1 0x20 PUSH1 0x0 KECCAK256 SWAP1 JUMPDEST DUP2 SLOAD DUP2 MSTORE SWAP1 PUSH1 0x1 ADD SWAP1 PUSH1 0x20 ADD DUP1 DUP4 GT PUSH2 0x1368 JUMPI DUP3 SWAP1 SUB PUSH1 0x1F AND DUP3 ADD SWAP2 JUMPDEST POP POP POP POP POP SWAP1 DUP1 PUSH1 0x4 ADD DUP1 SLOAD PUSH2 0x139A SWAP1 PUSH2 0x1E93 JUMP JUMPDEST DUP1 PUSH1 0x1F ADD PUSH1 0x20 DUP1 SWAP2 DIV MUL PUSH1 0x20 ADD PUSH1 0x40 MLOAD SWAP1 DUP2 ADD PUSH1 0x40 MSTORE DUP1 SWAP3 SWAP2 SWAP1 DUP2 DUP2 MSTORE PUSH1 0x20 ADD DUP3 DUP1 SLOAD PUSH2 0x13C6 SWAP1 PUSH2 0x1E93 JUMP JUMPDEST DUP1 ISZERO PUSH2 0x1413 JUMPI DUP1 PUSH1 0x1F LT PUSH2 0x13E8 JUMPI PUSH2 0x100 DUP1 DUP4 SLOAD DIV MUL DUP4 MSTORE SWAP2 PUSH1 0x20 ADD SWAP2 PUSH2 0x1413 JUMP JUMPDEST DUP3 ADD SWAP2 SWAP1 PUSH1 0x0 MSTORE PUSH1 0x20 PUSH1 0x0 KECCAK256 SWAP1 JUMPDEST DUP2 SLOAD DUP2 MSTORE SWAP1 PUSH1 0x1 ADD SWAP1 PUSH1 0x20 ADD DUP1 DUP4 GT PUSH2 0x13F6 JUMPI DUP3 SWAP1 SUB PUSH1 0x1F AND DUP3 ADD SWAP2 JUMPDEST POP POP POP POP POP SWAP1 DUP1 PUSH1 0x5 ADD DUP1 SLOAD PUSH2 0x1428 SWAP1 PUSH2 0x1E93 JUMP JUMPDEST DUP1 PUSH1 0x1F ADD PUSH1 0x20 DUP1 SWAP2 DIV MUL PUSH1 0x20 ADD PUSH1 0x40 MLOAD SWAP1 DUP2 ADD PUSH1 0x40 MSTORE DUP1 SWAP3 SWAP2 SWAP1 DUP2 DUP2 MSTORE PUSH1 0x20 ADD DUP3 DUP1 SLOAD PUSH2 0x1454 SWAP1 PUSH2 0x1E93 JUMP JUMPDEST DUP1 ISZERO PUSH2 0x14A1 JUMPI DUP1 PUSH1 0x1F LT PUSH2 0x1476 JUMPI PUSH2 0x100 DUP1 DUP4 SLOAD DIV MUL DUP4 MSTORE SWAP2 PUSH1 0x20 ADD SWAP2 PUSH2 0x14A1 JUMP JUMPDEST DUP3 ADD SWAP2 SWAP1 PUSH1 0x0 MSTORE PUSH1 0x20 PUSH1 0x0 KECCAK256 SWAP1 JUMPDEST DUP2 SLOAD DUP2 MSTORE SWAP1 PUSH1 0x1 ADD SWAP1 PUSH1 0x20 ADD DUP1 DUP4 GT PUSH2 0x1484 JUMPI DUP3 SWAP1 SUB PUSH1 0x1F AND DUP3 ADD SWAP2 JUMPDEST POP POP POP POP POP SWAP1 DUP1 PUSH1 0x6 ADD PUSH1 0x0 SWAP1 SLOAD SWAP1 PUSH2 0x100 EXP SWAP1 DIV PUSH20 0xFFFFFFFFFFFFFFFFFFFFFFFFFFFFFFFFFFFFFFFF AND SWAP1 DUP1 PUSH1 0x7 ADD SLOAD SWAP1 DUP1 PUSH1 0x8 ADD SLOAD SWAP1 DUP1 PUSH1 0x9 ADD SLOAD SWAP1 POP DUP11 JUMP JUMPDEST PUSH1 0x3 DUP2 JUMP JUMPDEST PUSH1 0x5 PUSH1 0x0 SWAP1 SLOAD SWAP1 PUSH2 0x100 EXP SWAP1 DIV PUSH20 0xFFFFFFFFFFFFFFFFFFFFFFFFFFFFFFFFFFFFFFFF AND DUP2 JUMP JUMPDEST PUSH1 0x0 PUSH1 0x40 MLOAD SWAP1 POP SWAP1 JUMP JUMPDEST PUSH1 0x0 DUP1 REVERT JUMPDEST PUSH1 0x0 DUP1 REVERT JUMPDEST PUSH1 0x0 PUSH20 0xFFFFFFFFFFFFFFFFFFFFFFFFFFFFFFFFFFFFFFFF DUP3 AND SWAP1 POP SWAP2 SWAP1 POP JUMP JUMPDEST PUSH1 0x0 PUSH2 0x154D DUP3 PUSH2 0x1522 JUMP JUMPDEST SWAP1 POP SWAP2 SWAP1 POP JUMP JUMPDEST PUSH2 0x155D DUP2 PUSH2 0x1542 JUMP JUMPDEST DUP2 EQ PUSH2 0x1568 JUMPI PUSH1 0x0 DUP1 REVERT JUMPDEST POP JUMP JUMPDEST PUSH1 0x0 DUP2 CALLDATALOAD SWAP1 POP PUSH2 0x157A DUP2 PUSH2 0x1554 JUMP JUMPDEST SWAP3 SWAP2 POP POP JUMP JUMPDEST PUSH1 0x0 PUSH1 0x20 DUP3 DUP5 SUB SLT ISZERO PUSH2 0x1596 JUMPI PUSH2 0x1595 PUSH2 0x1518 JUMP JUMPDEST JUMPDEST PUSH1 0x0 PUSH2 0x15A4 DUP5 DUP3 DUP6 ADD PUSH2 0x156B JUMP JUMPDEST SWAP2 POP POP SWAP3 SWAP2 POP POP JUMP JUMPDEST PUSH1 0x0 DUP2 SWAP1 POP SWAP2 SWAP1 POP JUMP JUMPDEST PUSH2 0x15C0 DUP2 PUSH2 0x15AD JUMP JUMPDEST DUP3 MSTORE POP POP JUMP JUMPDEST PUSH1 0x0 PUSH1 0x20 DUP3 ADD SWAP1 POP PUSH2 0x15DB PUSH1 0x0 DUP4 ADD DUP5 PUSH2 0x15B7 JUMP JUMPDEST SWAP3 SWAP2 POP POP JUMP JUMPDEST PUSH1 0x0 DUP2 SWAP1 POP SWAP2 SWAP1 POP JUMP JUMPDEST PUSH1 0x0 PUSH2 0x1606 PUSH2 0x1601 PUSH2 0x15FC DUP5 PUSH2 0x1522 JUMP JUMPDEST PUSH2 0x15E1 JUMP JUMPDEST PUSH2 0x1522 JUMP JUMPDEST SWAP1 POP SWAP2 SWAP1 POP JUMP JUMPDEST PUSH1 0x0 PUSH2 0x1618 DUP3 PUSH2 0x15EB JUMP JUMPDEST SWAP1 POP SWAP2 SWAP1 POP JUMP JUMPDEST PUSH1 0x0 PUSH2 0x162A DUP3 PUSH2 0x160D JUMP JUMPDEST SWAP1 POP SWAP2 SWAP1 POP JUMP JUMPDEST PUSH2 0x163A DUP2 PUSH2 0x161F JUMP JUMPDEST DUP3 MSTORE POP POP JUMP JUMPDEST PUSH1 0x0 PUSH1 0x20 DUP3 ADD SWAP1 POP PUSH2 0x1655 PUSH1 0x0 DUP4 ADD DUP5 PUSH2 0x1631 JUMP JUMPDEST SWAP3 SWAP2 POP POP JUMP JUMPDEST PUSH2 0x1664 DUP2 PUSH2 0x15AD JUMP JUMPDEST DUP2 EQ PUSH2 0x166F JUMPI PUSH1 0x0 DUP1 REVERT JUMPDEST POP JUMP JUMPDEST PUSH1 0x0 DUP2 CALLDATALOAD SWAP1 POP PUSH2 0x1681 DUP2 PUSH2 0x165B JUMP JUMPDEST SWAP3 SWAP2 POP POP JUMP JUMPDEST PUSH1 0x0 PUSH1 0x20 DUP3 DUP5 SUB SLT ISZERO PUSH2 0x169D JUMPI PUSH2 0x169C PUSH2 0x1518 JUMP JUMPDEST JUMPDEST PUSH1 0x0 PUSH2 0x16AB DUP5 DUP3 DUP6 ADD PUSH2 0x1672 JUMP JUMPDEST SWAP2 POP POP SWAP3 SWAP2 POP POP JUMP JUMPDEST PUSH1 0x0 DUP1 REVERT JUMPDEST PUSH1 0x0 DUP1 REVERT JUMPDEST PUSH1 0x0 PUSH1 0x1F NOT PUSH1 0x1F DUP4 ADD AND SWAP1 POP SWAP2 SWAP1 POP JUMP JUMPDEST PUSH32 0x4E487B7100000000000000000000000000000000000000000000000000000000 PUSH1 0x0 MSTORE PUSH1 0x41 PUSH1 0x4 MSTORE PUSH1 0x24 PUSH1 0x0 REVERT JUMPDEST PUSH2 0x1707 DUP3 PUSH2 0x16BE JUMP JUMPDEST DUP2 ADD DUP2 DUP2 LT PUSH8 0xFFFFFFFFFFFFFFFF DUP3 GT OR ISZERO PUSH2 0x1726 JUMPI PUSH2 0x1725 PUSH2 0x16CF JUMP JUMPDEST JUMPDEST DUP1 PUSH1 0x40 MSTORE POP POP POP JUMP JUMPDEST PUSH1 0x0 PUSH2 0x1739 PUSH2 0x150E JUMP JUMPDEST SWAP1 POP PUSH2 0x1745 DUP3 DUP3 PUSH2 0x16FE JUMP JUMPDEST SWAP2 SWAP1 POP JUMP JUMPDEST PUSH1 0x0 PUSH8 0xFFFFFFFFFFFFFFFF DUP3 GT ISZERO PUSH2 0x1765 JUMPI PUSH2 0x1764 PUSH2 0x16CF JUMP JUMPDEST JUMPDEST PUSH2 0x176E DUP3 PUSH2 0x16BE JUMP JUMPDEST SWAP1 POP PUSH1 0x20 DUP2 ADD SWAP1 POP SWAP2 SWAP1 POP JUMP JUMPDEST DUP3 DUP2 DUP4 CALLDATACOPY PUSH1 0x0 DUP4 DUP4 ADD MSTORE POP POP POP JUMP JUMPDEST PUSH1 0x0 PUSH2 0x179D PUSH2 0x1798 DUP5 PUSH2 0x174A JUMP JUMPDEST PUSH2 0x172F JUMP JUMPDEST SWAP1 POP DUP3 DUP2 MSTORE PUSH1 0x20 DUP2 ADD DUP5 DUP5 DUP5 ADD GT ISZERO PUSH2 0x17B9 JUMPI PUSH2 0x17B8 PUSH2 0x16B9 JUMP JUMPDEST JUMPDEST PUSH2 0x17C4 DUP5 DUP3 DUP6 PUSH2 0x177B JUMP JUMPDEST POP SWAP4 SWAP3 POP POP POP JUMP JUMPDEST PUSH1 0x0 DUP3 PUSH1 0x1F DUP4 ADD SLT PUSH2 0x17E1 JUMPI PUSH2 0x17E0 PUSH2 0x16B4 JUMP JUMPDEST JUMPDEST DUP2 CALLDATALOAD PUSH2 0x17F1 DUP5 DUP3 PUSH1 0x20 DUP7 ADD PUSH2 0x178A JUMP JUMPDEST SWAP2 POP POP SWAP3 SWAP2 POP POP JUMP JUMPDEST PUSH1 0x0 DUP1 PUSH1 0x0 DUP1 PUSH1 0x80 DUP6 DUP8 SUB SLT ISZERO PUSH2 0x1814 JUMPI PUSH2 0x1813 PUSH2 0x1518 JUMP JUMPDEST JUMPDEST PUSH1 0x0 PUSH2 0x1822 DUP8 DUP3 DUP9 ADD PUSH2 0x1672 JUMP JUMPDEST SWAP5 POP POP PUSH1 0x20 DUP6 ADD CALLDATALOAD PUSH8 0xFFFFFFFFFFFFFFFF DUP2 GT ISZERO PUSH2 0x1843 JUMPI PUSH2 0x1842 PUSH2 0x151D JUMP JUMPDEST JUMPDEST PUSH2 0x184F DUP8 DUP3 DUP9 ADD PUSH2 0x17CC JUMP JUMPDEST SWAP4 POP POP PUSH1 0x40 DUP6 ADD CALLDATALOAD PUSH8 0xFFFFFFFFFFFFFFFF DUP2 GT ISZERO PUSH2 0x1870 JUMPI PUSH2 0x186F PUSH2 0x151D JUMP JUMPDEST JUMPDEST PUSH2 0x187C DUP8 DUP3 DUP9 ADD PUSH2 0x17CC JUMP JUMPDEST SWAP3 POP POP PUSH1 0x60 DUP6 ADD CALLDATALOAD PUSH8 0xFFFFFFFFFFFFFFFF DUP2 GT ISZERO PUSH2 0x189D JUMPI PUSH2 0x189C PUSH2 0x151D JUMP JUMPDEST JUMPDEST PUSH2 0x18A9 DUP8 DUP3 DUP9 ADD PUSH2 0x17CC JUMP JUMPDEST SWAP2 POP POP SWAP3 SWAP6 SWAP2 SWAP5 POP SWAP3 POP JUMP JUMPDEST PUSH1 0x0 DUP1 PUSH1 0x40 DUP4 DUP6 SUB SLT ISZERO PUSH2 0x18CC JUMPI PUSH2 0x18CB PUSH2 0x1518 JUMP JUMPDEST JUMPDEST PUSH1 0x0 PUSH2 0x18DA DUP6 DUP3 DUP7 ADD PUSH2 0x1672 JUMP JUMPDEST SWAP3 POP POP PUSH1 0x20 PUSH2 0x18EB DUP6 DUP3 DUP7 ADD PUSH2 0x1672 JUMP JUMPDEST SWAP2 POP POP SWAP3 POP SWAP3 SWAP1 POP JUMP JUMPDEST PUSH1 0x0 DUP1 PUSH1 0x0 PUSH1 0x60 DUP5 DUP7 SUB SLT ISZERO PUSH2 0x190E JUMPI PUSH2 0x190D PUSH2 0x1518 JUMP JUMPDEST JUMPDEST PUSH1 0x0 DUP5 ADD CALLDATALOAD PUSH8 0xFFFFFFFFFFFFFFFF DUP2 GT ISZERO PUSH2 0x192C JUMPI PUSH2 0x192B PUSH2 0x151D JUMP JUMPDEST JUMPDEST PUSH2 0x1938 DUP7 DUP3 DUP8 ADD PUSH2 0x17CC JUMP JUMPDEST SWAP4 POP POP PUSH1 0x20 DUP5 ADD CALLDATALOAD PUSH8 0xFFFFFFFFFFFFFFFF DUP2 GT ISZERO PUSH2 0x1959 JUMPI PUSH2 0x1958 PUSH2 0x151D JUMP JUMPDEST JUMPDEST PUSH2 0x1965 DUP7 DUP3 DUP8 ADD PUSH2 0x17CC JUMP JUMPDEST SWAP3 POP POP PUSH1 0x40 DUP5 ADD CALLDATALOAD PUSH8 0xFFFFFFFFFFFFFFFF DUP2 GT ISZERO PUSH2 0x1986 JUMPI PUSH2 0x1985 PUSH2 0x151D JUMP JUMPDEST JUMPDEST PUSH2 0x1992 DUP7 DUP3 DUP8 ADD PUSH2 0x17CC JUMP JUMPDEST SWAP2 POP POP SWAP3 POP SWAP3 POP SWAP3 JUMP JUMPDEST PUSH1 0x0 DUP2 MLOAD SWAP1 POP SWAP2 SWAP1 POP JUMP JUMPDEST PUSH1 0x0 DUP3 DUP3 MSTORE PUSH1 0x20 DUP3 ADD SWAP1 POP SWAP3 SWAP2 POP POP JUMP JUMPDEST PUSH1 0x0 JUMPDEST DUP4 DUP2 LT ISZERO PUSH2 0x19D6 JUMPI DUP1 DUP3 ADD MLOAD DUP2 DUP5 ADD MSTORE PUSH1 0x20 DUP2 ADD SWAP1 POP PUSH2 0x19BB JUMP JUMPDEST PUSH1 0x0 DUP5 DUP5 ADD MSTORE POP POP POP POP JUMP JUMPDEST PUSH1 0x0 PUSH2 0x19ED DUP3 PUSH2 0x199C JUMP JUMPDEST PUSH2 0x19F7 DUP2 DUP6 PUSH2 0x19A7 JUMP JUMPDEST SWAP4 POP PUSH2 0x1A07 DUP2 DUP6 PUSH1 0x20 DUP7 ADD PUSH2 0x19B8 JUMP JUMPDEST PUSH2 0x1A10 DUP2 PUSH2 0x16BE JUMP JUMPDEST DUP5 ADD SWAP2 POP POP SWAP3 SWAP2 POP POP JUMP JUMPDEST PUSH2 0x1A24 DUP2 PUSH2 0x1542 JUMP JUMPDEST DUP3 MSTORE POP POP JUMP JUMPDEST PUSH1 0x0 PUSH2 0x140 DUP3 ADD SWAP1 POP DUP2 DUP2 SUB PUSH1 0x0 DUP4 ADD MSTORE PUSH2 0x1A45 DUP2 DUP14 PUSH2 0x19E2 JUMP JUMPDEST SWAP1 POP DUP2 DUP2 SUB PUSH1 0x20 DUP4 ADD MSTORE PUSH2 0x1A59 DUP2 DUP13 PUSH2 0x19E2 JUMP JUMPDEST SWAP1 POP DUP2 DUP2 SUB PUSH1 0x40 DUP4 ADD MSTORE PUSH2 0x1A6D DUP2 DUP12 PUSH2 0x19E2 JUMP JUMPDEST SWAP1 POP DUP2 DUP2 SUB PUSH1 0x60 DUP4 ADD MSTORE PUSH2 0x1A81 DUP2 DUP11 PUSH2 0x19E2 JUMP JUMPDEST SWAP1 POP DUP2 DUP2 SUB PUSH1 0x80 DUP4 ADD MSTORE PUSH2 0x1A95 DUP2 DUP10 PUSH2 0x19E2 JUMP JUMPDEST SWAP1 POP DUP2 DUP2 SUB PUSH1 0xA0 DUP4 ADD MSTORE PUSH2 0x1AA9 DUP2 DUP9 PUSH2 0x19E2 JUMP JUMPDEST SWAP1 POP PUSH2 0x1AB8 PUSH1 0xC0 DUP4 ADD DUP8 PUSH2 0x1A1B JUMP JUMPDEST PUSH2 0x1AC5 PUSH1 0xE0 DUP4 ADD DUP7 PUSH2 0x15B7 JUMP JUMPDEST PUSH2 0x1AD3 PUSH2 0x100 DUP4 ADD DUP6 PUSH2 0x15B7 JUMP JUMPDEST PUSH2 0x1AE1 PUSH2 0x120 DUP4 ADD DUP5 PUSH2 0x15B7 JUMP JUMPDEST SWAP12 SWAP11 POP POP POP POP POP POP POP POP POP POP POP JUMP JUMPDEST PUSH1 0x0 PUSH1 0x20 DUP3 ADD SWAP1 POP PUSH2 0x1B05 PUSH1 0x0 DUP4 ADD DUP5 PUSH2 0x1A1B JUMP JUMPDEST SWAP3 SWAP2 POP POP JUMP JUMPDEST PUSH32 0x496E73756666696369656E74207374616B656420616D6F756E74000000000000 PUSH1 0x0 DUP3 ADD MSTORE POP JUMP JUMPDEST PUSH1 0x0 PUSH2 0x1B41 PUSH1 0x1A DUP4 PUSH2 0x19A7 JUMP JUMPDEST SWAP2 POP PUSH2 0x1B4C DUP3 PUSH2 0x1B0B JUMP JUMPDEST PUSH1 0x20 DUP3 ADD SWAP1 POP SWAP2 SWAP1 POP JUMP JUMPDEST PUSH1 0x0 PUSH1 0x20 DUP3 ADD SWAP1 POP DUP2 DUP2 SUB PUSH1 0x0 DUP4 ADD MSTORE PUSH2 0x1B70 DUP2 PUSH2 0x1B34 JUMP JUMPDEST SWAP1 POP SWAP2 SWAP1 POP JUMP JUMPDEST PUSH32 0x4E487B7100000000000000000000000000000000000000000000000000000000 PUSH1 0x0 MSTORE PUSH1 0x11 PUSH1 0x4 MSTORE PUSH1 0x24 PUSH1 0x0 REVERT JUMPDEST PUSH1 0x0 PUSH2 0x1BB1 DUP3 PUSH2 0x15AD JUMP JUMPDEST SWAP2 POP PUSH2 0x1BBC DUP4 PUSH2 0x15AD JUMP JUMPDEST SWAP3 POP DUP3 DUP3 SUB SWAP1 POP DUP2 DUP2 GT ISZERO PUSH2 0x1BD4 JUMPI PUSH2 0x1BD3 PUSH2 0x1B77 JUMP JUMPDEST JUMPDEST SWAP3 SWAP2 POP POP JUMP JUMPDEST PUSH1 0x0 PUSH1 0x40 DUP3 ADD SWAP1 POP PUSH2 0x1BEF PUSH1 0x0 DUP4 ADD DUP6 PUSH2 0x1A1B JUMP JUMPDEST PUSH2 0x1BFC PUSH1 0x20 DUP4 ADD DUP5 PUSH2 0x15B7 JUMP JUMPDEST SWAP4 SWAP3 POP POP POP JUMP JUMPDEST PUSH1 0x0 DUP2 ISZERO ISZERO SWAP1 POP SWAP2 SWAP1 POP JUMP JUMPDEST PUSH2 0x1C18 DUP2 PUSH2 0x1C03 JUMP JUMPDEST DUP2 EQ PUSH2 0x1C23 JUMPI PUSH1 0x0 DUP1 REVERT JUMPDEST POP JUMP JUMPDEST PUSH1 0x0 DUP2 MLOAD SWAP1 POP PUSH2 0x1C35 DUP2 PUSH2 0x1C0F JUMP JUMPDEST SWAP3 SWAP2 POP POP JUMP JUMPDEST PUSH1 0x0 PUSH1 0x20 DUP3 DUP5 SUB SLT ISZERO PUSH2 0x1C51 JUMPI PUSH2 0x1C50 PUSH2 0x1518 JUMP JUMPDEST JUMPDEST PUSH1 0x0 PUSH2 0x1C5F DUP5 DUP3 DUP6 ADD PUSH2 0x1C26 JUMP JUMPDEST SWAP2 POP POP SWAP3 SWAP2 POP POP JUMP JUMPDEST PUSH32 0x546F6B656E207472616E73666572206661696C65640000000000000000000000 PUSH1 0x0 DUP3 ADD MSTORE POP JUMP JUMPDEST PUSH1 0x0 PUSH2 0x1C9E PUSH1 0x15 DUP4 PUSH2 0x19A7 JUMP JUMPDEST SWAP2 POP PUSH2 0x1CA9 DUP3 PUSH2 0x1C68 JUMP JUMPDEST PUSH1 0x20 DUP3 ADD SWAP1 POP SWAP2 SWAP1 POP JUMP JUMPDEST PUSH1 0x0 PUSH1 0x20 DUP3 ADD SWAP1 POP DUP2 DUP2 SUB PUSH1 0x0 DUP4 ADD MSTORE PUSH2 0x1CCD DUP2 PUSH2 0x1C91 JUMP JUMPDEST SWAP1 POP SWAP2 SWAP1 POP JUMP JUMPDEST PUSH32 0x4F6E6C792061646D696E2063616E20706572666F726D20746869732061637469 PUSH1 0x0 DUP3 ADD MSTORE PUSH32 0x6F6E000000000000000000000000000000000000000000000000000000000000 PUSH1 0x20 DUP3 ADD MSTORE POP JUMP JUMPDEST PUSH1 0x0 PUSH2 0x1D30 PUSH1 0x22 DUP4 PUSH2 0x19A7 JUMP JUMPDEST SWAP2 POP PUSH2 0x1D3B DUP3 PUSH2 0x1CD4 JUMP JUMPDEST PUSH1 0x40 DUP3 ADD SWAP1 POP SWAP2 SWAP1 POP JUMP JUMPDEST PUSH1 0x0 PUSH1 0x20 DUP3 ADD SWAP1 POP DUP2 DUP2 SUB PUSH1 0x0 DUP4 ADD MSTORE PUSH2 0x1D5F DUP2 PUSH2 0x1D23 JUMP JUMPDEST SWAP1 POP SWAP2 SWAP1 POP JUMP JUMPDEST PUSH32 0x456C656D656E7420697320616C726561647920696E2074686520507265737469 PUSH1 0x0 DUP3 ADD MSTORE PUSH32 0x6765207068617365000000000000000000000000000000000000000000000000 PUSH1 0x20 DUP3 ADD MSTORE POP JUMP JUMPDEST PUSH1 0x0 PUSH2 0x1DC2 PUSH1 0x28 DUP4 PUSH2 0x19A7 JUMP JUMPDEST SWAP2 POP PUSH2 0x1DCD DUP3 PUSH2 0x1D66 JUMP JUMPDEST PUSH1 0x40 DUP3 ADD SWAP1 POP SWAP2 SWAP1 POP JUMP JUMPDEST PUSH1 0x0 PUSH1 0x20 DUP3 ADD SWAP1 POP DUP2 DUP2 SUB PUSH1 0x0 DUP4 ADD MSTORE PUSH2 0x1DF1 DUP2 PUSH2 0x1DB5 JUMP JUMPDEST SWAP1 POP SWAP2 SWAP1 POP JUMP JUMPDEST PUSH32 0x4F6E6C792063726561746F722063616E20757064617465000000000000000000 PUSH1 0x0 DUP3 ADD MSTORE POP JUMP JUMPDEST PUSH1 0x0 PUSH2 0x1E2E PUSH1 0x17 DUP4 PUSH2 0x19A7 JUMP JUMPDEST SWAP2 POP PUSH2 0x1E39 DUP3 PUSH2 0x1DF8 JUMP JUMPDEST PUSH1 0x20 DUP3 ADD SWAP1 POP SWAP2 SWAP1 POP JUMP JUMPDEST PUSH1 0x0 PUSH1 0x20 DUP3 ADD SWAP1 POP DUP2 DUP2 SUB PUSH1 0x0 DUP4 ADD MSTORE PUSH2 0x1E5D DUP2 PUSH2 0x1E21 JUMP JUMPDEST SWAP1 POP SWAP2 SWAP1 POP JUMP JUMPDEST PUSH32 0x4E487B7100000000000000000000000000000000000000000000000000000000 PUSH1 0x0 MSTORE PUSH1 0x22 PUSH1 0x4 MSTORE PUSH1 0x24 PUSH1 0x0 REVERT JUMPDEST PUSH1 0x0 PUSH1 0x2 DUP3 DIV SWAP1 POP PUSH1 0x1 DUP3 AND DUP1 PUSH2 0x1EAB JUMPI PUSH1 0x7F DUP3 AND SWAP2 POP JUMPDEST PUSH1 0x20 DUP3 LT DUP2 SUB PUSH2 0x1EBE JUMPI PUSH2 0x1EBD PUSH2 0x1E64 JUMP JUMPDEST JUMPDEST POP SWAP2 SWAP1 POP JUMP JUMPDEST PUSH1 0x0 DUP2 SWAP1 POP DUP2 PUSH1 0x0 MSTORE PUSH1 0x20 PUSH1 0x0 KECCAK256 SWAP1 POP SWAP2 SWAP1 POP JUMP JUMPDEST PUSH1 0x0 PUSH1 0x20 PUSH1 0x1F DUP4 ADD DIV SWAP1 POP SWAP2 SWAP1 POP JUMP JUMPDEST PUSH1 0x0 DUP3 DUP3 SHL SWAP1 POP SWAP3 SWAP2 POP POP JUMP JUMPDEST PUSH1 0x0 PUSH1 0x8 DUP4 MUL PUSH2 0x1F26 PUSH32 0xFFFFFFFFFFFFFFFFFFFFFFFFFFFFFFFFFFFFFFFFFFFFFFFFFFFFFFFFFFFFFFFF DUP3 PUSH2 0x1EE9 JUMP JUMPDEST PUSH2 0x1F30 DUP7 DUP4 PUSH2 0x1EE9 JUMP JUMPDEST SWAP6 POP DUP1 NOT DUP5 AND SWAP4 POP DUP1 DUP7 AND DUP5 OR SWAP3 POP POP POP SWAP4 SWAP3 POP POP POP JUMP JUMPDEST PUSH1 0x0 PUSH2 0x1F63 PUSH2 0x1F5E PUSH2 0x1F59 DUP5 PUSH2 0x15AD JUMP JUMPDEST PUSH2 0x15E1 JUMP JUMPDEST PUSH2 0x15AD JUMP JUMPDEST SWAP1 POP SWAP2 SWAP1 POP JUMP JUMPDEST PUSH1 0x0 DUP2 SWAP1 POP SWAP2 SWAP1 POP JUMP JUMPDEST PUSH2 0x1F7D DUP4 PUSH2 0x1F48 JUMP JUMPDEST PUSH2 0x1F91 PUSH2 0x1F89 DUP3 PUSH2 0x1F6A JUMP JUMPDEST DUP5 DUP5 SLOAD PUSH2 0x1EF6 JUMP JUMPDEST DUP3 SSTORE POP POP POP POP JUMP JUMPDEST PUSH1 0x0 SWAP1 JUMP JUMPDEST PUSH2 0x1FA6 PUSH2 0x1F99 JUMP JUMPDEST PUSH2 0x1FB1 DUP2 DUP5 DUP5 PUSH2 0x1F74 JUMP JUMPDEST POP POP POP JUMP JUMPDEST JUMPDEST DUP2 DUP2 LT ISZERO PUSH2 0x1FD5 JUMPI PUSH2 0x1FCA PUSH1 0x0 DUP3 PUSH2 0x1F9E JUMP JUMPDEST PUSH1 0x1 DUP2 ADD SWAP1 POP PUSH2 0x1FB7 JUMP JUMPDEST POP POP JUMP JUMPDEST PUSH1 0x1F DUP3 GT ISZERO PUSH2 0x201A JUMPI PUSH2 0x1FEB DUP2 PUSH2 0x1EC4 JUMP JUMPDEST PUSH2 0x1FF4 DUP5 PUSH2 0x1ED9 JUMP JUMPDEST DUP2 ADD PUSH1 0x20 DUP6 LT ISZERO PUSH2 0x2003 JUMPI DUP2 SWAP1 POP JUMPDEST PUSH2 0x2017 PUSH2 0x200F DUP6 PUSH2 0x1ED9 JUMP JUMPDEST DUP4 ADD DUP3 PUSH2 0x1FB6 JUMP JUMPDEST POP POP JUMPDEST POP POP POP JUMP JUMPDEST PUSH1 0x0 DUP3 DUP3 SHR SWAP1 POP SWAP3 SWAP2 POP POP JUMP JUMPDEST PUSH1 0x0 PUSH2 0x203D PUSH1 0x0 NOT DUP5 PUSH1 0x8 MUL PUSH2 0x201F JUMP JUMPDEST NOT DUP1 DUP4 AND SWAP2 POP POP SWAP3 SWAP2 POP POP JUMP JUMPDEST PUSH1 0x0 PUSH2 0x2056 DUP4 DUP4 PUSH2 0x202C JUMP JUMPDEST SWAP2 POP DUP3 PUSH1 0x2 MUL DUP3 OR SWAP1 POP SWAP3 SWAP2 POP POP JUMP JUMPDEST PUSH2 0x206F DUP3 PUSH2 0x199C JUMP JUMPDEST PUSH8 0xFFFFFFFFFFFFFFFF DUP2 GT ISZERO PUSH2 0x2088 JUMPI PUSH2 0x2087 PUSH2 0x16CF JUMP JUMPDEST JUMPDEST PUSH2 0x2092 DUP3 SLOAD PUSH2 0x1E93 JUMP JUMPDEST PUSH2 0x209D DUP3 DUP3 DUP6 PUSH2 0x1FD9 JUMP JUMPDEST PUSH1 0x0 PUSH1 0x20 SWAP1 POP PUSH1 0x1F DUP4 GT PUSH1 0x1 DUP2 EQ PUSH2 0x20D0 JUMPI PUSH1 0x0 DUP5 ISZERO PUSH2 0x20BE JUMPI DUP3 DUP8 ADD MLOAD SWAP1 POP JUMPDEST PUSH2 0x20C8 DUP6 DUP3 PUSH2 0x204A JUMP JUMPDEST DUP7 SSTORE POP PUSH2 0x2130 JUMP JUMPDEST PUSH1 0x1F NOT DUP5 AND PUSH2 0x20DE DUP7 PUSH2 0x1EC4 JUMP JUMPDEST PUSH1 0x0 JUMPDEST DUP3 DUP2 LT ISZERO PUSH2 0x2106 JUMPI DUP5 DUP10 ADD MLOAD DUP3 SSTORE PUSH1 0x1 DUP3 ADD SWAP2 POP PUSH1 0x20 DUP6 ADD SWAP5 POP PUSH1 0x20 DUP2 ADD SWAP1 POP PUSH2 0x20E1 JUMP JUMPDEST DUP7 DUP4 LT ISZERO PUSH2 0x2123 JUMPI DUP5 DUP10 ADD MLOAD PUSH2 0x211F PUSH1 0x1F DUP10 AND DUP3 PUSH2 0x202C JUMP JUMPDEST DUP4 SSTORE POP JUMPDEST PUSH1 0x1 PUSH1 0x2 DUP9 MUL ADD DUP9 SSTORE POP POP POP JUMPDEST POP POP POP POP POP POP JUMP JUMPDEST PUSH32 0x4E6F20766F74696E6720706F7765720000000000000000000000000000000000 PUSH1 0x0 DUP3 ADD MSTORE POP JUMP JUMPDEST PUSH1 0x0 PUSH2 0x216E PUSH1 0xF DUP4 PUSH2 0x19A7 JUMP JUMPDEST SWAP2 POP PUSH2 0x2179 DUP3 PUSH2 0x2138 JUMP JUMPDEST PUSH1 0x20 DUP3 ADD SWAP1 POP SWAP2 SWAP1 POP JUMP JUMPDEST PUSH1 0x0 PUSH1 0x20 DUP3 ADD SWAP1 POP DUP2 DUP2 SUB PUSH1 0x0 DUP4 ADD MSTORE PUSH2 0x219D DUP2 PUSH2 0x2161 JUMP JUMPDEST SWAP1 POP SWAP2 SWAP1 POP JUMP JUMPDEST PUSH1 0x0 PUSH2 0x21AF DUP3 PUSH2 0x15AD JUMP JUMPDEST SWAP2 POP PUSH2 0x21BA DUP4 PUSH2 0x15AD JUMP JUMPDEST SWAP3 POP DUP3 DUP3 ADD SWAP1 POP DUP1 DUP3 GT ISZERO PUSH2 0x21D2 JUMPI PUSH2 0x21D1 PUSH2 0x1B77 JUMP JUMPDEST JUMPDEST SWAP3 SWAP2 POP POP JUMP JUMPDEST PUSH1 0x0 PUSH1 0x60 DUP3 ADD SWAP1 POP PUSH2 0x21ED PUSH1 0x0 DUP4 ADD DUP7 PUSH2 0x1A1B JUMP JUMPDEST PUSH2 0x21FA PUSH1 0x20 DUP4 ADD DUP6 PUSH2 0x1A1B JUMP JUMPDEST PUSH2 0x2207 PUSH1 0x40 DUP4 ADD DUP5 PUSH2 0x15B7 JUMP JUMPDEST SWAP5 SWAP4 POP POP POP POP JUMP JUMPDEST PUSH1 0x0 PUSH2 0x221A DUP3 PUSH2 0x15AD JUMP JUMPDEST SWAP2 POP PUSH2 0x2225 DUP4 PUSH2 0x15AD JUMP JUMPDEST SWAP3 POP DUP3 DUP3 MUL PUSH2 0x2233 DUP2 PUSH2 0x15AD JUMP JUMPDEST SWAP2 POP DUP3 DUP3 DIV DUP5 EQ DUP4 ISZERO OR PUSH2 0x224A JUMPI PUSH2 0x2249 PUSH2 0x1B77 JUMP JUMPDEST JUMPDEST POP SWAP3 SWAP2 POP POP JUMP JUMPDEST PUSH32 0x4E487B7100000000000000000000000000000000000000000000000000000000 PUSH1 0x0 MSTORE PUSH1 0x12 PUSH1 0x4 MSTORE PUSH1 0x24 PUSH1 0x0 REVERT JUMPDEST PUSH1 0x0 PUSH2 0x228B DUP3 PUSH2 0x15AD JUMP JUMPDEST SWAP2 POP PUSH2 0x2296 DUP4 PUSH2 0x15AD JUMP JUMPDEST SWAP3 POP DUP3 PUSH2 0x22A6 JUMPI PUSH2 0x22A5 PUSH2 0x2251 JUMP JUMPDEST JUMPDEST DUP3 DUP3 DIV SWAP1 POP SWAP3 SWAP2 POP POP JUMP JUMPDEST PUSH32 0x456C656D656E74206973206E6F742070656E64696E6720617070726F76616C00 PUSH1 0x0 DUP3 ADD MSTORE POP JUMP JUMPDEST PUSH1 0x0 PUSH2 0x22E7 PUSH1 0x1F DUP4 PUSH2 0x19A7 JUMP JUMPDEST SWAP2 POP PUSH2 0x22F2 DUP3 PUSH2 0x22B1 JUMP JUMPDEST PUSH1 0x20 DUP3 ADD SWAP1 POP SWAP2 SWAP1 POP JUMP JUMPDEST PUSH1 0x0 PUSH1 0x20 DUP3 ADD SWAP1 POP DUP2 DUP2 SUB PUSH1 0x0 DUP4 ADD MSTORE PUSH2 0x2316 DUP2 PUSH2 0x22DA JUMP JUMPDEST SWAP1 POP SWAP2 SWAP1 POP JUMP JUMPDEST PUSH1 0x0 PUSH2 0x2328 DUP3 PUSH2 0x15AD JUMP JUMPDEST SWAP2 POP PUSH32 0xFFFFFFFFFFFFFFFFFFFFFFFFFFFFFFFFFFFFFFFFFFFFFFFFFFFFFFFFFFFFFFFF DUP3 SUB PUSH2 0x235A JUMPI PUSH2 0x2359 PUSH2 0x1B77 JUMP JUMPDEST JUMPDEST PUSH1 0x1 DUP3 ADD SWAP1 POP SWAP2 SWAP1 POP JUMP JUMPDEST PUSH32 0x4E6F207374616B656420616D6F756E7400000000000000000000000000000000 PUSH1 0x0 DUP3 ADD MSTORE POP JUMP JUMPDEST PUSH1 0x0 PUSH2 0x239B PUSH1 0x10 DUP4 PUSH2 0x19A7 JUMP JUMPDEST SWAP2 POP PUSH2 0x23A6 DUP3 PUSH2 0x2365 JUMP JUMPDEST PUSH1 0x20 DUP3 ADD SWAP1 POP SWAP2 SWAP1 POP JUMP JUMPDEST PUSH1 0x0 PUSH1 0x20 DUP3 ADD SWAP1 POP DUP2 DUP2 SUB PUSH1 0x0 DUP4 ADD MSTORE PUSH2 0x23CA DUP2 PUSH2 0x238E JUMP JUMPDEST SWAP1 POP SWAP2 SWAP1 POP JUMP JUMPDEST PUSH32 0x43616E6E6F7420636C61696D206265666F72652061206D6F6E74680000000000 PUSH1 0x0 DUP3 ADD MSTORE POP JUMP JUMPDEST PUSH1 0x0 PUSH2 0x2407 PUSH1 0x1B DUP4 PUSH2 0x19A7 JUMP JUMPDEST SWAP2 POP PUSH2 0x2412 DUP3 PUSH2 0x23D1 JUMP JUMPDEST PUSH1 0x20 DUP3 ADD SWAP1 POP SWAP2 SWAP1 POP JUMP JUMPDEST PUSH1 0x0 PUSH1 0x20 DUP3 ADD SWAP1 POP DUP2 DUP2 SUB PUSH1 0x0 DUP4 ADD MSTORE PUSH2 0x2436 DUP2 PUSH2 0x23FA JUMP JUMPDEST SWAP1 POP SWAP2 SWAP1 POP JUMP INVALID LOG2 PUSH5 0x6970667358 0x22 SLT KECCAK256 0xEE 0x4E POP 0xA8 PUSH3 0xF651DA 0xC6 RETURNDATASIZE 0xD9 0xC1 0x26 0xC0 SWAP13 0xC9 LT 0x5C 0xE2 SSTORE LOG2 SLT DUP4 ADDMOD PUSH12 0x2934B272E72C1464736F6C63 NUMBER STOP ADDMOD SLT STOP CALLER "
		},
		"gasEstimates": {
			"creation": {
				"codeDepositCost": "1866200",
				"executionCost": "infinite",
				"totalCost": "infinite"
			},
			"external": {
				"ANNUAL_REWARD_RATE()": "417",
				"SECONDS_IN_MONTH()": "352",
				"SECONDS_IN_YEAR()": "396",
				"admin()": "2624",
				"approveElement(uint256)": "27092",
				"calculateMonthlyReward(uint256)": "infinite",
				"claimMonthlyReward()": "infinite",
				"confirmUpdate(uint256)": "33649",
				"createElement(string,string,string)": "infinite",
				"elementCount()": "2518",
				"elements(uint256)": "infinite",
				"lastClaimed(address)": "2838",
				"lopToken()": "infinite",
				"stakeTokens(uint256)": "infinite",
				"stakes(address)": "2882",
				"updateElement(uint256,string,string,string)": "infinite",
				"voteOnElement(uint256,uint256)": "infinite",
				"votingPower(address)": "2903",
				"withdrawStake(uint256)": "infinite"
			}
		},
		"methodIdentifiers": {
			"ANNUAL_REWARD_RATE()": "f7977a0a",
			"SECONDS_IN_MONTH()": "27855b13",
			"SECONDS_IN_YEAR()": "5dcc9391",
			"admin()": "f851a440",
			"approveElement(uint256)": "c9b3829f",
			"calculateMonthlyReward(uint256)": "80f2110a",
			"claimMonthlyReward()": "d4f1e386",
			"confirmUpdate(uint256)": "3b72bad5",
			"createElement(string,string,string)": "cd81b385",
			"elementCount()": "67be4673",
			"elements(uint256)": "e0d64b37",
			"lastClaimed(address)": "013eba92",
			"lopToken()": "0d67f59e",
			"stakeTokens(uint256)": "7547c7a3",
			"stakes(address)": "16934fc4",
			"updateElement(uint256,string,string,string)": "725eca4e",
			"voteOnElement(uint256,uint256)": "72bae674",
			"votingPower(address)": "c07473f6",
			"withdrawStake(uint256)": "25d5971f"
		}
	},
	"abi": [
		{
			"inputs": [
				{
					"internalType": "address",
					"name": "_lopToken",
					"type": "address"
				}
			],
			"stateMutability": "nonpayable",
			"type": "constructor"
		},
		{
			"inputs": [],
			"name": "ANNUAL_REWARD_RATE",
			"outputs": [
				{
					"internalType": "uint256",
					"name": "",
					"type": "uint256"
				}
			],
			"stateMutability": "view",
			"type": "function"
		},
		{
			"inputs": [],
			"name": "SECONDS_IN_MONTH",
			"outputs": [
				{
					"internalType": "uint256",
					"name": "",
					"type": "uint256"
				}
			],
			"stateMutability": "view",
			"type": "function"
		},
		{
			"inputs": [],
			"name": "SECONDS_IN_YEAR",
			"outputs": [
				{
					"internalType": "uint256",
					"name": "",
					"type": "uint256"
				}
			],
			"stateMutability": "view",
			"type": "function"
		},
		{
			"inputs": [],
			"name": "admin",
			"outputs": [
				{
					"internalType": "address",
					"name": "",
					"type": "address"
				}
			],
			"stateMutability": "view",
			"type": "function"
		},
		{
			"inputs": [
				{
					"internalType": "uint256",
					"name": "elementId",
					"type": "uint256"
				}
			],
			"name": "approveElement",
			"outputs": [],
			"stateMutability": "nonpayable",
			"type": "function"
		},
		{
			"inputs": [
				{
					"internalType": "uint256",
					"name": "stakeAmount",
					"type": "uint256"
				}
			],
			"name": "calculateMonthlyReward",
			"outputs": [
				{
					"internalType": "uint256",
					"name": "",
					"type": "uint256"
				}
			],
			"stateMutability": "pure",
			"type": "function"
		},
		{
			"inputs": [],
			"name": "claimMonthlyReward",
			"outputs": [],
			"stateMutability": "nonpayable",
			"type": "function"
		},
		{
			"inputs": [
				{
					"internalType": "uint256",
					"name": "elementId",
					"type": "uint256"
				}
			],
			"name": "confirmUpdate",
			"outputs": [],
			"stateMutability": "nonpayable",
			"type": "function"
		},
		{
			"inputs": [
				{
					"internalType": "string",
					"name": "name",
					"type": "string"
				},
				{
					"internalType": "string",
					"name": "description",
					"type": "string"
				},
				{
					"internalType": "string",
					"name": "whitepaperLink",
					"type": "string"
				}
			],
			"name": "createElement",
			"outputs": [],
			"stateMutability": "nonpayable",
			"type": "function"
		},
		{
			"inputs": [],
			"name": "elementCount",
			"outputs": [
				{
					"internalType": "uint256",
					"name": "",
					"type": "uint256"
				}
			],
			"stateMutability": "view",
			"type": "function"
		},
		{
			"inputs": [
				{
					"internalType": "uint256",
					"name": "",
					"type": "uint256"
				}
			],
			"name": "elements",
			"outputs": [
				{
					"internalType": "string",
					"name": "name",
					"type": "string"
				},
				{
					"internalType": "string",
					"name": "description",
					"type": "string"
				},
				{
					"internalType": "string",
					"name": "whitepaperLink",
					"type": "string"
				},
				{
					"internalType": "string",
					"name": "websiteLink",
					"type": "string"
				},
				{
					"internalType": "string",
					"name": "tutorialLink",
					"type": "string"
				},
				{
					"internalType": "string",
					"name": "performanceMetricsLink",
					"type": "string"
				},
				{
					"internalType": "address",
					"name": "creator",
					"type": "address"
				},
				{
					"internalType": "uint256",
					"name": "phase",
					"type": "uint256"
				},
				{
					"internalType": "uint256",
					"name": "lastUpdate",
					"type": "uint256"
				},
				{
					"internalType": "uint256",
					"name": "voteCount",
					"type": "uint256"
				}
			],
			"stateMutability": "view",
			"type": "function"
		},
		{
			"inputs": [
				{
					"internalType": "address",
					"name": "",
					"type": "address"
				}
			],
			"name": "lastClaimed",
			"outputs": [
				{
					"internalType": "uint256",
					"name": "",
					"type": "uint256"
				}
			],
			"stateMutability": "view",
			"type": "function"
		},
		{
			"inputs": [],
			"name": "lopToken",
			"outputs": [
				{
					"internalType": "contract IERC20",
					"name": "",
					"type": "address"
				}
			],
			"stateMutability": "view",
			"type": "function"
		},
		{
			"inputs": [
				{
					"internalType": "uint256",
					"name": "amount",
					"type": "uint256"
				}
			],
			"name": "stakeTokens",
			"outputs": [],
			"stateMutability": "nonpayable",
			"type": "function"
		},
		{
			"inputs": [
				{
					"internalType": "address",
					"name": "",
					"type": "address"
				}
			],
			"name": "stakes",
			"outputs": [
				{
					"internalType": "uint256",
					"name": "",
					"type": "uint256"
				}
			],
			"stateMutability": "view",
			"type": "function"
		},
		{
			"inputs": [
				{
					"internalType": "uint256",
					"name": "elementId",
					"type": "uint256"
				},
				{
					"internalType": "string",
					"name": "websiteLink",
					"type": "string"
				},
				{
					"internalType": "string",
					"name": "tutorialLink",
					"type": "string"
				},
				{
					"internalType": "string",
					"name": "performanceMetricsLink",
					"type": "string"
				}
			],
			"name": "updateElement",
			"outputs": [],
			"stateMutability": "nonpayable",
			"type": "function"
		},
		{
			"inputs": [
				{
					"internalType": "uint256",
					"name": "elementId",
					"type": "uint256"
				},
				{
					"internalType": "uint256",
					"name": "amount",
					"type": "uint256"
				}
			],
			"name": "voteOnElement",
			"outputs": [],
			"stateMutability": "nonpayable",
			"type": "function"
		},
		{
			"inputs": [
				{
					"internalType": "address",
					"name": "",
					"type": "address"
				}
			],
			"name": "votingPower",
			"outputs": [
				{
					"internalType": "uint256",
					"name": "",
					"type": "uint256"
				}
			],
			"stateMutability": "view",
			"type": "function"
		},
		{
			"inputs": [
				{
					"internalType": "uint256",
					"name": "amount",
					"type": "uint256"
				}
			],
			"name": "withdrawStake",
			"outputs": [],
			"stateMutability": "nonpayable",
			"type": "function"
		}
	]
}