{
	"data": {
		"bytecode": {
			"linkReferences": {},
			"object": "60806040523480156200001157600080fd5b5060405162004db138038062004db183398181016040528101906200003791906200032f565b33600660006101000a81548173ffffffffffffffffffffffffffffffffffffffff021916908373ffffffffffffffffffffffffffffffffffffffff16021790555082600960006101000a81548173ffffffffffffffffffffffffffffffffffffffff021916908373ffffffffffffffffffffffffffffffffffffffff16021790555081600760006101000a81548173ffffffffffffffffffffffffffffffffffffffff021916908373ffffffffffffffffffffffffffffffffffffffff16021790555080600860006101000a81548173ffffffffffffffffffffffffffffffffffffffff021916908373ffffffffffffffffffffffffffffffffffffffff1602179055506000600a6040516200014d90620003e6565b908152602001604051809103902060006101000a81548160ff0219169083151502179055506000600a60405162000184906200044d565b908152602001604051809103902060006101000a81548160ff0219169083151502179055506000600a604051620001bb90620004b4565b908152602001604051809103902060006101000a81548160ff0219169083151502179055506000600a604051620001f2906200051b565b908152602001604051809103902060006101000a81548160ff0219169083151502179055506000600a604051620002299062000582565b908152602001604051809103902060006101000a81548160ff0219169083151502179055506000600a6040516200026090620005e9565b908152602001604051809103902060006101000a81548160ff0219169083151502179055506000600a604051620002979062000650565b908152602001604051809103902060006101000a81548160ff02191690831515021790555050505062000667565b600080fd5b600073ffffffffffffffffffffffffffffffffffffffff82169050919050565b6000620002f782620002ca565b9050919050565b6200030981620002ea565b81146200031557600080fd5b50565b6000815190506200032981620002fe565b92915050565b6000806000606084860312156200034b576200034a620002c5565b5b60006200035b8682870162000318565b93505060206200036e8682870162000318565b9250506040620003818682870162000318565b9150509250925092565b600081905092915050565b7f617070726f7665456c656d656e74000000000000000000000000000000000000600082015250565b6000620003ce600e836200038b565b9150620003db8262000396565b600e82019050919050565b6000620003f382620003bf565b9150819050919050565b7f72656a656374456c656d656e7400000000000000000000000000000000000000600082015250565b600062000435600d836200038b565b91506200044282620003fd565b600d82019050919050565b60006200045a8262000426565b9150819050919050565b7f72656d6f7665456c656d656e7400000000000000000000000000000000000000600082015250565b60006200049c600d836200038b565b9150620004a98262000464565b600d82019050919050565b6000620004c1826200048d565b9150819050919050565b7f636f6e6669726d55706461746500000000000000000000000000000000000000600082015250565b600062000503600d836200038b565b91506200051082620004cb565b600d82019050919050565b60006200052882620004f4565b9150819050919050565b7f7265667573655570646174650000000000000000000000000000000000000000600082015250565b60006200056a600c836200038b565b9150620005778262000532565b600c82019050919050565b60006200058f826200055b565b9150819050919050565b7f6368616e676541646d696e000000000000000000000000000000000000000000600082015250565b6000620005d1600b836200038b565b9150620005de8262000599565b600b82019050919050565b6000620005f682620005c2565b9150819050919050565b7f6368616e67655365636f6e6441646d696e000000000000000000000000000000600082015250565b6000620006386011836200038b565b9150620006458262000600565b601182019050919050565b60006200065d8262000629565b9150819050919050565b61473a80620006776000396000f3fe608060405234801561001057600080fd5b50600436106102275760003560e01c80636b8d04fb11610130578063c07473f6116100b8578063d4f1e3861161007c578063d4f1e38614610670578063dd8087d11461067a578063e0d64b3714610696578063f851a440146106d1578063f9089bf2146106ef57610227565b8063c07473f6146105ba578063c5e48e5a146105ea578063c7b3564e14610608578063c9b3829f14610624578063cc78d7281461064057610227565b80638b52e06c116100ff5780638b52e06c1461052c5780638f2839701461054a5780639fc37abf14610566578063a721ebdd14610582578063b17146c81461059e57610227565b80636b8d04fb146104a657806372bae674146104d65780637547c7a3146104f257806384d804be1461050e57610227565b806325d5971f116101b35780633b72bad5116101825780633b72bad5146103ee5780635dcc93911461040a5780635ff329af14610428578063613dab3e1461045857806367be46731461048857610227565b806325d5971f1461037c57806327855b13146103985780632a9aaa76146103b657806336ead39f146103d257610227565b806317504b98116101fa57806317504b98146102c65780631d002cc0146102e25780631d32e9b3146103125780631faa11281461033057806320cb13ab1461034c57610227565b8063013eba921461022c5780630a2742801461025c5780630d67f59e1461027857806316934fc414610296575b600080fd5b61024660048036038101906102419190613254565b61071f565b604051610253919061329a565b60405180910390f35b610276600480360381019061027191906133fb565b610737565b005b610280610ae7565b60405161028d9190613561565b60405180910390f35b6102b060048036038101906102ab9190613254565b610b0d565b6040516102bd919061329a565b60405180910390f35b6102e060048036038101906102db91906135b4565b610b25565b005b6102fc60048036038101906102f79190613254565b610c74565b604051610309919061329a565b60405180910390f35b61031a610c8c565b604051610327919061361f565b60405180910390f35b61034a60048036038101906103459190613666565b610cb2565b005b61036660048036038101906103619190613693565b610e5c565b604051610373919061329a565b60405180910390f35b61039660048036038101906103919190613666565b610eae565b005b6103a06110aa565b6040516103ad919061329a565b60405180910390f35b6103d060048036038101906103cb91906135b4565b6110bc565b005b6103ec60048036038101906103e79190613666565b61120b565b005b61040860048036038101906104039190613666565b611498565b005b61041261170e565b60405161041f919061329a565b60405180910390f35b610442600480360381019061043d9190613254565b611714565b60405161044f919061329a565b60405180910390f35b610472600480360381019061046d91906136d3565b6118ff565b60405161047f919061372b565b60405180910390f35b610490611935565b60405161049d919061329a565b60405180910390f35b6104c060048036038101906104bb9190613254565b61193b565b6040516104cd919061372b565b60405180910390f35b6104f060048036038101906104eb9190613693565b611a13565b005b61050c60048036038101906105079190613666565b611b1c565b005b610516611d6c565b604051610523919061329a565b60405180910390f35b610534611d74565b604051610541919061361f565b60405180910390f35b610564600480360381019061055f9190613254565b611d9a565b005b610580600480360381019061057b9190613666565b611f10565b005b61059c60048036038101906105979190613746565b612061565b005b6105b860048036038101906105b39190613746565b612148565b005b6105d460048036038101906105cf9190613254565b61222f565b6040516105e1919061329a565b60405180910390f35b6105f2612247565b6040516105ff919061329a565b60405180910390f35b610622600480360381019061061d9190613746565b612250565b005b61063e60048036038101906106399190613666565b612337565b005b61065a60048036038101906106559190613254565b6124e1565b604051610667919061329a565b60405180910390f35b61067861252a565b005b610694600480360381019061068f9190613254565b61291e565b005b6106b060048036038101906106ab9190613666565b612a94565b6040516106c89c9b9a99989796959493929190613821565b60405180910390f35b6106d9612f54565b6040516106e6919061361f565b60405180910390f35b61070960048036038101906107049190613666565b612f7a565b604051610716919061329a565b60405180910390f35b60026020528060005260406000206000915090505481565b6402540be400600960009054906101000a900473ffffffffffffffffffffffffffffffffffffffff1673ffffffffffffffffffffffffffffffffffffffff166370a08231336040518263ffffffff1660e01b8152600401610798919061361f565b602060405180830381865afa1580156107b5573d6000803e3d6000fd5b505050506040513d601f19601f820116820180604052508101906107d99190613928565b101561081a576040517f08c379a0000000000000000000000000000000000000000000000000000000008152600401610811906139c7565b60405180910390fd5b600960009054906101000a900473ffffffffffffffffffffffffffffffffffffffff1673ffffffffffffffffffffffffffffffffffffffff166323b872dd33306402540be4006040518463ffffffff1660e01b815260040161087e939291906139e7565b6020604051808303816000875af115801561089d573d6000803e3d6000fd5b505050506040513d601f19601f820116820180604052508101906108c19190613a33565b610900576040517f08c379a00000000000000000000000000000000000000000000000000000000081526004016108f790613aac565b60405180910390fd5b6040518061018001604052808681526020018581526020018481526020016040518060200160405280600081525081526020016040518060200160405280600081525081526020016040518060200160405280600081525081526020018381526020018281526020013373ffffffffffffffffffffffffffffffffffffffff16815260200160008152602001428152602001600181525060046000600554815260200190815260200160002060008201518160000190816109c19190613cce565b5060208201518160010190816109d79190613cce565b5060408201518160020190816109ed9190613cce565b506060820151816003019081610a039190613cce565b506080820151816004019081610a199190613cce565b5060a0820151816005019081610a2f9190613cce565b5060c0820151816006019081610a459190613cce565b5060e0820151816007019081610a5b9190613cce565b506101008201518160080160006101000a81548173ffffffffffffffffffffffffffffffffffffffff021916908373ffffffffffffffffffffffffffffffffffffffff160217905550610120820151816009015561014082015181600a015561016082015181600b015590505060056000815480929190610adb90613dcf565b91905055505050505050565b600960009054906101000a900473ffffffffffffffffffffffffffffffffffffffff1681565b60006020528060005260406000206000915090505481565b600660009054906101000a900473ffffffffffffffffffffffffffffffffffffffff1673ffffffffffffffffffffffffffffffffffffffff163373ffffffffffffffffffffffffffffffffffffffff1614610bb5576040517f08c379a0000000000000000000000000000000000000000000000000000000008152600401610bac90613e89565b60405180910390fd5b6040518060400160405280601181526020017f6368616e67655365636f6e6441646d696e00000000000000000000000000000081525080519060200120828051906020012014610c3a576040517f08c379a0000000000000000000000000000000000000000000000000000000008152600401610c3190613f1b565b60405180910390fd5b80600a83604051610c4b9190613f77565b908152602001604051809103902060006101000a81548160ff0219169083151502179055505050565b60036020528060005260406000206000915090505481565b600760009054906101000a900473ffffffffffffffffffffffffffffffffffffffff1681565b600660009054906101000a900473ffffffffffffffffffffffffffffffffffffffff1673ffffffffffffffffffffffffffffffffffffffff163373ffffffffffffffffffffffffffffffffffffffff1614610d42576040517f08c379a0000000000000000000000000000000000000000000000000000000008152600401610d3990613e89565b60405180910390fd5b6040518060400160405280600d81526020017f72656a656374456c656d656e7400000000000000000000000000000000000000815250600a81604051610d889190613f77565b908152602001604051809103902060009054906101000a900460ff16610de3576040517f08c379a0000000000000000000000000000000000000000000000000000000008152600401610dda90613fda565b60405180910390fd5b6000600460008481526020019081526020016000206009015414610e3c576040517f08c379a0000000000000000000000000000000000000000000000000000000008152600401610e3390614046565b60405180910390fd5b600560046000848152602001908152602001600020600901819055505050565b6000808242610e6b9190614066565b90506000610e7882612f7a565b90506000600c60648388610e8c919061409a565b610e96919061410b565b610ea0919061410b565b905080935050505092915050565b806000803373ffffffffffffffffffffffffffffffffffffffff1673ffffffffffffffffffffffffffffffffffffffff168152602001908152602001600020541015610f2f576040517f08c379a0000000000000000000000000000000000000000000000000000000008152600401610f2690614188565b60405180910390fd5b806000803373ffffffffffffffffffffffffffffffffffffffff1673ffffffffffffffffffffffffffffffffffffffff1681526020019081526020016000206000828254610f7d9190614066565b9250508190555042600260003373ffffffffffffffffffffffffffffffffffffffff1673ffffffffffffffffffffffffffffffffffffffff16815260200190815260200160002081905550600960009054906101000a900473ffffffffffffffffffffffffffffffffffffffff1673ffffffffffffffffffffffffffffffffffffffff1663a9059cbb33836040518363ffffffff1660e01b81526004016110259291906141a8565b6020604051808303816000875af1158015611044573d6000803e3d6000fd5b505050506040513d601f19601f820116820180604052508101906110689190613a33565b6110a7576040517f08c379a000000000000000000000000000000000000000000000000000000000815260040161109e90613aac565b60405180910390fd5b50565b600c610e106110b9919061410b565b81565b600760009054906101000a900473ffffffffffffffffffffffffffffffffffffffff1673ffffffffffffffffffffffffffffffffffffffff163373ffffffffffffffffffffffffffffffffffffffff161461114c576040517f08c379a000000000000000000000000000000000000000000000000000000000815260040161114390614243565b60405180910390fd5b6040518060400160405280601181526020017f6368616e67655365636f6e6441646d696e000000000000000000000000000000815250805190602001208280519060200120036111d1576040517f08c379a00000000000000000000000000000000000000000000000000000000081526004016111c8906142d5565b60405180910390fd5b80600a836040516111e29190613f77565b908152602001604051809103902060006101000a81548160ff0219169083151502179055505050565b600660009054906101000a900473ffffffffffffffffffffffffffffffffffffffff1673ffffffffffffffffffffffffffffffffffffffff163373ffffffffffffffffffffffffffffffffffffffff161461129b576040517f08c379a000000000000000000000000000000000000000000000000000000000815260040161129290613e89565b60405180910390fd5b6040518060400160405280600c81526020017f7265667573655570646174650000000000000000000000000000000000000000815250600a816040516112e19190613f77565b908152602001604051809103902060009054906101000a900460ff1661133c576040517f08c379a000000000000000000000000000000000000000000000000000000000815260040161133390613fda565b60405180910390fd5b60048060008481526020019081526020016000206009015403611394576040517f08c379a000000000000000000000000000000000000000000000000000000000815260040161138b90614367565b60405180910390fd5b60016004600084815260200190815260200160002060090154036113ea57604051806020016040528060008152506004600084815260200190815260200160002060030190816113e49190613cce565b50611494565b6002600460008481526020019081526020016000206009015403611440576040518060200160405280600081525060046000848152602001908152602001600020600401908161143a9190613cce565b50611493565b600360046000848152602001908152602001600020600901540361149257604051806020016040528060008152506004600084815260200190815260200160002060050190816114909190613cce565b505b5b5b5050565b600660009054906101000a900473ffffffffffffffffffffffffffffffffffffffff1673ffffffffffffffffffffffffffffffffffffffff163373ffffffffffffffffffffffffffffffffffffffff1614611528576040517f08c379a000000000000000000000000000000000000000000000000000000000815260040161151f90613e89565b60405180910390fd5b6040518060400160405280600d81526020017f636f6e6669726d55706461746500000000000000000000000000000000000000815250600a8160405161156e9190613f77565b908152602001604051809103902060009054906101000a900460ff166115c9576040517f08c379a00000000000000000000000000000000000000000000000000000000081526004016115c090613fda565b60405180910390fd5b60048060008481526020019081526020016000206009015403611621576040517f08c379a000000000000000000000000000000000000000000000000000000000815260040161161890614367565b60405180910390fd5b600160046000848152602001908152602001600020600901540361166057600260046000848152602001908152602001600020600901819055506116db565b600260046000848152602001908152602001600020600901540361169f57600360046000848152602001908152602001600020600901819055506116da565b60036004600084815260200190815260200160002060090154036116d9576004806000848152602001908152602001600020600901819055505b5b5b6103e860046000848152602001908152602001600020600b0160008282546117039190614387565b925050819055505050565b610e1081565b6000806000808473ffffffffffffffffffffffffffffffffffffffff1673ffffffffffffffffffffffffffffffffffffffff168152602001908152602001600020540361176457600090506118fa565b6000600260008473ffffffffffffffffffffffffffffffffffffffff1673ffffffffffffffffffffffffffffffffffffffff16815260200190815260200160002054426117b19190614066565b9050600c610e106117c2919061410b565b8110156117d35760009150506118fa565b600080600c610e106117e5919061410b565b836117f0919061410b565b905060005b818110156118d4576000600c610e1061180e919061410b565b82611819919061409a565b600260008973ffffffffffffffffffffffffffffffffffffffff1673ffffffffffffffffffffffffffffffffffffffff168152602001908152602001600020546118639190614387565b905060006118af6000808a73ffffffffffffffffffffffffffffffffffffffff1673ffffffffffffffffffffffffffffffffffffffff1681526020019081526020016000205483610e5c565b905080856118bd9190614387565b9450505080806118cc90613dcf565b9150506117f5565b5060006064603c846118e6919061409a565b6118f0919061410b565b9050809450505050505b919050565b600a818051602081018201805184825260208301602085012081835280955050505050506000915054906101000a900460ff1681565b60055481565b600080600090505b600554811015611a08578273ffffffffffffffffffffffffffffffffffffffff166004600083815260200190815260200160002060080160009054906101000a900473ffffffffffffffffffffffffffffffffffffffff1673ffffffffffffffffffffffffffffffffffffffff161480156119e65750600060058111156119cd576119cc6143bb565b5b6004600083815260200190815260200160002060090154145b156119f5576001915050611a0e565b8080611a0090613dcf565b915050611943565b50600090505b919050565b6000600160003373ffffffffffffffffffffffffffffffffffffffff1673ffffffffffffffffffffffffffffffffffffffff1681526020019081526020016000205411611a95576040517f08c379a0000000000000000000000000000000000000000000000000000000008152600401611a8c90614436565b60405180910390fd5b80600160003373ffffffffffffffffffffffffffffffffffffffff1673ffffffffffffffffffffffffffffffffffffffff1681526020019081526020016000206000828254611ae49190614066565b925050819055508060046000848152602001908152602001600020600b016000828254611b119190614387565b925050819055505050565b633b9aca00811015611b63576040517f08c379a0000000000000000000000000000000000000000000000000000000008152600401611b5a906144a2565b60405180910390fd5b600960009054906101000a900473ffffffffffffffffffffffffffffffffffffffff1673ffffffffffffffffffffffffffffffffffffffff166323b872dd3330846040518463ffffffff1660e01b8152600401611bc2939291906139e7565b6020604051808303816000875af1158015611be1573d6000803e3d6000fd5b505050506040513d601f19601f82011682018060405250810190611c059190613a33565b611c44576040517f08c379a0000000000000000000000000000000000000000000000000000000008152600401611c3b90613aac565b60405180910390fd5b806000803373ffffffffffffffffffffffffffffffffffffffff1673ffffffffffffffffffffffffffffffffffffffff1681526020019081526020016000206000828254611c929190614387565b925050819055506000600260003373ffffffffffffffffffffffffffffffffffffffff1673ffffffffffffffffffffffffffffffffffffffff1681526020019081526020016000205403611d255742600360003373ffffffffffffffffffffffffffffffffffffffff1673ffffffffffffffffffffffffffffffffffffffff168152602001908152602001600020819055505b42600260003373ffffffffffffffffffffffffffffffffffffffff1673ffffffffffffffffffffffffffffffffffffffff1681526020019081526020016000208190555050565b633b9aca0081565b600860009054906101000a900473ffffffffffffffffffffffffffffffffffffffff1681565b600860009054906101000a900473ffffffffffffffffffffffffffffffffffffffff1673ffffffffffffffffffffffffffffffffffffffff163373ffffffffffffffffffffffffffffffffffffffff1614611e2a576040517f08c379a0000000000000000000000000000000000000000000000000000000008152600401611e2190614534565b60405180910390fd5b6040518060400160405280600b81526020017f6368616e676541646d696e000000000000000000000000000000000000000000815250600a81604051611e709190613f77565b908152602001604051809103902060009054906101000a900460ff16611ecb576040517f08c379a0000000000000000000000000000000000000000000000000000000008152600401611ec290613fda565b60405180910390fd5b81600660006101000a81548173ffffffffffffffffffffffffffffffffffffffff021916908373ffffffffffffffffffffffffffffffffffffffff1602179055505050565b600660009054906101000a900473ffffffffffffffffffffffffffffffffffffffff1673ffffffffffffffffffffffffffffffffffffffff163373ffffffffffffffffffffffffffffffffffffffff1614611fa0576040517f08c379a0000000000000000000000000000000000000000000000000000000008152600401611f9790613e89565b60405180910390fd5b6040518060400160405280600d81526020017f72656d6f7665456c656d656e7400000000000000000000000000000000000000815250600a81604051611fe69190613f77565b908152602001604051809103902060009054906101000a900460ff16612041576040517f08c379a000000000000000000000000000000000000000000000000000000000815260040161203890613fda565b60405180910390fd5b600560046000848152602001908152602001600020600901819055505050565b3373ffffffffffffffffffffffffffffffffffffffff166004600084815260200190815260200160002060080160009054906101000a900473ffffffffffffffffffffffffffffffffffffffff1673ffffffffffffffffffffffffffffffffffffffff1614612105576040517f08c379a00000000000000000000000000000000000000000000000000000000081526004016120fc906145a0565b60405180910390fd5b806004600084815260200190815260200160002060040190816121289190613cce565b504260046000848152602001908152602001600020600a01819055505050565b3373ffffffffffffffffffffffffffffffffffffffff166004600084815260200190815260200160002060080160009054906101000a900473ffffffffffffffffffffffffffffffffffffffff1673ffffffffffffffffffffffffffffffffffffffff16146121ec576040517f08c379a00000000000000000000000000000000000000000000000000000000081526004016121e3906145a0565b60405180910390fd5b8060046000848152602001908152602001600020600301908161220f9190613cce565b504260046000848152602001908152602001600020600a01819055505050565b60016020528060005260406000206000915090505481565b6402540be40081565b3373ffffffffffffffffffffffffffffffffffffffff166004600084815260200190815260200160002060080160009054906101000a900473ffffffffffffffffffffffffffffffffffffffff1673ffffffffffffffffffffffffffffffffffffffff16146122f4576040517f08c379a00000000000000000000000000000000000000000000000000000000081526004016122eb906145a0565b60405180910390fd5b806004600084815260200190815260200160002060050190816123179190613cce565b504260046000848152602001908152602001600020600a01819055505050565b600660009054906101000a900473ffffffffffffffffffffffffffffffffffffffff1673ffffffffffffffffffffffffffffffffffffffff163373ffffffffffffffffffffffffffffffffffffffff16146123c7576040517f08c379a00000000000000000000000000000000000000000000000000000000081526004016123be90613e89565b60405180910390fd5b6040518060400160405280600e81526020017f617070726f7665456c656d656e74000000000000000000000000000000000000815250600a8160405161240d9190613f77565b908152602001604051809103902060009054906101000a900460ff16612468576040517f08c379a000000000000000000000000000000000000000000000000000000000815260040161245f90613fda565b60405180910390fd5b60006004600084815260200190815260200160002060090154146124c1576040517f08c379a00000000000000000000000000000000000000000000000000000000081526004016124b890614046565b60405180910390fd5b600160046000848152602001908152602001600020600901819055505050565b6000600260008373ffffffffffffffffffffffffffffffffffffffff1673ffffffffffffffffffffffffffffffffffffffff168152602001908152602001600020549050919050565b60008060003373ffffffffffffffffffffffffffffffffffffffff1673ffffffffffffffffffffffffffffffffffffffff16815260200190815260200160002054116125ab576040517f08c379a00000000000000000000000000000000000000000000000000000000081526004016125a29061460c565b60405180910390fd5b6000600260003373ffffffffffffffffffffffffffffffffffffffff1673ffffffffffffffffffffffffffffffffffffffff16815260200190815260200160002054426125f89190614066565b9050600c610e10612609919061410b565b81101561264b576040517f08c379a000000000000000000000000000000000000000000000000000000000815260040161264290614678565b60405180910390fd5b600080600c610e1061265d919061410b565b83612668919061410b565b905060005b8181101561274c576000600c610e10612686919061410b565b82612691919061409a565b600260003373ffffffffffffffffffffffffffffffffffffffff1673ffffffffffffffffffffffffffffffffffffffff168152602001908152602001600020546126db9190614387565b905060006127276000803373ffffffffffffffffffffffffffffffffffffffff1673ffffffffffffffffffffffffffffffffffffffff1681526020019081526020016000205483610e5c565b905080856127359190614387565b94505050808061274490613dcf565b91505061266d565b5060006064603c8461275e919061409a565b612768919061410b565b90506000606460288561277b919061409a565b612785919061410b565b905061279081612fbc565b629896808261279f919061410b565b600160003373ffffffffffffffffffffffffffffffffffffffff1673ffffffffffffffffffffffffffffffffffffffff16815260200190815260200160002060008282546127ed9190614387565b9250508190555042600260003373ffffffffffffffffffffffffffffffffffffffff1673ffffffffffffffffffffffffffffffffffffffff16815260200190815260200160002081905550600960009054906101000a900473ffffffffffffffffffffffffffffffffffffffff1673ffffffffffffffffffffffffffffffffffffffff1663a9059cbb33846040518363ffffffff1660e01b81526004016128959291906141a8565b6020604051808303816000875af11580156128b4573d6000803e3d6000fd5b505050506040513d601f19601f820116820180604052508101906128d89190613a33565b612917576040517f08c379a000000000000000000000000000000000000000000000000000000000815260040161290e90613aac565b60405180910390fd5b5050505050565b600860009054906101000a900473ffffffffffffffffffffffffffffffffffffffff1673ffffffffffffffffffffffffffffffffffffffff163373ffffffffffffffffffffffffffffffffffffffff16146129ae576040517f08c379a00000000000000000000000000000000000000000000000000000000081526004016129a590614534565b60405180910390fd5b6040518060400160405280601181526020017f6368616e67655365636f6e6441646d696e000000000000000000000000000000815250600a816040516129f49190613f77565b908152602001604051809103902060009054906101000a900460ff16612a4f576040517f08c379a0000000000000000000000000000000000000000000000000000000008152600401612a4690613fda565b60405180910390fd5b81600760006101000a81548173ffffffffffffffffffffffffffffffffffffffff021916908373ffffffffffffffffffffffffffffffffffffffff1602179055505050565b6004602052806000526040600020600091509050806000018054612ab790613afb565b80601f0160208091040260200160405190810160405280929190818152602001828054612ae390613afb565b8015612b305780601f10612b0557610100808354040283529160200191612b30565b820191906000526020600020905b815481529060010190602001808311612b1357829003601f168201915b505050505090806001018054612b4590613afb565b80601f0160208091040260200160405190810160405280929190818152602001828054612b7190613afb565b8015612bbe5780601f10612b9357610100808354040283529160200191612bbe565b820191906000526020600020905b815481529060010190602001808311612ba157829003601f168201915b505050505090806002018054612bd390613afb565b80601f0160208091040260200160405190810160405280929190818152602001828054612bff90613afb565b8015612c4c5780601f10612c2157610100808354040283529160200191612c4c565b820191906000526020600020905b815481529060010190602001808311612c2f57829003601f168201915b505050505090806003018054612c6190613afb565b80601f0160208091040260200160405190810160405280929190818152602001828054612c8d90613afb565b8015612cda5780601f10612caf57610100808354040283529160200191612cda565b820191906000526020600020905b815481529060010190602001808311612cbd57829003601f168201915b505050505090806004018054612cef90613afb565b80601f0160208091040260200160405190810160405280929190818152602001828054612d1b90613afb565b8015612d685780601f10612d3d57610100808354040283529160200191612d68565b820191906000526020600020905b815481529060010190602001808311612d4b57829003601f168201915b505050505090806005018054612d7d90613afb565b80601f0160208091040260200160405190810160405280929190818152602001828054612da990613afb565b8015612df65780601f10612dcb57610100808354040283529160200191612df6565b820191906000526020600020905b815481529060010190602001808311612dd957829003601f168201915b505050505090806006018054612e0b90613afb565b80601f0160208091040260200160405190810160405280929190818152602001828054612e3790613afb565b8015612e845780601f10612e5957610100808354040283529160200191612e84565b820191906000526020600020905b815481529060010190602001808311612e6757829003601f168201915b505050505090806007018054612e9990613afb565b80601f0160208091040260200160405190810160405280929190818152602001828054612ec590613afb565b8015612f125780601f10612ee757610100808354040283529160200191612f12565b820191906000526020600020905b815481529060010190602001808311612ef557829003601f168201915b5050505050908060080160009054906101000a900473ffffffffffffffffffffffffffffffffffffffff169080600901549080600a01549080600b015490508c565b600660009054906101000a900473ffffffffffffffffffffffffffffffffffffffff1681565b600080610e1083612f8b919061410b565b905060038110612f9f576003915050612fb7565b60028103612fb1576002915050612fb7565b60019150505b919050565b6000612fc661315f565b905060008103612fd6575061315c565b60005b60055481101561315957600060046000838152602001908152602001600020905060058081111561300d5761300c6143bb565b5b816009015414613145576000838583600b015461302a919061409a565b613034919061410b565b9050600081111561314357600960009054906101000a900473ffffffffffffffffffffffffffffffffffffffff1673ffffffffffffffffffffffffffffffffffffffff1663a9059cbb8360080160009054906101000a900473ffffffffffffffffffffffffffffffffffffffff16836040518363ffffffff1660e01b81526004016130c09291906141a8565b6020604051808303816000875af11580156130df573d6000803e3d6000fd5b505050506040513d601f19601f820116820180604052508101906131039190613a33565b613142576040517f08c379a0000000000000000000000000000000000000000000000000000000008152600401613139906146e4565b60405180910390fd5b5b505b50808061315190613dcf565b915050612fd9565b50505b50565b6000806000905060005b6005548110156131da57600580811115613186576131856143bb565b5b6004600083815260200190815260200160002060090154146131c75760046000828152602001908152602001600020600b0154826131c49190614387565b91505b80806131d290613dcf565b915050613169565b508091505090565b6000604051905090565b600080fd5b600080fd5b600073ffffffffffffffffffffffffffffffffffffffff82169050919050565b6000613221826131f6565b9050919050565b61323181613216565b811461323c57600080fd5b50565b60008135905061324e81613228565b92915050565b60006020828403121561326a576132696131ec565b5b60006132788482850161323f565b91505092915050565b6000819050919050565b61329481613281565b82525050565b60006020820190506132af600083018461328b565b92915050565b600080fd5b600080fd5b6000601f19601f8301169050919050565b7f4e487b7100000000000000000000000000000000000000000000000000000000600052604160045260246000fd5b613308826132bf565b810181811067ffffffffffffffff82111715613327576133266132d0565b5b80604052505050565b600061333a6131e2565b905061334682826132ff565b919050565b600067ffffffffffffffff821115613366576133656132d0565b5b61336f826132bf565b9050602081019050919050565b82818337600083830152505050565b600061339e6133998461334b565b613330565b9050828152602081018484840111156133ba576133b96132ba565b5b6133c584828561337c565b509392505050565b600082601f8301126133e2576133e16132b5565b5b81356133f284826020860161338b565b91505092915050565b600080600080600060a08688031215613417576134166131ec565b5b600086013567ffffffffffffffff811115613435576134346131f1565b5b613441888289016133cd565b955050602086013567ffffffffffffffff811115613462576134616131f1565b5b61346e888289016133cd565b945050604086013567ffffffffffffffff81111561348f5761348e6131f1565b5b61349b888289016133cd565b935050606086013567ffffffffffffffff8111156134bc576134bb6131f1565b5b6134c8888289016133cd565b925050608086013567ffffffffffffffff8111156134e9576134e86131f1565b5b6134f5888289016133cd565b9150509295509295909350565b6000819050919050565b600061352761352261351d846131f6565b613502565b6131f6565b9050919050565b60006135398261350c565b9050919050565b600061354b8261352e565b9050919050565b61355b81613540565b82525050565b60006020820190506135766000830184613552565b92915050565b60008115159050919050565b6135918161357c565b811461359c57600080fd5b50565b6000813590506135ae81613588565b92915050565b600080604083850312156135cb576135ca6131ec565b5b600083013567ffffffffffffffff8111156135e9576135e86131f1565b5b6135f5858286016133cd565b92505060206136068582860161359f565b9150509250929050565b61361981613216565b82525050565b60006020820190506136346000830184613610565b92915050565b61364381613281565b811461364e57600080fd5b50565b6000813590506136608161363a565b92915050565b60006020828403121561367c5761367b6131ec565b5b600061368a84828501613651565b91505092915050565b600080604083850312156136aa576136a96131ec565b5b60006136b885828601613651565b92505060206136c985828601613651565b9150509250929050565b6000602082840312156136e9576136e86131ec565b5b600082013567ffffffffffffffff811115613707576137066131f1565b5b613713848285016133cd565b91505092915050565b6137258161357c565b82525050565b6000602082019050613740600083018461371c565b92915050565b6000806040838503121561375d5761375c6131ec565b5b600061376b85828601613651565b925050602083013567ffffffffffffffff81111561378c5761378b6131f1565b5b613798858286016133cd565b9150509250929050565b600081519050919050565b600082825260208201905092915050565b60005b838110156137dc5780820151818401526020810190506137c1565b60008484015250505050565b60006137f3826137a2565b6137fd81856137ad565b935061380d8185602086016137be565b613816816132bf565b840191505092915050565b600061018082019050818103600083015261383c818f6137e8565b90508181036020830152613850818e6137e8565b90508181036040830152613864818d6137e8565b90508181036060830152613878818c6137e8565b9050818103608083015261388c818b6137e8565b905081810360a08301526138a0818a6137e8565b905081810360c08301526138b481896137e8565b905081810360e08301526138c881886137e8565b90506138d8610100830187613610565b6138e661012083018661328b565b6138f461014083018561328b565b61390261016083018461328b565b9d9c50505050505050505050505050565b6000815190506139228161363a565b92915050565b60006020828403121561393e5761393d6131ec565b5b600061394c84828501613913565b91505092915050565b7f496e73756666696369656e7420746f6b656e7320746f2063726561746520656c60008201527f656d656e74000000000000000000000000000000000000000000000000000000602082015250565b60006139b16025836137ad565b91506139bc82613955565b604082019050919050565b600060208201905081810360008301526139e0816139a4565b9050919050565b60006060820190506139fc6000830186613610565b613a096020830185613610565b613a16604083018461328b565b949350505050565b600081519050613a2d81613588565b92915050565b600060208284031215613a4957613a486131ec565b5b6000613a5784828501613a1e565b91505092915050565b7f546f6b656e207472616e73666572206661696c65640000000000000000000000600082015250565b6000613a966015836137ad565b9150613aa182613a60565b602082019050919050565b60006020820190508181036000830152613ac581613a89565b9050919050565b7f4e487b7100000000000000000000000000000000000000000000000000000000600052602260045260246000fd5b60006002820490506001821680613b1357607f821691505b602082108103613b2657613b25613acc565b5b50919050565b60008190508160005260206000209050919050565b60006020601f8301049050919050565b600082821b905092915050565b600060088302613b8e7fffffffffffffffffffffffffffffffffffffffffffffffffffffffffffffffff82613b51565b613b988683613b51565b95508019841693508086168417925050509392505050565b6000613bcb613bc6613bc184613281565b613502565b613281565b9050919050565b6000819050919050565b613be583613bb0565b613bf9613bf182613bd2565b848454613b5e565b825550505050565b600090565b613c0e613c01565b613c19818484613bdc565b505050565b5b81811015613c3d57613c32600082613c06565b600181019050613c1f565b5050565b601f821115613c8257613c5381613b2c565b613c5c84613b41565b81016020851015613c6b578190505b613c7f613c7785613b41565b830182613c1e565b50505b505050565b600082821c905092915050565b6000613ca560001984600802613c87565b1980831691505092915050565b6000613cbe8383613c94565b9150826002028217905092915050565b613cd7826137a2565b67ffffffffffffffff811115613cf057613cef6132d0565b5b613cfa8254613afb565b613d05828285613c41565b600060209050601f831160018114613d385760008415613d26578287015190505b613d308582613cb2565b865550613d98565b601f198416613d4686613b2c565b60005b82811015613d6e57848901518255600182019150602085019450602081019050613d49565b86831015613d8b5784890151613d87601f891682613c94565b8355505b6001600288020188555050505b505050505050565b7f4e487b7100000000000000000000000000000000000000000000000000000000600052601160045260246000fd5b6000613dda82613281565b91507fffffffffffffffffffffffffffffffffffffffffffffffffffffffffffffffff8203613e0c57613e0b613da0565b5b600182019050919050565b7f4f6e6c792061646d696e2063616e20706572666f726d2074686973206163746960008201527f6f6e000000000000000000000000000000000000000000000000000000000000602082015250565b6000613e736022836137ad565b9150613e7e82613e17565b604082019050919050565b60006020820190508181036000830152613ea281613e66565b9050919050565b7f41646d696e2063616e206f6e6c7920746f67676c65206368616e67655365636f60008201527f6e6441646d696e00000000000000000000000000000000000000000000000000602082015250565b6000613f056027836137ad565b9150613f1082613ea9565b604082019050919050565b60006020820190508181036000830152613f3481613ef8565b9050919050565b600081905092915050565b6000613f51826137a2565b613f5b8185613f3b565b9350613f6b8185602086016137be565b80840191505092915050565b6000613f838284613f46565b915081905092915050565b7f46756e6374696f6e2069732064697361626c6564000000000000000000000000600082015250565b6000613fc46014836137ad565b9150613fcf82613f8e565b602082019050919050565b60006020820190508181036000830152613ff381613fb7565b9050919050565b7f456c656d656e74206973206e6f742070656e64696e6720617070726f76616c00600082015250565b6000614030601f836137ad565b915061403b82613ffa565b602082019050919050565b6000602082019050818103600083015261405f81614023565b9050919050565b600061407182613281565b915061407c83613281565b925082820390508181111561409457614093613da0565b5b92915050565b60006140a582613281565b91506140b083613281565b92508282026140be81613281565b915082820484148315176140d5576140d4613da0565b5b5092915050565b7f4e487b7100000000000000000000000000000000000000000000000000000000600052601260045260246000fd5b600061411682613281565b915061412183613281565b925082614131576141306140dc565b5b828204905092915050565b7f496e73756666696369656e74207374616b656420616d6f756e74000000000000600082015250565b6000614172601a836137ad565b915061417d8261413c565b602082019050919050565b600060208201905081810360008301526141a181614165565b9050919050565b60006040820190506141bd6000830185613610565b6141ca602083018461328b565b9392505050565b7f4f6e6c79207365636f6e642061646d696e2063616e20706572666f726d20746860008201527f697320616374696f6e0000000000000000000000000000000000000000000000602082015250565b600061422d6029836137ad565b9150614238826141d1565b604082019050919050565b6000602082019050818103600083015261425c81614220565b9050919050565b7f5365636f6e642061646d696e2063616e6e6f7420746f67676c65206368616e6760008201527f655365636f6e6441646d696e0000000000000000000000000000000000000000602082015250565b60006142bf602c836137ad565b91506142ca82614263565b604082019050919050565b600060208201905081810360008301526142ee816142b2565b9050919050565b7f456c656d656e7420697320616c726561647920696e207468652050726573746960008201527f6765207068617365000000000000000000000000000000000000000000000000602082015250565b60006143516028836137ad565b915061435c826142f5565b604082019050919050565b6000602082019050818103600083015261438081614344565b9050919050565b600061439282613281565b915061439d83613281565b92508282019050808211156143b5576143b4613da0565b5b92915050565b7f4e487b7100000000000000000000000000000000000000000000000000000000600052602160045260246000fd5b7f4e6f20766f74696e6720706f7765720000000000000000000000000000000000600082015250565b6000614420600f836137ad565b915061442b826143ea565b602082019050919050565b6000602082019050818103600083015261444f81614413565b9050919050565b7f4d696e696d756d207374616b6520616d6f756e74206973203120746f6b656e00600082015250565b600061448c601f836137ad565b915061449782614456565b602082019050919050565b600060208201905081810360008301526144bb8161447f565b9050919050565b7f4f6e6c792074686972642061646d696e2063616e20706572666f726d2074686960008201527f7320616374696f6e000000000000000000000000000000000000000000000000602082015250565b600061451e6028836137ad565b9150614529826144c2565b604082019050919050565b6000602082019050818103600083015261454d81614511565b9050919050565b7f4f6e6c792063726561746f722063616e20757064617465000000000000000000600082015250565b600061458a6017836137ad565b915061459582614554565b602082019050919050565b600060208201905081810360008301526145b98161457d565b9050919050565b7f4e6f207374616b656420616d6f756e7400000000000000000000000000000000600082015250565b60006145f66010836137ad565b9150614601826145c0565b602082019050919050565b60006020820190508181036000830152614625816145e9565b9050919050565b7f43616e6e6f7420636c61696d206265666f72652061206d6f6e74680000000000600082015250565b6000614662601b836137ad565b915061466d8261462c565b602082019050919050565b6000602082019050818103600083015261469181614655565b9050919050565b7f456c656d656e7420726577617264207472616e73666572206661696c65640000600082015250565b60006146ce601e836137ad565b91506146d982614698565b602082019050919050565b600060208201905081810360008301526146fd816146c1565b905091905056fea2646970667358221220320dcac915545241104abb44b9a12d6abe726cbb94889e02b49ce7272750ff8e64736f6c63430008120033",
			"opcodes": "PUSH1 0x80 PUSH1 0x40 MSTORE CALLVALUE DUP1 ISZERO PUSH3 0x11 JUMPI PUSH1 0x0 DUP1 REVERT JUMPDEST POP PUSH1 0x40 MLOAD PUSH3 0x4DB1 CODESIZE SUB DUP1 PUSH3 0x4DB1 DUP4 CODECOPY DUP2 DUP2 ADD PUSH1 0x40 MSTORE DUP2 ADD SWAP1 PUSH3 0x37 SWAP2 SWAP1 PUSH3 0x32F JUMP JUMPDEST CALLER PUSH1 0x6 PUSH1 0x0 PUSH2 0x100 EXP DUP2 SLOAD DUP2 PUSH20 0xFFFFFFFFFFFFFFFFFFFFFFFFFFFFFFFFFFFFFFFF MUL NOT AND SWAP1 DUP4 PUSH20 0xFFFFFFFFFFFFFFFFFFFFFFFFFFFFFFFFFFFFFFFF AND MUL OR SWAP1 SSTORE POP DUP3 PUSH1 0x9 PUSH1 0x0 PUSH2 0x100 EXP DUP2 SLOAD DUP2 PUSH20 0xFFFFFFFFFFFFFFFFFFFFFFFFFFFFFFFFFFFFFFFF MUL NOT AND SWAP1 DUP4 PUSH20 0xFFFFFFFFFFFFFFFFFFFFFFFFFFFFFFFFFFFFFFFF AND MUL OR SWAP1 SSTORE POP DUP2 PUSH1 0x7 PUSH1 0x0 PUSH2 0x100 EXP DUP2 SLOAD DUP2 PUSH20 0xFFFFFFFFFFFFFFFFFFFFFFFFFFFFFFFFFFFFFFFF MUL NOT AND SWAP1 DUP4 PUSH20 0xFFFFFFFFFFFFFFFFFFFFFFFFFFFFFFFFFFFFFFFF AND MUL OR SWAP1 SSTORE POP DUP1 PUSH1 0x8 PUSH1 0x0 PUSH2 0x100 EXP DUP2 SLOAD DUP2 PUSH20 0xFFFFFFFFFFFFFFFFFFFFFFFFFFFFFFFFFFFFFFFF MUL NOT AND SWAP1 DUP4 PUSH20 0xFFFFFFFFFFFFFFFFFFFFFFFFFFFFFFFFFFFFFFFF AND MUL OR SWAP1 SSTORE POP PUSH1 0x0 PUSH1 0xA PUSH1 0x40 MLOAD PUSH3 0x14D SWAP1 PUSH3 0x3E6 JUMP JUMPDEST SWAP1 DUP2 MSTORE PUSH1 0x20 ADD PUSH1 0x40 MLOAD DUP1 SWAP2 SUB SWAP1 KECCAK256 PUSH1 0x0 PUSH2 0x100 EXP DUP2 SLOAD DUP2 PUSH1 0xFF MUL NOT AND SWAP1 DUP4 ISZERO ISZERO MUL OR SWAP1 SSTORE POP PUSH1 0x0 PUSH1 0xA PUSH1 0x40 MLOAD PUSH3 0x184 SWAP1 PUSH3 0x44D JUMP JUMPDEST SWAP1 DUP2 MSTORE PUSH1 0x20 ADD PUSH1 0x40 MLOAD DUP1 SWAP2 SUB SWAP1 KECCAK256 PUSH1 0x0 PUSH2 0x100 EXP DUP2 SLOAD DUP2 PUSH1 0xFF MUL NOT AND SWAP1 DUP4 ISZERO ISZERO MUL OR SWAP1 SSTORE POP PUSH1 0x0 PUSH1 0xA PUSH1 0x40 MLOAD PUSH3 0x1BB SWAP1 PUSH3 0x4B4 JUMP JUMPDEST SWAP1 DUP2 MSTORE PUSH1 0x20 ADD PUSH1 0x40 MLOAD DUP1 SWAP2 SUB SWAP1 KECCAK256 PUSH1 0x0 PUSH2 0x100 EXP DUP2 SLOAD DUP2 PUSH1 0xFF MUL NOT AND SWAP1 DUP4 ISZERO ISZERO MUL OR SWAP1 SSTORE POP PUSH1 0x0 PUSH1 0xA PUSH1 0x40 MLOAD PUSH3 0x1F2 SWAP1 PUSH3 0x51B JUMP JUMPDEST SWAP1 DUP2 MSTORE PUSH1 0x20 ADD PUSH1 0x40 MLOAD DUP1 SWAP2 SUB SWAP1 KECCAK256 PUSH1 0x0 PUSH2 0x100 EXP DUP2 SLOAD DUP2 PUSH1 0xFF MUL NOT AND SWAP1 DUP4 ISZERO ISZERO MUL OR SWAP1 SSTORE POP PUSH1 0x0 PUSH1 0xA PUSH1 0x40 MLOAD PUSH3 0x229 SWAP1 PUSH3 0x582 JUMP JUMPDEST SWAP1 DUP2 MSTORE PUSH1 0x20 ADD PUSH1 0x40 MLOAD DUP1 SWAP2 SUB SWAP1 KECCAK256 PUSH1 0x0 PUSH2 0x100 EXP DUP2 SLOAD DUP2 PUSH1 0xFF MUL NOT AND SWAP1 DUP4 ISZERO ISZERO MUL OR SWAP1 SSTORE POP PUSH1 0x0 PUSH1 0xA PUSH1 0x40 MLOAD PUSH3 0x260 SWAP1 PUSH3 0x5E9 JUMP JUMPDEST SWAP1 DUP2 MSTORE PUSH1 0x20 ADD PUSH1 0x40 MLOAD DUP1 SWAP2 SUB SWAP1 KECCAK256 PUSH1 0x0 PUSH2 0x100 EXP DUP2 SLOAD DUP2 PUSH1 0xFF MUL NOT AND SWAP1 DUP4 ISZERO ISZERO MUL OR SWAP1 SSTORE POP PUSH1 0x0 PUSH1 0xA PUSH1 0x40 MLOAD PUSH3 0x297 SWAP1 PUSH3 0x650 JUMP JUMPDEST SWAP1 DUP2 MSTORE PUSH1 0x20 ADD PUSH1 0x40 MLOAD DUP1 SWAP2 SUB SWAP1 KECCAK256 PUSH1 0x0 PUSH2 0x100 EXP DUP2 SLOAD DUP2 PUSH1 0xFF MUL NOT AND SWAP1 DUP4 ISZERO ISZERO MUL OR SWAP1 SSTORE POP POP POP POP PUSH3 0x667 JUMP JUMPDEST PUSH1 0x0 DUP1 REVERT JUMPDEST PUSH1 0x0 PUSH20 0xFFFFFFFFFFFFFFFFFFFFFFFFFFFFFFFFFFFFFFFF DUP3 AND SWAP1 POP SWAP2 SWAP1 POP JUMP JUMPDEST PUSH1 0x0 PUSH3 0x2F7 DUP3 PUSH3 0x2CA JUMP JUMPDEST SWAP1 POP SWAP2 SWAP1 POP JUMP JUMPDEST PUSH3 0x309 DUP2 PUSH3 0x2EA JUMP JUMPDEST DUP2 EQ PUSH3 0x315 JUMPI PUSH1 0x0 DUP1 REVERT JUMPDEST POP JUMP JUMPDEST PUSH1 0x0 DUP2 MLOAD SWAP1 POP PUSH3 0x329 DUP2 PUSH3 0x2FE JUMP JUMPDEST SWAP3 SWAP2 POP POP JUMP JUMPDEST PUSH1 0x0 DUP1 PUSH1 0x0 PUSH1 0x60 DUP5 DUP7 SUB SLT ISZERO PUSH3 0x34B JUMPI PUSH3 0x34A PUSH3 0x2C5 JUMP JUMPDEST JUMPDEST PUSH1 0x0 PUSH3 0x35B DUP7 DUP3 DUP8 ADD PUSH3 0x318 JUMP JUMPDEST SWAP4 POP POP PUSH1 0x20 PUSH3 0x36E DUP7 DUP3 DUP8 ADD PUSH3 0x318 JUMP JUMPDEST SWAP3 POP POP PUSH1 0x40 PUSH3 0x381 DUP7 DUP3 DUP8 ADD PUSH3 0x318 JUMP JUMPDEST SWAP2 POP POP SWAP3 POP SWAP3 POP SWAP3 JUMP JUMPDEST PUSH1 0x0 DUP2 SWAP1 POP SWAP3 SWAP2 POP POP JUMP JUMPDEST PUSH32 0x617070726F7665456C656D656E74000000000000000000000000000000000000 PUSH1 0x0 DUP3 ADD MSTORE POP JUMP JUMPDEST PUSH1 0x0 PUSH3 0x3CE PUSH1 0xE DUP4 PUSH3 0x38B JUMP JUMPDEST SWAP2 POP PUSH3 0x3DB DUP3 PUSH3 0x396 JUMP JUMPDEST PUSH1 0xE DUP3 ADD SWAP1 POP SWAP2 SWAP1 POP JUMP JUMPDEST PUSH1 0x0 PUSH3 0x3F3 DUP3 PUSH3 0x3BF JUMP JUMPDEST SWAP2 POP DUP2 SWAP1 POP SWAP2 SWAP1 POP JUMP JUMPDEST PUSH32 0x72656A656374456C656D656E7400000000000000000000000000000000000000 PUSH1 0x0 DUP3 ADD MSTORE POP JUMP JUMPDEST PUSH1 0x0 PUSH3 0x435 PUSH1 0xD DUP4 PUSH3 0x38B JUMP JUMPDEST SWAP2 POP PUSH3 0x442 DUP3 PUSH3 0x3FD JUMP JUMPDEST PUSH1 0xD DUP3 ADD SWAP1 POP SWAP2 SWAP1 POP JUMP JUMPDEST PUSH1 0x0 PUSH3 0x45A DUP3 PUSH3 0x426 JUMP JUMPDEST SWAP2 POP DUP2 SWAP1 POP SWAP2 SWAP1 POP JUMP JUMPDEST PUSH32 0x72656D6F7665456C656D656E7400000000000000000000000000000000000000 PUSH1 0x0 DUP3 ADD MSTORE POP JUMP JUMPDEST PUSH1 0x0 PUSH3 0x49C PUSH1 0xD DUP4 PUSH3 0x38B JUMP JUMPDEST SWAP2 POP PUSH3 0x4A9 DUP3 PUSH3 0x464 JUMP JUMPDEST PUSH1 0xD DUP3 ADD SWAP1 POP SWAP2 SWAP1 POP JUMP JUMPDEST PUSH1 0x0 PUSH3 0x4C1 DUP3 PUSH3 0x48D JUMP JUMPDEST SWAP2 POP DUP2 SWAP1 POP SWAP2 SWAP1 POP JUMP JUMPDEST PUSH32 0x636F6E6669726D55706461746500000000000000000000000000000000000000 PUSH1 0x0 DUP3 ADD MSTORE POP JUMP JUMPDEST PUSH1 0x0 PUSH3 0x503 PUSH1 0xD DUP4 PUSH3 0x38B JUMP JUMPDEST SWAP2 POP PUSH3 0x510 DUP3 PUSH3 0x4CB JUMP JUMPDEST PUSH1 0xD DUP3 ADD SWAP1 POP SWAP2 SWAP1 POP JUMP JUMPDEST PUSH1 0x0 PUSH3 0x528 DUP3 PUSH3 0x4F4 JUMP JUMPDEST SWAP2 POP DUP2 SWAP1 POP SWAP2 SWAP1 POP JUMP JUMPDEST PUSH32 0x7265667573655570646174650000000000000000000000000000000000000000 PUSH1 0x0 DUP3 ADD MSTORE POP JUMP JUMPDEST PUSH1 0x0 PUSH3 0x56A PUSH1 0xC DUP4 PUSH3 0x38B JUMP JUMPDEST SWAP2 POP PUSH3 0x577 DUP3 PUSH3 0x532 JUMP JUMPDEST PUSH1 0xC DUP3 ADD SWAP1 POP SWAP2 SWAP1 POP JUMP JUMPDEST PUSH1 0x0 PUSH3 0x58F DUP3 PUSH3 0x55B JUMP JUMPDEST SWAP2 POP DUP2 SWAP1 POP SWAP2 SWAP1 POP JUMP JUMPDEST PUSH32 0x6368616E676541646D696E000000000000000000000000000000000000000000 PUSH1 0x0 DUP3 ADD MSTORE POP JUMP JUMPDEST PUSH1 0x0 PUSH3 0x5D1 PUSH1 0xB DUP4 PUSH3 0x38B JUMP JUMPDEST SWAP2 POP PUSH3 0x5DE DUP3 PUSH3 0x599 JUMP JUMPDEST PUSH1 0xB DUP3 ADD SWAP1 POP SWAP2 SWAP1 POP JUMP JUMPDEST PUSH1 0x0 PUSH3 0x5F6 DUP3 PUSH3 0x5C2 JUMP JUMPDEST SWAP2 POP DUP2 SWAP1 POP SWAP2 SWAP1 POP JUMP JUMPDEST PUSH32 0x6368616E67655365636F6E6441646D696E000000000000000000000000000000 PUSH1 0x0 DUP3 ADD MSTORE POP JUMP JUMPDEST PUSH1 0x0 PUSH3 0x638 PUSH1 0x11 DUP4 PUSH3 0x38B JUMP JUMPDEST SWAP2 POP PUSH3 0x645 DUP3 PUSH3 0x600 JUMP JUMPDEST PUSH1 0x11 DUP3 ADD SWAP1 POP SWAP2 SWAP1 POP JUMP JUMPDEST PUSH1 0x0 PUSH3 0x65D DUP3 PUSH3 0x629 JUMP JUMPDEST SWAP2 POP DUP2 SWAP1 POP SWAP2 SWAP1 POP JUMP JUMPDEST PUSH2 0x473A DUP1 PUSH3 0x677 PUSH1 0x0 CODECOPY PUSH1 0x0 RETURN INVALID PUSH1 0x80 PUSH1 0x40 MSTORE CALLVALUE DUP1 ISZERO PUSH2 0x10 JUMPI PUSH1 0x0 DUP1 REVERT JUMPDEST POP PUSH1 0x4 CALLDATASIZE LT PUSH2 0x227 JUMPI PUSH1 0x0 CALLDATALOAD PUSH1 0xE0 SHR DUP1 PUSH4 0x6B8D04FB GT PUSH2 0x130 JUMPI DUP1 PUSH4 0xC07473F6 GT PUSH2 0xB8 JUMPI DUP1 PUSH4 0xD4F1E386 GT PUSH2 0x7C JUMPI DUP1 PUSH4 0xD4F1E386 EQ PUSH2 0x670 JUMPI DUP1 PUSH4 0xDD8087D1 EQ PUSH2 0x67A JUMPI DUP1 PUSH4 0xE0D64B37 EQ PUSH2 0x696 JUMPI DUP1 PUSH4 0xF851A440 EQ PUSH2 0x6D1 JUMPI DUP1 PUSH4 0xF9089BF2 EQ PUSH2 0x6EF JUMPI PUSH2 0x227 JUMP JUMPDEST DUP1 PUSH4 0xC07473F6 EQ PUSH2 0x5BA JUMPI DUP1 PUSH4 0xC5E48E5A EQ PUSH2 0x5EA JUMPI DUP1 PUSH4 0xC7B3564E EQ PUSH2 0x608 JUMPI DUP1 PUSH4 0xC9B3829F EQ PUSH2 0x624 JUMPI DUP1 PUSH4 0xCC78D728 EQ PUSH2 0x640 JUMPI PUSH2 0x227 JUMP JUMPDEST DUP1 PUSH4 0x8B52E06C GT PUSH2 0xFF JUMPI DUP1 PUSH4 0x8B52E06C EQ PUSH2 0x52C JUMPI DUP1 PUSH4 0x8F283970 EQ PUSH2 0x54A JUMPI DUP1 PUSH4 0x9FC37ABF EQ PUSH2 0x566 JUMPI DUP1 PUSH4 0xA721EBDD EQ PUSH2 0x582 JUMPI DUP1 PUSH4 0xB17146C8 EQ PUSH2 0x59E JUMPI PUSH2 0x227 JUMP JUMPDEST DUP1 PUSH4 0x6B8D04FB EQ PUSH2 0x4A6 JUMPI DUP1 PUSH4 0x72BAE674 EQ PUSH2 0x4D6 JUMPI DUP1 PUSH4 0x7547C7A3 EQ PUSH2 0x4F2 JUMPI DUP1 PUSH4 0x84D804BE EQ PUSH2 0x50E JUMPI PUSH2 0x227 JUMP JUMPDEST DUP1 PUSH4 0x25D5971F GT PUSH2 0x1B3 JUMPI DUP1 PUSH4 0x3B72BAD5 GT PUSH2 0x182 JUMPI DUP1 PUSH4 0x3B72BAD5 EQ PUSH2 0x3EE JUMPI DUP1 PUSH4 0x5DCC9391 EQ PUSH2 0x40A JUMPI DUP1 PUSH4 0x5FF329AF EQ PUSH2 0x428 JUMPI DUP1 PUSH4 0x613DAB3E EQ PUSH2 0x458 JUMPI DUP1 PUSH4 0x67BE4673 EQ PUSH2 0x488 JUMPI PUSH2 0x227 JUMP JUMPDEST DUP1 PUSH4 0x25D5971F EQ PUSH2 0x37C JUMPI DUP1 PUSH4 0x27855B13 EQ PUSH2 0x398 JUMPI DUP1 PUSH4 0x2A9AAA76 EQ PUSH2 0x3B6 JUMPI DUP1 PUSH4 0x36EAD39F EQ PUSH2 0x3D2 JUMPI PUSH2 0x227 JUMP JUMPDEST DUP1 PUSH4 0x17504B98 GT PUSH2 0x1FA JUMPI DUP1 PUSH4 0x17504B98 EQ PUSH2 0x2C6 JUMPI DUP1 PUSH4 0x1D002CC0 EQ PUSH2 0x2E2 JUMPI DUP1 PUSH4 0x1D32E9B3 EQ PUSH2 0x312 JUMPI DUP1 PUSH4 0x1FAA1128 EQ PUSH2 0x330 JUMPI DUP1 PUSH4 0x20CB13AB EQ PUSH2 0x34C JUMPI PUSH2 0x227 JUMP JUMPDEST DUP1 PUSH4 0x13EBA92 EQ PUSH2 0x22C JUMPI DUP1 PUSH4 0xA274280 EQ PUSH2 0x25C JUMPI DUP1 PUSH4 0xD67F59E EQ PUSH2 0x278 JUMPI DUP1 PUSH4 0x16934FC4 EQ PUSH2 0x296 JUMPI JUMPDEST PUSH1 0x0 DUP1 REVERT JUMPDEST PUSH2 0x246 PUSH1 0x4 DUP1 CALLDATASIZE SUB DUP2 ADD SWAP1 PUSH2 0x241 SWAP2 SWAP1 PUSH2 0x3254 JUMP JUMPDEST PUSH2 0x71F JUMP JUMPDEST PUSH1 0x40 MLOAD PUSH2 0x253 SWAP2 SWAP1 PUSH2 0x329A JUMP JUMPDEST PUSH1 0x40 MLOAD DUP1 SWAP2 SUB SWAP1 RETURN JUMPDEST PUSH2 0x276 PUSH1 0x4 DUP1 CALLDATASIZE SUB DUP2 ADD SWAP1 PUSH2 0x271 SWAP2 SWAP1 PUSH2 0x33FB JUMP JUMPDEST PUSH2 0x737 JUMP JUMPDEST STOP JUMPDEST PUSH2 0x280 PUSH2 0xAE7 JUMP JUMPDEST PUSH1 0x40 MLOAD PUSH2 0x28D SWAP2 SWAP1 PUSH2 0x3561 JUMP JUMPDEST PUSH1 0x40 MLOAD DUP1 SWAP2 SUB SWAP1 RETURN JUMPDEST PUSH2 0x2B0 PUSH1 0x4 DUP1 CALLDATASIZE SUB DUP2 ADD SWAP1 PUSH2 0x2AB SWAP2 SWAP1 PUSH2 0x3254 JUMP JUMPDEST PUSH2 0xB0D JUMP JUMPDEST PUSH1 0x40 MLOAD PUSH2 0x2BD SWAP2 SWAP1 PUSH2 0x329A JUMP JUMPDEST PUSH1 0x40 MLOAD DUP1 SWAP2 SUB SWAP1 RETURN JUMPDEST PUSH2 0x2E0 PUSH1 0x4 DUP1 CALLDATASIZE SUB DUP2 ADD SWAP1 PUSH2 0x2DB SWAP2 SWAP1 PUSH2 0x35B4 JUMP JUMPDEST PUSH2 0xB25 JUMP JUMPDEST STOP JUMPDEST PUSH2 0x2FC PUSH1 0x4 DUP1 CALLDATASIZE SUB DUP2 ADD SWAP1 PUSH2 0x2F7 SWAP2 SWAP1 PUSH2 0x3254 JUMP JUMPDEST PUSH2 0xC74 JUMP JUMPDEST PUSH1 0x40 MLOAD PUSH2 0x309 SWAP2 SWAP1 PUSH2 0x329A JUMP JUMPDEST PUSH1 0x40 MLOAD DUP1 SWAP2 SUB SWAP1 RETURN JUMPDEST PUSH2 0x31A PUSH2 0xC8C JUMP JUMPDEST PUSH1 0x40 MLOAD PUSH2 0x327 SWAP2 SWAP1 PUSH2 0x361F JUMP JUMPDEST PUSH1 0x40 MLOAD DUP1 SWAP2 SUB SWAP1 RETURN JUMPDEST PUSH2 0x34A PUSH1 0x4 DUP1 CALLDATASIZE SUB DUP2 ADD SWAP1 PUSH2 0x345 SWAP2 SWAP1 PUSH2 0x3666 JUMP JUMPDEST PUSH2 0xCB2 JUMP JUMPDEST STOP JUMPDEST PUSH2 0x366 PUSH1 0x4 DUP1 CALLDATASIZE SUB DUP2 ADD SWAP1 PUSH2 0x361 SWAP2 SWAP1 PUSH2 0x3693 JUMP JUMPDEST PUSH2 0xE5C JUMP JUMPDEST PUSH1 0x40 MLOAD PUSH2 0x373 SWAP2 SWAP1 PUSH2 0x329A JUMP JUMPDEST PUSH1 0x40 MLOAD DUP1 SWAP2 SUB SWAP1 RETURN JUMPDEST PUSH2 0x396 PUSH1 0x4 DUP1 CALLDATASIZE SUB DUP2 ADD SWAP1 PUSH2 0x391 SWAP2 SWAP1 PUSH2 0x3666 JUMP JUMPDEST PUSH2 0xEAE JUMP JUMPDEST STOP JUMPDEST PUSH2 0x3A0 PUSH2 0x10AA JUMP JUMPDEST PUSH1 0x40 MLOAD PUSH2 0x3AD SWAP2 SWAP1 PUSH2 0x329A JUMP JUMPDEST PUSH1 0x40 MLOAD DUP1 SWAP2 SUB SWAP1 RETURN JUMPDEST PUSH2 0x3D0 PUSH1 0x4 DUP1 CALLDATASIZE SUB DUP2 ADD SWAP1 PUSH2 0x3CB SWAP2 SWAP1 PUSH2 0x35B4 JUMP JUMPDEST PUSH2 0x10BC JUMP JUMPDEST STOP JUMPDEST PUSH2 0x3EC PUSH1 0x4 DUP1 CALLDATASIZE SUB DUP2 ADD SWAP1 PUSH2 0x3E7 SWAP2 SWAP1 PUSH2 0x3666 JUMP JUMPDEST PUSH2 0x120B JUMP JUMPDEST STOP JUMPDEST PUSH2 0x408 PUSH1 0x4 DUP1 CALLDATASIZE SUB DUP2 ADD SWAP1 PUSH2 0x403 SWAP2 SWAP1 PUSH2 0x3666 JUMP JUMPDEST PUSH2 0x1498 JUMP JUMPDEST STOP JUMPDEST PUSH2 0x412 PUSH2 0x170E JUMP JUMPDEST PUSH1 0x40 MLOAD PUSH2 0x41F SWAP2 SWAP1 PUSH2 0x329A JUMP JUMPDEST PUSH1 0x40 MLOAD DUP1 SWAP2 SUB SWAP1 RETURN JUMPDEST PUSH2 0x442 PUSH1 0x4 DUP1 CALLDATASIZE SUB DUP2 ADD SWAP1 PUSH2 0x43D SWAP2 SWAP1 PUSH2 0x3254 JUMP JUMPDEST PUSH2 0x1714 JUMP JUMPDEST PUSH1 0x40 MLOAD PUSH2 0x44F SWAP2 SWAP1 PUSH2 0x329A JUMP JUMPDEST PUSH1 0x40 MLOAD DUP1 SWAP2 SUB SWAP1 RETURN JUMPDEST PUSH2 0x472 PUSH1 0x4 DUP1 CALLDATASIZE SUB DUP2 ADD SWAP1 PUSH2 0x46D SWAP2 SWAP1 PUSH2 0x36D3 JUMP JUMPDEST PUSH2 0x18FF JUMP JUMPDEST PUSH1 0x40 MLOAD PUSH2 0x47F SWAP2 SWAP1 PUSH2 0x372B JUMP JUMPDEST PUSH1 0x40 MLOAD DUP1 SWAP2 SUB SWAP1 RETURN JUMPDEST PUSH2 0x490 PUSH2 0x1935 JUMP JUMPDEST PUSH1 0x40 MLOAD PUSH2 0x49D SWAP2 SWAP1 PUSH2 0x329A JUMP JUMPDEST PUSH1 0x40 MLOAD DUP1 SWAP2 SUB SWAP1 RETURN JUMPDEST PUSH2 0x4C0 PUSH1 0x4 DUP1 CALLDATASIZE SUB DUP2 ADD SWAP1 PUSH2 0x4BB SWAP2 SWAP1 PUSH2 0x3254 JUMP JUMPDEST PUSH2 0x193B JUMP JUMPDEST PUSH1 0x40 MLOAD PUSH2 0x4CD SWAP2 SWAP1 PUSH2 0x372B JUMP JUMPDEST PUSH1 0x40 MLOAD DUP1 SWAP2 SUB SWAP1 RETURN JUMPDEST PUSH2 0x4F0 PUSH1 0x4 DUP1 CALLDATASIZE SUB DUP2 ADD SWAP1 PUSH2 0x4EB SWAP2 SWAP1 PUSH2 0x3693 JUMP JUMPDEST PUSH2 0x1A13 JUMP JUMPDEST STOP JUMPDEST PUSH2 0x50C PUSH1 0x4 DUP1 CALLDATASIZE SUB DUP2 ADD SWAP1 PUSH2 0x507 SWAP2 SWAP1 PUSH2 0x3666 JUMP JUMPDEST PUSH2 0x1B1C JUMP JUMPDEST STOP JUMPDEST PUSH2 0x516 PUSH2 0x1D6C JUMP JUMPDEST PUSH1 0x40 MLOAD PUSH2 0x523 SWAP2 SWAP1 PUSH2 0x329A JUMP JUMPDEST PUSH1 0x40 MLOAD DUP1 SWAP2 SUB SWAP1 RETURN JUMPDEST PUSH2 0x534 PUSH2 0x1D74 JUMP JUMPDEST PUSH1 0x40 MLOAD PUSH2 0x541 SWAP2 SWAP1 PUSH2 0x361F JUMP JUMPDEST PUSH1 0x40 MLOAD DUP1 SWAP2 SUB SWAP1 RETURN JUMPDEST PUSH2 0x564 PUSH1 0x4 DUP1 CALLDATASIZE SUB DUP2 ADD SWAP1 PUSH2 0x55F SWAP2 SWAP1 PUSH2 0x3254 JUMP JUMPDEST PUSH2 0x1D9A JUMP JUMPDEST STOP JUMPDEST PUSH2 0x580 PUSH1 0x4 DUP1 CALLDATASIZE SUB DUP2 ADD SWAP1 PUSH2 0x57B SWAP2 SWAP1 PUSH2 0x3666 JUMP JUMPDEST PUSH2 0x1F10 JUMP JUMPDEST STOP JUMPDEST PUSH2 0x59C PUSH1 0x4 DUP1 CALLDATASIZE SUB DUP2 ADD SWAP1 PUSH2 0x597 SWAP2 SWAP1 PUSH2 0x3746 JUMP JUMPDEST PUSH2 0x2061 JUMP JUMPDEST STOP JUMPDEST PUSH2 0x5B8 PUSH1 0x4 DUP1 CALLDATASIZE SUB DUP2 ADD SWAP1 PUSH2 0x5B3 SWAP2 SWAP1 PUSH2 0x3746 JUMP JUMPDEST PUSH2 0x2148 JUMP JUMPDEST STOP JUMPDEST PUSH2 0x5D4 PUSH1 0x4 DUP1 CALLDATASIZE SUB DUP2 ADD SWAP1 PUSH2 0x5CF SWAP2 SWAP1 PUSH2 0x3254 JUMP JUMPDEST PUSH2 0x222F JUMP JUMPDEST PUSH1 0x40 MLOAD PUSH2 0x5E1 SWAP2 SWAP1 PUSH2 0x329A JUMP JUMPDEST PUSH1 0x40 MLOAD DUP1 SWAP2 SUB SWAP1 RETURN JUMPDEST PUSH2 0x5F2 PUSH2 0x2247 JUMP JUMPDEST PUSH1 0x40 MLOAD PUSH2 0x5FF SWAP2 SWAP1 PUSH2 0x329A JUMP JUMPDEST PUSH1 0x40 MLOAD DUP1 SWAP2 SUB SWAP1 RETURN JUMPDEST PUSH2 0x622 PUSH1 0x4 DUP1 CALLDATASIZE SUB DUP2 ADD SWAP1 PUSH2 0x61D SWAP2 SWAP1 PUSH2 0x3746 JUMP JUMPDEST PUSH2 0x2250 JUMP JUMPDEST STOP JUMPDEST PUSH2 0x63E PUSH1 0x4 DUP1 CALLDATASIZE SUB DUP2 ADD SWAP1 PUSH2 0x639 SWAP2 SWAP1 PUSH2 0x3666 JUMP JUMPDEST PUSH2 0x2337 JUMP JUMPDEST STOP JUMPDEST PUSH2 0x65A PUSH1 0x4 DUP1 CALLDATASIZE SUB DUP2 ADD SWAP1 PUSH2 0x655 SWAP2 SWAP1 PUSH2 0x3254 JUMP JUMPDEST PUSH2 0x24E1 JUMP JUMPDEST PUSH1 0x40 MLOAD PUSH2 0x667 SWAP2 SWAP1 PUSH2 0x329A JUMP JUMPDEST PUSH1 0x40 MLOAD DUP1 SWAP2 SUB SWAP1 RETURN JUMPDEST PUSH2 0x678 PUSH2 0x252A JUMP JUMPDEST STOP JUMPDEST PUSH2 0x694 PUSH1 0x4 DUP1 CALLDATASIZE SUB DUP2 ADD SWAP1 PUSH2 0x68F SWAP2 SWAP1 PUSH2 0x3254 JUMP JUMPDEST PUSH2 0x291E JUMP JUMPDEST STOP JUMPDEST PUSH2 0x6B0 PUSH1 0x4 DUP1 CALLDATASIZE SUB DUP2 ADD SWAP1 PUSH2 0x6AB SWAP2 SWAP1 PUSH2 0x3666 JUMP JUMPDEST PUSH2 0x2A94 JUMP JUMPDEST PUSH1 0x40 MLOAD PUSH2 0x6C8 SWAP13 SWAP12 SWAP11 SWAP10 SWAP9 SWAP8 SWAP7 SWAP6 SWAP5 SWAP4 SWAP3 SWAP2 SWAP1 PUSH2 0x3821 JUMP JUMPDEST PUSH1 0x40 MLOAD DUP1 SWAP2 SUB SWAP1 RETURN JUMPDEST PUSH2 0x6D9 PUSH2 0x2F54 JUMP JUMPDEST PUSH1 0x40 MLOAD PUSH2 0x6E6 SWAP2 SWAP1 PUSH2 0x361F JUMP JUMPDEST PUSH1 0x40 MLOAD DUP1 SWAP2 SUB SWAP1 RETURN JUMPDEST PUSH2 0x709 PUSH1 0x4 DUP1 CALLDATASIZE SUB DUP2 ADD SWAP1 PUSH2 0x704 SWAP2 SWAP1 PUSH2 0x3666 JUMP JUMPDEST PUSH2 0x2F7A JUMP JUMPDEST PUSH1 0x40 MLOAD PUSH2 0x716 SWAP2 SWAP1 PUSH2 0x329A JUMP JUMPDEST PUSH1 0x40 MLOAD DUP1 SWAP2 SUB SWAP1 RETURN JUMPDEST PUSH1 0x2 PUSH1 0x20 MSTORE DUP1 PUSH1 0x0 MSTORE PUSH1 0x40 PUSH1 0x0 KECCAK256 PUSH1 0x0 SWAP2 POP SWAP1 POP SLOAD DUP2 JUMP JUMPDEST PUSH5 0x2540BE400 PUSH1 0x9 PUSH1 0x0 SWAP1 SLOAD SWAP1 PUSH2 0x100 EXP SWAP1 DIV PUSH20 0xFFFFFFFFFFFFFFFFFFFFFFFFFFFFFFFFFFFFFFFF AND PUSH20 0xFFFFFFFFFFFFFFFFFFFFFFFFFFFFFFFFFFFFFFFF AND PUSH4 0x70A08231 CALLER PUSH1 0x40 MLOAD DUP3 PUSH4 0xFFFFFFFF AND PUSH1 0xE0 SHL DUP2 MSTORE PUSH1 0x4 ADD PUSH2 0x798 SWAP2 SWAP1 PUSH2 0x361F JUMP JUMPDEST PUSH1 0x20 PUSH1 0x40 MLOAD DUP1 DUP4 SUB DUP2 DUP7 GAS STATICCALL ISZERO DUP1 ISZERO PUSH2 0x7B5 JUMPI RETURNDATASIZE PUSH1 0x0 DUP1 RETURNDATACOPY RETURNDATASIZE PUSH1 0x0 REVERT JUMPDEST POP POP POP POP PUSH1 0x40 MLOAD RETURNDATASIZE PUSH1 0x1F NOT PUSH1 0x1F DUP3 ADD AND DUP3 ADD DUP1 PUSH1 0x40 MSTORE POP DUP2 ADD SWAP1 PUSH2 0x7D9 SWAP2 SWAP1 PUSH2 0x3928 JUMP JUMPDEST LT ISZERO PUSH2 0x81A JUMPI PUSH1 0x40 MLOAD PUSH32 0x8C379A000000000000000000000000000000000000000000000000000000000 DUP2 MSTORE PUSH1 0x4 ADD PUSH2 0x811 SWAP1 PUSH2 0x39C7 JUMP JUMPDEST PUSH1 0x40 MLOAD DUP1 SWAP2 SUB SWAP1 REVERT JUMPDEST PUSH1 0x9 PUSH1 0x0 SWAP1 SLOAD SWAP1 PUSH2 0x100 EXP SWAP1 DIV PUSH20 0xFFFFFFFFFFFFFFFFFFFFFFFFFFFFFFFFFFFFFFFF AND PUSH20 0xFFFFFFFFFFFFFFFFFFFFFFFFFFFFFFFFFFFFFFFF AND PUSH4 0x23B872DD CALLER ADDRESS PUSH5 0x2540BE400 PUSH1 0x40 MLOAD DUP5 PUSH4 0xFFFFFFFF AND PUSH1 0xE0 SHL DUP2 MSTORE PUSH1 0x4 ADD PUSH2 0x87E SWAP4 SWAP3 SWAP2 SWAP1 PUSH2 0x39E7 JUMP JUMPDEST PUSH1 0x20 PUSH1 0x40 MLOAD DUP1 DUP4 SUB DUP2 PUSH1 0x0 DUP8 GAS CALL ISZERO DUP1 ISZERO PUSH2 0x89D JUMPI RETURNDATASIZE PUSH1 0x0 DUP1 RETURNDATACOPY RETURNDATASIZE PUSH1 0x0 REVERT JUMPDEST POP POP POP POP PUSH1 0x40 MLOAD RETURNDATASIZE PUSH1 0x1F NOT PUSH1 0x1F DUP3 ADD AND DUP3 ADD DUP1 PUSH1 0x40 MSTORE POP DUP2 ADD SWAP1 PUSH2 0x8C1 SWAP2 SWAP1 PUSH2 0x3A33 JUMP JUMPDEST PUSH2 0x900 JUMPI PUSH1 0x40 MLOAD PUSH32 0x8C379A000000000000000000000000000000000000000000000000000000000 DUP2 MSTORE PUSH1 0x4 ADD PUSH2 0x8F7 SWAP1 PUSH2 0x3AAC JUMP JUMPDEST PUSH1 0x40 MLOAD DUP1 SWAP2 SUB SWAP1 REVERT JUMPDEST PUSH1 0x40 MLOAD DUP1 PUSH2 0x180 ADD PUSH1 0x40 MSTORE DUP1 DUP7 DUP2 MSTORE PUSH1 0x20 ADD DUP6 DUP2 MSTORE PUSH1 0x20 ADD DUP5 DUP2 MSTORE PUSH1 0x20 ADD PUSH1 0x40 MLOAD DUP1 PUSH1 0x20 ADD PUSH1 0x40 MSTORE DUP1 PUSH1 0x0 DUP2 MSTORE POP DUP2 MSTORE PUSH1 0x20 ADD PUSH1 0x40 MLOAD DUP1 PUSH1 0x20 ADD PUSH1 0x40 MSTORE DUP1 PUSH1 0x0 DUP2 MSTORE POP DUP2 MSTORE PUSH1 0x20 ADD PUSH1 0x40 MLOAD DUP1 PUSH1 0x20 ADD PUSH1 0x40 MSTORE DUP1 PUSH1 0x0 DUP2 MSTORE POP DUP2 MSTORE PUSH1 0x20 ADD DUP4 DUP2 MSTORE PUSH1 0x20 ADD DUP3 DUP2 MSTORE PUSH1 0x20 ADD CALLER PUSH20 0xFFFFFFFFFFFFFFFFFFFFFFFFFFFFFFFFFFFFFFFF AND DUP2 MSTORE PUSH1 0x20 ADD PUSH1 0x0 DUP2 MSTORE PUSH1 0x20 ADD TIMESTAMP DUP2 MSTORE PUSH1 0x20 ADD PUSH1 0x1 DUP2 MSTORE POP PUSH1 0x4 PUSH1 0x0 PUSH1 0x5 SLOAD DUP2 MSTORE PUSH1 0x20 ADD SWAP1 DUP2 MSTORE PUSH1 0x20 ADD PUSH1 0x0 KECCAK256 PUSH1 0x0 DUP3 ADD MLOAD DUP2 PUSH1 0x0 ADD SWAP1 DUP2 PUSH2 0x9C1 SWAP2 SWAP1 PUSH2 0x3CCE JUMP JUMPDEST POP PUSH1 0x20 DUP3 ADD MLOAD DUP2 PUSH1 0x1 ADD SWAP1 DUP2 PUSH2 0x9D7 SWAP2 SWAP1 PUSH2 0x3CCE JUMP JUMPDEST POP PUSH1 0x40 DUP3 ADD MLOAD DUP2 PUSH1 0x2 ADD SWAP1 DUP2 PUSH2 0x9ED SWAP2 SWAP1 PUSH2 0x3CCE JUMP JUMPDEST POP PUSH1 0x60 DUP3 ADD MLOAD DUP2 PUSH1 0x3 ADD SWAP1 DUP2 PUSH2 0xA03 SWAP2 SWAP1 PUSH2 0x3CCE JUMP JUMPDEST POP PUSH1 0x80 DUP3 ADD MLOAD DUP2 PUSH1 0x4 ADD SWAP1 DUP2 PUSH2 0xA19 SWAP2 SWAP1 PUSH2 0x3CCE JUMP JUMPDEST POP PUSH1 0xA0 DUP3 ADD MLOAD DUP2 PUSH1 0x5 ADD SWAP1 DUP2 PUSH2 0xA2F SWAP2 SWAP1 PUSH2 0x3CCE JUMP JUMPDEST POP PUSH1 0xC0 DUP3 ADD MLOAD DUP2 PUSH1 0x6 ADD SWAP1 DUP2 PUSH2 0xA45 SWAP2 SWAP1 PUSH2 0x3CCE JUMP JUMPDEST POP PUSH1 0xE0 DUP3 ADD MLOAD DUP2 PUSH1 0x7 ADD SWAP1 DUP2 PUSH2 0xA5B SWAP2 SWAP1 PUSH2 0x3CCE JUMP JUMPDEST POP PUSH2 0x100 DUP3 ADD MLOAD DUP2 PUSH1 0x8 ADD PUSH1 0x0 PUSH2 0x100 EXP DUP2 SLOAD DUP2 PUSH20 0xFFFFFFFFFFFFFFFFFFFFFFFFFFFFFFFFFFFFFFFF MUL NOT AND SWAP1 DUP4 PUSH20 0xFFFFFFFFFFFFFFFFFFFFFFFFFFFFFFFFFFFFFFFF AND MUL OR SWAP1 SSTORE POP PUSH2 0x120 DUP3 ADD MLOAD DUP2 PUSH1 0x9 ADD SSTORE PUSH2 0x140 DUP3 ADD MLOAD DUP2 PUSH1 0xA ADD SSTORE PUSH2 0x160 DUP3 ADD MLOAD DUP2 PUSH1 0xB ADD SSTORE SWAP1 POP POP PUSH1 0x5 PUSH1 0x0 DUP2 SLOAD DUP1 SWAP3 SWAP2 SWAP1 PUSH2 0xADB SWAP1 PUSH2 0x3DCF JUMP JUMPDEST SWAP2 SWAP1 POP SSTORE POP POP POP POP POP POP JUMP JUMPDEST PUSH1 0x9 PUSH1 0x0 SWAP1 SLOAD SWAP1 PUSH2 0x100 EXP SWAP1 DIV PUSH20 0xFFFFFFFFFFFFFFFFFFFFFFFFFFFFFFFFFFFFFFFF AND DUP2 JUMP JUMPDEST PUSH1 0x0 PUSH1 0x20 MSTORE DUP1 PUSH1 0x0 MSTORE PUSH1 0x40 PUSH1 0x0 KECCAK256 PUSH1 0x0 SWAP2 POP SWAP1 POP SLOAD DUP2 JUMP JUMPDEST PUSH1 0x6 PUSH1 0x0 SWAP1 SLOAD SWAP1 PUSH2 0x100 EXP SWAP1 DIV PUSH20 0xFFFFFFFFFFFFFFFFFFFFFFFFFFFFFFFFFFFFFFFF AND PUSH20 0xFFFFFFFFFFFFFFFFFFFFFFFFFFFFFFFFFFFFFFFF AND CALLER PUSH20 0xFFFFFFFFFFFFFFFFFFFFFFFFFFFFFFFFFFFFFFFF AND EQ PUSH2 0xBB5 JUMPI PUSH1 0x40 MLOAD PUSH32 0x8C379A000000000000000000000000000000000000000000000000000000000 DUP2 MSTORE PUSH1 0x4 ADD PUSH2 0xBAC SWAP1 PUSH2 0x3E89 JUMP JUMPDEST PUSH1 0x40 MLOAD DUP1 SWAP2 SUB SWAP1 REVERT JUMPDEST PUSH1 0x40 MLOAD DUP1 PUSH1 0x40 ADD PUSH1 0x40 MSTORE DUP1 PUSH1 0x11 DUP2 MSTORE PUSH1 0x20 ADD PUSH32 0x6368616E67655365636F6E6441646D696E000000000000000000000000000000 DUP2 MSTORE POP DUP1 MLOAD SWAP1 PUSH1 0x20 ADD KECCAK256 DUP3 DUP1 MLOAD SWAP1 PUSH1 0x20 ADD KECCAK256 EQ PUSH2 0xC3A JUMPI PUSH1 0x40 MLOAD PUSH32 0x8C379A000000000000000000000000000000000000000000000000000000000 DUP2 MSTORE PUSH1 0x4 ADD PUSH2 0xC31 SWAP1 PUSH2 0x3F1B JUMP JUMPDEST PUSH1 0x40 MLOAD DUP1 SWAP2 SUB SWAP1 REVERT JUMPDEST DUP1 PUSH1 0xA DUP4 PUSH1 0x40 MLOAD PUSH2 0xC4B SWAP2 SWAP1 PUSH2 0x3F77 JUMP JUMPDEST SWAP1 DUP2 MSTORE PUSH1 0x20 ADD PUSH1 0x40 MLOAD DUP1 SWAP2 SUB SWAP1 KECCAK256 PUSH1 0x0 PUSH2 0x100 EXP DUP2 SLOAD DUP2 PUSH1 0xFF MUL NOT AND SWAP1 DUP4 ISZERO ISZERO MUL OR SWAP1 SSTORE POP POP POP JUMP JUMPDEST PUSH1 0x3 PUSH1 0x20 MSTORE DUP1 PUSH1 0x0 MSTORE PUSH1 0x40 PUSH1 0x0 KECCAK256 PUSH1 0x0 SWAP2 POP SWAP1 POP SLOAD DUP2 JUMP JUMPDEST PUSH1 0x7 PUSH1 0x0 SWAP1 SLOAD SWAP1 PUSH2 0x100 EXP SWAP1 DIV PUSH20 0xFFFFFFFFFFFFFFFFFFFFFFFFFFFFFFFFFFFFFFFF AND DUP2 JUMP JUMPDEST PUSH1 0x6 PUSH1 0x0 SWAP1 SLOAD SWAP1 PUSH2 0x100 EXP SWAP1 DIV PUSH20 0xFFFFFFFFFFFFFFFFFFFFFFFFFFFFFFFFFFFFFFFF AND PUSH20 0xFFFFFFFFFFFFFFFFFFFFFFFFFFFFFFFFFFFFFFFF AND CALLER PUSH20 0xFFFFFFFFFFFFFFFFFFFFFFFFFFFFFFFFFFFFFFFF AND EQ PUSH2 0xD42 JUMPI PUSH1 0x40 MLOAD PUSH32 0x8C379A000000000000000000000000000000000000000000000000000000000 DUP2 MSTORE PUSH1 0x4 ADD PUSH2 0xD39 SWAP1 PUSH2 0x3E89 JUMP JUMPDEST PUSH1 0x40 MLOAD DUP1 SWAP2 SUB SWAP1 REVERT JUMPDEST PUSH1 0x40 MLOAD DUP1 PUSH1 0x40 ADD PUSH1 0x40 MSTORE DUP1 PUSH1 0xD DUP2 MSTORE PUSH1 0x20 ADD PUSH32 0x72656A656374456C656D656E7400000000000000000000000000000000000000 DUP2 MSTORE POP PUSH1 0xA DUP2 PUSH1 0x40 MLOAD PUSH2 0xD88 SWAP2 SWAP1 PUSH2 0x3F77 JUMP JUMPDEST SWAP1 DUP2 MSTORE PUSH1 0x20 ADD PUSH1 0x40 MLOAD DUP1 SWAP2 SUB SWAP1 KECCAK256 PUSH1 0x0 SWAP1 SLOAD SWAP1 PUSH2 0x100 EXP SWAP1 DIV PUSH1 0xFF AND PUSH2 0xDE3 JUMPI PUSH1 0x40 MLOAD PUSH32 0x8C379A000000000000000000000000000000000000000000000000000000000 DUP2 MSTORE PUSH1 0x4 ADD PUSH2 0xDDA SWAP1 PUSH2 0x3FDA JUMP JUMPDEST PUSH1 0x40 MLOAD DUP1 SWAP2 SUB SWAP1 REVERT JUMPDEST PUSH1 0x0 PUSH1 0x4 PUSH1 0x0 DUP5 DUP2 MSTORE PUSH1 0x20 ADD SWAP1 DUP2 MSTORE PUSH1 0x20 ADD PUSH1 0x0 KECCAK256 PUSH1 0x9 ADD SLOAD EQ PUSH2 0xE3C JUMPI PUSH1 0x40 MLOAD PUSH32 0x8C379A000000000000000000000000000000000000000000000000000000000 DUP2 MSTORE PUSH1 0x4 ADD PUSH2 0xE33 SWAP1 PUSH2 0x4046 JUMP JUMPDEST PUSH1 0x40 MLOAD DUP1 SWAP2 SUB SWAP1 REVERT JUMPDEST PUSH1 0x5 PUSH1 0x4 PUSH1 0x0 DUP5 DUP2 MSTORE PUSH1 0x20 ADD SWAP1 DUP2 MSTORE PUSH1 0x20 ADD PUSH1 0x0 KECCAK256 PUSH1 0x9 ADD DUP2 SWAP1 SSTORE POP POP POP JUMP JUMPDEST PUSH1 0x0 DUP1 DUP3 TIMESTAMP PUSH2 0xE6B SWAP2 SWAP1 PUSH2 0x4066 JUMP JUMPDEST SWAP1 POP PUSH1 0x0 PUSH2 0xE78 DUP3 PUSH2 0x2F7A JUMP JUMPDEST SWAP1 POP PUSH1 0x0 PUSH1 0xC PUSH1 0x64 DUP4 DUP9 PUSH2 0xE8C SWAP2 SWAP1 PUSH2 0x409A JUMP JUMPDEST PUSH2 0xE96 SWAP2 SWAP1 PUSH2 0x410B JUMP JUMPDEST PUSH2 0xEA0 SWAP2 SWAP1 PUSH2 0x410B JUMP JUMPDEST SWAP1 POP DUP1 SWAP4 POP POP POP POP SWAP3 SWAP2 POP POP JUMP JUMPDEST DUP1 PUSH1 0x0 DUP1 CALLER PUSH20 0xFFFFFFFFFFFFFFFFFFFFFFFFFFFFFFFFFFFFFFFF AND PUSH20 0xFFFFFFFFFFFFFFFFFFFFFFFFFFFFFFFFFFFFFFFF AND DUP2 MSTORE PUSH1 0x20 ADD SWAP1 DUP2 MSTORE PUSH1 0x20 ADD PUSH1 0x0 KECCAK256 SLOAD LT ISZERO PUSH2 0xF2F JUMPI PUSH1 0x40 MLOAD PUSH32 0x8C379A000000000000000000000000000000000000000000000000000000000 DUP2 MSTORE PUSH1 0x4 ADD PUSH2 0xF26 SWAP1 PUSH2 0x4188 JUMP JUMPDEST PUSH1 0x40 MLOAD DUP1 SWAP2 SUB SWAP1 REVERT JUMPDEST DUP1 PUSH1 0x0 DUP1 CALLER PUSH20 0xFFFFFFFFFFFFFFFFFFFFFFFFFFFFFFFFFFFFFFFF AND PUSH20 0xFFFFFFFFFFFFFFFFFFFFFFFFFFFFFFFFFFFFFFFF AND DUP2 MSTORE PUSH1 0x20 ADD SWAP1 DUP2 MSTORE PUSH1 0x20 ADD PUSH1 0x0 KECCAK256 PUSH1 0x0 DUP3 DUP3 SLOAD PUSH2 0xF7D SWAP2 SWAP1 PUSH2 0x4066 JUMP JUMPDEST SWAP3 POP POP DUP2 SWAP1 SSTORE POP TIMESTAMP PUSH1 0x2 PUSH1 0x0 CALLER PUSH20 0xFFFFFFFFFFFFFFFFFFFFFFFFFFFFFFFFFFFFFFFF AND PUSH20 0xFFFFFFFFFFFFFFFFFFFFFFFFFFFFFFFFFFFFFFFF AND DUP2 MSTORE PUSH1 0x20 ADD SWAP1 DUP2 MSTORE PUSH1 0x20 ADD PUSH1 0x0 KECCAK256 DUP2 SWAP1 SSTORE POP PUSH1 0x9 PUSH1 0x0 SWAP1 SLOAD SWAP1 PUSH2 0x100 EXP SWAP1 DIV PUSH20 0xFFFFFFFFFFFFFFFFFFFFFFFFFFFFFFFFFFFFFFFF AND PUSH20 0xFFFFFFFFFFFFFFFFFFFFFFFFFFFFFFFFFFFFFFFF AND PUSH4 0xA9059CBB CALLER DUP4 PUSH1 0x40 MLOAD DUP4 PUSH4 0xFFFFFFFF AND PUSH1 0xE0 SHL DUP2 MSTORE PUSH1 0x4 ADD PUSH2 0x1025 SWAP3 SWAP2 SWAP1 PUSH2 0x41A8 JUMP JUMPDEST PUSH1 0x20 PUSH1 0x40 MLOAD DUP1 DUP4 SUB DUP2 PUSH1 0x0 DUP8 GAS CALL ISZERO DUP1 ISZERO PUSH2 0x1044 JUMPI RETURNDATASIZE PUSH1 0x0 DUP1 RETURNDATACOPY RETURNDATASIZE PUSH1 0x0 REVERT JUMPDEST POP POP POP POP PUSH1 0x40 MLOAD RETURNDATASIZE PUSH1 0x1F NOT PUSH1 0x1F DUP3 ADD AND DUP3 ADD DUP1 PUSH1 0x40 MSTORE POP DUP2 ADD SWAP1 PUSH2 0x1068 SWAP2 SWAP1 PUSH2 0x3A33 JUMP JUMPDEST PUSH2 0x10A7 JUMPI PUSH1 0x40 MLOAD PUSH32 0x8C379A000000000000000000000000000000000000000000000000000000000 DUP2 MSTORE PUSH1 0x4 ADD PUSH2 0x109E SWAP1 PUSH2 0x3AAC JUMP JUMPDEST PUSH1 0x40 MLOAD DUP1 SWAP2 SUB SWAP1 REVERT JUMPDEST POP JUMP JUMPDEST PUSH1 0xC PUSH2 0xE10 PUSH2 0x10B9 SWAP2 SWAP1 PUSH2 0x410B JUMP JUMPDEST DUP2 JUMP JUMPDEST PUSH1 0x7 PUSH1 0x0 SWAP1 SLOAD SWAP1 PUSH2 0x100 EXP SWAP1 DIV PUSH20 0xFFFFFFFFFFFFFFFFFFFFFFFFFFFFFFFFFFFFFFFF AND PUSH20 0xFFFFFFFFFFFFFFFFFFFFFFFFFFFFFFFFFFFFFFFF AND CALLER PUSH20 0xFFFFFFFFFFFFFFFFFFFFFFFFFFFFFFFFFFFFFFFF AND EQ PUSH2 0x114C JUMPI PUSH1 0x40 MLOAD PUSH32 0x8C379A000000000000000000000000000000000000000000000000000000000 DUP2 MSTORE PUSH1 0x4 ADD PUSH2 0x1143 SWAP1 PUSH2 0x4243 JUMP JUMPDEST PUSH1 0x40 MLOAD DUP1 SWAP2 SUB SWAP1 REVERT JUMPDEST PUSH1 0x40 MLOAD DUP1 PUSH1 0x40 ADD PUSH1 0x40 MSTORE DUP1 PUSH1 0x11 DUP2 MSTORE PUSH1 0x20 ADD PUSH32 0x6368616E67655365636F6E6441646D696E000000000000000000000000000000 DUP2 MSTORE POP DUP1 MLOAD SWAP1 PUSH1 0x20 ADD KECCAK256 DUP3 DUP1 MLOAD SWAP1 PUSH1 0x20 ADD KECCAK256 SUB PUSH2 0x11D1 JUMPI PUSH1 0x40 MLOAD PUSH32 0x8C379A000000000000000000000000000000000000000000000000000000000 DUP2 MSTORE PUSH1 0x4 ADD PUSH2 0x11C8 SWAP1 PUSH2 0x42D5 JUMP JUMPDEST PUSH1 0x40 MLOAD DUP1 SWAP2 SUB SWAP1 REVERT JUMPDEST DUP1 PUSH1 0xA DUP4 PUSH1 0x40 MLOAD PUSH2 0x11E2 SWAP2 SWAP1 PUSH2 0x3F77 JUMP JUMPDEST SWAP1 DUP2 MSTORE PUSH1 0x20 ADD PUSH1 0x40 MLOAD DUP1 SWAP2 SUB SWAP1 KECCAK256 PUSH1 0x0 PUSH2 0x100 EXP DUP2 SLOAD DUP2 PUSH1 0xFF MUL NOT AND SWAP1 DUP4 ISZERO ISZERO MUL OR SWAP1 SSTORE POP POP POP JUMP JUMPDEST PUSH1 0x6 PUSH1 0x0 SWAP1 SLOAD SWAP1 PUSH2 0x100 EXP SWAP1 DIV PUSH20 0xFFFFFFFFFFFFFFFFFFFFFFFFFFFFFFFFFFFFFFFF AND PUSH20 0xFFFFFFFFFFFFFFFFFFFFFFFFFFFFFFFFFFFFFFFF AND CALLER PUSH20 0xFFFFFFFFFFFFFFFFFFFFFFFFFFFFFFFFFFFFFFFF AND EQ PUSH2 0x129B JUMPI PUSH1 0x40 MLOAD PUSH32 0x8C379A000000000000000000000000000000000000000000000000000000000 DUP2 MSTORE PUSH1 0x4 ADD PUSH2 0x1292 SWAP1 PUSH2 0x3E89 JUMP JUMPDEST PUSH1 0x40 MLOAD DUP1 SWAP2 SUB SWAP1 REVERT JUMPDEST PUSH1 0x40 MLOAD DUP1 PUSH1 0x40 ADD PUSH1 0x40 MSTORE DUP1 PUSH1 0xC DUP2 MSTORE PUSH1 0x20 ADD PUSH32 0x7265667573655570646174650000000000000000000000000000000000000000 DUP2 MSTORE POP PUSH1 0xA DUP2 PUSH1 0x40 MLOAD PUSH2 0x12E1 SWAP2 SWAP1 PUSH2 0x3F77 JUMP JUMPDEST SWAP1 DUP2 MSTORE PUSH1 0x20 ADD PUSH1 0x40 MLOAD DUP1 SWAP2 SUB SWAP1 KECCAK256 PUSH1 0x0 SWAP1 SLOAD SWAP1 PUSH2 0x100 EXP SWAP1 DIV PUSH1 0xFF AND PUSH2 0x133C JUMPI PUSH1 0x40 MLOAD PUSH32 0x8C379A000000000000000000000000000000000000000000000000000000000 DUP2 MSTORE PUSH1 0x4 ADD PUSH2 0x1333 SWAP1 PUSH2 0x3FDA JUMP JUMPDEST PUSH1 0x40 MLOAD DUP1 SWAP2 SUB SWAP1 REVERT JUMPDEST PUSH1 0x4 DUP1 PUSH1 0x0 DUP5 DUP2 MSTORE PUSH1 0x20 ADD SWAP1 DUP2 MSTORE PUSH1 0x20 ADD PUSH1 0x0 KECCAK256 PUSH1 0x9 ADD SLOAD SUB PUSH2 0x1394 JUMPI PUSH1 0x40 MLOAD PUSH32 0x8C379A000000000000000000000000000000000000000000000000000000000 DUP2 MSTORE PUSH1 0x4 ADD PUSH2 0x138B SWAP1 PUSH2 0x4367 JUMP JUMPDEST PUSH1 0x40 MLOAD DUP1 SWAP2 SUB SWAP1 REVERT JUMPDEST PUSH1 0x1 PUSH1 0x4 PUSH1 0x0 DUP5 DUP2 MSTORE PUSH1 0x20 ADD SWAP1 DUP2 MSTORE PUSH1 0x20 ADD PUSH1 0x0 KECCAK256 PUSH1 0x9 ADD SLOAD SUB PUSH2 0x13EA JUMPI PUSH1 0x40 MLOAD DUP1 PUSH1 0x20 ADD PUSH1 0x40 MSTORE DUP1 PUSH1 0x0 DUP2 MSTORE POP PUSH1 0x4 PUSH1 0x0 DUP5 DUP2 MSTORE PUSH1 0x20 ADD SWAP1 DUP2 MSTORE PUSH1 0x20 ADD PUSH1 0x0 KECCAK256 PUSH1 0x3 ADD SWAP1 DUP2 PUSH2 0x13E4 SWAP2 SWAP1 PUSH2 0x3CCE JUMP JUMPDEST POP PUSH2 0x1494 JUMP JUMPDEST PUSH1 0x2 PUSH1 0x4 PUSH1 0x0 DUP5 DUP2 MSTORE PUSH1 0x20 ADD SWAP1 DUP2 MSTORE PUSH1 0x20 ADD PUSH1 0x0 KECCAK256 PUSH1 0x9 ADD SLOAD SUB PUSH2 0x1440 JUMPI PUSH1 0x40 MLOAD DUP1 PUSH1 0x20 ADD PUSH1 0x40 MSTORE DUP1 PUSH1 0x0 DUP2 MSTORE POP PUSH1 0x4 PUSH1 0x0 DUP5 DUP2 MSTORE PUSH1 0x20 ADD SWAP1 DUP2 MSTORE PUSH1 0x20 ADD PUSH1 0x0 KECCAK256 PUSH1 0x4 ADD SWAP1 DUP2 PUSH2 0x143A SWAP2 SWAP1 PUSH2 0x3CCE JUMP JUMPDEST POP PUSH2 0x1493 JUMP JUMPDEST PUSH1 0x3 PUSH1 0x4 PUSH1 0x0 DUP5 DUP2 MSTORE PUSH1 0x20 ADD SWAP1 DUP2 MSTORE PUSH1 0x20 ADD PUSH1 0x0 KECCAK256 PUSH1 0x9 ADD SLOAD SUB PUSH2 0x1492 JUMPI PUSH1 0x40 MLOAD DUP1 PUSH1 0x20 ADD PUSH1 0x40 MSTORE DUP1 PUSH1 0x0 DUP2 MSTORE POP PUSH1 0x4 PUSH1 0x0 DUP5 DUP2 MSTORE PUSH1 0x20 ADD SWAP1 DUP2 MSTORE PUSH1 0x20 ADD PUSH1 0x0 KECCAK256 PUSH1 0x5 ADD SWAP1 DUP2 PUSH2 0x1490 SWAP2 SWAP1 PUSH2 0x3CCE JUMP JUMPDEST POP JUMPDEST JUMPDEST JUMPDEST POP POP JUMP JUMPDEST PUSH1 0x6 PUSH1 0x0 SWAP1 SLOAD SWAP1 PUSH2 0x100 EXP SWAP1 DIV PUSH20 0xFFFFFFFFFFFFFFFFFFFFFFFFFFFFFFFFFFFFFFFF AND PUSH20 0xFFFFFFFFFFFFFFFFFFFFFFFFFFFFFFFFFFFFFFFF AND CALLER PUSH20 0xFFFFFFFFFFFFFFFFFFFFFFFFFFFFFFFFFFFFFFFF AND EQ PUSH2 0x1528 JUMPI PUSH1 0x40 MLOAD PUSH32 0x8C379A000000000000000000000000000000000000000000000000000000000 DUP2 MSTORE PUSH1 0x4 ADD PUSH2 0x151F SWAP1 PUSH2 0x3E89 JUMP JUMPDEST PUSH1 0x40 MLOAD DUP1 SWAP2 SUB SWAP1 REVERT JUMPDEST PUSH1 0x40 MLOAD DUP1 PUSH1 0x40 ADD PUSH1 0x40 MSTORE DUP1 PUSH1 0xD DUP2 MSTORE PUSH1 0x20 ADD PUSH32 0x636F6E6669726D55706461746500000000000000000000000000000000000000 DUP2 MSTORE POP PUSH1 0xA DUP2 PUSH1 0x40 MLOAD PUSH2 0x156E SWAP2 SWAP1 PUSH2 0x3F77 JUMP JUMPDEST SWAP1 DUP2 MSTORE PUSH1 0x20 ADD PUSH1 0x40 MLOAD DUP1 SWAP2 SUB SWAP1 KECCAK256 PUSH1 0x0 SWAP1 SLOAD SWAP1 PUSH2 0x100 EXP SWAP1 DIV PUSH1 0xFF AND PUSH2 0x15C9 JUMPI PUSH1 0x40 MLOAD PUSH32 0x8C379A000000000000000000000000000000000000000000000000000000000 DUP2 MSTORE PUSH1 0x4 ADD PUSH2 0x15C0 SWAP1 PUSH2 0x3FDA JUMP JUMPDEST PUSH1 0x40 MLOAD DUP1 SWAP2 SUB SWAP1 REVERT JUMPDEST PUSH1 0x4 DUP1 PUSH1 0x0 DUP5 DUP2 MSTORE PUSH1 0x20 ADD SWAP1 DUP2 MSTORE PUSH1 0x20 ADD PUSH1 0x0 KECCAK256 PUSH1 0x9 ADD SLOAD SUB PUSH2 0x1621 JUMPI PUSH1 0x40 MLOAD PUSH32 0x8C379A000000000000000000000000000000000000000000000000000000000 DUP2 MSTORE PUSH1 0x4 ADD PUSH2 0x1618 SWAP1 PUSH2 0x4367 JUMP JUMPDEST PUSH1 0x40 MLOAD DUP1 SWAP2 SUB SWAP1 REVERT JUMPDEST PUSH1 0x1 PUSH1 0x4 PUSH1 0x0 DUP5 DUP2 MSTORE PUSH1 0x20 ADD SWAP1 DUP2 MSTORE PUSH1 0x20 ADD PUSH1 0x0 KECCAK256 PUSH1 0x9 ADD SLOAD SUB PUSH2 0x1660 JUMPI PUSH1 0x2 PUSH1 0x4 PUSH1 0x0 DUP5 DUP2 MSTORE PUSH1 0x20 ADD SWAP1 DUP2 MSTORE PUSH1 0x20 ADD PUSH1 0x0 KECCAK256 PUSH1 0x9 ADD DUP2 SWAP1 SSTORE POP PUSH2 0x16DB JUMP JUMPDEST PUSH1 0x2 PUSH1 0x4 PUSH1 0x0 DUP5 DUP2 MSTORE PUSH1 0x20 ADD SWAP1 DUP2 MSTORE PUSH1 0x20 ADD PUSH1 0x0 KECCAK256 PUSH1 0x9 ADD SLOAD SUB PUSH2 0x169F JUMPI PUSH1 0x3 PUSH1 0x4 PUSH1 0x0 DUP5 DUP2 MSTORE PUSH1 0x20 ADD SWAP1 DUP2 MSTORE PUSH1 0x20 ADD PUSH1 0x0 KECCAK256 PUSH1 0x9 ADD DUP2 SWAP1 SSTORE POP PUSH2 0x16DA JUMP JUMPDEST PUSH1 0x3 PUSH1 0x4 PUSH1 0x0 DUP5 DUP2 MSTORE PUSH1 0x20 ADD SWAP1 DUP2 MSTORE PUSH1 0x20 ADD PUSH1 0x0 KECCAK256 PUSH1 0x9 ADD SLOAD SUB PUSH2 0x16D9 JUMPI PUSH1 0x4 DUP1 PUSH1 0x0 DUP5 DUP2 MSTORE PUSH1 0x20 ADD SWAP1 DUP2 MSTORE PUSH1 0x20 ADD PUSH1 0x0 KECCAK256 PUSH1 0x9 ADD DUP2 SWAP1 SSTORE POP JUMPDEST JUMPDEST JUMPDEST PUSH2 0x3E8 PUSH1 0x4 PUSH1 0x0 DUP5 DUP2 MSTORE PUSH1 0x20 ADD SWAP1 DUP2 MSTORE PUSH1 0x20 ADD PUSH1 0x0 KECCAK256 PUSH1 0xB ADD PUSH1 0x0 DUP3 DUP3 SLOAD PUSH2 0x1703 SWAP2 SWAP1 PUSH2 0x4387 JUMP JUMPDEST SWAP3 POP POP DUP2 SWAP1 SSTORE POP POP POP JUMP JUMPDEST PUSH2 0xE10 DUP2 JUMP JUMPDEST PUSH1 0x0 DUP1 PUSH1 0x0 DUP1 DUP5 PUSH20 0xFFFFFFFFFFFFFFFFFFFFFFFFFFFFFFFFFFFFFFFF AND PUSH20 0xFFFFFFFFFFFFFFFFFFFFFFFFFFFFFFFFFFFFFFFF AND DUP2 MSTORE PUSH1 0x20 ADD SWAP1 DUP2 MSTORE PUSH1 0x20 ADD PUSH1 0x0 KECCAK256 SLOAD SUB PUSH2 0x1764 JUMPI PUSH1 0x0 SWAP1 POP PUSH2 0x18FA JUMP JUMPDEST PUSH1 0x0 PUSH1 0x2 PUSH1 0x0 DUP5 PUSH20 0xFFFFFFFFFFFFFFFFFFFFFFFFFFFFFFFFFFFFFFFF AND PUSH20 0xFFFFFFFFFFFFFFFFFFFFFFFFFFFFFFFFFFFFFFFF AND DUP2 MSTORE PUSH1 0x20 ADD SWAP1 DUP2 MSTORE PUSH1 0x20 ADD PUSH1 0x0 KECCAK256 SLOAD TIMESTAMP PUSH2 0x17B1 SWAP2 SWAP1 PUSH2 0x4066 JUMP JUMPDEST SWAP1 POP PUSH1 0xC PUSH2 0xE10 PUSH2 0x17C2 SWAP2 SWAP1 PUSH2 0x410B JUMP JUMPDEST DUP2 LT ISZERO PUSH2 0x17D3 JUMPI PUSH1 0x0 SWAP2 POP POP PUSH2 0x18FA JUMP JUMPDEST PUSH1 0x0 DUP1 PUSH1 0xC PUSH2 0xE10 PUSH2 0x17E5 SWAP2 SWAP1 PUSH2 0x410B JUMP JUMPDEST DUP4 PUSH2 0x17F0 SWAP2 SWAP1 PUSH2 0x410B JUMP JUMPDEST SWAP1 POP PUSH1 0x0 JUMPDEST DUP2 DUP2 LT ISZERO PUSH2 0x18D4 JUMPI PUSH1 0x0 PUSH1 0xC PUSH2 0xE10 PUSH2 0x180E SWAP2 SWAP1 PUSH2 0x410B JUMP JUMPDEST DUP3 PUSH2 0x1819 SWAP2 SWAP1 PUSH2 0x409A JUMP JUMPDEST PUSH1 0x2 PUSH1 0x0 DUP10 PUSH20 0xFFFFFFFFFFFFFFFFFFFFFFFFFFFFFFFFFFFFFFFF AND PUSH20 0xFFFFFFFFFFFFFFFFFFFFFFFFFFFFFFFFFFFFFFFF AND DUP2 MSTORE PUSH1 0x20 ADD SWAP1 DUP2 MSTORE PUSH1 0x20 ADD PUSH1 0x0 KECCAK256 SLOAD PUSH2 0x1863 SWAP2 SWAP1 PUSH2 0x4387 JUMP JUMPDEST SWAP1 POP PUSH1 0x0 PUSH2 0x18AF PUSH1 0x0 DUP1 DUP11 PUSH20 0xFFFFFFFFFFFFFFFFFFFFFFFFFFFFFFFFFFFFFFFF AND PUSH20 0xFFFFFFFFFFFFFFFFFFFFFFFFFFFFFFFFFFFFFFFF AND DUP2 MSTORE PUSH1 0x20 ADD SWAP1 DUP2 MSTORE PUSH1 0x20 ADD PUSH1 0x0 KECCAK256 SLOAD DUP4 PUSH2 0xE5C JUMP JUMPDEST SWAP1 POP DUP1 DUP6 PUSH2 0x18BD SWAP2 SWAP1 PUSH2 0x4387 JUMP JUMPDEST SWAP5 POP POP POP DUP1 DUP1 PUSH2 0x18CC SWAP1 PUSH2 0x3DCF JUMP JUMPDEST SWAP2 POP POP PUSH2 0x17F5 JUMP JUMPDEST POP PUSH1 0x0 PUSH1 0x64 PUSH1 0x3C DUP5 PUSH2 0x18E6 SWAP2 SWAP1 PUSH2 0x409A JUMP JUMPDEST PUSH2 0x18F0 SWAP2 SWAP1 PUSH2 0x410B JUMP JUMPDEST SWAP1 POP DUP1 SWAP5 POP POP POP POP POP JUMPDEST SWAP2 SWAP1 POP JUMP JUMPDEST PUSH1 0xA DUP2 DUP1 MLOAD PUSH1 0x20 DUP2 ADD DUP3 ADD DUP1 MLOAD DUP5 DUP3 MSTORE PUSH1 0x20 DUP4 ADD PUSH1 0x20 DUP6 ADD KECCAK256 DUP2 DUP4 MSTORE DUP1 SWAP6 POP POP POP POP POP POP PUSH1 0x0 SWAP2 POP SLOAD SWAP1 PUSH2 0x100 EXP SWAP1 DIV PUSH1 0xFF AND DUP2 JUMP JUMPDEST PUSH1 0x5 SLOAD DUP2 JUMP JUMPDEST PUSH1 0x0 DUP1 PUSH1 0x0 SWAP1 POP JUMPDEST PUSH1 0x5 SLOAD DUP2 LT ISZERO PUSH2 0x1A08 JUMPI DUP3 PUSH20 0xFFFFFFFFFFFFFFFFFFFFFFFFFFFFFFFFFFFFFFFF AND PUSH1 0x4 PUSH1 0x0 DUP4 DUP2 MSTORE PUSH1 0x20 ADD SWAP1 DUP2 MSTORE PUSH1 0x20 ADD PUSH1 0x0 KECCAK256 PUSH1 0x8 ADD PUSH1 0x0 SWAP1 SLOAD SWAP1 PUSH2 0x100 EXP SWAP1 DIV PUSH20 0xFFFFFFFFFFFFFFFFFFFFFFFFFFFFFFFFFFFFFFFF AND PUSH20 0xFFFFFFFFFFFFFFFFFFFFFFFFFFFFFFFFFFFFFFFF AND EQ DUP1 ISZERO PUSH2 0x19E6 JUMPI POP PUSH1 0x0 PUSH1 0x5 DUP2 GT ISZERO PUSH2 0x19CD JUMPI PUSH2 0x19CC PUSH2 0x43BB JUMP JUMPDEST JUMPDEST PUSH1 0x4 PUSH1 0x0 DUP4 DUP2 MSTORE PUSH1 0x20 ADD SWAP1 DUP2 MSTORE PUSH1 0x20 ADD PUSH1 0x0 KECCAK256 PUSH1 0x9 ADD SLOAD EQ JUMPDEST ISZERO PUSH2 0x19F5 JUMPI PUSH1 0x1 SWAP2 POP POP PUSH2 0x1A0E JUMP JUMPDEST DUP1 DUP1 PUSH2 0x1A00 SWAP1 PUSH2 0x3DCF JUMP JUMPDEST SWAP2 POP POP PUSH2 0x1943 JUMP JUMPDEST POP PUSH1 0x0 SWAP1 POP JUMPDEST SWAP2 SWAP1 POP JUMP JUMPDEST PUSH1 0x0 PUSH1 0x1 PUSH1 0x0 CALLER PUSH20 0xFFFFFFFFFFFFFFFFFFFFFFFFFFFFFFFFFFFFFFFF AND PUSH20 0xFFFFFFFFFFFFFFFFFFFFFFFFFFFFFFFFFFFFFFFF AND DUP2 MSTORE PUSH1 0x20 ADD SWAP1 DUP2 MSTORE PUSH1 0x20 ADD PUSH1 0x0 KECCAK256 SLOAD GT PUSH2 0x1A95 JUMPI PUSH1 0x40 MLOAD PUSH32 0x8C379A000000000000000000000000000000000000000000000000000000000 DUP2 MSTORE PUSH1 0x4 ADD PUSH2 0x1A8C SWAP1 PUSH2 0x4436 JUMP JUMPDEST PUSH1 0x40 MLOAD DUP1 SWAP2 SUB SWAP1 REVERT JUMPDEST DUP1 PUSH1 0x1 PUSH1 0x0 CALLER PUSH20 0xFFFFFFFFFFFFFFFFFFFFFFFFFFFFFFFFFFFFFFFF AND PUSH20 0xFFFFFFFFFFFFFFFFFFFFFFFFFFFFFFFFFFFFFFFF AND DUP2 MSTORE PUSH1 0x20 ADD SWAP1 DUP2 MSTORE PUSH1 0x20 ADD PUSH1 0x0 KECCAK256 PUSH1 0x0 DUP3 DUP3 SLOAD PUSH2 0x1AE4 SWAP2 SWAP1 PUSH2 0x4066 JUMP JUMPDEST SWAP3 POP POP DUP2 SWAP1 SSTORE POP DUP1 PUSH1 0x4 PUSH1 0x0 DUP5 DUP2 MSTORE PUSH1 0x20 ADD SWAP1 DUP2 MSTORE PUSH1 0x20 ADD PUSH1 0x0 KECCAK256 PUSH1 0xB ADD PUSH1 0x0 DUP3 DUP3 SLOAD PUSH2 0x1B11 SWAP2 SWAP1 PUSH2 0x4387 JUMP JUMPDEST SWAP3 POP POP DUP2 SWAP1 SSTORE POP POP POP JUMP JUMPDEST PUSH4 0x3B9ACA00 DUP2 LT ISZERO PUSH2 0x1B63 JUMPI PUSH1 0x40 MLOAD PUSH32 0x8C379A000000000000000000000000000000000000000000000000000000000 DUP2 MSTORE PUSH1 0x4 ADD PUSH2 0x1B5A SWAP1 PUSH2 0x44A2 JUMP JUMPDEST PUSH1 0x40 MLOAD DUP1 SWAP2 SUB SWAP1 REVERT JUMPDEST PUSH1 0x9 PUSH1 0x0 SWAP1 SLOAD SWAP1 PUSH2 0x100 EXP SWAP1 DIV PUSH20 0xFFFFFFFFFFFFFFFFFFFFFFFFFFFFFFFFFFFFFFFF AND PUSH20 0xFFFFFFFFFFFFFFFFFFFFFFFFFFFFFFFFFFFFFFFF AND PUSH4 0x23B872DD CALLER ADDRESS DUP5 PUSH1 0x40 MLOAD DUP5 PUSH4 0xFFFFFFFF AND PUSH1 0xE0 SHL DUP2 MSTORE PUSH1 0x4 ADD PUSH2 0x1BC2 SWAP4 SWAP3 SWAP2 SWAP1 PUSH2 0x39E7 JUMP JUMPDEST PUSH1 0x20 PUSH1 0x40 MLOAD DUP1 DUP4 SUB DUP2 PUSH1 0x0 DUP8 GAS CALL ISZERO DUP1 ISZERO PUSH2 0x1BE1 JUMPI RETURNDATASIZE PUSH1 0x0 DUP1 RETURNDATACOPY RETURNDATASIZE PUSH1 0x0 REVERT JUMPDEST POP POP POP POP PUSH1 0x40 MLOAD RETURNDATASIZE PUSH1 0x1F NOT PUSH1 0x1F DUP3 ADD AND DUP3 ADD DUP1 PUSH1 0x40 MSTORE POP DUP2 ADD SWAP1 PUSH2 0x1C05 SWAP2 SWAP1 PUSH2 0x3A33 JUMP JUMPDEST PUSH2 0x1C44 JUMPI PUSH1 0x40 MLOAD PUSH32 0x8C379A000000000000000000000000000000000000000000000000000000000 DUP2 MSTORE PUSH1 0x4 ADD PUSH2 0x1C3B SWAP1 PUSH2 0x3AAC JUMP JUMPDEST PUSH1 0x40 MLOAD DUP1 SWAP2 SUB SWAP1 REVERT JUMPDEST DUP1 PUSH1 0x0 DUP1 CALLER PUSH20 0xFFFFFFFFFFFFFFFFFFFFFFFFFFFFFFFFFFFFFFFF AND PUSH20 0xFFFFFFFFFFFFFFFFFFFFFFFFFFFFFFFFFFFFFFFF AND DUP2 MSTORE PUSH1 0x20 ADD SWAP1 DUP2 MSTORE PUSH1 0x20 ADD PUSH1 0x0 KECCAK256 PUSH1 0x0 DUP3 DUP3 SLOAD PUSH2 0x1C92 SWAP2 SWAP1 PUSH2 0x4387 JUMP JUMPDEST SWAP3 POP POP DUP2 SWAP1 SSTORE POP PUSH1 0x0 PUSH1 0x2 PUSH1 0x0 CALLER PUSH20 0xFFFFFFFFFFFFFFFFFFFFFFFFFFFFFFFFFFFFFFFF AND PUSH20 0xFFFFFFFFFFFFFFFFFFFFFFFFFFFFFFFFFFFFFFFF AND DUP2 MSTORE PUSH1 0x20 ADD SWAP1 DUP2 MSTORE PUSH1 0x20 ADD PUSH1 0x0 KECCAK256 SLOAD SUB PUSH2 0x1D25 JUMPI TIMESTAMP PUSH1 0x3 PUSH1 0x0 CALLER PUSH20 0xFFFFFFFFFFFFFFFFFFFFFFFFFFFFFFFFFFFFFFFF AND PUSH20 0xFFFFFFFFFFFFFFFFFFFFFFFFFFFFFFFFFFFFFFFF AND DUP2 MSTORE PUSH1 0x20 ADD SWAP1 DUP2 MSTORE PUSH1 0x20 ADD PUSH1 0x0 KECCAK256 DUP2 SWAP1 SSTORE POP JUMPDEST TIMESTAMP PUSH1 0x2 PUSH1 0x0 CALLER PUSH20 0xFFFFFFFFFFFFFFFFFFFFFFFFFFFFFFFFFFFFFFFF AND PUSH20 0xFFFFFFFFFFFFFFFFFFFFFFFFFFFFFFFFFFFFFFFF AND DUP2 MSTORE PUSH1 0x20 ADD SWAP1 DUP2 MSTORE PUSH1 0x20 ADD PUSH1 0x0 KECCAK256 DUP2 SWAP1 SSTORE POP POP JUMP JUMPDEST PUSH4 0x3B9ACA00 DUP2 JUMP JUMPDEST PUSH1 0x8 PUSH1 0x0 SWAP1 SLOAD SWAP1 PUSH2 0x100 EXP SWAP1 DIV PUSH20 0xFFFFFFFFFFFFFFFFFFFFFFFFFFFFFFFFFFFFFFFF AND DUP2 JUMP JUMPDEST PUSH1 0x8 PUSH1 0x0 SWAP1 SLOAD SWAP1 PUSH2 0x100 EXP SWAP1 DIV PUSH20 0xFFFFFFFFFFFFFFFFFFFFFFFFFFFFFFFFFFFFFFFF AND PUSH20 0xFFFFFFFFFFFFFFFFFFFFFFFFFFFFFFFFFFFFFFFF AND CALLER PUSH20 0xFFFFFFFFFFFFFFFFFFFFFFFFFFFFFFFFFFFFFFFF AND EQ PUSH2 0x1E2A JUMPI PUSH1 0x40 MLOAD PUSH32 0x8C379A000000000000000000000000000000000000000000000000000000000 DUP2 MSTORE PUSH1 0x4 ADD PUSH2 0x1E21 SWAP1 PUSH2 0x4534 JUMP JUMPDEST PUSH1 0x40 MLOAD DUP1 SWAP2 SUB SWAP1 REVERT JUMPDEST PUSH1 0x40 MLOAD DUP1 PUSH1 0x40 ADD PUSH1 0x40 MSTORE DUP1 PUSH1 0xB DUP2 MSTORE PUSH1 0x20 ADD PUSH32 0x6368616E676541646D696E000000000000000000000000000000000000000000 DUP2 MSTORE POP PUSH1 0xA DUP2 PUSH1 0x40 MLOAD PUSH2 0x1E70 SWAP2 SWAP1 PUSH2 0x3F77 JUMP JUMPDEST SWAP1 DUP2 MSTORE PUSH1 0x20 ADD PUSH1 0x40 MLOAD DUP1 SWAP2 SUB SWAP1 KECCAK256 PUSH1 0x0 SWAP1 SLOAD SWAP1 PUSH2 0x100 EXP SWAP1 DIV PUSH1 0xFF AND PUSH2 0x1ECB JUMPI PUSH1 0x40 MLOAD PUSH32 0x8C379A000000000000000000000000000000000000000000000000000000000 DUP2 MSTORE PUSH1 0x4 ADD PUSH2 0x1EC2 SWAP1 PUSH2 0x3FDA JUMP JUMPDEST PUSH1 0x40 MLOAD DUP1 SWAP2 SUB SWAP1 REVERT JUMPDEST DUP2 PUSH1 0x6 PUSH1 0x0 PUSH2 0x100 EXP DUP2 SLOAD DUP2 PUSH20 0xFFFFFFFFFFFFFFFFFFFFFFFFFFFFFFFFFFFFFFFF MUL NOT AND SWAP1 DUP4 PUSH20 0xFFFFFFFFFFFFFFFFFFFFFFFFFFFFFFFFFFFFFFFF AND MUL OR SWAP1 SSTORE POP POP POP JUMP JUMPDEST PUSH1 0x6 PUSH1 0x0 SWAP1 SLOAD SWAP1 PUSH2 0x100 EXP SWAP1 DIV PUSH20 0xFFFFFFFFFFFFFFFFFFFFFFFFFFFFFFFFFFFFFFFF AND PUSH20 0xFFFFFFFFFFFFFFFFFFFFFFFFFFFFFFFFFFFFFFFF AND CALLER PUSH20 0xFFFFFFFFFFFFFFFFFFFFFFFFFFFFFFFFFFFFFFFF AND EQ PUSH2 0x1FA0 JUMPI PUSH1 0x40 MLOAD PUSH32 0x8C379A000000000000000000000000000000000000000000000000000000000 DUP2 MSTORE PUSH1 0x4 ADD PUSH2 0x1F97 SWAP1 PUSH2 0x3E89 JUMP JUMPDEST PUSH1 0x40 MLOAD DUP1 SWAP2 SUB SWAP1 REVERT JUMPDEST PUSH1 0x40 MLOAD DUP1 PUSH1 0x40 ADD PUSH1 0x40 MSTORE DUP1 PUSH1 0xD DUP2 MSTORE PUSH1 0x20 ADD PUSH32 0x72656D6F7665456C656D656E7400000000000000000000000000000000000000 DUP2 MSTORE POP PUSH1 0xA DUP2 PUSH1 0x40 MLOAD PUSH2 0x1FE6 SWAP2 SWAP1 PUSH2 0x3F77 JUMP JUMPDEST SWAP1 DUP2 MSTORE PUSH1 0x20 ADD PUSH1 0x40 MLOAD DUP1 SWAP2 SUB SWAP1 KECCAK256 PUSH1 0x0 SWAP1 SLOAD SWAP1 PUSH2 0x100 EXP SWAP1 DIV PUSH1 0xFF AND PUSH2 0x2041 JUMPI PUSH1 0x40 MLOAD PUSH32 0x8C379A000000000000000000000000000000000000000000000000000000000 DUP2 MSTORE PUSH1 0x4 ADD PUSH2 0x2038 SWAP1 PUSH2 0x3FDA JUMP JUMPDEST PUSH1 0x40 MLOAD DUP1 SWAP2 SUB SWAP1 REVERT JUMPDEST PUSH1 0x5 PUSH1 0x4 PUSH1 0x0 DUP5 DUP2 MSTORE PUSH1 0x20 ADD SWAP1 DUP2 MSTORE PUSH1 0x20 ADD PUSH1 0x0 KECCAK256 PUSH1 0x9 ADD DUP2 SWAP1 SSTORE POP POP POP JUMP JUMPDEST CALLER PUSH20 0xFFFFFFFFFFFFFFFFFFFFFFFFFFFFFFFFFFFFFFFF AND PUSH1 0x4 PUSH1 0x0 DUP5 DUP2 MSTORE PUSH1 0x20 ADD SWAP1 DUP2 MSTORE PUSH1 0x20 ADD PUSH1 0x0 KECCAK256 PUSH1 0x8 ADD PUSH1 0x0 SWAP1 SLOAD SWAP1 PUSH2 0x100 EXP SWAP1 DIV PUSH20 0xFFFFFFFFFFFFFFFFFFFFFFFFFFFFFFFFFFFFFFFF AND PUSH20 0xFFFFFFFFFFFFFFFFFFFFFFFFFFFFFFFFFFFFFFFF AND EQ PUSH2 0x2105 JUMPI PUSH1 0x40 MLOAD PUSH32 0x8C379A000000000000000000000000000000000000000000000000000000000 DUP2 MSTORE PUSH1 0x4 ADD PUSH2 0x20FC SWAP1 PUSH2 0x45A0 JUMP JUMPDEST PUSH1 0x40 MLOAD DUP1 SWAP2 SUB SWAP1 REVERT JUMPDEST DUP1 PUSH1 0x4 PUSH1 0x0 DUP5 DUP2 MSTORE PUSH1 0x20 ADD SWAP1 DUP2 MSTORE PUSH1 0x20 ADD PUSH1 0x0 KECCAK256 PUSH1 0x4 ADD SWAP1 DUP2 PUSH2 0x2128 SWAP2 SWAP1 PUSH2 0x3CCE JUMP JUMPDEST POP TIMESTAMP PUSH1 0x4 PUSH1 0x0 DUP5 DUP2 MSTORE PUSH1 0x20 ADD SWAP1 DUP2 MSTORE PUSH1 0x20 ADD PUSH1 0x0 KECCAK256 PUSH1 0xA ADD DUP2 SWAP1 SSTORE POP POP POP JUMP JUMPDEST CALLER PUSH20 0xFFFFFFFFFFFFFFFFFFFFFFFFFFFFFFFFFFFFFFFF AND PUSH1 0x4 PUSH1 0x0 DUP5 DUP2 MSTORE PUSH1 0x20 ADD SWAP1 DUP2 MSTORE PUSH1 0x20 ADD PUSH1 0x0 KECCAK256 PUSH1 0x8 ADD PUSH1 0x0 SWAP1 SLOAD SWAP1 PUSH2 0x100 EXP SWAP1 DIV PUSH20 0xFFFFFFFFFFFFFFFFFFFFFFFFFFFFFFFFFFFFFFFF AND PUSH20 0xFFFFFFFFFFFFFFFFFFFFFFFFFFFFFFFFFFFFFFFF AND EQ PUSH2 0x21EC JUMPI PUSH1 0x40 MLOAD PUSH32 0x8C379A000000000000000000000000000000000000000000000000000000000 DUP2 MSTORE PUSH1 0x4 ADD PUSH2 0x21E3 SWAP1 PUSH2 0x45A0 JUMP JUMPDEST PUSH1 0x40 MLOAD DUP1 SWAP2 SUB SWAP1 REVERT JUMPDEST DUP1 PUSH1 0x4 PUSH1 0x0 DUP5 DUP2 MSTORE PUSH1 0x20 ADD SWAP1 DUP2 MSTORE PUSH1 0x20 ADD PUSH1 0x0 KECCAK256 PUSH1 0x3 ADD SWAP1 DUP2 PUSH2 0x220F SWAP2 SWAP1 PUSH2 0x3CCE JUMP JUMPDEST POP TIMESTAMP PUSH1 0x4 PUSH1 0x0 DUP5 DUP2 MSTORE PUSH1 0x20 ADD SWAP1 DUP2 MSTORE PUSH1 0x20 ADD PUSH1 0x0 KECCAK256 PUSH1 0xA ADD DUP2 SWAP1 SSTORE POP POP POP JUMP JUMPDEST PUSH1 0x1 PUSH1 0x20 MSTORE DUP1 PUSH1 0x0 MSTORE PUSH1 0x40 PUSH1 0x0 KECCAK256 PUSH1 0x0 SWAP2 POP SWAP1 POP SLOAD DUP2 JUMP JUMPDEST PUSH5 0x2540BE400 DUP2 JUMP JUMPDEST CALLER PUSH20 0xFFFFFFFFFFFFFFFFFFFFFFFFFFFFFFFFFFFFFFFF AND PUSH1 0x4 PUSH1 0x0 DUP5 DUP2 MSTORE PUSH1 0x20 ADD SWAP1 DUP2 MSTORE PUSH1 0x20 ADD PUSH1 0x0 KECCAK256 PUSH1 0x8 ADD PUSH1 0x0 SWAP1 SLOAD SWAP1 PUSH2 0x100 EXP SWAP1 DIV PUSH20 0xFFFFFFFFFFFFFFFFFFFFFFFFFFFFFFFFFFFFFFFF AND PUSH20 0xFFFFFFFFFFFFFFFFFFFFFFFFFFFFFFFFFFFFFFFF AND EQ PUSH2 0x22F4 JUMPI PUSH1 0x40 MLOAD PUSH32 0x8C379A000000000000000000000000000000000000000000000000000000000 DUP2 MSTORE PUSH1 0x4 ADD PUSH2 0x22EB SWAP1 PUSH2 0x45A0 JUMP JUMPDEST PUSH1 0x40 MLOAD DUP1 SWAP2 SUB SWAP1 REVERT JUMPDEST DUP1 PUSH1 0x4 PUSH1 0x0 DUP5 DUP2 MSTORE PUSH1 0x20 ADD SWAP1 DUP2 MSTORE PUSH1 0x20 ADD PUSH1 0x0 KECCAK256 PUSH1 0x5 ADD SWAP1 DUP2 PUSH2 0x2317 SWAP2 SWAP1 PUSH2 0x3CCE JUMP JUMPDEST POP TIMESTAMP PUSH1 0x4 PUSH1 0x0 DUP5 DUP2 MSTORE PUSH1 0x20 ADD SWAP1 DUP2 MSTORE PUSH1 0x20 ADD PUSH1 0x0 KECCAK256 PUSH1 0xA ADD DUP2 SWAP1 SSTORE POP POP POP JUMP JUMPDEST PUSH1 0x6 PUSH1 0x0 SWAP1 SLOAD SWAP1 PUSH2 0x100 EXP SWAP1 DIV PUSH20 0xFFFFFFFFFFFFFFFFFFFFFFFFFFFFFFFFFFFFFFFF AND PUSH20 0xFFFFFFFFFFFFFFFFFFFFFFFFFFFFFFFFFFFFFFFF AND CALLER PUSH20 0xFFFFFFFFFFFFFFFFFFFFFFFFFFFFFFFFFFFFFFFF AND EQ PUSH2 0x23C7 JUMPI PUSH1 0x40 MLOAD PUSH32 0x8C379A000000000000000000000000000000000000000000000000000000000 DUP2 MSTORE PUSH1 0x4 ADD PUSH2 0x23BE SWAP1 PUSH2 0x3E89 JUMP JUMPDEST PUSH1 0x40 MLOAD DUP1 SWAP2 SUB SWAP1 REVERT JUMPDEST PUSH1 0x40 MLOAD DUP1 PUSH1 0x40 ADD PUSH1 0x40 MSTORE DUP1 PUSH1 0xE DUP2 MSTORE PUSH1 0x20 ADD PUSH32 0x617070726F7665456C656D656E74000000000000000000000000000000000000 DUP2 MSTORE POP PUSH1 0xA DUP2 PUSH1 0x40 MLOAD PUSH2 0x240D SWAP2 SWAP1 PUSH2 0x3F77 JUMP JUMPDEST SWAP1 DUP2 MSTORE PUSH1 0x20 ADD PUSH1 0x40 MLOAD DUP1 SWAP2 SUB SWAP1 KECCAK256 PUSH1 0x0 SWAP1 SLOAD SWAP1 PUSH2 0x100 EXP SWAP1 DIV PUSH1 0xFF AND PUSH2 0x2468 JUMPI PUSH1 0x40 MLOAD PUSH32 0x8C379A000000000000000000000000000000000000000000000000000000000 DUP2 MSTORE PUSH1 0x4 ADD PUSH2 0x245F SWAP1 PUSH2 0x3FDA JUMP JUMPDEST PUSH1 0x40 MLOAD DUP1 SWAP2 SUB SWAP1 REVERT JUMPDEST PUSH1 0x0 PUSH1 0x4 PUSH1 0x0 DUP5 DUP2 MSTORE PUSH1 0x20 ADD SWAP1 DUP2 MSTORE PUSH1 0x20 ADD PUSH1 0x0 KECCAK256 PUSH1 0x9 ADD SLOAD EQ PUSH2 0x24C1 JUMPI PUSH1 0x40 MLOAD PUSH32 0x8C379A000000000000000000000000000000000000000000000000000000000 DUP2 MSTORE PUSH1 0x4 ADD PUSH2 0x24B8 SWAP1 PUSH2 0x4046 JUMP JUMPDEST PUSH1 0x40 MLOAD DUP1 SWAP2 SUB SWAP1 REVERT JUMPDEST PUSH1 0x1 PUSH1 0x4 PUSH1 0x0 DUP5 DUP2 MSTORE PUSH1 0x20 ADD SWAP1 DUP2 MSTORE PUSH1 0x20 ADD PUSH1 0x0 KECCAK256 PUSH1 0x9 ADD DUP2 SWAP1 SSTORE POP POP POP JUMP JUMPDEST PUSH1 0x0 PUSH1 0x2 PUSH1 0x0 DUP4 PUSH20 0xFFFFFFFFFFFFFFFFFFFFFFFFFFFFFFFFFFFFFFFF AND PUSH20 0xFFFFFFFFFFFFFFFFFFFFFFFFFFFFFFFFFFFFFFFF AND DUP2 MSTORE PUSH1 0x20 ADD SWAP1 DUP2 MSTORE PUSH1 0x20 ADD PUSH1 0x0 KECCAK256 SLOAD SWAP1 POP SWAP2 SWAP1 POP JUMP JUMPDEST PUSH1 0x0 DUP1 PUSH1 0x0 CALLER PUSH20 0xFFFFFFFFFFFFFFFFFFFFFFFFFFFFFFFFFFFFFFFF AND PUSH20 0xFFFFFFFFFFFFFFFFFFFFFFFFFFFFFFFFFFFFFFFF AND DUP2 MSTORE PUSH1 0x20 ADD SWAP1 DUP2 MSTORE PUSH1 0x20 ADD PUSH1 0x0 KECCAK256 SLOAD GT PUSH2 0x25AB JUMPI PUSH1 0x40 MLOAD PUSH32 0x8C379A000000000000000000000000000000000000000000000000000000000 DUP2 MSTORE PUSH1 0x4 ADD PUSH2 0x25A2 SWAP1 PUSH2 0x460C JUMP JUMPDEST PUSH1 0x40 MLOAD DUP1 SWAP2 SUB SWAP1 REVERT JUMPDEST PUSH1 0x0 PUSH1 0x2 PUSH1 0x0 CALLER PUSH20 0xFFFFFFFFFFFFFFFFFFFFFFFFFFFFFFFFFFFFFFFF AND PUSH20 0xFFFFFFFFFFFFFFFFFFFFFFFFFFFFFFFFFFFFFFFF AND DUP2 MSTORE PUSH1 0x20 ADD SWAP1 DUP2 MSTORE PUSH1 0x20 ADD PUSH1 0x0 KECCAK256 SLOAD TIMESTAMP PUSH2 0x25F8 SWAP2 SWAP1 PUSH2 0x4066 JUMP JUMPDEST SWAP1 POP PUSH1 0xC PUSH2 0xE10 PUSH2 0x2609 SWAP2 SWAP1 PUSH2 0x410B JUMP JUMPDEST DUP2 LT ISZERO PUSH2 0x264B JUMPI PUSH1 0x40 MLOAD PUSH32 0x8C379A000000000000000000000000000000000000000000000000000000000 DUP2 MSTORE PUSH1 0x4 ADD PUSH2 0x2642 SWAP1 PUSH2 0x4678 JUMP JUMPDEST PUSH1 0x40 MLOAD DUP1 SWAP2 SUB SWAP1 REVERT JUMPDEST PUSH1 0x0 DUP1 PUSH1 0xC PUSH2 0xE10 PUSH2 0x265D SWAP2 SWAP1 PUSH2 0x410B JUMP JUMPDEST DUP4 PUSH2 0x2668 SWAP2 SWAP1 PUSH2 0x410B JUMP JUMPDEST SWAP1 POP PUSH1 0x0 JUMPDEST DUP2 DUP2 LT ISZERO PUSH2 0x274C JUMPI PUSH1 0x0 PUSH1 0xC PUSH2 0xE10 PUSH2 0x2686 SWAP2 SWAP1 PUSH2 0x410B JUMP JUMPDEST DUP3 PUSH2 0x2691 SWAP2 SWAP1 PUSH2 0x409A JUMP JUMPDEST PUSH1 0x2 PUSH1 0x0 CALLER PUSH20 0xFFFFFFFFFFFFFFFFFFFFFFFFFFFFFFFFFFFFFFFF AND PUSH20 0xFFFFFFFFFFFFFFFFFFFFFFFFFFFFFFFFFFFFFFFF AND DUP2 MSTORE PUSH1 0x20 ADD SWAP1 DUP2 MSTORE PUSH1 0x20 ADD PUSH1 0x0 KECCAK256 SLOAD PUSH2 0x26DB SWAP2 SWAP1 PUSH2 0x4387 JUMP JUMPDEST SWAP1 POP PUSH1 0x0 PUSH2 0x2727 PUSH1 0x0 DUP1 CALLER PUSH20 0xFFFFFFFFFFFFFFFFFFFFFFFFFFFFFFFFFFFFFFFF AND PUSH20 0xFFFFFFFFFFFFFFFFFFFFFFFFFFFFFFFFFFFFFFFF AND DUP2 MSTORE PUSH1 0x20 ADD SWAP1 DUP2 MSTORE PUSH1 0x20 ADD PUSH1 0x0 KECCAK256 SLOAD DUP4 PUSH2 0xE5C JUMP JUMPDEST SWAP1 POP DUP1 DUP6 PUSH2 0x2735 SWAP2 SWAP1 PUSH2 0x4387 JUMP JUMPDEST SWAP5 POP POP POP DUP1 DUP1 PUSH2 0x2744 SWAP1 PUSH2 0x3DCF JUMP JUMPDEST SWAP2 POP POP PUSH2 0x266D JUMP JUMPDEST POP PUSH1 0x0 PUSH1 0x64 PUSH1 0x3C DUP5 PUSH2 0x275E SWAP2 SWAP1 PUSH2 0x409A JUMP JUMPDEST PUSH2 0x2768 SWAP2 SWAP1 PUSH2 0x410B JUMP JUMPDEST SWAP1 POP PUSH1 0x0 PUSH1 0x64 PUSH1 0x28 DUP6 PUSH2 0x277B SWAP2 SWAP1 PUSH2 0x409A JUMP JUMPDEST PUSH2 0x2785 SWAP2 SWAP1 PUSH2 0x410B JUMP JUMPDEST SWAP1 POP PUSH2 0x2790 DUP2 PUSH2 0x2FBC JUMP JUMPDEST PUSH3 0x989680 DUP3 PUSH2 0x279F SWAP2 SWAP1 PUSH2 0x410B JUMP JUMPDEST PUSH1 0x1 PUSH1 0x0 CALLER PUSH20 0xFFFFFFFFFFFFFFFFFFFFFFFFFFFFFFFFFFFFFFFF AND PUSH20 0xFFFFFFFFFFFFFFFFFFFFFFFFFFFFFFFFFFFFFFFF AND DUP2 MSTORE PUSH1 0x20 ADD SWAP1 DUP2 MSTORE PUSH1 0x20 ADD PUSH1 0x0 KECCAK256 PUSH1 0x0 DUP3 DUP3 SLOAD PUSH2 0x27ED SWAP2 SWAP1 PUSH2 0x4387 JUMP JUMPDEST SWAP3 POP POP DUP2 SWAP1 SSTORE POP TIMESTAMP PUSH1 0x2 PUSH1 0x0 CALLER PUSH20 0xFFFFFFFFFFFFFFFFFFFFFFFFFFFFFFFFFFFFFFFF AND PUSH20 0xFFFFFFFFFFFFFFFFFFFFFFFFFFFFFFFFFFFFFFFF AND DUP2 MSTORE PUSH1 0x20 ADD SWAP1 DUP2 MSTORE PUSH1 0x20 ADD PUSH1 0x0 KECCAK256 DUP2 SWAP1 SSTORE POP PUSH1 0x9 PUSH1 0x0 SWAP1 SLOAD SWAP1 PUSH2 0x100 EXP SWAP1 DIV PUSH20 0xFFFFFFFFFFFFFFFFFFFFFFFFFFFFFFFFFFFFFFFF AND PUSH20 0xFFFFFFFFFFFFFFFFFFFFFFFFFFFFFFFFFFFFFFFF AND PUSH4 0xA9059CBB CALLER DUP5 PUSH1 0x40 MLOAD DUP4 PUSH4 0xFFFFFFFF AND PUSH1 0xE0 SHL DUP2 MSTORE PUSH1 0x4 ADD PUSH2 0x2895 SWAP3 SWAP2 SWAP1 PUSH2 0x41A8 JUMP JUMPDEST PUSH1 0x20 PUSH1 0x40 MLOAD DUP1 DUP4 SUB DUP2 PUSH1 0x0 DUP8 GAS CALL ISZERO DUP1 ISZERO PUSH2 0x28B4 JUMPI RETURNDATASIZE PUSH1 0x0 DUP1 RETURNDATACOPY RETURNDATASIZE PUSH1 0x0 REVERT JUMPDEST POP POP POP POP PUSH1 0x40 MLOAD RETURNDATASIZE PUSH1 0x1F NOT PUSH1 0x1F DUP3 ADD AND DUP3 ADD DUP1 PUSH1 0x40 MSTORE POP DUP2 ADD SWAP1 PUSH2 0x28D8 SWAP2 SWAP1 PUSH2 0x3A33 JUMP JUMPDEST PUSH2 0x2917 JUMPI PUSH1 0x40 MLOAD PUSH32 0x8C379A000000000000000000000000000000000000000000000000000000000 DUP2 MSTORE PUSH1 0x4 ADD PUSH2 0x290E SWAP1 PUSH2 0x3AAC JUMP JUMPDEST PUSH1 0x40 MLOAD DUP1 SWAP2 SUB SWAP1 REVERT JUMPDEST POP POP POP POP POP JUMP JUMPDEST PUSH1 0x8 PUSH1 0x0 SWAP1 SLOAD SWAP1 PUSH2 0x100 EXP SWAP1 DIV PUSH20 0xFFFFFFFFFFFFFFFFFFFFFFFFFFFFFFFFFFFFFFFF AND PUSH20 0xFFFFFFFFFFFFFFFFFFFFFFFFFFFFFFFFFFFFFFFF AND CALLER PUSH20 0xFFFFFFFFFFFFFFFFFFFFFFFFFFFFFFFFFFFFFFFF AND EQ PUSH2 0x29AE JUMPI PUSH1 0x40 MLOAD PUSH32 0x8C379A000000000000000000000000000000000000000000000000000000000 DUP2 MSTORE PUSH1 0x4 ADD PUSH2 0x29A5 SWAP1 PUSH2 0x4534 JUMP JUMPDEST PUSH1 0x40 MLOAD DUP1 SWAP2 SUB SWAP1 REVERT JUMPDEST PUSH1 0x40 MLOAD DUP1 PUSH1 0x40 ADD PUSH1 0x40 MSTORE DUP1 PUSH1 0x11 DUP2 MSTORE PUSH1 0x20 ADD PUSH32 0x6368616E67655365636F6E6441646D696E000000000000000000000000000000 DUP2 MSTORE POP PUSH1 0xA DUP2 PUSH1 0x40 MLOAD PUSH2 0x29F4 SWAP2 SWAP1 PUSH2 0x3F77 JUMP JUMPDEST SWAP1 DUP2 MSTORE PUSH1 0x20 ADD PUSH1 0x40 MLOAD DUP1 SWAP2 SUB SWAP1 KECCAK256 PUSH1 0x0 SWAP1 SLOAD SWAP1 PUSH2 0x100 EXP SWAP1 DIV PUSH1 0xFF AND PUSH2 0x2A4F JUMPI PUSH1 0x40 MLOAD PUSH32 0x8C379A000000000000000000000000000000000000000000000000000000000 DUP2 MSTORE PUSH1 0x4 ADD PUSH2 0x2A46 SWAP1 PUSH2 0x3FDA JUMP JUMPDEST PUSH1 0x40 MLOAD DUP1 SWAP2 SUB SWAP1 REVERT JUMPDEST DUP2 PUSH1 0x7 PUSH1 0x0 PUSH2 0x100 EXP DUP2 SLOAD DUP2 PUSH20 0xFFFFFFFFFFFFFFFFFFFFFFFFFFFFFFFFFFFFFFFF MUL NOT AND SWAP1 DUP4 PUSH20 0xFFFFFFFFFFFFFFFFFFFFFFFFFFFFFFFFFFFFFFFF AND MUL OR SWAP1 SSTORE POP POP POP JUMP JUMPDEST PUSH1 0x4 PUSH1 0x20 MSTORE DUP1 PUSH1 0x0 MSTORE PUSH1 0x40 PUSH1 0x0 KECCAK256 PUSH1 0x0 SWAP2 POP SWAP1 POP DUP1 PUSH1 0x0 ADD DUP1 SLOAD PUSH2 0x2AB7 SWAP1 PUSH2 0x3AFB JUMP JUMPDEST DUP1 PUSH1 0x1F ADD PUSH1 0x20 DUP1 SWAP2 DIV MUL PUSH1 0x20 ADD PUSH1 0x40 MLOAD SWAP1 DUP2 ADD PUSH1 0x40 MSTORE DUP1 SWAP3 SWAP2 SWAP1 DUP2 DUP2 MSTORE PUSH1 0x20 ADD DUP3 DUP1 SLOAD PUSH2 0x2AE3 SWAP1 PUSH2 0x3AFB JUMP JUMPDEST DUP1 ISZERO PUSH2 0x2B30 JUMPI DUP1 PUSH1 0x1F LT PUSH2 0x2B05 JUMPI PUSH2 0x100 DUP1 DUP4 SLOAD DIV MUL DUP4 MSTORE SWAP2 PUSH1 0x20 ADD SWAP2 PUSH2 0x2B30 JUMP JUMPDEST DUP3 ADD SWAP2 SWAP1 PUSH1 0x0 MSTORE PUSH1 0x20 PUSH1 0x0 KECCAK256 SWAP1 JUMPDEST DUP2 SLOAD DUP2 MSTORE SWAP1 PUSH1 0x1 ADD SWAP1 PUSH1 0x20 ADD DUP1 DUP4 GT PUSH2 0x2B13 JUMPI DUP3 SWAP1 SUB PUSH1 0x1F AND DUP3 ADD SWAP2 JUMPDEST POP POP POP POP POP SWAP1 DUP1 PUSH1 0x1 ADD DUP1 SLOAD PUSH2 0x2B45 SWAP1 PUSH2 0x3AFB JUMP JUMPDEST DUP1 PUSH1 0x1F ADD PUSH1 0x20 DUP1 SWAP2 DIV MUL PUSH1 0x20 ADD PUSH1 0x40 MLOAD SWAP1 DUP2 ADD PUSH1 0x40 MSTORE DUP1 SWAP3 SWAP2 SWAP1 DUP2 DUP2 MSTORE PUSH1 0x20 ADD DUP3 DUP1 SLOAD PUSH2 0x2B71 SWAP1 PUSH2 0x3AFB JUMP JUMPDEST DUP1 ISZERO PUSH2 0x2BBE JUMPI DUP1 PUSH1 0x1F LT PUSH2 0x2B93 JUMPI PUSH2 0x100 DUP1 DUP4 SLOAD DIV MUL DUP4 MSTORE SWAP2 PUSH1 0x20 ADD SWAP2 PUSH2 0x2BBE JUMP JUMPDEST DUP3 ADD SWAP2 SWAP1 PUSH1 0x0 MSTORE PUSH1 0x20 PUSH1 0x0 KECCAK256 SWAP1 JUMPDEST DUP2 SLOAD DUP2 MSTORE SWAP1 PUSH1 0x1 ADD SWAP1 PUSH1 0x20 ADD DUP1 DUP4 GT PUSH2 0x2BA1 JUMPI DUP3 SWAP1 SUB PUSH1 0x1F AND DUP3 ADD SWAP2 JUMPDEST POP POP POP POP POP SWAP1 DUP1 PUSH1 0x2 ADD DUP1 SLOAD PUSH2 0x2BD3 SWAP1 PUSH2 0x3AFB JUMP JUMPDEST DUP1 PUSH1 0x1F ADD PUSH1 0x20 DUP1 SWAP2 DIV MUL PUSH1 0x20 ADD PUSH1 0x40 MLOAD SWAP1 DUP2 ADD PUSH1 0x40 MSTORE DUP1 SWAP3 SWAP2 SWAP1 DUP2 DUP2 MSTORE PUSH1 0x20 ADD DUP3 DUP1 SLOAD PUSH2 0x2BFF SWAP1 PUSH2 0x3AFB JUMP JUMPDEST DUP1 ISZERO PUSH2 0x2C4C JUMPI DUP1 PUSH1 0x1F LT PUSH2 0x2C21 JUMPI PUSH2 0x100 DUP1 DUP4 SLOAD DIV MUL DUP4 MSTORE SWAP2 PUSH1 0x20 ADD SWAP2 PUSH2 0x2C4C JUMP JUMPDEST DUP3 ADD SWAP2 SWAP1 PUSH1 0x0 MSTORE PUSH1 0x20 PUSH1 0x0 KECCAK256 SWAP1 JUMPDEST DUP2 SLOAD DUP2 MSTORE SWAP1 PUSH1 0x1 ADD SWAP1 PUSH1 0x20 ADD DUP1 DUP4 GT PUSH2 0x2C2F JUMPI DUP3 SWAP1 SUB PUSH1 0x1F AND DUP3 ADD SWAP2 JUMPDEST POP POP POP POP POP SWAP1 DUP1 PUSH1 0x3 ADD DUP1 SLOAD PUSH2 0x2C61 SWAP1 PUSH2 0x3AFB JUMP JUMPDEST DUP1 PUSH1 0x1F ADD PUSH1 0x20 DUP1 SWAP2 DIV MUL PUSH1 0x20 ADD PUSH1 0x40 MLOAD SWAP1 DUP2 ADD PUSH1 0x40 MSTORE DUP1 SWAP3 SWAP2 SWAP1 DUP2 DUP2 MSTORE PUSH1 0x20 ADD DUP3 DUP1 SLOAD PUSH2 0x2C8D SWAP1 PUSH2 0x3AFB JUMP JUMPDEST DUP1 ISZERO PUSH2 0x2CDA JUMPI DUP1 PUSH1 0x1F LT PUSH2 0x2CAF JUMPI PUSH2 0x100 DUP1 DUP4 SLOAD DIV MUL DUP4 MSTORE SWAP2 PUSH1 0x20 ADD SWAP2 PUSH2 0x2CDA JUMP JUMPDEST DUP3 ADD SWAP2 SWAP1 PUSH1 0x0 MSTORE PUSH1 0x20 PUSH1 0x0 KECCAK256 SWAP1 JUMPDEST DUP2 SLOAD DUP2 MSTORE SWAP1 PUSH1 0x1 ADD SWAP1 PUSH1 0x20 ADD DUP1 DUP4 GT PUSH2 0x2CBD JUMPI DUP3 SWAP1 SUB PUSH1 0x1F AND DUP3 ADD SWAP2 JUMPDEST POP POP POP POP POP SWAP1 DUP1 PUSH1 0x4 ADD DUP1 SLOAD PUSH2 0x2CEF SWAP1 PUSH2 0x3AFB JUMP JUMPDEST DUP1 PUSH1 0x1F ADD PUSH1 0x20 DUP1 SWAP2 DIV MUL PUSH1 0x20 ADD PUSH1 0x40 MLOAD SWAP1 DUP2 ADD PUSH1 0x40 MSTORE DUP1 SWAP3 SWAP2 SWAP1 DUP2 DUP2 MSTORE PUSH1 0x20 ADD DUP3 DUP1 SLOAD PUSH2 0x2D1B SWAP1 PUSH2 0x3AFB JUMP JUMPDEST DUP1 ISZERO PUSH2 0x2D68 JUMPI DUP1 PUSH1 0x1F LT PUSH2 0x2D3D JUMPI PUSH2 0x100 DUP1 DUP4 SLOAD DIV MUL DUP4 MSTORE SWAP2 PUSH1 0x20 ADD SWAP2 PUSH2 0x2D68 JUMP JUMPDEST DUP3 ADD SWAP2 SWAP1 PUSH1 0x0 MSTORE PUSH1 0x20 PUSH1 0x0 KECCAK256 SWAP1 JUMPDEST DUP2 SLOAD DUP2 MSTORE SWAP1 PUSH1 0x1 ADD SWAP1 PUSH1 0x20 ADD DUP1 DUP4 GT PUSH2 0x2D4B JUMPI DUP3 SWAP1 SUB PUSH1 0x1F AND DUP3 ADD SWAP2 JUMPDEST POP POP POP POP POP SWAP1 DUP1 PUSH1 0x5 ADD DUP1 SLOAD PUSH2 0x2D7D SWAP1 PUSH2 0x3AFB JUMP JUMPDEST DUP1 PUSH1 0x1F ADD PUSH1 0x20 DUP1 SWAP2 DIV MUL PUSH1 0x20 ADD PUSH1 0x40 MLOAD SWAP1 DUP2 ADD PUSH1 0x40 MSTORE DUP1 SWAP3 SWAP2 SWAP1 DUP2 DUP2 MSTORE PUSH1 0x20 ADD DUP3 DUP1 SLOAD PUSH2 0x2DA9 SWAP1 PUSH2 0x3AFB JUMP JUMPDEST DUP1 ISZERO PUSH2 0x2DF6 JUMPI DUP1 PUSH1 0x1F LT PUSH2 0x2DCB JUMPI PUSH2 0x100 DUP1 DUP4 SLOAD DIV MUL DUP4 MSTORE SWAP2 PUSH1 0x20 ADD SWAP2 PUSH2 0x2DF6 JUMP JUMPDEST DUP3 ADD SWAP2 SWAP1 PUSH1 0x0 MSTORE PUSH1 0x20 PUSH1 0x0 KECCAK256 SWAP1 JUMPDEST DUP2 SLOAD DUP2 MSTORE SWAP1 PUSH1 0x1 ADD SWAP1 PUSH1 0x20 ADD DUP1 DUP4 GT PUSH2 0x2DD9 JUMPI DUP3 SWAP1 SUB PUSH1 0x1F AND DUP3 ADD SWAP2 JUMPDEST POP POP POP POP POP SWAP1 DUP1 PUSH1 0x6 ADD DUP1 SLOAD PUSH2 0x2E0B SWAP1 PUSH2 0x3AFB JUMP JUMPDEST DUP1 PUSH1 0x1F ADD PUSH1 0x20 DUP1 SWAP2 DIV MUL PUSH1 0x20 ADD PUSH1 0x40 MLOAD SWAP1 DUP2 ADD PUSH1 0x40 MSTORE DUP1 SWAP3 SWAP2 SWAP1 DUP2 DUP2 MSTORE PUSH1 0x20 ADD DUP3 DUP1 SLOAD PUSH2 0x2E37 SWAP1 PUSH2 0x3AFB JUMP JUMPDEST DUP1 ISZERO PUSH2 0x2E84 JUMPI DUP1 PUSH1 0x1F LT PUSH2 0x2E59 JUMPI PUSH2 0x100 DUP1 DUP4 SLOAD DIV MUL DUP4 MSTORE SWAP2 PUSH1 0x20 ADD SWAP2 PUSH2 0x2E84 JUMP JUMPDEST DUP3 ADD SWAP2 SWAP1 PUSH1 0x0 MSTORE PUSH1 0x20 PUSH1 0x0 KECCAK256 SWAP1 JUMPDEST DUP2 SLOAD DUP2 MSTORE SWAP1 PUSH1 0x1 ADD SWAP1 PUSH1 0x20 ADD DUP1 DUP4 GT PUSH2 0x2E67 JUMPI DUP3 SWAP1 SUB PUSH1 0x1F AND DUP3 ADD SWAP2 JUMPDEST POP POP POP POP POP SWAP1 DUP1 PUSH1 0x7 ADD DUP1 SLOAD PUSH2 0x2E99 SWAP1 PUSH2 0x3AFB JUMP JUMPDEST DUP1 PUSH1 0x1F ADD PUSH1 0x20 DUP1 SWAP2 DIV MUL PUSH1 0x20 ADD PUSH1 0x40 MLOAD SWAP1 DUP2 ADD PUSH1 0x40 MSTORE DUP1 SWAP3 SWAP2 SWAP1 DUP2 DUP2 MSTORE PUSH1 0x20 ADD DUP3 DUP1 SLOAD PUSH2 0x2EC5 SWAP1 PUSH2 0x3AFB JUMP JUMPDEST DUP1 ISZERO PUSH2 0x2F12 JUMPI DUP1 PUSH1 0x1F LT PUSH2 0x2EE7 JUMPI PUSH2 0x100 DUP1 DUP4 SLOAD DIV MUL DUP4 MSTORE SWAP2 PUSH1 0x20 ADD SWAP2 PUSH2 0x2F12 JUMP JUMPDEST DUP3 ADD SWAP2 SWAP1 PUSH1 0x0 MSTORE PUSH1 0x20 PUSH1 0x0 KECCAK256 SWAP1 JUMPDEST DUP2 SLOAD DUP2 MSTORE SWAP1 PUSH1 0x1 ADD SWAP1 PUSH1 0x20 ADD DUP1 DUP4 GT PUSH2 0x2EF5 JUMPI DUP3 SWAP1 SUB PUSH1 0x1F AND DUP3 ADD SWAP2 JUMPDEST POP POP POP POP POP SWAP1 DUP1 PUSH1 0x8 ADD PUSH1 0x0 SWAP1 SLOAD SWAP1 PUSH2 0x100 EXP SWAP1 DIV PUSH20 0xFFFFFFFFFFFFFFFFFFFFFFFFFFFFFFFFFFFFFFFF AND SWAP1 DUP1 PUSH1 0x9 ADD SLOAD SWAP1 DUP1 PUSH1 0xA ADD SLOAD SWAP1 DUP1 PUSH1 0xB ADD SLOAD SWAP1 POP DUP13 JUMP JUMPDEST PUSH1 0x6 PUSH1 0x0 SWAP1 SLOAD SWAP1 PUSH2 0x100 EXP SWAP1 DIV PUSH20 0xFFFFFFFFFFFFFFFFFFFFFFFFFFFFFFFFFFFFFFFF AND DUP2 JUMP JUMPDEST PUSH1 0x0 DUP1 PUSH2 0xE10 DUP4 PUSH2 0x2F8B SWAP2 SWAP1 PUSH2 0x410B JUMP JUMPDEST SWAP1 POP PUSH1 0x3 DUP2 LT PUSH2 0x2F9F JUMPI PUSH1 0x3 SWAP2 POP POP PUSH2 0x2FB7 JUMP JUMPDEST PUSH1 0x2 DUP2 SUB PUSH2 0x2FB1 JUMPI PUSH1 0x2 SWAP2 POP POP PUSH2 0x2FB7 JUMP JUMPDEST PUSH1 0x1 SWAP2 POP POP JUMPDEST SWAP2 SWAP1 POP JUMP JUMPDEST PUSH1 0x0 PUSH2 0x2FC6 PUSH2 0x315F JUMP JUMPDEST SWAP1 POP PUSH1 0x0 DUP2 SUB PUSH2 0x2FD6 JUMPI POP PUSH2 0x315C JUMP JUMPDEST PUSH1 0x0 JUMPDEST PUSH1 0x5 SLOAD DUP2 LT ISZERO PUSH2 0x3159 JUMPI PUSH1 0x0 PUSH1 0x4 PUSH1 0x0 DUP4 DUP2 MSTORE PUSH1 0x20 ADD SWAP1 DUP2 MSTORE PUSH1 0x20 ADD PUSH1 0x0 KECCAK256 SWAP1 POP PUSH1 0x5 DUP1 DUP2 GT ISZERO PUSH2 0x300D JUMPI PUSH2 0x300C PUSH2 0x43BB JUMP JUMPDEST JUMPDEST DUP2 PUSH1 0x9 ADD SLOAD EQ PUSH2 0x3145 JUMPI PUSH1 0x0 DUP4 DUP6 DUP4 PUSH1 0xB ADD SLOAD PUSH2 0x302A SWAP2 SWAP1 PUSH2 0x409A JUMP JUMPDEST PUSH2 0x3034 SWAP2 SWAP1 PUSH2 0x410B JUMP JUMPDEST SWAP1 POP PUSH1 0x0 DUP2 GT ISZERO PUSH2 0x3143 JUMPI PUSH1 0x9 PUSH1 0x0 SWAP1 SLOAD SWAP1 PUSH2 0x100 EXP SWAP1 DIV PUSH20 0xFFFFFFFFFFFFFFFFFFFFFFFFFFFFFFFFFFFFFFFF AND PUSH20 0xFFFFFFFFFFFFFFFFFFFFFFFFFFFFFFFFFFFFFFFF AND PUSH4 0xA9059CBB DUP4 PUSH1 0x8 ADD PUSH1 0x0 SWAP1 SLOAD SWAP1 PUSH2 0x100 EXP SWAP1 DIV PUSH20 0xFFFFFFFFFFFFFFFFFFFFFFFFFFFFFFFFFFFFFFFF AND DUP4 PUSH1 0x40 MLOAD DUP4 PUSH4 0xFFFFFFFF AND PUSH1 0xE0 SHL DUP2 MSTORE PUSH1 0x4 ADD PUSH2 0x30C0 SWAP3 SWAP2 SWAP1 PUSH2 0x41A8 JUMP JUMPDEST PUSH1 0x20 PUSH1 0x40 MLOAD DUP1 DUP4 SUB DUP2 PUSH1 0x0 DUP8 GAS CALL ISZERO DUP1 ISZERO PUSH2 0x30DF JUMPI RETURNDATASIZE PUSH1 0x0 DUP1 RETURNDATACOPY RETURNDATASIZE PUSH1 0x0 REVERT JUMPDEST POP POP POP POP PUSH1 0x40 MLOAD RETURNDATASIZE PUSH1 0x1F NOT PUSH1 0x1F DUP3 ADD AND DUP3 ADD DUP1 PUSH1 0x40 MSTORE POP DUP2 ADD SWAP1 PUSH2 0x3103 SWAP2 SWAP1 PUSH2 0x3A33 JUMP JUMPDEST PUSH2 0x3142 JUMPI PUSH1 0x40 MLOAD PUSH32 0x8C379A000000000000000000000000000000000000000000000000000000000 DUP2 MSTORE PUSH1 0x4 ADD PUSH2 0x3139 SWAP1 PUSH2 0x46E4 JUMP JUMPDEST PUSH1 0x40 MLOAD DUP1 SWAP2 SUB SWAP1 REVERT JUMPDEST JUMPDEST POP JUMPDEST POP DUP1 DUP1 PUSH2 0x3151 SWAP1 PUSH2 0x3DCF JUMP JUMPDEST SWAP2 POP POP PUSH2 0x2FD9 JUMP JUMPDEST POP POP JUMPDEST POP JUMP JUMPDEST PUSH1 0x0 DUP1 PUSH1 0x0 SWAP1 POP PUSH1 0x0 JUMPDEST PUSH1 0x5 SLOAD DUP2 LT ISZERO PUSH2 0x31DA JUMPI PUSH1 0x5 DUP1 DUP2 GT ISZERO PUSH2 0x3186 JUMPI PUSH2 0x3185 PUSH2 0x43BB JUMP JUMPDEST JUMPDEST PUSH1 0x4 PUSH1 0x0 DUP4 DUP2 MSTORE PUSH1 0x20 ADD SWAP1 DUP2 MSTORE PUSH1 0x20 ADD PUSH1 0x0 KECCAK256 PUSH1 0x9 ADD SLOAD EQ PUSH2 0x31C7 JUMPI PUSH1 0x4 PUSH1 0x0 DUP3 DUP2 MSTORE PUSH1 0x20 ADD SWAP1 DUP2 MSTORE PUSH1 0x20 ADD PUSH1 0x0 KECCAK256 PUSH1 0xB ADD SLOAD DUP3 PUSH2 0x31C4 SWAP2 SWAP1 PUSH2 0x4387 JUMP JUMPDEST SWAP2 POP JUMPDEST DUP1 DUP1 PUSH2 0x31D2 SWAP1 PUSH2 0x3DCF JUMP JUMPDEST SWAP2 POP POP PUSH2 0x3169 JUMP JUMPDEST POP DUP1 SWAP2 POP POP SWAP1 JUMP JUMPDEST PUSH1 0x0 PUSH1 0x40 MLOAD SWAP1 POP SWAP1 JUMP JUMPDEST PUSH1 0x0 DUP1 REVERT JUMPDEST PUSH1 0x0 DUP1 REVERT JUMPDEST PUSH1 0x0 PUSH20 0xFFFFFFFFFFFFFFFFFFFFFFFFFFFFFFFFFFFFFFFF DUP3 AND SWAP1 POP SWAP2 SWAP1 POP JUMP JUMPDEST PUSH1 0x0 PUSH2 0x3221 DUP3 PUSH2 0x31F6 JUMP JUMPDEST SWAP1 POP SWAP2 SWAP1 POP JUMP JUMPDEST PUSH2 0x3231 DUP2 PUSH2 0x3216 JUMP JUMPDEST DUP2 EQ PUSH2 0x323C JUMPI PUSH1 0x0 DUP1 REVERT JUMPDEST POP JUMP JUMPDEST PUSH1 0x0 DUP2 CALLDATALOAD SWAP1 POP PUSH2 0x324E DUP2 PUSH2 0x3228 JUMP JUMPDEST SWAP3 SWAP2 POP POP JUMP JUMPDEST PUSH1 0x0 PUSH1 0x20 DUP3 DUP5 SUB SLT ISZERO PUSH2 0x326A JUMPI PUSH2 0x3269 PUSH2 0x31EC JUMP JUMPDEST JUMPDEST PUSH1 0x0 PUSH2 0x3278 DUP5 DUP3 DUP6 ADD PUSH2 0x323F JUMP JUMPDEST SWAP2 POP POP SWAP3 SWAP2 POP POP JUMP JUMPDEST PUSH1 0x0 DUP2 SWAP1 POP SWAP2 SWAP1 POP JUMP JUMPDEST PUSH2 0x3294 DUP2 PUSH2 0x3281 JUMP JUMPDEST DUP3 MSTORE POP POP JUMP JUMPDEST PUSH1 0x0 PUSH1 0x20 DUP3 ADD SWAP1 POP PUSH2 0x32AF PUSH1 0x0 DUP4 ADD DUP5 PUSH2 0x328B JUMP JUMPDEST SWAP3 SWAP2 POP POP JUMP JUMPDEST PUSH1 0x0 DUP1 REVERT JUMPDEST PUSH1 0x0 DUP1 REVERT JUMPDEST PUSH1 0x0 PUSH1 0x1F NOT PUSH1 0x1F DUP4 ADD AND SWAP1 POP SWAP2 SWAP1 POP JUMP JUMPDEST PUSH32 0x4E487B7100000000000000000000000000000000000000000000000000000000 PUSH1 0x0 MSTORE PUSH1 0x41 PUSH1 0x4 MSTORE PUSH1 0x24 PUSH1 0x0 REVERT JUMPDEST PUSH2 0x3308 DUP3 PUSH2 0x32BF JUMP JUMPDEST DUP2 ADD DUP2 DUP2 LT PUSH8 0xFFFFFFFFFFFFFFFF DUP3 GT OR ISZERO PUSH2 0x3327 JUMPI PUSH2 0x3326 PUSH2 0x32D0 JUMP JUMPDEST JUMPDEST DUP1 PUSH1 0x40 MSTORE POP POP POP JUMP JUMPDEST PUSH1 0x0 PUSH2 0x333A PUSH2 0x31E2 JUMP JUMPDEST SWAP1 POP PUSH2 0x3346 DUP3 DUP3 PUSH2 0x32FF JUMP JUMPDEST SWAP2 SWAP1 POP JUMP JUMPDEST PUSH1 0x0 PUSH8 0xFFFFFFFFFFFFFFFF DUP3 GT ISZERO PUSH2 0x3366 JUMPI PUSH2 0x3365 PUSH2 0x32D0 JUMP JUMPDEST JUMPDEST PUSH2 0x336F DUP3 PUSH2 0x32BF JUMP JUMPDEST SWAP1 POP PUSH1 0x20 DUP2 ADD SWAP1 POP SWAP2 SWAP1 POP JUMP JUMPDEST DUP3 DUP2 DUP4 CALLDATACOPY PUSH1 0x0 DUP4 DUP4 ADD MSTORE POP POP POP JUMP JUMPDEST PUSH1 0x0 PUSH2 0x339E PUSH2 0x3399 DUP5 PUSH2 0x334B JUMP JUMPDEST PUSH2 0x3330 JUMP JUMPDEST SWAP1 POP DUP3 DUP2 MSTORE PUSH1 0x20 DUP2 ADD DUP5 DUP5 DUP5 ADD GT ISZERO PUSH2 0x33BA JUMPI PUSH2 0x33B9 PUSH2 0x32BA JUMP JUMPDEST JUMPDEST PUSH2 0x33C5 DUP5 DUP3 DUP6 PUSH2 0x337C JUMP JUMPDEST POP SWAP4 SWAP3 POP POP POP JUMP JUMPDEST PUSH1 0x0 DUP3 PUSH1 0x1F DUP4 ADD SLT PUSH2 0x33E2 JUMPI PUSH2 0x33E1 PUSH2 0x32B5 JUMP JUMPDEST JUMPDEST DUP2 CALLDATALOAD PUSH2 0x33F2 DUP5 DUP3 PUSH1 0x20 DUP7 ADD PUSH2 0x338B JUMP JUMPDEST SWAP2 POP POP SWAP3 SWAP2 POP POP JUMP JUMPDEST PUSH1 0x0 DUP1 PUSH1 0x0 DUP1 PUSH1 0x0 PUSH1 0xA0 DUP7 DUP9 SUB SLT ISZERO PUSH2 0x3417 JUMPI PUSH2 0x3416 PUSH2 0x31EC JUMP JUMPDEST JUMPDEST PUSH1 0x0 DUP7 ADD CALLDATALOAD PUSH8 0xFFFFFFFFFFFFFFFF DUP2 GT ISZERO PUSH2 0x3435 JUMPI PUSH2 0x3434 PUSH2 0x31F1 JUMP JUMPDEST JUMPDEST PUSH2 0x3441 DUP9 DUP3 DUP10 ADD PUSH2 0x33CD JUMP JUMPDEST SWAP6 POP POP PUSH1 0x20 DUP7 ADD CALLDATALOAD PUSH8 0xFFFFFFFFFFFFFFFF DUP2 GT ISZERO PUSH2 0x3462 JUMPI PUSH2 0x3461 PUSH2 0x31F1 JUMP JUMPDEST JUMPDEST PUSH2 0x346E DUP9 DUP3 DUP10 ADD PUSH2 0x33CD JUMP JUMPDEST SWAP5 POP POP PUSH1 0x40 DUP7 ADD CALLDATALOAD PUSH8 0xFFFFFFFFFFFFFFFF DUP2 GT ISZERO PUSH2 0x348F JUMPI PUSH2 0x348E PUSH2 0x31F1 JUMP JUMPDEST JUMPDEST PUSH2 0x349B DUP9 DUP3 DUP10 ADD PUSH2 0x33CD JUMP JUMPDEST SWAP4 POP POP PUSH1 0x60 DUP7 ADD CALLDATALOAD PUSH8 0xFFFFFFFFFFFFFFFF DUP2 GT ISZERO PUSH2 0x34BC JUMPI PUSH2 0x34BB PUSH2 0x31F1 JUMP JUMPDEST JUMPDEST PUSH2 0x34C8 DUP9 DUP3 DUP10 ADD PUSH2 0x33CD JUMP JUMPDEST SWAP3 POP POP PUSH1 0x80 DUP7 ADD CALLDATALOAD PUSH8 0xFFFFFFFFFFFFFFFF DUP2 GT ISZERO PUSH2 0x34E9 JUMPI PUSH2 0x34E8 PUSH2 0x31F1 JUMP JUMPDEST JUMPDEST PUSH2 0x34F5 DUP9 DUP3 DUP10 ADD PUSH2 0x33CD JUMP JUMPDEST SWAP2 POP POP SWAP3 SWAP6 POP SWAP3 SWAP6 SWAP1 SWAP4 POP JUMP JUMPDEST PUSH1 0x0 DUP2 SWAP1 POP SWAP2 SWAP1 POP JUMP JUMPDEST PUSH1 0x0 PUSH2 0x3527 PUSH2 0x3522 PUSH2 0x351D DUP5 PUSH2 0x31F6 JUMP JUMPDEST PUSH2 0x3502 JUMP JUMPDEST PUSH2 0x31F6 JUMP JUMPDEST SWAP1 POP SWAP2 SWAP1 POP JUMP JUMPDEST PUSH1 0x0 PUSH2 0x3539 DUP3 PUSH2 0x350C JUMP JUMPDEST SWAP1 POP SWAP2 SWAP1 POP JUMP JUMPDEST PUSH1 0x0 PUSH2 0x354B DUP3 PUSH2 0x352E JUMP JUMPDEST SWAP1 POP SWAP2 SWAP1 POP JUMP JUMPDEST PUSH2 0x355B DUP2 PUSH2 0x3540 JUMP JUMPDEST DUP3 MSTORE POP POP JUMP JUMPDEST PUSH1 0x0 PUSH1 0x20 DUP3 ADD SWAP1 POP PUSH2 0x3576 PUSH1 0x0 DUP4 ADD DUP5 PUSH2 0x3552 JUMP JUMPDEST SWAP3 SWAP2 POP POP JUMP JUMPDEST PUSH1 0x0 DUP2 ISZERO ISZERO SWAP1 POP SWAP2 SWAP1 POP JUMP JUMPDEST PUSH2 0x3591 DUP2 PUSH2 0x357C JUMP JUMPDEST DUP2 EQ PUSH2 0x359C JUMPI PUSH1 0x0 DUP1 REVERT JUMPDEST POP JUMP JUMPDEST PUSH1 0x0 DUP2 CALLDATALOAD SWAP1 POP PUSH2 0x35AE DUP2 PUSH2 0x3588 JUMP JUMPDEST SWAP3 SWAP2 POP POP JUMP JUMPDEST PUSH1 0x0 DUP1 PUSH1 0x40 DUP4 DUP6 SUB SLT ISZERO PUSH2 0x35CB JUMPI PUSH2 0x35CA PUSH2 0x31EC JUMP JUMPDEST JUMPDEST PUSH1 0x0 DUP4 ADD CALLDATALOAD PUSH8 0xFFFFFFFFFFFFFFFF DUP2 GT ISZERO PUSH2 0x35E9 JUMPI PUSH2 0x35E8 PUSH2 0x31F1 JUMP JUMPDEST JUMPDEST PUSH2 0x35F5 DUP6 DUP3 DUP7 ADD PUSH2 0x33CD JUMP JUMPDEST SWAP3 POP POP PUSH1 0x20 PUSH2 0x3606 DUP6 DUP3 DUP7 ADD PUSH2 0x359F JUMP JUMPDEST SWAP2 POP POP SWAP3 POP SWAP3 SWAP1 POP JUMP JUMPDEST PUSH2 0x3619 DUP2 PUSH2 0x3216 JUMP JUMPDEST DUP3 MSTORE POP POP JUMP JUMPDEST PUSH1 0x0 PUSH1 0x20 DUP3 ADD SWAP1 POP PUSH2 0x3634 PUSH1 0x0 DUP4 ADD DUP5 PUSH2 0x3610 JUMP JUMPDEST SWAP3 SWAP2 POP POP JUMP JUMPDEST PUSH2 0x3643 DUP2 PUSH2 0x3281 JUMP JUMPDEST DUP2 EQ PUSH2 0x364E JUMPI PUSH1 0x0 DUP1 REVERT JUMPDEST POP JUMP JUMPDEST PUSH1 0x0 DUP2 CALLDATALOAD SWAP1 POP PUSH2 0x3660 DUP2 PUSH2 0x363A JUMP JUMPDEST SWAP3 SWAP2 POP POP JUMP JUMPDEST PUSH1 0x0 PUSH1 0x20 DUP3 DUP5 SUB SLT ISZERO PUSH2 0x367C JUMPI PUSH2 0x367B PUSH2 0x31EC JUMP JUMPDEST JUMPDEST PUSH1 0x0 PUSH2 0x368A DUP5 DUP3 DUP6 ADD PUSH2 0x3651 JUMP JUMPDEST SWAP2 POP POP SWAP3 SWAP2 POP POP JUMP JUMPDEST PUSH1 0x0 DUP1 PUSH1 0x40 DUP4 DUP6 SUB SLT ISZERO PUSH2 0x36AA JUMPI PUSH2 0x36A9 PUSH2 0x31EC JUMP JUMPDEST JUMPDEST PUSH1 0x0 PUSH2 0x36B8 DUP6 DUP3 DUP7 ADD PUSH2 0x3651 JUMP JUMPDEST SWAP3 POP POP PUSH1 0x20 PUSH2 0x36C9 DUP6 DUP3 DUP7 ADD PUSH2 0x3651 JUMP JUMPDEST SWAP2 POP POP SWAP3 POP SWAP3 SWAP1 POP JUMP JUMPDEST PUSH1 0x0 PUSH1 0x20 DUP3 DUP5 SUB SLT ISZERO PUSH2 0x36E9 JUMPI PUSH2 0x36E8 PUSH2 0x31EC JUMP JUMPDEST JUMPDEST PUSH1 0x0 DUP3 ADD CALLDATALOAD PUSH8 0xFFFFFFFFFFFFFFFF DUP2 GT ISZERO PUSH2 0x3707 JUMPI PUSH2 0x3706 PUSH2 0x31F1 JUMP JUMPDEST JUMPDEST PUSH2 0x3713 DUP5 DUP3 DUP6 ADD PUSH2 0x33CD JUMP JUMPDEST SWAP2 POP POP SWAP3 SWAP2 POP POP JUMP JUMPDEST PUSH2 0x3725 DUP2 PUSH2 0x357C JUMP JUMPDEST DUP3 MSTORE POP POP JUMP JUMPDEST PUSH1 0x0 PUSH1 0x20 DUP3 ADD SWAP1 POP PUSH2 0x3740 PUSH1 0x0 DUP4 ADD DUP5 PUSH2 0x371C JUMP JUMPDEST SWAP3 SWAP2 POP POP JUMP JUMPDEST PUSH1 0x0 DUP1 PUSH1 0x40 DUP4 DUP6 SUB SLT ISZERO PUSH2 0x375D JUMPI PUSH2 0x375C PUSH2 0x31EC JUMP JUMPDEST JUMPDEST PUSH1 0x0 PUSH2 0x376B DUP6 DUP3 DUP7 ADD PUSH2 0x3651 JUMP JUMPDEST SWAP3 POP POP PUSH1 0x20 DUP4 ADD CALLDATALOAD PUSH8 0xFFFFFFFFFFFFFFFF DUP2 GT ISZERO PUSH2 0x378C JUMPI PUSH2 0x378B PUSH2 0x31F1 JUMP JUMPDEST JUMPDEST PUSH2 0x3798 DUP6 DUP3 DUP7 ADD PUSH2 0x33CD JUMP JUMPDEST SWAP2 POP POP SWAP3 POP SWAP3 SWAP1 POP JUMP JUMPDEST PUSH1 0x0 DUP2 MLOAD SWAP1 POP SWAP2 SWAP1 POP JUMP JUMPDEST PUSH1 0x0 DUP3 DUP3 MSTORE PUSH1 0x20 DUP3 ADD SWAP1 POP SWAP3 SWAP2 POP POP JUMP JUMPDEST PUSH1 0x0 JUMPDEST DUP4 DUP2 LT ISZERO PUSH2 0x37DC JUMPI DUP1 DUP3 ADD MLOAD DUP2 DUP5 ADD MSTORE PUSH1 0x20 DUP2 ADD SWAP1 POP PUSH2 0x37C1 JUMP JUMPDEST PUSH1 0x0 DUP5 DUP5 ADD MSTORE POP POP POP POP JUMP JUMPDEST PUSH1 0x0 PUSH2 0x37F3 DUP3 PUSH2 0x37A2 JUMP JUMPDEST PUSH2 0x37FD DUP2 DUP6 PUSH2 0x37AD JUMP JUMPDEST SWAP4 POP PUSH2 0x380D DUP2 DUP6 PUSH1 0x20 DUP7 ADD PUSH2 0x37BE JUMP JUMPDEST PUSH2 0x3816 DUP2 PUSH2 0x32BF JUMP JUMPDEST DUP5 ADD SWAP2 POP POP SWAP3 SWAP2 POP POP JUMP JUMPDEST PUSH1 0x0 PUSH2 0x180 DUP3 ADD SWAP1 POP DUP2 DUP2 SUB PUSH1 0x0 DUP4 ADD MSTORE PUSH2 0x383C DUP2 DUP16 PUSH2 0x37E8 JUMP JUMPDEST SWAP1 POP DUP2 DUP2 SUB PUSH1 0x20 DUP4 ADD MSTORE PUSH2 0x3850 DUP2 DUP15 PUSH2 0x37E8 JUMP JUMPDEST SWAP1 POP DUP2 DUP2 SUB PUSH1 0x40 DUP4 ADD MSTORE PUSH2 0x3864 DUP2 DUP14 PUSH2 0x37E8 JUMP JUMPDEST SWAP1 POP DUP2 DUP2 SUB PUSH1 0x60 DUP4 ADD MSTORE PUSH2 0x3878 DUP2 DUP13 PUSH2 0x37E8 JUMP JUMPDEST SWAP1 POP DUP2 DUP2 SUB PUSH1 0x80 DUP4 ADD MSTORE PUSH2 0x388C DUP2 DUP12 PUSH2 0x37E8 JUMP JUMPDEST SWAP1 POP DUP2 DUP2 SUB PUSH1 0xA0 DUP4 ADD MSTORE PUSH2 0x38A0 DUP2 DUP11 PUSH2 0x37E8 JUMP JUMPDEST SWAP1 POP DUP2 DUP2 SUB PUSH1 0xC0 DUP4 ADD MSTORE PUSH2 0x38B4 DUP2 DUP10 PUSH2 0x37E8 JUMP JUMPDEST SWAP1 POP DUP2 DUP2 SUB PUSH1 0xE0 DUP4 ADD MSTORE PUSH2 0x38C8 DUP2 DUP9 PUSH2 0x37E8 JUMP JUMPDEST SWAP1 POP PUSH2 0x38D8 PUSH2 0x100 DUP4 ADD DUP8 PUSH2 0x3610 JUMP JUMPDEST PUSH2 0x38E6 PUSH2 0x120 DUP4 ADD DUP7 PUSH2 0x328B JUMP JUMPDEST PUSH2 0x38F4 PUSH2 0x140 DUP4 ADD DUP6 PUSH2 0x328B JUMP JUMPDEST PUSH2 0x3902 PUSH2 0x160 DUP4 ADD DUP5 PUSH2 0x328B JUMP JUMPDEST SWAP14 SWAP13 POP POP POP POP POP POP POP POP POP POP POP POP POP JUMP JUMPDEST PUSH1 0x0 DUP2 MLOAD SWAP1 POP PUSH2 0x3922 DUP2 PUSH2 0x363A JUMP JUMPDEST SWAP3 SWAP2 POP POP JUMP JUMPDEST PUSH1 0x0 PUSH1 0x20 DUP3 DUP5 SUB SLT ISZERO PUSH2 0x393E JUMPI PUSH2 0x393D PUSH2 0x31EC JUMP JUMPDEST JUMPDEST PUSH1 0x0 PUSH2 0x394C DUP5 DUP3 DUP6 ADD PUSH2 0x3913 JUMP JUMPDEST SWAP2 POP POP SWAP3 SWAP2 POP POP JUMP JUMPDEST PUSH32 0x496E73756666696369656E7420746F6B656E7320746F2063726561746520656C PUSH1 0x0 DUP3 ADD MSTORE PUSH32 0x656D656E74000000000000000000000000000000000000000000000000000000 PUSH1 0x20 DUP3 ADD MSTORE POP JUMP JUMPDEST PUSH1 0x0 PUSH2 0x39B1 PUSH1 0x25 DUP4 PUSH2 0x37AD JUMP JUMPDEST SWAP2 POP PUSH2 0x39BC DUP3 PUSH2 0x3955 JUMP JUMPDEST PUSH1 0x40 DUP3 ADD SWAP1 POP SWAP2 SWAP1 POP JUMP JUMPDEST PUSH1 0x0 PUSH1 0x20 DUP3 ADD SWAP1 POP DUP2 DUP2 SUB PUSH1 0x0 DUP4 ADD MSTORE PUSH2 0x39E0 DUP2 PUSH2 0x39A4 JUMP JUMPDEST SWAP1 POP SWAP2 SWAP1 POP JUMP JUMPDEST PUSH1 0x0 PUSH1 0x60 DUP3 ADD SWAP1 POP PUSH2 0x39FC PUSH1 0x0 DUP4 ADD DUP7 PUSH2 0x3610 JUMP JUMPDEST PUSH2 0x3A09 PUSH1 0x20 DUP4 ADD DUP6 PUSH2 0x3610 JUMP JUMPDEST PUSH2 0x3A16 PUSH1 0x40 DUP4 ADD DUP5 PUSH2 0x328B JUMP JUMPDEST SWAP5 SWAP4 POP POP POP POP JUMP JUMPDEST PUSH1 0x0 DUP2 MLOAD SWAP1 POP PUSH2 0x3A2D DUP2 PUSH2 0x3588 JUMP JUMPDEST SWAP3 SWAP2 POP POP JUMP JUMPDEST PUSH1 0x0 PUSH1 0x20 DUP3 DUP5 SUB SLT ISZERO PUSH2 0x3A49 JUMPI PUSH2 0x3A48 PUSH2 0x31EC JUMP JUMPDEST JUMPDEST PUSH1 0x0 PUSH2 0x3A57 DUP5 DUP3 DUP6 ADD PUSH2 0x3A1E JUMP JUMPDEST SWAP2 POP POP SWAP3 SWAP2 POP POP JUMP JUMPDEST PUSH32 0x546F6B656E207472616E73666572206661696C65640000000000000000000000 PUSH1 0x0 DUP3 ADD MSTORE POP JUMP JUMPDEST PUSH1 0x0 PUSH2 0x3A96 PUSH1 0x15 DUP4 PUSH2 0x37AD JUMP JUMPDEST SWAP2 POP PUSH2 0x3AA1 DUP3 PUSH2 0x3A60 JUMP JUMPDEST PUSH1 0x20 DUP3 ADD SWAP1 POP SWAP2 SWAP1 POP JUMP JUMPDEST PUSH1 0x0 PUSH1 0x20 DUP3 ADD SWAP1 POP DUP2 DUP2 SUB PUSH1 0x0 DUP4 ADD MSTORE PUSH2 0x3AC5 DUP2 PUSH2 0x3A89 JUMP JUMPDEST SWAP1 POP SWAP2 SWAP1 POP JUMP JUMPDEST PUSH32 0x4E487B7100000000000000000000000000000000000000000000000000000000 PUSH1 0x0 MSTORE PUSH1 0x22 PUSH1 0x4 MSTORE PUSH1 0x24 PUSH1 0x0 REVERT JUMPDEST PUSH1 0x0 PUSH1 0x2 DUP3 DIV SWAP1 POP PUSH1 0x1 DUP3 AND DUP1 PUSH2 0x3B13 JUMPI PUSH1 0x7F DUP3 AND SWAP2 POP JUMPDEST PUSH1 0x20 DUP3 LT DUP2 SUB PUSH2 0x3B26 JUMPI PUSH2 0x3B25 PUSH2 0x3ACC JUMP JUMPDEST JUMPDEST POP SWAP2 SWAP1 POP JUMP JUMPDEST PUSH1 0x0 DUP2 SWAP1 POP DUP2 PUSH1 0x0 MSTORE PUSH1 0x20 PUSH1 0x0 KECCAK256 SWAP1 POP SWAP2 SWAP1 POP JUMP JUMPDEST PUSH1 0x0 PUSH1 0x20 PUSH1 0x1F DUP4 ADD DIV SWAP1 POP SWAP2 SWAP1 POP JUMP JUMPDEST PUSH1 0x0 DUP3 DUP3 SHL SWAP1 POP SWAP3 SWAP2 POP POP JUMP JUMPDEST PUSH1 0x0 PUSH1 0x8 DUP4 MUL PUSH2 0x3B8E PUSH32 0xFFFFFFFFFFFFFFFFFFFFFFFFFFFFFFFFFFFFFFFFFFFFFFFFFFFFFFFFFFFFFFFF DUP3 PUSH2 0x3B51 JUMP JUMPDEST PUSH2 0x3B98 DUP7 DUP4 PUSH2 0x3B51 JUMP JUMPDEST SWAP6 POP DUP1 NOT DUP5 AND SWAP4 POP DUP1 DUP7 AND DUP5 OR SWAP3 POP POP POP SWAP4 SWAP3 POP POP POP JUMP JUMPDEST PUSH1 0x0 PUSH2 0x3BCB PUSH2 0x3BC6 PUSH2 0x3BC1 DUP5 PUSH2 0x3281 JUMP JUMPDEST PUSH2 0x3502 JUMP JUMPDEST PUSH2 0x3281 JUMP JUMPDEST SWAP1 POP SWAP2 SWAP1 POP JUMP JUMPDEST PUSH1 0x0 DUP2 SWAP1 POP SWAP2 SWAP1 POP JUMP JUMPDEST PUSH2 0x3BE5 DUP4 PUSH2 0x3BB0 JUMP JUMPDEST PUSH2 0x3BF9 PUSH2 0x3BF1 DUP3 PUSH2 0x3BD2 JUMP JUMPDEST DUP5 DUP5 SLOAD PUSH2 0x3B5E JUMP JUMPDEST DUP3 SSTORE POP POP POP POP JUMP JUMPDEST PUSH1 0x0 SWAP1 JUMP JUMPDEST PUSH2 0x3C0E PUSH2 0x3C01 JUMP JUMPDEST PUSH2 0x3C19 DUP2 DUP5 DUP5 PUSH2 0x3BDC JUMP JUMPDEST POP POP POP JUMP JUMPDEST JUMPDEST DUP2 DUP2 LT ISZERO PUSH2 0x3C3D JUMPI PUSH2 0x3C32 PUSH1 0x0 DUP3 PUSH2 0x3C06 JUMP JUMPDEST PUSH1 0x1 DUP2 ADD SWAP1 POP PUSH2 0x3C1F JUMP JUMPDEST POP POP JUMP JUMPDEST PUSH1 0x1F DUP3 GT ISZERO PUSH2 0x3C82 JUMPI PUSH2 0x3C53 DUP2 PUSH2 0x3B2C JUMP JUMPDEST PUSH2 0x3C5C DUP5 PUSH2 0x3B41 JUMP JUMPDEST DUP2 ADD PUSH1 0x20 DUP6 LT ISZERO PUSH2 0x3C6B JUMPI DUP2 SWAP1 POP JUMPDEST PUSH2 0x3C7F PUSH2 0x3C77 DUP6 PUSH2 0x3B41 JUMP JUMPDEST DUP4 ADD DUP3 PUSH2 0x3C1E JUMP JUMPDEST POP POP JUMPDEST POP POP POP JUMP JUMPDEST PUSH1 0x0 DUP3 DUP3 SHR SWAP1 POP SWAP3 SWAP2 POP POP JUMP JUMPDEST PUSH1 0x0 PUSH2 0x3CA5 PUSH1 0x0 NOT DUP5 PUSH1 0x8 MUL PUSH2 0x3C87 JUMP JUMPDEST NOT DUP1 DUP4 AND SWAP2 POP POP SWAP3 SWAP2 POP POP JUMP JUMPDEST PUSH1 0x0 PUSH2 0x3CBE DUP4 DUP4 PUSH2 0x3C94 JUMP JUMPDEST SWAP2 POP DUP3 PUSH1 0x2 MUL DUP3 OR SWAP1 POP SWAP3 SWAP2 POP POP JUMP JUMPDEST PUSH2 0x3CD7 DUP3 PUSH2 0x37A2 JUMP JUMPDEST PUSH8 0xFFFFFFFFFFFFFFFF DUP2 GT ISZERO PUSH2 0x3CF0 JUMPI PUSH2 0x3CEF PUSH2 0x32D0 JUMP JUMPDEST JUMPDEST PUSH2 0x3CFA DUP3 SLOAD PUSH2 0x3AFB JUMP JUMPDEST PUSH2 0x3D05 DUP3 DUP3 DUP6 PUSH2 0x3C41 JUMP JUMPDEST PUSH1 0x0 PUSH1 0x20 SWAP1 POP PUSH1 0x1F DUP4 GT PUSH1 0x1 DUP2 EQ PUSH2 0x3D38 JUMPI PUSH1 0x0 DUP5 ISZERO PUSH2 0x3D26 JUMPI DUP3 DUP8 ADD MLOAD SWAP1 POP JUMPDEST PUSH2 0x3D30 DUP6 DUP3 PUSH2 0x3CB2 JUMP JUMPDEST DUP7 SSTORE POP PUSH2 0x3D98 JUMP JUMPDEST PUSH1 0x1F NOT DUP5 AND PUSH2 0x3D46 DUP7 PUSH2 0x3B2C JUMP JUMPDEST PUSH1 0x0 JUMPDEST DUP3 DUP2 LT ISZERO PUSH2 0x3D6E JUMPI DUP5 DUP10 ADD MLOAD DUP3 SSTORE PUSH1 0x1 DUP3 ADD SWAP2 POP PUSH1 0x20 DUP6 ADD SWAP5 POP PUSH1 0x20 DUP2 ADD SWAP1 POP PUSH2 0x3D49 JUMP JUMPDEST DUP7 DUP4 LT ISZERO PUSH2 0x3D8B JUMPI DUP5 DUP10 ADD MLOAD PUSH2 0x3D87 PUSH1 0x1F DUP10 AND DUP3 PUSH2 0x3C94 JUMP JUMPDEST DUP4 SSTORE POP JUMPDEST PUSH1 0x1 PUSH1 0x2 DUP9 MUL ADD DUP9 SSTORE POP POP POP JUMPDEST POP POP POP POP POP POP JUMP JUMPDEST PUSH32 0x4E487B7100000000000000000000000000000000000000000000000000000000 PUSH1 0x0 MSTORE PUSH1 0x11 PUSH1 0x4 MSTORE PUSH1 0x24 PUSH1 0x0 REVERT JUMPDEST PUSH1 0x0 PUSH2 0x3DDA DUP3 PUSH2 0x3281 JUMP JUMPDEST SWAP2 POP PUSH32 0xFFFFFFFFFFFFFFFFFFFFFFFFFFFFFFFFFFFFFFFFFFFFFFFFFFFFFFFFFFFFFFFF DUP3 SUB PUSH2 0x3E0C JUMPI PUSH2 0x3E0B PUSH2 0x3DA0 JUMP JUMPDEST JUMPDEST PUSH1 0x1 DUP3 ADD SWAP1 POP SWAP2 SWAP1 POP JUMP JUMPDEST PUSH32 0x4F6E6C792061646D696E2063616E20706572666F726D20746869732061637469 PUSH1 0x0 DUP3 ADD MSTORE PUSH32 0x6F6E000000000000000000000000000000000000000000000000000000000000 PUSH1 0x20 DUP3 ADD MSTORE POP JUMP JUMPDEST PUSH1 0x0 PUSH2 0x3E73 PUSH1 0x22 DUP4 PUSH2 0x37AD JUMP JUMPDEST SWAP2 POP PUSH2 0x3E7E DUP3 PUSH2 0x3E17 JUMP JUMPDEST PUSH1 0x40 DUP3 ADD SWAP1 POP SWAP2 SWAP1 POP JUMP JUMPDEST PUSH1 0x0 PUSH1 0x20 DUP3 ADD SWAP1 POP DUP2 DUP2 SUB PUSH1 0x0 DUP4 ADD MSTORE PUSH2 0x3EA2 DUP2 PUSH2 0x3E66 JUMP JUMPDEST SWAP1 POP SWAP2 SWAP1 POP JUMP JUMPDEST PUSH32 0x41646D696E2063616E206F6E6C7920746F67676C65206368616E67655365636F PUSH1 0x0 DUP3 ADD MSTORE PUSH32 0x6E6441646D696E00000000000000000000000000000000000000000000000000 PUSH1 0x20 DUP3 ADD MSTORE POP JUMP JUMPDEST PUSH1 0x0 PUSH2 0x3F05 PUSH1 0x27 DUP4 PUSH2 0x37AD JUMP JUMPDEST SWAP2 POP PUSH2 0x3F10 DUP3 PUSH2 0x3EA9 JUMP JUMPDEST PUSH1 0x40 DUP3 ADD SWAP1 POP SWAP2 SWAP1 POP JUMP JUMPDEST PUSH1 0x0 PUSH1 0x20 DUP3 ADD SWAP1 POP DUP2 DUP2 SUB PUSH1 0x0 DUP4 ADD MSTORE PUSH2 0x3F34 DUP2 PUSH2 0x3EF8 JUMP JUMPDEST SWAP1 POP SWAP2 SWAP1 POP JUMP JUMPDEST PUSH1 0x0 DUP2 SWAP1 POP SWAP3 SWAP2 POP POP JUMP JUMPDEST PUSH1 0x0 PUSH2 0x3F51 DUP3 PUSH2 0x37A2 JUMP JUMPDEST PUSH2 0x3F5B DUP2 DUP6 PUSH2 0x3F3B JUMP JUMPDEST SWAP4 POP PUSH2 0x3F6B DUP2 DUP6 PUSH1 0x20 DUP7 ADD PUSH2 0x37BE JUMP JUMPDEST DUP1 DUP5 ADD SWAP2 POP POP SWAP3 SWAP2 POP POP JUMP JUMPDEST PUSH1 0x0 PUSH2 0x3F83 DUP3 DUP5 PUSH2 0x3F46 JUMP JUMPDEST SWAP2 POP DUP2 SWAP1 POP SWAP3 SWAP2 POP POP JUMP JUMPDEST PUSH32 0x46756E6374696F6E2069732064697361626C6564000000000000000000000000 PUSH1 0x0 DUP3 ADD MSTORE POP JUMP JUMPDEST PUSH1 0x0 PUSH2 0x3FC4 PUSH1 0x14 DUP4 PUSH2 0x37AD JUMP JUMPDEST SWAP2 POP PUSH2 0x3FCF DUP3 PUSH2 0x3F8E JUMP JUMPDEST PUSH1 0x20 DUP3 ADD SWAP1 POP SWAP2 SWAP1 POP JUMP JUMPDEST PUSH1 0x0 PUSH1 0x20 DUP3 ADD SWAP1 POP DUP2 DUP2 SUB PUSH1 0x0 DUP4 ADD MSTORE PUSH2 0x3FF3 DUP2 PUSH2 0x3FB7 JUMP JUMPDEST SWAP1 POP SWAP2 SWAP1 POP JUMP JUMPDEST PUSH32 0x456C656D656E74206973206E6F742070656E64696E6720617070726F76616C00 PUSH1 0x0 DUP3 ADD MSTORE POP JUMP JUMPDEST PUSH1 0x0 PUSH2 0x4030 PUSH1 0x1F DUP4 PUSH2 0x37AD JUMP JUMPDEST SWAP2 POP PUSH2 0x403B DUP3 PUSH2 0x3FFA JUMP JUMPDEST PUSH1 0x20 DUP3 ADD SWAP1 POP SWAP2 SWAP1 POP JUMP JUMPDEST PUSH1 0x0 PUSH1 0x20 DUP3 ADD SWAP1 POP DUP2 DUP2 SUB PUSH1 0x0 DUP4 ADD MSTORE PUSH2 0x405F DUP2 PUSH2 0x4023 JUMP JUMPDEST SWAP1 POP SWAP2 SWAP1 POP JUMP JUMPDEST PUSH1 0x0 PUSH2 0x4071 DUP3 PUSH2 0x3281 JUMP JUMPDEST SWAP2 POP PUSH2 0x407C DUP4 PUSH2 0x3281 JUMP JUMPDEST SWAP3 POP DUP3 DUP3 SUB SWAP1 POP DUP2 DUP2 GT ISZERO PUSH2 0x4094 JUMPI PUSH2 0x4093 PUSH2 0x3DA0 JUMP JUMPDEST JUMPDEST SWAP3 SWAP2 POP POP JUMP JUMPDEST PUSH1 0x0 PUSH2 0x40A5 DUP3 PUSH2 0x3281 JUMP JUMPDEST SWAP2 POP PUSH2 0x40B0 DUP4 PUSH2 0x3281 JUMP JUMPDEST SWAP3 POP DUP3 DUP3 MUL PUSH2 0x40BE DUP2 PUSH2 0x3281 JUMP JUMPDEST SWAP2 POP DUP3 DUP3 DIV DUP5 EQ DUP4 ISZERO OR PUSH2 0x40D5 JUMPI PUSH2 0x40D4 PUSH2 0x3DA0 JUMP JUMPDEST JUMPDEST POP SWAP3 SWAP2 POP POP JUMP JUMPDEST PUSH32 0x4E487B7100000000000000000000000000000000000000000000000000000000 PUSH1 0x0 MSTORE PUSH1 0x12 PUSH1 0x4 MSTORE PUSH1 0x24 PUSH1 0x0 REVERT JUMPDEST PUSH1 0x0 PUSH2 0x4116 DUP3 PUSH2 0x3281 JUMP JUMPDEST SWAP2 POP PUSH2 0x4121 DUP4 PUSH2 0x3281 JUMP JUMPDEST SWAP3 POP DUP3 PUSH2 0x4131 JUMPI PUSH2 0x4130 PUSH2 0x40DC JUMP JUMPDEST JUMPDEST DUP3 DUP3 DIV SWAP1 POP SWAP3 SWAP2 POP POP JUMP JUMPDEST PUSH32 0x496E73756666696369656E74207374616B656420616D6F756E74000000000000 PUSH1 0x0 DUP3 ADD MSTORE POP JUMP JUMPDEST PUSH1 0x0 PUSH2 0x4172 PUSH1 0x1A DUP4 PUSH2 0x37AD JUMP JUMPDEST SWAP2 POP PUSH2 0x417D DUP3 PUSH2 0x413C JUMP JUMPDEST PUSH1 0x20 DUP3 ADD SWAP1 POP SWAP2 SWAP1 POP JUMP JUMPDEST PUSH1 0x0 PUSH1 0x20 DUP3 ADD SWAP1 POP DUP2 DUP2 SUB PUSH1 0x0 DUP4 ADD MSTORE PUSH2 0x41A1 DUP2 PUSH2 0x4165 JUMP JUMPDEST SWAP1 POP SWAP2 SWAP1 POP JUMP JUMPDEST PUSH1 0x0 PUSH1 0x40 DUP3 ADD SWAP1 POP PUSH2 0x41BD PUSH1 0x0 DUP4 ADD DUP6 PUSH2 0x3610 JUMP JUMPDEST PUSH2 0x41CA PUSH1 0x20 DUP4 ADD DUP5 PUSH2 0x328B JUMP JUMPDEST SWAP4 SWAP3 POP POP POP JUMP JUMPDEST PUSH32 0x4F6E6C79207365636F6E642061646D696E2063616E20706572666F726D207468 PUSH1 0x0 DUP3 ADD MSTORE PUSH32 0x697320616374696F6E0000000000000000000000000000000000000000000000 PUSH1 0x20 DUP3 ADD MSTORE POP JUMP JUMPDEST PUSH1 0x0 PUSH2 0x422D PUSH1 0x29 DUP4 PUSH2 0x37AD JUMP JUMPDEST SWAP2 POP PUSH2 0x4238 DUP3 PUSH2 0x41D1 JUMP JUMPDEST PUSH1 0x40 DUP3 ADD SWAP1 POP SWAP2 SWAP1 POP JUMP JUMPDEST PUSH1 0x0 PUSH1 0x20 DUP3 ADD SWAP1 POP DUP2 DUP2 SUB PUSH1 0x0 DUP4 ADD MSTORE PUSH2 0x425C DUP2 PUSH2 0x4220 JUMP JUMPDEST SWAP1 POP SWAP2 SWAP1 POP JUMP JUMPDEST PUSH32 0x5365636F6E642061646D696E2063616E6E6F7420746F67676C65206368616E67 PUSH1 0x0 DUP3 ADD MSTORE PUSH32 0x655365636F6E6441646D696E0000000000000000000000000000000000000000 PUSH1 0x20 DUP3 ADD MSTORE POP JUMP JUMPDEST PUSH1 0x0 PUSH2 0x42BF PUSH1 0x2C DUP4 PUSH2 0x37AD JUMP JUMPDEST SWAP2 POP PUSH2 0x42CA DUP3 PUSH2 0x4263 JUMP JUMPDEST PUSH1 0x40 DUP3 ADD SWAP1 POP SWAP2 SWAP1 POP JUMP JUMPDEST PUSH1 0x0 PUSH1 0x20 DUP3 ADD SWAP1 POP DUP2 DUP2 SUB PUSH1 0x0 DUP4 ADD MSTORE PUSH2 0x42EE DUP2 PUSH2 0x42B2 JUMP JUMPDEST SWAP1 POP SWAP2 SWAP1 POP JUMP JUMPDEST PUSH32 0x456C656D656E7420697320616C726561647920696E2074686520507265737469 PUSH1 0x0 DUP3 ADD MSTORE PUSH32 0x6765207068617365000000000000000000000000000000000000000000000000 PUSH1 0x20 DUP3 ADD MSTORE POP JUMP JUMPDEST PUSH1 0x0 PUSH2 0x4351 PUSH1 0x28 DUP4 PUSH2 0x37AD JUMP JUMPDEST SWAP2 POP PUSH2 0x435C DUP3 PUSH2 0x42F5 JUMP JUMPDEST PUSH1 0x40 DUP3 ADD SWAP1 POP SWAP2 SWAP1 POP JUMP JUMPDEST PUSH1 0x0 PUSH1 0x20 DUP3 ADD SWAP1 POP DUP2 DUP2 SUB PUSH1 0x0 DUP4 ADD MSTORE PUSH2 0x4380 DUP2 PUSH2 0x4344 JUMP JUMPDEST SWAP1 POP SWAP2 SWAP1 POP JUMP JUMPDEST PUSH1 0x0 PUSH2 0x4392 DUP3 PUSH2 0x3281 JUMP JUMPDEST SWAP2 POP PUSH2 0x439D DUP4 PUSH2 0x3281 JUMP JUMPDEST SWAP3 POP DUP3 DUP3 ADD SWAP1 POP DUP1 DUP3 GT ISZERO PUSH2 0x43B5 JUMPI PUSH2 0x43B4 PUSH2 0x3DA0 JUMP JUMPDEST JUMPDEST SWAP3 SWAP2 POP POP JUMP JUMPDEST PUSH32 0x4E487B7100000000000000000000000000000000000000000000000000000000 PUSH1 0x0 MSTORE PUSH1 0x21 PUSH1 0x4 MSTORE PUSH1 0x24 PUSH1 0x0 REVERT JUMPDEST PUSH32 0x4E6F20766F74696E6720706F7765720000000000000000000000000000000000 PUSH1 0x0 DUP3 ADD MSTORE POP JUMP JUMPDEST PUSH1 0x0 PUSH2 0x4420 PUSH1 0xF DUP4 PUSH2 0x37AD JUMP JUMPDEST SWAP2 POP PUSH2 0x442B DUP3 PUSH2 0x43EA JUMP JUMPDEST PUSH1 0x20 DUP3 ADD SWAP1 POP SWAP2 SWAP1 POP JUMP JUMPDEST PUSH1 0x0 PUSH1 0x20 DUP3 ADD SWAP1 POP DUP2 DUP2 SUB PUSH1 0x0 DUP4 ADD MSTORE PUSH2 0x444F DUP2 PUSH2 0x4413 JUMP JUMPDEST SWAP1 POP SWAP2 SWAP1 POP JUMP JUMPDEST PUSH32 0x4D696E696D756D207374616B6520616D6F756E74206973203120746F6B656E00 PUSH1 0x0 DUP3 ADD MSTORE POP JUMP JUMPDEST PUSH1 0x0 PUSH2 0x448C PUSH1 0x1F DUP4 PUSH2 0x37AD JUMP JUMPDEST SWAP2 POP PUSH2 0x4497 DUP3 PUSH2 0x4456 JUMP JUMPDEST PUSH1 0x20 DUP3 ADD SWAP1 POP SWAP2 SWAP1 POP JUMP JUMPDEST PUSH1 0x0 PUSH1 0x20 DUP3 ADD SWAP1 POP DUP2 DUP2 SUB PUSH1 0x0 DUP4 ADD MSTORE PUSH2 0x44BB DUP2 PUSH2 0x447F JUMP JUMPDEST SWAP1 POP SWAP2 SWAP1 POP JUMP JUMPDEST PUSH32 0x4F6E6C792074686972642061646D696E2063616E20706572666F726D20746869 PUSH1 0x0 DUP3 ADD MSTORE PUSH32 0x7320616374696F6E000000000000000000000000000000000000000000000000 PUSH1 0x20 DUP3 ADD MSTORE POP JUMP JUMPDEST PUSH1 0x0 PUSH2 0x451E PUSH1 0x28 DUP4 PUSH2 0x37AD JUMP JUMPDEST SWAP2 POP PUSH2 0x4529 DUP3 PUSH2 0x44C2 JUMP JUMPDEST PUSH1 0x40 DUP3 ADD SWAP1 POP SWAP2 SWAP1 POP JUMP JUMPDEST PUSH1 0x0 PUSH1 0x20 DUP3 ADD SWAP1 POP DUP2 DUP2 SUB PUSH1 0x0 DUP4 ADD MSTORE PUSH2 0x454D DUP2 PUSH2 0x4511 JUMP JUMPDEST SWAP1 POP SWAP2 SWAP1 POP JUMP JUMPDEST PUSH32 0x4F6E6C792063726561746F722063616E20757064617465000000000000000000 PUSH1 0x0 DUP3 ADD MSTORE POP JUMP JUMPDEST PUSH1 0x0 PUSH2 0x458A PUSH1 0x17 DUP4 PUSH2 0x37AD JUMP JUMPDEST SWAP2 POP PUSH2 0x4595 DUP3 PUSH2 0x4554 JUMP JUMPDEST PUSH1 0x20 DUP3 ADD SWAP1 POP SWAP2 SWAP1 POP JUMP JUMPDEST PUSH1 0x0 PUSH1 0x20 DUP3 ADD SWAP1 POP DUP2 DUP2 SUB PUSH1 0x0 DUP4 ADD MSTORE PUSH2 0x45B9 DUP2 PUSH2 0x457D JUMP JUMPDEST SWAP1 POP SWAP2 SWAP1 POP JUMP JUMPDEST PUSH32 0x4E6F207374616B656420616D6F756E7400000000000000000000000000000000 PUSH1 0x0 DUP3 ADD MSTORE POP JUMP JUMPDEST PUSH1 0x0 PUSH2 0x45F6 PUSH1 0x10 DUP4 PUSH2 0x37AD JUMP JUMPDEST SWAP2 POP PUSH2 0x4601 DUP3 PUSH2 0x45C0 JUMP JUMPDEST PUSH1 0x20 DUP3 ADD SWAP1 POP SWAP2 SWAP1 POP JUMP JUMPDEST PUSH1 0x0 PUSH1 0x20 DUP3 ADD SWAP1 POP DUP2 DUP2 SUB PUSH1 0x0 DUP4 ADD MSTORE PUSH2 0x4625 DUP2 PUSH2 0x45E9 JUMP JUMPDEST SWAP1 POP SWAP2 SWAP1 POP JUMP JUMPDEST PUSH32 0x43616E6E6F7420636C61696D206265666F72652061206D6F6E74680000000000 PUSH1 0x0 DUP3 ADD MSTORE POP JUMP JUMPDEST PUSH1 0x0 PUSH2 0x4662 PUSH1 0x1B DUP4 PUSH2 0x37AD JUMP JUMPDEST SWAP2 POP PUSH2 0x466D DUP3 PUSH2 0x462C JUMP JUMPDEST PUSH1 0x20 DUP3 ADD SWAP1 POP SWAP2 SWAP1 POP JUMP JUMPDEST PUSH1 0x0 PUSH1 0x20 DUP3 ADD SWAP1 POP DUP2 DUP2 SUB PUSH1 0x0 DUP4 ADD MSTORE PUSH2 0x4691 DUP2 PUSH2 0x4655 JUMP JUMPDEST SWAP1 POP SWAP2 SWAP1 POP JUMP JUMPDEST PUSH32 0x456C656D656E7420726577617264207472616E73666572206661696C65640000 PUSH1 0x0 DUP3 ADD MSTORE POP JUMP JUMPDEST PUSH1 0x0 PUSH2 0x46CE PUSH1 0x1E DUP4 PUSH2 0x37AD JUMP JUMPDEST SWAP2 POP PUSH2 0x46D9 DUP3 PUSH2 0x4698 JUMP JUMPDEST PUSH1 0x20 DUP3 ADD SWAP1 POP SWAP2 SWAP1 POP JUMP JUMPDEST PUSH1 0x0 PUSH1 0x20 DUP3 ADD SWAP1 POP DUP2 DUP2 SUB PUSH1 0x0 DUP4 ADD MSTORE PUSH2 0x46FD DUP2 PUSH2 0x46C1 JUMP JUMPDEST SWAP1 POP SWAP2 SWAP1 POP JUMP INVALID LOG2 PUSH5 0x6970667358 0x22 SLT KECCAK256 ORIGIN 0xD 0xCA 0xC9 ISZERO SLOAD MSTORE COINBASE LT 0x4A 0xBB PREVRANDAO 0xB9 LOG1 0x2D PUSH11 0xBE726CBB94889E02B49CE7 0x27 0x27 POP SELFDESTRUCT DUP15 PUSH5 0x736F6C6343 STOP ADDMOD SLT STOP CALLER "
		},
		"gasEstimates": {
			"creation": {
				"codeDepositCost": "3646800",
				"executionCost": "infinite",
				"totalCost": "infinite"
			},
			"external": {
				"ELEMENT_CREATION_COST()": "396",
				"MINIMUM_STAKE_AMOUNT()": "441",
				"SECONDS_IN_MONTH()": "infinite",
				"SECONDS_IN_YEAR()": "396",
				"admin()": "2624",
				"approveElement(uint256)": "infinite",
				"calculateMonthlyReward(uint256,uint256)": "infinite",
				"changeAdmin(address)": "infinite",
				"changeSecondAdmin(address)": "infinite",
				"claimMonthlyReward()": "infinite",
				"confirmUpdate(uint256)": "infinite",
				"createElement(string,string,string,string,string)": "infinite",
				"elementCount()": "2562",
				"elements(uint256)": "infinite",
				"functionStatus(string)": "infinite",
				"getAnnualRewardRate(uint256)": "infinite",
				"getClaimableReward(address)": "infinite",
				"getLastClaimedDate(address)": "2974",
				"hasPendingApplication(address)": "infinite",
				"lastClaimed(address)": "2861",
				"lopToken()": "infinite",
				"refuseUpdate(uint256)": "infinite",
				"rejectElement(uint256)": "infinite",
				"removeElement(uint256)": "infinite",
				"secondAdmin()": "2604",
				"stakeTokens(uint256)": "infinite",
				"stakes(address)": "2927",
				"startingDate(address)": "2882",
				"thirdAdmin()": "2559",
				"toggleFunctionStatus(string,bool)": "infinite",
				"toggleFunctionStatusByAdmin(string,bool)": "infinite",
				"updateElementMetrics(uint256,string)": "infinite",
				"updateElementTutorial(uint256,string)": "infinite",
				"updateElementWebsite(uint256,string)": "infinite",
				"voteOnElement(uint256,uint256)": "infinite",
				"votingPower(address)": "2859",
				"withdrawStake(uint256)": "infinite"
			},
			"internal": {
				"distributeElementReward(uint256)": "infinite",
				"getTotalVotes()": "infinite"
			}
		},
		"methodIdentifiers": {
			"ELEMENT_CREATION_COST()": "c5e48e5a",
			"MINIMUM_STAKE_AMOUNT()": "84d804be",
			"SECONDS_IN_MONTH()": "27855b13",
			"SECONDS_IN_YEAR()": "5dcc9391",
			"admin()": "f851a440",
			"approveElement(uint256)": "c9b3829f",
			"calculateMonthlyReward(uint256,uint256)": "20cb13ab",
			"changeAdmin(address)": "8f283970",
			"changeSecondAdmin(address)": "dd8087d1",
			"claimMonthlyReward()": "d4f1e386",
			"confirmUpdate(uint256)": "3b72bad5",
			"createElement(string,string,string,string,string)": "0a274280",
			"elementCount()": "67be4673",
			"elements(uint256)": "e0d64b37",
			"functionStatus(string)": "613dab3e",
			"getAnnualRewardRate(uint256)": "f9089bf2",
			"getClaimableReward(address)": "5ff329af",
			"getLastClaimedDate(address)": "cc78d728",
			"hasPendingApplication(address)": "6b8d04fb",
			"lastClaimed(address)": "013eba92",
			"lopToken()": "0d67f59e",
			"refuseUpdate(uint256)": "36ead39f",
			"rejectElement(uint256)": "1faa1128",
			"removeElement(uint256)": "9fc37abf",
			"secondAdmin()": "1d32e9b3",
			"stakeTokens(uint256)": "7547c7a3",
			"stakes(address)": "16934fc4",
			"startingDate(address)": "1d002cc0",
			"thirdAdmin()": "8b52e06c",
			"toggleFunctionStatus(string,bool)": "2a9aaa76",
			"toggleFunctionStatusByAdmin(string,bool)": "17504b98",
			"updateElementMetrics(uint256,string)": "c7b3564e",
			"updateElementTutorial(uint256,string)": "a721ebdd",
			"updateElementWebsite(uint256,string)": "b17146c8",
			"voteOnElement(uint256,uint256)": "72bae674",
			"votingPower(address)": "c07473f6",
			"withdrawStake(uint256)": "25d5971f"
		}
	},
	"abi": [
		{
			"inputs": [
				{
					"internalType": "address",
					"name": "_lopToken",
					"type": "address"
				},
				{
					"internalType": "address",
					"name": "_secondAdmin",
					"type": "address"
				},
				{
					"internalType": "address",
					"name": "_thirdAdmin",
					"type": "address"
				}
			],
			"stateMutability": "nonpayable",
			"type": "constructor"
		},
		{
			"inputs": [],
			"name": "ELEMENT_CREATION_COST",
			"outputs": [
				{
					"internalType": "uint256",
					"name": "",
					"type": "uint256"
				}
			],
			"stateMutability": "view",
			"type": "function"
		},
		{
			"inputs": [],
			"name": "MINIMUM_STAKE_AMOUNT",
			"outputs": [
				{
					"internalType": "uint256",
					"name": "",
					"type": "uint256"
				}
			],
			"stateMutability": "view",
			"type": "function"
		},
		{
			"inputs": [],
			"name": "SECONDS_IN_MONTH",
			"outputs": [
				{
					"internalType": "uint256",
					"name": "",
					"type": "uint256"
				}
			],
			"stateMutability": "view",
			"type": "function"
		},
		{
			"inputs": [],
			"name": "SECONDS_IN_YEAR",
			"outputs": [
				{
					"internalType": "uint256",
					"name": "",
					"type": "uint256"
				}
			],
			"stateMutability": "view",
			"type": "function"
		},
		{
			"inputs": [],
			"name": "admin",
			"outputs": [
				{
					"internalType": "address",
					"name": "",
					"type": "address"
				}
			],
			"stateMutability": "view",
			"type": "function"
		},
		{
			"inputs": [
				{
					"internalType": "uint256",
					"name": "elementId",
					"type": "uint256"
				}
			],
			"name": "approveElement",
			"outputs": [],
			"stateMutability": "nonpayable",
			"type": "function"
		},
		{
			"inputs": [
				{
					"internalType": "uint256",
					"name": "stakeAmount",
					"type": "uint256"
				},
				{
					"internalType": "uint256",
					"name": "startTime",
					"type": "uint256"
				}
			],
			"name": "calculateMonthlyReward",
			"outputs": [
				{
					"internalType": "uint256",
					"name": "",
					"type": "uint256"
				}
			],
			"stateMutability": "view",
			"type": "function"
		},
		{
			"inputs": [
				{
					"internalType": "address",
					"name": "newAdmin",
					"type": "address"
				}
			],
			"name": "changeAdmin",
			"outputs": [],
			"stateMutability": "nonpayable",
			"type": "function"
		},
		{
			"inputs": [
				{
					"internalType": "address",
					"name": "newSecondAdmin",
					"type": "address"
				}
			],
			"name": "changeSecondAdmin",
			"outputs": [],
			"stateMutability": "nonpayable",
			"type": "function"
		},
		{
			"inputs": [],
			"name": "claimMonthlyReward",
			"outputs": [],
			"stateMutability": "nonpayable",
			"type": "function"
		},
		{
			"inputs": [
				{
					"internalType": "uint256",
					"name": "elementId",
					"type": "uint256"
				}
			],
			"name": "confirmUpdate",
			"outputs": [],
			"stateMutability": "nonpayable",
			"type": "function"
		},
		{
			"inputs": [
				{
					"internalType": "string",
					"name": "name",
					"type": "string"
				},
				{
					"internalType": "string",
					"name": "description",
					"type": "string"
				},
				{
					"internalType": "string",
					"name": "whitepaperLink",
					"type": "string"
				},
				{
					"internalType": "string",
					"name": "email",
					"type": "string"
				},
				{
					"internalType": "string",
					"name": "logoUrl",
					"type": "string"
				}
			],
			"name": "createElement",
			"outputs": [],
			"stateMutability": "nonpayable",
			"type": "function"
		},
		{
			"inputs": [],
			"name": "elementCount",
			"outputs": [
				{
					"internalType": "uint256",
					"name": "",
					"type": "uint256"
				}
			],
			"stateMutability": "view",
			"type": "function"
		},
		{
			"inputs": [
				{
					"internalType": "uint256",
					"name": "",
					"type": "uint256"
				}
			],
			"name": "elements",
			"outputs": [
				{
					"internalType": "string",
					"name": "name",
					"type": "string"
				},
				{
					"internalType": "string",
					"name": "description",
					"type": "string"
				},
				{
					"internalType": "string",
					"name": "whitepaperLink",
					"type": "string"
				},
				{
					"internalType": "string",
					"name": "websiteLink",
					"type": "string"
				},
				{
					"internalType": "string",
					"name": "tutorialLink",
					"type": "string"
				},
				{
					"internalType": "string",
					"name": "performanceMetricsLink",
					"type": "string"
				},
				{
					"internalType": "string",
					"name": "email",
					"type": "string"
				},
				{
					"internalType": "string",
					"name": "logoUrl",
					"type": "string"
				},
				{
					"internalType": "address",
					"name": "creator",
					"type": "address"
				},
				{
					"internalType": "uint256",
					"name": "phase",
					"type": "uint256"
				},
				{
					"internalType": "uint256",
					"name": "lastUpdate",
					"type": "uint256"
				},
				{
					"internalType": "uint256",
					"name": "voteCount",
					"type": "uint256"
				}
			],
			"stateMutability": "view",
			"type": "function"
		},
		{
			"inputs": [
				{
					"internalType": "string",
					"name": "",
					"type": "string"
				}
			],
			"name": "functionStatus",
			"outputs": [
				{
					"internalType": "bool",
					"name": "",
					"type": "bool"
				}
			],
			"stateMutability": "view",
			"type": "function"
		},
		{
			"inputs": [
				{
					"internalType": "uint256",
					"name": "timeElapsed",
					"type": "uint256"
				}
			],
			"name": "getAnnualRewardRate",
			"outputs": [
				{
					"internalType": "uint256",
					"name": "",
					"type": "uint256"
				}
			],
			"stateMutability": "pure",
			"type": "function"
		},
		{
			"inputs": [
				{
					"internalType": "address",
					"name": "user",
					"type": "address"
				}
			],
			"name": "getClaimableReward",
			"outputs": [
				{
					"internalType": "uint256",
					"name": "",
					"type": "uint256"
				}
			],
			"stateMutability": "view",
			"type": "function"
		},
		{
			"inputs": [
				{
					"internalType": "address",
					"name": "user",
					"type": "address"
				}
			],
			"name": "getLastClaimedDate",
			"outputs": [
				{
					"internalType": "uint256",
					"name": "",
					"type": "uint256"
				}
			],
			"stateMutability": "view",
			"type": "function"
		},
		{
			"inputs": [
				{
					"internalType": "address",
					"name": "creator",
					"type": "address"
				}
			],
			"name": "hasPendingApplication",
			"outputs": [
				{
					"internalType": "bool",
					"name": "",
					"type": "bool"
				}
			],
			"stateMutability": "view",
			"type": "function"
		},
		{
			"inputs": [
				{
					"internalType": "address",
					"name": "",
					"type": "address"
				}
			],
			"name": "lastClaimed",
			"outputs": [
				{
					"internalType": "uint256",
					"name": "",
					"type": "uint256"
				}
			],
			"stateMutability": "view",
			"type": "function"
		},
		{
			"inputs": [],
			"name": "lopToken",
			"outputs": [
				{
					"internalType": "contract IERC20",
					"name": "",
					"type": "address"
				}
			],
			"stateMutability": "view",
			"type": "function"
		},
		{
			"inputs": [
				{
					"internalType": "uint256",
					"name": "elementId",
					"type": "uint256"
				}
			],
			"name": "refuseUpdate",
			"outputs": [],
			"stateMutability": "nonpayable",
			"type": "function"
		},
		{
			"inputs": [
				{
					"internalType": "uint256",
					"name": "elementId",
					"type": "uint256"
				}
			],
			"name": "rejectElement",
			"outputs": [],
			"stateMutability": "nonpayable",
			"type": "function"
		},
		{
			"inputs": [
				{
					"internalType": "uint256",
					"name": "elementId",
					"type": "uint256"
				}
			],
			"name": "removeElement",
			"outputs": [],
			"stateMutability": "nonpayable",
			"type": "function"
		},
		{
			"inputs": [],
			"name": "secondAdmin",
			"outputs": [
				{
					"internalType": "address",
					"name": "",
					"type": "address"
				}
			],
			"stateMutability": "view",
			"type": "function"
		},
		{
			"inputs": [
				{
					"internalType": "uint256",
					"name": "amount",
					"type": "uint256"
				}
			],
			"name": "stakeTokens",
			"outputs": [],
			"stateMutability": "nonpayable",
			"type": "function"
		},
		{
			"inputs": [
				{
					"internalType": "address",
					"name": "",
					"type": "address"
				}
			],
			"name": "stakes",
			"outputs": [
				{
					"internalType": "uint256",
					"name": "",
					"type": "uint256"
				}
			],
			"stateMutability": "view",
			"type": "function"
		},
		{
			"inputs": [
				{
					"internalType": "address",
					"name": "",
					"type": "address"
				}
			],
			"name": "startingDate",
			"outputs": [
				{
					"internalType": "uint256",
					"name": "",
					"type": "uint256"
				}
			],
			"stateMutability": "view",
			"type": "function"
		},
		{
			"inputs": [],
			"name": "thirdAdmin",
			"outputs": [
				{
					"internalType": "address",
					"name": "",
					"type": "address"
				}
			],
			"stateMutability": "view",
			"type": "function"
		},
		{
			"inputs": [
				{
					"internalType": "string",
					"name": "functionName",
					"type": "string"
				},
				{
					"internalType": "bool",
					"name": "status",
					"type": "bool"
				}
			],
			"name": "toggleFunctionStatus",
			"outputs": [],
			"stateMutability": "nonpayable",
			"type": "function"
		},
		{
			"inputs": [
				{
					"internalType": "string",
					"name": "functionName",
					"type": "string"
				},
				{
					"internalType": "bool",
					"name": "status",
					"type": "bool"
				}
			],
			"name": "toggleFunctionStatusByAdmin",
			"outputs": [],
			"stateMutability": "nonpayable",
			"type": "function"
		},
		{
			"inputs": [
				{
					"internalType": "uint256",
					"name": "elementId",
					"type": "uint256"
				},
				{
					"internalType": "string",
					"name": "performanceMetricsLink",
					"type": "string"
				}
			],
			"name": "updateElementMetrics",
			"outputs": [],
			"stateMutability": "nonpayable",
			"type": "function"
		},
		{
			"inputs": [
				{
					"internalType": "uint256",
					"name": "elementId",
					"type": "uint256"
				},
				{
					"internalType": "string",
					"name": "tutorialLink",
					"type": "string"
				}
			],
			"name": "updateElementTutorial",
			"outputs": [],
			"stateMutability": "nonpayable",
			"type": "function"
		},
		{
			"inputs": [
				{
					"internalType": "uint256",
					"name": "elementId",
					"type": "uint256"
				},
				{
					"internalType": "string",
					"name": "websiteLink",
					"type": "string"
				}
			],
			"name": "updateElementWebsite",
			"outputs": [],
			"stateMutability": "nonpayable",
			"type": "function"
		},
		{
			"inputs": [
				{
					"internalType": "uint256",
					"name": "elementId",
					"type": "uint256"
				},
				{
					"internalType": "uint256",
					"name": "amount",
					"type": "uint256"
				}
			],
			"name": "voteOnElement",
			"outputs": [],
			"stateMutability": "nonpayable",
			"type": "function"
		},
		{
			"inputs": [
				{
					"internalType": "address",
					"name": "",
					"type": "address"
				}
			],
			"name": "votingPower",
			"outputs": [
				{
					"internalType": "uint256",
					"name": "",
					"type": "uint256"
				}
			],
			"stateMutability": "view",
			"type": "function"
		},
		{
			"inputs": [
				{
					"internalType": "uint256",
					"name": "amount",
					"type": "uint256"
				}
			],
			"name": "withdrawStake",
			"outputs": [],
			"stateMutability": "nonpayable",
			"type": "function"
		}
	]
}