{
	"data": {
		"bytecode": {
			"linkReferences": {},
			"object": "60806040523480156200001157600080fd5b50604051620029383803806200293883398181016040528101906200003791906200012a565b33600560006101000a81548173ffffffffffffffffffffffffffffffffffffffff021916908373ffffffffffffffffffffffffffffffffffffffff16021790555080600660006101000a81548173ffffffffffffffffffffffffffffffffffffffff021916908373ffffffffffffffffffffffffffffffffffffffff160217905550506200015c565b600080fd5b600073ffffffffffffffffffffffffffffffffffffffff82169050919050565b6000620000f282620000c5565b9050919050565b6200010481620000e5565b81146200011057600080fd5b50565b6000815190506200012481620000f9565b92915050565b600060208284031215620001435762000142620000c0565b5b6000620001538482850162000113565b91505092915050565b6127cc806200016c6000396000f3fe608060405234801561001057600080fd5b50600436106101375760003560e01c80637547c7a3116100b8578063c7b3564e1161007c578063c7b3564e14610338578063c9b3829f14610354578063d4f1e38614610370578063e0d64b371461037a578063f7977a0a146103b5578063f851a440146103d357610137565b80637547c7a31461028457806380f2110a146102a0578063a721ebdd146102d0578063b17146c8146102ec578063c07473f61461030857610137565b806327855b13116100ff57806327855b13146101f25780633b72bad5146102105780635dcc93911461022c57806367be46731461024a57806372bae6741461026857610137565b8063013eba921461013c5780630a2742801461016c5780630d67f59e1461018857806316934fc4146101a657806325d5971f146101d6575b600080fd5b610156600480360381019061015191906118ac565b6103f1565b60405161016391906118f2565b60405180910390f35b61018660048036038101906101819190611a53565b610409565b005b6101906105f0565b60405161019d9190611bb9565b60405180910390f35b6101c060048036038101906101bb91906118ac565b610616565b6040516101cd91906118f2565b60405180910390f35b6101f060048036038101906101eb9190611c00565b61062e565b005b6101fa6107e6565b60405161020791906118f2565b60405180910390f35b61022a60048036038101906102259190611c00565b6107ed565b005b610234610992565b60405161024191906118f2565b60405180910390f35b61025261099a565b60405161025f91906118f2565b60405180910390f35b610282600480360381019061027d9190611c2d565b6109a0565b005b61029e60048036038101906102999190611c00565b610aa9565b005b6102ba60048036038101906102b59190611c00565b610c6e565b6040516102c791906118f2565b60405180910390f35b6102ea60048036038101906102e59190611c6d565b610c9c565b005b61030660048036038101906103019190611c6d565b610d83565b005b610322600480360381019061031d91906118ac565b610e6a565b60405161032f91906118f2565b60405180910390f35b610352600480360381019061034d9190611c6d565b610e82565b005b61036e60048036038101906103699190611c00565b610f69565b005b610378611071565b005b610394600480360381019061038f9190611c00565b61134f565b6040516103ac9c9b9a99989796959493929190611d57565b60405180910390f35b6103bd61180f565b6040516103ca91906118f2565b60405180910390f35b6103db611814565b6040516103e89190611e49565b60405180910390f35b60026020528060005260406000206000915090505481565b6040518061018001604052808681526020018581526020018481526020016040518060200160405280600081525081526020016040518060200160405280600081525081526020016040518060200160405280600081525081526020018381526020018281526020013373ffffffffffffffffffffffffffffffffffffffff16815260200160008152602001428152602001600081525060036000600454815260200190815260200160002060008201518160000190816104ca9190612066565b5060208201518160010190816104e09190612066565b5060408201518160020190816104f69190612066565b50606082015181600301908161050c9190612066565b5060808201518160040190816105229190612066565b5060a08201518160050190816105389190612066565b5060c082015181600601908161054e9190612066565b5060e08201518160070190816105649190612066565b506101008201518160080160006101000a81548173ffffffffffffffffffffffffffffffffffffffff021916908373ffffffffffffffffffffffffffffffffffffffff160217905550610120820151816009015561014082015181600a015561016082015181600b0155905050600460008154809291906105e490612167565b91905055505050505050565b600660009054906101000a900473ffffffffffffffffffffffffffffffffffffffff1681565b60006020528060005260406000206000915090505481565b806000803373ffffffffffffffffffffffffffffffffffffffff1673ffffffffffffffffffffffffffffffffffffffff1681526020019081526020016000205410156106af576040517f08c379a00000000000000000000000000000000000000000000000000000000081526004016106a6906121fb565b60405180910390fd5b806000803373ffffffffffffffffffffffffffffffffffffffff1673ffffffffffffffffffffffffffffffffffffffff16815260200190815260200160002060008282546106fd919061221b565b92505081905550600660009054906101000a900473ffffffffffffffffffffffffffffffffffffffff1673ffffffffffffffffffffffffffffffffffffffff1663a9059cbb33836040518363ffffffff1660e01b815260040161076192919061224f565b6020604051808303816000875af1158015610780573d6000803e3d6000fd5b505050506040513d601f19601f820116820180604052508101906107a491906122b0565b6107e3576040517f08c379a00000000000000000000000000000000000000000000000000000000081526004016107da90612329565b60405180910390fd5b50565b62278d0081565b600560009054906101000a900473ffffffffffffffffffffffffffffffffffffffff1673ffffffffffffffffffffffffffffffffffffffff163373ffffffffffffffffffffffffffffffffffffffff161461087d576040517f08c379a0000000000000000000000000000000000000000000000000000000008152600401610874906123bb565b60405180910390fd5b60046003600083815260200190815260200160002060090154036108d6576040517f08c379a00000000000000000000000000000000000000000000000000000000081526004016108cd9061244d565b60405180910390fd5b6001600360008381526020019081526020016000206009015403610915576002600360008381526020019081526020016000206009018190555061098f565b60026003600083815260200190815260200160002060090154036109535760038060008381526020019081526020016000206009018190555061098e565b6003806000838152602001908152602001600020600901540361098d57600460036000838152602001908152602001600020600901819055505b5b5b50565b6301e1338081565b60045481565b6000600160003373ffffffffffffffffffffffffffffffffffffffff1673ffffffffffffffffffffffffffffffffffffffff1681526020019081526020016000205411610a22576040517f08c379a0000000000000000000000000000000000000000000000000000000008152600401610a19906124b9565b60405180910390fd5b80600160003373ffffffffffffffffffffffffffffffffffffffff1673ffffffffffffffffffffffffffffffffffffffff1681526020019081526020016000206000828254610a71919061221b565b925050819055508060036000848152602001908152602001600020600b016000828254610a9e91906124d9565b925050819055505050565b600660009054906101000a900473ffffffffffffffffffffffffffffffffffffffff1673ffffffffffffffffffffffffffffffffffffffff166323b872dd3330846040518463ffffffff1660e01b8152600401610b089392919061250d565b6020604051808303816000875af1158015610b27573d6000803e3d6000fd5b505050506040513d601f19601f82011682018060405250810190610b4b91906122b0565b610b8a576040517f08c379a0000000000000000000000000000000000000000000000000000000008152600401610b8190612329565b60405180910390fd5b806000803373ffffffffffffffffffffffffffffffffffffffff1673ffffffffffffffffffffffffffffffffffffffff1681526020019081526020016000206000828254610bd891906124d9565b925050819055506000600260003373ffffffffffffffffffffffffffffffffffffffff1673ffffffffffffffffffffffffffffffffffffffff1681526020019081526020016000205403610c6b5742600260003373ffffffffffffffffffffffffffffffffffffffff1673ffffffffffffffffffffffffffffffffffffffff168152602001908152602001600020819055505b50565b6000600c6064600384610c819190612544565b610c8b91906125b5565b610c9591906125b5565b9050919050565b3373ffffffffffffffffffffffffffffffffffffffff166003600084815260200190815260200160002060080160009054906101000a900473ffffffffffffffffffffffffffffffffffffffff1673ffffffffffffffffffffffffffffffffffffffff1614610d40576040517f08c379a0000000000000000000000000000000000000000000000000000000008152600401610d3790612632565b60405180910390fd5b80600360008481526020019081526020016000206004019081610d639190612066565b504260036000848152602001908152602001600020600a01819055505050565b3373ffffffffffffffffffffffffffffffffffffffff166003600084815260200190815260200160002060080160009054906101000a900473ffffffffffffffffffffffffffffffffffffffff1673ffffffffffffffffffffffffffffffffffffffff1614610e27576040517f08c379a0000000000000000000000000000000000000000000000000000000008152600401610e1e90612632565b60405180910390fd5b80600360008481526020019081526020016000206003019081610e4a9190612066565b504260036000848152602001908152602001600020600a01819055505050565b60016020528060005260406000206000915090505481565b3373ffffffffffffffffffffffffffffffffffffffff166003600084815260200190815260200160002060080160009054906101000a900473ffffffffffffffffffffffffffffffffffffffff1673ffffffffffffffffffffffffffffffffffffffff1614610f26576040517f08c379a0000000000000000000000000000000000000000000000000000000008152600401610f1d90612632565b60405180910390fd5b80600360008481526020019081526020016000206005019081610f499190612066565b504260036000848152602001908152602001600020600a01819055505050565b600560009054906101000a900473ffffffffffffffffffffffffffffffffffffffff1673ffffffffffffffffffffffffffffffffffffffff163373ffffffffffffffffffffffffffffffffffffffff1614610ff9576040517f08c379a0000000000000000000000000000000000000000000000000000000008152600401610ff0906123bb565b60405180910390fd5b6000600360008381526020019081526020016000206009015414611052576040517f08c379a00000000000000000000000000000000000000000000000000000000081526004016110499061269e565b60405180910390fd5b6001600360008381526020019081526020016000206009018190555050565b60008060003373ffffffffffffffffffffffffffffffffffffffff1673ffffffffffffffffffffffffffffffffffffffff16815260200190815260200160002054116110f2576040517f08c379a00000000000000000000000000000000000000000000000000000000081526004016110e99061270a565b60405180910390fd5b6000600260003373ffffffffffffffffffffffffffffffffffffffff1673ffffffffffffffffffffffffffffffffffffffff168152602001908152602001600020544261113f919061221b565b905062278d00811015611187576040517f08c379a000000000000000000000000000000000000000000000000000000000815260040161117e90612776565b60405180910390fd5b60006111d06000803373ffffffffffffffffffffffffffffffffffffffff1673ffffffffffffffffffffffffffffffffffffffff16815260200190815260200160002054610c6e565b905080600160003373ffffffffffffffffffffffffffffffffffffffff1673ffffffffffffffffffffffffffffffffffffffff168152602001908152602001600020600082825461122191906124d9565b9250508190555042600260003373ffffffffffffffffffffffffffffffffffffffff1673ffffffffffffffffffffffffffffffffffffffff16815260200190815260200160002081905550600660009054906101000a900473ffffffffffffffffffffffffffffffffffffffff1673ffffffffffffffffffffffffffffffffffffffff1663a9059cbb33836040518363ffffffff1660e01b81526004016112c992919061224f565b6020604051808303816000875af11580156112e8573d6000803e3d6000fd5b505050506040513d601f19601f8201168201806040525081019061130c91906122b0565b61134b576040517f08c379a000000000000000000000000000000000000000000000000000000000815260040161134290612329565b60405180910390fd5b5050565b600360205280600052604060002060009150905080600001805461137290611e93565b80601f016020809104026020016040519081016040528092919081815260200182805461139e90611e93565b80156113eb5780601f106113c0576101008083540402835291602001916113eb565b820191906000526020600020905b8154815290600101906020018083116113ce57829003601f168201915b50505050509080600101805461140090611e93565b80601f016020809104026020016040519081016040528092919081815260200182805461142c90611e93565b80156114795780601f1061144e57610100808354040283529160200191611479565b820191906000526020600020905b81548152906001019060200180831161145c57829003601f168201915b50505050509080600201805461148e90611e93565b80601f01602080910402602001604051908101604052809291908181526020018280546114ba90611e93565b80156115075780601f106114dc57610100808354040283529160200191611507565b820191906000526020600020905b8154815290600101906020018083116114ea57829003601f168201915b50505050509080600301805461151c90611e93565b80601f016020809104026020016040519081016040528092919081815260200182805461154890611e93565b80156115955780601f1061156a57610100808354040283529160200191611595565b820191906000526020600020905b81548152906001019060200180831161157857829003601f168201915b5050505050908060040180546115aa90611e93565b80601f01602080910402602001604051908101604052809291908181526020018280546115d690611e93565b80156116235780601f106115f857610100808354040283529160200191611623565b820191906000526020600020905b81548152906001019060200180831161160657829003601f168201915b50505050509080600501805461163890611e93565b80601f016020809104026020016040519081016040528092919081815260200182805461166490611e93565b80156116b15780601f10611686576101008083540402835291602001916116b1565b820191906000526020600020905b81548152906001019060200180831161169457829003601f168201915b5050505050908060060180546116c690611e93565b80601f01602080910402602001604051908101604052809291908181526020018280546116f290611e93565b801561173f5780601f106117145761010080835404028352916020019161173f565b820191906000526020600020905b81548152906001019060200180831161172257829003601f168201915b50505050509080600701805461175490611e93565b80601f016020809104026020016040519081016040528092919081815260200182805461178090611e93565b80156117cd5780601f106117a2576101008083540402835291602001916117cd565b820191906000526020600020905b8154815290600101906020018083116117b057829003601f168201915b5050505050908060080160009054906101000a900473ffffffffffffffffffffffffffffffffffffffff169080600901549080600a01549080600b015490508c565b600381565b600560009054906101000a900473ffffffffffffffffffffffffffffffffffffffff1681565b6000604051905090565b600080fd5b600080fd5b600073ffffffffffffffffffffffffffffffffffffffff82169050919050565b60006118798261184e565b9050919050565b6118898161186e565b811461189457600080fd5b50565b6000813590506118a681611880565b92915050565b6000602082840312156118c2576118c1611844565b5b60006118d084828501611897565b91505092915050565b6000819050919050565b6118ec816118d9565b82525050565b600060208201905061190760008301846118e3565b92915050565b600080fd5b600080fd5b6000601f19601f8301169050919050565b7f4e487b7100000000000000000000000000000000000000000000000000000000600052604160045260246000fd5b61196082611917565b810181811067ffffffffffffffff8211171561197f5761197e611928565b5b80604052505050565b600061199261183a565b905061199e8282611957565b919050565b600067ffffffffffffffff8211156119be576119bd611928565b5b6119c782611917565b9050602081019050919050565b82818337600083830152505050565b60006119f66119f1846119a3565b611988565b905082815260208101848484011115611a1257611a11611912565b5b611a1d8482856119d4565b509392505050565b600082601f830112611a3a57611a3961190d565b5b8135611a4a8482602086016119e3565b91505092915050565b600080600080600060a08688031215611a6f57611a6e611844565b5b600086013567ffffffffffffffff811115611a8d57611a8c611849565b5b611a9988828901611a25565b955050602086013567ffffffffffffffff811115611aba57611ab9611849565b5b611ac688828901611a25565b945050604086013567ffffffffffffffff811115611ae757611ae6611849565b5b611af388828901611a25565b935050606086013567ffffffffffffffff811115611b1457611b13611849565b5b611b2088828901611a25565b925050608086013567ffffffffffffffff811115611b4157611b40611849565b5b611b4d88828901611a25565b9150509295509295909350565b6000819050919050565b6000611b7f611b7a611b758461184e565b611b5a565b61184e565b9050919050565b6000611b9182611b64565b9050919050565b6000611ba382611b86565b9050919050565b611bb381611b98565b82525050565b6000602082019050611bce6000830184611baa565b92915050565b611bdd816118d9565b8114611be857600080fd5b50565b600081359050611bfa81611bd4565b92915050565b600060208284031215611c1657611c15611844565b5b6000611c2484828501611beb565b91505092915050565b60008060408385031215611c4457611c43611844565b5b6000611c5285828601611beb565b9250506020611c6385828601611beb565b9150509250929050565b60008060408385031215611c8457611c83611844565b5b6000611c9285828601611beb565b925050602083013567ffffffffffffffff811115611cb357611cb2611849565b5b611cbf85828601611a25565b9150509250929050565b600081519050919050565b600082825260208201905092915050565b60005b83811015611d03578082015181840152602081019050611ce8565b60008484015250505050565b6000611d1a82611cc9565b611d248185611cd4565b9350611d34818560208601611ce5565b611d3d81611917565b840191505092915050565b611d518161186e565b82525050565b6000610180820190508181036000830152611d72818f611d0f565b90508181036020830152611d86818e611d0f565b90508181036040830152611d9a818d611d0f565b90508181036060830152611dae818c611d0f565b90508181036080830152611dc2818b611d0f565b905081810360a0830152611dd6818a611d0f565b905081810360c0830152611dea8189611d0f565b905081810360e0830152611dfe8188611d0f565b9050611e0e610100830187611d48565b611e1c6101208301866118e3565b611e2a6101408301856118e3565b611e386101608301846118e3565b9d9c50505050505050505050505050565b6000602082019050611e5e6000830184611d48565b92915050565b7f4e487b7100000000000000000000000000000000000000000000000000000000600052602260045260246000fd5b60006002820490506001821680611eab57607f821691505b602082108103611ebe57611ebd611e64565b5b50919050565b60008190508160005260206000209050919050565b60006020601f8301049050919050565b600082821b905092915050565b600060088302611f267fffffffffffffffffffffffffffffffffffffffffffffffffffffffffffffffff82611ee9565b611f308683611ee9565b95508019841693508086168417925050509392505050565b6000611f63611f5e611f59846118d9565b611b5a565b6118d9565b9050919050565b6000819050919050565b611f7d83611f48565b611f91611f8982611f6a565b848454611ef6565b825550505050565b600090565b611fa6611f99565b611fb1818484611f74565b505050565b5b81811015611fd557611fca600082611f9e565b600181019050611fb7565b5050565b601f82111561201a57611feb81611ec4565b611ff484611ed9565b81016020851015612003578190505b61201761200f85611ed9565b830182611fb6565b50505b505050565b600082821c905092915050565b600061203d6000198460080261201f565b1980831691505092915050565b6000612056838361202c565b9150826002028217905092915050565b61206f82611cc9565b67ffffffffffffffff81111561208857612087611928565b5b6120928254611e93565b61209d828285611fd9565b600060209050601f8311600181146120d057600084156120be578287015190505b6120c8858261204a565b865550612130565b601f1984166120de86611ec4565b60005b82811015612106578489015182556001820191506020850194506020810190506120e1565b86831015612123578489015161211f601f89168261202c565b8355505b6001600288020188555050505b505050505050565b7f4e487b7100000000000000000000000000000000000000000000000000000000600052601160045260246000fd5b6000612172826118d9565b91507fffffffffffffffffffffffffffffffffffffffffffffffffffffffffffffffff82036121a4576121a3612138565b5b600182019050919050565b7f496e73756666696369656e74207374616b656420616d6f756e74000000000000600082015250565b60006121e5601a83611cd4565b91506121f0826121af565b602082019050919050565b60006020820190508181036000830152612214816121d8565b9050919050565b6000612226826118d9565b9150612231836118d9565b925082820390508181111561224957612248612138565b5b92915050565b60006040820190506122646000830185611d48565b61227160208301846118e3565b9392505050565b60008115159050919050565b61228d81612278565b811461229857600080fd5b50565b6000815190506122aa81612284565b92915050565b6000602082840312156122c6576122c5611844565b5b60006122d48482850161229b565b91505092915050565b7f546f6b656e207472616e73666572206661696c65640000000000000000000000600082015250565b6000612313601583611cd4565b915061231e826122dd565b602082019050919050565b6000602082019050818103600083015261234281612306565b9050919050565b7f4f6e6c792061646d696e2063616e20706572666f726d2074686973206163746960008201527f6f6e000000000000000000000000000000000000000000000000000000000000602082015250565b60006123a5602283611cd4565b91506123b082612349565b604082019050919050565b600060208201905081810360008301526123d481612398565b9050919050565b7f456c656d656e7420697320616c726561647920696e207468652050726573746960008201527f6765207068617365000000000000000000000000000000000000000000000000602082015250565b6000612437602883611cd4565b9150612442826123db565b604082019050919050565b600060208201905081810360008301526124668161242a565b9050919050565b7f4e6f20766f74696e6720706f7765720000000000000000000000000000000000600082015250565b60006124a3600f83611cd4565b91506124ae8261246d565b602082019050919050565b600060208201905081810360008301526124d281612496565b9050919050565b60006124e4826118d9565b91506124ef836118d9565b925082820190508082111561250757612506612138565b5b92915050565b60006060820190506125226000830186611d48565b61252f6020830185611d48565b61253c60408301846118e3565b949350505050565b600061254f826118d9565b915061255a836118d9565b9250828202612568816118d9565b9150828204841483151761257f5761257e612138565b5b5092915050565b7f4e487b7100000000000000000000000000000000000000000000000000000000600052601260045260246000fd5b60006125c0826118d9565b91506125cb836118d9565b9250826125db576125da612586565b5b828204905092915050565b7f4f6e6c792063726561746f722063616e20757064617465000000000000000000600082015250565b600061261c601783611cd4565b9150612627826125e6565b602082019050919050565b6000602082019050818103600083015261264b8161260f565b9050919050565b7f456c656d656e74206973206e6f742070656e64696e6720617070726f76616c00600082015250565b6000612688601f83611cd4565b915061269382612652565b602082019050919050565b600060208201905081810360008301526126b78161267b565b9050919050565b7f4e6f207374616b656420616d6f756e7400000000000000000000000000000000600082015250565b60006126f4601083611cd4565b91506126ff826126be565b602082019050919050565b60006020820190508181036000830152612723816126e7565b9050919050565b7f43616e6e6f7420636c61696d206265666f72652061206d6f6e74680000000000600082015250565b6000612760601b83611cd4565b915061276b8261272a565b602082019050919050565b6000602082019050818103600083015261278f81612753565b905091905056fea26469706673582212208b140c93a3ebb3d450bafceaa16f8f5e30e2d103aaa63d6f434aaf5c3a9e10f764736f6c63430008120033",
			"opcodes": "PUSH1 0x80 PUSH1 0x40 MSTORE CALLVALUE DUP1 ISZERO PUSH3 0x11 JUMPI PUSH1 0x0 DUP1 REVERT JUMPDEST POP PUSH1 0x40 MLOAD PUSH3 0x2938 CODESIZE SUB DUP1 PUSH3 0x2938 DUP4 CODECOPY DUP2 DUP2 ADD PUSH1 0x40 MSTORE DUP2 ADD SWAP1 PUSH3 0x37 SWAP2 SWAP1 PUSH3 0x12A JUMP JUMPDEST CALLER PUSH1 0x5 PUSH1 0x0 PUSH2 0x100 EXP DUP2 SLOAD DUP2 PUSH20 0xFFFFFFFFFFFFFFFFFFFFFFFFFFFFFFFFFFFFFFFF MUL NOT AND SWAP1 DUP4 PUSH20 0xFFFFFFFFFFFFFFFFFFFFFFFFFFFFFFFFFFFFFFFF AND MUL OR SWAP1 SSTORE POP DUP1 PUSH1 0x6 PUSH1 0x0 PUSH2 0x100 EXP DUP2 SLOAD DUP2 PUSH20 0xFFFFFFFFFFFFFFFFFFFFFFFFFFFFFFFFFFFFFFFF MUL NOT AND SWAP1 DUP4 PUSH20 0xFFFFFFFFFFFFFFFFFFFFFFFFFFFFFFFFFFFFFFFF AND MUL OR SWAP1 SSTORE POP POP PUSH3 0x15C JUMP JUMPDEST PUSH1 0x0 DUP1 REVERT JUMPDEST PUSH1 0x0 PUSH20 0xFFFFFFFFFFFFFFFFFFFFFFFFFFFFFFFFFFFFFFFF DUP3 AND SWAP1 POP SWAP2 SWAP1 POP JUMP JUMPDEST PUSH1 0x0 PUSH3 0xF2 DUP3 PUSH3 0xC5 JUMP JUMPDEST SWAP1 POP SWAP2 SWAP1 POP JUMP JUMPDEST PUSH3 0x104 DUP2 PUSH3 0xE5 JUMP JUMPDEST DUP2 EQ PUSH3 0x110 JUMPI PUSH1 0x0 DUP1 REVERT JUMPDEST POP JUMP JUMPDEST PUSH1 0x0 DUP2 MLOAD SWAP1 POP PUSH3 0x124 DUP2 PUSH3 0xF9 JUMP JUMPDEST SWAP3 SWAP2 POP POP JUMP JUMPDEST PUSH1 0x0 PUSH1 0x20 DUP3 DUP5 SUB SLT ISZERO PUSH3 0x143 JUMPI PUSH3 0x142 PUSH3 0xC0 JUMP JUMPDEST JUMPDEST PUSH1 0x0 PUSH3 0x153 DUP5 DUP3 DUP6 ADD PUSH3 0x113 JUMP JUMPDEST SWAP2 POP POP SWAP3 SWAP2 POP POP JUMP JUMPDEST PUSH2 0x27CC DUP1 PUSH3 0x16C PUSH1 0x0 CODECOPY PUSH1 0x0 RETURN INVALID PUSH1 0x80 PUSH1 0x40 MSTORE CALLVALUE DUP1 ISZERO PUSH2 0x10 JUMPI PUSH1 0x0 DUP1 REVERT JUMPDEST POP PUSH1 0x4 CALLDATASIZE LT PUSH2 0x137 JUMPI PUSH1 0x0 CALLDATALOAD PUSH1 0xE0 SHR DUP1 PUSH4 0x7547C7A3 GT PUSH2 0xB8 JUMPI DUP1 PUSH4 0xC7B3564E GT PUSH2 0x7C JUMPI DUP1 PUSH4 0xC7B3564E EQ PUSH2 0x338 JUMPI DUP1 PUSH4 0xC9B3829F EQ PUSH2 0x354 JUMPI DUP1 PUSH4 0xD4F1E386 EQ PUSH2 0x370 JUMPI DUP1 PUSH4 0xE0D64B37 EQ PUSH2 0x37A JUMPI DUP1 PUSH4 0xF7977A0A EQ PUSH2 0x3B5 JUMPI DUP1 PUSH4 0xF851A440 EQ PUSH2 0x3D3 JUMPI PUSH2 0x137 JUMP JUMPDEST DUP1 PUSH4 0x7547C7A3 EQ PUSH2 0x284 JUMPI DUP1 PUSH4 0x80F2110A EQ PUSH2 0x2A0 JUMPI DUP1 PUSH4 0xA721EBDD EQ PUSH2 0x2D0 JUMPI DUP1 PUSH4 0xB17146C8 EQ PUSH2 0x2EC JUMPI DUP1 PUSH4 0xC07473F6 EQ PUSH2 0x308 JUMPI PUSH2 0x137 JUMP JUMPDEST DUP1 PUSH4 0x27855B13 GT PUSH2 0xFF JUMPI DUP1 PUSH4 0x27855B13 EQ PUSH2 0x1F2 JUMPI DUP1 PUSH4 0x3B72BAD5 EQ PUSH2 0x210 JUMPI DUP1 PUSH4 0x5DCC9391 EQ PUSH2 0x22C JUMPI DUP1 PUSH4 0x67BE4673 EQ PUSH2 0x24A JUMPI DUP1 PUSH4 0x72BAE674 EQ PUSH2 0x268 JUMPI PUSH2 0x137 JUMP JUMPDEST DUP1 PUSH4 0x13EBA92 EQ PUSH2 0x13C JUMPI DUP1 PUSH4 0xA274280 EQ PUSH2 0x16C JUMPI DUP1 PUSH4 0xD67F59E EQ PUSH2 0x188 JUMPI DUP1 PUSH4 0x16934FC4 EQ PUSH2 0x1A6 JUMPI DUP1 PUSH4 0x25D5971F EQ PUSH2 0x1D6 JUMPI JUMPDEST PUSH1 0x0 DUP1 REVERT JUMPDEST PUSH2 0x156 PUSH1 0x4 DUP1 CALLDATASIZE SUB DUP2 ADD SWAP1 PUSH2 0x151 SWAP2 SWAP1 PUSH2 0x18AC JUMP JUMPDEST PUSH2 0x3F1 JUMP JUMPDEST PUSH1 0x40 MLOAD PUSH2 0x163 SWAP2 SWAP1 PUSH2 0x18F2 JUMP JUMPDEST PUSH1 0x40 MLOAD DUP1 SWAP2 SUB SWAP1 RETURN JUMPDEST PUSH2 0x186 PUSH1 0x4 DUP1 CALLDATASIZE SUB DUP2 ADD SWAP1 PUSH2 0x181 SWAP2 SWAP1 PUSH2 0x1A53 JUMP JUMPDEST PUSH2 0x409 JUMP JUMPDEST STOP JUMPDEST PUSH2 0x190 PUSH2 0x5F0 JUMP JUMPDEST PUSH1 0x40 MLOAD PUSH2 0x19D SWAP2 SWAP1 PUSH2 0x1BB9 JUMP JUMPDEST PUSH1 0x40 MLOAD DUP1 SWAP2 SUB SWAP1 RETURN JUMPDEST PUSH2 0x1C0 PUSH1 0x4 DUP1 CALLDATASIZE SUB DUP2 ADD SWAP1 PUSH2 0x1BB SWAP2 SWAP1 PUSH2 0x18AC JUMP JUMPDEST PUSH2 0x616 JUMP JUMPDEST PUSH1 0x40 MLOAD PUSH2 0x1CD SWAP2 SWAP1 PUSH2 0x18F2 JUMP JUMPDEST PUSH1 0x40 MLOAD DUP1 SWAP2 SUB SWAP1 RETURN JUMPDEST PUSH2 0x1F0 PUSH1 0x4 DUP1 CALLDATASIZE SUB DUP2 ADD SWAP1 PUSH2 0x1EB SWAP2 SWAP1 PUSH2 0x1C00 JUMP JUMPDEST PUSH2 0x62E JUMP JUMPDEST STOP JUMPDEST PUSH2 0x1FA PUSH2 0x7E6 JUMP JUMPDEST PUSH1 0x40 MLOAD PUSH2 0x207 SWAP2 SWAP1 PUSH2 0x18F2 JUMP JUMPDEST PUSH1 0x40 MLOAD DUP1 SWAP2 SUB SWAP1 RETURN JUMPDEST PUSH2 0x22A PUSH1 0x4 DUP1 CALLDATASIZE SUB DUP2 ADD SWAP1 PUSH2 0x225 SWAP2 SWAP1 PUSH2 0x1C00 JUMP JUMPDEST PUSH2 0x7ED JUMP JUMPDEST STOP JUMPDEST PUSH2 0x234 PUSH2 0x992 JUMP JUMPDEST PUSH1 0x40 MLOAD PUSH2 0x241 SWAP2 SWAP1 PUSH2 0x18F2 JUMP JUMPDEST PUSH1 0x40 MLOAD DUP1 SWAP2 SUB SWAP1 RETURN JUMPDEST PUSH2 0x252 PUSH2 0x99A JUMP JUMPDEST PUSH1 0x40 MLOAD PUSH2 0x25F SWAP2 SWAP1 PUSH2 0x18F2 JUMP JUMPDEST PUSH1 0x40 MLOAD DUP1 SWAP2 SUB SWAP1 RETURN JUMPDEST PUSH2 0x282 PUSH1 0x4 DUP1 CALLDATASIZE SUB DUP2 ADD SWAP1 PUSH2 0x27D SWAP2 SWAP1 PUSH2 0x1C2D JUMP JUMPDEST PUSH2 0x9A0 JUMP JUMPDEST STOP JUMPDEST PUSH2 0x29E PUSH1 0x4 DUP1 CALLDATASIZE SUB DUP2 ADD SWAP1 PUSH2 0x299 SWAP2 SWAP1 PUSH2 0x1C00 JUMP JUMPDEST PUSH2 0xAA9 JUMP JUMPDEST STOP JUMPDEST PUSH2 0x2BA PUSH1 0x4 DUP1 CALLDATASIZE SUB DUP2 ADD SWAP1 PUSH2 0x2B5 SWAP2 SWAP1 PUSH2 0x1C00 JUMP JUMPDEST PUSH2 0xC6E JUMP JUMPDEST PUSH1 0x40 MLOAD PUSH2 0x2C7 SWAP2 SWAP1 PUSH2 0x18F2 JUMP JUMPDEST PUSH1 0x40 MLOAD DUP1 SWAP2 SUB SWAP1 RETURN JUMPDEST PUSH2 0x2EA PUSH1 0x4 DUP1 CALLDATASIZE SUB DUP2 ADD SWAP1 PUSH2 0x2E5 SWAP2 SWAP1 PUSH2 0x1C6D JUMP JUMPDEST PUSH2 0xC9C JUMP JUMPDEST STOP JUMPDEST PUSH2 0x306 PUSH1 0x4 DUP1 CALLDATASIZE SUB DUP2 ADD SWAP1 PUSH2 0x301 SWAP2 SWAP1 PUSH2 0x1C6D JUMP JUMPDEST PUSH2 0xD83 JUMP JUMPDEST STOP JUMPDEST PUSH2 0x322 PUSH1 0x4 DUP1 CALLDATASIZE SUB DUP2 ADD SWAP1 PUSH2 0x31D SWAP2 SWAP1 PUSH2 0x18AC JUMP JUMPDEST PUSH2 0xE6A JUMP JUMPDEST PUSH1 0x40 MLOAD PUSH2 0x32F SWAP2 SWAP1 PUSH2 0x18F2 JUMP JUMPDEST PUSH1 0x40 MLOAD DUP1 SWAP2 SUB SWAP1 RETURN JUMPDEST PUSH2 0x352 PUSH1 0x4 DUP1 CALLDATASIZE SUB DUP2 ADD SWAP1 PUSH2 0x34D SWAP2 SWAP1 PUSH2 0x1C6D JUMP JUMPDEST PUSH2 0xE82 JUMP JUMPDEST STOP JUMPDEST PUSH2 0x36E PUSH1 0x4 DUP1 CALLDATASIZE SUB DUP2 ADD SWAP1 PUSH2 0x369 SWAP2 SWAP1 PUSH2 0x1C00 JUMP JUMPDEST PUSH2 0xF69 JUMP JUMPDEST STOP JUMPDEST PUSH2 0x378 PUSH2 0x1071 JUMP JUMPDEST STOP JUMPDEST PUSH2 0x394 PUSH1 0x4 DUP1 CALLDATASIZE SUB DUP2 ADD SWAP1 PUSH2 0x38F SWAP2 SWAP1 PUSH2 0x1C00 JUMP JUMPDEST PUSH2 0x134F JUMP JUMPDEST PUSH1 0x40 MLOAD PUSH2 0x3AC SWAP13 SWAP12 SWAP11 SWAP10 SWAP9 SWAP8 SWAP7 SWAP6 SWAP5 SWAP4 SWAP3 SWAP2 SWAP1 PUSH2 0x1D57 JUMP JUMPDEST PUSH1 0x40 MLOAD DUP1 SWAP2 SUB SWAP1 RETURN JUMPDEST PUSH2 0x3BD PUSH2 0x180F JUMP JUMPDEST PUSH1 0x40 MLOAD PUSH2 0x3CA SWAP2 SWAP1 PUSH2 0x18F2 JUMP JUMPDEST PUSH1 0x40 MLOAD DUP1 SWAP2 SUB SWAP1 RETURN JUMPDEST PUSH2 0x3DB PUSH2 0x1814 JUMP JUMPDEST PUSH1 0x40 MLOAD PUSH2 0x3E8 SWAP2 SWAP1 PUSH2 0x1E49 JUMP JUMPDEST PUSH1 0x40 MLOAD DUP1 SWAP2 SUB SWAP1 RETURN JUMPDEST PUSH1 0x2 PUSH1 0x20 MSTORE DUP1 PUSH1 0x0 MSTORE PUSH1 0x40 PUSH1 0x0 KECCAK256 PUSH1 0x0 SWAP2 POP SWAP1 POP SLOAD DUP2 JUMP JUMPDEST PUSH1 0x40 MLOAD DUP1 PUSH2 0x180 ADD PUSH1 0x40 MSTORE DUP1 DUP7 DUP2 MSTORE PUSH1 0x20 ADD DUP6 DUP2 MSTORE PUSH1 0x20 ADD DUP5 DUP2 MSTORE PUSH1 0x20 ADD PUSH1 0x40 MLOAD DUP1 PUSH1 0x20 ADD PUSH1 0x40 MSTORE DUP1 PUSH1 0x0 DUP2 MSTORE POP DUP2 MSTORE PUSH1 0x20 ADD PUSH1 0x40 MLOAD DUP1 PUSH1 0x20 ADD PUSH1 0x40 MSTORE DUP1 PUSH1 0x0 DUP2 MSTORE POP DUP2 MSTORE PUSH1 0x20 ADD PUSH1 0x40 MLOAD DUP1 PUSH1 0x20 ADD PUSH1 0x40 MSTORE DUP1 PUSH1 0x0 DUP2 MSTORE POP DUP2 MSTORE PUSH1 0x20 ADD DUP4 DUP2 MSTORE PUSH1 0x20 ADD DUP3 DUP2 MSTORE PUSH1 0x20 ADD CALLER PUSH20 0xFFFFFFFFFFFFFFFFFFFFFFFFFFFFFFFFFFFFFFFF AND DUP2 MSTORE PUSH1 0x20 ADD PUSH1 0x0 DUP2 MSTORE PUSH1 0x20 ADD TIMESTAMP DUP2 MSTORE PUSH1 0x20 ADD PUSH1 0x0 DUP2 MSTORE POP PUSH1 0x3 PUSH1 0x0 PUSH1 0x4 SLOAD DUP2 MSTORE PUSH1 0x20 ADD SWAP1 DUP2 MSTORE PUSH1 0x20 ADD PUSH1 0x0 KECCAK256 PUSH1 0x0 DUP3 ADD MLOAD DUP2 PUSH1 0x0 ADD SWAP1 DUP2 PUSH2 0x4CA SWAP2 SWAP1 PUSH2 0x2066 JUMP JUMPDEST POP PUSH1 0x20 DUP3 ADD MLOAD DUP2 PUSH1 0x1 ADD SWAP1 DUP2 PUSH2 0x4E0 SWAP2 SWAP1 PUSH2 0x2066 JUMP JUMPDEST POP PUSH1 0x40 DUP3 ADD MLOAD DUP2 PUSH1 0x2 ADD SWAP1 DUP2 PUSH2 0x4F6 SWAP2 SWAP1 PUSH2 0x2066 JUMP JUMPDEST POP PUSH1 0x60 DUP3 ADD MLOAD DUP2 PUSH1 0x3 ADD SWAP1 DUP2 PUSH2 0x50C SWAP2 SWAP1 PUSH2 0x2066 JUMP JUMPDEST POP PUSH1 0x80 DUP3 ADD MLOAD DUP2 PUSH1 0x4 ADD SWAP1 DUP2 PUSH2 0x522 SWAP2 SWAP1 PUSH2 0x2066 JUMP JUMPDEST POP PUSH1 0xA0 DUP3 ADD MLOAD DUP2 PUSH1 0x5 ADD SWAP1 DUP2 PUSH2 0x538 SWAP2 SWAP1 PUSH2 0x2066 JUMP JUMPDEST POP PUSH1 0xC0 DUP3 ADD MLOAD DUP2 PUSH1 0x6 ADD SWAP1 DUP2 PUSH2 0x54E SWAP2 SWAP1 PUSH2 0x2066 JUMP JUMPDEST POP PUSH1 0xE0 DUP3 ADD MLOAD DUP2 PUSH1 0x7 ADD SWAP1 DUP2 PUSH2 0x564 SWAP2 SWAP1 PUSH2 0x2066 JUMP JUMPDEST POP PUSH2 0x100 DUP3 ADD MLOAD DUP2 PUSH1 0x8 ADD PUSH1 0x0 PUSH2 0x100 EXP DUP2 SLOAD DUP2 PUSH20 0xFFFFFFFFFFFFFFFFFFFFFFFFFFFFFFFFFFFFFFFF MUL NOT AND SWAP1 DUP4 PUSH20 0xFFFFFFFFFFFFFFFFFFFFFFFFFFFFFFFFFFFFFFFF AND MUL OR SWAP1 SSTORE POP PUSH2 0x120 DUP3 ADD MLOAD DUP2 PUSH1 0x9 ADD SSTORE PUSH2 0x140 DUP3 ADD MLOAD DUP2 PUSH1 0xA ADD SSTORE PUSH2 0x160 DUP3 ADD MLOAD DUP2 PUSH1 0xB ADD SSTORE SWAP1 POP POP PUSH1 0x4 PUSH1 0x0 DUP2 SLOAD DUP1 SWAP3 SWAP2 SWAP1 PUSH2 0x5E4 SWAP1 PUSH2 0x2167 JUMP JUMPDEST SWAP2 SWAP1 POP SSTORE POP POP POP POP POP POP JUMP JUMPDEST PUSH1 0x6 PUSH1 0x0 SWAP1 SLOAD SWAP1 PUSH2 0x100 EXP SWAP1 DIV PUSH20 0xFFFFFFFFFFFFFFFFFFFFFFFFFFFFFFFFFFFFFFFF AND DUP2 JUMP JUMPDEST PUSH1 0x0 PUSH1 0x20 MSTORE DUP1 PUSH1 0x0 MSTORE PUSH1 0x40 PUSH1 0x0 KECCAK256 PUSH1 0x0 SWAP2 POP SWAP1 POP SLOAD DUP2 JUMP JUMPDEST DUP1 PUSH1 0x0 DUP1 CALLER PUSH20 0xFFFFFFFFFFFFFFFFFFFFFFFFFFFFFFFFFFFFFFFF AND PUSH20 0xFFFFFFFFFFFFFFFFFFFFFFFFFFFFFFFFFFFFFFFF AND DUP2 MSTORE PUSH1 0x20 ADD SWAP1 DUP2 MSTORE PUSH1 0x20 ADD PUSH1 0x0 KECCAK256 SLOAD LT ISZERO PUSH2 0x6AF JUMPI PUSH1 0x40 MLOAD PUSH32 0x8C379A000000000000000000000000000000000000000000000000000000000 DUP2 MSTORE PUSH1 0x4 ADD PUSH2 0x6A6 SWAP1 PUSH2 0x21FB JUMP JUMPDEST PUSH1 0x40 MLOAD DUP1 SWAP2 SUB SWAP1 REVERT JUMPDEST DUP1 PUSH1 0x0 DUP1 CALLER PUSH20 0xFFFFFFFFFFFFFFFFFFFFFFFFFFFFFFFFFFFFFFFF AND PUSH20 0xFFFFFFFFFFFFFFFFFFFFFFFFFFFFFFFFFFFFFFFF AND DUP2 MSTORE PUSH1 0x20 ADD SWAP1 DUP2 MSTORE PUSH1 0x20 ADD PUSH1 0x0 KECCAK256 PUSH1 0x0 DUP3 DUP3 SLOAD PUSH2 0x6FD SWAP2 SWAP1 PUSH2 0x221B JUMP JUMPDEST SWAP3 POP POP DUP2 SWAP1 SSTORE POP PUSH1 0x6 PUSH1 0x0 SWAP1 SLOAD SWAP1 PUSH2 0x100 EXP SWAP1 DIV PUSH20 0xFFFFFFFFFFFFFFFFFFFFFFFFFFFFFFFFFFFFFFFF AND PUSH20 0xFFFFFFFFFFFFFFFFFFFFFFFFFFFFFFFFFFFFFFFF AND PUSH4 0xA9059CBB CALLER DUP4 PUSH1 0x40 MLOAD DUP4 PUSH4 0xFFFFFFFF AND PUSH1 0xE0 SHL DUP2 MSTORE PUSH1 0x4 ADD PUSH2 0x761 SWAP3 SWAP2 SWAP1 PUSH2 0x224F JUMP JUMPDEST PUSH1 0x20 PUSH1 0x40 MLOAD DUP1 DUP4 SUB DUP2 PUSH1 0x0 DUP8 GAS CALL ISZERO DUP1 ISZERO PUSH2 0x780 JUMPI RETURNDATASIZE PUSH1 0x0 DUP1 RETURNDATACOPY RETURNDATASIZE PUSH1 0x0 REVERT JUMPDEST POP POP POP POP PUSH1 0x40 MLOAD RETURNDATASIZE PUSH1 0x1F NOT PUSH1 0x1F DUP3 ADD AND DUP3 ADD DUP1 PUSH1 0x40 MSTORE POP DUP2 ADD SWAP1 PUSH2 0x7A4 SWAP2 SWAP1 PUSH2 0x22B0 JUMP JUMPDEST PUSH2 0x7E3 JUMPI PUSH1 0x40 MLOAD PUSH32 0x8C379A000000000000000000000000000000000000000000000000000000000 DUP2 MSTORE PUSH1 0x4 ADD PUSH2 0x7DA SWAP1 PUSH2 0x2329 JUMP JUMPDEST PUSH1 0x40 MLOAD DUP1 SWAP2 SUB SWAP1 REVERT JUMPDEST POP JUMP JUMPDEST PUSH3 0x278D00 DUP2 JUMP JUMPDEST PUSH1 0x5 PUSH1 0x0 SWAP1 SLOAD SWAP1 PUSH2 0x100 EXP SWAP1 DIV PUSH20 0xFFFFFFFFFFFFFFFFFFFFFFFFFFFFFFFFFFFFFFFF AND PUSH20 0xFFFFFFFFFFFFFFFFFFFFFFFFFFFFFFFFFFFFFFFF AND CALLER PUSH20 0xFFFFFFFFFFFFFFFFFFFFFFFFFFFFFFFFFFFFFFFF AND EQ PUSH2 0x87D JUMPI PUSH1 0x40 MLOAD PUSH32 0x8C379A000000000000000000000000000000000000000000000000000000000 DUP2 MSTORE PUSH1 0x4 ADD PUSH2 0x874 SWAP1 PUSH2 0x23BB JUMP JUMPDEST PUSH1 0x40 MLOAD DUP1 SWAP2 SUB SWAP1 REVERT JUMPDEST PUSH1 0x4 PUSH1 0x3 PUSH1 0x0 DUP4 DUP2 MSTORE PUSH1 0x20 ADD SWAP1 DUP2 MSTORE PUSH1 0x20 ADD PUSH1 0x0 KECCAK256 PUSH1 0x9 ADD SLOAD SUB PUSH2 0x8D6 JUMPI PUSH1 0x40 MLOAD PUSH32 0x8C379A000000000000000000000000000000000000000000000000000000000 DUP2 MSTORE PUSH1 0x4 ADD PUSH2 0x8CD SWAP1 PUSH2 0x244D JUMP JUMPDEST PUSH1 0x40 MLOAD DUP1 SWAP2 SUB SWAP1 REVERT JUMPDEST PUSH1 0x1 PUSH1 0x3 PUSH1 0x0 DUP4 DUP2 MSTORE PUSH1 0x20 ADD SWAP1 DUP2 MSTORE PUSH1 0x20 ADD PUSH1 0x0 KECCAK256 PUSH1 0x9 ADD SLOAD SUB PUSH2 0x915 JUMPI PUSH1 0x2 PUSH1 0x3 PUSH1 0x0 DUP4 DUP2 MSTORE PUSH1 0x20 ADD SWAP1 DUP2 MSTORE PUSH1 0x20 ADD PUSH1 0x0 KECCAK256 PUSH1 0x9 ADD DUP2 SWAP1 SSTORE POP PUSH2 0x98F JUMP JUMPDEST PUSH1 0x2 PUSH1 0x3 PUSH1 0x0 DUP4 DUP2 MSTORE PUSH1 0x20 ADD SWAP1 DUP2 MSTORE PUSH1 0x20 ADD PUSH1 0x0 KECCAK256 PUSH1 0x9 ADD SLOAD SUB PUSH2 0x953 JUMPI PUSH1 0x3 DUP1 PUSH1 0x0 DUP4 DUP2 MSTORE PUSH1 0x20 ADD SWAP1 DUP2 MSTORE PUSH1 0x20 ADD PUSH1 0x0 KECCAK256 PUSH1 0x9 ADD DUP2 SWAP1 SSTORE POP PUSH2 0x98E JUMP JUMPDEST PUSH1 0x3 DUP1 PUSH1 0x0 DUP4 DUP2 MSTORE PUSH1 0x20 ADD SWAP1 DUP2 MSTORE PUSH1 0x20 ADD PUSH1 0x0 KECCAK256 PUSH1 0x9 ADD SLOAD SUB PUSH2 0x98D JUMPI PUSH1 0x4 PUSH1 0x3 PUSH1 0x0 DUP4 DUP2 MSTORE PUSH1 0x20 ADD SWAP1 DUP2 MSTORE PUSH1 0x20 ADD PUSH1 0x0 KECCAK256 PUSH1 0x9 ADD DUP2 SWAP1 SSTORE POP JUMPDEST JUMPDEST JUMPDEST POP JUMP JUMPDEST PUSH4 0x1E13380 DUP2 JUMP JUMPDEST PUSH1 0x4 SLOAD DUP2 JUMP JUMPDEST PUSH1 0x0 PUSH1 0x1 PUSH1 0x0 CALLER PUSH20 0xFFFFFFFFFFFFFFFFFFFFFFFFFFFFFFFFFFFFFFFF AND PUSH20 0xFFFFFFFFFFFFFFFFFFFFFFFFFFFFFFFFFFFFFFFF AND DUP2 MSTORE PUSH1 0x20 ADD SWAP1 DUP2 MSTORE PUSH1 0x20 ADD PUSH1 0x0 KECCAK256 SLOAD GT PUSH2 0xA22 JUMPI PUSH1 0x40 MLOAD PUSH32 0x8C379A000000000000000000000000000000000000000000000000000000000 DUP2 MSTORE PUSH1 0x4 ADD PUSH2 0xA19 SWAP1 PUSH2 0x24B9 JUMP JUMPDEST PUSH1 0x40 MLOAD DUP1 SWAP2 SUB SWAP1 REVERT JUMPDEST DUP1 PUSH1 0x1 PUSH1 0x0 CALLER PUSH20 0xFFFFFFFFFFFFFFFFFFFFFFFFFFFFFFFFFFFFFFFF AND PUSH20 0xFFFFFFFFFFFFFFFFFFFFFFFFFFFFFFFFFFFFFFFF AND DUP2 MSTORE PUSH1 0x20 ADD SWAP1 DUP2 MSTORE PUSH1 0x20 ADD PUSH1 0x0 KECCAK256 PUSH1 0x0 DUP3 DUP3 SLOAD PUSH2 0xA71 SWAP2 SWAP1 PUSH2 0x221B JUMP JUMPDEST SWAP3 POP POP DUP2 SWAP1 SSTORE POP DUP1 PUSH1 0x3 PUSH1 0x0 DUP5 DUP2 MSTORE PUSH1 0x20 ADD SWAP1 DUP2 MSTORE PUSH1 0x20 ADD PUSH1 0x0 KECCAK256 PUSH1 0xB ADD PUSH1 0x0 DUP3 DUP3 SLOAD PUSH2 0xA9E SWAP2 SWAP1 PUSH2 0x24D9 JUMP JUMPDEST SWAP3 POP POP DUP2 SWAP1 SSTORE POP POP POP JUMP JUMPDEST PUSH1 0x6 PUSH1 0x0 SWAP1 SLOAD SWAP1 PUSH2 0x100 EXP SWAP1 DIV PUSH20 0xFFFFFFFFFFFFFFFFFFFFFFFFFFFFFFFFFFFFFFFF AND PUSH20 0xFFFFFFFFFFFFFFFFFFFFFFFFFFFFFFFFFFFFFFFF AND PUSH4 0x23B872DD CALLER ADDRESS DUP5 PUSH1 0x40 MLOAD DUP5 PUSH4 0xFFFFFFFF AND PUSH1 0xE0 SHL DUP2 MSTORE PUSH1 0x4 ADD PUSH2 0xB08 SWAP4 SWAP3 SWAP2 SWAP1 PUSH2 0x250D JUMP JUMPDEST PUSH1 0x20 PUSH1 0x40 MLOAD DUP1 DUP4 SUB DUP2 PUSH1 0x0 DUP8 GAS CALL ISZERO DUP1 ISZERO PUSH2 0xB27 JUMPI RETURNDATASIZE PUSH1 0x0 DUP1 RETURNDATACOPY RETURNDATASIZE PUSH1 0x0 REVERT JUMPDEST POP POP POP POP PUSH1 0x40 MLOAD RETURNDATASIZE PUSH1 0x1F NOT PUSH1 0x1F DUP3 ADD AND DUP3 ADD DUP1 PUSH1 0x40 MSTORE POP DUP2 ADD SWAP1 PUSH2 0xB4B SWAP2 SWAP1 PUSH2 0x22B0 JUMP JUMPDEST PUSH2 0xB8A JUMPI PUSH1 0x40 MLOAD PUSH32 0x8C379A000000000000000000000000000000000000000000000000000000000 DUP2 MSTORE PUSH1 0x4 ADD PUSH2 0xB81 SWAP1 PUSH2 0x2329 JUMP JUMPDEST PUSH1 0x40 MLOAD DUP1 SWAP2 SUB SWAP1 REVERT JUMPDEST DUP1 PUSH1 0x0 DUP1 CALLER PUSH20 0xFFFFFFFFFFFFFFFFFFFFFFFFFFFFFFFFFFFFFFFF AND PUSH20 0xFFFFFFFFFFFFFFFFFFFFFFFFFFFFFFFFFFFFFFFF AND DUP2 MSTORE PUSH1 0x20 ADD SWAP1 DUP2 MSTORE PUSH1 0x20 ADD PUSH1 0x0 KECCAK256 PUSH1 0x0 DUP3 DUP3 SLOAD PUSH2 0xBD8 SWAP2 SWAP1 PUSH2 0x24D9 JUMP JUMPDEST SWAP3 POP POP DUP2 SWAP1 SSTORE POP PUSH1 0x0 PUSH1 0x2 PUSH1 0x0 CALLER PUSH20 0xFFFFFFFFFFFFFFFFFFFFFFFFFFFFFFFFFFFFFFFF AND PUSH20 0xFFFFFFFFFFFFFFFFFFFFFFFFFFFFFFFFFFFFFFFF AND DUP2 MSTORE PUSH1 0x20 ADD SWAP1 DUP2 MSTORE PUSH1 0x20 ADD PUSH1 0x0 KECCAK256 SLOAD SUB PUSH2 0xC6B JUMPI TIMESTAMP PUSH1 0x2 PUSH1 0x0 CALLER PUSH20 0xFFFFFFFFFFFFFFFFFFFFFFFFFFFFFFFFFFFFFFFF AND PUSH20 0xFFFFFFFFFFFFFFFFFFFFFFFFFFFFFFFFFFFFFFFF AND DUP2 MSTORE PUSH1 0x20 ADD SWAP1 DUP2 MSTORE PUSH1 0x20 ADD PUSH1 0x0 KECCAK256 DUP2 SWAP1 SSTORE POP JUMPDEST POP JUMP JUMPDEST PUSH1 0x0 PUSH1 0xC PUSH1 0x64 PUSH1 0x3 DUP5 PUSH2 0xC81 SWAP2 SWAP1 PUSH2 0x2544 JUMP JUMPDEST PUSH2 0xC8B SWAP2 SWAP1 PUSH2 0x25B5 JUMP JUMPDEST PUSH2 0xC95 SWAP2 SWAP1 PUSH2 0x25B5 JUMP JUMPDEST SWAP1 POP SWAP2 SWAP1 POP JUMP JUMPDEST CALLER PUSH20 0xFFFFFFFFFFFFFFFFFFFFFFFFFFFFFFFFFFFFFFFF AND PUSH1 0x3 PUSH1 0x0 DUP5 DUP2 MSTORE PUSH1 0x20 ADD SWAP1 DUP2 MSTORE PUSH1 0x20 ADD PUSH1 0x0 KECCAK256 PUSH1 0x8 ADD PUSH1 0x0 SWAP1 SLOAD SWAP1 PUSH2 0x100 EXP SWAP1 DIV PUSH20 0xFFFFFFFFFFFFFFFFFFFFFFFFFFFFFFFFFFFFFFFF AND PUSH20 0xFFFFFFFFFFFFFFFFFFFFFFFFFFFFFFFFFFFFFFFF AND EQ PUSH2 0xD40 JUMPI PUSH1 0x40 MLOAD PUSH32 0x8C379A000000000000000000000000000000000000000000000000000000000 DUP2 MSTORE PUSH1 0x4 ADD PUSH2 0xD37 SWAP1 PUSH2 0x2632 JUMP JUMPDEST PUSH1 0x40 MLOAD DUP1 SWAP2 SUB SWAP1 REVERT JUMPDEST DUP1 PUSH1 0x3 PUSH1 0x0 DUP5 DUP2 MSTORE PUSH1 0x20 ADD SWAP1 DUP2 MSTORE PUSH1 0x20 ADD PUSH1 0x0 KECCAK256 PUSH1 0x4 ADD SWAP1 DUP2 PUSH2 0xD63 SWAP2 SWAP1 PUSH2 0x2066 JUMP JUMPDEST POP TIMESTAMP PUSH1 0x3 PUSH1 0x0 DUP5 DUP2 MSTORE PUSH1 0x20 ADD SWAP1 DUP2 MSTORE PUSH1 0x20 ADD PUSH1 0x0 KECCAK256 PUSH1 0xA ADD DUP2 SWAP1 SSTORE POP POP POP JUMP JUMPDEST CALLER PUSH20 0xFFFFFFFFFFFFFFFFFFFFFFFFFFFFFFFFFFFFFFFF AND PUSH1 0x3 PUSH1 0x0 DUP5 DUP2 MSTORE PUSH1 0x20 ADD SWAP1 DUP2 MSTORE PUSH1 0x20 ADD PUSH1 0x0 KECCAK256 PUSH1 0x8 ADD PUSH1 0x0 SWAP1 SLOAD SWAP1 PUSH2 0x100 EXP SWAP1 DIV PUSH20 0xFFFFFFFFFFFFFFFFFFFFFFFFFFFFFFFFFFFFFFFF AND PUSH20 0xFFFFFFFFFFFFFFFFFFFFFFFFFFFFFFFFFFFFFFFF AND EQ PUSH2 0xE27 JUMPI PUSH1 0x40 MLOAD PUSH32 0x8C379A000000000000000000000000000000000000000000000000000000000 DUP2 MSTORE PUSH1 0x4 ADD PUSH2 0xE1E SWAP1 PUSH2 0x2632 JUMP JUMPDEST PUSH1 0x40 MLOAD DUP1 SWAP2 SUB SWAP1 REVERT JUMPDEST DUP1 PUSH1 0x3 PUSH1 0x0 DUP5 DUP2 MSTORE PUSH1 0x20 ADD SWAP1 DUP2 MSTORE PUSH1 0x20 ADD PUSH1 0x0 KECCAK256 PUSH1 0x3 ADD SWAP1 DUP2 PUSH2 0xE4A SWAP2 SWAP1 PUSH2 0x2066 JUMP JUMPDEST POP TIMESTAMP PUSH1 0x3 PUSH1 0x0 DUP5 DUP2 MSTORE PUSH1 0x20 ADD SWAP1 DUP2 MSTORE PUSH1 0x20 ADD PUSH1 0x0 KECCAK256 PUSH1 0xA ADD DUP2 SWAP1 SSTORE POP POP POP JUMP JUMPDEST PUSH1 0x1 PUSH1 0x20 MSTORE DUP1 PUSH1 0x0 MSTORE PUSH1 0x40 PUSH1 0x0 KECCAK256 PUSH1 0x0 SWAP2 POP SWAP1 POP SLOAD DUP2 JUMP JUMPDEST CALLER PUSH20 0xFFFFFFFFFFFFFFFFFFFFFFFFFFFFFFFFFFFFFFFF AND PUSH1 0x3 PUSH1 0x0 DUP5 DUP2 MSTORE PUSH1 0x20 ADD SWAP1 DUP2 MSTORE PUSH1 0x20 ADD PUSH1 0x0 KECCAK256 PUSH1 0x8 ADD PUSH1 0x0 SWAP1 SLOAD SWAP1 PUSH2 0x100 EXP SWAP1 DIV PUSH20 0xFFFFFFFFFFFFFFFFFFFFFFFFFFFFFFFFFFFFFFFF AND PUSH20 0xFFFFFFFFFFFFFFFFFFFFFFFFFFFFFFFFFFFFFFFF AND EQ PUSH2 0xF26 JUMPI PUSH1 0x40 MLOAD PUSH32 0x8C379A000000000000000000000000000000000000000000000000000000000 DUP2 MSTORE PUSH1 0x4 ADD PUSH2 0xF1D SWAP1 PUSH2 0x2632 JUMP JUMPDEST PUSH1 0x40 MLOAD DUP1 SWAP2 SUB SWAP1 REVERT JUMPDEST DUP1 PUSH1 0x3 PUSH1 0x0 DUP5 DUP2 MSTORE PUSH1 0x20 ADD SWAP1 DUP2 MSTORE PUSH1 0x20 ADD PUSH1 0x0 KECCAK256 PUSH1 0x5 ADD SWAP1 DUP2 PUSH2 0xF49 SWAP2 SWAP1 PUSH2 0x2066 JUMP JUMPDEST POP TIMESTAMP PUSH1 0x3 PUSH1 0x0 DUP5 DUP2 MSTORE PUSH1 0x20 ADD SWAP1 DUP2 MSTORE PUSH1 0x20 ADD PUSH1 0x0 KECCAK256 PUSH1 0xA ADD DUP2 SWAP1 SSTORE POP POP POP JUMP JUMPDEST PUSH1 0x5 PUSH1 0x0 SWAP1 SLOAD SWAP1 PUSH2 0x100 EXP SWAP1 DIV PUSH20 0xFFFFFFFFFFFFFFFFFFFFFFFFFFFFFFFFFFFFFFFF AND PUSH20 0xFFFFFFFFFFFFFFFFFFFFFFFFFFFFFFFFFFFFFFFF AND CALLER PUSH20 0xFFFFFFFFFFFFFFFFFFFFFFFFFFFFFFFFFFFFFFFF AND EQ PUSH2 0xFF9 JUMPI PUSH1 0x40 MLOAD PUSH32 0x8C379A000000000000000000000000000000000000000000000000000000000 DUP2 MSTORE PUSH1 0x4 ADD PUSH2 0xFF0 SWAP1 PUSH2 0x23BB JUMP JUMPDEST PUSH1 0x40 MLOAD DUP1 SWAP2 SUB SWAP1 REVERT JUMPDEST PUSH1 0x0 PUSH1 0x3 PUSH1 0x0 DUP4 DUP2 MSTORE PUSH1 0x20 ADD SWAP1 DUP2 MSTORE PUSH1 0x20 ADD PUSH1 0x0 KECCAK256 PUSH1 0x9 ADD SLOAD EQ PUSH2 0x1052 JUMPI PUSH1 0x40 MLOAD PUSH32 0x8C379A000000000000000000000000000000000000000000000000000000000 DUP2 MSTORE PUSH1 0x4 ADD PUSH2 0x1049 SWAP1 PUSH2 0x269E JUMP JUMPDEST PUSH1 0x40 MLOAD DUP1 SWAP2 SUB SWAP1 REVERT JUMPDEST PUSH1 0x1 PUSH1 0x3 PUSH1 0x0 DUP4 DUP2 MSTORE PUSH1 0x20 ADD SWAP1 DUP2 MSTORE PUSH1 0x20 ADD PUSH1 0x0 KECCAK256 PUSH1 0x9 ADD DUP2 SWAP1 SSTORE POP POP JUMP JUMPDEST PUSH1 0x0 DUP1 PUSH1 0x0 CALLER PUSH20 0xFFFFFFFFFFFFFFFFFFFFFFFFFFFFFFFFFFFFFFFF AND PUSH20 0xFFFFFFFFFFFFFFFFFFFFFFFFFFFFFFFFFFFFFFFF AND DUP2 MSTORE PUSH1 0x20 ADD SWAP1 DUP2 MSTORE PUSH1 0x20 ADD PUSH1 0x0 KECCAK256 SLOAD GT PUSH2 0x10F2 JUMPI PUSH1 0x40 MLOAD PUSH32 0x8C379A000000000000000000000000000000000000000000000000000000000 DUP2 MSTORE PUSH1 0x4 ADD PUSH2 0x10E9 SWAP1 PUSH2 0x270A JUMP JUMPDEST PUSH1 0x40 MLOAD DUP1 SWAP2 SUB SWAP1 REVERT JUMPDEST PUSH1 0x0 PUSH1 0x2 PUSH1 0x0 CALLER PUSH20 0xFFFFFFFFFFFFFFFFFFFFFFFFFFFFFFFFFFFFFFFF AND PUSH20 0xFFFFFFFFFFFFFFFFFFFFFFFFFFFFFFFFFFFFFFFF AND DUP2 MSTORE PUSH1 0x20 ADD SWAP1 DUP2 MSTORE PUSH1 0x20 ADD PUSH1 0x0 KECCAK256 SLOAD TIMESTAMP PUSH2 0x113F SWAP2 SWAP1 PUSH2 0x221B JUMP JUMPDEST SWAP1 POP PUSH3 0x278D00 DUP2 LT ISZERO PUSH2 0x1187 JUMPI PUSH1 0x40 MLOAD PUSH32 0x8C379A000000000000000000000000000000000000000000000000000000000 DUP2 MSTORE PUSH1 0x4 ADD PUSH2 0x117E SWAP1 PUSH2 0x2776 JUMP JUMPDEST PUSH1 0x40 MLOAD DUP1 SWAP2 SUB SWAP1 REVERT JUMPDEST PUSH1 0x0 PUSH2 0x11D0 PUSH1 0x0 DUP1 CALLER PUSH20 0xFFFFFFFFFFFFFFFFFFFFFFFFFFFFFFFFFFFFFFFF AND PUSH20 0xFFFFFFFFFFFFFFFFFFFFFFFFFFFFFFFFFFFFFFFF AND DUP2 MSTORE PUSH1 0x20 ADD SWAP1 DUP2 MSTORE PUSH1 0x20 ADD PUSH1 0x0 KECCAK256 SLOAD PUSH2 0xC6E JUMP JUMPDEST SWAP1 POP DUP1 PUSH1 0x1 PUSH1 0x0 CALLER PUSH20 0xFFFFFFFFFFFFFFFFFFFFFFFFFFFFFFFFFFFFFFFF AND PUSH20 0xFFFFFFFFFFFFFFFFFFFFFFFFFFFFFFFFFFFFFFFF AND DUP2 MSTORE PUSH1 0x20 ADD SWAP1 DUP2 MSTORE PUSH1 0x20 ADD PUSH1 0x0 KECCAK256 PUSH1 0x0 DUP3 DUP3 SLOAD PUSH2 0x1221 SWAP2 SWAP1 PUSH2 0x24D9 JUMP JUMPDEST SWAP3 POP POP DUP2 SWAP1 SSTORE POP TIMESTAMP PUSH1 0x2 PUSH1 0x0 CALLER PUSH20 0xFFFFFFFFFFFFFFFFFFFFFFFFFFFFFFFFFFFFFFFF AND PUSH20 0xFFFFFFFFFFFFFFFFFFFFFFFFFFFFFFFFFFFFFFFF AND DUP2 MSTORE PUSH1 0x20 ADD SWAP1 DUP2 MSTORE PUSH1 0x20 ADD PUSH1 0x0 KECCAK256 DUP2 SWAP1 SSTORE POP PUSH1 0x6 PUSH1 0x0 SWAP1 SLOAD SWAP1 PUSH2 0x100 EXP SWAP1 DIV PUSH20 0xFFFFFFFFFFFFFFFFFFFFFFFFFFFFFFFFFFFFFFFF AND PUSH20 0xFFFFFFFFFFFFFFFFFFFFFFFFFFFFFFFFFFFFFFFF AND PUSH4 0xA9059CBB CALLER DUP4 PUSH1 0x40 MLOAD DUP4 PUSH4 0xFFFFFFFF AND PUSH1 0xE0 SHL DUP2 MSTORE PUSH1 0x4 ADD PUSH2 0x12C9 SWAP3 SWAP2 SWAP1 PUSH2 0x224F JUMP JUMPDEST PUSH1 0x20 PUSH1 0x40 MLOAD DUP1 DUP4 SUB DUP2 PUSH1 0x0 DUP8 GAS CALL ISZERO DUP1 ISZERO PUSH2 0x12E8 JUMPI RETURNDATASIZE PUSH1 0x0 DUP1 RETURNDATACOPY RETURNDATASIZE PUSH1 0x0 REVERT JUMPDEST POP POP POP POP PUSH1 0x40 MLOAD RETURNDATASIZE PUSH1 0x1F NOT PUSH1 0x1F DUP3 ADD AND DUP3 ADD DUP1 PUSH1 0x40 MSTORE POP DUP2 ADD SWAP1 PUSH2 0x130C SWAP2 SWAP1 PUSH2 0x22B0 JUMP JUMPDEST PUSH2 0x134B JUMPI PUSH1 0x40 MLOAD PUSH32 0x8C379A000000000000000000000000000000000000000000000000000000000 DUP2 MSTORE PUSH1 0x4 ADD PUSH2 0x1342 SWAP1 PUSH2 0x2329 JUMP JUMPDEST PUSH1 0x40 MLOAD DUP1 SWAP2 SUB SWAP1 REVERT JUMPDEST POP POP JUMP JUMPDEST PUSH1 0x3 PUSH1 0x20 MSTORE DUP1 PUSH1 0x0 MSTORE PUSH1 0x40 PUSH1 0x0 KECCAK256 PUSH1 0x0 SWAP2 POP SWAP1 POP DUP1 PUSH1 0x0 ADD DUP1 SLOAD PUSH2 0x1372 SWAP1 PUSH2 0x1E93 JUMP JUMPDEST DUP1 PUSH1 0x1F ADD PUSH1 0x20 DUP1 SWAP2 DIV MUL PUSH1 0x20 ADD PUSH1 0x40 MLOAD SWAP1 DUP2 ADD PUSH1 0x40 MSTORE DUP1 SWAP3 SWAP2 SWAP1 DUP2 DUP2 MSTORE PUSH1 0x20 ADD DUP3 DUP1 SLOAD PUSH2 0x139E SWAP1 PUSH2 0x1E93 JUMP JUMPDEST DUP1 ISZERO PUSH2 0x13EB JUMPI DUP1 PUSH1 0x1F LT PUSH2 0x13C0 JUMPI PUSH2 0x100 DUP1 DUP4 SLOAD DIV MUL DUP4 MSTORE SWAP2 PUSH1 0x20 ADD SWAP2 PUSH2 0x13EB JUMP JUMPDEST DUP3 ADD SWAP2 SWAP1 PUSH1 0x0 MSTORE PUSH1 0x20 PUSH1 0x0 KECCAK256 SWAP1 JUMPDEST DUP2 SLOAD DUP2 MSTORE SWAP1 PUSH1 0x1 ADD SWAP1 PUSH1 0x20 ADD DUP1 DUP4 GT PUSH2 0x13CE JUMPI DUP3 SWAP1 SUB PUSH1 0x1F AND DUP3 ADD SWAP2 JUMPDEST POP POP POP POP POP SWAP1 DUP1 PUSH1 0x1 ADD DUP1 SLOAD PUSH2 0x1400 SWAP1 PUSH2 0x1E93 JUMP JUMPDEST DUP1 PUSH1 0x1F ADD PUSH1 0x20 DUP1 SWAP2 DIV MUL PUSH1 0x20 ADD PUSH1 0x40 MLOAD SWAP1 DUP2 ADD PUSH1 0x40 MSTORE DUP1 SWAP3 SWAP2 SWAP1 DUP2 DUP2 MSTORE PUSH1 0x20 ADD DUP3 DUP1 SLOAD PUSH2 0x142C SWAP1 PUSH2 0x1E93 JUMP JUMPDEST DUP1 ISZERO PUSH2 0x1479 JUMPI DUP1 PUSH1 0x1F LT PUSH2 0x144E JUMPI PUSH2 0x100 DUP1 DUP4 SLOAD DIV MUL DUP4 MSTORE SWAP2 PUSH1 0x20 ADD SWAP2 PUSH2 0x1479 JUMP JUMPDEST DUP3 ADD SWAP2 SWAP1 PUSH1 0x0 MSTORE PUSH1 0x20 PUSH1 0x0 KECCAK256 SWAP1 JUMPDEST DUP2 SLOAD DUP2 MSTORE SWAP1 PUSH1 0x1 ADD SWAP1 PUSH1 0x20 ADD DUP1 DUP4 GT PUSH2 0x145C JUMPI DUP3 SWAP1 SUB PUSH1 0x1F AND DUP3 ADD SWAP2 JUMPDEST POP POP POP POP POP SWAP1 DUP1 PUSH1 0x2 ADD DUP1 SLOAD PUSH2 0x148E SWAP1 PUSH2 0x1E93 JUMP JUMPDEST DUP1 PUSH1 0x1F ADD PUSH1 0x20 DUP1 SWAP2 DIV MUL PUSH1 0x20 ADD PUSH1 0x40 MLOAD SWAP1 DUP2 ADD PUSH1 0x40 MSTORE DUP1 SWAP3 SWAP2 SWAP1 DUP2 DUP2 MSTORE PUSH1 0x20 ADD DUP3 DUP1 SLOAD PUSH2 0x14BA SWAP1 PUSH2 0x1E93 JUMP JUMPDEST DUP1 ISZERO PUSH2 0x1507 JUMPI DUP1 PUSH1 0x1F LT PUSH2 0x14DC JUMPI PUSH2 0x100 DUP1 DUP4 SLOAD DIV MUL DUP4 MSTORE SWAP2 PUSH1 0x20 ADD SWAP2 PUSH2 0x1507 JUMP JUMPDEST DUP3 ADD SWAP2 SWAP1 PUSH1 0x0 MSTORE PUSH1 0x20 PUSH1 0x0 KECCAK256 SWAP1 JUMPDEST DUP2 SLOAD DUP2 MSTORE SWAP1 PUSH1 0x1 ADD SWAP1 PUSH1 0x20 ADD DUP1 DUP4 GT PUSH2 0x14EA JUMPI DUP3 SWAP1 SUB PUSH1 0x1F AND DUP3 ADD SWAP2 JUMPDEST POP POP POP POP POP SWAP1 DUP1 PUSH1 0x3 ADD DUP1 SLOAD PUSH2 0x151C SWAP1 PUSH2 0x1E93 JUMP JUMPDEST DUP1 PUSH1 0x1F ADD PUSH1 0x20 DUP1 SWAP2 DIV MUL PUSH1 0x20 ADD PUSH1 0x40 MLOAD SWAP1 DUP2 ADD PUSH1 0x40 MSTORE DUP1 SWAP3 SWAP2 SWAP1 DUP2 DUP2 MSTORE PUSH1 0x20 ADD DUP3 DUP1 SLOAD PUSH2 0x1548 SWAP1 PUSH2 0x1E93 JUMP JUMPDEST DUP1 ISZERO PUSH2 0x1595 JUMPI DUP1 PUSH1 0x1F LT PUSH2 0x156A JUMPI PUSH2 0x100 DUP1 DUP4 SLOAD DIV MUL DUP4 MSTORE SWAP2 PUSH1 0x20 ADD SWAP2 PUSH2 0x1595 JUMP JUMPDEST DUP3 ADD SWAP2 SWAP1 PUSH1 0x0 MSTORE PUSH1 0x20 PUSH1 0x0 KECCAK256 SWAP1 JUMPDEST DUP2 SLOAD DUP2 MSTORE SWAP1 PUSH1 0x1 ADD SWAP1 PUSH1 0x20 ADD DUP1 DUP4 GT PUSH2 0x1578 JUMPI DUP3 SWAP1 SUB PUSH1 0x1F AND DUP3 ADD SWAP2 JUMPDEST POP POP POP POP POP SWAP1 DUP1 PUSH1 0x4 ADD DUP1 SLOAD PUSH2 0x15AA SWAP1 PUSH2 0x1E93 JUMP JUMPDEST DUP1 PUSH1 0x1F ADD PUSH1 0x20 DUP1 SWAP2 DIV MUL PUSH1 0x20 ADD PUSH1 0x40 MLOAD SWAP1 DUP2 ADD PUSH1 0x40 MSTORE DUP1 SWAP3 SWAP2 SWAP1 DUP2 DUP2 MSTORE PUSH1 0x20 ADD DUP3 DUP1 SLOAD PUSH2 0x15D6 SWAP1 PUSH2 0x1E93 JUMP JUMPDEST DUP1 ISZERO PUSH2 0x1623 JUMPI DUP1 PUSH1 0x1F LT PUSH2 0x15F8 JUMPI PUSH2 0x100 DUP1 DUP4 SLOAD DIV MUL DUP4 MSTORE SWAP2 PUSH1 0x20 ADD SWAP2 PUSH2 0x1623 JUMP JUMPDEST DUP3 ADD SWAP2 SWAP1 PUSH1 0x0 MSTORE PUSH1 0x20 PUSH1 0x0 KECCAK256 SWAP1 JUMPDEST DUP2 SLOAD DUP2 MSTORE SWAP1 PUSH1 0x1 ADD SWAP1 PUSH1 0x20 ADD DUP1 DUP4 GT PUSH2 0x1606 JUMPI DUP3 SWAP1 SUB PUSH1 0x1F AND DUP3 ADD SWAP2 JUMPDEST POP POP POP POP POP SWAP1 DUP1 PUSH1 0x5 ADD DUP1 SLOAD PUSH2 0x1638 SWAP1 PUSH2 0x1E93 JUMP JUMPDEST DUP1 PUSH1 0x1F ADD PUSH1 0x20 DUP1 SWAP2 DIV MUL PUSH1 0x20 ADD PUSH1 0x40 MLOAD SWAP1 DUP2 ADD PUSH1 0x40 MSTORE DUP1 SWAP3 SWAP2 SWAP1 DUP2 DUP2 MSTORE PUSH1 0x20 ADD DUP3 DUP1 SLOAD PUSH2 0x1664 SWAP1 PUSH2 0x1E93 JUMP JUMPDEST DUP1 ISZERO PUSH2 0x16B1 JUMPI DUP1 PUSH1 0x1F LT PUSH2 0x1686 JUMPI PUSH2 0x100 DUP1 DUP4 SLOAD DIV MUL DUP4 MSTORE SWAP2 PUSH1 0x20 ADD SWAP2 PUSH2 0x16B1 JUMP JUMPDEST DUP3 ADD SWAP2 SWAP1 PUSH1 0x0 MSTORE PUSH1 0x20 PUSH1 0x0 KECCAK256 SWAP1 JUMPDEST DUP2 SLOAD DUP2 MSTORE SWAP1 PUSH1 0x1 ADD SWAP1 PUSH1 0x20 ADD DUP1 DUP4 GT PUSH2 0x1694 JUMPI DUP3 SWAP1 SUB PUSH1 0x1F AND DUP3 ADD SWAP2 JUMPDEST POP POP POP POP POP SWAP1 DUP1 PUSH1 0x6 ADD DUP1 SLOAD PUSH2 0x16C6 SWAP1 PUSH2 0x1E93 JUMP JUMPDEST DUP1 PUSH1 0x1F ADD PUSH1 0x20 DUP1 SWAP2 DIV MUL PUSH1 0x20 ADD PUSH1 0x40 MLOAD SWAP1 DUP2 ADD PUSH1 0x40 MSTORE DUP1 SWAP3 SWAP2 SWAP1 DUP2 DUP2 MSTORE PUSH1 0x20 ADD DUP3 DUP1 SLOAD PUSH2 0x16F2 SWAP1 PUSH2 0x1E93 JUMP JUMPDEST DUP1 ISZERO PUSH2 0x173F JUMPI DUP1 PUSH1 0x1F LT PUSH2 0x1714 JUMPI PUSH2 0x100 DUP1 DUP4 SLOAD DIV MUL DUP4 MSTORE SWAP2 PUSH1 0x20 ADD SWAP2 PUSH2 0x173F JUMP JUMPDEST DUP3 ADD SWAP2 SWAP1 PUSH1 0x0 MSTORE PUSH1 0x20 PUSH1 0x0 KECCAK256 SWAP1 JUMPDEST DUP2 SLOAD DUP2 MSTORE SWAP1 PUSH1 0x1 ADD SWAP1 PUSH1 0x20 ADD DUP1 DUP4 GT PUSH2 0x1722 JUMPI DUP3 SWAP1 SUB PUSH1 0x1F AND DUP3 ADD SWAP2 JUMPDEST POP POP POP POP POP SWAP1 DUP1 PUSH1 0x7 ADD DUP1 SLOAD PUSH2 0x1754 SWAP1 PUSH2 0x1E93 JUMP JUMPDEST DUP1 PUSH1 0x1F ADD PUSH1 0x20 DUP1 SWAP2 DIV MUL PUSH1 0x20 ADD PUSH1 0x40 MLOAD SWAP1 DUP2 ADD PUSH1 0x40 MSTORE DUP1 SWAP3 SWAP2 SWAP1 DUP2 DUP2 MSTORE PUSH1 0x20 ADD DUP3 DUP1 SLOAD PUSH2 0x1780 SWAP1 PUSH2 0x1E93 JUMP JUMPDEST DUP1 ISZERO PUSH2 0x17CD JUMPI DUP1 PUSH1 0x1F LT PUSH2 0x17A2 JUMPI PUSH2 0x100 DUP1 DUP4 SLOAD DIV MUL DUP4 MSTORE SWAP2 PUSH1 0x20 ADD SWAP2 PUSH2 0x17CD JUMP JUMPDEST DUP3 ADD SWAP2 SWAP1 PUSH1 0x0 MSTORE PUSH1 0x20 PUSH1 0x0 KECCAK256 SWAP1 JUMPDEST DUP2 SLOAD DUP2 MSTORE SWAP1 PUSH1 0x1 ADD SWAP1 PUSH1 0x20 ADD DUP1 DUP4 GT PUSH2 0x17B0 JUMPI DUP3 SWAP1 SUB PUSH1 0x1F AND DUP3 ADD SWAP2 JUMPDEST POP POP POP POP POP SWAP1 DUP1 PUSH1 0x8 ADD PUSH1 0x0 SWAP1 SLOAD SWAP1 PUSH2 0x100 EXP SWAP1 DIV PUSH20 0xFFFFFFFFFFFFFFFFFFFFFFFFFFFFFFFFFFFFFFFF AND SWAP1 DUP1 PUSH1 0x9 ADD SLOAD SWAP1 DUP1 PUSH1 0xA ADD SLOAD SWAP1 DUP1 PUSH1 0xB ADD SLOAD SWAP1 POP DUP13 JUMP JUMPDEST PUSH1 0x3 DUP2 JUMP JUMPDEST PUSH1 0x5 PUSH1 0x0 SWAP1 SLOAD SWAP1 PUSH2 0x100 EXP SWAP1 DIV PUSH20 0xFFFFFFFFFFFFFFFFFFFFFFFFFFFFFFFFFFFFFFFF AND DUP2 JUMP JUMPDEST PUSH1 0x0 PUSH1 0x40 MLOAD SWAP1 POP SWAP1 JUMP JUMPDEST PUSH1 0x0 DUP1 REVERT JUMPDEST PUSH1 0x0 DUP1 REVERT JUMPDEST PUSH1 0x0 PUSH20 0xFFFFFFFFFFFFFFFFFFFFFFFFFFFFFFFFFFFFFFFF DUP3 AND SWAP1 POP SWAP2 SWAP1 POP JUMP JUMPDEST PUSH1 0x0 PUSH2 0x1879 DUP3 PUSH2 0x184E JUMP JUMPDEST SWAP1 POP SWAP2 SWAP1 POP JUMP JUMPDEST PUSH2 0x1889 DUP2 PUSH2 0x186E JUMP JUMPDEST DUP2 EQ PUSH2 0x1894 JUMPI PUSH1 0x0 DUP1 REVERT JUMPDEST POP JUMP JUMPDEST PUSH1 0x0 DUP2 CALLDATALOAD SWAP1 POP PUSH2 0x18A6 DUP2 PUSH2 0x1880 JUMP JUMPDEST SWAP3 SWAP2 POP POP JUMP JUMPDEST PUSH1 0x0 PUSH1 0x20 DUP3 DUP5 SUB SLT ISZERO PUSH2 0x18C2 JUMPI PUSH2 0x18C1 PUSH2 0x1844 JUMP JUMPDEST JUMPDEST PUSH1 0x0 PUSH2 0x18D0 DUP5 DUP3 DUP6 ADD PUSH2 0x1897 JUMP JUMPDEST SWAP2 POP POP SWAP3 SWAP2 POP POP JUMP JUMPDEST PUSH1 0x0 DUP2 SWAP1 POP SWAP2 SWAP1 POP JUMP JUMPDEST PUSH2 0x18EC DUP2 PUSH2 0x18D9 JUMP JUMPDEST DUP3 MSTORE POP POP JUMP JUMPDEST PUSH1 0x0 PUSH1 0x20 DUP3 ADD SWAP1 POP PUSH2 0x1907 PUSH1 0x0 DUP4 ADD DUP5 PUSH2 0x18E3 JUMP JUMPDEST SWAP3 SWAP2 POP POP JUMP JUMPDEST PUSH1 0x0 DUP1 REVERT JUMPDEST PUSH1 0x0 DUP1 REVERT JUMPDEST PUSH1 0x0 PUSH1 0x1F NOT PUSH1 0x1F DUP4 ADD AND SWAP1 POP SWAP2 SWAP1 POP JUMP JUMPDEST PUSH32 0x4E487B7100000000000000000000000000000000000000000000000000000000 PUSH1 0x0 MSTORE PUSH1 0x41 PUSH1 0x4 MSTORE PUSH1 0x24 PUSH1 0x0 REVERT JUMPDEST PUSH2 0x1960 DUP3 PUSH2 0x1917 JUMP JUMPDEST DUP2 ADD DUP2 DUP2 LT PUSH8 0xFFFFFFFFFFFFFFFF DUP3 GT OR ISZERO PUSH2 0x197F JUMPI PUSH2 0x197E PUSH2 0x1928 JUMP JUMPDEST JUMPDEST DUP1 PUSH1 0x40 MSTORE POP POP POP JUMP JUMPDEST PUSH1 0x0 PUSH2 0x1992 PUSH2 0x183A JUMP JUMPDEST SWAP1 POP PUSH2 0x199E DUP3 DUP3 PUSH2 0x1957 JUMP JUMPDEST SWAP2 SWAP1 POP JUMP JUMPDEST PUSH1 0x0 PUSH8 0xFFFFFFFFFFFFFFFF DUP3 GT ISZERO PUSH2 0x19BE JUMPI PUSH2 0x19BD PUSH2 0x1928 JUMP JUMPDEST JUMPDEST PUSH2 0x19C7 DUP3 PUSH2 0x1917 JUMP JUMPDEST SWAP1 POP PUSH1 0x20 DUP2 ADD SWAP1 POP SWAP2 SWAP1 POP JUMP JUMPDEST DUP3 DUP2 DUP4 CALLDATACOPY PUSH1 0x0 DUP4 DUP4 ADD MSTORE POP POP POP JUMP JUMPDEST PUSH1 0x0 PUSH2 0x19F6 PUSH2 0x19F1 DUP5 PUSH2 0x19A3 JUMP JUMPDEST PUSH2 0x1988 JUMP JUMPDEST SWAP1 POP DUP3 DUP2 MSTORE PUSH1 0x20 DUP2 ADD DUP5 DUP5 DUP5 ADD GT ISZERO PUSH2 0x1A12 JUMPI PUSH2 0x1A11 PUSH2 0x1912 JUMP JUMPDEST JUMPDEST PUSH2 0x1A1D DUP5 DUP3 DUP6 PUSH2 0x19D4 JUMP JUMPDEST POP SWAP4 SWAP3 POP POP POP JUMP JUMPDEST PUSH1 0x0 DUP3 PUSH1 0x1F DUP4 ADD SLT PUSH2 0x1A3A JUMPI PUSH2 0x1A39 PUSH2 0x190D JUMP JUMPDEST JUMPDEST DUP2 CALLDATALOAD PUSH2 0x1A4A DUP5 DUP3 PUSH1 0x20 DUP7 ADD PUSH2 0x19E3 JUMP JUMPDEST SWAP2 POP POP SWAP3 SWAP2 POP POP JUMP JUMPDEST PUSH1 0x0 DUP1 PUSH1 0x0 DUP1 PUSH1 0x0 PUSH1 0xA0 DUP7 DUP9 SUB SLT ISZERO PUSH2 0x1A6F JUMPI PUSH2 0x1A6E PUSH2 0x1844 JUMP JUMPDEST JUMPDEST PUSH1 0x0 DUP7 ADD CALLDATALOAD PUSH8 0xFFFFFFFFFFFFFFFF DUP2 GT ISZERO PUSH2 0x1A8D JUMPI PUSH2 0x1A8C PUSH2 0x1849 JUMP JUMPDEST JUMPDEST PUSH2 0x1A99 DUP9 DUP3 DUP10 ADD PUSH2 0x1A25 JUMP JUMPDEST SWAP6 POP POP PUSH1 0x20 DUP7 ADD CALLDATALOAD PUSH8 0xFFFFFFFFFFFFFFFF DUP2 GT ISZERO PUSH2 0x1ABA JUMPI PUSH2 0x1AB9 PUSH2 0x1849 JUMP JUMPDEST JUMPDEST PUSH2 0x1AC6 DUP9 DUP3 DUP10 ADD PUSH2 0x1A25 JUMP JUMPDEST SWAP5 POP POP PUSH1 0x40 DUP7 ADD CALLDATALOAD PUSH8 0xFFFFFFFFFFFFFFFF DUP2 GT ISZERO PUSH2 0x1AE7 JUMPI PUSH2 0x1AE6 PUSH2 0x1849 JUMP JUMPDEST JUMPDEST PUSH2 0x1AF3 DUP9 DUP3 DUP10 ADD PUSH2 0x1A25 JUMP JUMPDEST SWAP4 POP POP PUSH1 0x60 DUP7 ADD CALLDATALOAD PUSH8 0xFFFFFFFFFFFFFFFF DUP2 GT ISZERO PUSH2 0x1B14 JUMPI PUSH2 0x1B13 PUSH2 0x1849 JUMP JUMPDEST JUMPDEST PUSH2 0x1B20 DUP9 DUP3 DUP10 ADD PUSH2 0x1A25 JUMP JUMPDEST SWAP3 POP POP PUSH1 0x80 DUP7 ADD CALLDATALOAD PUSH8 0xFFFFFFFFFFFFFFFF DUP2 GT ISZERO PUSH2 0x1B41 JUMPI PUSH2 0x1B40 PUSH2 0x1849 JUMP JUMPDEST JUMPDEST PUSH2 0x1B4D DUP9 DUP3 DUP10 ADD PUSH2 0x1A25 JUMP JUMPDEST SWAP2 POP POP SWAP3 SWAP6 POP SWAP3 SWAP6 SWAP1 SWAP4 POP JUMP JUMPDEST PUSH1 0x0 DUP2 SWAP1 POP SWAP2 SWAP1 POP JUMP JUMPDEST PUSH1 0x0 PUSH2 0x1B7F PUSH2 0x1B7A PUSH2 0x1B75 DUP5 PUSH2 0x184E JUMP JUMPDEST PUSH2 0x1B5A JUMP JUMPDEST PUSH2 0x184E JUMP JUMPDEST SWAP1 POP SWAP2 SWAP1 POP JUMP JUMPDEST PUSH1 0x0 PUSH2 0x1B91 DUP3 PUSH2 0x1B64 JUMP JUMPDEST SWAP1 POP SWAP2 SWAP1 POP JUMP JUMPDEST PUSH1 0x0 PUSH2 0x1BA3 DUP3 PUSH2 0x1B86 JUMP JUMPDEST SWAP1 POP SWAP2 SWAP1 POP JUMP JUMPDEST PUSH2 0x1BB3 DUP2 PUSH2 0x1B98 JUMP JUMPDEST DUP3 MSTORE POP POP JUMP JUMPDEST PUSH1 0x0 PUSH1 0x20 DUP3 ADD SWAP1 POP PUSH2 0x1BCE PUSH1 0x0 DUP4 ADD DUP5 PUSH2 0x1BAA JUMP JUMPDEST SWAP3 SWAP2 POP POP JUMP JUMPDEST PUSH2 0x1BDD DUP2 PUSH2 0x18D9 JUMP JUMPDEST DUP2 EQ PUSH2 0x1BE8 JUMPI PUSH1 0x0 DUP1 REVERT JUMPDEST POP JUMP JUMPDEST PUSH1 0x0 DUP2 CALLDATALOAD SWAP1 POP PUSH2 0x1BFA DUP2 PUSH2 0x1BD4 JUMP JUMPDEST SWAP3 SWAP2 POP POP JUMP JUMPDEST PUSH1 0x0 PUSH1 0x20 DUP3 DUP5 SUB SLT ISZERO PUSH2 0x1C16 JUMPI PUSH2 0x1C15 PUSH2 0x1844 JUMP JUMPDEST JUMPDEST PUSH1 0x0 PUSH2 0x1C24 DUP5 DUP3 DUP6 ADD PUSH2 0x1BEB JUMP JUMPDEST SWAP2 POP POP SWAP3 SWAP2 POP POP JUMP JUMPDEST PUSH1 0x0 DUP1 PUSH1 0x40 DUP4 DUP6 SUB SLT ISZERO PUSH2 0x1C44 JUMPI PUSH2 0x1C43 PUSH2 0x1844 JUMP JUMPDEST JUMPDEST PUSH1 0x0 PUSH2 0x1C52 DUP6 DUP3 DUP7 ADD PUSH2 0x1BEB JUMP JUMPDEST SWAP3 POP POP PUSH1 0x20 PUSH2 0x1C63 DUP6 DUP3 DUP7 ADD PUSH2 0x1BEB JUMP JUMPDEST SWAP2 POP POP SWAP3 POP SWAP3 SWAP1 POP JUMP JUMPDEST PUSH1 0x0 DUP1 PUSH1 0x40 DUP4 DUP6 SUB SLT ISZERO PUSH2 0x1C84 JUMPI PUSH2 0x1C83 PUSH2 0x1844 JUMP JUMPDEST JUMPDEST PUSH1 0x0 PUSH2 0x1C92 DUP6 DUP3 DUP7 ADD PUSH2 0x1BEB JUMP JUMPDEST SWAP3 POP POP PUSH1 0x20 DUP4 ADD CALLDATALOAD PUSH8 0xFFFFFFFFFFFFFFFF DUP2 GT ISZERO PUSH2 0x1CB3 JUMPI PUSH2 0x1CB2 PUSH2 0x1849 JUMP JUMPDEST JUMPDEST PUSH2 0x1CBF DUP6 DUP3 DUP7 ADD PUSH2 0x1A25 JUMP JUMPDEST SWAP2 POP POP SWAP3 POP SWAP3 SWAP1 POP JUMP JUMPDEST PUSH1 0x0 DUP2 MLOAD SWAP1 POP SWAP2 SWAP1 POP JUMP JUMPDEST PUSH1 0x0 DUP3 DUP3 MSTORE PUSH1 0x20 DUP3 ADD SWAP1 POP SWAP3 SWAP2 POP POP JUMP JUMPDEST PUSH1 0x0 JUMPDEST DUP4 DUP2 LT ISZERO PUSH2 0x1D03 JUMPI DUP1 DUP3 ADD MLOAD DUP2 DUP5 ADD MSTORE PUSH1 0x20 DUP2 ADD SWAP1 POP PUSH2 0x1CE8 JUMP JUMPDEST PUSH1 0x0 DUP5 DUP5 ADD MSTORE POP POP POP POP JUMP JUMPDEST PUSH1 0x0 PUSH2 0x1D1A DUP3 PUSH2 0x1CC9 JUMP JUMPDEST PUSH2 0x1D24 DUP2 DUP6 PUSH2 0x1CD4 JUMP JUMPDEST SWAP4 POP PUSH2 0x1D34 DUP2 DUP6 PUSH1 0x20 DUP7 ADD PUSH2 0x1CE5 JUMP JUMPDEST PUSH2 0x1D3D DUP2 PUSH2 0x1917 JUMP JUMPDEST DUP5 ADD SWAP2 POP POP SWAP3 SWAP2 POP POP JUMP JUMPDEST PUSH2 0x1D51 DUP2 PUSH2 0x186E JUMP JUMPDEST DUP3 MSTORE POP POP JUMP JUMPDEST PUSH1 0x0 PUSH2 0x180 DUP3 ADD SWAP1 POP DUP2 DUP2 SUB PUSH1 0x0 DUP4 ADD MSTORE PUSH2 0x1D72 DUP2 DUP16 PUSH2 0x1D0F JUMP JUMPDEST SWAP1 POP DUP2 DUP2 SUB PUSH1 0x20 DUP4 ADD MSTORE PUSH2 0x1D86 DUP2 DUP15 PUSH2 0x1D0F JUMP JUMPDEST SWAP1 POP DUP2 DUP2 SUB PUSH1 0x40 DUP4 ADD MSTORE PUSH2 0x1D9A DUP2 DUP14 PUSH2 0x1D0F JUMP JUMPDEST SWAP1 POP DUP2 DUP2 SUB PUSH1 0x60 DUP4 ADD MSTORE PUSH2 0x1DAE DUP2 DUP13 PUSH2 0x1D0F JUMP JUMPDEST SWAP1 POP DUP2 DUP2 SUB PUSH1 0x80 DUP4 ADD MSTORE PUSH2 0x1DC2 DUP2 DUP12 PUSH2 0x1D0F JUMP JUMPDEST SWAP1 POP DUP2 DUP2 SUB PUSH1 0xA0 DUP4 ADD MSTORE PUSH2 0x1DD6 DUP2 DUP11 PUSH2 0x1D0F JUMP JUMPDEST SWAP1 POP DUP2 DUP2 SUB PUSH1 0xC0 DUP4 ADD MSTORE PUSH2 0x1DEA DUP2 DUP10 PUSH2 0x1D0F JUMP JUMPDEST SWAP1 POP DUP2 DUP2 SUB PUSH1 0xE0 DUP4 ADD MSTORE PUSH2 0x1DFE DUP2 DUP9 PUSH2 0x1D0F JUMP JUMPDEST SWAP1 POP PUSH2 0x1E0E PUSH2 0x100 DUP4 ADD DUP8 PUSH2 0x1D48 JUMP JUMPDEST PUSH2 0x1E1C PUSH2 0x120 DUP4 ADD DUP7 PUSH2 0x18E3 JUMP JUMPDEST PUSH2 0x1E2A PUSH2 0x140 DUP4 ADD DUP6 PUSH2 0x18E3 JUMP JUMPDEST PUSH2 0x1E38 PUSH2 0x160 DUP4 ADD DUP5 PUSH2 0x18E3 JUMP JUMPDEST SWAP14 SWAP13 POP POP POP POP POP POP POP POP POP POP POP POP POP JUMP JUMPDEST PUSH1 0x0 PUSH1 0x20 DUP3 ADD SWAP1 POP PUSH2 0x1E5E PUSH1 0x0 DUP4 ADD DUP5 PUSH2 0x1D48 JUMP JUMPDEST SWAP3 SWAP2 POP POP JUMP JUMPDEST PUSH32 0x4E487B7100000000000000000000000000000000000000000000000000000000 PUSH1 0x0 MSTORE PUSH1 0x22 PUSH1 0x4 MSTORE PUSH1 0x24 PUSH1 0x0 REVERT JUMPDEST PUSH1 0x0 PUSH1 0x2 DUP3 DIV SWAP1 POP PUSH1 0x1 DUP3 AND DUP1 PUSH2 0x1EAB JUMPI PUSH1 0x7F DUP3 AND SWAP2 POP JUMPDEST PUSH1 0x20 DUP3 LT DUP2 SUB PUSH2 0x1EBE JUMPI PUSH2 0x1EBD PUSH2 0x1E64 JUMP JUMPDEST JUMPDEST POP SWAP2 SWAP1 POP JUMP JUMPDEST PUSH1 0x0 DUP2 SWAP1 POP DUP2 PUSH1 0x0 MSTORE PUSH1 0x20 PUSH1 0x0 KECCAK256 SWAP1 POP SWAP2 SWAP1 POP JUMP JUMPDEST PUSH1 0x0 PUSH1 0x20 PUSH1 0x1F DUP4 ADD DIV SWAP1 POP SWAP2 SWAP1 POP JUMP JUMPDEST PUSH1 0x0 DUP3 DUP3 SHL SWAP1 POP SWAP3 SWAP2 POP POP JUMP JUMPDEST PUSH1 0x0 PUSH1 0x8 DUP4 MUL PUSH2 0x1F26 PUSH32 0xFFFFFFFFFFFFFFFFFFFFFFFFFFFFFFFFFFFFFFFFFFFFFFFFFFFFFFFFFFFFFFFF DUP3 PUSH2 0x1EE9 JUMP JUMPDEST PUSH2 0x1F30 DUP7 DUP4 PUSH2 0x1EE9 JUMP JUMPDEST SWAP6 POP DUP1 NOT DUP5 AND SWAP4 POP DUP1 DUP7 AND DUP5 OR SWAP3 POP POP POP SWAP4 SWAP3 POP POP POP JUMP JUMPDEST PUSH1 0x0 PUSH2 0x1F63 PUSH2 0x1F5E PUSH2 0x1F59 DUP5 PUSH2 0x18D9 JUMP JUMPDEST PUSH2 0x1B5A JUMP JUMPDEST PUSH2 0x18D9 JUMP JUMPDEST SWAP1 POP SWAP2 SWAP1 POP JUMP JUMPDEST PUSH1 0x0 DUP2 SWAP1 POP SWAP2 SWAP1 POP JUMP JUMPDEST PUSH2 0x1F7D DUP4 PUSH2 0x1F48 JUMP JUMPDEST PUSH2 0x1F91 PUSH2 0x1F89 DUP3 PUSH2 0x1F6A JUMP JUMPDEST DUP5 DUP5 SLOAD PUSH2 0x1EF6 JUMP JUMPDEST DUP3 SSTORE POP POP POP POP JUMP JUMPDEST PUSH1 0x0 SWAP1 JUMP JUMPDEST PUSH2 0x1FA6 PUSH2 0x1F99 JUMP JUMPDEST PUSH2 0x1FB1 DUP2 DUP5 DUP5 PUSH2 0x1F74 JUMP JUMPDEST POP POP POP JUMP JUMPDEST JUMPDEST DUP2 DUP2 LT ISZERO PUSH2 0x1FD5 JUMPI PUSH2 0x1FCA PUSH1 0x0 DUP3 PUSH2 0x1F9E JUMP JUMPDEST PUSH1 0x1 DUP2 ADD SWAP1 POP PUSH2 0x1FB7 JUMP JUMPDEST POP POP JUMP JUMPDEST PUSH1 0x1F DUP3 GT ISZERO PUSH2 0x201A JUMPI PUSH2 0x1FEB DUP2 PUSH2 0x1EC4 JUMP JUMPDEST PUSH2 0x1FF4 DUP5 PUSH2 0x1ED9 JUMP JUMPDEST DUP2 ADD PUSH1 0x20 DUP6 LT ISZERO PUSH2 0x2003 JUMPI DUP2 SWAP1 POP JUMPDEST PUSH2 0x2017 PUSH2 0x200F DUP6 PUSH2 0x1ED9 JUMP JUMPDEST DUP4 ADD DUP3 PUSH2 0x1FB6 JUMP JUMPDEST POP POP JUMPDEST POP POP POP JUMP JUMPDEST PUSH1 0x0 DUP3 DUP3 SHR SWAP1 POP SWAP3 SWAP2 POP POP JUMP JUMPDEST PUSH1 0x0 PUSH2 0x203D PUSH1 0x0 NOT DUP5 PUSH1 0x8 MUL PUSH2 0x201F JUMP JUMPDEST NOT DUP1 DUP4 AND SWAP2 POP POP SWAP3 SWAP2 POP POP JUMP JUMPDEST PUSH1 0x0 PUSH2 0x2056 DUP4 DUP4 PUSH2 0x202C JUMP JUMPDEST SWAP2 POP DUP3 PUSH1 0x2 MUL DUP3 OR SWAP1 POP SWAP3 SWAP2 POP POP JUMP JUMPDEST PUSH2 0x206F DUP3 PUSH2 0x1CC9 JUMP JUMPDEST PUSH8 0xFFFFFFFFFFFFFFFF DUP2 GT ISZERO PUSH2 0x2088 JUMPI PUSH2 0x2087 PUSH2 0x1928 JUMP JUMPDEST JUMPDEST PUSH2 0x2092 DUP3 SLOAD PUSH2 0x1E93 JUMP JUMPDEST PUSH2 0x209D DUP3 DUP3 DUP6 PUSH2 0x1FD9 JUMP JUMPDEST PUSH1 0x0 PUSH1 0x20 SWAP1 POP PUSH1 0x1F DUP4 GT PUSH1 0x1 DUP2 EQ PUSH2 0x20D0 JUMPI PUSH1 0x0 DUP5 ISZERO PUSH2 0x20BE JUMPI DUP3 DUP8 ADD MLOAD SWAP1 POP JUMPDEST PUSH2 0x20C8 DUP6 DUP3 PUSH2 0x204A JUMP JUMPDEST DUP7 SSTORE POP PUSH2 0x2130 JUMP JUMPDEST PUSH1 0x1F NOT DUP5 AND PUSH2 0x20DE DUP7 PUSH2 0x1EC4 JUMP JUMPDEST PUSH1 0x0 JUMPDEST DUP3 DUP2 LT ISZERO PUSH2 0x2106 JUMPI DUP5 DUP10 ADD MLOAD DUP3 SSTORE PUSH1 0x1 DUP3 ADD SWAP2 POP PUSH1 0x20 DUP6 ADD SWAP5 POP PUSH1 0x20 DUP2 ADD SWAP1 POP PUSH2 0x20E1 JUMP JUMPDEST DUP7 DUP4 LT ISZERO PUSH2 0x2123 JUMPI DUP5 DUP10 ADD MLOAD PUSH2 0x211F PUSH1 0x1F DUP10 AND DUP3 PUSH2 0x202C JUMP JUMPDEST DUP4 SSTORE POP JUMPDEST PUSH1 0x1 PUSH1 0x2 DUP9 MUL ADD DUP9 SSTORE POP POP POP JUMPDEST POP POP POP POP POP POP JUMP JUMPDEST PUSH32 0x4E487B7100000000000000000000000000000000000000000000000000000000 PUSH1 0x0 MSTORE PUSH1 0x11 PUSH1 0x4 MSTORE PUSH1 0x24 PUSH1 0x0 REVERT JUMPDEST PUSH1 0x0 PUSH2 0x2172 DUP3 PUSH2 0x18D9 JUMP JUMPDEST SWAP2 POP PUSH32 0xFFFFFFFFFFFFFFFFFFFFFFFFFFFFFFFFFFFFFFFFFFFFFFFFFFFFFFFFFFFFFFFF DUP3 SUB PUSH2 0x21A4 JUMPI PUSH2 0x21A3 PUSH2 0x2138 JUMP JUMPDEST JUMPDEST PUSH1 0x1 DUP3 ADD SWAP1 POP SWAP2 SWAP1 POP JUMP JUMPDEST PUSH32 0x496E73756666696369656E74207374616B656420616D6F756E74000000000000 PUSH1 0x0 DUP3 ADD MSTORE POP JUMP JUMPDEST PUSH1 0x0 PUSH2 0x21E5 PUSH1 0x1A DUP4 PUSH2 0x1CD4 JUMP JUMPDEST SWAP2 POP PUSH2 0x21F0 DUP3 PUSH2 0x21AF JUMP JUMPDEST PUSH1 0x20 DUP3 ADD SWAP1 POP SWAP2 SWAP1 POP JUMP JUMPDEST PUSH1 0x0 PUSH1 0x20 DUP3 ADD SWAP1 POP DUP2 DUP2 SUB PUSH1 0x0 DUP4 ADD MSTORE PUSH2 0x2214 DUP2 PUSH2 0x21D8 JUMP JUMPDEST SWAP1 POP SWAP2 SWAP1 POP JUMP JUMPDEST PUSH1 0x0 PUSH2 0x2226 DUP3 PUSH2 0x18D9 JUMP JUMPDEST SWAP2 POP PUSH2 0x2231 DUP4 PUSH2 0x18D9 JUMP JUMPDEST SWAP3 POP DUP3 DUP3 SUB SWAP1 POP DUP2 DUP2 GT ISZERO PUSH2 0x2249 JUMPI PUSH2 0x2248 PUSH2 0x2138 JUMP JUMPDEST JUMPDEST SWAP3 SWAP2 POP POP JUMP JUMPDEST PUSH1 0x0 PUSH1 0x40 DUP3 ADD SWAP1 POP PUSH2 0x2264 PUSH1 0x0 DUP4 ADD DUP6 PUSH2 0x1D48 JUMP JUMPDEST PUSH2 0x2271 PUSH1 0x20 DUP4 ADD DUP5 PUSH2 0x18E3 JUMP JUMPDEST SWAP4 SWAP3 POP POP POP JUMP JUMPDEST PUSH1 0x0 DUP2 ISZERO ISZERO SWAP1 POP SWAP2 SWAP1 POP JUMP JUMPDEST PUSH2 0x228D DUP2 PUSH2 0x2278 JUMP JUMPDEST DUP2 EQ PUSH2 0x2298 JUMPI PUSH1 0x0 DUP1 REVERT JUMPDEST POP JUMP JUMPDEST PUSH1 0x0 DUP2 MLOAD SWAP1 POP PUSH2 0x22AA DUP2 PUSH2 0x2284 JUMP JUMPDEST SWAP3 SWAP2 POP POP JUMP JUMPDEST PUSH1 0x0 PUSH1 0x20 DUP3 DUP5 SUB SLT ISZERO PUSH2 0x22C6 JUMPI PUSH2 0x22C5 PUSH2 0x1844 JUMP JUMPDEST JUMPDEST PUSH1 0x0 PUSH2 0x22D4 DUP5 DUP3 DUP6 ADD PUSH2 0x229B JUMP JUMPDEST SWAP2 POP POP SWAP3 SWAP2 POP POP JUMP JUMPDEST PUSH32 0x546F6B656E207472616E73666572206661696C65640000000000000000000000 PUSH1 0x0 DUP3 ADD MSTORE POP JUMP JUMPDEST PUSH1 0x0 PUSH2 0x2313 PUSH1 0x15 DUP4 PUSH2 0x1CD4 JUMP JUMPDEST SWAP2 POP PUSH2 0x231E DUP3 PUSH2 0x22DD JUMP JUMPDEST PUSH1 0x20 DUP3 ADD SWAP1 POP SWAP2 SWAP1 POP JUMP JUMPDEST PUSH1 0x0 PUSH1 0x20 DUP3 ADD SWAP1 POP DUP2 DUP2 SUB PUSH1 0x0 DUP4 ADD MSTORE PUSH2 0x2342 DUP2 PUSH2 0x2306 JUMP JUMPDEST SWAP1 POP SWAP2 SWAP1 POP JUMP JUMPDEST PUSH32 0x4F6E6C792061646D696E2063616E20706572666F726D20746869732061637469 PUSH1 0x0 DUP3 ADD MSTORE PUSH32 0x6F6E000000000000000000000000000000000000000000000000000000000000 PUSH1 0x20 DUP3 ADD MSTORE POP JUMP JUMPDEST PUSH1 0x0 PUSH2 0x23A5 PUSH1 0x22 DUP4 PUSH2 0x1CD4 JUMP JUMPDEST SWAP2 POP PUSH2 0x23B0 DUP3 PUSH2 0x2349 JUMP JUMPDEST PUSH1 0x40 DUP3 ADD SWAP1 POP SWAP2 SWAP1 POP JUMP JUMPDEST PUSH1 0x0 PUSH1 0x20 DUP3 ADD SWAP1 POP DUP2 DUP2 SUB PUSH1 0x0 DUP4 ADD MSTORE PUSH2 0x23D4 DUP2 PUSH2 0x2398 JUMP JUMPDEST SWAP1 POP SWAP2 SWAP1 POP JUMP JUMPDEST PUSH32 0x456C656D656E7420697320616C726561647920696E2074686520507265737469 PUSH1 0x0 DUP3 ADD MSTORE PUSH32 0x6765207068617365000000000000000000000000000000000000000000000000 PUSH1 0x20 DUP3 ADD MSTORE POP JUMP JUMPDEST PUSH1 0x0 PUSH2 0x2437 PUSH1 0x28 DUP4 PUSH2 0x1CD4 JUMP JUMPDEST SWAP2 POP PUSH2 0x2442 DUP3 PUSH2 0x23DB JUMP JUMPDEST PUSH1 0x40 DUP3 ADD SWAP1 POP SWAP2 SWAP1 POP JUMP JUMPDEST PUSH1 0x0 PUSH1 0x20 DUP3 ADD SWAP1 POP DUP2 DUP2 SUB PUSH1 0x0 DUP4 ADD MSTORE PUSH2 0x2466 DUP2 PUSH2 0x242A JUMP JUMPDEST SWAP1 POP SWAP2 SWAP1 POP JUMP JUMPDEST PUSH32 0x4E6F20766F74696E6720706F7765720000000000000000000000000000000000 PUSH1 0x0 DUP3 ADD MSTORE POP JUMP JUMPDEST PUSH1 0x0 PUSH2 0x24A3 PUSH1 0xF DUP4 PUSH2 0x1CD4 JUMP JUMPDEST SWAP2 POP PUSH2 0x24AE DUP3 PUSH2 0x246D JUMP JUMPDEST PUSH1 0x20 DUP3 ADD SWAP1 POP SWAP2 SWAP1 POP JUMP JUMPDEST PUSH1 0x0 PUSH1 0x20 DUP3 ADD SWAP1 POP DUP2 DUP2 SUB PUSH1 0x0 DUP4 ADD MSTORE PUSH2 0x24D2 DUP2 PUSH2 0x2496 JUMP JUMPDEST SWAP1 POP SWAP2 SWAP1 POP JUMP JUMPDEST PUSH1 0x0 PUSH2 0x24E4 DUP3 PUSH2 0x18D9 JUMP JUMPDEST SWAP2 POP PUSH2 0x24EF DUP4 PUSH2 0x18D9 JUMP JUMPDEST SWAP3 POP DUP3 DUP3 ADD SWAP1 POP DUP1 DUP3 GT ISZERO PUSH2 0x2507 JUMPI PUSH2 0x2506 PUSH2 0x2138 JUMP JUMPDEST JUMPDEST SWAP3 SWAP2 POP POP JUMP JUMPDEST PUSH1 0x0 PUSH1 0x60 DUP3 ADD SWAP1 POP PUSH2 0x2522 PUSH1 0x0 DUP4 ADD DUP7 PUSH2 0x1D48 JUMP JUMPDEST PUSH2 0x252F PUSH1 0x20 DUP4 ADD DUP6 PUSH2 0x1D48 JUMP JUMPDEST PUSH2 0x253C PUSH1 0x40 DUP4 ADD DUP5 PUSH2 0x18E3 JUMP JUMPDEST SWAP5 SWAP4 POP POP POP POP JUMP JUMPDEST PUSH1 0x0 PUSH2 0x254F DUP3 PUSH2 0x18D9 JUMP JUMPDEST SWAP2 POP PUSH2 0x255A DUP4 PUSH2 0x18D9 JUMP JUMPDEST SWAP3 POP DUP3 DUP3 MUL PUSH2 0x2568 DUP2 PUSH2 0x18D9 JUMP JUMPDEST SWAP2 POP DUP3 DUP3 DIV DUP5 EQ DUP4 ISZERO OR PUSH2 0x257F JUMPI PUSH2 0x257E PUSH2 0x2138 JUMP JUMPDEST JUMPDEST POP SWAP3 SWAP2 POP POP JUMP JUMPDEST PUSH32 0x4E487B7100000000000000000000000000000000000000000000000000000000 PUSH1 0x0 MSTORE PUSH1 0x12 PUSH1 0x4 MSTORE PUSH1 0x24 PUSH1 0x0 REVERT JUMPDEST PUSH1 0x0 PUSH2 0x25C0 DUP3 PUSH2 0x18D9 JUMP JUMPDEST SWAP2 POP PUSH2 0x25CB DUP4 PUSH2 0x18D9 JUMP JUMPDEST SWAP3 POP DUP3 PUSH2 0x25DB JUMPI PUSH2 0x25DA PUSH2 0x2586 JUMP JUMPDEST JUMPDEST DUP3 DUP3 DIV SWAP1 POP SWAP3 SWAP2 POP POP JUMP JUMPDEST PUSH32 0x4F6E6C792063726561746F722063616E20757064617465000000000000000000 PUSH1 0x0 DUP3 ADD MSTORE POP JUMP JUMPDEST PUSH1 0x0 PUSH2 0x261C PUSH1 0x17 DUP4 PUSH2 0x1CD4 JUMP JUMPDEST SWAP2 POP PUSH2 0x2627 DUP3 PUSH2 0x25E6 JUMP JUMPDEST PUSH1 0x20 DUP3 ADD SWAP1 POP SWAP2 SWAP1 POP JUMP JUMPDEST PUSH1 0x0 PUSH1 0x20 DUP3 ADD SWAP1 POP DUP2 DUP2 SUB PUSH1 0x0 DUP4 ADD MSTORE PUSH2 0x264B DUP2 PUSH2 0x260F JUMP JUMPDEST SWAP1 POP SWAP2 SWAP1 POP JUMP JUMPDEST PUSH32 0x456C656D656E74206973206E6F742070656E64696E6720617070726F76616C00 PUSH1 0x0 DUP3 ADD MSTORE POP JUMP JUMPDEST PUSH1 0x0 PUSH2 0x2688 PUSH1 0x1F DUP4 PUSH2 0x1CD4 JUMP JUMPDEST SWAP2 POP PUSH2 0x2693 DUP3 PUSH2 0x2652 JUMP JUMPDEST PUSH1 0x20 DUP3 ADD SWAP1 POP SWAP2 SWAP1 POP JUMP JUMPDEST PUSH1 0x0 PUSH1 0x20 DUP3 ADD SWAP1 POP DUP2 DUP2 SUB PUSH1 0x0 DUP4 ADD MSTORE PUSH2 0x26B7 DUP2 PUSH2 0x267B JUMP JUMPDEST SWAP1 POP SWAP2 SWAP1 POP JUMP JUMPDEST PUSH32 0x4E6F207374616B656420616D6F756E7400000000000000000000000000000000 PUSH1 0x0 DUP3 ADD MSTORE POP JUMP JUMPDEST PUSH1 0x0 PUSH2 0x26F4 PUSH1 0x10 DUP4 PUSH2 0x1CD4 JUMP JUMPDEST SWAP2 POP PUSH2 0x26FF DUP3 PUSH2 0x26BE JUMP JUMPDEST PUSH1 0x20 DUP3 ADD SWAP1 POP SWAP2 SWAP1 POP JUMP JUMPDEST PUSH1 0x0 PUSH1 0x20 DUP3 ADD SWAP1 POP DUP2 DUP2 SUB PUSH1 0x0 DUP4 ADD MSTORE PUSH2 0x2723 DUP2 PUSH2 0x26E7 JUMP JUMPDEST SWAP1 POP SWAP2 SWAP1 POP JUMP JUMPDEST PUSH32 0x43616E6E6F7420636C61696D206265666F72652061206D6F6E74680000000000 PUSH1 0x0 DUP3 ADD MSTORE POP JUMP JUMPDEST PUSH1 0x0 PUSH2 0x2760 PUSH1 0x1B DUP4 PUSH2 0x1CD4 JUMP JUMPDEST SWAP2 POP PUSH2 0x276B DUP3 PUSH2 0x272A JUMP JUMPDEST PUSH1 0x20 DUP3 ADD SWAP1 POP SWAP2 SWAP1 POP JUMP JUMPDEST PUSH1 0x0 PUSH1 0x20 DUP3 ADD SWAP1 POP DUP2 DUP2 SUB PUSH1 0x0 DUP4 ADD MSTORE PUSH2 0x278F DUP2 PUSH2 0x2753 JUMP JUMPDEST SWAP1 POP SWAP2 SWAP1 POP JUMP INVALID LOG2 PUSH5 0x6970667358 0x22 SLT KECCAK256 DUP12 EQ 0xC SWAP4 LOG3 0xEB 0xB3 0xD4 POP 0xBA 0xFC 0xEA LOG1 PUSH16 0x8F5E30E2D103AAA63D6F434AAF5C3A9E LT 0xF7 PUSH5 0x736F6C6343 STOP ADDMOD SLT STOP CALLER "
		},
		"gasEstimates": {
			"creation": {
				"codeDepositCost": "2037600",
				"executionCost": "infinite",
				"totalCost": "infinite"
			},
			"external": {
				"ANNUAL_REWARD_RATE()": "439",
				"SECONDS_IN_MONTH()": "352",
				"SECONDS_IN_YEAR()": "396",
				"admin()": "2646",
				"approveElement(uint256)": "27025",
				"calculateMonthlyReward(uint256)": "infinite",
				"claimMonthlyReward()": "infinite",
				"confirmUpdate(uint256)": "33649",
				"createElement(string,string,string,string,string)": "infinite",
				"elementCount()": "2518",
				"elements(uint256)": "infinite",
				"lastClaimed(address)": "2838",
				"lopToken()": "infinite",
				"stakeTokens(uint256)": "infinite",
				"stakes(address)": "2904",
				"updateElementMetrics(uint256,string)": "infinite",
				"updateElementTutorial(uint256,string)": "infinite",
				"updateElementWebsite(uint256,string)": "infinite",
				"voteOnElement(uint256,uint256)": "infinite",
				"votingPower(address)": "2925",
				"withdrawStake(uint256)": "infinite"
			}
		},
		"methodIdentifiers": {
			"ANNUAL_REWARD_RATE()": "f7977a0a",
			"SECONDS_IN_MONTH()": "27855b13",
			"SECONDS_IN_YEAR()": "5dcc9391",
			"admin()": "f851a440",
			"approveElement(uint256)": "c9b3829f",
			"calculateMonthlyReward(uint256)": "80f2110a",
			"claimMonthlyReward()": "d4f1e386",
			"confirmUpdate(uint256)": "3b72bad5",
			"createElement(string,string,string,string,string)": "0a274280",
			"elementCount()": "67be4673",
			"elements(uint256)": "e0d64b37",
			"lastClaimed(address)": "013eba92",
			"lopToken()": "0d67f59e",
			"stakeTokens(uint256)": "7547c7a3",
			"stakes(address)": "16934fc4",
			"updateElementMetrics(uint256,string)": "c7b3564e",
			"updateElementTutorial(uint256,string)": "a721ebdd",
			"updateElementWebsite(uint256,string)": "b17146c8",
			"voteOnElement(uint256,uint256)": "72bae674",
			"votingPower(address)": "c07473f6",
			"withdrawStake(uint256)": "25d5971f"
		}
	},
	"abi": [
		{
			"inputs": [
				{
					"internalType": "address",
					"name": "_lopToken",
					"type": "address"
				}
			],
			"stateMutability": "nonpayable",
			"type": "constructor"
		},
		{
			"inputs": [],
			"name": "ANNUAL_REWARD_RATE",
			"outputs": [
				{
					"internalType": "uint256",
					"name": "",
					"type": "uint256"
				}
			],
			"stateMutability": "view",
			"type": "function"
		},
		{
			"inputs": [],
			"name": "SECONDS_IN_MONTH",
			"outputs": [
				{
					"internalType": "uint256",
					"name": "",
					"type": "uint256"
				}
			],
			"stateMutability": "view",
			"type": "function"
		},
		{
			"inputs": [],
			"name": "SECONDS_IN_YEAR",
			"outputs": [
				{
					"internalType": "uint256",
					"name": "",
					"type": "uint256"
				}
			],
			"stateMutability": "view",
			"type": "function"
		},
		{
			"inputs": [],
			"name": "admin",
			"outputs": [
				{
					"internalType": "address",
					"name": "",
					"type": "address"
				}
			],
			"stateMutability": "view",
			"type": "function"
		},
		{
			"inputs": [
				{
					"internalType": "uint256",
					"name": "elementId",
					"type": "uint256"
				}
			],
			"name": "approveElement",
			"outputs": [],
			"stateMutability": "nonpayable",
			"type": "function"
		},
		{
			"inputs": [
				{
					"internalType": "uint256",
					"name": "stakeAmount",
					"type": "uint256"
				}
			],
			"name": "calculateMonthlyReward",
			"outputs": [
				{
					"internalType": "uint256",
					"name": "",
					"type": "uint256"
				}
			],
			"stateMutability": "pure",
			"type": "function"
		},
		{
			"inputs": [],
			"name": "claimMonthlyReward",
			"outputs": [],
			"stateMutability": "nonpayable",
			"type": "function"
		},
		{
			"inputs": [
				{
					"internalType": "uint256",
					"name": "elementId",
					"type": "uint256"
				}
			],
			"name": "confirmUpdate",
			"outputs": [],
			"stateMutability": "nonpayable",
			"type": "function"
		},
		{
			"inputs": [
				{
					"internalType": "string",
					"name": "name",
					"type": "string"
				},
				{
					"internalType": "string",
					"name": "description",
					"type": "string"
				},
				{
					"internalType": "string",
					"name": "whitepaperLink",
					"type": "string"
				},
				{
					"internalType": "string",
					"name": "email",
					"type": "string"
				},
				{
					"internalType": "string",
					"name": "logoUrl",
					"type": "string"
				}
			],
			"name": "createElement",
			"outputs": [],
			"stateMutability": "nonpayable",
			"type": "function"
		},
		{
			"inputs": [],
			"name": "elementCount",
			"outputs": [
				{
					"internalType": "uint256",
					"name": "",
					"type": "uint256"
				}
			],
			"stateMutability": "view",
			"type": "function"
		},
		{
			"inputs": [
				{
					"internalType": "uint256",
					"name": "",
					"type": "uint256"
				}
			],
			"name": "elements",
			"outputs": [
				{
					"internalType": "string",
					"name": "name",
					"type": "string"
				},
				{
					"internalType": "string",
					"name": "description",
					"type": "string"
				},
				{
					"internalType": "string",
					"name": "whitepaperLink",
					"type": "string"
				},
				{
					"internalType": "string",
					"name": "websiteLink",
					"type": "string"
				},
				{
					"internalType": "string",
					"name": "tutorialLink",
					"type": "string"
				},
				{
					"internalType": "string",
					"name": "performanceMetricsLink",
					"type": "string"
				},
				{
					"internalType": "string",
					"name": "email",
					"type": "string"
				},
				{
					"internalType": "string",
					"name": "logoUrl",
					"type": "string"
				},
				{
					"internalType": "address",
					"name": "creator",
					"type": "address"
				},
				{
					"internalType": "uint256",
					"name": "phase",
					"type": "uint256"
				},
				{
					"internalType": "uint256",
					"name": "lastUpdate",
					"type": "uint256"
				},
				{
					"internalType": "uint256",
					"name": "voteCount",
					"type": "uint256"
				}
			],
			"stateMutability": "view",
			"type": "function"
		},
		{
			"inputs": [
				{
					"internalType": "address",
					"name": "",
					"type": "address"
				}
			],
			"name": "lastClaimed",
			"outputs": [
				{
					"internalType": "uint256",
					"name": "",
					"type": "uint256"
				}
			],
			"stateMutability": "view",
			"type": "function"
		},
		{
			"inputs": [],
			"name": "lopToken",
			"outputs": [
				{
					"internalType": "contract IERC20",
					"name": "",
					"type": "address"
				}
			],
			"stateMutability": "view",
			"type": "function"
		},
		{
			"inputs": [
				{
					"internalType": "uint256",
					"name": "amount",
					"type": "uint256"
				}
			],
			"name": "stakeTokens",
			"outputs": [],
			"stateMutability": "nonpayable",
			"type": "function"
		},
		{
			"inputs": [
				{
					"internalType": "address",
					"name": "",
					"type": "address"
				}
			],
			"name": "stakes",
			"outputs": [
				{
					"internalType": "uint256",
					"name": "",
					"type": "uint256"
				}
			],
			"stateMutability": "view",
			"type": "function"
		},
		{
			"inputs": [
				{
					"internalType": "uint256",
					"name": "elementId",
					"type": "uint256"
				},
				{
					"internalType": "string",
					"name": "performanceMetricsLink",
					"type": "string"
				}
			],
			"name": "updateElementMetrics",
			"outputs": [],
			"stateMutability": "nonpayable",
			"type": "function"
		},
		{
			"inputs": [
				{
					"internalType": "uint256",
					"name": "elementId",
					"type": "uint256"
				},
				{
					"internalType": "string",
					"name": "tutorialLink",
					"type": "string"
				}
			],
			"name": "updateElementTutorial",
			"outputs": [],
			"stateMutability": "nonpayable",
			"type": "function"
		},
		{
			"inputs": [
				{
					"internalType": "uint256",
					"name": "elementId",
					"type": "uint256"
				},
				{
					"internalType": "string",
					"name": "websiteLink",
					"type": "string"
				}
			],
			"name": "updateElementWebsite",
			"outputs": [],
			"stateMutability": "nonpayable",
			"type": "function"
		},
		{
			"inputs": [
				{
					"internalType": "uint256",
					"name": "elementId",
					"type": "uint256"
				},
				{
					"internalType": "uint256",
					"name": "amount",
					"type": "uint256"
				}
			],
			"name": "voteOnElement",
			"outputs": [],
			"stateMutability": "nonpayable",
			"type": "function"
		},
		{
			"inputs": [
				{
					"internalType": "address",
					"name": "",
					"type": "address"
				}
			],
			"name": "votingPower",
			"outputs": [
				{
					"internalType": "uint256",
					"name": "",
					"type": "uint256"
				}
			],
			"stateMutability": "view",
			"type": "function"
		},
		{
			"inputs": [
				{
					"internalType": "uint256",
					"name": "amount",
					"type": "uint256"
				}
			],
			"name": "withdrawStake",
			"outputs": [],
			"stateMutability": "nonpayable",
			"type": "function"
		}
	]
}