{
	"data": {
		"bytecode": {
			"linkReferences": {},
			"object": "60806040523480156200001157600080fd5b506040516200376b3803806200376b83398181016040528101906200003791906200012a565b33600660006101000a81548173ffffffffffffffffffffffffffffffffffffffff021916908373ffffffffffffffffffffffffffffffffffffffff16021790555080600760006101000a81548173ffffffffffffffffffffffffffffffffffffffff021916908373ffffffffffffffffffffffffffffffffffffffff160217905550506200015c565b600080fd5b600073ffffffffffffffffffffffffffffffffffffffff82169050919050565b6000620000f282620000c5565b9050919050565b6200010481620000e5565b81146200011057600080fd5b50565b6000815190506200012481620000f9565b92915050565b600060208284031215620001435762000142620000c0565b5b6000620001538482850162000113565b91505092915050565b6135ff806200016c6000396000f3fe608060405234801561001057600080fd5b50600436106101cf5760003560e01c80636b8d04fb11610104578063c07473f6116100a2578063d4f1e38611610071578063d4f1e3861461053a578063e0d64b3714610544578063f851a4401461057f578063f9089bf21461059d576101cf565b8063c07473f6146104a2578063c7b3564e146104d2578063c9b3829f146104ee578063cc78d7281461050a576101cf565b806384d804be116100de57806384d804be146104305780639fc37abf1461044e578063a721ebdd1461046a578063b17146c814610486576101cf565b80636b8d04fb146103c857806372bae674146103f85780637547c7a314610414576101cf565b806325d5971f116101715780633b72bad51161014b5780633b72bad5146103405780635dcc93911461035c5780635ff329af1461037a57806367be4673146103aa576101cf565b806325d5971f146102ea57806327855b131461030657806336ead39f14610324576101cf565b806316934fc4116101ad57806316934fc41461023e5780631d002cc01461026e5780631faa11281461029e57806320cb13ab146102ba576101cf565b8063013eba92146101d45780630a274280146102045780630d67f59e14610220575b600080fd5b6101ee60048036038101906101e991906125ae565b6105cd565b6040516101fb91906125f4565b60405180910390f35b61021e60048036038101906102199190612755565b6105e5565b005b6102286107cc565b60405161023591906128bb565b60405180910390f35b610258600480360381019061025391906125ae565b6107f2565b60405161026591906125f4565b60405180910390f35b610288600480360381019061028391906125ae565b61080a565b60405161029591906125f4565b60405180910390f35b6102b860048036038101906102b39190612902565b610822565b005b6102d460048036038101906102cf919061292f565b61092a565b6040516102e191906125f4565b60405180910390f35b61030460048036038101906102ff9190612902565b61097c565b005b61030e610b34565b60405161031b91906125f4565b60405180910390f35b61033e60048036038101906103399190612902565b610b46565b005b61035a60048036038101906103559190612902565b610d31565b005b610364610f05565b60405161037191906125f4565b60405180910390f35b610394600480360381019061038f91906125ae565b610f0b565b6040516103a191906125f4565b60405180910390f35b6103b26110f6565b6040516103bf91906125f4565b60405180910390f35b6103e260048036038101906103dd91906125ae565b6110fc565b6040516103ef919061298a565b60405180910390f35b610412600480360381019061040d919061292f565b6111d4565b005b61042e60048036038101906104299190612902565b6112dd565b005b61043861152a565b60405161044591906125f4565b60405180910390f35b61046860048036038101906104639190612902565b61152f565b005b610484600480360381019061047f91906129a5565b6115de565b005b6104a0600480360381019061049b91906129a5565b6116c5565b005b6104bc60048036038101906104b791906125ae565b6117ac565b6040516104c991906125f4565b60405180910390f35b6104ec60048036038101906104e791906129a5565b6117c4565b005b61050860048036038101906105039190612902565b6118ab565b005b610524600480360381019061051f91906125ae565b6119b3565b60405161053191906125f4565b60405180910390f35b6105426119fc565b005b61055e60048036038101906105599190612902565b611dee565b6040516105769c9b9a99989796959493929190612a8f565b60405180910390f35b6105876122ae565b6040516105949190612b81565b60405180910390f35b6105b760048036038101906105b29190612902565b6122d4565b6040516105c491906125f4565b60405180910390f35b60026020528060005260406000206000915090505481565b6040518061018001604052808681526020018581526020018481526020016040518060200160405280600081525081526020016040518060200160405280600081525081526020016040518060200160405280600081525081526020018381526020018281526020013373ffffffffffffffffffffffffffffffffffffffff16815260200160008152602001428152602001600181525060046000600554815260200190815260200160002060008201518160000190816106a69190612d9e565b5060208201518160010190816106bc9190612d9e565b5060408201518160020190816106d29190612d9e565b5060608201518160030190816106e89190612d9e565b5060808201518160040190816106fe9190612d9e565b5060a08201518160050190816107149190612d9e565b5060c082015181600601908161072a9190612d9e565b5060e08201518160070190816107409190612d9e565b506101008201518160080160006101000a81548173ffffffffffffffffffffffffffffffffffffffff021916908373ffffffffffffffffffffffffffffffffffffffff160217905550610120820151816009015561014082015181600a015561016082015181600b0155905050600560008154809291906107c090612e9f565b91905055505050505050565b600760009054906101000a900473ffffffffffffffffffffffffffffffffffffffff1681565b60006020528060005260406000206000915090505481565b60036020528060005260406000206000915090505481565b600660009054906101000a900473ffffffffffffffffffffffffffffffffffffffff1673ffffffffffffffffffffffffffffffffffffffff163373ffffffffffffffffffffffffffffffffffffffff16146108b2576040517f08c379a00000000000000000000000000000000000000000000000000000000081526004016108a990612f59565b60405180910390fd5b600060046000838152602001908152602001600020600901541461090b576040517f08c379a000000000000000000000000000000000000000000000000000000000815260040161090290612fc5565b60405180910390fd5b6005600460008381526020019081526020016000206009018190555050565b60008082426109399190612fe5565b90506000610946826122d4565b90506000600c6064838861095a9190613019565b610964919061308a565b61096e919061308a565b905080935050505092915050565b806000803373ffffffffffffffffffffffffffffffffffffffff1673ffffffffffffffffffffffffffffffffffffffff1681526020019081526020016000205410156109fd576040517f08c379a00000000000000000000000000000000000000000000000000000000081526004016109f490613107565b60405180910390fd5b806000803373ffffffffffffffffffffffffffffffffffffffff1673ffffffffffffffffffffffffffffffffffffffff1681526020019081526020016000206000828254610a4b9190612fe5565b92505081905550600760009054906101000a900473ffffffffffffffffffffffffffffffffffffffff1673ffffffffffffffffffffffffffffffffffffffff1663a9059cbb33836040518363ffffffff1660e01b8152600401610aaf929190613127565b6020604051808303816000875af1158015610ace573d6000803e3d6000fd5b505050506040513d601f19601f82011682018060405250810190610af2919061317c565b610b31576040517f08c379a0000000000000000000000000000000000000000000000000000000008152600401610b28906131f5565b60405180910390fd5b50565b600c610e10610b43919061308a565b81565b600660009054906101000a900473ffffffffffffffffffffffffffffffffffffffff1673ffffffffffffffffffffffffffffffffffffffff163373ffffffffffffffffffffffffffffffffffffffff1614610bd6576040517f08c379a0000000000000000000000000000000000000000000000000000000008152600401610bcd90612f59565b60405180910390fd5b60048060008381526020019081526020016000206009015403610c2e576040517f08c379a0000000000000000000000000000000000000000000000000000000008152600401610c2590613287565b60405180910390fd5b6001600460008381526020019081526020016000206009015403610c845760405180602001604052806000815250600460008381526020019081526020016000206003019081610c7e9190612d9e565b50610d2e565b6002600460008381526020019081526020016000206009015403610cda5760405180602001604052806000815250600460008381526020019081526020016000206004019081610cd49190612d9e565b50610d2d565b6003600460008381526020019081526020016000206009015403610d2c5760405180602001604052806000815250600460008381526020019081526020016000206005019081610d2a9190612d9e565b505b5b5b50565b600660009054906101000a900473ffffffffffffffffffffffffffffffffffffffff1673ffffffffffffffffffffffffffffffffffffffff163373ffffffffffffffffffffffffffffffffffffffff1614610dc1576040517f08c379a0000000000000000000000000000000000000000000000000000000008152600401610db890612f59565b60405180910390fd5b60048060008381526020019081526020016000206009015403610e19576040517f08c379a0000000000000000000000000000000000000000000000000000000008152600401610e1090613287565b60405180910390fd5b6001600460008381526020019081526020016000206009015403610e585760026004600083815260200190815260200160002060090181905550610ed3565b6002600460008381526020019081526020016000206009015403610e975760036004600083815260200190815260200160002060090181905550610ed2565b6003600460008381526020019081526020016000206009015403610ed1576004806000838152602001908152602001600020600901819055505b5b5b6103e860046000838152602001908152602001600020600b016000828254610efb91906132a7565b9250508190555050565b610e1081565b6000806000808473ffffffffffffffffffffffffffffffffffffffff1673ffffffffffffffffffffffffffffffffffffffff1681526020019081526020016000205403610f5b57600090506110f1565b6000600260008473ffffffffffffffffffffffffffffffffffffffff1673ffffffffffffffffffffffffffffffffffffffff1681526020019081526020016000205442610fa89190612fe5565b9050600c610e10610fb9919061308a565b811015610fca5760009150506110f1565b600080600c610e10610fdc919061308a565b83610fe7919061308a565b905060005b818110156110cb576000600c610e10611005919061308a565b826110109190613019565b600260008973ffffffffffffffffffffffffffffffffffffffff1673ffffffffffffffffffffffffffffffffffffffff1681526020019081526020016000205461105a91906132a7565b905060006110a66000808a73ffffffffffffffffffffffffffffffffffffffff1673ffffffffffffffffffffffffffffffffffffffff168152602001908152602001600020548361092a565b905080856110b491906132a7565b9450505080806110c390612e9f565b915050610fec565b5060006064603c846110dd9190613019565b6110e7919061308a565b9050809450505050505b919050565b60055481565b600080600090505b6005548110156111c9578273ffffffffffffffffffffffffffffffffffffffff166004600083815260200190815260200160002060080160009054906101000a900473ffffffffffffffffffffffffffffffffffffffff1673ffffffffffffffffffffffffffffffffffffffff161480156111a757506000600581111561118e5761118d6132db565b5b6004600083815260200190815260200160002060090154145b156111b65760019150506111cf565b80806111c190612e9f565b915050611104565b50600090505b919050565b6000600160003373ffffffffffffffffffffffffffffffffffffffff1673ffffffffffffffffffffffffffffffffffffffff1681526020019081526020016000205411611256576040517f08c379a000000000000000000000000000000000000000000000000000000000815260040161124d90613356565b60405180910390fd5b80600160003373ffffffffffffffffffffffffffffffffffffffff1673ffffffffffffffffffffffffffffffffffffffff16815260200190815260200160002060008282546112a59190612fe5565b925050819055508060046000848152602001908152602001600020600b0160008282546112d291906132a7565b925050819055505050565b6001811015611321576040517f08c379a0000000000000000000000000000000000000000000000000000000008152600401611318906133c2565b60405180910390fd5b600760009054906101000a900473ffffffffffffffffffffffffffffffffffffffff1673ffffffffffffffffffffffffffffffffffffffff166323b872dd3330846040518463ffffffff1660e01b8152600401611380939291906133e2565b6020604051808303816000875af115801561139f573d6000803e3d6000fd5b505050506040513d601f19601f820116820180604052508101906113c3919061317c565b611402576040517f08c379a00000000000000000000000000000000000000000000000000000000081526004016113f9906131f5565b60405180910390fd5b806000803373ffffffffffffffffffffffffffffffffffffffff1673ffffffffffffffffffffffffffffffffffffffff168152602001908152602001600020600082825461145091906132a7565b925050819055506000600260003373ffffffffffffffffffffffffffffffffffffffff1673ffffffffffffffffffffffffffffffffffffffff16815260200190815260200160002054036115275742600260003373ffffffffffffffffffffffffffffffffffffffff1673ffffffffffffffffffffffffffffffffffffffff1681526020019081526020016000208190555042600360003373ffffffffffffffffffffffffffffffffffffffff1673ffffffffffffffffffffffffffffffffffffffff168152602001908152602001600020819055505b50565b600181565b600660009054906101000a900473ffffffffffffffffffffffffffffffffffffffff1673ffffffffffffffffffffffffffffffffffffffff163373ffffffffffffffffffffffffffffffffffffffff16146115bf576040517f08c379a00000000000000000000000000000000000000000000000000000000081526004016115b690612f59565b60405180910390fd5b6005600460008381526020019081526020016000206009018190555050565b3373ffffffffffffffffffffffffffffffffffffffff166004600084815260200190815260200160002060080160009054906101000a900473ffffffffffffffffffffffffffffffffffffffff1673ffffffffffffffffffffffffffffffffffffffff1614611682576040517f08c379a000000000000000000000000000000000000000000000000000000000815260040161167990613465565b60405180910390fd5b806004600084815260200190815260200160002060040190816116a59190612d9e565b504260046000848152602001908152602001600020600a01819055505050565b3373ffffffffffffffffffffffffffffffffffffffff166004600084815260200190815260200160002060080160009054906101000a900473ffffffffffffffffffffffffffffffffffffffff1673ffffffffffffffffffffffffffffffffffffffff1614611769576040517f08c379a000000000000000000000000000000000000000000000000000000000815260040161176090613465565b60405180910390fd5b8060046000848152602001908152602001600020600301908161178c9190612d9e565b504260046000848152602001908152602001600020600a01819055505050565b60016020528060005260406000206000915090505481565b3373ffffffffffffffffffffffffffffffffffffffff166004600084815260200190815260200160002060080160009054906101000a900473ffffffffffffffffffffffffffffffffffffffff1673ffffffffffffffffffffffffffffffffffffffff1614611868576040517f08c379a000000000000000000000000000000000000000000000000000000000815260040161185f90613465565b60405180910390fd5b8060046000848152602001908152602001600020600501908161188b9190612d9e565b504260046000848152602001908152602001600020600a01819055505050565b600660009054906101000a900473ffffffffffffffffffffffffffffffffffffffff1673ffffffffffffffffffffffffffffffffffffffff163373ffffffffffffffffffffffffffffffffffffffff161461193b576040517f08c379a000000000000000000000000000000000000000000000000000000000815260040161193290612f59565b60405180910390fd5b6000600460008381526020019081526020016000206009015414611994576040517f08c379a000000000000000000000000000000000000000000000000000000000815260040161198b90612fc5565b60405180910390fd5b6001600460008381526020019081526020016000206009018190555050565b6000600260008373ffffffffffffffffffffffffffffffffffffffff1673ffffffffffffffffffffffffffffffffffffffff168152602001908152602001600020549050919050565b60008060003373ffffffffffffffffffffffffffffffffffffffff1673ffffffffffffffffffffffffffffffffffffffff1681526020019081526020016000205411611a7d576040517f08c379a0000000000000000000000000000000000000000000000000000000008152600401611a74906134d1565b60405180910390fd5b6000600260003373ffffffffffffffffffffffffffffffffffffffff1673ffffffffffffffffffffffffffffffffffffffff1681526020019081526020016000205442611aca9190612fe5565b9050600c610e10611adb919061308a565b811015611b1d576040517f08c379a0000000000000000000000000000000000000000000000000000000008152600401611b149061353d565b60405180910390fd5b600080600c610e10611b2f919061308a565b83611b3a919061308a565b905060005b81811015611c1e576000600c610e10611b58919061308a565b82611b639190613019565b600260003373ffffffffffffffffffffffffffffffffffffffff1673ffffffffffffffffffffffffffffffffffffffff16815260200190815260200160002054611bad91906132a7565b90506000611bf96000803373ffffffffffffffffffffffffffffffffffffffff1673ffffffffffffffffffffffffffffffffffffffff168152602001908152602001600020548361092a565b90508085611c0791906132a7565b945050508080611c1690612e9f565b915050611b3f565b5060006064603c84611c309190613019565b611c3a919061308a565b905060006064602885611c4d9190613019565b611c57919061308a565b9050611c6281612316565b600a82611c6f919061308a565b600160003373ffffffffffffffffffffffffffffffffffffffff1673ffffffffffffffffffffffffffffffffffffffff1681526020019081526020016000206000828254611cbd91906132a7565b9250508190555042600260003373ffffffffffffffffffffffffffffffffffffffff1673ffffffffffffffffffffffffffffffffffffffff16815260200190815260200160002081905550600760009054906101000a900473ffffffffffffffffffffffffffffffffffffffff1673ffffffffffffffffffffffffffffffffffffffff1663a9059cbb33846040518363ffffffff1660e01b8152600401611d65929190613127565b6020604051808303816000875af1158015611d84573d6000803e3d6000fd5b505050506040513d601f19601f82011682018060405250810190611da8919061317c565b611de7576040517f08c379a0000000000000000000000000000000000000000000000000000000008152600401611dde906131f5565b60405180910390fd5b5050505050565b6004602052806000526040600020600091509050806000018054611e1190612bcb565b80601f0160208091040260200160405190810160405280929190818152602001828054611e3d90612bcb565b8015611e8a5780601f10611e5f57610100808354040283529160200191611e8a565b820191906000526020600020905b815481529060010190602001808311611e6d57829003601f168201915b505050505090806001018054611e9f90612bcb565b80601f0160208091040260200160405190810160405280929190818152602001828054611ecb90612bcb565b8015611f185780601f10611eed57610100808354040283529160200191611f18565b820191906000526020600020905b815481529060010190602001808311611efb57829003601f168201915b505050505090806002018054611f2d90612bcb565b80601f0160208091040260200160405190810160405280929190818152602001828054611f5990612bcb565b8015611fa65780601f10611f7b57610100808354040283529160200191611fa6565b820191906000526020600020905b815481529060010190602001808311611f8957829003601f168201915b505050505090806003018054611fbb90612bcb565b80601f0160208091040260200160405190810160405280929190818152602001828054611fe790612bcb565b80156120345780601f1061200957610100808354040283529160200191612034565b820191906000526020600020905b81548152906001019060200180831161201757829003601f168201915b50505050509080600401805461204990612bcb565b80601f016020809104026020016040519081016040528092919081815260200182805461207590612bcb565b80156120c25780601f10612097576101008083540402835291602001916120c2565b820191906000526020600020905b8154815290600101906020018083116120a557829003601f168201915b5050505050908060050180546120d790612bcb565b80601f016020809104026020016040519081016040528092919081815260200182805461210390612bcb565b80156121505780601f1061212557610100808354040283529160200191612150565b820191906000526020600020905b81548152906001019060200180831161213357829003601f168201915b50505050509080600601805461216590612bcb565b80601f016020809104026020016040519081016040528092919081815260200182805461219190612bcb565b80156121de5780601f106121b3576101008083540402835291602001916121de565b820191906000526020600020905b8154815290600101906020018083116121c157829003601f168201915b5050505050908060070180546121f390612bcb565b80601f016020809104026020016040519081016040528092919081815260200182805461221f90612bcb565b801561226c5780601f106122415761010080835404028352916020019161226c565b820191906000526020600020905b81548152906001019060200180831161224f57829003601f168201915b5050505050908060080160009054906101000a900473ffffffffffffffffffffffffffffffffffffffff169080600901549080600a01549080600b015490508c565b600660009054906101000a900473ffffffffffffffffffffffffffffffffffffffff1681565b600080610e10836122e5919061308a565b9050600381106122f9576003915050612311565b6002810361230b576002915050612311565b60019150505b919050565b60006123206124b9565b90506000810361233057506124b6565b60005b6005548110156124b3576000600460008381526020019081526020016000209050600580811115612367576123666132db565b5b81600901541461249f576000838583600b01546123849190613019565b61238e919061308a565b9050600081111561249d57600760009054906101000a900473ffffffffffffffffffffffffffffffffffffffff1673ffffffffffffffffffffffffffffffffffffffff1663a9059cbb8360080160009054906101000a900473ffffffffffffffffffffffffffffffffffffffff16836040518363ffffffff1660e01b815260040161241a929190613127565b6020604051808303816000875af1158015612439573d6000803e3d6000fd5b505050506040513d601f19601f8201168201806040525081019061245d919061317c565b61249c576040517f08c379a0000000000000000000000000000000000000000000000000000000008152600401612493906135a9565b60405180910390fd5b5b505b5080806124ab90612e9f565b915050612333565b50505b50565b6000806000905060005b600554811015612534576005808111156124e0576124df6132db565b5b6004600083815260200190815260200160002060090154146125215760046000828152602001908152602001600020600b01548261251e91906132a7565b91505b808061252c90612e9f565b9150506124c3565b508091505090565b6000604051905090565b600080fd5b600080fd5b600073ffffffffffffffffffffffffffffffffffffffff82169050919050565b600061257b82612550565b9050919050565b61258b81612570565b811461259657600080fd5b50565b6000813590506125a881612582565b92915050565b6000602082840312156125c4576125c3612546565b5b60006125d284828501612599565b91505092915050565b6000819050919050565b6125ee816125db565b82525050565b600060208201905061260960008301846125e5565b92915050565b600080fd5b600080fd5b6000601f19601f8301169050919050565b7f4e487b7100000000000000000000000000000000000000000000000000000000600052604160045260246000fd5b61266282612619565b810181811067ffffffffffffffff821117156126815761268061262a565b5b80604052505050565b600061269461253c565b90506126a08282612659565b919050565b600067ffffffffffffffff8211156126c0576126bf61262a565b5b6126c982612619565b9050602081019050919050565b82818337600083830152505050565b60006126f86126f3846126a5565b61268a565b90508281526020810184848401111561271457612713612614565b5b61271f8482856126d6565b509392505050565b600082601f83011261273c5761273b61260f565b5b813561274c8482602086016126e5565b91505092915050565b600080600080600060a0868803121561277157612770612546565b5b600086013567ffffffffffffffff81111561278f5761278e61254b565b5b61279b88828901612727565b955050602086013567ffffffffffffffff8111156127bc576127bb61254b565b5b6127c888828901612727565b945050604086013567ffffffffffffffff8111156127e9576127e861254b565b5b6127f588828901612727565b935050606086013567ffffffffffffffff8111156128165761281561254b565b5b61282288828901612727565b925050608086013567ffffffffffffffff8111156128435761284261254b565b5b61284f88828901612727565b9150509295509295909350565b6000819050919050565b600061288161287c61287784612550565b61285c565b612550565b9050919050565b600061289382612866565b9050919050565b60006128a582612888565b9050919050565b6128b58161289a565b82525050565b60006020820190506128d060008301846128ac565b92915050565b6128df816125db565b81146128ea57600080fd5b50565b6000813590506128fc816128d6565b92915050565b60006020828403121561291857612917612546565b5b6000612926848285016128ed565b91505092915050565b6000806040838503121561294657612945612546565b5b6000612954858286016128ed565b9250506020612965858286016128ed565b9150509250929050565b60008115159050919050565b6129848161296f565b82525050565b600060208201905061299f600083018461297b565b92915050565b600080604083850312156129bc576129bb612546565b5b60006129ca858286016128ed565b925050602083013567ffffffffffffffff8111156129eb576129ea61254b565b5b6129f785828601612727565b9150509250929050565b600081519050919050565b600082825260208201905092915050565b60005b83811015612a3b578082015181840152602081019050612a20565b60008484015250505050565b6000612a5282612a01565b612a5c8185612a0c565b9350612a6c818560208601612a1d565b612a7581612619565b840191505092915050565b612a8981612570565b82525050565b6000610180820190508181036000830152612aaa818f612a47565b90508181036020830152612abe818e612a47565b90508181036040830152612ad2818d612a47565b90508181036060830152612ae6818c612a47565b90508181036080830152612afa818b612a47565b905081810360a0830152612b0e818a612a47565b905081810360c0830152612b228189612a47565b905081810360e0830152612b368188612a47565b9050612b46610100830187612a80565b612b546101208301866125e5565b612b626101408301856125e5565b612b706101608301846125e5565b9d9c50505050505050505050505050565b6000602082019050612b966000830184612a80565b92915050565b7f4e487b7100000000000000000000000000000000000000000000000000000000600052602260045260246000fd5b60006002820490506001821680612be357607f821691505b602082108103612bf657612bf5612b9c565b5b50919050565b60008190508160005260206000209050919050565b60006020601f8301049050919050565b600082821b905092915050565b600060088302612c5e7fffffffffffffffffffffffffffffffffffffffffffffffffffffffffffffffff82612c21565b612c688683612c21565b95508019841693508086168417925050509392505050565b6000612c9b612c96612c91846125db565b61285c565b6125db565b9050919050565b6000819050919050565b612cb583612c80565b612cc9612cc182612ca2565b848454612c2e565b825550505050565b600090565b612cde612cd1565b612ce9818484612cac565b505050565b5b81811015612d0d57612d02600082612cd6565b600181019050612cef565b5050565b601f821115612d5257612d2381612bfc565b612d2c84612c11565b81016020851015612d3b578190505b612d4f612d4785612c11565b830182612cee565b50505b505050565b600082821c905092915050565b6000612d7560001984600802612d57565b1980831691505092915050565b6000612d8e8383612d64565b9150826002028217905092915050565b612da782612a01565b67ffffffffffffffff811115612dc057612dbf61262a565b5b612dca8254612bcb565b612dd5828285612d11565b600060209050601f831160018114612e085760008415612df6578287015190505b612e008582612d82565b865550612e68565b601f198416612e1686612bfc565b60005b82811015612e3e57848901518255600182019150602085019450602081019050612e19565b86831015612e5b5784890151612e57601f891682612d64565b8355505b6001600288020188555050505b505050505050565b7f4e487b7100000000000000000000000000000000000000000000000000000000600052601160045260246000fd5b6000612eaa826125db565b91507fffffffffffffffffffffffffffffffffffffffffffffffffffffffffffffffff8203612edc57612edb612e70565b5b600182019050919050565b7f4f6e6c792061646d696e2063616e20706572666f726d2074686973206163746960008201527f6f6e000000000000000000000000000000000000000000000000000000000000602082015250565b6000612f43602283612a0c565b9150612f4e82612ee7565b604082019050919050565b60006020820190508181036000830152612f7281612f36565b9050919050565b7f456c656d656e74206973206e6f742070656e64696e6720617070726f76616c00600082015250565b6000612faf601f83612a0c565b9150612fba82612f79565b602082019050919050565b60006020820190508181036000830152612fde81612fa2565b9050919050565b6000612ff0826125db565b9150612ffb836125db565b925082820390508181111561301357613012612e70565b5b92915050565b6000613024826125db565b915061302f836125db565b925082820261303d816125db565b9150828204841483151761305457613053612e70565b5b5092915050565b7f4e487b7100000000000000000000000000000000000000000000000000000000600052601260045260246000fd5b6000613095826125db565b91506130a0836125db565b9250826130b0576130af61305b565b5b828204905092915050565b7f496e73756666696369656e74207374616b656420616d6f756e74000000000000600082015250565b60006130f1601a83612a0c565b91506130fc826130bb565b602082019050919050565b60006020820190508181036000830152613120816130e4565b9050919050565b600060408201905061313c6000830185612a80565b61314960208301846125e5565b9392505050565b6131598161296f565b811461316457600080fd5b50565b60008151905061317681613150565b92915050565b60006020828403121561319257613191612546565b5b60006131a084828501613167565b91505092915050565b7f546f6b656e207472616e73666572206661696c65640000000000000000000000600082015250565b60006131df601583612a0c565b91506131ea826131a9565b602082019050919050565b6000602082019050818103600083015261320e816131d2565b9050919050565b7f456c656d656e7420697320616c726561647920696e207468652050726573746960008201527f6765207068617365000000000000000000000000000000000000000000000000602082015250565b6000613271602883612a0c565b915061327c82613215565b604082019050919050565b600060208201905081810360008301526132a081613264565b9050919050565b60006132b2826125db565b91506132bd836125db565b92508282019050808211156132d5576132d4612e70565b5b92915050565b7f4e487b7100000000000000000000000000000000000000000000000000000000600052602160045260246000fd5b7f4e6f20766f74696e6720706f7765720000000000000000000000000000000000600082015250565b6000613340600f83612a0c565b915061334b8261330a565b602082019050919050565b6000602082019050818103600083015261336f81613333565b9050919050565b7f4d696e696d756d207374616b6520616d6f756e74206973203120746f6b656e00600082015250565b60006133ac601f83612a0c565b91506133b782613376565b602082019050919050565b600060208201905081810360008301526133db8161339f565b9050919050565b60006060820190506133f76000830186612a80565b6134046020830185612a80565b61341160408301846125e5565b949350505050565b7f4f6e6c792063726561746f722063616e20757064617465000000000000000000600082015250565b600061344f601783612a0c565b915061345a82613419565b602082019050919050565b6000602082019050818103600083015261347e81613442565b9050919050565b7f4e6f207374616b656420616d6f756e7400000000000000000000000000000000600082015250565b60006134bb601083612a0c565b91506134c682613485565b602082019050919050565b600060208201905081810360008301526134ea816134ae565b9050919050565b7f43616e6e6f7420636c61696d206265666f72652061206d6f6e74680000000000600082015250565b6000613527601b83612a0c565b9150613532826134f1565b602082019050919050565b600060208201905081810360008301526135568161351a565b9050919050565b7f456c656d656e7420726577617264207472616e73666572206661696c65640000600082015250565b6000613593601e83612a0c565b915061359e8261355d565b602082019050919050565b600060208201905081810360008301526135c281613586565b905091905056fea2646970667358221220dac7d1613b2c6996b054938b1c6d43805940dc3e082a5a2b816ce9584dbb93a364736f6c63430008120033",
			"opcodes": "PUSH1 0x80 PUSH1 0x40 MSTORE CALLVALUE DUP1 ISZERO PUSH3 0x11 JUMPI PUSH1 0x0 DUP1 REVERT JUMPDEST POP PUSH1 0x40 MLOAD PUSH3 0x376B CODESIZE SUB DUP1 PUSH3 0x376B DUP4 CODECOPY DUP2 DUP2 ADD PUSH1 0x40 MSTORE DUP2 ADD SWAP1 PUSH3 0x37 SWAP2 SWAP1 PUSH3 0x12A JUMP JUMPDEST CALLER PUSH1 0x6 PUSH1 0x0 PUSH2 0x100 EXP DUP2 SLOAD DUP2 PUSH20 0xFFFFFFFFFFFFFFFFFFFFFFFFFFFFFFFFFFFFFFFF MUL NOT AND SWAP1 DUP4 PUSH20 0xFFFFFFFFFFFFFFFFFFFFFFFFFFFFFFFFFFFFFFFF AND MUL OR SWAP1 SSTORE POP DUP1 PUSH1 0x7 PUSH1 0x0 PUSH2 0x100 EXP DUP2 SLOAD DUP2 PUSH20 0xFFFFFFFFFFFFFFFFFFFFFFFFFFFFFFFFFFFFFFFF MUL NOT AND SWAP1 DUP4 PUSH20 0xFFFFFFFFFFFFFFFFFFFFFFFFFFFFFFFFFFFFFFFF AND MUL OR SWAP1 SSTORE POP POP PUSH3 0x15C JUMP JUMPDEST PUSH1 0x0 DUP1 REVERT JUMPDEST PUSH1 0x0 PUSH20 0xFFFFFFFFFFFFFFFFFFFFFFFFFFFFFFFFFFFFFFFF DUP3 AND SWAP1 POP SWAP2 SWAP1 POP JUMP JUMPDEST PUSH1 0x0 PUSH3 0xF2 DUP3 PUSH3 0xC5 JUMP JUMPDEST SWAP1 POP SWAP2 SWAP1 POP JUMP JUMPDEST PUSH3 0x104 DUP2 PUSH3 0xE5 JUMP JUMPDEST DUP2 EQ PUSH3 0x110 JUMPI PUSH1 0x0 DUP1 REVERT JUMPDEST POP JUMP JUMPDEST PUSH1 0x0 DUP2 MLOAD SWAP1 POP PUSH3 0x124 DUP2 PUSH3 0xF9 JUMP JUMPDEST SWAP3 SWAP2 POP POP JUMP JUMPDEST PUSH1 0x0 PUSH1 0x20 DUP3 DUP5 SUB SLT ISZERO PUSH3 0x143 JUMPI PUSH3 0x142 PUSH3 0xC0 JUMP JUMPDEST JUMPDEST PUSH1 0x0 PUSH3 0x153 DUP5 DUP3 DUP6 ADD PUSH3 0x113 JUMP JUMPDEST SWAP2 POP POP SWAP3 SWAP2 POP POP JUMP JUMPDEST PUSH2 0x35FF DUP1 PUSH3 0x16C PUSH1 0x0 CODECOPY PUSH1 0x0 RETURN INVALID PUSH1 0x80 PUSH1 0x40 MSTORE CALLVALUE DUP1 ISZERO PUSH2 0x10 JUMPI PUSH1 0x0 DUP1 REVERT JUMPDEST POP PUSH1 0x4 CALLDATASIZE LT PUSH2 0x1CF JUMPI PUSH1 0x0 CALLDATALOAD PUSH1 0xE0 SHR DUP1 PUSH4 0x6B8D04FB GT PUSH2 0x104 JUMPI DUP1 PUSH4 0xC07473F6 GT PUSH2 0xA2 JUMPI DUP1 PUSH4 0xD4F1E386 GT PUSH2 0x71 JUMPI DUP1 PUSH4 0xD4F1E386 EQ PUSH2 0x53A JUMPI DUP1 PUSH4 0xE0D64B37 EQ PUSH2 0x544 JUMPI DUP1 PUSH4 0xF851A440 EQ PUSH2 0x57F JUMPI DUP1 PUSH4 0xF9089BF2 EQ PUSH2 0x59D JUMPI PUSH2 0x1CF JUMP JUMPDEST DUP1 PUSH4 0xC07473F6 EQ PUSH2 0x4A2 JUMPI DUP1 PUSH4 0xC7B3564E EQ PUSH2 0x4D2 JUMPI DUP1 PUSH4 0xC9B3829F EQ PUSH2 0x4EE JUMPI DUP1 PUSH4 0xCC78D728 EQ PUSH2 0x50A JUMPI PUSH2 0x1CF JUMP JUMPDEST DUP1 PUSH4 0x84D804BE GT PUSH2 0xDE JUMPI DUP1 PUSH4 0x84D804BE EQ PUSH2 0x430 JUMPI DUP1 PUSH4 0x9FC37ABF EQ PUSH2 0x44E JUMPI DUP1 PUSH4 0xA721EBDD EQ PUSH2 0x46A JUMPI DUP1 PUSH4 0xB17146C8 EQ PUSH2 0x486 JUMPI PUSH2 0x1CF JUMP JUMPDEST DUP1 PUSH4 0x6B8D04FB EQ PUSH2 0x3C8 JUMPI DUP1 PUSH4 0x72BAE674 EQ PUSH2 0x3F8 JUMPI DUP1 PUSH4 0x7547C7A3 EQ PUSH2 0x414 JUMPI PUSH2 0x1CF JUMP JUMPDEST DUP1 PUSH4 0x25D5971F GT PUSH2 0x171 JUMPI DUP1 PUSH4 0x3B72BAD5 GT PUSH2 0x14B JUMPI DUP1 PUSH4 0x3B72BAD5 EQ PUSH2 0x340 JUMPI DUP1 PUSH4 0x5DCC9391 EQ PUSH2 0x35C JUMPI DUP1 PUSH4 0x5FF329AF EQ PUSH2 0x37A JUMPI DUP1 PUSH4 0x67BE4673 EQ PUSH2 0x3AA JUMPI PUSH2 0x1CF JUMP JUMPDEST DUP1 PUSH4 0x25D5971F EQ PUSH2 0x2EA JUMPI DUP1 PUSH4 0x27855B13 EQ PUSH2 0x306 JUMPI DUP1 PUSH4 0x36EAD39F EQ PUSH2 0x324 JUMPI PUSH2 0x1CF JUMP JUMPDEST DUP1 PUSH4 0x16934FC4 GT PUSH2 0x1AD JUMPI DUP1 PUSH4 0x16934FC4 EQ PUSH2 0x23E JUMPI DUP1 PUSH4 0x1D002CC0 EQ PUSH2 0x26E JUMPI DUP1 PUSH4 0x1FAA1128 EQ PUSH2 0x29E JUMPI DUP1 PUSH4 0x20CB13AB EQ PUSH2 0x2BA JUMPI PUSH2 0x1CF JUMP JUMPDEST DUP1 PUSH4 0x13EBA92 EQ PUSH2 0x1D4 JUMPI DUP1 PUSH4 0xA274280 EQ PUSH2 0x204 JUMPI DUP1 PUSH4 0xD67F59E EQ PUSH2 0x220 JUMPI JUMPDEST PUSH1 0x0 DUP1 REVERT JUMPDEST PUSH2 0x1EE PUSH1 0x4 DUP1 CALLDATASIZE SUB DUP2 ADD SWAP1 PUSH2 0x1E9 SWAP2 SWAP1 PUSH2 0x25AE JUMP JUMPDEST PUSH2 0x5CD JUMP JUMPDEST PUSH1 0x40 MLOAD PUSH2 0x1FB SWAP2 SWAP1 PUSH2 0x25F4 JUMP JUMPDEST PUSH1 0x40 MLOAD DUP1 SWAP2 SUB SWAP1 RETURN JUMPDEST PUSH2 0x21E PUSH1 0x4 DUP1 CALLDATASIZE SUB DUP2 ADD SWAP1 PUSH2 0x219 SWAP2 SWAP1 PUSH2 0x2755 JUMP JUMPDEST PUSH2 0x5E5 JUMP JUMPDEST STOP JUMPDEST PUSH2 0x228 PUSH2 0x7CC JUMP JUMPDEST PUSH1 0x40 MLOAD PUSH2 0x235 SWAP2 SWAP1 PUSH2 0x28BB JUMP JUMPDEST PUSH1 0x40 MLOAD DUP1 SWAP2 SUB SWAP1 RETURN JUMPDEST PUSH2 0x258 PUSH1 0x4 DUP1 CALLDATASIZE SUB DUP2 ADD SWAP1 PUSH2 0x253 SWAP2 SWAP1 PUSH2 0x25AE JUMP JUMPDEST PUSH2 0x7F2 JUMP JUMPDEST PUSH1 0x40 MLOAD PUSH2 0x265 SWAP2 SWAP1 PUSH2 0x25F4 JUMP JUMPDEST PUSH1 0x40 MLOAD DUP1 SWAP2 SUB SWAP1 RETURN JUMPDEST PUSH2 0x288 PUSH1 0x4 DUP1 CALLDATASIZE SUB DUP2 ADD SWAP1 PUSH2 0x283 SWAP2 SWAP1 PUSH2 0x25AE JUMP JUMPDEST PUSH2 0x80A JUMP JUMPDEST PUSH1 0x40 MLOAD PUSH2 0x295 SWAP2 SWAP1 PUSH2 0x25F4 JUMP JUMPDEST PUSH1 0x40 MLOAD DUP1 SWAP2 SUB SWAP1 RETURN JUMPDEST PUSH2 0x2B8 PUSH1 0x4 DUP1 CALLDATASIZE SUB DUP2 ADD SWAP1 PUSH2 0x2B3 SWAP2 SWAP1 PUSH2 0x2902 JUMP JUMPDEST PUSH2 0x822 JUMP JUMPDEST STOP JUMPDEST PUSH2 0x2D4 PUSH1 0x4 DUP1 CALLDATASIZE SUB DUP2 ADD SWAP1 PUSH2 0x2CF SWAP2 SWAP1 PUSH2 0x292F JUMP JUMPDEST PUSH2 0x92A JUMP JUMPDEST PUSH1 0x40 MLOAD PUSH2 0x2E1 SWAP2 SWAP1 PUSH2 0x25F4 JUMP JUMPDEST PUSH1 0x40 MLOAD DUP1 SWAP2 SUB SWAP1 RETURN JUMPDEST PUSH2 0x304 PUSH1 0x4 DUP1 CALLDATASIZE SUB DUP2 ADD SWAP1 PUSH2 0x2FF SWAP2 SWAP1 PUSH2 0x2902 JUMP JUMPDEST PUSH2 0x97C JUMP JUMPDEST STOP JUMPDEST PUSH2 0x30E PUSH2 0xB34 JUMP JUMPDEST PUSH1 0x40 MLOAD PUSH2 0x31B SWAP2 SWAP1 PUSH2 0x25F4 JUMP JUMPDEST PUSH1 0x40 MLOAD DUP1 SWAP2 SUB SWAP1 RETURN JUMPDEST PUSH2 0x33E PUSH1 0x4 DUP1 CALLDATASIZE SUB DUP2 ADD SWAP1 PUSH2 0x339 SWAP2 SWAP1 PUSH2 0x2902 JUMP JUMPDEST PUSH2 0xB46 JUMP JUMPDEST STOP JUMPDEST PUSH2 0x35A PUSH1 0x4 DUP1 CALLDATASIZE SUB DUP2 ADD SWAP1 PUSH2 0x355 SWAP2 SWAP1 PUSH2 0x2902 JUMP JUMPDEST PUSH2 0xD31 JUMP JUMPDEST STOP JUMPDEST PUSH2 0x364 PUSH2 0xF05 JUMP JUMPDEST PUSH1 0x40 MLOAD PUSH2 0x371 SWAP2 SWAP1 PUSH2 0x25F4 JUMP JUMPDEST PUSH1 0x40 MLOAD DUP1 SWAP2 SUB SWAP1 RETURN JUMPDEST PUSH2 0x394 PUSH1 0x4 DUP1 CALLDATASIZE SUB DUP2 ADD SWAP1 PUSH2 0x38F SWAP2 SWAP1 PUSH2 0x25AE JUMP JUMPDEST PUSH2 0xF0B JUMP JUMPDEST PUSH1 0x40 MLOAD PUSH2 0x3A1 SWAP2 SWAP1 PUSH2 0x25F4 JUMP JUMPDEST PUSH1 0x40 MLOAD DUP1 SWAP2 SUB SWAP1 RETURN JUMPDEST PUSH2 0x3B2 PUSH2 0x10F6 JUMP JUMPDEST PUSH1 0x40 MLOAD PUSH2 0x3BF SWAP2 SWAP1 PUSH2 0x25F4 JUMP JUMPDEST PUSH1 0x40 MLOAD DUP1 SWAP2 SUB SWAP1 RETURN JUMPDEST PUSH2 0x3E2 PUSH1 0x4 DUP1 CALLDATASIZE SUB DUP2 ADD SWAP1 PUSH2 0x3DD SWAP2 SWAP1 PUSH2 0x25AE JUMP JUMPDEST PUSH2 0x10FC JUMP JUMPDEST PUSH1 0x40 MLOAD PUSH2 0x3EF SWAP2 SWAP1 PUSH2 0x298A JUMP JUMPDEST PUSH1 0x40 MLOAD DUP1 SWAP2 SUB SWAP1 RETURN JUMPDEST PUSH2 0x412 PUSH1 0x4 DUP1 CALLDATASIZE SUB DUP2 ADD SWAP1 PUSH2 0x40D SWAP2 SWAP1 PUSH2 0x292F JUMP JUMPDEST PUSH2 0x11D4 JUMP JUMPDEST STOP JUMPDEST PUSH2 0x42E PUSH1 0x4 DUP1 CALLDATASIZE SUB DUP2 ADD SWAP1 PUSH2 0x429 SWAP2 SWAP1 PUSH2 0x2902 JUMP JUMPDEST PUSH2 0x12DD JUMP JUMPDEST STOP JUMPDEST PUSH2 0x438 PUSH2 0x152A JUMP JUMPDEST PUSH1 0x40 MLOAD PUSH2 0x445 SWAP2 SWAP1 PUSH2 0x25F4 JUMP JUMPDEST PUSH1 0x40 MLOAD DUP1 SWAP2 SUB SWAP1 RETURN JUMPDEST PUSH2 0x468 PUSH1 0x4 DUP1 CALLDATASIZE SUB DUP2 ADD SWAP1 PUSH2 0x463 SWAP2 SWAP1 PUSH2 0x2902 JUMP JUMPDEST PUSH2 0x152F JUMP JUMPDEST STOP JUMPDEST PUSH2 0x484 PUSH1 0x4 DUP1 CALLDATASIZE SUB DUP2 ADD SWAP1 PUSH2 0x47F SWAP2 SWAP1 PUSH2 0x29A5 JUMP JUMPDEST PUSH2 0x15DE JUMP JUMPDEST STOP JUMPDEST PUSH2 0x4A0 PUSH1 0x4 DUP1 CALLDATASIZE SUB DUP2 ADD SWAP1 PUSH2 0x49B SWAP2 SWAP1 PUSH2 0x29A5 JUMP JUMPDEST PUSH2 0x16C5 JUMP JUMPDEST STOP JUMPDEST PUSH2 0x4BC PUSH1 0x4 DUP1 CALLDATASIZE SUB DUP2 ADD SWAP1 PUSH2 0x4B7 SWAP2 SWAP1 PUSH2 0x25AE JUMP JUMPDEST PUSH2 0x17AC JUMP JUMPDEST PUSH1 0x40 MLOAD PUSH2 0x4C9 SWAP2 SWAP1 PUSH2 0x25F4 JUMP JUMPDEST PUSH1 0x40 MLOAD DUP1 SWAP2 SUB SWAP1 RETURN JUMPDEST PUSH2 0x4EC PUSH1 0x4 DUP1 CALLDATASIZE SUB DUP2 ADD SWAP1 PUSH2 0x4E7 SWAP2 SWAP1 PUSH2 0x29A5 JUMP JUMPDEST PUSH2 0x17C4 JUMP JUMPDEST STOP JUMPDEST PUSH2 0x508 PUSH1 0x4 DUP1 CALLDATASIZE SUB DUP2 ADD SWAP1 PUSH2 0x503 SWAP2 SWAP1 PUSH2 0x2902 JUMP JUMPDEST PUSH2 0x18AB JUMP JUMPDEST STOP JUMPDEST PUSH2 0x524 PUSH1 0x4 DUP1 CALLDATASIZE SUB DUP2 ADD SWAP1 PUSH2 0x51F SWAP2 SWAP1 PUSH2 0x25AE JUMP JUMPDEST PUSH2 0x19B3 JUMP JUMPDEST PUSH1 0x40 MLOAD PUSH2 0x531 SWAP2 SWAP1 PUSH2 0x25F4 JUMP JUMPDEST PUSH1 0x40 MLOAD DUP1 SWAP2 SUB SWAP1 RETURN JUMPDEST PUSH2 0x542 PUSH2 0x19FC JUMP JUMPDEST STOP JUMPDEST PUSH2 0x55E PUSH1 0x4 DUP1 CALLDATASIZE SUB DUP2 ADD SWAP1 PUSH2 0x559 SWAP2 SWAP1 PUSH2 0x2902 JUMP JUMPDEST PUSH2 0x1DEE JUMP JUMPDEST PUSH1 0x40 MLOAD PUSH2 0x576 SWAP13 SWAP12 SWAP11 SWAP10 SWAP9 SWAP8 SWAP7 SWAP6 SWAP5 SWAP4 SWAP3 SWAP2 SWAP1 PUSH2 0x2A8F JUMP JUMPDEST PUSH1 0x40 MLOAD DUP1 SWAP2 SUB SWAP1 RETURN JUMPDEST PUSH2 0x587 PUSH2 0x22AE JUMP JUMPDEST PUSH1 0x40 MLOAD PUSH2 0x594 SWAP2 SWAP1 PUSH2 0x2B81 JUMP JUMPDEST PUSH1 0x40 MLOAD DUP1 SWAP2 SUB SWAP1 RETURN JUMPDEST PUSH2 0x5B7 PUSH1 0x4 DUP1 CALLDATASIZE SUB DUP2 ADD SWAP1 PUSH2 0x5B2 SWAP2 SWAP1 PUSH2 0x2902 JUMP JUMPDEST PUSH2 0x22D4 JUMP JUMPDEST PUSH1 0x40 MLOAD PUSH2 0x5C4 SWAP2 SWAP1 PUSH2 0x25F4 JUMP JUMPDEST PUSH1 0x40 MLOAD DUP1 SWAP2 SUB SWAP1 RETURN JUMPDEST PUSH1 0x2 PUSH1 0x20 MSTORE DUP1 PUSH1 0x0 MSTORE PUSH1 0x40 PUSH1 0x0 KECCAK256 PUSH1 0x0 SWAP2 POP SWAP1 POP SLOAD DUP2 JUMP JUMPDEST PUSH1 0x40 MLOAD DUP1 PUSH2 0x180 ADD PUSH1 0x40 MSTORE DUP1 DUP7 DUP2 MSTORE PUSH1 0x20 ADD DUP6 DUP2 MSTORE PUSH1 0x20 ADD DUP5 DUP2 MSTORE PUSH1 0x20 ADD PUSH1 0x40 MLOAD DUP1 PUSH1 0x20 ADD PUSH1 0x40 MSTORE DUP1 PUSH1 0x0 DUP2 MSTORE POP DUP2 MSTORE PUSH1 0x20 ADD PUSH1 0x40 MLOAD DUP1 PUSH1 0x20 ADD PUSH1 0x40 MSTORE DUP1 PUSH1 0x0 DUP2 MSTORE POP DUP2 MSTORE PUSH1 0x20 ADD PUSH1 0x40 MLOAD DUP1 PUSH1 0x20 ADD PUSH1 0x40 MSTORE DUP1 PUSH1 0x0 DUP2 MSTORE POP DUP2 MSTORE PUSH1 0x20 ADD DUP4 DUP2 MSTORE PUSH1 0x20 ADD DUP3 DUP2 MSTORE PUSH1 0x20 ADD CALLER PUSH20 0xFFFFFFFFFFFFFFFFFFFFFFFFFFFFFFFFFFFFFFFF AND DUP2 MSTORE PUSH1 0x20 ADD PUSH1 0x0 DUP2 MSTORE PUSH1 0x20 ADD TIMESTAMP DUP2 MSTORE PUSH1 0x20 ADD PUSH1 0x1 DUP2 MSTORE POP PUSH1 0x4 PUSH1 0x0 PUSH1 0x5 SLOAD DUP2 MSTORE PUSH1 0x20 ADD SWAP1 DUP2 MSTORE PUSH1 0x20 ADD PUSH1 0x0 KECCAK256 PUSH1 0x0 DUP3 ADD MLOAD DUP2 PUSH1 0x0 ADD SWAP1 DUP2 PUSH2 0x6A6 SWAP2 SWAP1 PUSH2 0x2D9E JUMP JUMPDEST POP PUSH1 0x20 DUP3 ADD MLOAD DUP2 PUSH1 0x1 ADD SWAP1 DUP2 PUSH2 0x6BC SWAP2 SWAP1 PUSH2 0x2D9E JUMP JUMPDEST POP PUSH1 0x40 DUP3 ADD MLOAD DUP2 PUSH1 0x2 ADD SWAP1 DUP2 PUSH2 0x6D2 SWAP2 SWAP1 PUSH2 0x2D9E JUMP JUMPDEST POP PUSH1 0x60 DUP3 ADD MLOAD DUP2 PUSH1 0x3 ADD SWAP1 DUP2 PUSH2 0x6E8 SWAP2 SWAP1 PUSH2 0x2D9E JUMP JUMPDEST POP PUSH1 0x80 DUP3 ADD MLOAD DUP2 PUSH1 0x4 ADD SWAP1 DUP2 PUSH2 0x6FE SWAP2 SWAP1 PUSH2 0x2D9E JUMP JUMPDEST POP PUSH1 0xA0 DUP3 ADD MLOAD DUP2 PUSH1 0x5 ADD SWAP1 DUP2 PUSH2 0x714 SWAP2 SWAP1 PUSH2 0x2D9E JUMP JUMPDEST POP PUSH1 0xC0 DUP3 ADD MLOAD DUP2 PUSH1 0x6 ADD SWAP1 DUP2 PUSH2 0x72A SWAP2 SWAP1 PUSH2 0x2D9E JUMP JUMPDEST POP PUSH1 0xE0 DUP3 ADD MLOAD DUP2 PUSH1 0x7 ADD SWAP1 DUP2 PUSH2 0x740 SWAP2 SWAP1 PUSH2 0x2D9E JUMP JUMPDEST POP PUSH2 0x100 DUP3 ADD MLOAD DUP2 PUSH1 0x8 ADD PUSH1 0x0 PUSH2 0x100 EXP DUP2 SLOAD DUP2 PUSH20 0xFFFFFFFFFFFFFFFFFFFFFFFFFFFFFFFFFFFFFFFF MUL NOT AND SWAP1 DUP4 PUSH20 0xFFFFFFFFFFFFFFFFFFFFFFFFFFFFFFFFFFFFFFFF AND MUL OR SWAP1 SSTORE POP PUSH2 0x120 DUP3 ADD MLOAD DUP2 PUSH1 0x9 ADD SSTORE PUSH2 0x140 DUP3 ADD MLOAD DUP2 PUSH1 0xA ADD SSTORE PUSH2 0x160 DUP3 ADD MLOAD DUP2 PUSH1 0xB ADD SSTORE SWAP1 POP POP PUSH1 0x5 PUSH1 0x0 DUP2 SLOAD DUP1 SWAP3 SWAP2 SWAP1 PUSH2 0x7C0 SWAP1 PUSH2 0x2E9F JUMP JUMPDEST SWAP2 SWAP1 POP SSTORE POP POP POP POP POP POP JUMP JUMPDEST PUSH1 0x7 PUSH1 0x0 SWAP1 SLOAD SWAP1 PUSH2 0x100 EXP SWAP1 DIV PUSH20 0xFFFFFFFFFFFFFFFFFFFFFFFFFFFFFFFFFFFFFFFF AND DUP2 JUMP JUMPDEST PUSH1 0x0 PUSH1 0x20 MSTORE DUP1 PUSH1 0x0 MSTORE PUSH1 0x40 PUSH1 0x0 KECCAK256 PUSH1 0x0 SWAP2 POP SWAP1 POP SLOAD DUP2 JUMP JUMPDEST PUSH1 0x3 PUSH1 0x20 MSTORE DUP1 PUSH1 0x0 MSTORE PUSH1 0x40 PUSH1 0x0 KECCAK256 PUSH1 0x0 SWAP2 POP SWAP1 POP SLOAD DUP2 JUMP JUMPDEST PUSH1 0x6 PUSH1 0x0 SWAP1 SLOAD SWAP1 PUSH2 0x100 EXP SWAP1 DIV PUSH20 0xFFFFFFFFFFFFFFFFFFFFFFFFFFFFFFFFFFFFFFFF AND PUSH20 0xFFFFFFFFFFFFFFFFFFFFFFFFFFFFFFFFFFFFFFFF AND CALLER PUSH20 0xFFFFFFFFFFFFFFFFFFFFFFFFFFFFFFFFFFFFFFFF AND EQ PUSH2 0x8B2 JUMPI PUSH1 0x40 MLOAD PUSH32 0x8C379A000000000000000000000000000000000000000000000000000000000 DUP2 MSTORE PUSH1 0x4 ADD PUSH2 0x8A9 SWAP1 PUSH2 0x2F59 JUMP JUMPDEST PUSH1 0x40 MLOAD DUP1 SWAP2 SUB SWAP1 REVERT JUMPDEST PUSH1 0x0 PUSH1 0x4 PUSH1 0x0 DUP4 DUP2 MSTORE PUSH1 0x20 ADD SWAP1 DUP2 MSTORE PUSH1 0x20 ADD PUSH1 0x0 KECCAK256 PUSH1 0x9 ADD SLOAD EQ PUSH2 0x90B JUMPI PUSH1 0x40 MLOAD PUSH32 0x8C379A000000000000000000000000000000000000000000000000000000000 DUP2 MSTORE PUSH1 0x4 ADD PUSH2 0x902 SWAP1 PUSH2 0x2FC5 JUMP JUMPDEST PUSH1 0x40 MLOAD DUP1 SWAP2 SUB SWAP1 REVERT JUMPDEST PUSH1 0x5 PUSH1 0x4 PUSH1 0x0 DUP4 DUP2 MSTORE PUSH1 0x20 ADD SWAP1 DUP2 MSTORE PUSH1 0x20 ADD PUSH1 0x0 KECCAK256 PUSH1 0x9 ADD DUP2 SWAP1 SSTORE POP POP JUMP JUMPDEST PUSH1 0x0 DUP1 DUP3 TIMESTAMP PUSH2 0x939 SWAP2 SWAP1 PUSH2 0x2FE5 JUMP JUMPDEST SWAP1 POP PUSH1 0x0 PUSH2 0x946 DUP3 PUSH2 0x22D4 JUMP JUMPDEST SWAP1 POP PUSH1 0x0 PUSH1 0xC PUSH1 0x64 DUP4 DUP9 PUSH2 0x95A SWAP2 SWAP1 PUSH2 0x3019 JUMP JUMPDEST PUSH2 0x964 SWAP2 SWAP1 PUSH2 0x308A JUMP JUMPDEST PUSH2 0x96E SWAP2 SWAP1 PUSH2 0x308A JUMP JUMPDEST SWAP1 POP DUP1 SWAP4 POP POP POP POP SWAP3 SWAP2 POP POP JUMP JUMPDEST DUP1 PUSH1 0x0 DUP1 CALLER PUSH20 0xFFFFFFFFFFFFFFFFFFFFFFFFFFFFFFFFFFFFFFFF AND PUSH20 0xFFFFFFFFFFFFFFFFFFFFFFFFFFFFFFFFFFFFFFFF AND DUP2 MSTORE PUSH1 0x20 ADD SWAP1 DUP2 MSTORE PUSH1 0x20 ADD PUSH1 0x0 KECCAK256 SLOAD LT ISZERO PUSH2 0x9FD JUMPI PUSH1 0x40 MLOAD PUSH32 0x8C379A000000000000000000000000000000000000000000000000000000000 DUP2 MSTORE PUSH1 0x4 ADD PUSH2 0x9F4 SWAP1 PUSH2 0x3107 JUMP JUMPDEST PUSH1 0x40 MLOAD DUP1 SWAP2 SUB SWAP1 REVERT JUMPDEST DUP1 PUSH1 0x0 DUP1 CALLER PUSH20 0xFFFFFFFFFFFFFFFFFFFFFFFFFFFFFFFFFFFFFFFF AND PUSH20 0xFFFFFFFFFFFFFFFFFFFFFFFFFFFFFFFFFFFFFFFF AND DUP2 MSTORE PUSH1 0x20 ADD SWAP1 DUP2 MSTORE PUSH1 0x20 ADD PUSH1 0x0 KECCAK256 PUSH1 0x0 DUP3 DUP3 SLOAD PUSH2 0xA4B SWAP2 SWAP1 PUSH2 0x2FE5 JUMP JUMPDEST SWAP3 POP POP DUP2 SWAP1 SSTORE POP PUSH1 0x7 PUSH1 0x0 SWAP1 SLOAD SWAP1 PUSH2 0x100 EXP SWAP1 DIV PUSH20 0xFFFFFFFFFFFFFFFFFFFFFFFFFFFFFFFFFFFFFFFF AND PUSH20 0xFFFFFFFFFFFFFFFFFFFFFFFFFFFFFFFFFFFFFFFF AND PUSH4 0xA9059CBB CALLER DUP4 PUSH1 0x40 MLOAD DUP4 PUSH4 0xFFFFFFFF AND PUSH1 0xE0 SHL DUP2 MSTORE PUSH1 0x4 ADD PUSH2 0xAAF SWAP3 SWAP2 SWAP1 PUSH2 0x3127 JUMP JUMPDEST PUSH1 0x20 PUSH1 0x40 MLOAD DUP1 DUP4 SUB DUP2 PUSH1 0x0 DUP8 GAS CALL ISZERO DUP1 ISZERO PUSH2 0xACE JUMPI RETURNDATASIZE PUSH1 0x0 DUP1 RETURNDATACOPY RETURNDATASIZE PUSH1 0x0 REVERT JUMPDEST POP POP POP POP PUSH1 0x40 MLOAD RETURNDATASIZE PUSH1 0x1F NOT PUSH1 0x1F DUP3 ADD AND DUP3 ADD DUP1 PUSH1 0x40 MSTORE POP DUP2 ADD SWAP1 PUSH2 0xAF2 SWAP2 SWAP1 PUSH2 0x317C JUMP JUMPDEST PUSH2 0xB31 JUMPI PUSH1 0x40 MLOAD PUSH32 0x8C379A000000000000000000000000000000000000000000000000000000000 DUP2 MSTORE PUSH1 0x4 ADD PUSH2 0xB28 SWAP1 PUSH2 0x31F5 JUMP JUMPDEST PUSH1 0x40 MLOAD DUP1 SWAP2 SUB SWAP1 REVERT JUMPDEST POP JUMP JUMPDEST PUSH1 0xC PUSH2 0xE10 PUSH2 0xB43 SWAP2 SWAP1 PUSH2 0x308A JUMP JUMPDEST DUP2 JUMP JUMPDEST PUSH1 0x6 PUSH1 0x0 SWAP1 SLOAD SWAP1 PUSH2 0x100 EXP SWAP1 DIV PUSH20 0xFFFFFFFFFFFFFFFFFFFFFFFFFFFFFFFFFFFFFFFF AND PUSH20 0xFFFFFFFFFFFFFFFFFFFFFFFFFFFFFFFFFFFFFFFF AND CALLER PUSH20 0xFFFFFFFFFFFFFFFFFFFFFFFFFFFFFFFFFFFFFFFF AND EQ PUSH2 0xBD6 JUMPI PUSH1 0x40 MLOAD PUSH32 0x8C379A000000000000000000000000000000000000000000000000000000000 DUP2 MSTORE PUSH1 0x4 ADD PUSH2 0xBCD SWAP1 PUSH2 0x2F59 JUMP JUMPDEST PUSH1 0x40 MLOAD DUP1 SWAP2 SUB SWAP1 REVERT JUMPDEST PUSH1 0x4 DUP1 PUSH1 0x0 DUP4 DUP2 MSTORE PUSH1 0x20 ADD SWAP1 DUP2 MSTORE PUSH1 0x20 ADD PUSH1 0x0 KECCAK256 PUSH1 0x9 ADD SLOAD SUB PUSH2 0xC2E JUMPI PUSH1 0x40 MLOAD PUSH32 0x8C379A000000000000000000000000000000000000000000000000000000000 DUP2 MSTORE PUSH1 0x4 ADD PUSH2 0xC25 SWAP1 PUSH2 0x3287 JUMP JUMPDEST PUSH1 0x40 MLOAD DUP1 SWAP2 SUB SWAP1 REVERT JUMPDEST PUSH1 0x1 PUSH1 0x4 PUSH1 0x0 DUP4 DUP2 MSTORE PUSH1 0x20 ADD SWAP1 DUP2 MSTORE PUSH1 0x20 ADD PUSH1 0x0 KECCAK256 PUSH1 0x9 ADD SLOAD SUB PUSH2 0xC84 JUMPI PUSH1 0x40 MLOAD DUP1 PUSH1 0x20 ADD PUSH1 0x40 MSTORE DUP1 PUSH1 0x0 DUP2 MSTORE POP PUSH1 0x4 PUSH1 0x0 DUP4 DUP2 MSTORE PUSH1 0x20 ADD SWAP1 DUP2 MSTORE PUSH1 0x20 ADD PUSH1 0x0 KECCAK256 PUSH1 0x3 ADD SWAP1 DUP2 PUSH2 0xC7E SWAP2 SWAP1 PUSH2 0x2D9E JUMP JUMPDEST POP PUSH2 0xD2E JUMP JUMPDEST PUSH1 0x2 PUSH1 0x4 PUSH1 0x0 DUP4 DUP2 MSTORE PUSH1 0x20 ADD SWAP1 DUP2 MSTORE PUSH1 0x20 ADD PUSH1 0x0 KECCAK256 PUSH1 0x9 ADD SLOAD SUB PUSH2 0xCDA JUMPI PUSH1 0x40 MLOAD DUP1 PUSH1 0x20 ADD PUSH1 0x40 MSTORE DUP1 PUSH1 0x0 DUP2 MSTORE POP PUSH1 0x4 PUSH1 0x0 DUP4 DUP2 MSTORE PUSH1 0x20 ADD SWAP1 DUP2 MSTORE PUSH1 0x20 ADD PUSH1 0x0 KECCAK256 PUSH1 0x4 ADD SWAP1 DUP2 PUSH2 0xCD4 SWAP2 SWAP1 PUSH2 0x2D9E JUMP JUMPDEST POP PUSH2 0xD2D JUMP JUMPDEST PUSH1 0x3 PUSH1 0x4 PUSH1 0x0 DUP4 DUP2 MSTORE PUSH1 0x20 ADD SWAP1 DUP2 MSTORE PUSH1 0x20 ADD PUSH1 0x0 KECCAK256 PUSH1 0x9 ADD SLOAD SUB PUSH2 0xD2C JUMPI PUSH1 0x40 MLOAD DUP1 PUSH1 0x20 ADD PUSH1 0x40 MSTORE DUP1 PUSH1 0x0 DUP2 MSTORE POP PUSH1 0x4 PUSH1 0x0 DUP4 DUP2 MSTORE PUSH1 0x20 ADD SWAP1 DUP2 MSTORE PUSH1 0x20 ADD PUSH1 0x0 KECCAK256 PUSH1 0x5 ADD SWAP1 DUP2 PUSH2 0xD2A SWAP2 SWAP1 PUSH2 0x2D9E JUMP JUMPDEST POP JUMPDEST JUMPDEST JUMPDEST POP JUMP JUMPDEST PUSH1 0x6 PUSH1 0x0 SWAP1 SLOAD SWAP1 PUSH2 0x100 EXP SWAP1 DIV PUSH20 0xFFFFFFFFFFFFFFFFFFFFFFFFFFFFFFFFFFFFFFFF AND PUSH20 0xFFFFFFFFFFFFFFFFFFFFFFFFFFFFFFFFFFFFFFFF AND CALLER PUSH20 0xFFFFFFFFFFFFFFFFFFFFFFFFFFFFFFFFFFFFFFFF AND EQ PUSH2 0xDC1 JUMPI PUSH1 0x40 MLOAD PUSH32 0x8C379A000000000000000000000000000000000000000000000000000000000 DUP2 MSTORE PUSH1 0x4 ADD PUSH2 0xDB8 SWAP1 PUSH2 0x2F59 JUMP JUMPDEST PUSH1 0x40 MLOAD DUP1 SWAP2 SUB SWAP1 REVERT JUMPDEST PUSH1 0x4 DUP1 PUSH1 0x0 DUP4 DUP2 MSTORE PUSH1 0x20 ADD SWAP1 DUP2 MSTORE PUSH1 0x20 ADD PUSH1 0x0 KECCAK256 PUSH1 0x9 ADD SLOAD SUB PUSH2 0xE19 JUMPI PUSH1 0x40 MLOAD PUSH32 0x8C379A000000000000000000000000000000000000000000000000000000000 DUP2 MSTORE PUSH1 0x4 ADD PUSH2 0xE10 SWAP1 PUSH2 0x3287 JUMP JUMPDEST PUSH1 0x40 MLOAD DUP1 SWAP2 SUB SWAP1 REVERT JUMPDEST PUSH1 0x1 PUSH1 0x4 PUSH1 0x0 DUP4 DUP2 MSTORE PUSH1 0x20 ADD SWAP1 DUP2 MSTORE PUSH1 0x20 ADD PUSH1 0x0 KECCAK256 PUSH1 0x9 ADD SLOAD SUB PUSH2 0xE58 JUMPI PUSH1 0x2 PUSH1 0x4 PUSH1 0x0 DUP4 DUP2 MSTORE PUSH1 0x20 ADD SWAP1 DUP2 MSTORE PUSH1 0x20 ADD PUSH1 0x0 KECCAK256 PUSH1 0x9 ADD DUP2 SWAP1 SSTORE POP PUSH2 0xED3 JUMP JUMPDEST PUSH1 0x2 PUSH1 0x4 PUSH1 0x0 DUP4 DUP2 MSTORE PUSH1 0x20 ADD SWAP1 DUP2 MSTORE PUSH1 0x20 ADD PUSH1 0x0 KECCAK256 PUSH1 0x9 ADD SLOAD SUB PUSH2 0xE97 JUMPI PUSH1 0x3 PUSH1 0x4 PUSH1 0x0 DUP4 DUP2 MSTORE PUSH1 0x20 ADD SWAP1 DUP2 MSTORE PUSH1 0x20 ADD PUSH1 0x0 KECCAK256 PUSH1 0x9 ADD DUP2 SWAP1 SSTORE POP PUSH2 0xED2 JUMP JUMPDEST PUSH1 0x3 PUSH1 0x4 PUSH1 0x0 DUP4 DUP2 MSTORE PUSH1 0x20 ADD SWAP1 DUP2 MSTORE PUSH1 0x20 ADD PUSH1 0x0 KECCAK256 PUSH1 0x9 ADD SLOAD SUB PUSH2 0xED1 JUMPI PUSH1 0x4 DUP1 PUSH1 0x0 DUP4 DUP2 MSTORE PUSH1 0x20 ADD SWAP1 DUP2 MSTORE PUSH1 0x20 ADD PUSH1 0x0 KECCAK256 PUSH1 0x9 ADD DUP2 SWAP1 SSTORE POP JUMPDEST JUMPDEST JUMPDEST PUSH2 0x3E8 PUSH1 0x4 PUSH1 0x0 DUP4 DUP2 MSTORE PUSH1 0x20 ADD SWAP1 DUP2 MSTORE PUSH1 0x20 ADD PUSH1 0x0 KECCAK256 PUSH1 0xB ADD PUSH1 0x0 DUP3 DUP3 SLOAD PUSH2 0xEFB SWAP2 SWAP1 PUSH2 0x32A7 JUMP JUMPDEST SWAP3 POP POP DUP2 SWAP1 SSTORE POP POP JUMP JUMPDEST PUSH2 0xE10 DUP2 JUMP JUMPDEST PUSH1 0x0 DUP1 PUSH1 0x0 DUP1 DUP5 PUSH20 0xFFFFFFFFFFFFFFFFFFFFFFFFFFFFFFFFFFFFFFFF AND PUSH20 0xFFFFFFFFFFFFFFFFFFFFFFFFFFFFFFFFFFFFFFFF AND DUP2 MSTORE PUSH1 0x20 ADD SWAP1 DUP2 MSTORE PUSH1 0x20 ADD PUSH1 0x0 KECCAK256 SLOAD SUB PUSH2 0xF5B JUMPI PUSH1 0x0 SWAP1 POP PUSH2 0x10F1 JUMP JUMPDEST PUSH1 0x0 PUSH1 0x2 PUSH1 0x0 DUP5 PUSH20 0xFFFFFFFFFFFFFFFFFFFFFFFFFFFFFFFFFFFFFFFF AND PUSH20 0xFFFFFFFFFFFFFFFFFFFFFFFFFFFFFFFFFFFFFFFF AND DUP2 MSTORE PUSH1 0x20 ADD SWAP1 DUP2 MSTORE PUSH1 0x20 ADD PUSH1 0x0 KECCAK256 SLOAD TIMESTAMP PUSH2 0xFA8 SWAP2 SWAP1 PUSH2 0x2FE5 JUMP JUMPDEST SWAP1 POP PUSH1 0xC PUSH2 0xE10 PUSH2 0xFB9 SWAP2 SWAP1 PUSH2 0x308A JUMP JUMPDEST DUP2 LT ISZERO PUSH2 0xFCA JUMPI PUSH1 0x0 SWAP2 POP POP PUSH2 0x10F1 JUMP JUMPDEST PUSH1 0x0 DUP1 PUSH1 0xC PUSH2 0xE10 PUSH2 0xFDC SWAP2 SWAP1 PUSH2 0x308A JUMP JUMPDEST DUP4 PUSH2 0xFE7 SWAP2 SWAP1 PUSH2 0x308A JUMP JUMPDEST SWAP1 POP PUSH1 0x0 JUMPDEST DUP2 DUP2 LT ISZERO PUSH2 0x10CB JUMPI PUSH1 0x0 PUSH1 0xC PUSH2 0xE10 PUSH2 0x1005 SWAP2 SWAP1 PUSH2 0x308A JUMP JUMPDEST DUP3 PUSH2 0x1010 SWAP2 SWAP1 PUSH2 0x3019 JUMP JUMPDEST PUSH1 0x2 PUSH1 0x0 DUP10 PUSH20 0xFFFFFFFFFFFFFFFFFFFFFFFFFFFFFFFFFFFFFFFF AND PUSH20 0xFFFFFFFFFFFFFFFFFFFFFFFFFFFFFFFFFFFFFFFF AND DUP2 MSTORE PUSH1 0x20 ADD SWAP1 DUP2 MSTORE PUSH1 0x20 ADD PUSH1 0x0 KECCAK256 SLOAD PUSH2 0x105A SWAP2 SWAP1 PUSH2 0x32A7 JUMP JUMPDEST SWAP1 POP PUSH1 0x0 PUSH2 0x10A6 PUSH1 0x0 DUP1 DUP11 PUSH20 0xFFFFFFFFFFFFFFFFFFFFFFFFFFFFFFFFFFFFFFFF AND PUSH20 0xFFFFFFFFFFFFFFFFFFFFFFFFFFFFFFFFFFFFFFFF AND DUP2 MSTORE PUSH1 0x20 ADD SWAP1 DUP2 MSTORE PUSH1 0x20 ADD PUSH1 0x0 KECCAK256 SLOAD DUP4 PUSH2 0x92A JUMP JUMPDEST SWAP1 POP DUP1 DUP6 PUSH2 0x10B4 SWAP2 SWAP1 PUSH2 0x32A7 JUMP JUMPDEST SWAP5 POP POP POP DUP1 DUP1 PUSH2 0x10C3 SWAP1 PUSH2 0x2E9F JUMP JUMPDEST SWAP2 POP POP PUSH2 0xFEC JUMP JUMPDEST POP PUSH1 0x0 PUSH1 0x64 PUSH1 0x3C DUP5 PUSH2 0x10DD SWAP2 SWAP1 PUSH2 0x3019 JUMP JUMPDEST PUSH2 0x10E7 SWAP2 SWAP1 PUSH2 0x308A JUMP JUMPDEST SWAP1 POP DUP1 SWAP5 POP POP POP POP POP JUMPDEST SWAP2 SWAP1 POP JUMP JUMPDEST PUSH1 0x5 SLOAD DUP2 JUMP JUMPDEST PUSH1 0x0 DUP1 PUSH1 0x0 SWAP1 POP JUMPDEST PUSH1 0x5 SLOAD DUP2 LT ISZERO PUSH2 0x11C9 JUMPI DUP3 PUSH20 0xFFFFFFFFFFFFFFFFFFFFFFFFFFFFFFFFFFFFFFFF AND PUSH1 0x4 PUSH1 0x0 DUP4 DUP2 MSTORE PUSH1 0x20 ADD SWAP1 DUP2 MSTORE PUSH1 0x20 ADD PUSH1 0x0 KECCAK256 PUSH1 0x8 ADD PUSH1 0x0 SWAP1 SLOAD SWAP1 PUSH2 0x100 EXP SWAP1 DIV PUSH20 0xFFFFFFFFFFFFFFFFFFFFFFFFFFFFFFFFFFFFFFFF AND PUSH20 0xFFFFFFFFFFFFFFFFFFFFFFFFFFFFFFFFFFFFFFFF AND EQ DUP1 ISZERO PUSH2 0x11A7 JUMPI POP PUSH1 0x0 PUSH1 0x5 DUP2 GT ISZERO PUSH2 0x118E JUMPI PUSH2 0x118D PUSH2 0x32DB JUMP JUMPDEST JUMPDEST PUSH1 0x4 PUSH1 0x0 DUP4 DUP2 MSTORE PUSH1 0x20 ADD SWAP1 DUP2 MSTORE PUSH1 0x20 ADD PUSH1 0x0 KECCAK256 PUSH1 0x9 ADD SLOAD EQ JUMPDEST ISZERO PUSH2 0x11B6 JUMPI PUSH1 0x1 SWAP2 POP POP PUSH2 0x11CF JUMP JUMPDEST DUP1 DUP1 PUSH2 0x11C1 SWAP1 PUSH2 0x2E9F JUMP JUMPDEST SWAP2 POP POP PUSH2 0x1104 JUMP JUMPDEST POP PUSH1 0x0 SWAP1 POP JUMPDEST SWAP2 SWAP1 POP JUMP JUMPDEST PUSH1 0x0 PUSH1 0x1 PUSH1 0x0 CALLER PUSH20 0xFFFFFFFFFFFFFFFFFFFFFFFFFFFFFFFFFFFFFFFF AND PUSH20 0xFFFFFFFFFFFFFFFFFFFFFFFFFFFFFFFFFFFFFFFF AND DUP2 MSTORE PUSH1 0x20 ADD SWAP1 DUP2 MSTORE PUSH1 0x20 ADD PUSH1 0x0 KECCAK256 SLOAD GT PUSH2 0x1256 JUMPI PUSH1 0x40 MLOAD PUSH32 0x8C379A000000000000000000000000000000000000000000000000000000000 DUP2 MSTORE PUSH1 0x4 ADD PUSH2 0x124D SWAP1 PUSH2 0x3356 JUMP JUMPDEST PUSH1 0x40 MLOAD DUP1 SWAP2 SUB SWAP1 REVERT JUMPDEST DUP1 PUSH1 0x1 PUSH1 0x0 CALLER PUSH20 0xFFFFFFFFFFFFFFFFFFFFFFFFFFFFFFFFFFFFFFFF AND PUSH20 0xFFFFFFFFFFFFFFFFFFFFFFFFFFFFFFFFFFFFFFFF AND DUP2 MSTORE PUSH1 0x20 ADD SWAP1 DUP2 MSTORE PUSH1 0x20 ADD PUSH1 0x0 KECCAK256 PUSH1 0x0 DUP3 DUP3 SLOAD PUSH2 0x12A5 SWAP2 SWAP1 PUSH2 0x2FE5 JUMP JUMPDEST SWAP3 POP POP DUP2 SWAP1 SSTORE POP DUP1 PUSH1 0x4 PUSH1 0x0 DUP5 DUP2 MSTORE PUSH1 0x20 ADD SWAP1 DUP2 MSTORE PUSH1 0x20 ADD PUSH1 0x0 KECCAK256 PUSH1 0xB ADD PUSH1 0x0 DUP3 DUP3 SLOAD PUSH2 0x12D2 SWAP2 SWAP1 PUSH2 0x32A7 JUMP JUMPDEST SWAP3 POP POP DUP2 SWAP1 SSTORE POP POP POP JUMP JUMPDEST PUSH1 0x1 DUP2 LT ISZERO PUSH2 0x1321 JUMPI PUSH1 0x40 MLOAD PUSH32 0x8C379A000000000000000000000000000000000000000000000000000000000 DUP2 MSTORE PUSH1 0x4 ADD PUSH2 0x1318 SWAP1 PUSH2 0x33C2 JUMP JUMPDEST PUSH1 0x40 MLOAD DUP1 SWAP2 SUB SWAP1 REVERT JUMPDEST PUSH1 0x7 PUSH1 0x0 SWAP1 SLOAD SWAP1 PUSH2 0x100 EXP SWAP1 DIV PUSH20 0xFFFFFFFFFFFFFFFFFFFFFFFFFFFFFFFFFFFFFFFF AND PUSH20 0xFFFFFFFFFFFFFFFFFFFFFFFFFFFFFFFFFFFFFFFF AND PUSH4 0x23B872DD CALLER ADDRESS DUP5 PUSH1 0x40 MLOAD DUP5 PUSH4 0xFFFFFFFF AND PUSH1 0xE0 SHL DUP2 MSTORE PUSH1 0x4 ADD PUSH2 0x1380 SWAP4 SWAP3 SWAP2 SWAP1 PUSH2 0x33E2 JUMP JUMPDEST PUSH1 0x20 PUSH1 0x40 MLOAD DUP1 DUP4 SUB DUP2 PUSH1 0x0 DUP8 GAS CALL ISZERO DUP1 ISZERO PUSH2 0x139F JUMPI RETURNDATASIZE PUSH1 0x0 DUP1 RETURNDATACOPY RETURNDATASIZE PUSH1 0x0 REVERT JUMPDEST POP POP POP POP PUSH1 0x40 MLOAD RETURNDATASIZE PUSH1 0x1F NOT PUSH1 0x1F DUP3 ADD AND DUP3 ADD DUP1 PUSH1 0x40 MSTORE POP DUP2 ADD SWAP1 PUSH2 0x13C3 SWAP2 SWAP1 PUSH2 0x317C JUMP JUMPDEST PUSH2 0x1402 JUMPI PUSH1 0x40 MLOAD PUSH32 0x8C379A000000000000000000000000000000000000000000000000000000000 DUP2 MSTORE PUSH1 0x4 ADD PUSH2 0x13F9 SWAP1 PUSH2 0x31F5 JUMP JUMPDEST PUSH1 0x40 MLOAD DUP1 SWAP2 SUB SWAP1 REVERT JUMPDEST DUP1 PUSH1 0x0 DUP1 CALLER PUSH20 0xFFFFFFFFFFFFFFFFFFFFFFFFFFFFFFFFFFFFFFFF AND PUSH20 0xFFFFFFFFFFFFFFFFFFFFFFFFFFFFFFFFFFFFFFFF AND DUP2 MSTORE PUSH1 0x20 ADD SWAP1 DUP2 MSTORE PUSH1 0x20 ADD PUSH1 0x0 KECCAK256 PUSH1 0x0 DUP3 DUP3 SLOAD PUSH2 0x1450 SWAP2 SWAP1 PUSH2 0x32A7 JUMP JUMPDEST SWAP3 POP POP DUP2 SWAP1 SSTORE POP PUSH1 0x0 PUSH1 0x2 PUSH1 0x0 CALLER PUSH20 0xFFFFFFFFFFFFFFFFFFFFFFFFFFFFFFFFFFFFFFFF AND PUSH20 0xFFFFFFFFFFFFFFFFFFFFFFFFFFFFFFFFFFFFFFFF AND DUP2 MSTORE PUSH1 0x20 ADD SWAP1 DUP2 MSTORE PUSH1 0x20 ADD PUSH1 0x0 KECCAK256 SLOAD SUB PUSH2 0x1527 JUMPI TIMESTAMP PUSH1 0x2 PUSH1 0x0 CALLER PUSH20 0xFFFFFFFFFFFFFFFFFFFFFFFFFFFFFFFFFFFFFFFF AND PUSH20 0xFFFFFFFFFFFFFFFFFFFFFFFFFFFFFFFFFFFFFFFF AND DUP2 MSTORE PUSH1 0x20 ADD SWAP1 DUP2 MSTORE PUSH1 0x20 ADD PUSH1 0x0 KECCAK256 DUP2 SWAP1 SSTORE POP TIMESTAMP PUSH1 0x3 PUSH1 0x0 CALLER PUSH20 0xFFFFFFFFFFFFFFFFFFFFFFFFFFFFFFFFFFFFFFFF AND PUSH20 0xFFFFFFFFFFFFFFFFFFFFFFFFFFFFFFFFFFFFFFFF AND DUP2 MSTORE PUSH1 0x20 ADD SWAP1 DUP2 MSTORE PUSH1 0x20 ADD PUSH1 0x0 KECCAK256 DUP2 SWAP1 SSTORE POP JUMPDEST POP JUMP JUMPDEST PUSH1 0x1 DUP2 JUMP JUMPDEST PUSH1 0x6 PUSH1 0x0 SWAP1 SLOAD SWAP1 PUSH2 0x100 EXP SWAP1 DIV PUSH20 0xFFFFFFFFFFFFFFFFFFFFFFFFFFFFFFFFFFFFFFFF AND PUSH20 0xFFFFFFFFFFFFFFFFFFFFFFFFFFFFFFFFFFFFFFFF AND CALLER PUSH20 0xFFFFFFFFFFFFFFFFFFFFFFFFFFFFFFFFFFFFFFFF AND EQ PUSH2 0x15BF JUMPI PUSH1 0x40 MLOAD PUSH32 0x8C379A000000000000000000000000000000000000000000000000000000000 DUP2 MSTORE PUSH1 0x4 ADD PUSH2 0x15B6 SWAP1 PUSH2 0x2F59 JUMP JUMPDEST PUSH1 0x40 MLOAD DUP1 SWAP2 SUB SWAP1 REVERT JUMPDEST PUSH1 0x5 PUSH1 0x4 PUSH1 0x0 DUP4 DUP2 MSTORE PUSH1 0x20 ADD SWAP1 DUP2 MSTORE PUSH1 0x20 ADD PUSH1 0x0 KECCAK256 PUSH1 0x9 ADD DUP2 SWAP1 SSTORE POP POP JUMP JUMPDEST CALLER PUSH20 0xFFFFFFFFFFFFFFFFFFFFFFFFFFFFFFFFFFFFFFFF AND PUSH1 0x4 PUSH1 0x0 DUP5 DUP2 MSTORE PUSH1 0x20 ADD SWAP1 DUP2 MSTORE PUSH1 0x20 ADD PUSH1 0x0 KECCAK256 PUSH1 0x8 ADD PUSH1 0x0 SWAP1 SLOAD SWAP1 PUSH2 0x100 EXP SWAP1 DIV PUSH20 0xFFFFFFFFFFFFFFFFFFFFFFFFFFFFFFFFFFFFFFFF AND PUSH20 0xFFFFFFFFFFFFFFFFFFFFFFFFFFFFFFFFFFFFFFFF AND EQ PUSH2 0x1682 JUMPI PUSH1 0x40 MLOAD PUSH32 0x8C379A000000000000000000000000000000000000000000000000000000000 DUP2 MSTORE PUSH1 0x4 ADD PUSH2 0x1679 SWAP1 PUSH2 0x3465 JUMP JUMPDEST PUSH1 0x40 MLOAD DUP1 SWAP2 SUB SWAP1 REVERT JUMPDEST DUP1 PUSH1 0x4 PUSH1 0x0 DUP5 DUP2 MSTORE PUSH1 0x20 ADD SWAP1 DUP2 MSTORE PUSH1 0x20 ADD PUSH1 0x0 KECCAK256 PUSH1 0x4 ADD SWAP1 DUP2 PUSH2 0x16A5 SWAP2 SWAP1 PUSH2 0x2D9E JUMP JUMPDEST POP TIMESTAMP PUSH1 0x4 PUSH1 0x0 DUP5 DUP2 MSTORE PUSH1 0x20 ADD SWAP1 DUP2 MSTORE PUSH1 0x20 ADD PUSH1 0x0 KECCAK256 PUSH1 0xA ADD DUP2 SWAP1 SSTORE POP POP POP JUMP JUMPDEST CALLER PUSH20 0xFFFFFFFFFFFFFFFFFFFFFFFFFFFFFFFFFFFFFFFF AND PUSH1 0x4 PUSH1 0x0 DUP5 DUP2 MSTORE PUSH1 0x20 ADD SWAP1 DUP2 MSTORE PUSH1 0x20 ADD PUSH1 0x0 KECCAK256 PUSH1 0x8 ADD PUSH1 0x0 SWAP1 SLOAD SWAP1 PUSH2 0x100 EXP SWAP1 DIV PUSH20 0xFFFFFFFFFFFFFFFFFFFFFFFFFFFFFFFFFFFFFFFF AND PUSH20 0xFFFFFFFFFFFFFFFFFFFFFFFFFFFFFFFFFFFFFFFF AND EQ PUSH2 0x1769 JUMPI PUSH1 0x40 MLOAD PUSH32 0x8C379A000000000000000000000000000000000000000000000000000000000 DUP2 MSTORE PUSH1 0x4 ADD PUSH2 0x1760 SWAP1 PUSH2 0x3465 JUMP JUMPDEST PUSH1 0x40 MLOAD DUP1 SWAP2 SUB SWAP1 REVERT JUMPDEST DUP1 PUSH1 0x4 PUSH1 0x0 DUP5 DUP2 MSTORE PUSH1 0x20 ADD SWAP1 DUP2 MSTORE PUSH1 0x20 ADD PUSH1 0x0 KECCAK256 PUSH1 0x3 ADD SWAP1 DUP2 PUSH2 0x178C SWAP2 SWAP1 PUSH2 0x2D9E JUMP JUMPDEST POP TIMESTAMP PUSH1 0x4 PUSH1 0x0 DUP5 DUP2 MSTORE PUSH1 0x20 ADD SWAP1 DUP2 MSTORE PUSH1 0x20 ADD PUSH1 0x0 KECCAK256 PUSH1 0xA ADD DUP2 SWAP1 SSTORE POP POP POP JUMP JUMPDEST PUSH1 0x1 PUSH1 0x20 MSTORE DUP1 PUSH1 0x0 MSTORE PUSH1 0x40 PUSH1 0x0 KECCAK256 PUSH1 0x0 SWAP2 POP SWAP1 POP SLOAD DUP2 JUMP JUMPDEST CALLER PUSH20 0xFFFFFFFFFFFFFFFFFFFFFFFFFFFFFFFFFFFFFFFF AND PUSH1 0x4 PUSH1 0x0 DUP5 DUP2 MSTORE PUSH1 0x20 ADD SWAP1 DUP2 MSTORE PUSH1 0x20 ADD PUSH1 0x0 KECCAK256 PUSH1 0x8 ADD PUSH1 0x0 SWAP1 SLOAD SWAP1 PUSH2 0x100 EXP SWAP1 DIV PUSH20 0xFFFFFFFFFFFFFFFFFFFFFFFFFFFFFFFFFFFFFFFF AND PUSH20 0xFFFFFFFFFFFFFFFFFFFFFFFFFFFFFFFFFFFFFFFF AND EQ PUSH2 0x1868 JUMPI PUSH1 0x40 MLOAD PUSH32 0x8C379A000000000000000000000000000000000000000000000000000000000 DUP2 MSTORE PUSH1 0x4 ADD PUSH2 0x185F SWAP1 PUSH2 0x3465 JUMP JUMPDEST PUSH1 0x40 MLOAD DUP1 SWAP2 SUB SWAP1 REVERT JUMPDEST DUP1 PUSH1 0x4 PUSH1 0x0 DUP5 DUP2 MSTORE PUSH1 0x20 ADD SWAP1 DUP2 MSTORE PUSH1 0x20 ADD PUSH1 0x0 KECCAK256 PUSH1 0x5 ADD SWAP1 DUP2 PUSH2 0x188B SWAP2 SWAP1 PUSH2 0x2D9E JUMP JUMPDEST POP TIMESTAMP PUSH1 0x4 PUSH1 0x0 DUP5 DUP2 MSTORE PUSH1 0x20 ADD SWAP1 DUP2 MSTORE PUSH1 0x20 ADD PUSH1 0x0 KECCAK256 PUSH1 0xA ADD DUP2 SWAP1 SSTORE POP POP POP JUMP JUMPDEST PUSH1 0x6 PUSH1 0x0 SWAP1 SLOAD SWAP1 PUSH2 0x100 EXP SWAP1 DIV PUSH20 0xFFFFFFFFFFFFFFFFFFFFFFFFFFFFFFFFFFFFFFFF AND PUSH20 0xFFFFFFFFFFFFFFFFFFFFFFFFFFFFFFFFFFFFFFFF AND CALLER PUSH20 0xFFFFFFFFFFFFFFFFFFFFFFFFFFFFFFFFFFFFFFFF AND EQ PUSH2 0x193B JUMPI PUSH1 0x40 MLOAD PUSH32 0x8C379A000000000000000000000000000000000000000000000000000000000 DUP2 MSTORE PUSH1 0x4 ADD PUSH2 0x1932 SWAP1 PUSH2 0x2F59 JUMP JUMPDEST PUSH1 0x40 MLOAD DUP1 SWAP2 SUB SWAP1 REVERT JUMPDEST PUSH1 0x0 PUSH1 0x4 PUSH1 0x0 DUP4 DUP2 MSTORE PUSH1 0x20 ADD SWAP1 DUP2 MSTORE PUSH1 0x20 ADD PUSH1 0x0 KECCAK256 PUSH1 0x9 ADD SLOAD EQ PUSH2 0x1994 JUMPI PUSH1 0x40 MLOAD PUSH32 0x8C379A000000000000000000000000000000000000000000000000000000000 DUP2 MSTORE PUSH1 0x4 ADD PUSH2 0x198B SWAP1 PUSH2 0x2FC5 JUMP JUMPDEST PUSH1 0x40 MLOAD DUP1 SWAP2 SUB SWAP1 REVERT JUMPDEST PUSH1 0x1 PUSH1 0x4 PUSH1 0x0 DUP4 DUP2 MSTORE PUSH1 0x20 ADD SWAP1 DUP2 MSTORE PUSH1 0x20 ADD PUSH1 0x0 KECCAK256 PUSH1 0x9 ADD DUP2 SWAP1 SSTORE POP POP JUMP JUMPDEST PUSH1 0x0 PUSH1 0x2 PUSH1 0x0 DUP4 PUSH20 0xFFFFFFFFFFFFFFFFFFFFFFFFFFFFFFFFFFFFFFFF AND PUSH20 0xFFFFFFFFFFFFFFFFFFFFFFFFFFFFFFFFFFFFFFFF AND DUP2 MSTORE PUSH1 0x20 ADD SWAP1 DUP2 MSTORE PUSH1 0x20 ADD PUSH1 0x0 KECCAK256 SLOAD SWAP1 POP SWAP2 SWAP1 POP JUMP JUMPDEST PUSH1 0x0 DUP1 PUSH1 0x0 CALLER PUSH20 0xFFFFFFFFFFFFFFFFFFFFFFFFFFFFFFFFFFFFFFFF AND PUSH20 0xFFFFFFFFFFFFFFFFFFFFFFFFFFFFFFFFFFFFFFFF AND DUP2 MSTORE PUSH1 0x20 ADD SWAP1 DUP2 MSTORE PUSH1 0x20 ADD PUSH1 0x0 KECCAK256 SLOAD GT PUSH2 0x1A7D JUMPI PUSH1 0x40 MLOAD PUSH32 0x8C379A000000000000000000000000000000000000000000000000000000000 DUP2 MSTORE PUSH1 0x4 ADD PUSH2 0x1A74 SWAP1 PUSH2 0x34D1 JUMP JUMPDEST PUSH1 0x40 MLOAD DUP1 SWAP2 SUB SWAP1 REVERT JUMPDEST PUSH1 0x0 PUSH1 0x2 PUSH1 0x0 CALLER PUSH20 0xFFFFFFFFFFFFFFFFFFFFFFFFFFFFFFFFFFFFFFFF AND PUSH20 0xFFFFFFFFFFFFFFFFFFFFFFFFFFFFFFFFFFFFFFFF AND DUP2 MSTORE PUSH1 0x20 ADD SWAP1 DUP2 MSTORE PUSH1 0x20 ADD PUSH1 0x0 KECCAK256 SLOAD TIMESTAMP PUSH2 0x1ACA SWAP2 SWAP1 PUSH2 0x2FE5 JUMP JUMPDEST SWAP1 POP PUSH1 0xC PUSH2 0xE10 PUSH2 0x1ADB SWAP2 SWAP1 PUSH2 0x308A JUMP JUMPDEST DUP2 LT ISZERO PUSH2 0x1B1D JUMPI PUSH1 0x40 MLOAD PUSH32 0x8C379A000000000000000000000000000000000000000000000000000000000 DUP2 MSTORE PUSH1 0x4 ADD PUSH2 0x1B14 SWAP1 PUSH2 0x353D JUMP JUMPDEST PUSH1 0x40 MLOAD DUP1 SWAP2 SUB SWAP1 REVERT JUMPDEST PUSH1 0x0 DUP1 PUSH1 0xC PUSH2 0xE10 PUSH2 0x1B2F SWAP2 SWAP1 PUSH2 0x308A JUMP JUMPDEST DUP4 PUSH2 0x1B3A SWAP2 SWAP1 PUSH2 0x308A JUMP JUMPDEST SWAP1 POP PUSH1 0x0 JUMPDEST DUP2 DUP2 LT ISZERO PUSH2 0x1C1E JUMPI PUSH1 0x0 PUSH1 0xC PUSH2 0xE10 PUSH2 0x1B58 SWAP2 SWAP1 PUSH2 0x308A JUMP JUMPDEST DUP3 PUSH2 0x1B63 SWAP2 SWAP1 PUSH2 0x3019 JUMP JUMPDEST PUSH1 0x2 PUSH1 0x0 CALLER PUSH20 0xFFFFFFFFFFFFFFFFFFFFFFFFFFFFFFFFFFFFFFFF AND PUSH20 0xFFFFFFFFFFFFFFFFFFFFFFFFFFFFFFFFFFFFFFFF AND DUP2 MSTORE PUSH1 0x20 ADD SWAP1 DUP2 MSTORE PUSH1 0x20 ADD PUSH1 0x0 KECCAK256 SLOAD PUSH2 0x1BAD SWAP2 SWAP1 PUSH2 0x32A7 JUMP JUMPDEST SWAP1 POP PUSH1 0x0 PUSH2 0x1BF9 PUSH1 0x0 DUP1 CALLER PUSH20 0xFFFFFFFFFFFFFFFFFFFFFFFFFFFFFFFFFFFFFFFF AND PUSH20 0xFFFFFFFFFFFFFFFFFFFFFFFFFFFFFFFFFFFFFFFF AND DUP2 MSTORE PUSH1 0x20 ADD SWAP1 DUP2 MSTORE PUSH1 0x20 ADD PUSH1 0x0 KECCAK256 SLOAD DUP4 PUSH2 0x92A JUMP JUMPDEST SWAP1 POP DUP1 DUP6 PUSH2 0x1C07 SWAP2 SWAP1 PUSH2 0x32A7 JUMP JUMPDEST SWAP5 POP POP POP DUP1 DUP1 PUSH2 0x1C16 SWAP1 PUSH2 0x2E9F JUMP JUMPDEST SWAP2 POP POP PUSH2 0x1B3F JUMP JUMPDEST POP PUSH1 0x0 PUSH1 0x64 PUSH1 0x3C DUP5 PUSH2 0x1C30 SWAP2 SWAP1 PUSH2 0x3019 JUMP JUMPDEST PUSH2 0x1C3A SWAP2 SWAP1 PUSH2 0x308A JUMP JUMPDEST SWAP1 POP PUSH1 0x0 PUSH1 0x64 PUSH1 0x28 DUP6 PUSH2 0x1C4D SWAP2 SWAP1 PUSH2 0x3019 JUMP JUMPDEST PUSH2 0x1C57 SWAP2 SWAP1 PUSH2 0x308A JUMP JUMPDEST SWAP1 POP PUSH2 0x1C62 DUP2 PUSH2 0x2316 JUMP JUMPDEST PUSH1 0xA DUP3 PUSH2 0x1C6F SWAP2 SWAP1 PUSH2 0x308A JUMP JUMPDEST PUSH1 0x1 PUSH1 0x0 CALLER PUSH20 0xFFFFFFFFFFFFFFFFFFFFFFFFFFFFFFFFFFFFFFFF AND PUSH20 0xFFFFFFFFFFFFFFFFFFFFFFFFFFFFFFFFFFFFFFFF AND DUP2 MSTORE PUSH1 0x20 ADD SWAP1 DUP2 MSTORE PUSH1 0x20 ADD PUSH1 0x0 KECCAK256 PUSH1 0x0 DUP3 DUP3 SLOAD PUSH2 0x1CBD SWAP2 SWAP1 PUSH2 0x32A7 JUMP JUMPDEST SWAP3 POP POP DUP2 SWAP1 SSTORE POP TIMESTAMP PUSH1 0x2 PUSH1 0x0 CALLER PUSH20 0xFFFFFFFFFFFFFFFFFFFFFFFFFFFFFFFFFFFFFFFF AND PUSH20 0xFFFFFFFFFFFFFFFFFFFFFFFFFFFFFFFFFFFFFFFF AND DUP2 MSTORE PUSH1 0x20 ADD SWAP1 DUP2 MSTORE PUSH1 0x20 ADD PUSH1 0x0 KECCAK256 DUP2 SWAP1 SSTORE POP PUSH1 0x7 PUSH1 0x0 SWAP1 SLOAD SWAP1 PUSH2 0x100 EXP SWAP1 DIV PUSH20 0xFFFFFFFFFFFFFFFFFFFFFFFFFFFFFFFFFFFFFFFF AND PUSH20 0xFFFFFFFFFFFFFFFFFFFFFFFFFFFFFFFFFFFFFFFF AND PUSH4 0xA9059CBB CALLER DUP5 PUSH1 0x40 MLOAD DUP4 PUSH4 0xFFFFFFFF AND PUSH1 0xE0 SHL DUP2 MSTORE PUSH1 0x4 ADD PUSH2 0x1D65 SWAP3 SWAP2 SWAP1 PUSH2 0x3127 JUMP JUMPDEST PUSH1 0x20 PUSH1 0x40 MLOAD DUP1 DUP4 SUB DUP2 PUSH1 0x0 DUP8 GAS CALL ISZERO DUP1 ISZERO PUSH2 0x1D84 JUMPI RETURNDATASIZE PUSH1 0x0 DUP1 RETURNDATACOPY RETURNDATASIZE PUSH1 0x0 REVERT JUMPDEST POP POP POP POP PUSH1 0x40 MLOAD RETURNDATASIZE PUSH1 0x1F NOT PUSH1 0x1F DUP3 ADD AND DUP3 ADD DUP1 PUSH1 0x40 MSTORE POP DUP2 ADD SWAP1 PUSH2 0x1DA8 SWAP2 SWAP1 PUSH2 0x317C JUMP JUMPDEST PUSH2 0x1DE7 JUMPI PUSH1 0x40 MLOAD PUSH32 0x8C379A000000000000000000000000000000000000000000000000000000000 DUP2 MSTORE PUSH1 0x4 ADD PUSH2 0x1DDE SWAP1 PUSH2 0x31F5 JUMP JUMPDEST PUSH1 0x40 MLOAD DUP1 SWAP2 SUB SWAP1 REVERT JUMPDEST POP POP POP POP POP JUMP JUMPDEST PUSH1 0x4 PUSH1 0x20 MSTORE DUP1 PUSH1 0x0 MSTORE PUSH1 0x40 PUSH1 0x0 KECCAK256 PUSH1 0x0 SWAP2 POP SWAP1 POP DUP1 PUSH1 0x0 ADD DUP1 SLOAD PUSH2 0x1E11 SWAP1 PUSH2 0x2BCB JUMP JUMPDEST DUP1 PUSH1 0x1F ADD PUSH1 0x20 DUP1 SWAP2 DIV MUL PUSH1 0x20 ADD PUSH1 0x40 MLOAD SWAP1 DUP2 ADD PUSH1 0x40 MSTORE DUP1 SWAP3 SWAP2 SWAP1 DUP2 DUP2 MSTORE PUSH1 0x20 ADD DUP3 DUP1 SLOAD PUSH2 0x1E3D SWAP1 PUSH2 0x2BCB JUMP JUMPDEST DUP1 ISZERO PUSH2 0x1E8A JUMPI DUP1 PUSH1 0x1F LT PUSH2 0x1E5F JUMPI PUSH2 0x100 DUP1 DUP4 SLOAD DIV MUL DUP4 MSTORE SWAP2 PUSH1 0x20 ADD SWAP2 PUSH2 0x1E8A JUMP JUMPDEST DUP3 ADD SWAP2 SWAP1 PUSH1 0x0 MSTORE PUSH1 0x20 PUSH1 0x0 KECCAK256 SWAP1 JUMPDEST DUP2 SLOAD DUP2 MSTORE SWAP1 PUSH1 0x1 ADD SWAP1 PUSH1 0x20 ADD DUP1 DUP4 GT PUSH2 0x1E6D JUMPI DUP3 SWAP1 SUB PUSH1 0x1F AND DUP3 ADD SWAP2 JUMPDEST POP POP POP POP POP SWAP1 DUP1 PUSH1 0x1 ADD DUP1 SLOAD PUSH2 0x1E9F SWAP1 PUSH2 0x2BCB JUMP JUMPDEST DUP1 PUSH1 0x1F ADD PUSH1 0x20 DUP1 SWAP2 DIV MUL PUSH1 0x20 ADD PUSH1 0x40 MLOAD SWAP1 DUP2 ADD PUSH1 0x40 MSTORE DUP1 SWAP3 SWAP2 SWAP1 DUP2 DUP2 MSTORE PUSH1 0x20 ADD DUP3 DUP1 SLOAD PUSH2 0x1ECB SWAP1 PUSH2 0x2BCB JUMP JUMPDEST DUP1 ISZERO PUSH2 0x1F18 JUMPI DUP1 PUSH1 0x1F LT PUSH2 0x1EED JUMPI PUSH2 0x100 DUP1 DUP4 SLOAD DIV MUL DUP4 MSTORE SWAP2 PUSH1 0x20 ADD SWAP2 PUSH2 0x1F18 JUMP JUMPDEST DUP3 ADD SWAP2 SWAP1 PUSH1 0x0 MSTORE PUSH1 0x20 PUSH1 0x0 KECCAK256 SWAP1 JUMPDEST DUP2 SLOAD DUP2 MSTORE SWAP1 PUSH1 0x1 ADD SWAP1 PUSH1 0x20 ADD DUP1 DUP4 GT PUSH2 0x1EFB JUMPI DUP3 SWAP1 SUB PUSH1 0x1F AND DUP3 ADD SWAP2 JUMPDEST POP POP POP POP POP SWAP1 DUP1 PUSH1 0x2 ADD DUP1 SLOAD PUSH2 0x1F2D SWAP1 PUSH2 0x2BCB JUMP JUMPDEST DUP1 PUSH1 0x1F ADD PUSH1 0x20 DUP1 SWAP2 DIV MUL PUSH1 0x20 ADD PUSH1 0x40 MLOAD SWAP1 DUP2 ADD PUSH1 0x40 MSTORE DUP1 SWAP3 SWAP2 SWAP1 DUP2 DUP2 MSTORE PUSH1 0x20 ADD DUP3 DUP1 SLOAD PUSH2 0x1F59 SWAP1 PUSH2 0x2BCB JUMP JUMPDEST DUP1 ISZERO PUSH2 0x1FA6 JUMPI DUP1 PUSH1 0x1F LT PUSH2 0x1F7B JUMPI PUSH2 0x100 DUP1 DUP4 SLOAD DIV MUL DUP4 MSTORE SWAP2 PUSH1 0x20 ADD SWAP2 PUSH2 0x1FA6 JUMP JUMPDEST DUP3 ADD SWAP2 SWAP1 PUSH1 0x0 MSTORE PUSH1 0x20 PUSH1 0x0 KECCAK256 SWAP1 JUMPDEST DUP2 SLOAD DUP2 MSTORE SWAP1 PUSH1 0x1 ADD SWAP1 PUSH1 0x20 ADD DUP1 DUP4 GT PUSH2 0x1F89 JUMPI DUP3 SWAP1 SUB PUSH1 0x1F AND DUP3 ADD SWAP2 JUMPDEST POP POP POP POP POP SWAP1 DUP1 PUSH1 0x3 ADD DUP1 SLOAD PUSH2 0x1FBB SWAP1 PUSH2 0x2BCB JUMP JUMPDEST DUP1 PUSH1 0x1F ADD PUSH1 0x20 DUP1 SWAP2 DIV MUL PUSH1 0x20 ADD PUSH1 0x40 MLOAD SWAP1 DUP2 ADD PUSH1 0x40 MSTORE DUP1 SWAP3 SWAP2 SWAP1 DUP2 DUP2 MSTORE PUSH1 0x20 ADD DUP3 DUP1 SLOAD PUSH2 0x1FE7 SWAP1 PUSH2 0x2BCB JUMP JUMPDEST DUP1 ISZERO PUSH2 0x2034 JUMPI DUP1 PUSH1 0x1F LT PUSH2 0x2009 JUMPI PUSH2 0x100 DUP1 DUP4 SLOAD DIV MUL DUP4 MSTORE SWAP2 PUSH1 0x20 ADD SWAP2 PUSH2 0x2034 JUMP JUMPDEST DUP3 ADD SWAP2 SWAP1 PUSH1 0x0 MSTORE PUSH1 0x20 PUSH1 0x0 KECCAK256 SWAP1 JUMPDEST DUP2 SLOAD DUP2 MSTORE SWAP1 PUSH1 0x1 ADD SWAP1 PUSH1 0x20 ADD DUP1 DUP4 GT PUSH2 0x2017 JUMPI DUP3 SWAP1 SUB PUSH1 0x1F AND DUP3 ADD SWAP2 JUMPDEST POP POP POP POP POP SWAP1 DUP1 PUSH1 0x4 ADD DUP1 SLOAD PUSH2 0x2049 SWAP1 PUSH2 0x2BCB JUMP JUMPDEST DUP1 PUSH1 0x1F ADD PUSH1 0x20 DUP1 SWAP2 DIV MUL PUSH1 0x20 ADD PUSH1 0x40 MLOAD SWAP1 DUP2 ADD PUSH1 0x40 MSTORE DUP1 SWAP3 SWAP2 SWAP1 DUP2 DUP2 MSTORE PUSH1 0x20 ADD DUP3 DUP1 SLOAD PUSH2 0x2075 SWAP1 PUSH2 0x2BCB JUMP JUMPDEST DUP1 ISZERO PUSH2 0x20C2 JUMPI DUP1 PUSH1 0x1F LT PUSH2 0x2097 JUMPI PUSH2 0x100 DUP1 DUP4 SLOAD DIV MUL DUP4 MSTORE SWAP2 PUSH1 0x20 ADD SWAP2 PUSH2 0x20C2 JUMP JUMPDEST DUP3 ADD SWAP2 SWAP1 PUSH1 0x0 MSTORE PUSH1 0x20 PUSH1 0x0 KECCAK256 SWAP1 JUMPDEST DUP2 SLOAD DUP2 MSTORE SWAP1 PUSH1 0x1 ADD SWAP1 PUSH1 0x20 ADD DUP1 DUP4 GT PUSH2 0x20A5 JUMPI DUP3 SWAP1 SUB PUSH1 0x1F AND DUP3 ADD SWAP2 JUMPDEST POP POP POP POP POP SWAP1 DUP1 PUSH1 0x5 ADD DUP1 SLOAD PUSH2 0x20D7 SWAP1 PUSH2 0x2BCB JUMP JUMPDEST DUP1 PUSH1 0x1F ADD PUSH1 0x20 DUP1 SWAP2 DIV MUL PUSH1 0x20 ADD PUSH1 0x40 MLOAD SWAP1 DUP2 ADD PUSH1 0x40 MSTORE DUP1 SWAP3 SWAP2 SWAP1 DUP2 DUP2 MSTORE PUSH1 0x20 ADD DUP3 DUP1 SLOAD PUSH2 0x2103 SWAP1 PUSH2 0x2BCB JUMP JUMPDEST DUP1 ISZERO PUSH2 0x2150 JUMPI DUP1 PUSH1 0x1F LT PUSH2 0x2125 JUMPI PUSH2 0x100 DUP1 DUP4 SLOAD DIV MUL DUP4 MSTORE SWAP2 PUSH1 0x20 ADD SWAP2 PUSH2 0x2150 JUMP JUMPDEST DUP3 ADD SWAP2 SWAP1 PUSH1 0x0 MSTORE PUSH1 0x20 PUSH1 0x0 KECCAK256 SWAP1 JUMPDEST DUP2 SLOAD DUP2 MSTORE SWAP1 PUSH1 0x1 ADD SWAP1 PUSH1 0x20 ADD DUP1 DUP4 GT PUSH2 0x2133 JUMPI DUP3 SWAP1 SUB PUSH1 0x1F AND DUP3 ADD SWAP2 JUMPDEST POP POP POP POP POP SWAP1 DUP1 PUSH1 0x6 ADD DUP1 SLOAD PUSH2 0x2165 SWAP1 PUSH2 0x2BCB JUMP JUMPDEST DUP1 PUSH1 0x1F ADD PUSH1 0x20 DUP1 SWAP2 DIV MUL PUSH1 0x20 ADD PUSH1 0x40 MLOAD SWAP1 DUP2 ADD PUSH1 0x40 MSTORE DUP1 SWAP3 SWAP2 SWAP1 DUP2 DUP2 MSTORE PUSH1 0x20 ADD DUP3 DUP1 SLOAD PUSH2 0x2191 SWAP1 PUSH2 0x2BCB JUMP JUMPDEST DUP1 ISZERO PUSH2 0x21DE JUMPI DUP1 PUSH1 0x1F LT PUSH2 0x21B3 JUMPI PUSH2 0x100 DUP1 DUP4 SLOAD DIV MUL DUP4 MSTORE SWAP2 PUSH1 0x20 ADD SWAP2 PUSH2 0x21DE JUMP JUMPDEST DUP3 ADD SWAP2 SWAP1 PUSH1 0x0 MSTORE PUSH1 0x20 PUSH1 0x0 KECCAK256 SWAP1 JUMPDEST DUP2 SLOAD DUP2 MSTORE SWAP1 PUSH1 0x1 ADD SWAP1 PUSH1 0x20 ADD DUP1 DUP4 GT PUSH2 0x21C1 JUMPI DUP3 SWAP1 SUB PUSH1 0x1F AND DUP3 ADD SWAP2 JUMPDEST POP POP POP POP POP SWAP1 DUP1 PUSH1 0x7 ADD DUP1 SLOAD PUSH2 0x21F3 SWAP1 PUSH2 0x2BCB JUMP JUMPDEST DUP1 PUSH1 0x1F ADD PUSH1 0x20 DUP1 SWAP2 DIV MUL PUSH1 0x20 ADD PUSH1 0x40 MLOAD SWAP1 DUP2 ADD PUSH1 0x40 MSTORE DUP1 SWAP3 SWAP2 SWAP1 DUP2 DUP2 MSTORE PUSH1 0x20 ADD DUP3 DUP1 SLOAD PUSH2 0x221F SWAP1 PUSH2 0x2BCB JUMP JUMPDEST DUP1 ISZERO PUSH2 0x226C JUMPI DUP1 PUSH1 0x1F LT PUSH2 0x2241 JUMPI PUSH2 0x100 DUP1 DUP4 SLOAD DIV MUL DUP4 MSTORE SWAP2 PUSH1 0x20 ADD SWAP2 PUSH2 0x226C JUMP JUMPDEST DUP3 ADD SWAP2 SWAP1 PUSH1 0x0 MSTORE PUSH1 0x20 PUSH1 0x0 KECCAK256 SWAP1 JUMPDEST DUP2 SLOAD DUP2 MSTORE SWAP1 PUSH1 0x1 ADD SWAP1 PUSH1 0x20 ADD DUP1 DUP4 GT PUSH2 0x224F JUMPI DUP3 SWAP1 SUB PUSH1 0x1F AND DUP3 ADD SWAP2 JUMPDEST POP POP POP POP POP SWAP1 DUP1 PUSH1 0x8 ADD PUSH1 0x0 SWAP1 SLOAD SWAP1 PUSH2 0x100 EXP SWAP1 DIV PUSH20 0xFFFFFFFFFFFFFFFFFFFFFFFFFFFFFFFFFFFFFFFF AND SWAP1 DUP1 PUSH1 0x9 ADD SLOAD SWAP1 DUP1 PUSH1 0xA ADD SLOAD SWAP1 DUP1 PUSH1 0xB ADD SLOAD SWAP1 POP DUP13 JUMP JUMPDEST PUSH1 0x6 PUSH1 0x0 SWAP1 SLOAD SWAP1 PUSH2 0x100 EXP SWAP1 DIV PUSH20 0xFFFFFFFFFFFFFFFFFFFFFFFFFFFFFFFFFFFFFFFF AND DUP2 JUMP JUMPDEST PUSH1 0x0 DUP1 PUSH2 0xE10 DUP4 PUSH2 0x22E5 SWAP2 SWAP1 PUSH2 0x308A JUMP JUMPDEST SWAP1 POP PUSH1 0x3 DUP2 LT PUSH2 0x22F9 JUMPI PUSH1 0x3 SWAP2 POP POP PUSH2 0x2311 JUMP JUMPDEST PUSH1 0x2 DUP2 SUB PUSH2 0x230B JUMPI PUSH1 0x2 SWAP2 POP POP PUSH2 0x2311 JUMP JUMPDEST PUSH1 0x1 SWAP2 POP POP JUMPDEST SWAP2 SWAP1 POP JUMP JUMPDEST PUSH1 0x0 PUSH2 0x2320 PUSH2 0x24B9 JUMP JUMPDEST SWAP1 POP PUSH1 0x0 DUP2 SUB PUSH2 0x2330 JUMPI POP PUSH2 0x24B6 JUMP JUMPDEST PUSH1 0x0 JUMPDEST PUSH1 0x5 SLOAD DUP2 LT ISZERO PUSH2 0x24B3 JUMPI PUSH1 0x0 PUSH1 0x4 PUSH1 0x0 DUP4 DUP2 MSTORE PUSH1 0x20 ADD SWAP1 DUP2 MSTORE PUSH1 0x20 ADD PUSH1 0x0 KECCAK256 SWAP1 POP PUSH1 0x5 DUP1 DUP2 GT ISZERO PUSH2 0x2367 JUMPI PUSH2 0x2366 PUSH2 0x32DB JUMP JUMPDEST JUMPDEST DUP2 PUSH1 0x9 ADD SLOAD EQ PUSH2 0x249F JUMPI PUSH1 0x0 DUP4 DUP6 DUP4 PUSH1 0xB ADD SLOAD PUSH2 0x2384 SWAP2 SWAP1 PUSH2 0x3019 JUMP JUMPDEST PUSH2 0x238E SWAP2 SWAP1 PUSH2 0x308A JUMP JUMPDEST SWAP1 POP PUSH1 0x0 DUP2 GT ISZERO PUSH2 0x249D JUMPI PUSH1 0x7 PUSH1 0x0 SWAP1 SLOAD SWAP1 PUSH2 0x100 EXP SWAP1 DIV PUSH20 0xFFFFFFFFFFFFFFFFFFFFFFFFFFFFFFFFFFFFFFFF AND PUSH20 0xFFFFFFFFFFFFFFFFFFFFFFFFFFFFFFFFFFFFFFFF AND PUSH4 0xA9059CBB DUP4 PUSH1 0x8 ADD PUSH1 0x0 SWAP1 SLOAD SWAP1 PUSH2 0x100 EXP SWAP1 DIV PUSH20 0xFFFFFFFFFFFFFFFFFFFFFFFFFFFFFFFFFFFFFFFF AND DUP4 PUSH1 0x40 MLOAD DUP4 PUSH4 0xFFFFFFFF AND PUSH1 0xE0 SHL DUP2 MSTORE PUSH1 0x4 ADD PUSH2 0x241A SWAP3 SWAP2 SWAP1 PUSH2 0x3127 JUMP JUMPDEST PUSH1 0x20 PUSH1 0x40 MLOAD DUP1 DUP4 SUB DUP2 PUSH1 0x0 DUP8 GAS CALL ISZERO DUP1 ISZERO PUSH2 0x2439 JUMPI RETURNDATASIZE PUSH1 0x0 DUP1 RETURNDATACOPY RETURNDATASIZE PUSH1 0x0 REVERT JUMPDEST POP POP POP POP PUSH1 0x40 MLOAD RETURNDATASIZE PUSH1 0x1F NOT PUSH1 0x1F DUP3 ADD AND DUP3 ADD DUP1 PUSH1 0x40 MSTORE POP DUP2 ADD SWAP1 PUSH2 0x245D SWAP2 SWAP1 PUSH2 0x317C JUMP JUMPDEST PUSH2 0x249C JUMPI PUSH1 0x40 MLOAD PUSH32 0x8C379A000000000000000000000000000000000000000000000000000000000 DUP2 MSTORE PUSH1 0x4 ADD PUSH2 0x2493 SWAP1 PUSH2 0x35A9 JUMP JUMPDEST PUSH1 0x40 MLOAD DUP1 SWAP2 SUB SWAP1 REVERT JUMPDEST JUMPDEST POP JUMPDEST POP DUP1 DUP1 PUSH2 0x24AB SWAP1 PUSH2 0x2E9F JUMP JUMPDEST SWAP2 POP POP PUSH2 0x2333 JUMP JUMPDEST POP POP JUMPDEST POP JUMP JUMPDEST PUSH1 0x0 DUP1 PUSH1 0x0 SWAP1 POP PUSH1 0x0 JUMPDEST PUSH1 0x5 SLOAD DUP2 LT ISZERO PUSH2 0x2534 JUMPI PUSH1 0x5 DUP1 DUP2 GT ISZERO PUSH2 0x24E0 JUMPI PUSH2 0x24DF PUSH2 0x32DB JUMP JUMPDEST JUMPDEST PUSH1 0x4 PUSH1 0x0 DUP4 DUP2 MSTORE PUSH1 0x20 ADD SWAP1 DUP2 MSTORE PUSH1 0x20 ADD PUSH1 0x0 KECCAK256 PUSH1 0x9 ADD SLOAD EQ PUSH2 0x2521 JUMPI PUSH1 0x4 PUSH1 0x0 DUP3 DUP2 MSTORE PUSH1 0x20 ADD SWAP1 DUP2 MSTORE PUSH1 0x20 ADD PUSH1 0x0 KECCAK256 PUSH1 0xB ADD SLOAD DUP3 PUSH2 0x251E SWAP2 SWAP1 PUSH2 0x32A7 JUMP JUMPDEST SWAP2 POP JUMPDEST DUP1 DUP1 PUSH2 0x252C SWAP1 PUSH2 0x2E9F JUMP JUMPDEST SWAP2 POP POP PUSH2 0x24C3 JUMP JUMPDEST POP DUP1 SWAP2 POP POP SWAP1 JUMP JUMPDEST PUSH1 0x0 PUSH1 0x40 MLOAD SWAP1 POP SWAP1 JUMP JUMPDEST PUSH1 0x0 DUP1 REVERT JUMPDEST PUSH1 0x0 DUP1 REVERT JUMPDEST PUSH1 0x0 PUSH20 0xFFFFFFFFFFFFFFFFFFFFFFFFFFFFFFFFFFFFFFFF DUP3 AND SWAP1 POP SWAP2 SWAP1 POP JUMP JUMPDEST PUSH1 0x0 PUSH2 0x257B DUP3 PUSH2 0x2550 JUMP JUMPDEST SWAP1 POP SWAP2 SWAP1 POP JUMP JUMPDEST PUSH2 0x258B DUP2 PUSH2 0x2570 JUMP JUMPDEST DUP2 EQ PUSH2 0x2596 JUMPI PUSH1 0x0 DUP1 REVERT JUMPDEST POP JUMP JUMPDEST PUSH1 0x0 DUP2 CALLDATALOAD SWAP1 POP PUSH2 0x25A8 DUP2 PUSH2 0x2582 JUMP JUMPDEST SWAP3 SWAP2 POP POP JUMP JUMPDEST PUSH1 0x0 PUSH1 0x20 DUP3 DUP5 SUB SLT ISZERO PUSH2 0x25C4 JUMPI PUSH2 0x25C3 PUSH2 0x2546 JUMP JUMPDEST JUMPDEST PUSH1 0x0 PUSH2 0x25D2 DUP5 DUP3 DUP6 ADD PUSH2 0x2599 JUMP JUMPDEST SWAP2 POP POP SWAP3 SWAP2 POP POP JUMP JUMPDEST PUSH1 0x0 DUP2 SWAP1 POP SWAP2 SWAP1 POP JUMP JUMPDEST PUSH2 0x25EE DUP2 PUSH2 0x25DB JUMP JUMPDEST DUP3 MSTORE POP POP JUMP JUMPDEST PUSH1 0x0 PUSH1 0x20 DUP3 ADD SWAP1 POP PUSH2 0x2609 PUSH1 0x0 DUP4 ADD DUP5 PUSH2 0x25E5 JUMP JUMPDEST SWAP3 SWAP2 POP POP JUMP JUMPDEST PUSH1 0x0 DUP1 REVERT JUMPDEST PUSH1 0x0 DUP1 REVERT JUMPDEST PUSH1 0x0 PUSH1 0x1F NOT PUSH1 0x1F DUP4 ADD AND SWAP1 POP SWAP2 SWAP1 POP JUMP JUMPDEST PUSH32 0x4E487B7100000000000000000000000000000000000000000000000000000000 PUSH1 0x0 MSTORE PUSH1 0x41 PUSH1 0x4 MSTORE PUSH1 0x24 PUSH1 0x0 REVERT JUMPDEST PUSH2 0x2662 DUP3 PUSH2 0x2619 JUMP JUMPDEST DUP2 ADD DUP2 DUP2 LT PUSH8 0xFFFFFFFFFFFFFFFF DUP3 GT OR ISZERO PUSH2 0x2681 JUMPI PUSH2 0x2680 PUSH2 0x262A JUMP JUMPDEST JUMPDEST DUP1 PUSH1 0x40 MSTORE POP POP POP JUMP JUMPDEST PUSH1 0x0 PUSH2 0x2694 PUSH2 0x253C JUMP JUMPDEST SWAP1 POP PUSH2 0x26A0 DUP3 DUP3 PUSH2 0x2659 JUMP JUMPDEST SWAP2 SWAP1 POP JUMP JUMPDEST PUSH1 0x0 PUSH8 0xFFFFFFFFFFFFFFFF DUP3 GT ISZERO PUSH2 0x26C0 JUMPI PUSH2 0x26BF PUSH2 0x262A JUMP JUMPDEST JUMPDEST PUSH2 0x26C9 DUP3 PUSH2 0x2619 JUMP JUMPDEST SWAP1 POP PUSH1 0x20 DUP2 ADD SWAP1 POP SWAP2 SWAP1 POP JUMP JUMPDEST DUP3 DUP2 DUP4 CALLDATACOPY PUSH1 0x0 DUP4 DUP4 ADD MSTORE POP POP POP JUMP JUMPDEST PUSH1 0x0 PUSH2 0x26F8 PUSH2 0x26F3 DUP5 PUSH2 0x26A5 JUMP JUMPDEST PUSH2 0x268A JUMP JUMPDEST SWAP1 POP DUP3 DUP2 MSTORE PUSH1 0x20 DUP2 ADD DUP5 DUP5 DUP5 ADD GT ISZERO PUSH2 0x2714 JUMPI PUSH2 0x2713 PUSH2 0x2614 JUMP JUMPDEST JUMPDEST PUSH2 0x271F DUP5 DUP3 DUP6 PUSH2 0x26D6 JUMP JUMPDEST POP SWAP4 SWAP3 POP POP POP JUMP JUMPDEST PUSH1 0x0 DUP3 PUSH1 0x1F DUP4 ADD SLT PUSH2 0x273C JUMPI PUSH2 0x273B PUSH2 0x260F JUMP JUMPDEST JUMPDEST DUP2 CALLDATALOAD PUSH2 0x274C DUP5 DUP3 PUSH1 0x20 DUP7 ADD PUSH2 0x26E5 JUMP JUMPDEST SWAP2 POP POP SWAP3 SWAP2 POP POP JUMP JUMPDEST PUSH1 0x0 DUP1 PUSH1 0x0 DUP1 PUSH1 0x0 PUSH1 0xA0 DUP7 DUP9 SUB SLT ISZERO PUSH2 0x2771 JUMPI PUSH2 0x2770 PUSH2 0x2546 JUMP JUMPDEST JUMPDEST PUSH1 0x0 DUP7 ADD CALLDATALOAD PUSH8 0xFFFFFFFFFFFFFFFF DUP2 GT ISZERO PUSH2 0x278F JUMPI PUSH2 0x278E PUSH2 0x254B JUMP JUMPDEST JUMPDEST PUSH2 0x279B DUP9 DUP3 DUP10 ADD PUSH2 0x2727 JUMP JUMPDEST SWAP6 POP POP PUSH1 0x20 DUP7 ADD CALLDATALOAD PUSH8 0xFFFFFFFFFFFFFFFF DUP2 GT ISZERO PUSH2 0x27BC JUMPI PUSH2 0x27BB PUSH2 0x254B JUMP JUMPDEST JUMPDEST PUSH2 0x27C8 DUP9 DUP3 DUP10 ADD PUSH2 0x2727 JUMP JUMPDEST SWAP5 POP POP PUSH1 0x40 DUP7 ADD CALLDATALOAD PUSH8 0xFFFFFFFFFFFFFFFF DUP2 GT ISZERO PUSH2 0x27E9 JUMPI PUSH2 0x27E8 PUSH2 0x254B JUMP JUMPDEST JUMPDEST PUSH2 0x27F5 DUP9 DUP3 DUP10 ADD PUSH2 0x2727 JUMP JUMPDEST SWAP4 POP POP PUSH1 0x60 DUP7 ADD CALLDATALOAD PUSH8 0xFFFFFFFFFFFFFFFF DUP2 GT ISZERO PUSH2 0x2816 JUMPI PUSH2 0x2815 PUSH2 0x254B JUMP JUMPDEST JUMPDEST PUSH2 0x2822 DUP9 DUP3 DUP10 ADD PUSH2 0x2727 JUMP JUMPDEST SWAP3 POP POP PUSH1 0x80 DUP7 ADD CALLDATALOAD PUSH8 0xFFFFFFFFFFFFFFFF DUP2 GT ISZERO PUSH2 0x2843 JUMPI PUSH2 0x2842 PUSH2 0x254B JUMP JUMPDEST JUMPDEST PUSH2 0x284F DUP9 DUP3 DUP10 ADD PUSH2 0x2727 JUMP JUMPDEST SWAP2 POP POP SWAP3 SWAP6 POP SWAP3 SWAP6 SWAP1 SWAP4 POP JUMP JUMPDEST PUSH1 0x0 DUP2 SWAP1 POP SWAP2 SWAP1 POP JUMP JUMPDEST PUSH1 0x0 PUSH2 0x2881 PUSH2 0x287C PUSH2 0x2877 DUP5 PUSH2 0x2550 JUMP JUMPDEST PUSH2 0x285C JUMP JUMPDEST PUSH2 0x2550 JUMP JUMPDEST SWAP1 POP SWAP2 SWAP1 POP JUMP JUMPDEST PUSH1 0x0 PUSH2 0x2893 DUP3 PUSH2 0x2866 JUMP JUMPDEST SWAP1 POP SWAP2 SWAP1 POP JUMP JUMPDEST PUSH1 0x0 PUSH2 0x28A5 DUP3 PUSH2 0x2888 JUMP JUMPDEST SWAP1 POP SWAP2 SWAP1 POP JUMP JUMPDEST PUSH2 0x28B5 DUP2 PUSH2 0x289A JUMP JUMPDEST DUP3 MSTORE POP POP JUMP JUMPDEST PUSH1 0x0 PUSH1 0x20 DUP3 ADD SWAP1 POP PUSH2 0x28D0 PUSH1 0x0 DUP4 ADD DUP5 PUSH2 0x28AC JUMP JUMPDEST SWAP3 SWAP2 POP POP JUMP JUMPDEST PUSH2 0x28DF DUP2 PUSH2 0x25DB JUMP JUMPDEST DUP2 EQ PUSH2 0x28EA JUMPI PUSH1 0x0 DUP1 REVERT JUMPDEST POP JUMP JUMPDEST PUSH1 0x0 DUP2 CALLDATALOAD SWAP1 POP PUSH2 0x28FC DUP2 PUSH2 0x28D6 JUMP JUMPDEST SWAP3 SWAP2 POP POP JUMP JUMPDEST PUSH1 0x0 PUSH1 0x20 DUP3 DUP5 SUB SLT ISZERO PUSH2 0x2918 JUMPI PUSH2 0x2917 PUSH2 0x2546 JUMP JUMPDEST JUMPDEST PUSH1 0x0 PUSH2 0x2926 DUP5 DUP3 DUP6 ADD PUSH2 0x28ED JUMP JUMPDEST SWAP2 POP POP SWAP3 SWAP2 POP POP JUMP JUMPDEST PUSH1 0x0 DUP1 PUSH1 0x40 DUP4 DUP6 SUB SLT ISZERO PUSH2 0x2946 JUMPI PUSH2 0x2945 PUSH2 0x2546 JUMP JUMPDEST JUMPDEST PUSH1 0x0 PUSH2 0x2954 DUP6 DUP3 DUP7 ADD PUSH2 0x28ED JUMP JUMPDEST SWAP3 POP POP PUSH1 0x20 PUSH2 0x2965 DUP6 DUP3 DUP7 ADD PUSH2 0x28ED JUMP JUMPDEST SWAP2 POP POP SWAP3 POP SWAP3 SWAP1 POP JUMP JUMPDEST PUSH1 0x0 DUP2 ISZERO ISZERO SWAP1 POP SWAP2 SWAP1 POP JUMP JUMPDEST PUSH2 0x2984 DUP2 PUSH2 0x296F JUMP JUMPDEST DUP3 MSTORE POP POP JUMP JUMPDEST PUSH1 0x0 PUSH1 0x20 DUP3 ADD SWAP1 POP PUSH2 0x299F PUSH1 0x0 DUP4 ADD DUP5 PUSH2 0x297B JUMP JUMPDEST SWAP3 SWAP2 POP POP JUMP JUMPDEST PUSH1 0x0 DUP1 PUSH1 0x40 DUP4 DUP6 SUB SLT ISZERO PUSH2 0x29BC JUMPI PUSH2 0x29BB PUSH2 0x2546 JUMP JUMPDEST JUMPDEST PUSH1 0x0 PUSH2 0x29CA DUP6 DUP3 DUP7 ADD PUSH2 0x28ED JUMP JUMPDEST SWAP3 POP POP PUSH1 0x20 DUP4 ADD CALLDATALOAD PUSH8 0xFFFFFFFFFFFFFFFF DUP2 GT ISZERO PUSH2 0x29EB JUMPI PUSH2 0x29EA PUSH2 0x254B JUMP JUMPDEST JUMPDEST PUSH2 0x29F7 DUP6 DUP3 DUP7 ADD PUSH2 0x2727 JUMP JUMPDEST SWAP2 POP POP SWAP3 POP SWAP3 SWAP1 POP JUMP JUMPDEST PUSH1 0x0 DUP2 MLOAD SWAP1 POP SWAP2 SWAP1 POP JUMP JUMPDEST PUSH1 0x0 DUP3 DUP3 MSTORE PUSH1 0x20 DUP3 ADD SWAP1 POP SWAP3 SWAP2 POP POP JUMP JUMPDEST PUSH1 0x0 JUMPDEST DUP4 DUP2 LT ISZERO PUSH2 0x2A3B JUMPI DUP1 DUP3 ADD MLOAD DUP2 DUP5 ADD MSTORE PUSH1 0x20 DUP2 ADD SWAP1 POP PUSH2 0x2A20 JUMP JUMPDEST PUSH1 0x0 DUP5 DUP5 ADD MSTORE POP POP POP POP JUMP JUMPDEST PUSH1 0x0 PUSH2 0x2A52 DUP3 PUSH2 0x2A01 JUMP JUMPDEST PUSH2 0x2A5C DUP2 DUP6 PUSH2 0x2A0C JUMP JUMPDEST SWAP4 POP PUSH2 0x2A6C DUP2 DUP6 PUSH1 0x20 DUP7 ADD PUSH2 0x2A1D JUMP JUMPDEST PUSH2 0x2A75 DUP2 PUSH2 0x2619 JUMP JUMPDEST DUP5 ADD SWAP2 POP POP SWAP3 SWAP2 POP POP JUMP JUMPDEST PUSH2 0x2A89 DUP2 PUSH2 0x2570 JUMP JUMPDEST DUP3 MSTORE POP POP JUMP JUMPDEST PUSH1 0x0 PUSH2 0x180 DUP3 ADD SWAP1 POP DUP2 DUP2 SUB PUSH1 0x0 DUP4 ADD MSTORE PUSH2 0x2AAA DUP2 DUP16 PUSH2 0x2A47 JUMP JUMPDEST SWAP1 POP DUP2 DUP2 SUB PUSH1 0x20 DUP4 ADD MSTORE PUSH2 0x2ABE DUP2 DUP15 PUSH2 0x2A47 JUMP JUMPDEST SWAP1 POP DUP2 DUP2 SUB PUSH1 0x40 DUP4 ADD MSTORE PUSH2 0x2AD2 DUP2 DUP14 PUSH2 0x2A47 JUMP JUMPDEST SWAP1 POP DUP2 DUP2 SUB PUSH1 0x60 DUP4 ADD MSTORE PUSH2 0x2AE6 DUP2 DUP13 PUSH2 0x2A47 JUMP JUMPDEST SWAP1 POP DUP2 DUP2 SUB PUSH1 0x80 DUP4 ADD MSTORE PUSH2 0x2AFA DUP2 DUP12 PUSH2 0x2A47 JUMP JUMPDEST SWAP1 POP DUP2 DUP2 SUB PUSH1 0xA0 DUP4 ADD MSTORE PUSH2 0x2B0E DUP2 DUP11 PUSH2 0x2A47 JUMP JUMPDEST SWAP1 POP DUP2 DUP2 SUB PUSH1 0xC0 DUP4 ADD MSTORE PUSH2 0x2B22 DUP2 DUP10 PUSH2 0x2A47 JUMP JUMPDEST SWAP1 POP DUP2 DUP2 SUB PUSH1 0xE0 DUP4 ADD MSTORE PUSH2 0x2B36 DUP2 DUP9 PUSH2 0x2A47 JUMP JUMPDEST SWAP1 POP PUSH2 0x2B46 PUSH2 0x100 DUP4 ADD DUP8 PUSH2 0x2A80 JUMP JUMPDEST PUSH2 0x2B54 PUSH2 0x120 DUP4 ADD DUP7 PUSH2 0x25E5 JUMP JUMPDEST PUSH2 0x2B62 PUSH2 0x140 DUP4 ADD DUP6 PUSH2 0x25E5 JUMP JUMPDEST PUSH2 0x2B70 PUSH2 0x160 DUP4 ADD DUP5 PUSH2 0x25E5 JUMP JUMPDEST SWAP14 SWAP13 POP POP POP POP POP POP POP POP POP POP POP POP POP JUMP JUMPDEST PUSH1 0x0 PUSH1 0x20 DUP3 ADD SWAP1 POP PUSH2 0x2B96 PUSH1 0x0 DUP4 ADD DUP5 PUSH2 0x2A80 JUMP JUMPDEST SWAP3 SWAP2 POP POP JUMP JUMPDEST PUSH32 0x4E487B7100000000000000000000000000000000000000000000000000000000 PUSH1 0x0 MSTORE PUSH1 0x22 PUSH1 0x4 MSTORE PUSH1 0x24 PUSH1 0x0 REVERT JUMPDEST PUSH1 0x0 PUSH1 0x2 DUP3 DIV SWAP1 POP PUSH1 0x1 DUP3 AND DUP1 PUSH2 0x2BE3 JUMPI PUSH1 0x7F DUP3 AND SWAP2 POP JUMPDEST PUSH1 0x20 DUP3 LT DUP2 SUB PUSH2 0x2BF6 JUMPI PUSH2 0x2BF5 PUSH2 0x2B9C JUMP JUMPDEST JUMPDEST POP SWAP2 SWAP1 POP JUMP JUMPDEST PUSH1 0x0 DUP2 SWAP1 POP DUP2 PUSH1 0x0 MSTORE PUSH1 0x20 PUSH1 0x0 KECCAK256 SWAP1 POP SWAP2 SWAP1 POP JUMP JUMPDEST PUSH1 0x0 PUSH1 0x20 PUSH1 0x1F DUP4 ADD DIV SWAP1 POP SWAP2 SWAP1 POP JUMP JUMPDEST PUSH1 0x0 DUP3 DUP3 SHL SWAP1 POP SWAP3 SWAP2 POP POP JUMP JUMPDEST PUSH1 0x0 PUSH1 0x8 DUP4 MUL PUSH2 0x2C5E PUSH32 0xFFFFFFFFFFFFFFFFFFFFFFFFFFFFFFFFFFFFFFFFFFFFFFFFFFFFFFFFFFFFFFFF DUP3 PUSH2 0x2C21 JUMP JUMPDEST PUSH2 0x2C68 DUP7 DUP4 PUSH2 0x2C21 JUMP JUMPDEST SWAP6 POP DUP1 NOT DUP5 AND SWAP4 POP DUP1 DUP7 AND DUP5 OR SWAP3 POP POP POP SWAP4 SWAP3 POP POP POP JUMP JUMPDEST PUSH1 0x0 PUSH2 0x2C9B PUSH2 0x2C96 PUSH2 0x2C91 DUP5 PUSH2 0x25DB JUMP JUMPDEST PUSH2 0x285C JUMP JUMPDEST PUSH2 0x25DB JUMP JUMPDEST SWAP1 POP SWAP2 SWAP1 POP JUMP JUMPDEST PUSH1 0x0 DUP2 SWAP1 POP SWAP2 SWAP1 POP JUMP JUMPDEST PUSH2 0x2CB5 DUP4 PUSH2 0x2C80 JUMP JUMPDEST PUSH2 0x2CC9 PUSH2 0x2CC1 DUP3 PUSH2 0x2CA2 JUMP JUMPDEST DUP5 DUP5 SLOAD PUSH2 0x2C2E JUMP JUMPDEST DUP3 SSTORE POP POP POP POP JUMP JUMPDEST PUSH1 0x0 SWAP1 JUMP JUMPDEST PUSH2 0x2CDE PUSH2 0x2CD1 JUMP JUMPDEST PUSH2 0x2CE9 DUP2 DUP5 DUP5 PUSH2 0x2CAC JUMP JUMPDEST POP POP POP JUMP JUMPDEST JUMPDEST DUP2 DUP2 LT ISZERO PUSH2 0x2D0D JUMPI PUSH2 0x2D02 PUSH1 0x0 DUP3 PUSH2 0x2CD6 JUMP JUMPDEST PUSH1 0x1 DUP2 ADD SWAP1 POP PUSH2 0x2CEF JUMP JUMPDEST POP POP JUMP JUMPDEST PUSH1 0x1F DUP3 GT ISZERO PUSH2 0x2D52 JUMPI PUSH2 0x2D23 DUP2 PUSH2 0x2BFC JUMP JUMPDEST PUSH2 0x2D2C DUP5 PUSH2 0x2C11 JUMP JUMPDEST DUP2 ADD PUSH1 0x20 DUP6 LT ISZERO PUSH2 0x2D3B JUMPI DUP2 SWAP1 POP JUMPDEST PUSH2 0x2D4F PUSH2 0x2D47 DUP6 PUSH2 0x2C11 JUMP JUMPDEST DUP4 ADD DUP3 PUSH2 0x2CEE JUMP JUMPDEST POP POP JUMPDEST POP POP POP JUMP JUMPDEST PUSH1 0x0 DUP3 DUP3 SHR SWAP1 POP SWAP3 SWAP2 POP POP JUMP JUMPDEST PUSH1 0x0 PUSH2 0x2D75 PUSH1 0x0 NOT DUP5 PUSH1 0x8 MUL PUSH2 0x2D57 JUMP JUMPDEST NOT DUP1 DUP4 AND SWAP2 POP POP SWAP3 SWAP2 POP POP JUMP JUMPDEST PUSH1 0x0 PUSH2 0x2D8E DUP4 DUP4 PUSH2 0x2D64 JUMP JUMPDEST SWAP2 POP DUP3 PUSH1 0x2 MUL DUP3 OR SWAP1 POP SWAP3 SWAP2 POP POP JUMP JUMPDEST PUSH2 0x2DA7 DUP3 PUSH2 0x2A01 JUMP JUMPDEST PUSH8 0xFFFFFFFFFFFFFFFF DUP2 GT ISZERO PUSH2 0x2DC0 JUMPI PUSH2 0x2DBF PUSH2 0x262A JUMP JUMPDEST JUMPDEST PUSH2 0x2DCA DUP3 SLOAD PUSH2 0x2BCB JUMP JUMPDEST PUSH2 0x2DD5 DUP3 DUP3 DUP6 PUSH2 0x2D11 JUMP JUMPDEST PUSH1 0x0 PUSH1 0x20 SWAP1 POP PUSH1 0x1F DUP4 GT PUSH1 0x1 DUP2 EQ PUSH2 0x2E08 JUMPI PUSH1 0x0 DUP5 ISZERO PUSH2 0x2DF6 JUMPI DUP3 DUP8 ADD MLOAD SWAP1 POP JUMPDEST PUSH2 0x2E00 DUP6 DUP3 PUSH2 0x2D82 JUMP JUMPDEST DUP7 SSTORE POP PUSH2 0x2E68 JUMP JUMPDEST PUSH1 0x1F NOT DUP5 AND PUSH2 0x2E16 DUP7 PUSH2 0x2BFC JUMP JUMPDEST PUSH1 0x0 JUMPDEST DUP3 DUP2 LT ISZERO PUSH2 0x2E3E JUMPI DUP5 DUP10 ADD MLOAD DUP3 SSTORE PUSH1 0x1 DUP3 ADD SWAP2 POP PUSH1 0x20 DUP6 ADD SWAP5 POP PUSH1 0x20 DUP2 ADD SWAP1 POP PUSH2 0x2E19 JUMP JUMPDEST DUP7 DUP4 LT ISZERO PUSH2 0x2E5B JUMPI DUP5 DUP10 ADD MLOAD PUSH2 0x2E57 PUSH1 0x1F DUP10 AND DUP3 PUSH2 0x2D64 JUMP JUMPDEST DUP4 SSTORE POP JUMPDEST PUSH1 0x1 PUSH1 0x2 DUP9 MUL ADD DUP9 SSTORE POP POP POP JUMPDEST POP POP POP POP POP POP JUMP JUMPDEST PUSH32 0x4E487B7100000000000000000000000000000000000000000000000000000000 PUSH1 0x0 MSTORE PUSH1 0x11 PUSH1 0x4 MSTORE PUSH1 0x24 PUSH1 0x0 REVERT JUMPDEST PUSH1 0x0 PUSH2 0x2EAA DUP3 PUSH2 0x25DB JUMP JUMPDEST SWAP2 POP PUSH32 0xFFFFFFFFFFFFFFFFFFFFFFFFFFFFFFFFFFFFFFFFFFFFFFFFFFFFFFFFFFFFFFFF DUP3 SUB PUSH2 0x2EDC JUMPI PUSH2 0x2EDB PUSH2 0x2E70 JUMP JUMPDEST JUMPDEST PUSH1 0x1 DUP3 ADD SWAP1 POP SWAP2 SWAP1 POP JUMP JUMPDEST PUSH32 0x4F6E6C792061646D696E2063616E20706572666F726D20746869732061637469 PUSH1 0x0 DUP3 ADD MSTORE PUSH32 0x6F6E000000000000000000000000000000000000000000000000000000000000 PUSH1 0x20 DUP3 ADD MSTORE POP JUMP JUMPDEST PUSH1 0x0 PUSH2 0x2F43 PUSH1 0x22 DUP4 PUSH2 0x2A0C JUMP JUMPDEST SWAP2 POP PUSH2 0x2F4E DUP3 PUSH2 0x2EE7 JUMP JUMPDEST PUSH1 0x40 DUP3 ADD SWAP1 POP SWAP2 SWAP1 POP JUMP JUMPDEST PUSH1 0x0 PUSH1 0x20 DUP3 ADD SWAP1 POP DUP2 DUP2 SUB PUSH1 0x0 DUP4 ADD MSTORE PUSH2 0x2F72 DUP2 PUSH2 0x2F36 JUMP JUMPDEST SWAP1 POP SWAP2 SWAP1 POP JUMP JUMPDEST PUSH32 0x456C656D656E74206973206E6F742070656E64696E6720617070726F76616C00 PUSH1 0x0 DUP3 ADD MSTORE POP JUMP JUMPDEST PUSH1 0x0 PUSH2 0x2FAF PUSH1 0x1F DUP4 PUSH2 0x2A0C JUMP JUMPDEST SWAP2 POP PUSH2 0x2FBA DUP3 PUSH2 0x2F79 JUMP JUMPDEST PUSH1 0x20 DUP3 ADD SWAP1 POP SWAP2 SWAP1 POP JUMP JUMPDEST PUSH1 0x0 PUSH1 0x20 DUP3 ADD SWAP1 POP DUP2 DUP2 SUB PUSH1 0x0 DUP4 ADD MSTORE PUSH2 0x2FDE DUP2 PUSH2 0x2FA2 JUMP JUMPDEST SWAP1 POP SWAP2 SWAP1 POP JUMP JUMPDEST PUSH1 0x0 PUSH2 0x2FF0 DUP3 PUSH2 0x25DB JUMP JUMPDEST SWAP2 POP PUSH2 0x2FFB DUP4 PUSH2 0x25DB JUMP JUMPDEST SWAP3 POP DUP3 DUP3 SUB SWAP1 POP DUP2 DUP2 GT ISZERO PUSH2 0x3013 JUMPI PUSH2 0x3012 PUSH2 0x2E70 JUMP JUMPDEST JUMPDEST SWAP3 SWAP2 POP POP JUMP JUMPDEST PUSH1 0x0 PUSH2 0x3024 DUP3 PUSH2 0x25DB JUMP JUMPDEST SWAP2 POP PUSH2 0x302F DUP4 PUSH2 0x25DB JUMP JUMPDEST SWAP3 POP DUP3 DUP3 MUL PUSH2 0x303D DUP2 PUSH2 0x25DB JUMP JUMPDEST SWAP2 POP DUP3 DUP3 DIV DUP5 EQ DUP4 ISZERO OR PUSH2 0x3054 JUMPI PUSH2 0x3053 PUSH2 0x2E70 JUMP JUMPDEST JUMPDEST POP SWAP3 SWAP2 POP POP JUMP JUMPDEST PUSH32 0x4E487B7100000000000000000000000000000000000000000000000000000000 PUSH1 0x0 MSTORE PUSH1 0x12 PUSH1 0x4 MSTORE PUSH1 0x24 PUSH1 0x0 REVERT JUMPDEST PUSH1 0x0 PUSH2 0x3095 DUP3 PUSH2 0x25DB JUMP JUMPDEST SWAP2 POP PUSH2 0x30A0 DUP4 PUSH2 0x25DB JUMP JUMPDEST SWAP3 POP DUP3 PUSH2 0x30B0 JUMPI PUSH2 0x30AF PUSH2 0x305B JUMP JUMPDEST JUMPDEST DUP3 DUP3 DIV SWAP1 POP SWAP3 SWAP2 POP POP JUMP JUMPDEST PUSH32 0x496E73756666696369656E74207374616B656420616D6F756E74000000000000 PUSH1 0x0 DUP3 ADD MSTORE POP JUMP JUMPDEST PUSH1 0x0 PUSH2 0x30F1 PUSH1 0x1A DUP4 PUSH2 0x2A0C JUMP JUMPDEST SWAP2 POP PUSH2 0x30FC DUP3 PUSH2 0x30BB JUMP JUMPDEST PUSH1 0x20 DUP3 ADD SWAP1 POP SWAP2 SWAP1 POP JUMP JUMPDEST PUSH1 0x0 PUSH1 0x20 DUP3 ADD SWAP1 POP DUP2 DUP2 SUB PUSH1 0x0 DUP4 ADD MSTORE PUSH2 0x3120 DUP2 PUSH2 0x30E4 JUMP JUMPDEST SWAP1 POP SWAP2 SWAP1 POP JUMP JUMPDEST PUSH1 0x0 PUSH1 0x40 DUP3 ADD SWAP1 POP PUSH2 0x313C PUSH1 0x0 DUP4 ADD DUP6 PUSH2 0x2A80 JUMP JUMPDEST PUSH2 0x3149 PUSH1 0x20 DUP4 ADD DUP5 PUSH2 0x25E5 JUMP JUMPDEST SWAP4 SWAP3 POP POP POP JUMP JUMPDEST PUSH2 0x3159 DUP2 PUSH2 0x296F JUMP JUMPDEST DUP2 EQ PUSH2 0x3164 JUMPI PUSH1 0x0 DUP1 REVERT JUMPDEST POP JUMP JUMPDEST PUSH1 0x0 DUP2 MLOAD SWAP1 POP PUSH2 0x3176 DUP2 PUSH2 0x3150 JUMP JUMPDEST SWAP3 SWAP2 POP POP JUMP JUMPDEST PUSH1 0x0 PUSH1 0x20 DUP3 DUP5 SUB SLT ISZERO PUSH2 0x3192 JUMPI PUSH2 0x3191 PUSH2 0x2546 JUMP JUMPDEST JUMPDEST PUSH1 0x0 PUSH2 0x31A0 DUP5 DUP3 DUP6 ADD PUSH2 0x3167 JUMP JUMPDEST SWAP2 POP POP SWAP3 SWAP2 POP POP JUMP JUMPDEST PUSH32 0x546F6B656E207472616E73666572206661696C65640000000000000000000000 PUSH1 0x0 DUP3 ADD MSTORE POP JUMP JUMPDEST PUSH1 0x0 PUSH2 0x31DF PUSH1 0x15 DUP4 PUSH2 0x2A0C JUMP JUMPDEST SWAP2 POP PUSH2 0x31EA DUP3 PUSH2 0x31A9 JUMP JUMPDEST PUSH1 0x20 DUP3 ADD SWAP1 POP SWAP2 SWAP1 POP JUMP JUMPDEST PUSH1 0x0 PUSH1 0x20 DUP3 ADD SWAP1 POP DUP2 DUP2 SUB PUSH1 0x0 DUP4 ADD MSTORE PUSH2 0x320E DUP2 PUSH2 0x31D2 JUMP JUMPDEST SWAP1 POP SWAP2 SWAP1 POP JUMP JUMPDEST PUSH32 0x456C656D656E7420697320616C726561647920696E2074686520507265737469 PUSH1 0x0 DUP3 ADD MSTORE PUSH32 0x6765207068617365000000000000000000000000000000000000000000000000 PUSH1 0x20 DUP3 ADD MSTORE POP JUMP JUMPDEST PUSH1 0x0 PUSH2 0x3271 PUSH1 0x28 DUP4 PUSH2 0x2A0C JUMP JUMPDEST SWAP2 POP PUSH2 0x327C DUP3 PUSH2 0x3215 JUMP JUMPDEST PUSH1 0x40 DUP3 ADD SWAP1 POP SWAP2 SWAP1 POP JUMP JUMPDEST PUSH1 0x0 PUSH1 0x20 DUP3 ADD SWAP1 POP DUP2 DUP2 SUB PUSH1 0x0 DUP4 ADD MSTORE PUSH2 0x32A0 DUP2 PUSH2 0x3264 JUMP JUMPDEST SWAP1 POP SWAP2 SWAP1 POP JUMP JUMPDEST PUSH1 0x0 PUSH2 0x32B2 DUP3 PUSH2 0x25DB JUMP JUMPDEST SWAP2 POP PUSH2 0x32BD DUP4 PUSH2 0x25DB JUMP JUMPDEST SWAP3 POP DUP3 DUP3 ADD SWAP1 POP DUP1 DUP3 GT ISZERO PUSH2 0x32D5 JUMPI PUSH2 0x32D4 PUSH2 0x2E70 JUMP JUMPDEST JUMPDEST SWAP3 SWAP2 POP POP JUMP JUMPDEST PUSH32 0x4E487B7100000000000000000000000000000000000000000000000000000000 PUSH1 0x0 MSTORE PUSH1 0x21 PUSH1 0x4 MSTORE PUSH1 0x24 PUSH1 0x0 REVERT JUMPDEST PUSH32 0x4E6F20766F74696E6720706F7765720000000000000000000000000000000000 PUSH1 0x0 DUP3 ADD MSTORE POP JUMP JUMPDEST PUSH1 0x0 PUSH2 0x3340 PUSH1 0xF DUP4 PUSH2 0x2A0C JUMP JUMPDEST SWAP2 POP PUSH2 0x334B DUP3 PUSH2 0x330A JUMP JUMPDEST PUSH1 0x20 DUP3 ADD SWAP1 POP SWAP2 SWAP1 POP JUMP JUMPDEST PUSH1 0x0 PUSH1 0x20 DUP3 ADD SWAP1 POP DUP2 DUP2 SUB PUSH1 0x0 DUP4 ADD MSTORE PUSH2 0x336F DUP2 PUSH2 0x3333 JUMP JUMPDEST SWAP1 POP SWAP2 SWAP1 POP JUMP JUMPDEST PUSH32 0x4D696E696D756D207374616B6520616D6F756E74206973203120746F6B656E00 PUSH1 0x0 DUP3 ADD MSTORE POP JUMP JUMPDEST PUSH1 0x0 PUSH2 0x33AC PUSH1 0x1F DUP4 PUSH2 0x2A0C JUMP JUMPDEST SWAP2 POP PUSH2 0x33B7 DUP3 PUSH2 0x3376 JUMP JUMPDEST PUSH1 0x20 DUP3 ADD SWAP1 POP SWAP2 SWAP1 POP JUMP JUMPDEST PUSH1 0x0 PUSH1 0x20 DUP3 ADD SWAP1 POP DUP2 DUP2 SUB PUSH1 0x0 DUP4 ADD MSTORE PUSH2 0x33DB DUP2 PUSH2 0x339F JUMP JUMPDEST SWAP1 POP SWAP2 SWAP1 POP JUMP JUMPDEST PUSH1 0x0 PUSH1 0x60 DUP3 ADD SWAP1 POP PUSH2 0x33F7 PUSH1 0x0 DUP4 ADD DUP7 PUSH2 0x2A80 JUMP JUMPDEST PUSH2 0x3404 PUSH1 0x20 DUP4 ADD DUP6 PUSH2 0x2A80 JUMP JUMPDEST PUSH2 0x3411 PUSH1 0x40 DUP4 ADD DUP5 PUSH2 0x25E5 JUMP JUMPDEST SWAP5 SWAP4 POP POP POP POP JUMP JUMPDEST PUSH32 0x4F6E6C792063726561746F722063616E20757064617465000000000000000000 PUSH1 0x0 DUP3 ADD MSTORE POP JUMP JUMPDEST PUSH1 0x0 PUSH2 0x344F PUSH1 0x17 DUP4 PUSH2 0x2A0C JUMP JUMPDEST SWAP2 POP PUSH2 0x345A DUP3 PUSH2 0x3419 JUMP JUMPDEST PUSH1 0x20 DUP3 ADD SWAP1 POP SWAP2 SWAP1 POP JUMP JUMPDEST PUSH1 0x0 PUSH1 0x20 DUP3 ADD SWAP1 POP DUP2 DUP2 SUB PUSH1 0x0 DUP4 ADD MSTORE PUSH2 0x347E DUP2 PUSH2 0x3442 JUMP JUMPDEST SWAP1 POP SWAP2 SWAP1 POP JUMP JUMPDEST PUSH32 0x4E6F207374616B656420616D6F756E7400000000000000000000000000000000 PUSH1 0x0 DUP3 ADD MSTORE POP JUMP JUMPDEST PUSH1 0x0 PUSH2 0x34BB PUSH1 0x10 DUP4 PUSH2 0x2A0C JUMP JUMPDEST SWAP2 POP PUSH2 0x34C6 DUP3 PUSH2 0x3485 JUMP JUMPDEST PUSH1 0x20 DUP3 ADD SWAP1 POP SWAP2 SWAP1 POP JUMP JUMPDEST PUSH1 0x0 PUSH1 0x20 DUP3 ADD SWAP1 POP DUP2 DUP2 SUB PUSH1 0x0 DUP4 ADD MSTORE PUSH2 0x34EA DUP2 PUSH2 0x34AE JUMP JUMPDEST SWAP1 POP SWAP2 SWAP1 POP JUMP JUMPDEST PUSH32 0x43616E6E6F7420636C61696D206265666F72652061206D6F6E74680000000000 PUSH1 0x0 DUP3 ADD MSTORE POP JUMP JUMPDEST PUSH1 0x0 PUSH2 0x3527 PUSH1 0x1B DUP4 PUSH2 0x2A0C JUMP JUMPDEST SWAP2 POP PUSH2 0x3532 DUP3 PUSH2 0x34F1 JUMP JUMPDEST PUSH1 0x20 DUP3 ADD SWAP1 POP SWAP2 SWAP1 POP JUMP JUMPDEST PUSH1 0x0 PUSH1 0x20 DUP3 ADD SWAP1 POP DUP2 DUP2 SUB PUSH1 0x0 DUP4 ADD MSTORE PUSH2 0x3556 DUP2 PUSH2 0x351A JUMP JUMPDEST SWAP1 POP SWAP2 SWAP1 POP JUMP JUMPDEST PUSH32 0x456C656D656E7420726577617264207472616E73666572206661696C65640000 PUSH1 0x0 DUP3 ADD MSTORE POP JUMP JUMPDEST PUSH1 0x0 PUSH2 0x3593 PUSH1 0x1E DUP4 PUSH2 0x2A0C JUMP JUMPDEST SWAP2 POP PUSH2 0x359E DUP3 PUSH2 0x355D JUMP JUMPDEST PUSH1 0x20 DUP3 ADD SWAP1 POP SWAP2 SWAP1 POP JUMP JUMPDEST PUSH1 0x0 PUSH1 0x20 DUP3 ADD SWAP1 POP DUP2 DUP2 SUB PUSH1 0x0 DUP4 ADD MSTORE PUSH2 0x35C2 DUP2 PUSH2 0x3586 JUMP JUMPDEST SWAP1 POP SWAP2 SWAP1 POP JUMP INVALID LOG2 PUSH5 0x6970667358 0x22 SLT KECCAK256 0xDA 0xC7 0xD1 PUSH2 0x3B2C PUSH10 0x96B054938B1C6D438059 BLOCKHASH 0xDC RETURNDATACOPY ADDMOD 0x2A GAS 0x2B DUP2 PUSH13 0xE9584DBB93A364736F6C634300 ADDMOD SLT STOP CALLER "
		},
		"gasEstimates": {
			"creation": {
				"codeDepositCost": "2764600",
				"executionCost": "infinite",
				"totalCost": "infinite"
			},
			"external": {
				"MINIMUM_STAKE_AMOUNT()": "374",
				"SECONDS_IN_MONTH()": "infinite",
				"SECONDS_IN_YEAR()": "396",
				"admin()": "2602",
				"approveElement(uint256)": "27070",
				"calculateMonthlyReward(uint256,uint256)": "infinite",
				"claimMonthlyReward()": "infinite",
				"confirmUpdate(uint256)": "infinite",
				"createElement(string,string,string,string,string)": "infinite",
				"elementCount()": "2540",
				"elements(uint256)": "infinite",
				"getAnnualRewardRate(uint256)": "infinite",
				"getClaimableReward(address)": "infinite",
				"getLastClaimedDate(address)": "2952",
				"hasPendingApplication(address)": "infinite",
				"lastClaimed(address)": "2861",
				"lopToken()": "infinite",
				"refuseUpdate(uint256)": "infinite",
				"rejectElement(uint256)": "27071",
				"removeElement(uint256)": "24841",
				"stakeTokens(uint256)": "infinite",
				"stakes(address)": "2860",
				"startingDate(address)": "2882",
				"updateElementMetrics(uint256,string)": "infinite",
				"updateElementTutorial(uint256,string)": "infinite",
				"updateElementWebsite(uint256,string)": "infinite",
				"voteOnElement(uint256,uint256)": "infinite",
				"votingPower(address)": "2859",
				"withdrawStake(uint256)": "infinite"
			},
			"internal": {
				"distributeElementReward(uint256)": "infinite",
				"getTotalVotes()": "infinite"
			}
		},
		"methodIdentifiers": {
			"MINIMUM_STAKE_AMOUNT()": "84d804be",
			"SECONDS_IN_MONTH()": "27855b13",
			"SECONDS_IN_YEAR()": "5dcc9391",
			"admin()": "f851a440",
			"approveElement(uint256)": "c9b3829f",
			"calculateMonthlyReward(uint256,uint256)": "20cb13ab",
			"claimMonthlyReward()": "d4f1e386",
			"confirmUpdate(uint256)": "3b72bad5",
			"createElement(string,string,string,string,string)": "0a274280",
			"elementCount()": "67be4673",
			"elements(uint256)": "e0d64b37",
			"getAnnualRewardRate(uint256)": "f9089bf2",
			"getClaimableReward(address)": "5ff329af",
			"getLastClaimedDate(address)": "cc78d728",
			"hasPendingApplication(address)": "6b8d04fb",
			"lastClaimed(address)": "013eba92",
			"lopToken()": "0d67f59e",
			"refuseUpdate(uint256)": "36ead39f",
			"rejectElement(uint256)": "1faa1128",
			"removeElement(uint256)": "9fc37abf",
			"stakeTokens(uint256)": "7547c7a3",
			"stakes(address)": "16934fc4",
			"startingDate(address)": "1d002cc0",
			"updateElementMetrics(uint256,string)": "c7b3564e",
			"updateElementTutorial(uint256,string)": "a721ebdd",
			"updateElementWebsite(uint256,string)": "b17146c8",
			"voteOnElement(uint256,uint256)": "72bae674",
			"votingPower(address)": "c07473f6",
			"withdrawStake(uint256)": "25d5971f"
		}
	},
	"abi": [
		{
			"inputs": [
				{
					"internalType": "address",
					"name": "_lopToken",
					"type": "address"
				}
			],
			"stateMutability": "nonpayable",
			"type": "constructor"
		},
		{
			"inputs": [],
			"name": "MINIMUM_STAKE_AMOUNT",
			"outputs": [
				{
					"internalType": "uint256",
					"name": "",
					"type": "uint256"
				}
			],
			"stateMutability": "view",
			"type": "function"
		},
		{
			"inputs": [],
			"name": "SECONDS_IN_MONTH",
			"outputs": [
				{
					"internalType": "uint256",
					"name": "",
					"type": "uint256"
				}
			],
			"stateMutability": "view",
			"type": "function"
		},
		{
			"inputs": [],
			"name": "SECONDS_IN_YEAR",
			"outputs": [
				{
					"internalType": "uint256",
					"name": "",
					"type": "uint256"
				}
			],
			"stateMutability": "view",
			"type": "function"
		},
		{
			"inputs": [],
			"name": "admin",
			"outputs": [
				{
					"internalType": "address",
					"name": "",
					"type": "address"
				}
			],
			"stateMutability": "view",
			"type": "function"
		},
		{
			"inputs": [
				{
					"internalType": "uint256",
					"name": "elementId",
					"type": "uint256"
				}
			],
			"name": "approveElement",
			"outputs": [],
			"stateMutability": "nonpayable",
			"type": "function"
		},
		{
			"inputs": [
				{
					"internalType": "uint256",
					"name": "stakeAmount",
					"type": "uint256"
				},
				{
					"internalType": "uint256",
					"name": "startTime",
					"type": "uint256"
				}
			],
			"name": "calculateMonthlyReward",
			"outputs": [
				{
					"internalType": "uint256",
					"name": "",
					"type": "uint256"
				}
			],
			"stateMutability": "view",
			"type": "function"
		},
		{
			"inputs": [],
			"name": "claimMonthlyReward",
			"outputs": [],
			"stateMutability": "nonpayable",
			"type": "function"
		},
		{
			"inputs": [
				{
					"internalType": "uint256",
					"name": "elementId",
					"type": "uint256"
				}
			],
			"name": "confirmUpdate",
			"outputs": [],
			"stateMutability": "nonpayable",
			"type": "function"
		},
		{
			"inputs": [
				{
					"internalType": "string",
					"name": "name",
					"type": "string"
				},
				{
					"internalType": "string",
					"name": "description",
					"type": "string"
				},
				{
					"internalType": "string",
					"name": "whitepaperLink",
					"type": "string"
				},
				{
					"internalType": "string",
					"name": "email",
					"type": "string"
				},
				{
					"internalType": "string",
					"name": "logoUrl",
					"type": "string"
				}
			],
			"name": "createElement",
			"outputs": [],
			"stateMutability": "nonpayable",
			"type": "function"
		},
		{
			"inputs": [],
			"name": "elementCount",
			"outputs": [
				{
					"internalType": "uint256",
					"name": "",
					"type": "uint256"
				}
			],
			"stateMutability": "view",
			"type": "function"
		},
		{
			"inputs": [
				{
					"internalType": "uint256",
					"name": "",
					"type": "uint256"
				}
			],
			"name": "elements",
			"outputs": [
				{
					"internalType": "string",
					"name": "name",
					"type": "string"
				},
				{
					"internalType": "string",
					"name": "description",
					"type": "string"
				},
				{
					"internalType": "string",
					"name": "whitepaperLink",
					"type": "string"
				},
				{
					"internalType": "string",
					"name": "websiteLink",
					"type": "string"
				},
				{
					"internalType": "string",
					"name": "tutorialLink",
					"type": "string"
				},
				{
					"internalType": "string",
					"name": "performanceMetricsLink",
					"type": "string"
				},
				{
					"internalType": "string",
					"name": "email",
					"type": "string"
				},
				{
					"internalType": "string",
					"name": "logoUrl",
					"type": "string"
				},
				{
					"internalType": "address",
					"name": "creator",
					"type": "address"
				},
				{
					"internalType": "uint256",
					"name": "phase",
					"type": "uint256"
				},
				{
					"internalType": "uint256",
					"name": "lastUpdate",
					"type": "uint256"
				},
				{
					"internalType": "uint256",
					"name": "voteCount",
					"type": "uint256"
				}
			],
			"stateMutability": "view",
			"type": "function"
		},
		{
			"inputs": [
				{
					"internalType": "uint256",
					"name": "timeElapsed",
					"type": "uint256"
				}
			],
			"name": "getAnnualRewardRate",
			"outputs": [
				{
					"internalType": "uint256",
					"name": "",
					"type": "uint256"
				}
			],
			"stateMutability": "pure",
			"type": "function"
		},
		{
			"inputs": [
				{
					"internalType": "address",
					"name": "user",
					"type": "address"
				}
			],
			"name": "getClaimableReward",
			"outputs": [
				{
					"internalType": "uint256",
					"name": "",
					"type": "uint256"
				}
			],
			"stateMutability": "view",
			"type": "function"
		},
		{
			"inputs": [
				{
					"internalType": "address",
					"name": "user",
					"type": "address"
				}
			],
			"name": "getLastClaimedDate",
			"outputs": [
				{
					"internalType": "uint256",
					"name": "",
					"type": "uint256"
				}
			],
			"stateMutability": "view",
			"type": "function"
		},
		{
			"inputs": [
				{
					"internalType": "address",
					"name": "creator",
					"type": "address"
				}
			],
			"name": "hasPendingApplication",
			"outputs": [
				{
					"internalType": "bool",
					"name": "",
					"type": "bool"
				}
			],
			"stateMutability": "view",
			"type": "function"
		},
		{
			"inputs": [
				{
					"internalType": "address",
					"name": "",
					"type": "address"
				}
			],
			"name": "lastClaimed",
			"outputs": [
				{
					"internalType": "uint256",
					"name": "",
					"type": "uint256"
				}
			],
			"stateMutability": "view",
			"type": "function"
		},
		{
			"inputs": [],
			"name": "lopToken",
			"outputs": [
				{
					"internalType": "contract IERC20",
					"name": "",
					"type": "address"
				}
			],
			"stateMutability": "view",
			"type": "function"
		},
		{
			"inputs": [
				{
					"internalType": "uint256",
					"name": "elementId",
					"type": "uint256"
				}
			],
			"name": "refuseUpdate",
			"outputs": [],
			"stateMutability": "nonpayable",
			"type": "function"
		},
		{
			"inputs": [
				{
					"internalType": "uint256",
					"name": "elementId",
					"type": "uint256"
				}
			],
			"name": "rejectElement",
			"outputs": [],
			"stateMutability": "nonpayable",
			"type": "function"
		},
		{
			"inputs": [
				{
					"internalType": "uint256",
					"name": "elementId",
					"type": "uint256"
				}
			],
			"name": "removeElement",
			"outputs": [],
			"stateMutability": "nonpayable",
			"type": "function"
		},
		{
			"inputs": [
				{
					"internalType": "uint256",
					"name": "amount",
					"type": "uint256"
				}
			],
			"name": "stakeTokens",
			"outputs": [],
			"stateMutability": "nonpayable",
			"type": "function"
		},
		{
			"inputs": [
				{
					"internalType": "address",
					"name": "",
					"type": "address"
				}
			],
			"name": "stakes",
			"outputs": [
				{
					"internalType": "uint256",
					"name": "",
					"type": "uint256"
				}
			],
			"stateMutability": "view",
			"type": "function"
		},
		{
			"inputs": [
				{
					"internalType": "address",
					"name": "",
					"type": "address"
				}
			],
			"name": "startingDate",
			"outputs": [
				{
					"internalType": "uint256",
					"name": "",
					"type": "uint256"
				}
			],
			"stateMutability": "view",
			"type": "function"
		},
		{
			"inputs": [
				{
					"internalType": "uint256",
					"name": "elementId",
					"type": "uint256"
				},
				{
					"internalType": "string",
					"name": "performanceMetricsLink",
					"type": "string"
				}
			],
			"name": "updateElementMetrics",
			"outputs": [],
			"stateMutability": "nonpayable",
			"type": "function"
		},
		{
			"inputs": [
				{
					"internalType": "uint256",
					"name": "elementId",
					"type": "uint256"
				},
				{
					"internalType": "string",
					"name": "tutorialLink",
					"type": "string"
				}
			],
			"name": "updateElementTutorial",
			"outputs": [],
			"stateMutability": "nonpayable",
			"type": "function"
		},
		{
			"inputs": [
				{
					"internalType": "uint256",
					"name": "elementId",
					"type": "uint256"
				},
				{
					"internalType": "string",
					"name": "websiteLink",
					"type": "string"
				}
			],
			"name": "updateElementWebsite",
			"outputs": [],
			"stateMutability": "nonpayable",
			"type": "function"
		},
		{
			"inputs": [
				{
					"internalType": "uint256",
					"name": "elementId",
					"type": "uint256"
				},
				{
					"internalType": "uint256",
					"name": "amount",
					"type": "uint256"
				}
			],
			"name": "voteOnElement",
			"outputs": [],
			"stateMutability": "nonpayable",
			"type": "function"
		},
		{
			"inputs": [
				{
					"internalType": "address",
					"name": "",
					"type": "address"
				}
			],
			"name": "votingPower",
			"outputs": [
				{
					"internalType": "uint256",
					"name": "",
					"type": "uint256"
				}
			],
			"stateMutability": "view",
			"type": "function"
		},
		{
			"inputs": [
				{
					"internalType": "uint256",
					"name": "amount",
					"type": "uint256"
				}
			],
			"name": "withdrawStake",
			"outputs": [],
			"stateMutability": "nonpayable",
			"type": "function"
		}
	]
}