{
	"data": {
		"bytecode": {
			"linkReferences": {},
			"object": "608060405234801562000010575f80fd5b506040516200548538038062005485833981810160405281019062000036919062000339565b60015f8190555033600860016101000a81548173ffffffffffffffffffffffffffffffffffffffff021916908373ffffffffffffffffffffffffffffffffffffffff16021790555082600b5f6101000a81548173ffffffffffffffffffffffffffffffffffffffff021916908373ffffffffffffffffffffffffffffffffffffffff1602179055508160095f6101000a81548173ffffffffffffffffffffffffffffffffffffffff021916908373ffffffffffffffffffffffffffffffffffffffff16021790555080600a5f6101000a81548173ffffffffffffffffffffffffffffffffffffffff021916908373ffffffffffffffffffffffffffffffffffffffff1602179055505f600c6040516200014f90620003ea565b90815260200160405180910390205f6101000a81548160ff0219169083151502179055505f600c60405162000184906200044e565b90815260200160405180910390205f6101000a81548160ff0219169083151502179055505f600c604051620001b990620004b2565b90815260200160405180910390205f6101000a81548160ff0219169083151502179055505f600c604051620001ee9062000516565b90815260200160405180910390205f6101000a81548160ff0219169083151502179055505f600c60405162000223906200057a565b90815260200160405180910390205f6101000a81548160ff0219169083151502179055505f600c6040516200025890620005de565b90815260200160405180910390205f6101000a81548160ff0219169083151502179055505f600c6040516200028d9062000642565b90815260200160405180910390205f6101000a81548160ff021916908315150217905550600160085f6101000a81548160ff02191690831515021790555050505062000658565b5f80fd5b5f73ffffffffffffffffffffffffffffffffffffffff82169050919050565b5f6200030382620002d8565b9050919050565b6200031581620002f7565b811462000320575f80fd5b50565b5f8151905062000333816200030a565b92915050565b5f805f60608486031215620003535762000352620002d4565b5b5f620003628682870162000323565b9350506020620003758682870162000323565b9250506040620003888682870162000323565b9150509250925092565b5f81905092915050565b7f617070726f7665456c656d656e740000000000000000000000000000000000005f82015250565b5f620003d2600e8362000392565b9150620003df826200039c565b600e82019050919050565b5f620003f682620003c4565b9150819050919050565b7f72656a656374456c656d656e74000000000000000000000000000000000000005f82015250565b5f62000436600d8362000392565b9150620004438262000400565b600d82019050919050565b5f6200045a8262000428565b9150819050919050565b7f72656d6f7665456c656d656e74000000000000000000000000000000000000005f82015250565b5f6200049a600d8362000392565b9150620004a78262000464565b600d82019050919050565b5f620004be826200048c565b9150819050919050565b7f636f6e6669726d557064617465000000000000000000000000000000000000005f82015250565b5f620004fe600d8362000392565b91506200050b82620004c8565b600d82019050919050565b5f6200052282620004f0565b9150819050919050565b7f72656675736555706461746500000000000000000000000000000000000000005f82015250565b5f62000562600c8362000392565b91506200056f826200052c565b600c82019050919050565b5f620005868262000554565b9150819050919050565b7f6368616e676541646d696e0000000000000000000000000000000000000000005f82015250565b5f620005c6600b8362000392565b9150620005d38262000590565b600b82019050919050565b5f620005ea82620005b8565b9150819050919050565b7f6368616e67655365636f6e6441646d696e0000000000000000000000000000005f82015250565b5f6200062a60118362000392565b91506200063782620005f4565b601182019050919050565b5f6200064e826200061c565b9150819050919050565b614e1f80620006665f395ff3fe608060405234801561000f575f80fd5b506004361061025b575f3560e01c80636b8d04fb11610144578063c07473f6116100c1578063d4f1e38611610085578063d4f1e38614610707578063d69eca4c14610711578063dd8087d11461072f578063e0d64b371461074b578063f851a44014610786578063f9089bf2146107a45761025b565b8063c07473f614610651578063c5e48e5a14610681578063c7b3564e1461069f578063c9b3829f146106bb578063cc78d728146106d75761025b565b80638f283970116101085780638f283970146105d75780638fddd022146105f35780639fc37abf146105fd578063a721ebdd14610619578063b17146c8146106355761025b565b80636b8d04fb1461053357806372bae674146105635780637547c7a31461057f57806384d804be1461059b5780638b52e06c146105b95761025b565b806325d5971f116101dd5780633b72bad5116101a15780633b72bad51461045d57806351d18598146104795780635dcc9391146104975780635ff329af146104b5578063613dab3e146104e557806367be4673146105155761025b565b806325d5971f146103cd57806327855b13146103e95780632a9aaa761461040757806336ead39f146104235780633ae732591461043f5761025b565b806317504b981161022457806317504b98146103175780631d002cc0146103335780631d32e9b3146103635780631faa11281461038157806320cb13ab1461039d5761025b565b806253b4b31461025f578063013eba921461027d5780630a274280146102ad5780630d67f59e146102c957806316934fc4146102e7575b5f80fd5b6102676107d4565b604051610274919061371e565b60405180910390f35b610297600480360381019061029291906137a2565b6107e6565b6040516102a491906137e5565b60405180910390f35b6102c760048036038101906102c2919061393a565b6107fb565b005b6102d1610b56565b6040516102de9190613a98565b60405180910390f35b61030160048036038101906102fc91906137a2565b610b7b565b60405161030e91906137e5565b60405180910390f35b610331600480360381019061032c9190613adb565b610b90565b005b61034d600480360381019061034891906137a2565b610cde565b60405161035a91906137e5565b60405180910390f35b61036b610cf3565b6040516103789190613b44565b60405180910390f35b61039b60048036038101906103969190613b87565b610d18565b005b6103b760048036038101906103b29190613bb2565b610ef2565b6040516103c491906137e5565b60405180910390f35b6103e760048036038101906103e29190613b87565b610f41565b005b6103f1611113565b6040516103fe91906137e5565b60405180910390f35b610421600480360381019061041c9190613adb565b611125565b005b61043d60048036038101906104389190613b87565b611272565b005b6104476114ee565b60405161045491906137e5565b60405180910390f35b61047760048036038101906104729190613b87565b6114f4565b005b61048161175a565b60405161048e91906137e5565b60405180910390f35b61049f611763565b6040516104ac91906137e5565b60405180910390f35b6104cf60048036038101906104ca91906137a2565b611769565b6040516104dc91906137e5565b60405180910390f35b6104ff60048036038101906104fa9190613bf0565b611945565b60405161050c919061371e565b60405180910390f35b61051d61197a565b60405161052a91906137e5565b60405180910390f35b61054d600480360381019061054891906137a2565b611980565b60405161055a919061371e565b60405180910390f35b61057d60048036038101906105789190613bb2565b611a4f565b005b61059960048036038101906105949190613b87565b611ba2565b005b6105a3611dcb565b6040516105b091906137e5565b60405180910390f35b6105c1611dd2565b6040516105ce9190613b44565b60405180910390f35b6105f160048036038101906105ec91906137a2565b611df7565b005b6105fb611fd9565b005b61061760048036038101906106129190613b87565b612093565b005b610633600480360381019061062e9190613c37565b612217565b005b61064f600480360381019061064a9190613c37565b6122f7565b005b61066b600480360381019061066691906137a2565b6123d7565b60405161067891906137e5565b60405180910390f35b6106896123ec565b60405161069691906137e5565b60405180910390f35b6106b960048036038101906106b49190613c37565b6123f5565b005b6106d560048036038101906106d09190613b87565b6124d5565b005b6106f160048036038101906106ec91906137a2565b6126b0565b6040516106fe91906137e5565b60405180910390f35b61070f6126f6565b005b610719612a54565b60405161072691906137e5565b60405180910390f35b610749600480360381019061074491906137a2565b612af3565b005b61076560048036038101906107609190613b87565b612cd4565b60405161077d9c9b9a99989796959493929190613d0b565b60405180910390f35b61078e61317f565b60405161079b9190613b44565b60405180910390f35b6107be60048036038101906107b99190613b87565b6131a5565b6040516107cb91906137e5565b60405180910390f35b60085f9054906101000a900460ff1681565b6003602052805f5260405f205f915090505481565b6108036131e6565b6402540be400600b5f9054906101000a900473ffffffffffffffffffffffffffffffffffffffff1673ffffffffffffffffffffffffffffffffffffffff166370a08231336040518263ffffffff1660e01b81526004016108639190613b44565b602060405180830381865afa15801561087e573d5f803e3d5ffd5b505050506040513d601f19601f820116820180604052508101906108a29190613e0f565b10156108e3576040517f08c379a00000000000000000000000000000000000000000000000000000000081526004016108da90613eaa565b60405180910390fd5b61093633306402540be400600b5f9054906101000a900473ffffffffffffffffffffffffffffffffffffffff1673ffffffffffffffffffffffffffffffffffffffff16613233909392919063ffffffff16565b60405180610180016040528086815260200185815260200184815260200160405180602001604052805f815250815260200160405180602001604052805f815250815260200160405180602001604052805f81525081526020018381526020018281526020013373ffffffffffffffffffffffffffffffffffffffff1681526020015f8152602001428152602001600181525060055f60065481526020019081526020015f205f820151815f0190816109ef91906140b9565b506020820151816001019081610a0591906140b9565b506040820151816002019081610a1b91906140b9565b506060820151816003019081610a3191906140b9565b506080820151816004019081610a4791906140b9565b5060a0820151816005019081610a5d91906140b9565b5060c0820151816006019081610a7391906140b9565b5060e0820151816007019081610a8991906140b9565b50610100820151816008015f6101000a81548173ffffffffffffffffffffffffffffffffffffffff021916908373ffffffffffffffffffffffffffffffffffffffff160217905550610120820151816009015561014082015181600a015561016082015181600b01559050507ff0d06e2e518a804c9a10fa68cab030edcf83b96217600c6415d780008923fef660065433604051610b28929190614188565b60405180910390a160065f815480929190610b42906141dc565b9190505550610b4f6132b5565b5050505050565b600b5f9054906101000a900473ffffffffffffffffffffffffffffffffffffffff1681565b6001602052805f5260405f205f915090505481565b600860019054906101000a900473ffffffffffffffffffffffffffffffffffffffff1673ffffffffffffffffffffffffffffffffffffffff163373ffffffffffffffffffffffffffffffffffffffff1614610c20576040517f08c379a0000000000000000000000000000000000000000000000000000000008152600401610c1790614293565b60405180910390fd5b6040518060400160405280601181526020017f6368616e67655365636f6e6441646d696e00000000000000000000000000000081525080519060200120828051906020012014610ca5576040517f08c379a0000000000000000000000000000000000000000000000000000000008152600401610c9c90614321565b60405180910390fd5b80600c83604051610cb69190614379565b90815260200160405180910390205f6101000a81548160ff0219169083151502179055505050565b6004602052805f5260405f205f915090505481565b60095f9054906101000a900473ffffffffffffffffffffffffffffffffffffffff1681565b600860019054906101000a900473ffffffffffffffffffffffffffffffffffffffff1673ffffffffffffffffffffffffffffffffffffffff163373ffffffffffffffffffffffffffffffffffffffff1614610da8576040517f08c379a0000000000000000000000000000000000000000000000000000000008152600401610d9f90614293565b60405180910390fd5b6040518060400160405280600d81526020017f72656a656374456c656d656e7400000000000000000000000000000000000000815250600c81604051610dee9190614379565b90815260200160405180910390205f9054906101000a900460ff16610e48576040517f08c379a0000000000000000000000000000000000000000000000000000000008152600401610e3f906143d9565b60405180910390fd5b5f60055f8481526020019081526020015f206009015414610e9e576040517f08c379a0000000000000000000000000000000000000000000000000000000008152600401610e9590614441565b60405180910390fd5b6005805f8481526020019081526020015f20600901819055507f7421121a093bc9eb406a03cd9273c7efbf9d3d438d9904850f9048abf95bb7f482604051610ee691906137e5565b60405180910390a15050565b5f808242610f00919061445f565b90505f610f0c826131a5565b90505f600c60648388610f1f9190614492565b610f299190614500565b610f339190614500565b905080935050505092915050565b610f496131e6565b620f4240811015610f8f576040517f08c379a0000000000000000000000000000000000000000000000000000000008152600401610f86906145a0565b60405180910390fd5b8060015f3373ffffffffffffffffffffffffffffffffffffffff1673ffffffffffffffffffffffffffffffffffffffff1681526020019081526020015f2054101561100f576040517f08c379a000000000000000000000000000000000000000000000000000000000815260040161100690614608565b60405180910390fd5b8060015f3373ffffffffffffffffffffffffffffffffffffffff1673ffffffffffffffffffffffffffffffffffffffff1681526020019081526020015f205f82825461105b919061445f565b925050819055508060075f828254611073919061445f565b925050819055504260035f3373ffffffffffffffffffffffffffffffffffffffff1673ffffffffffffffffffffffffffffffffffffffff1681526020019081526020015f20819055506111083382600b5f9054906101000a900473ffffffffffffffffffffffffffffffffffffffff1673ffffffffffffffffffffffffffffffffffffffff166132be9092919063ffffffff16565b6111106132b5565b50565b600c610e106111229190614500565b81565b60095f9054906101000a900473ffffffffffffffffffffffffffffffffffffffff1673ffffffffffffffffffffffffffffffffffffffff163373ffffffffffffffffffffffffffffffffffffffff16146111b4576040517f08c379a00000000000000000000000000000000000000000000000000000000081526004016111ab90614696565b60405180910390fd5b6040518060400160405280601181526020017f6368616e67655365636f6e6441646d696e00000000000000000000000000000081525080519060200120828051906020012003611239576040517f08c379a000000000000000000000000000000000000000000000000000000000815260040161123090614724565b60405180910390fd5b80600c8360405161124a9190614379565b90815260200160405180910390205f6101000a81548160ff0219169083151502179055505050565b600860019054906101000a900473ffffffffffffffffffffffffffffffffffffffff1673ffffffffffffffffffffffffffffffffffffffff163373ffffffffffffffffffffffffffffffffffffffff1614611302576040517f08c379a00000000000000000000000000000000000000000000000000000000081526004016112f990614293565b60405180910390fd5b6040518060400160405280600c81526020017f7265667573655570646174650000000000000000000000000000000000000000815250600c816040516113489190614379565b90815260200160405180910390205f9054906101000a900460ff166113a2576040517f08c379a0000000000000000000000000000000000000000000000000000000008152600401611399906143d9565b60405180910390fd5b600460055f8481526020019081526020015f2060090154036113f9576040517f08c379a00000000000000000000000000000000000000000000000000000000081526004016113f0906147b2565b60405180910390fd5b600160055f8481526020019081526020015f20600901540361144a5760405180602001604052805f81525060055f8481526020019081526020015f20600301908161144491906140b9565b506114ea565b600260055f8481526020019081526020015f20600901540361149b5760405180602001604052805f81525060055f8481526020019081526020015f20600401908161149591906140b9565b506114e9565b600360055f8481526020019081526020015f2060090154036114e85760405180602001604052805f81525060055f8481526020019081526020015f2060050190816114e691906140b9565b505b5b5b5050565b60075481565b600860019054906101000a900473ffffffffffffffffffffffffffffffffffffffff1673ffffffffffffffffffffffffffffffffffffffff163373ffffffffffffffffffffffffffffffffffffffff1614611584576040517f08c379a000000000000000000000000000000000000000000000000000000000815260040161157b90614293565b60405180910390fd5b6040518060400160405280600d81526020017f636f6e6669726d55706461746500000000000000000000000000000000000000815250600c816040516115ca9190614379565b90815260200160405180910390205f9054906101000a900460ff16611624576040517f08c379a000000000000000000000000000000000000000000000000000000000815260040161161b906143d9565b60405180910390fd5b600460055f8481526020019081526020015f20600901540361167b576040517f08c379a0000000000000000000000000000000000000000000000000000000008152600401611672906147b2565b60405180910390fd5b600160055f8481526020019081526020015f2060090154036116b657600260055f8481526020019081526020015f206009018190555061172a565b600260055f8481526020019081526020015f2060090154036116f157600360055f8481526020019081526020015f2060090181905550611729565b600360055f8481526020019081526020015f20600901540361172857600460055f8481526020019081526020015f20600901819055505b5b5b6103e860055f8481526020019081526020015f20600b015f82825461174f91906147d0565b925050819055505050565b5f600754905090565b610e1081565b5f8060015f8473ffffffffffffffffffffffffffffffffffffffff1673ffffffffffffffffffffffffffffffffffffffff1681526020019081526020015f2054036117b6575f9050611940565b5f60035f8473ffffffffffffffffffffffffffffffffffffffff1673ffffffffffffffffffffffffffffffffffffffff1681526020019081526020015f205442611800919061445f565b9050600c610e106118119190614500565b811015611821575f915050611940565b5f80600c610e106118329190614500565b8361183d9190614500565b90505f5b8181101561191b575f600c610e106118599190614500565b826118649190614492565b60035f8973ffffffffffffffffffffffffffffffffffffffff1673ffffffffffffffffffffffffffffffffffffffff1681526020019081526020015f20546118ac91906147d0565b90505f6118f660015f8a73ffffffffffffffffffffffffffffffffffffffff1673ffffffffffffffffffffffffffffffffffffffff1681526020019081526020015f205483610ef2565b9050808561190491906147d0565b945050508080611913906141dc565b915050611841565b505f6064603c8461192c9190614492565b6119369190614500565b9050809450505050505b919050565b600c818051602081018201805184825260208301602085012081835280955050505050505f915054906101000a900460ff1681565b60065481565b5f805f90505b600654811015611a45578273ffffffffffffffffffffffffffffffffffffffff1660055f8381526020019081526020015f206008015f9054906101000a900473ffffffffffffffffffffffffffffffffffffffff1673ffffffffffffffffffffffffffffffffffffffff16148015611a2357505f6005811115611a0c57611a0b614803565b5b60055f8381526020019081526020015f2060090154145b15611a32576001915050611a4a565b8080611a3d906141dc565b915050611986565b505f90505b919050565b611a576131e6565b5f8111611a99576040517f08c379a0000000000000000000000000000000000000000000000000000000008152600401611a909061487a565b60405180910390fd5b8060025f3373ffffffffffffffffffffffffffffffffffffffff1673ffffffffffffffffffffffffffffffffffffffff1681526020019081526020015f20541015611b19576040517f08c379a0000000000000000000000000000000000000000000000000000000008152600401611b10906148e2565b60405180910390fd5b8060025f3373ffffffffffffffffffffffffffffffffffffffff1673ffffffffffffffffffffffffffffffffffffffff1681526020019081526020015f205f828254611b65919061445f565b925050819055508060055f8481526020019081526020015f20600b015f828254611b8f91906147d0565b92505081905550611b9e6132b5565b5050565b611baa6131e6565b60085f9054906101000a900460ff16611bf8576040517f08c379a0000000000000000000000000000000000000000000000000000000008152600401611bef9061494a565b60405180910390fd5b620f4240811015611c3e576040517f08c379a0000000000000000000000000000000000000000000000000000000008152600401611c35906149b2565b60405180910390fd5b611c8c333083600b5f9054906101000a900473ffffffffffffffffffffffffffffffffffffffff1673ffffffffffffffffffffffffffffffffffffffff16613233909392919063ffffffff16565b8060015f3373ffffffffffffffffffffffffffffffffffffffff1673ffffffffffffffffffffffffffffffffffffffff1681526020019081526020015f205f828254611cd891906147d0565b925050819055508060075f828254611cf091906147d0565b925050819055505f60035f3373ffffffffffffffffffffffffffffffffffffffff1673ffffffffffffffffffffffffffffffffffffffff1681526020019081526020015f205403611d7e574260045f3373ffffffffffffffffffffffffffffffffffffffff1673ffffffffffffffffffffffffffffffffffffffff1681526020019081526020015f20819055505b4260035f3373ffffffffffffffffffffffffffffffffffffffff1673ffffffffffffffffffffffffffffffffffffffff1681526020019081526020015f2081905550611dc86132b5565b50565b620f424081565b600a5f9054906101000a900473ffffffffffffffffffffffffffffffffffffffff1681565b600a5f9054906101000a900473ffffffffffffffffffffffffffffffffffffffff1673ffffffffffffffffffffffffffffffffffffffff163373ffffffffffffffffffffffffffffffffffffffff1614611e86576040517f08c379a0000000000000000000000000000000000000000000000000000000008152600401611e7d90614a40565b60405180910390fd5b6040518060400160405280600b81526020017f6368616e676541646d696e000000000000000000000000000000000000000000815250600c81604051611ecc9190614379565b90815260200160405180910390205f9054906101000a900460ff16611f26576040517f08c379a0000000000000000000000000000000000000000000000000000000008152600401611f1d906143d9565b60405180910390fd5b5f73ffffffffffffffffffffffffffffffffffffffff168273ffffffffffffffffffffffffffffffffffffffff1603611f94576040517f08c379a0000000000000000000000000000000000000000000000000000000008152600401611f8b90614aa8565b60405180910390fd5b81600860016101000a81548173ffffffffffffffffffffffffffffffffffffffff021916908373ffffffffffffffffffffffffffffffffffffffff1602179055505050565b600860019054906101000a900473ffffffffffffffffffffffffffffffffffffffff1673ffffffffffffffffffffffffffffffffffffffff163373ffffffffffffffffffffffffffffffffffffffff1614612069576040517f08c379a000000000000000000000000000000000000000000000000000000000815260040161206090614293565b60405180910390fd5b60085f9054906101000a900460ff161560085f6101000a81548160ff021916908315150217905550565b600860019054906101000a900473ffffffffffffffffffffffffffffffffffffffff1673ffffffffffffffffffffffffffffffffffffffff163373ffffffffffffffffffffffffffffffffffffffff1614612123576040517f08c379a000000000000000000000000000000000000000000000000000000000815260040161211a90614293565b60405180910390fd5b6040518060400160405280600d81526020017f72656d6f7665456c656d656e7400000000000000000000000000000000000000815250600c816040516121699190614379565b90815260200160405180910390205f9054906101000a900460ff166121c3576040517f08c379a00000000000000000000000000000000000000000000000000000000081526004016121ba906143d9565b60405180910390fd5b6005805f8481526020019081526020015f20600901819055507fcec9cdff740b6d842df3489c0dcafe7e1592acfcdae1e8e5daed0378935144aa8260405161220b91906137e5565b60405180910390a15050565b3373ffffffffffffffffffffffffffffffffffffffff1660055f8481526020019081526020015f206008015f9054906101000a900473ffffffffffffffffffffffffffffffffffffffff1673ffffffffffffffffffffffffffffffffffffffff16146122b8576040517f08c379a00000000000000000000000000000000000000000000000000000000081526004016122af90614b10565b60405180910390fd5b8060055f8481526020019081526020015f2060040190816122d991906140b9565b504260055f8481526020019081526020015f20600a01819055505050565b3373ffffffffffffffffffffffffffffffffffffffff1660055f8481526020019081526020015f206008015f9054906101000a900473ffffffffffffffffffffffffffffffffffffffff1673ffffffffffffffffffffffffffffffffffffffff1614612398576040517f08c379a000000000000000000000000000000000000000000000000000000000815260040161238f90614b10565b60405180910390fd5b8060055f8481526020019081526020015f2060030190816123b991906140b9565b504260055f8481526020019081526020015f20600a01819055505050565b6002602052805f5260405f205f915090505481565b6402540be40081565b3373ffffffffffffffffffffffffffffffffffffffff1660055f8481526020019081526020015f206008015f9054906101000a900473ffffffffffffffffffffffffffffffffffffffff1673ffffffffffffffffffffffffffffffffffffffff1614612496576040517f08c379a000000000000000000000000000000000000000000000000000000000815260040161248d90614b10565b60405180910390fd5b8060055f8481526020019081526020015f2060050190816124b791906140b9565b504260055f8481526020019081526020015f20600a01819055505050565b600860019054906101000a900473ffffffffffffffffffffffffffffffffffffffff1673ffffffffffffffffffffffffffffffffffffffff163373ffffffffffffffffffffffffffffffffffffffff1614612565576040517f08c379a000000000000000000000000000000000000000000000000000000000815260040161255c90614293565b60405180910390fd5b6040518060400160405280600e81526020017f617070726f7665456c656d656e74000000000000000000000000000000000000815250600c816040516125ab9190614379565b90815260200160405180910390205f9054906101000a900460ff16612605576040517f08c379a00000000000000000000000000000000000000000000000000000000081526004016125fc906143d9565b60405180910390fd5b5f60055f8481526020019081526020015f20600901541461265b576040517f08c379a000000000000000000000000000000000000000000000000000000000815260040161265290614441565b60405180910390fd5b600160055f8481526020019081526020015f20600901819055507f95fccd35767acd458fa3ab76976172cdefe7357a3cf51bc50b93c41c53984c1d826040516126a491906137e5565b60405180910390a15050565b5f60035f8373ffffffffffffffffffffffffffffffffffffffff1673ffffffffffffffffffffffffffffffffffffffff1681526020019081526020015f20549050919050565b6126fe6131e6565b5f60015f3373ffffffffffffffffffffffffffffffffffffffff1673ffffffffffffffffffffffffffffffffffffffff1681526020019081526020015f20541161277d576040517f08c379a000000000000000000000000000000000000000000000000000000000815260040161277490614b78565b60405180910390fd5b5f60035f3373ffffffffffffffffffffffffffffffffffffffff1673ffffffffffffffffffffffffffffffffffffffff1681526020019081526020015f2054426127c7919061445f565b9050600c610e106127d89190614500565b81101561281a576040517f08c379a000000000000000000000000000000000000000000000000000000000815260040161281190614be0565b60405180910390fd5b5f80600c610e1061282b9190614500565b836128369190614500565b90505f5b81811015612914575f600c610e106128529190614500565b8261285d9190614492565b60035f3373ffffffffffffffffffffffffffffffffffffffff1673ffffffffffffffffffffffffffffffffffffffff1681526020019081526020015f20546128a591906147d0565b90505f6128ef60015f3373ffffffffffffffffffffffffffffffffffffffff1673ffffffffffffffffffffffffffffffffffffffff1681526020019081526020015f205483610ef2565b905080856128fd91906147d0565b94505050808061290c906141dc565b91505061283a565b505f6064603c846129259190614492565b61292f9190614500565b90505f60646028856129419190614492565b61294b9190614500565b9050629896808261295c9190614500565b60025f3373ffffffffffffffffffffffffffffffffffffffff1673ffffffffffffffffffffffffffffffffffffffff1681526020019081526020015f205f8282546129a791906147d0565b925050819055504260035f3373ffffffffffffffffffffffffffffffffffffffff1673ffffffffffffffffffffffffffffffffffffffff1681526020019081526020015f2081905550612a3c3383600b5f9054906101000a900473ffffffffffffffffffffffffffffffffffffffff1673ffffffffffffffffffffffffffffffffffffffff166132be9092919063ffffffff16565b612a458161333d565b5050505050612a526132b5565b565b5f600b5f9054906101000a900473ffffffffffffffffffffffffffffffffffffffff1673ffffffffffffffffffffffffffffffffffffffff166370a08231306040518263ffffffff1660e01b8152600401612aaf9190613b44565b602060405180830381865afa158015612aca573d5f803e3d5ffd5b505050506040513d601f19601f82011682018060405250810190612aee9190613e0f565b905090565b600a5f9054906101000a900473ffffffffffffffffffffffffffffffffffffffff1673ffffffffffffffffffffffffffffffffffffffff163373ffffffffffffffffffffffffffffffffffffffff1614612b82576040517f08c379a0000000000000000000000000000000000000000000000000000000008152600401612b7990614a40565b60405180910390fd5b6040518060400160405280601181526020017f6368616e67655365636f6e6441646d696e000000000000000000000000000000815250600c81604051612bc89190614379565b90815260200160405180910390205f9054906101000a900460ff16612c22576040517f08c379a0000000000000000000000000000000000000000000000000000000008152600401612c19906143d9565b60405180910390fd5b5f73ffffffffffffffffffffffffffffffffffffffff168273ffffffffffffffffffffffffffffffffffffffff1603612c90576040517f08c379a0000000000000000000000000000000000000000000000000000000008152600401612c8790614c6e565b60405180910390fd5b8160095f6101000a81548173ffffffffffffffffffffffffffffffffffffffff021916908373ffffffffffffffffffffffffffffffffffffffff1602179055505050565b6005602052805f5260405f205f91509050805f018054612cf390613ef5565b80601f0160208091040260200160405190810160405280929190818152602001828054612d1f90613ef5565b8015612d6a5780601f10612d4157610100808354040283529160200191612d6a565b820191905f5260205f20905b815481529060010190602001808311612d4d57829003601f168201915b505050505090806001018054612d7f90613ef5565b80601f0160208091040260200160405190810160405280929190818152602001828054612dab90613ef5565b8015612df65780601f10612dcd57610100808354040283529160200191612df6565b820191905f5260205f20905b815481529060010190602001808311612dd957829003601f168201915b505050505090806002018054612e0b90613ef5565b80601f0160208091040260200160405190810160405280929190818152602001828054612e3790613ef5565b8015612e825780601f10612e5957610100808354040283529160200191612e82565b820191905f5260205f20905b815481529060010190602001808311612e6557829003601f168201915b505050505090806003018054612e9790613ef5565b80601f0160208091040260200160405190810160405280929190818152602001828054612ec390613ef5565b8015612f0e5780601f10612ee557610100808354040283529160200191612f0e565b820191905f5260205f20905b815481529060010190602001808311612ef157829003601f168201915b505050505090806004018054612f2390613ef5565b80601f0160208091040260200160405190810160405280929190818152602001828054612f4f90613ef5565b8015612f9a5780601f10612f7157610100808354040283529160200191612f9a565b820191905f5260205f20905b815481529060010190602001808311612f7d57829003601f168201915b505050505090806005018054612faf90613ef5565b80601f0160208091040260200160405190810160405280929190818152602001828054612fdb90613ef5565b80156130265780601f10612ffd57610100808354040283529160200191613026565b820191905f5260205f20905b81548152906001019060200180831161300957829003601f168201915b50505050509080600601805461303b90613ef5565b80601f016020809104026020016040519081016040528092919081815260200182805461306790613ef5565b80156130b25780601f10613089576101008083540402835291602001916130b2565b820191905f5260205f20905b81548152906001019060200180831161309557829003601f168201915b5050505050908060070180546130c790613ef5565b80601f01602080910402602001604051908101604052809291908181526020018280546130f390613ef5565b801561313e5780601f106131155761010080835404028352916020019161313e565b820191905f5260205f20905b81548152906001019060200180831161312157829003601f168201915b505050505090806008015f9054906101000a900473ffffffffffffffffffffffffffffffffffffffff169080600901549080600a01549080600b015490508c565b600860019054906101000a900473ffffffffffffffffffffffffffffffffffffffff1681565b5f80610e10836131b59190614500565b9050600381106131c95760039150506131e1565b600281036131db5760029150506131e1565b60019150505b919050565b60025f540361322a576040517f08c379a000000000000000000000000000000000000000000000000000000000815260040161322190614cd6565b60405180910390fd5b60025f81905550565b6132af848573ffffffffffffffffffffffffffffffffffffffff166323b872dd86868660405160240161326893929190614cf4565b604051602081830303815290604052915060e01b6020820180517bffffffffffffffffffffffffffffffffffffffffffffffffffffffff8381831617835250505050613444565b50505050565b60015f81905550565b613338838473ffffffffffffffffffffffffffffffffffffffff1663a9059cbb85856040516024016132f1929190614d29565b604051602081830303815290604052915060e01b6020820180517bffffffffffffffffffffffffffffffffffffffffffffffffffffffff8381831617835250505050613444565b505050565b5f6133466134d9565b90505f81036133555750613441565b5f5b60065481101561343e575f60055f8381526020019081526020015f20905060058081111561338857613387614803565b5b81600901541461342a575f838583600b01546133a49190614492565b6133ae9190614500565b90505f81111561342857613427826008015f9054906101000a900473ffffffffffffffffffffffffffffffffffffffff1682600b5f9054906101000a900473ffffffffffffffffffffffffffffffffffffffff1673ffffffffffffffffffffffffffffffffffffffff166132be9092919063ffffffff16565b5b505b508080613436906141dc565b915050613357565b50505b50565b5f61346e828473ffffffffffffffffffffffffffffffffffffffff1661355590919063ffffffff16565b90505f8151141580156134925750808060200190518101906134909190614d64565b155b156134d457826040517f5274afe70000000000000000000000000000000000000000000000000000000081526004016134cb9190613b44565b60405180910390fd5b505050565b5f805f90505f5b60065481101561354d576005808111156134fd576134fc614803565b5b60055f8381526020019081526020015f20600901541461353a5760055f8281526020019081526020015f20600b01548261353791906147d0565b91505b8080613545906141dc565b9150506134e0565b508091505090565b606061356283835f61356a565b905092915050565b6060814710156135b157306040517fcd7860590000000000000000000000000000000000000000000000000000000081526004016135a89190613b44565b60405180910390fd5b5f808573ffffffffffffffffffffffffffffffffffffffff1684866040516135d99190614dd3565b5f6040518083038185875af1925050503d805f8114613613576040519150601f19603f3d011682016040523d82523d5f602084013e613618565b606091505b5091509150613628868383613633565b925050509392505050565b60608261364857613643826136c0565b6136b8565b5f825114801561366e57505f8473ffffffffffffffffffffffffffffffffffffffff163b145b156136b057836040517f9996b3150000000000000000000000000000000000000000000000000000000081526004016136a79190613b44565b60405180910390fd5b8190506136b9565b5b9392505050565b5f815111156136d25780518082602001fd5b6040517f1425ea4200000000000000000000000000000000000000000000000000000000815260040160405180910390fd5b5f8115159050919050565b61371881613704565b82525050565b5f6020820190506137315f83018461370f565b92915050565b5f604051905090565b5f80fd5b5f80fd5b5f73ffffffffffffffffffffffffffffffffffffffff82169050919050565b5f61377182613748565b9050919050565b61378181613767565b811461378b575f80fd5b50565b5f8135905061379c81613778565b92915050565b5f602082840312156137b7576137b6613740565b5b5f6137c48482850161378e565b91505092915050565b5f819050919050565b6137df816137cd565b82525050565b5f6020820190506137f85f8301846137d6565b92915050565b5f80fd5b5f80fd5b5f601f19601f8301169050919050565b7f4e487b71000000000000000000000000000000000000000000000000000000005f52604160045260245ffd5b61384c82613806565b810181811067ffffffffffffffff8211171561386b5761386a613816565b5b80604052505050565b5f61387d613737565b90506138898282613843565b919050565b5f67ffffffffffffffff8211156138a8576138a7613816565b5b6138b182613806565b9050602081019050919050565b828183375f83830152505050565b5f6138de6138d98461388e565b613874565b9050828152602081018484840111156138fa576138f9613802565b5b6139058482856138be565b509392505050565b5f82601f830112613921576139206137fe565b5b81356139318482602086016138cc565b91505092915050565b5f805f805f60a0868803121561395357613952613740565b5b5f86013567ffffffffffffffff8111156139705761396f613744565b5b61397c8882890161390d565b955050602086013567ffffffffffffffff81111561399d5761399c613744565b5b6139a98882890161390d565b945050604086013567ffffffffffffffff8111156139ca576139c9613744565b5b6139d68882890161390d565b935050606086013567ffffffffffffffff8111156139f7576139f6613744565b5b613a038882890161390d565b925050608086013567ffffffffffffffff811115613a2457613a23613744565b5b613a308882890161390d565b9150509295509295909350565b5f819050919050565b5f613a60613a5b613a5684613748565b613a3d565b613748565b9050919050565b5f613a7182613a46565b9050919050565b5f613a8282613a67565b9050919050565b613a9281613a78565b82525050565b5f602082019050613aab5f830184613a89565b92915050565b613aba81613704565b8114613ac4575f80fd5b50565b5f81359050613ad581613ab1565b92915050565b5f8060408385031215613af157613af0613740565b5b5f83013567ffffffffffffffff811115613b0e57613b0d613744565b5b613b1a8582860161390d565b9250506020613b2b85828601613ac7565b9150509250929050565b613b3e81613767565b82525050565b5f602082019050613b575f830184613b35565b92915050565b613b66816137cd565b8114613b70575f80fd5b50565b5f81359050613b8181613b5d565b92915050565b5f60208284031215613b9c57613b9b613740565b5b5f613ba984828501613b73565b91505092915050565b5f8060408385031215613bc857613bc7613740565b5b5f613bd585828601613b73565b9250506020613be685828601613b73565b9150509250929050565b5f60208284031215613c0557613c04613740565b5b5f82013567ffffffffffffffff811115613c2257613c21613744565b5b613c2e8482850161390d565b91505092915050565b5f8060408385031215613c4d57613c4c613740565b5b5f613c5a85828601613b73565b925050602083013567ffffffffffffffff811115613c7b57613c7a613744565b5b613c878582860161390d565b9150509250929050565b5f81519050919050565b5f82825260208201905092915050565b5f5b83811015613cc8578082015181840152602081019050613cad565b5f8484015250505050565b5f613cdd82613c91565b613ce78185613c9b565b9350613cf7818560208601613cab565b613d0081613806565b840191505092915050565b5f610180820190508181035f830152613d24818f613cd3565b90508181036020830152613d38818e613cd3565b90508181036040830152613d4c818d613cd3565b90508181036060830152613d60818c613cd3565b90508181036080830152613d74818b613cd3565b905081810360a0830152613d88818a613cd3565b905081810360c0830152613d9c8189613cd3565b905081810360e0830152613db08188613cd3565b9050613dc0610100830187613b35565b613dce6101208301866137d6565b613ddc6101408301856137d6565b613dea6101608301846137d6565b9d9c50505050505050505050505050565b5f81519050613e0981613b5d565b92915050565b5f60208284031215613e2457613e23613740565b5b5f613e3184828501613dfb565b91505092915050565b7f496e73756666696369656e7420746f6b656e7320746f2063726561746520656c5f8201527f656d656e74000000000000000000000000000000000000000000000000000000602082015250565b5f613e94602583613c9b565b9150613e9f82613e3a565b604082019050919050565b5f6020820190508181035f830152613ec181613e88565b9050919050565b7f4e487b71000000000000000000000000000000000000000000000000000000005f52602260045260245ffd5b5f6002820490506001821680613f0c57607f821691505b602082108103613f1f57613f1e613ec8565b5b50919050565b5f819050815f5260205f209050919050565b5f6020601f8301049050919050565b5f82821b905092915050565b5f60088302613f817fffffffffffffffffffffffffffffffffffffffffffffffffffffffffffffffff82613f46565b613f8b8683613f46565b95508019841693508086168417925050509392505050565b5f613fbd613fb8613fb3846137cd565b613a3d565b6137cd565b9050919050565b5f819050919050565b613fd683613fa3565b613fea613fe282613fc4565b848454613f52565b825550505050565b5f90565b613ffe613ff2565b614009818484613fcd565b505050565b5b8181101561402c576140215f82613ff6565b60018101905061400f565b5050565b601f8211156140715761404281613f25565b61404b84613f37565b8101602085101561405a578190505b61406e61406685613f37565b83018261400e565b50505b505050565b5f82821c905092915050565b5f6140915f1984600802614076565b1980831691505092915050565b5f6140a98383614082565b9150826002028217905092915050565b6140c282613c91565b67ffffffffffffffff8111156140db576140da613816565b5b6140e58254613ef5565b6140f0828285614030565b5f60209050601f831160018114614121575f841561410f578287015190505b614119858261409e565b865550614180565b601f19841661412f86613f25565b5f5b8281101561415657848901518255600182019150602085019450602081019050614131565b86831015614173578489015161416f601f891682614082565b8355505b6001600288020188555050505b505050505050565b5f60408201905061419b5f8301856137d6565b6141a86020830184613b35565b9392505050565b7f4e487b71000000000000000000000000000000000000000000000000000000005f52601160045260245ffd5b5f6141e6826137cd565b91507fffffffffffffffffffffffffffffffffffffffffffffffffffffffffffffffff8203614218576142176141af565b5b600182019050919050565b7f4f6e6c792061646d696e2063616e20706572666f726d207468697320616374695f8201527f6f6e000000000000000000000000000000000000000000000000000000000000602082015250565b5f61427d602283613c9b565b915061428882614223565b604082019050919050565b5f6020820190508181035f8301526142aa81614271565b9050919050565b7f41646d696e2063616e206f6e6c7920746f67676c65206368616e67655365636f5f8201527f6e6441646d696e00000000000000000000000000000000000000000000000000602082015250565b5f61430b602783613c9b565b9150614316826142b1565b604082019050919050565b5f6020820190508181035f830152614338816142ff565b9050919050565b5f81905092915050565b5f61435382613c91565b61435d818561433f565b935061436d818560208601613cab565b80840191505092915050565b5f6143848284614349565b915081905092915050565b7f46756e6374696f6e2069732064697361626c65640000000000000000000000005f82015250565b5f6143c3601483613c9b565b91506143ce8261438f565b602082019050919050565b5f6020820190508181035f8301526143f0816143b7565b9050919050565b7f456c656d656e74206973206e6f742070656e64696e6720617070726f76616c005f82015250565b5f61442b601f83613c9b565b9150614436826143f7565b602082019050919050565b5f6020820190508181035f8301526144588161441f565b9050919050565b5f614469826137cd565b9150614474836137cd565b925082820390508181111561448c5761448b6141af565b5b92915050565b5f61449c826137cd565b91506144a7836137cd565b92508282026144b5816137cd565b915082820484148315176144cc576144cb6141af565b5b5092915050565b7f4e487b71000000000000000000000000000000000000000000000000000000005f52601260045260245ffd5b5f61450a826137cd565b9150614515836137cd565b925082614525576145246144d3565b5b828204905092915050565b7f4d696e696d756d20756e7374616b6520616d6f756e74206973203120746f6b655f8201527f6e00000000000000000000000000000000000000000000000000000000000000602082015250565b5f61458a602183613c9b565b915061459582614530565b604082019050919050565b5f6020820190508181035f8301526145b78161457e565b9050919050565b7f496e73756666696369656e74207374616b656420616d6f756e740000000000005f82015250565b5f6145f2601a83613c9b565b91506145fd826145be565b602082019050919050565b5f6020820190508181035f83015261461f816145e6565b9050919050565b7f4f6e6c79207365636f6e642061646d696e2063616e20706572666f726d2074685f8201527f697320616374696f6e0000000000000000000000000000000000000000000000602082015250565b5f614680602983613c9b565b915061468b82614626565b604082019050919050565b5f6020820190508181035f8301526146ad81614674565b9050919050565b7f5365636f6e642061646d696e2063616e6e6f7420746f67676c65206368616e675f8201527f655365636f6e6441646d696e0000000000000000000000000000000000000000602082015250565b5f61470e602c83613c9b565b9150614719826146b4565b604082019050919050565b5f6020820190508181035f83015261473b81614702565b9050919050565b7f456c656d656e7420697320616c726561647920696e20746865205072657374695f8201527f6765207068617365000000000000000000000000000000000000000000000000602082015250565b5f61479c602883613c9b565b91506147a782614742565b604082019050919050565b5f6020820190508181035f8301526147c981614790565b9050919050565b5f6147da826137cd565b91506147e5836137cd565b92508282019050808211156147fd576147fc6141af565b5b92915050565b7f4e487b71000000000000000000000000000000000000000000000000000000005f52602160045260245ffd5b7f416d6f756e74206d7573742062652067726561746572207468616e207a65726f5f82015250565b5f614864602083613c9b565b915061486f82614830565b602082019050919050565b5f6020820190508181035f83015261489181614858565b9050919050565b7f496e73756666696369656e7420766f74696e6720706f776572000000000000005f82015250565b5f6148cc601983613c9b565b91506148d782614898565b602082019050919050565b5f6020820190508181035f8301526148f9816148c0565b9050919050565b7f5374616b696e672069732064697361626c6564000000000000000000000000005f82015250565b5f614934601383613c9b565b915061493f82614900565b602082019050919050565b5f6020820190508181035f83015261496181614928565b9050919050565b7f4d696e696d756d207374616b6520616d6f756e74206973203120746f6b656e005f82015250565b5f61499c601f83613c9b565b91506149a782614968565b602082019050919050565b5f6020820190508181035f8301526149c981614990565b9050919050565b7f4f6e6c792074686972642061646d696e2063616e20706572666f726d207468695f8201527f7320616374696f6e000000000000000000000000000000000000000000000000602082015250565b5f614a2a602883613c9b565b9150614a35826149d0565b604082019050919050565b5f6020820190508181035f830152614a5781614a1e565b9050919050565b7f4e65772061646d696e20616464726573732063616e6e6f74206265207a65726f5f82015250565b5f614a92602083613c9b565b9150614a9d82614a5e565b602082019050919050565b5f6020820190508181035f830152614abf81614a86565b9050919050565b7f4f6e6c792063726561746f722063616e207570646174650000000000000000005f82015250565b5f614afa601783613c9b565b9150614b0582614ac6565b602082019050919050565b5f6020820190508181035f830152614b2781614aee565b9050919050565b7f4e6f207374616b656420616d6f756e74000000000000000000000000000000005f82015250565b5f614b62601083613c9b565b9150614b6d82614b2e565b602082019050919050565b5f6020820190508181035f830152614b8f81614b56565b9050919050565b7f43616e6e6f7420636c61696d206265666f72652061206d6f6e746800000000005f82015250565b5f614bca601b83613c9b565b9150614bd582614b96565b602082019050919050565b5f6020820190508181035f830152614bf781614bbe565b9050919050565b7f4e6577207365636f6e642061646d696e20616464726573732063616e6e6f74205f8201527f6265207a65726f00000000000000000000000000000000000000000000000000602082015250565b5f614c58602783613c9b565b9150614c6382614bfe565b604082019050919050565b5f6020820190508181035f830152614c8581614c4c565b9050919050565b7f5265656e7472616e637947756172643a207265656e7472616e742063616c6c005f82015250565b5f614cc0601f83613c9b565b9150614ccb82614c8c565b602082019050919050565b5f6020820190508181035f830152614ced81614cb4565b9050919050565b5f606082019050614d075f830186613b35565b614d146020830185613b35565b614d2160408301846137d6565b949350505050565b5f604082019050614d3c5f830185613b35565b614d4960208301846137d6565b9392505050565b5f81519050614d5e81613ab1565b92915050565b5f60208284031215614d7957614d78613740565b5b5f614d8684828501614d50565b91505092915050565b5f81519050919050565b5f81905092915050565b5f614dad82614d8f565b614db78185614d99565b9350614dc7818560208601613cab565b80840191505092915050565b5f614dde8284614da3565b91508190509291505056fea2646970667358221220dea57677e8c9d05da8e97c0b2f04c5c4943a733bea24741bc9ba989f4e28121764736f6c63430008140033",
			"opcodes": "PUSH1 0x80 PUSH1 0x40 MSTORE CALLVALUE DUP1 ISZERO PUSH3 0x10 JUMPI PUSH0 DUP1 REVERT JUMPDEST POP PUSH1 0x40 MLOAD PUSH3 0x5485 CODESIZE SUB DUP1 PUSH3 0x5485 DUP4 CODECOPY DUP2 DUP2 ADD PUSH1 0x40 MSTORE DUP2 ADD SWAP1 PUSH3 0x36 SWAP2 SWAP1 PUSH3 0x339 JUMP JUMPDEST PUSH1 0x1 PUSH0 DUP2 SWAP1 SSTORE POP CALLER PUSH1 0x8 PUSH1 0x1 PUSH2 0x100 EXP DUP2 SLOAD DUP2 PUSH20 0xFFFFFFFFFFFFFFFFFFFFFFFFFFFFFFFFFFFFFFFF MUL NOT AND SWAP1 DUP4 PUSH20 0xFFFFFFFFFFFFFFFFFFFFFFFFFFFFFFFFFFFFFFFF AND MUL OR SWAP1 SSTORE POP DUP3 PUSH1 0xB PUSH0 PUSH2 0x100 EXP DUP2 SLOAD DUP2 PUSH20 0xFFFFFFFFFFFFFFFFFFFFFFFFFFFFFFFFFFFFFFFF MUL NOT AND SWAP1 DUP4 PUSH20 0xFFFFFFFFFFFFFFFFFFFFFFFFFFFFFFFFFFFFFFFF AND MUL OR SWAP1 SSTORE POP DUP2 PUSH1 0x9 PUSH0 PUSH2 0x100 EXP DUP2 SLOAD DUP2 PUSH20 0xFFFFFFFFFFFFFFFFFFFFFFFFFFFFFFFFFFFFFFFF MUL NOT AND SWAP1 DUP4 PUSH20 0xFFFFFFFFFFFFFFFFFFFFFFFFFFFFFFFFFFFFFFFF AND MUL OR SWAP1 SSTORE POP DUP1 PUSH1 0xA PUSH0 PUSH2 0x100 EXP DUP2 SLOAD DUP2 PUSH20 0xFFFFFFFFFFFFFFFFFFFFFFFFFFFFFFFFFFFFFFFF MUL NOT AND SWAP1 DUP4 PUSH20 0xFFFFFFFFFFFFFFFFFFFFFFFFFFFFFFFFFFFFFFFF AND MUL OR SWAP1 SSTORE POP PUSH0 PUSH1 0xC PUSH1 0x40 MLOAD PUSH3 0x14F SWAP1 PUSH3 0x3EA JUMP JUMPDEST SWAP1 DUP2 MSTORE PUSH1 0x20 ADD PUSH1 0x40 MLOAD DUP1 SWAP2 SUB SWAP1 KECCAK256 PUSH0 PUSH2 0x100 EXP DUP2 SLOAD DUP2 PUSH1 0xFF MUL NOT AND SWAP1 DUP4 ISZERO ISZERO MUL OR SWAP1 SSTORE POP PUSH0 PUSH1 0xC PUSH1 0x40 MLOAD PUSH3 0x184 SWAP1 PUSH3 0x44E JUMP JUMPDEST SWAP1 DUP2 MSTORE PUSH1 0x20 ADD PUSH1 0x40 MLOAD DUP1 SWAP2 SUB SWAP1 KECCAK256 PUSH0 PUSH2 0x100 EXP DUP2 SLOAD DUP2 PUSH1 0xFF MUL NOT AND SWAP1 DUP4 ISZERO ISZERO MUL OR SWAP1 SSTORE POP PUSH0 PUSH1 0xC PUSH1 0x40 MLOAD PUSH3 0x1B9 SWAP1 PUSH3 0x4B2 JUMP JUMPDEST SWAP1 DUP2 MSTORE PUSH1 0x20 ADD PUSH1 0x40 MLOAD DUP1 SWAP2 SUB SWAP1 KECCAK256 PUSH0 PUSH2 0x100 EXP DUP2 SLOAD DUP2 PUSH1 0xFF MUL NOT AND SWAP1 DUP4 ISZERO ISZERO MUL OR SWAP1 SSTORE POP PUSH0 PUSH1 0xC PUSH1 0x40 MLOAD PUSH3 0x1EE SWAP1 PUSH3 0x516 JUMP JUMPDEST SWAP1 DUP2 MSTORE PUSH1 0x20 ADD PUSH1 0x40 MLOAD DUP1 SWAP2 SUB SWAP1 KECCAK256 PUSH0 PUSH2 0x100 EXP DUP2 SLOAD DUP2 PUSH1 0xFF MUL NOT AND SWAP1 DUP4 ISZERO ISZERO MUL OR SWAP1 SSTORE POP PUSH0 PUSH1 0xC PUSH1 0x40 MLOAD PUSH3 0x223 SWAP1 PUSH3 0x57A JUMP JUMPDEST SWAP1 DUP2 MSTORE PUSH1 0x20 ADD PUSH1 0x40 MLOAD DUP1 SWAP2 SUB SWAP1 KECCAK256 PUSH0 PUSH2 0x100 EXP DUP2 SLOAD DUP2 PUSH1 0xFF MUL NOT AND SWAP1 DUP4 ISZERO ISZERO MUL OR SWAP1 SSTORE POP PUSH0 PUSH1 0xC PUSH1 0x40 MLOAD PUSH3 0x258 SWAP1 PUSH3 0x5DE JUMP JUMPDEST SWAP1 DUP2 MSTORE PUSH1 0x20 ADD PUSH1 0x40 MLOAD DUP1 SWAP2 SUB SWAP1 KECCAK256 PUSH0 PUSH2 0x100 EXP DUP2 SLOAD DUP2 PUSH1 0xFF MUL NOT AND SWAP1 DUP4 ISZERO ISZERO MUL OR SWAP1 SSTORE POP PUSH0 PUSH1 0xC PUSH1 0x40 MLOAD PUSH3 0x28D SWAP1 PUSH3 0x642 JUMP JUMPDEST SWAP1 DUP2 MSTORE PUSH1 0x20 ADD PUSH1 0x40 MLOAD DUP1 SWAP2 SUB SWAP1 KECCAK256 PUSH0 PUSH2 0x100 EXP DUP2 SLOAD DUP2 PUSH1 0xFF MUL NOT AND SWAP1 DUP4 ISZERO ISZERO MUL OR SWAP1 SSTORE POP PUSH1 0x1 PUSH1 0x8 PUSH0 PUSH2 0x100 EXP DUP2 SLOAD DUP2 PUSH1 0xFF MUL NOT AND SWAP1 DUP4 ISZERO ISZERO MUL OR SWAP1 SSTORE POP POP POP POP PUSH3 0x658 JUMP JUMPDEST PUSH0 DUP1 REVERT JUMPDEST PUSH0 PUSH20 0xFFFFFFFFFFFFFFFFFFFFFFFFFFFFFFFFFFFFFFFF DUP3 AND SWAP1 POP SWAP2 SWAP1 POP JUMP JUMPDEST PUSH0 PUSH3 0x303 DUP3 PUSH3 0x2D8 JUMP JUMPDEST SWAP1 POP SWAP2 SWAP1 POP JUMP JUMPDEST PUSH3 0x315 DUP2 PUSH3 0x2F7 JUMP JUMPDEST DUP2 EQ PUSH3 0x320 JUMPI PUSH0 DUP1 REVERT JUMPDEST POP JUMP JUMPDEST PUSH0 DUP2 MLOAD SWAP1 POP PUSH3 0x333 DUP2 PUSH3 0x30A JUMP JUMPDEST SWAP3 SWAP2 POP POP JUMP JUMPDEST PUSH0 DUP1 PUSH0 PUSH1 0x60 DUP5 DUP7 SUB SLT ISZERO PUSH3 0x353 JUMPI PUSH3 0x352 PUSH3 0x2D4 JUMP JUMPDEST JUMPDEST PUSH0 PUSH3 0x362 DUP7 DUP3 DUP8 ADD PUSH3 0x323 JUMP JUMPDEST SWAP4 POP POP PUSH1 0x20 PUSH3 0x375 DUP7 DUP3 DUP8 ADD PUSH3 0x323 JUMP JUMPDEST SWAP3 POP POP PUSH1 0x40 PUSH3 0x388 DUP7 DUP3 DUP8 ADD PUSH3 0x323 JUMP JUMPDEST SWAP2 POP POP SWAP3 POP SWAP3 POP SWAP3 JUMP JUMPDEST PUSH0 DUP2 SWAP1 POP SWAP3 SWAP2 POP POP JUMP JUMPDEST PUSH32 0x617070726F7665456C656D656E74000000000000000000000000000000000000 PUSH0 DUP3 ADD MSTORE POP JUMP JUMPDEST PUSH0 PUSH3 0x3D2 PUSH1 0xE DUP4 PUSH3 0x392 JUMP JUMPDEST SWAP2 POP PUSH3 0x3DF DUP3 PUSH3 0x39C JUMP JUMPDEST PUSH1 0xE DUP3 ADD SWAP1 POP SWAP2 SWAP1 POP JUMP JUMPDEST PUSH0 PUSH3 0x3F6 DUP3 PUSH3 0x3C4 JUMP JUMPDEST SWAP2 POP DUP2 SWAP1 POP SWAP2 SWAP1 POP JUMP JUMPDEST PUSH32 0x72656A656374456C656D656E7400000000000000000000000000000000000000 PUSH0 DUP3 ADD MSTORE POP JUMP JUMPDEST PUSH0 PUSH3 0x436 PUSH1 0xD DUP4 PUSH3 0x392 JUMP JUMPDEST SWAP2 POP PUSH3 0x443 DUP3 PUSH3 0x400 JUMP JUMPDEST PUSH1 0xD DUP3 ADD SWAP1 POP SWAP2 SWAP1 POP JUMP JUMPDEST PUSH0 PUSH3 0x45A DUP3 PUSH3 0x428 JUMP JUMPDEST SWAP2 POP DUP2 SWAP1 POP SWAP2 SWAP1 POP JUMP JUMPDEST PUSH32 0x72656D6F7665456C656D656E7400000000000000000000000000000000000000 PUSH0 DUP3 ADD MSTORE POP JUMP JUMPDEST PUSH0 PUSH3 0x49A PUSH1 0xD DUP4 PUSH3 0x392 JUMP JUMPDEST SWAP2 POP PUSH3 0x4A7 DUP3 PUSH3 0x464 JUMP JUMPDEST PUSH1 0xD DUP3 ADD SWAP1 POP SWAP2 SWAP1 POP JUMP JUMPDEST PUSH0 PUSH3 0x4BE DUP3 PUSH3 0x48C JUMP JUMPDEST SWAP2 POP DUP2 SWAP1 POP SWAP2 SWAP1 POP JUMP JUMPDEST PUSH32 0x636F6E6669726D55706461746500000000000000000000000000000000000000 PUSH0 DUP3 ADD MSTORE POP JUMP JUMPDEST PUSH0 PUSH3 0x4FE PUSH1 0xD DUP4 PUSH3 0x392 JUMP JUMPDEST SWAP2 POP PUSH3 0x50B DUP3 PUSH3 0x4C8 JUMP JUMPDEST PUSH1 0xD DUP3 ADD SWAP1 POP SWAP2 SWAP1 POP JUMP JUMPDEST PUSH0 PUSH3 0x522 DUP3 PUSH3 0x4F0 JUMP JUMPDEST SWAP2 POP DUP2 SWAP1 POP SWAP2 SWAP1 POP JUMP JUMPDEST PUSH32 0x7265667573655570646174650000000000000000000000000000000000000000 PUSH0 DUP3 ADD MSTORE POP JUMP JUMPDEST PUSH0 PUSH3 0x562 PUSH1 0xC DUP4 PUSH3 0x392 JUMP JUMPDEST SWAP2 POP PUSH3 0x56F DUP3 PUSH3 0x52C JUMP JUMPDEST PUSH1 0xC DUP3 ADD SWAP1 POP SWAP2 SWAP1 POP JUMP JUMPDEST PUSH0 PUSH3 0x586 DUP3 PUSH3 0x554 JUMP JUMPDEST SWAP2 POP DUP2 SWAP1 POP SWAP2 SWAP1 POP JUMP JUMPDEST PUSH32 0x6368616E676541646D696E000000000000000000000000000000000000000000 PUSH0 DUP3 ADD MSTORE POP JUMP JUMPDEST PUSH0 PUSH3 0x5C6 PUSH1 0xB DUP4 PUSH3 0x392 JUMP JUMPDEST SWAP2 POP PUSH3 0x5D3 DUP3 PUSH3 0x590 JUMP JUMPDEST PUSH1 0xB DUP3 ADD SWAP1 POP SWAP2 SWAP1 POP JUMP JUMPDEST PUSH0 PUSH3 0x5EA DUP3 PUSH3 0x5B8 JUMP JUMPDEST SWAP2 POP DUP2 SWAP1 POP SWAP2 SWAP1 POP JUMP JUMPDEST PUSH32 0x6368616E67655365636F6E6441646D696E000000000000000000000000000000 PUSH0 DUP3 ADD MSTORE POP JUMP JUMPDEST PUSH0 PUSH3 0x62A PUSH1 0x11 DUP4 PUSH3 0x392 JUMP JUMPDEST SWAP2 POP PUSH3 0x637 DUP3 PUSH3 0x5F4 JUMP JUMPDEST PUSH1 0x11 DUP3 ADD SWAP1 POP SWAP2 SWAP1 POP JUMP JUMPDEST PUSH0 PUSH3 0x64E DUP3 PUSH3 0x61C JUMP JUMPDEST SWAP2 POP DUP2 SWAP1 POP SWAP2 SWAP1 POP JUMP JUMPDEST PUSH2 0x4E1F DUP1 PUSH3 0x666 PUSH0 CODECOPY PUSH0 RETURN INVALID PUSH1 0x80 PUSH1 0x40 MSTORE CALLVALUE DUP1 ISZERO PUSH2 0xF JUMPI PUSH0 DUP1 REVERT JUMPDEST POP PUSH1 0x4 CALLDATASIZE LT PUSH2 0x25B JUMPI PUSH0 CALLDATALOAD PUSH1 0xE0 SHR DUP1 PUSH4 0x6B8D04FB GT PUSH2 0x144 JUMPI DUP1 PUSH4 0xC07473F6 GT PUSH2 0xC1 JUMPI DUP1 PUSH4 0xD4F1E386 GT PUSH2 0x85 JUMPI DUP1 PUSH4 0xD4F1E386 EQ PUSH2 0x707 JUMPI DUP1 PUSH4 0xD69ECA4C EQ PUSH2 0x711 JUMPI DUP1 PUSH4 0xDD8087D1 EQ PUSH2 0x72F JUMPI DUP1 PUSH4 0xE0D64B37 EQ PUSH2 0x74B JUMPI DUP1 PUSH4 0xF851A440 EQ PUSH2 0x786 JUMPI DUP1 PUSH4 0xF9089BF2 EQ PUSH2 0x7A4 JUMPI PUSH2 0x25B JUMP JUMPDEST DUP1 PUSH4 0xC07473F6 EQ PUSH2 0x651 JUMPI DUP1 PUSH4 0xC5E48E5A EQ PUSH2 0x681 JUMPI DUP1 PUSH4 0xC7B3564E EQ PUSH2 0x69F JUMPI DUP1 PUSH4 0xC9B3829F EQ PUSH2 0x6BB JUMPI DUP1 PUSH4 0xCC78D728 EQ PUSH2 0x6D7 JUMPI PUSH2 0x25B JUMP JUMPDEST DUP1 PUSH4 0x8F283970 GT PUSH2 0x108 JUMPI DUP1 PUSH4 0x8F283970 EQ PUSH2 0x5D7 JUMPI DUP1 PUSH4 0x8FDDD022 EQ PUSH2 0x5F3 JUMPI DUP1 PUSH4 0x9FC37ABF EQ PUSH2 0x5FD JUMPI DUP1 PUSH4 0xA721EBDD EQ PUSH2 0x619 JUMPI DUP1 PUSH4 0xB17146C8 EQ PUSH2 0x635 JUMPI PUSH2 0x25B JUMP JUMPDEST DUP1 PUSH4 0x6B8D04FB EQ PUSH2 0x533 JUMPI DUP1 PUSH4 0x72BAE674 EQ PUSH2 0x563 JUMPI DUP1 PUSH4 0x7547C7A3 EQ PUSH2 0x57F JUMPI DUP1 PUSH4 0x84D804BE EQ PUSH2 0x59B JUMPI DUP1 PUSH4 0x8B52E06C EQ PUSH2 0x5B9 JUMPI PUSH2 0x25B JUMP JUMPDEST DUP1 PUSH4 0x25D5971F GT PUSH2 0x1DD JUMPI DUP1 PUSH4 0x3B72BAD5 GT PUSH2 0x1A1 JUMPI DUP1 PUSH4 0x3B72BAD5 EQ PUSH2 0x45D JUMPI DUP1 PUSH4 0x51D18598 EQ PUSH2 0x479 JUMPI DUP1 PUSH4 0x5DCC9391 EQ PUSH2 0x497 JUMPI DUP1 PUSH4 0x5FF329AF EQ PUSH2 0x4B5 JUMPI DUP1 PUSH4 0x613DAB3E EQ PUSH2 0x4E5 JUMPI DUP1 PUSH4 0x67BE4673 EQ PUSH2 0x515 JUMPI PUSH2 0x25B JUMP JUMPDEST DUP1 PUSH4 0x25D5971F EQ PUSH2 0x3CD JUMPI DUP1 PUSH4 0x27855B13 EQ PUSH2 0x3E9 JUMPI DUP1 PUSH4 0x2A9AAA76 EQ PUSH2 0x407 JUMPI DUP1 PUSH4 0x36EAD39F EQ PUSH2 0x423 JUMPI DUP1 PUSH4 0x3AE73259 EQ PUSH2 0x43F JUMPI PUSH2 0x25B JUMP JUMPDEST DUP1 PUSH4 0x17504B98 GT PUSH2 0x224 JUMPI DUP1 PUSH4 0x17504B98 EQ PUSH2 0x317 JUMPI DUP1 PUSH4 0x1D002CC0 EQ PUSH2 0x333 JUMPI DUP1 PUSH4 0x1D32E9B3 EQ PUSH2 0x363 JUMPI DUP1 PUSH4 0x1FAA1128 EQ PUSH2 0x381 JUMPI DUP1 PUSH4 0x20CB13AB EQ PUSH2 0x39D JUMPI PUSH2 0x25B JUMP JUMPDEST DUP1 PUSH3 0x53B4B3 EQ PUSH2 0x25F JUMPI DUP1 PUSH4 0x13EBA92 EQ PUSH2 0x27D JUMPI DUP1 PUSH4 0xA274280 EQ PUSH2 0x2AD JUMPI DUP1 PUSH4 0xD67F59E EQ PUSH2 0x2C9 JUMPI DUP1 PUSH4 0x16934FC4 EQ PUSH2 0x2E7 JUMPI JUMPDEST PUSH0 DUP1 REVERT JUMPDEST PUSH2 0x267 PUSH2 0x7D4 JUMP JUMPDEST PUSH1 0x40 MLOAD PUSH2 0x274 SWAP2 SWAP1 PUSH2 0x371E JUMP JUMPDEST PUSH1 0x40 MLOAD DUP1 SWAP2 SUB SWAP1 RETURN JUMPDEST PUSH2 0x297 PUSH1 0x4 DUP1 CALLDATASIZE SUB DUP2 ADD SWAP1 PUSH2 0x292 SWAP2 SWAP1 PUSH2 0x37A2 JUMP JUMPDEST PUSH2 0x7E6 JUMP JUMPDEST PUSH1 0x40 MLOAD PUSH2 0x2A4 SWAP2 SWAP1 PUSH2 0x37E5 JUMP JUMPDEST PUSH1 0x40 MLOAD DUP1 SWAP2 SUB SWAP1 RETURN JUMPDEST PUSH2 0x2C7 PUSH1 0x4 DUP1 CALLDATASIZE SUB DUP2 ADD SWAP1 PUSH2 0x2C2 SWAP2 SWAP1 PUSH2 0x393A JUMP JUMPDEST PUSH2 0x7FB JUMP JUMPDEST STOP JUMPDEST PUSH2 0x2D1 PUSH2 0xB56 JUMP JUMPDEST PUSH1 0x40 MLOAD PUSH2 0x2DE SWAP2 SWAP1 PUSH2 0x3A98 JUMP JUMPDEST PUSH1 0x40 MLOAD DUP1 SWAP2 SUB SWAP1 RETURN JUMPDEST PUSH2 0x301 PUSH1 0x4 DUP1 CALLDATASIZE SUB DUP2 ADD SWAP1 PUSH2 0x2FC SWAP2 SWAP1 PUSH2 0x37A2 JUMP JUMPDEST PUSH2 0xB7B JUMP JUMPDEST PUSH1 0x40 MLOAD PUSH2 0x30E SWAP2 SWAP1 PUSH2 0x37E5 JUMP JUMPDEST PUSH1 0x40 MLOAD DUP1 SWAP2 SUB SWAP1 RETURN JUMPDEST PUSH2 0x331 PUSH1 0x4 DUP1 CALLDATASIZE SUB DUP2 ADD SWAP1 PUSH2 0x32C SWAP2 SWAP1 PUSH2 0x3ADB JUMP JUMPDEST PUSH2 0xB90 JUMP JUMPDEST STOP JUMPDEST PUSH2 0x34D PUSH1 0x4 DUP1 CALLDATASIZE SUB DUP2 ADD SWAP1 PUSH2 0x348 SWAP2 SWAP1 PUSH2 0x37A2 JUMP JUMPDEST PUSH2 0xCDE JUMP JUMPDEST PUSH1 0x40 MLOAD PUSH2 0x35A SWAP2 SWAP1 PUSH2 0x37E5 JUMP JUMPDEST PUSH1 0x40 MLOAD DUP1 SWAP2 SUB SWAP1 RETURN JUMPDEST PUSH2 0x36B PUSH2 0xCF3 JUMP JUMPDEST PUSH1 0x40 MLOAD PUSH2 0x378 SWAP2 SWAP1 PUSH2 0x3B44 JUMP JUMPDEST PUSH1 0x40 MLOAD DUP1 SWAP2 SUB SWAP1 RETURN JUMPDEST PUSH2 0x39B PUSH1 0x4 DUP1 CALLDATASIZE SUB DUP2 ADD SWAP1 PUSH2 0x396 SWAP2 SWAP1 PUSH2 0x3B87 JUMP JUMPDEST PUSH2 0xD18 JUMP JUMPDEST STOP JUMPDEST PUSH2 0x3B7 PUSH1 0x4 DUP1 CALLDATASIZE SUB DUP2 ADD SWAP1 PUSH2 0x3B2 SWAP2 SWAP1 PUSH2 0x3BB2 JUMP JUMPDEST PUSH2 0xEF2 JUMP JUMPDEST PUSH1 0x40 MLOAD PUSH2 0x3C4 SWAP2 SWAP1 PUSH2 0x37E5 JUMP JUMPDEST PUSH1 0x40 MLOAD DUP1 SWAP2 SUB SWAP1 RETURN JUMPDEST PUSH2 0x3E7 PUSH1 0x4 DUP1 CALLDATASIZE SUB DUP2 ADD SWAP1 PUSH2 0x3E2 SWAP2 SWAP1 PUSH2 0x3B87 JUMP JUMPDEST PUSH2 0xF41 JUMP JUMPDEST STOP JUMPDEST PUSH2 0x3F1 PUSH2 0x1113 JUMP JUMPDEST PUSH1 0x40 MLOAD PUSH2 0x3FE SWAP2 SWAP1 PUSH2 0x37E5 JUMP JUMPDEST PUSH1 0x40 MLOAD DUP1 SWAP2 SUB SWAP1 RETURN JUMPDEST PUSH2 0x421 PUSH1 0x4 DUP1 CALLDATASIZE SUB DUP2 ADD SWAP1 PUSH2 0x41C SWAP2 SWAP1 PUSH2 0x3ADB JUMP JUMPDEST PUSH2 0x1125 JUMP JUMPDEST STOP JUMPDEST PUSH2 0x43D PUSH1 0x4 DUP1 CALLDATASIZE SUB DUP2 ADD SWAP1 PUSH2 0x438 SWAP2 SWAP1 PUSH2 0x3B87 JUMP JUMPDEST PUSH2 0x1272 JUMP JUMPDEST STOP JUMPDEST PUSH2 0x447 PUSH2 0x14EE JUMP JUMPDEST PUSH1 0x40 MLOAD PUSH2 0x454 SWAP2 SWAP1 PUSH2 0x37E5 JUMP JUMPDEST PUSH1 0x40 MLOAD DUP1 SWAP2 SUB SWAP1 RETURN JUMPDEST PUSH2 0x477 PUSH1 0x4 DUP1 CALLDATASIZE SUB DUP2 ADD SWAP1 PUSH2 0x472 SWAP2 SWAP1 PUSH2 0x3B87 JUMP JUMPDEST PUSH2 0x14F4 JUMP JUMPDEST STOP JUMPDEST PUSH2 0x481 PUSH2 0x175A JUMP JUMPDEST PUSH1 0x40 MLOAD PUSH2 0x48E SWAP2 SWAP1 PUSH2 0x37E5 JUMP JUMPDEST PUSH1 0x40 MLOAD DUP1 SWAP2 SUB SWAP1 RETURN JUMPDEST PUSH2 0x49F PUSH2 0x1763 JUMP JUMPDEST PUSH1 0x40 MLOAD PUSH2 0x4AC SWAP2 SWAP1 PUSH2 0x37E5 JUMP JUMPDEST PUSH1 0x40 MLOAD DUP1 SWAP2 SUB SWAP1 RETURN JUMPDEST PUSH2 0x4CF PUSH1 0x4 DUP1 CALLDATASIZE SUB DUP2 ADD SWAP1 PUSH2 0x4CA SWAP2 SWAP1 PUSH2 0x37A2 JUMP JUMPDEST PUSH2 0x1769 JUMP JUMPDEST PUSH1 0x40 MLOAD PUSH2 0x4DC SWAP2 SWAP1 PUSH2 0x37E5 JUMP JUMPDEST PUSH1 0x40 MLOAD DUP1 SWAP2 SUB SWAP1 RETURN JUMPDEST PUSH2 0x4FF PUSH1 0x4 DUP1 CALLDATASIZE SUB DUP2 ADD SWAP1 PUSH2 0x4FA SWAP2 SWAP1 PUSH2 0x3BF0 JUMP JUMPDEST PUSH2 0x1945 JUMP JUMPDEST PUSH1 0x40 MLOAD PUSH2 0x50C SWAP2 SWAP1 PUSH2 0x371E JUMP JUMPDEST PUSH1 0x40 MLOAD DUP1 SWAP2 SUB SWAP1 RETURN JUMPDEST PUSH2 0x51D PUSH2 0x197A JUMP JUMPDEST PUSH1 0x40 MLOAD PUSH2 0x52A SWAP2 SWAP1 PUSH2 0x37E5 JUMP JUMPDEST PUSH1 0x40 MLOAD DUP1 SWAP2 SUB SWAP1 RETURN JUMPDEST PUSH2 0x54D PUSH1 0x4 DUP1 CALLDATASIZE SUB DUP2 ADD SWAP1 PUSH2 0x548 SWAP2 SWAP1 PUSH2 0x37A2 JUMP JUMPDEST PUSH2 0x1980 JUMP JUMPDEST PUSH1 0x40 MLOAD PUSH2 0x55A SWAP2 SWAP1 PUSH2 0x371E JUMP JUMPDEST PUSH1 0x40 MLOAD DUP1 SWAP2 SUB SWAP1 RETURN JUMPDEST PUSH2 0x57D PUSH1 0x4 DUP1 CALLDATASIZE SUB DUP2 ADD SWAP1 PUSH2 0x578 SWAP2 SWAP1 PUSH2 0x3BB2 JUMP JUMPDEST PUSH2 0x1A4F JUMP JUMPDEST STOP JUMPDEST PUSH2 0x599 PUSH1 0x4 DUP1 CALLDATASIZE SUB DUP2 ADD SWAP1 PUSH2 0x594 SWAP2 SWAP1 PUSH2 0x3B87 JUMP JUMPDEST PUSH2 0x1BA2 JUMP JUMPDEST STOP JUMPDEST PUSH2 0x5A3 PUSH2 0x1DCB JUMP JUMPDEST PUSH1 0x40 MLOAD PUSH2 0x5B0 SWAP2 SWAP1 PUSH2 0x37E5 JUMP JUMPDEST PUSH1 0x40 MLOAD DUP1 SWAP2 SUB SWAP1 RETURN JUMPDEST PUSH2 0x5C1 PUSH2 0x1DD2 JUMP JUMPDEST PUSH1 0x40 MLOAD PUSH2 0x5CE SWAP2 SWAP1 PUSH2 0x3B44 JUMP JUMPDEST PUSH1 0x40 MLOAD DUP1 SWAP2 SUB SWAP1 RETURN JUMPDEST PUSH2 0x5F1 PUSH1 0x4 DUP1 CALLDATASIZE SUB DUP2 ADD SWAP1 PUSH2 0x5EC SWAP2 SWAP1 PUSH2 0x37A2 JUMP JUMPDEST PUSH2 0x1DF7 JUMP JUMPDEST STOP JUMPDEST PUSH2 0x5FB PUSH2 0x1FD9 JUMP JUMPDEST STOP JUMPDEST PUSH2 0x617 PUSH1 0x4 DUP1 CALLDATASIZE SUB DUP2 ADD SWAP1 PUSH2 0x612 SWAP2 SWAP1 PUSH2 0x3B87 JUMP JUMPDEST PUSH2 0x2093 JUMP JUMPDEST STOP JUMPDEST PUSH2 0x633 PUSH1 0x4 DUP1 CALLDATASIZE SUB DUP2 ADD SWAP1 PUSH2 0x62E SWAP2 SWAP1 PUSH2 0x3C37 JUMP JUMPDEST PUSH2 0x2217 JUMP JUMPDEST STOP JUMPDEST PUSH2 0x64F PUSH1 0x4 DUP1 CALLDATASIZE SUB DUP2 ADD SWAP1 PUSH2 0x64A SWAP2 SWAP1 PUSH2 0x3C37 JUMP JUMPDEST PUSH2 0x22F7 JUMP JUMPDEST STOP JUMPDEST PUSH2 0x66B PUSH1 0x4 DUP1 CALLDATASIZE SUB DUP2 ADD SWAP1 PUSH2 0x666 SWAP2 SWAP1 PUSH2 0x37A2 JUMP JUMPDEST PUSH2 0x23D7 JUMP JUMPDEST PUSH1 0x40 MLOAD PUSH2 0x678 SWAP2 SWAP1 PUSH2 0x37E5 JUMP JUMPDEST PUSH1 0x40 MLOAD DUP1 SWAP2 SUB SWAP1 RETURN JUMPDEST PUSH2 0x689 PUSH2 0x23EC JUMP JUMPDEST PUSH1 0x40 MLOAD PUSH2 0x696 SWAP2 SWAP1 PUSH2 0x37E5 JUMP JUMPDEST PUSH1 0x40 MLOAD DUP1 SWAP2 SUB SWAP1 RETURN JUMPDEST PUSH2 0x6B9 PUSH1 0x4 DUP1 CALLDATASIZE SUB DUP2 ADD SWAP1 PUSH2 0x6B4 SWAP2 SWAP1 PUSH2 0x3C37 JUMP JUMPDEST PUSH2 0x23F5 JUMP JUMPDEST STOP JUMPDEST PUSH2 0x6D5 PUSH1 0x4 DUP1 CALLDATASIZE SUB DUP2 ADD SWAP1 PUSH2 0x6D0 SWAP2 SWAP1 PUSH2 0x3B87 JUMP JUMPDEST PUSH2 0x24D5 JUMP JUMPDEST STOP JUMPDEST PUSH2 0x6F1 PUSH1 0x4 DUP1 CALLDATASIZE SUB DUP2 ADD SWAP1 PUSH2 0x6EC SWAP2 SWAP1 PUSH2 0x37A2 JUMP JUMPDEST PUSH2 0x26B0 JUMP JUMPDEST PUSH1 0x40 MLOAD PUSH2 0x6FE SWAP2 SWAP1 PUSH2 0x37E5 JUMP JUMPDEST PUSH1 0x40 MLOAD DUP1 SWAP2 SUB SWAP1 RETURN JUMPDEST PUSH2 0x70F PUSH2 0x26F6 JUMP JUMPDEST STOP JUMPDEST PUSH2 0x719 PUSH2 0x2A54 JUMP JUMPDEST PUSH1 0x40 MLOAD PUSH2 0x726 SWAP2 SWAP1 PUSH2 0x37E5 JUMP JUMPDEST PUSH1 0x40 MLOAD DUP1 SWAP2 SUB SWAP1 RETURN JUMPDEST PUSH2 0x749 PUSH1 0x4 DUP1 CALLDATASIZE SUB DUP2 ADD SWAP1 PUSH2 0x744 SWAP2 SWAP1 PUSH2 0x37A2 JUMP JUMPDEST PUSH2 0x2AF3 JUMP JUMPDEST STOP JUMPDEST PUSH2 0x765 PUSH1 0x4 DUP1 CALLDATASIZE SUB DUP2 ADD SWAP1 PUSH2 0x760 SWAP2 SWAP1 PUSH2 0x3B87 JUMP JUMPDEST PUSH2 0x2CD4 JUMP JUMPDEST PUSH1 0x40 MLOAD PUSH2 0x77D SWAP13 SWAP12 SWAP11 SWAP10 SWAP9 SWAP8 SWAP7 SWAP6 SWAP5 SWAP4 SWAP3 SWAP2 SWAP1 PUSH2 0x3D0B JUMP JUMPDEST PUSH1 0x40 MLOAD DUP1 SWAP2 SUB SWAP1 RETURN JUMPDEST PUSH2 0x78E PUSH2 0x317F JUMP JUMPDEST PUSH1 0x40 MLOAD PUSH2 0x79B SWAP2 SWAP1 PUSH2 0x3B44 JUMP JUMPDEST PUSH1 0x40 MLOAD DUP1 SWAP2 SUB SWAP1 RETURN JUMPDEST PUSH2 0x7BE PUSH1 0x4 DUP1 CALLDATASIZE SUB DUP2 ADD SWAP1 PUSH2 0x7B9 SWAP2 SWAP1 PUSH2 0x3B87 JUMP JUMPDEST PUSH2 0x31A5 JUMP JUMPDEST PUSH1 0x40 MLOAD PUSH2 0x7CB SWAP2 SWAP1 PUSH2 0x37E5 JUMP JUMPDEST PUSH1 0x40 MLOAD DUP1 SWAP2 SUB SWAP1 RETURN JUMPDEST PUSH1 0x8 PUSH0 SWAP1 SLOAD SWAP1 PUSH2 0x100 EXP SWAP1 DIV PUSH1 0xFF AND DUP2 JUMP JUMPDEST PUSH1 0x3 PUSH1 0x20 MSTORE DUP1 PUSH0 MSTORE PUSH1 0x40 PUSH0 KECCAK256 PUSH0 SWAP2 POP SWAP1 POP SLOAD DUP2 JUMP JUMPDEST PUSH2 0x803 PUSH2 0x31E6 JUMP JUMPDEST PUSH5 0x2540BE400 PUSH1 0xB PUSH0 SWAP1 SLOAD SWAP1 PUSH2 0x100 EXP SWAP1 DIV PUSH20 0xFFFFFFFFFFFFFFFFFFFFFFFFFFFFFFFFFFFFFFFF AND PUSH20 0xFFFFFFFFFFFFFFFFFFFFFFFFFFFFFFFFFFFFFFFF AND PUSH4 0x70A08231 CALLER PUSH1 0x40 MLOAD DUP3 PUSH4 0xFFFFFFFF AND PUSH1 0xE0 SHL DUP2 MSTORE PUSH1 0x4 ADD PUSH2 0x863 SWAP2 SWAP1 PUSH2 0x3B44 JUMP JUMPDEST PUSH1 0x20 PUSH1 0x40 MLOAD DUP1 DUP4 SUB DUP2 DUP7 GAS STATICCALL ISZERO DUP1 ISZERO PUSH2 0x87E JUMPI RETURNDATASIZE PUSH0 DUP1 RETURNDATACOPY RETURNDATASIZE PUSH0 REVERT JUMPDEST POP POP POP POP PUSH1 0x40 MLOAD RETURNDATASIZE PUSH1 0x1F NOT PUSH1 0x1F DUP3 ADD AND DUP3 ADD DUP1 PUSH1 0x40 MSTORE POP DUP2 ADD SWAP1 PUSH2 0x8A2 SWAP2 SWAP1 PUSH2 0x3E0F JUMP JUMPDEST LT ISZERO PUSH2 0x8E3 JUMPI PUSH1 0x40 MLOAD PUSH32 0x8C379A000000000000000000000000000000000000000000000000000000000 DUP2 MSTORE PUSH1 0x4 ADD PUSH2 0x8DA SWAP1 PUSH2 0x3EAA JUMP JUMPDEST PUSH1 0x40 MLOAD DUP1 SWAP2 SUB SWAP1 REVERT JUMPDEST PUSH2 0x936 CALLER ADDRESS PUSH5 0x2540BE400 PUSH1 0xB PUSH0 SWAP1 SLOAD SWAP1 PUSH2 0x100 EXP SWAP1 DIV PUSH20 0xFFFFFFFFFFFFFFFFFFFFFFFFFFFFFFFFFFFFFFFF AND PUSH20 0xFFFFFFFFFFFFFFFFFFFFFFFFFFFFFFFFFFFFFFFF AND PUSH2 0x3233 SWAP1 SWAP4 SWAP3 SWAP2 SWAP1 PUSH4 0xFFFFFFFF AND JUMP JUMPDEST PUSH1 0x40 MLOAD DUP1 PUSH2 0x180 ADD PUSH1 0x40 MSTORE DUP1 DUP7 DUP2 MSTORE PUSH1 0x20 ADD DUP6 DUP2 MSTORE PUSH1 0x20 ADD DUP5 DUP2 MSTORE PUSH1 0x20 ADD PUSH1 0x40 MLOAD DUP1 PUSH1 0x20 ADD PUSH1 0x40 MSTORE DUP1 PUSH0 DUP2 MSTORE POP DUP2 MSTORE PUSH1 0x20 ADD PUSH1 0x40 MLOAD DUP1 PUSH1 0x20 ADD PUSH1 0x40 MSTORE DUP1 PUSH0 DUP2 MSTORE POP DUP2 MSTORE PUSH1 0x20 ADD PUSH1 0x40 MLOAD DUP1 PUSH1 0x20 ADD PUSH1 0x40 MSTORE DUP1 PUSH0 DUP2 MSTORE POP DUP2 MSTORE PUSH1 0x20 ADD DUP4 DUP2 MSTORE PUSH1 0x20 ADD DUP3 DUP2 MSTORE PUSH1 0x20 ADD CALLER PUSH20 0xFFFFFFFFFFFFFFFFFFFFFFFFFFFFFFFFFFFFFFFF AND DUP2 MSTORE PUSH1 0x20 ADD PUSH0 DUP2 MSTORE PUSH1 0x20 ADD TIMESTAMP DUP2 MSTORE PUSH1 0x20 ADD PUSH1 0x1 DUP2 MSTORE POP PUSH1 0x5 PUSH0 PUSH1 0x6 SLOAD DUP2 MSTORE PUSH1 0x20 ADD SWAP1 DUP2 MSTORE PUSH1 0x20 ADD PUSH0 KECCAK256 PUSH0 DUP3 ADD MLOAD DUP2 PUSH0 ADD SWAP1 DUP2 PUSH2 0x9EF SWAP2 SWAP1 PUSH2 0x40B9 JUMP JUMPDEST POP PUSH1 0x20 DUP3 ADD MLOAD DUP2 PUSH1 0x1 ADD SWAP1 DUP2 PUSH2 0xA05 SWAP2 SWAP1 PUSH2 0x40B9 JUMP JUMPDEST POP PUSH1 0x40 DUP3 ADD MLOAD DUP2 PUSH1 0x2 ADD SWAP1 DUP2 PUSH2 0xA1B SWAP2 SWAP1 PUSH2 0x40B9 JUMP JUMPDEST POP PUSH1 0x60 DUP3 ADD MLOAD DUP2 PUSH1 0x3 ADD SWAP1 DUP2 PUSH2 0xA31 SWAP2 SWAP1 PUSH2 0x40B9 JUMP JUMPDEST POP PUSH1 0x80 DUP3 ADD MLOAD DUP2 PUSH1 0x4 ADD SWAP1 DUP2 PUSH2 0xA47 SWAP2 SWAP1 PUSH2 0x40B9 JUMP JUMPDEST POP PUSH1 0xA0 DUP3 ADD MLOAD DUP2 PUSH1 0x5 ADD SWAP1 DUP2 PUSH2 0xA5D SWAP2 SWAP1 PUSH2 0x40B9 JUMP JUMPDEST POP PUSH1 0xC0 DUP3 ADD MLOAD DUP2 PUSH1 0x6 ADD SWAP1 DUP2 PUSH2 0xA73 SWAP2 SWAP1 PUSH2 0x40B9 JUMP JUMPDEST POP PUSH1 0xE0 DUP3 ADD MLOAD DUP2 PUSH1 0x7 ADD SWAP1 DUP2 PUSH2 0xA89 SWAP2 SWAP1 PUSH2 0x40B9 JUMP JUMPDEST POP PUSH2 0x100 DUP3 ADD MLOAD DUP2 PUSH1 0x8 ADD PUSH0 PUSH2 0x100 EXP DUP2 SLOAD DUP2 PUSH20 0xFFFFFFFFFFFFFFFFFFFFFFFFFFFFFFFFFFFFFFFF MUL NOT AND SWAP1 DUP4 PUSH20 0xFFFFFFFFFFFFFFFFFFFFFFFFFFFFFFFFFFFFFFFF AND MUL OR SWAP1 SSTORE POP PUSH2 0x120 DUP3 ADD MLOAD DUP2 PUSH1 0x9 ADD SSTORE PUSH2 0x140 DUP3 ADD MLOAD DUP2 PUSH1 0xA ADD SSTORE PUSH2 0x160 DUP3 ADD MLOAD DUP2 PUSH1 0xB ADD SSTORE SWAP1 POP POP PUSH32 0xF0D06E2E518A804C9A10FA68CAB030EDCF83B96217600C6415D780008923FEF6 PUSH1 0x6 SLOAD CALLER PUSH1 0x40 MLOAD PUSH2 0xB28 SWAP3 SWAP2 SWAP1 PUSH2 0x4188 JUMP JUMPDEST PUSH1 0x40 MLOAD DUP1 SWAP2 SUB SWAP1 LOG1 PUSH1 0x6 PUSH0 DUP2 SLOAD DUP1 SWAP3 SWAP2 SWAP1 PUSH2 0xB42 SWAP1 PUSH2 0x41DC JUMP JUMPDEST SWAP2 SWAP1 POP SSTORE POP PUSH2 0xB4F PUSH2 0x32B5 JUMP JUMPDEST POP POP POP POP POP JUMP JUMPDEST PUSH1 0xB PUSH0 SWAP1 SLOAD SWAP1 PUSH2 0x100 EXP SWAP1 DIV PUSH20 0xFFFFFFFFFFFFFFFFFFFFFFFFFFFFFFFFFFFFFFFF AND DUP2 JUMP JUMPDEST PUSH1 0x1 PUSH1 0x20 MSTORE DUP1 PUSH0 MSTORE PUSH1 0x40 PUSH0 KECCAK256 PUSH0 SWAP2 POP SWAP1 POP SLOAD DUP2 JUMP JUMPDEST PUSH1 0x8 PUSH1 0x1 SWAP1 SLOAD SWAP1 PUSH2 0x100 EXP SWAP1 DIV PUSH20 0xFFFFFFFFFFFFFFFFFFFFFFFFFFFFFFFFFFFFFFFF AND PUSH20 0xFFFFFFFFFFFFFFFFFFFFFFFFFFFFFFFFFFFFFFFF AND CALLER PUSH20 0xFFFFFFFFFFFFFFFFFFFFFFFFFFFFFFFFFFFFFFFF AND EQ PUSH2 0xC20 JUMPI PUSH1 0x40 MLOAD PUSH32 0x8C379A000000000000000000000000000000000000000000000000000000000 DUP2 MSTORE PUSH1 0x4 ADD PUSH2 0xC17 SWAP1 PUSH2 0x4293 JUMP JUMPDEST PUSH1 0x40 MLOAD DUP1 SWAP2 SUB SWAP1 REVERT JUMPDEST PUSH1 0x40 MLOAD DUP1 PUSH1 0x40 ADD PUSH1 0x40 MSTORE DUP1 PUSH1 0x11 DUP2 MSTORE PUSH1 0x20 ADD PUSH32 0x6368616E67655365636F6E6441646D696E000000000000000000000000000000 DUP2 MSTORE POP DUP1 MLOAD SWAP1 PUSH1 0x20 ADD KECCAK256 DUP3 DUP1 MLOAD SWAP1 PUSH1 0x20 ADD KECCAK256 EQ PUSH2 0xCA5 JUMPI PUSH1 0x40 MLOAD PUSH32 0x8C379A000000000000000000000000000000000000000000000000000000000 DUP2 MSTORE PUSH1 0x4 ADD PUSH2 0xC9C SWAP1 PUSH2 0x4321 JUMP JUMPDEST PUSH1 0x40 MLOAD DUP1 SWAP2 SUB SWAP1 REVERT JUMPDEST DUP1 PUSH1 0xC DUP4 PUSH1 0x40 MLOAD PUSH2 0xCB6 SWAP2 SWAP1 PUSH2 0x4379 JUMP JUMPDEST SWAP1 DUP2 MSTORE PUSH1 0x20 ADD PUSH1 0x40 MLOAD DUP1 SWAP2 SUB SWAP1 KECCAK256 PUSH0 PUSH2 0x100 EXP DUP2 SLOAD DUP2 PUSH1 0xFF MUL NOT AND SWAP1 DUP4 ISZERO ISZERO MUL OR SWAP1 SSTORE POP POP POP JUMP JUMPDEST PUSH1 0x4 PUSH1 0x20 MSTORE DUP1 PUSH0 MSTORE PUSH1 0x40 PUSH0 KECCAK256 PUSH0 SWAP2 POP SWAP1 POP SLOAD DUP2 JUMP JUMPDEST PUSH1 0x9 PUSH0 SWAP1 SLOAD SWAP1 PUSH2 0x100 EXP SWAP1 DIV PUSH20 0xFFFFFFFFFFFFFFFFFFFFFFFFFFFFFFFFFFFFFFFF AND DUP2 JUMP JUMPDEST PUSH1 0x8 PUSH1 0x1 SWAP1 SLOAD SWAP1 PUSH2 0x100 EXP SWAP1 DIV PUSH20 0xFFFFFFFFFFFFFFFFFFFFFFFFFFFFFFFFFFFFFFFF AND PUSH20 0xFFFFFFFFFFFFFFFFFFFFFFFFFFFFFFFFFFFFFFFF AND CALLER PUSH20 0xFFFFFFFFFFFFFFFFFFFFFFFFFFFFFFFFFFFFFFFF AND EQ PUSH2 0xDA8 JUMPI PUSH1 0x40 MLOAD PUSH32 0x8C379A000000000000000000000000000000000000000000000000000000000 DUP2 MSTORE PUSH1 0x4 ADD PUSH2 0xD9F SWAP1 PUSH2 0x4293 JUMP JUMPDEST PUSH1 0x40 MLOAD DUP1 SWAP2 SUB SWAP1 REVERT JUMPDEST PUSH1 0x40 MLOAD DUP1 PUSH1 0x40 ADD PUSH1 0x40 MSTORE DUP1 PUSH1 0xD DUP2 MSTORE PUSH1 0x20 ADD PUSH32 0x72656A656374456C656D656E7400000000000000000000000000000000000000 DUP2 MSTORE POP PUSH1 0xC DUP2 PUSH1 0x40 MLOAD PUSH2 0xDEE SWAP2 SWAP1 PUSH2 0x4379 JUMP JUMPDEST SWAP1 DUP2 MSTORE PUSH1 0x20 ADD PUSH1 0x40 MLOAD DUP1 SWAP2 SUB SWAP1 KECCAK256 PUSH0 SWAP1 SLOAD SWAP1 PUSH2 0x100 EXP SWAP1 DIV PUSH1 0xFF AND PUSH2 0xE48 JUMPI PUSH1 0x40 MLOAD PUSH32 0x8C379A000000000000000000000000000000000000000000000000000000000 DUP2 MSTORE PUSH1 0x4 ADD PUSH2 0xE3F SWAP1 PUSH2 0x43D9 JUMP JUMPDEST PUSH1 0x40 MLOAD DUP1 SWAP2 SUB SWAP1 REVERT JUMPDEST PUSH0 PUSH1 0x5 PUSH0 DUP5 DUP2 MSTORE PUSH1 0x20 ADD SWAP1 DUP2 MSTORE PUSH1 0x20 ADD PUSH0 KECCAK256 PUSH1 0x9 ADD SLOAD EQ PUSH2 0xE9E JUMPI PUSH1 0x40 MLOAD PUSH32 0x8C379A000000000000000000000000000000000000000000000000000000000 DUP2 MSTORE PUSH1 0x4 ADD PUSH2 0xE95 SWAP1 PUSH2 0x4441 JUMP JUMPDEST PUSH1 0x40 MLOAD DUP1 SWAP2 SUB SWAP1 REVERT JUMPDEST PUSH1 0x5 DUP1 PUSH0 DUP5 DUP2 MSTORE PUSH1 0x20 ADD SWAP1 DUP2 MSTORE PUSH1 0x20 ADD PUSH0 KECCAK256 PUSH1 0x9 ADD DUP2 SWAP1 SSTORE POP PUSH32 0x7421121A093BC9EB406A03CD9273C7EFBF9D3D438D9904850F9048ABF95BB7F4 DUP3 PUSH1 0x40 MLOAD PUSH2 0xEE6 SWAP2 SWAP1 PUSH2 0x37E5 JUMP JUMPDEST PUSH1 0x40 MLOAD DUP1 SWAP2 SUB SWAP1 LOG1 POP POP JUMP JUMPDEST PUSH0 DUP1 DUP3 TIMESTAMP PUSH2 0xF00 SWAP2 SWAP1 PUSH2 0x445F JUMP JUMPDEST SWAP1 POP PUSH0 PUSH2 0xF0C DUP3 PUSH2 0x31A5 JUMP JUMPDEST SWAP1 POP PUSH0 PUSH1 0xC PUSH1 0x64 DUP4 DUP9 PUSH2 0xF1F SWAP2 SWAP1 PUSH2 0x4492 JUMP JUMPDEST PUSH2 0xF29 SWAP2 SWAP1 PUSH2 0x4500 JUMP JUMPDEST PUSH2 0xF33 SWAP2 SWAP1 PUSH2 0x4500 JUMP JUMPDEST SWAP1 POP DUP1 SWAP4 POP POP POP POP SWAP3 SWAP2 POP POP JUMP JUMPDEST PUSH2 0xF49 PUSH2 0x31E6 JUMP JUMPDEST PUSH3 0xF4240 DUP2 LT ISZERO PUSH2 0xF8F JUMPI PUSH1 0x40 MLOAD PUSH32 0x8C379A000000000000000000000000000000000000000000000000000000000 DUP2 MSTORE PUSH1 0x4 ADD PUSH2 0xF86 SWAP1 PUSH2 0x45A0 JUMP JUMPDEST PUSH1 0x40 MLOAD DUP1 SWAP2 SUB SWAP1 REVERT JUMPDEST DUP1 PUSH1 0x1 PUSH0 CALLER PUSH20 0xFFFFFFFFFFFFFFFFFFFFFFFFFFFFFFFFFFFFFFFF AND PUSH20 0xFFFFFFFFFFFFFFFFFFFFFFFFFFFFFFFFFFFFFFFF AND DUP2 MSTORE PUSH1 0x20 ADD SWAP1 DUP2 MSTORE PUSH1 0x20 ADD PUSH0 KECCAK256 SLOAD LT ISZERO PUSH2 0x100F JUMPI PUSH1 0x40 MLOAD PUSH32 0x8C379A000000000000000000000000000000000000000000000000000000000 DUP2 MSTORE PUSH1 0x4 ADD PUSH2 0x1006 SWAP1 PUSH2 0x4608 JUMP JUMPDEST PUSH1 0x40 MLOAD DUP1 SWAP2 SUB SWAP1 REVERT JUMPDEST DUP1 PUSH1 0x1 PUSH0 CALLER PUSH20 0xFFFFFFFFFFFFFFFFFFFFFFFFFFFFFFFFFFFFFFFF AND PUSH20 0xFFFFFFFFFFFFFFFFFFFFFFFFFFFFFFFFFFFFFFFF AND DUP2 MSTORE PUSH1 0x20 ADD SWAP1 DUP2 MSTORE PUSH1 0x20 ADD PUSH0 KECCAK256 PUSH0 DUP3 DUP3 SLOAD PUSH2 0x105B SWAP2 SWAP1 PUSH2 0x445F JUMP JUMPDEST SWAP3 POP POP DUP2 SWAP1 SSTORE POP DUP1 PUSH1 0x7 PUSH0 DUP3 DUP3 SLOAD PUSH2 0x1073 SWAP2 SWAP1 PUSH2 0x445F JUMP JUMPDEST SWAP3 POP POP DUP2 SWAP1 SSTORE POP TIMESTAMP PUSH1 0x3 PUSH0 CALLER PUSH20 0xFFFFFFFFFFFFFFFFFFFFFFFFFFFFFFFFFFFFFFFF AND PUSH20 0xFFFFFFFFFFFFFFFFFFFFFFFFFFFFFFFFFFFFFFFF AND DUP2 MSTORE PUSH1 0x20 ADD SWAP1 DUP2 MSTORE PUSH1 0x20 ADD PUSH0 KECCAK256 DUP2 SWAP1 SSTORE POP PUSH2 0x1108 CALLER DUP3 PUSH1 0xB PUSH0 SWAP1 SLOAD SWAP1 PUSH2 0x100 EXP SWAP1 DIV PUSH20 0xFFFFFFFFFFFFFFFFFFFFFFFFFFFFFFFFFFFFFFFF AND PUSH20 0xFFFFFFFFFFFFFFFFFFFFFFFFFFFFFFFFFFFFFFFF AND PUSH2 0x32BE SWAP1 SWAP3 SWAP2 SWAP1 PUSH4 0xFFFFFFFF AND JUMP JUMPDEST PUSH2 0x1110 PUSH2 0x32B5 JUMP JUMPDEST POP JUMP JUMPDEST PUSH1 0xC PUSH2 0xE10 PUSH2 0x1122 SWAP2 SWAP1 PUSH2 0x4500 JUMP JUMPDEST DUP2 JUMP JUMPDEST PUSH1 0x9 PUSH0 SWAP1 SLOAD SWAP1 PUSH2 0x100 EXP SWAP1 DIV PUSH20 0xFFFFFFFFFFFFFFFFFFFFFFFFFFFFFFFFFFFFFFFF AND PUSH20 0xFFFFFFFFFFFFFFFFFFFFFFFFFFFFFFFFFFFFFFFF AND CALLER PUSH20 0xFFFFFFFFFFFFFFFFFFFFFFFFFFFFFFFFFFFFFFFF AND EQ PUSH2 0x11B4 JUMPI PUSH1 0x40 MLOAD PUSH32 0x8C379A000000000000000000000000000000000000000000000000000000000 DUP2 MSTORE PUSH1 0x4 ADD PUSH2 0x11AB SWAP1 PUSH2 0x4696 JUMP JUMPDEST PUSH1 0x40 MLOAD DUP1 SWAP2 SUB SWAP1 REVERT JUMPDEST PUSH1 0x40 MLOAD DUP1 PUSH1 0x40 ADD PUSH1 0x40 MSTORE DUP1 PUSH1 0x11 DUP2 MSTORE PUSH1 0x20 ADD PUSH32 0x6368616E67655365636F6E6441646D696E000000000000000000000000000000 DUP2 MSTORE POP DUP1 MLOAD SWAP1 PUSH1 0x20 ADD KECCAK256 DUP3 DUP1 MLOAD SWAP1 PUSH1 0x20 ADD KECCAK256 SUB PUSH2 0x1239 JUMPI PUSH1 0x40 MLOAD PUSH32 0x8C379A000000000000000000000000000000000000000000000000000000000 DUP2 MSTORE PUSH1 0x4 ADD PUSH2 0x1230 SWAP1 PUSH2 0x4724 JUMP JUMPDEST PUSH1 0x40 MLOAD DUP1 SWAP2 SUB SWAP1 REVERT JUMPDEST DUP1 PUSH1 0xC DUP4 PUSH1 0x40 MLOAD PUSH2 0x124A SWAP2 SWAP1 PUSH2 0x4379 JUMP JUMPDEST SWAP1 DUP2 MSTORE PUSH1 0x20 ADD PUSH1 0x40 MLOAD DUP1 SWAP2 SUB SWAP1 KECCAK256 PUSH0 PUSH2 0x100 EXP DUP2 SLOAD DUP2 PUSH1 0xFF MUL NOT AND SWAP1 DUP4 ISZERO ISZERO MUL OR SWAP1 SSTORE POP POP POP JUMP JUMPDEST PUSH1 0x8 PUSH1 0x1 SWAP1 SLOAD SWAP1 PUSH2 0x100 EXP SWAP1 DIV PUSH20 0xFFFFFFFFFFFFFFFFFFFFFFFFFFFFFFFFFFFFFFFF AND PUSH20 0xFFFFFFFFFFFFFFFFFFFFFFFFFFFFFFFFFFFFFFFF AND CALLER PUSH20 0xFFFFFFFFFFFFFFFFFFFFFFFFFFFFFFFFFFFFFFFF AND EQ PUSH2 0x1302 JUMPI PUSH1 0x40 MLOAD PUSH32 0x8C379A000000000000000000000000000000000000000000000000000000000 DUP2 MSTORE PUSH1 0x4 ADD PUSH2 0x12F9 SWAP1 PUSH2 0x4293 JUMP JUMPDEST PUSH1 0x40 MLOAD DUP1 SWAP2 SUB SWAP1 REVERT JUMPDEST PUSH1 0x40 MLOAD DUP1 PUSH1 0x40 ADD PUSH1 0x40 MSTORE DUP1 PUSH1 0xC DUP2 MSTORE PUSH1 0x20 ADD PUSH32 0x7265667573655570646174650000000000000000000000000000000000000000 DUP2 MSTORE POP PUSH1 0xC DUP2 PUSH1 0x40 MLOAD PUSH2 0x1348 SWAP2 SWAP1 PUSH2 0x4379 JUMP JUMPDEST SWAP1 DUP2 MSTORE PUSH1 0x20 ADD PUSH1 0x40 MLOAD DUP1 SWAP2 SUB SWAP1 KECCAK256 PUSH0 SWAP1 SLOAD SWAP1 PUSH2 0x100 EXP SWAP1 DIV PUSH1 0xFF AND PUSH2 0x13A2 JUMPI PUSH1 0x40 MLOAD PUSH32 0x8C379A000000000000000000000000000000000000000000000000000000000 DUP2 MSTORE PUSH1 0x4 ADD PUSH2 0x1399 SWAP1 PUSH2 0x43D9 JUMP JUMPDEST PUSH1 0x40 MLOAD DUP1 SWAP2 SUB SWAP1 REVERT JUMPDEST PUSH1 0x4 PUSH1 0x5 PUSH0 DUP5 DUP2 MSTORE PUSH1 0x20 ADD SWAP1 DUP2 MSTORE PUSH1 0x20 ADD PUSH0 KECCAK256 PUSH1 0x9 ADD SLOAD SUB PUSH2 0x13F9 JUMPI PUSH1 0x40 MLOAD PUSH32 0x8C379A000000000000000000000000000000000000000000000000000000000 DUP2 MSTORE PUSH1 0x4 ADD PUSH2 0x13F0 SWAP1 PUSH2 0x47B2 JUMP JUMPDEST PUSH1 0x40 MLOAD DUP1 SWAP2 SUB SWAP1 REVERT JUMPDEST PUSH1 0x1 PUSH1 0x5 PUSH0 DUP5 DUP2 MSTORE PUSH1 0x20 ADD SWAP1 DUP2 MSTORE PUSH1 0x20 ADD PUSH0 KECCAK256 PUSH1 0x9 ADD SLOAD SUB PUSH2 0x144A JUMPI PUSH1 0x40 MLOAD DUP1 PUSH1 0x20 ADD PUSH1 0x40 MSTORE DUP1 PUSH0 DUP2 MSTORE POP PUSH1 0x5 PUSH0 DUP5 DUP2 MSTORE PUSH1 0x20 ADD SWAP1 DUP2 MSTORE PUSH1 0x20 ADD PUSH0 KECCAK256 PUSH1 0x3 ADD SWAP1 DUP2 PUSH2 0x1444 SWAP2 SWAP1 PUSH2 0x40B9 JUMP JUMPDEST POP PUSH2 0x14EA JUMP JUMPDEST PUSH1 0x2 PUSH1 0x5 PUSH0 DUP5 DUP2 MSTORE PUSH1 0x20 ADD SWAP1 DUP2 MSTORE PUSH1 0x20 ADD PUSH0 KECCAK256 PUSH1 0x9 ADD SLOAD SUB PUSH2 0x149B JUMPI PUSH1 0x40 MLOAD DUP1 PUSH1 0x20 ADD PUSH1 0x40 MSTORE DUP1 PUSH0 DUP2 MSTORE POP PUSH1 0x5 PUSH0 DUP5 DUP2 MSTORE PUSH1 0x20 ADD SWAP1 DUP2 MSTORE PUSH1 0x20 ADD PUSH0 KECCAK256 PUSH1 0x4 ADD SWAP1 DUP2 PUSH2 0x1495 SWAP2 SWAP1 PUSH2 0x40B9 JUMP JUMPDEST POP PUSH2 0x14E9 JUMP JUMPDEST PUSH1 0x3 PUSH1 0x5 PUSH0 DUP5 DUP2 MSTORE PUSH1 0x20 ADD SWAP1 DUP2 MSTORE PUSH1 0x20 ADD PUSH0 KECCAK256 PUSH1 0x9 ADD SLOAD SUB PUSH2 0x14E8 JUMPI PUSH1 0x40 MLOAD DUP1 PUSH1 0x20 ADD PUSH1 0x40 MSTORE DUP1 PUSH0 DUP2 MSTORE POP PUSH1 0x5 PUSH0 DUP5 DUP2 MSTORE PUSH1 0x20 ADD SWAP1 DUP2 MSTORE PUSH1 0x20 ADD PUSH0 KECCAK256 PUSH1 0x5 ADD SWAP1 DUP2 PUSH2 0x14E6 SWAP2 SWAP1 PUSH2 0x40B9 JUMP JUMPDEST POP JUMPDEST JUMPDEST JUMPDEST POP POP JUMP JUMPDEST PUSH1 0x7 SLOAD DUP2 JUMP JUMPDEST PUSH1 0x8 PUSH1 0x1 SWAP1 SLOAD SWAP1 PUSH2 0x100 EXP SWAP1 DIV PUSH20 0xFFFFFFFFFFFFFFFFFFFFFFFFFFFFFFFFFFFFFFFF AND PUSH20 0xFFFFFFFFFFFFFFFFFFFFFFFFFFFFFFFFFFFFFFFF AND CALLER PUSH20 0xFFFFFFFFFFFFFFFFFFFFFFFFFFFFFFFFFFFFFFFF AND EQ PUSH2 0x1584 JUMPI PUSH1 0x40 MLOAD PUSH32 0x8C379A000000000000000000000000000000000000000000000000000000000 DUP2 MSTORE PUSH1 0x4 ADD PUSH2 0x157B SWAP1 PUSH2 0x4293 JUMP JUMPDEST PUSH1 0x40 MLOAD DUP1 SWAP2 SUB SWAP1 REVERT JUMPDEST PUSH1 0x40 MLOAD DUP1 PUSH1 0x40 ADD PUSH1 0x40 MSTORE DUP1 PUSH1 0xD DUP2 MSTORE PUSH1 0x20 ADD PUSH32 0x636F6E6669726D55706461746500000000000000000000000000000000000000 DUP2 MSTORE POP PUSH1 0xC DUP2 PUSH1 0x40 MLOAD PUSH2 0x15CA SWAP2 SWAP1 PUSH2 0x4379 JUMP JUMPDEST SWAP1 DUP2 MSTORE PUSH1 0x20 ADD PUSH1 0x40 MLOAD DUP1 SWAP2 SUB SWAP1 KECCAK256 PUSH0 SWAP1 SLOAD SWAP1 PUSH2 0x100 EXP SWAP1 DIV PUSH1 0xFF AND PUSH2 0x1624 JUMPI PUSH1 0x40 MLOAD PUSH32 0x8C379A000000000000000000000000000000000000000000000000000000000 DUP2 MSTORE PUSH1 0x4 ADD PUSH2 0x161B SWAP1 PUSH2 0x43D9 JUMP JUMPDEST PUSH1 0x40 MLOAD DUP1 SWAP2 SUB SWAP1 REVERT JUMPDEST PUSH1 0x4 PUSH1 0x5 PUSH0 DUP5 DUP2 MSTORE PUSH1 0x20 ADD SWAP1 DUP2 MSTORE PUSH1 0x20 ADD PUSH0 KECCAK256 PUSH1 0x9 ADD SLOAD SUB PUSH2 0x167B JUMPI PUSH1 0x40 MLOAD PUSH32 0x8C379A000000000000000000000000000000000000000000000000000000000 DUP2 MSTORE PUSH1 0x4 ADD PUSH2 0x1672 SWAP1 PUSH2 0x47B2 JUMP JUMPDEST PUSH1 0x40 MLOAD DUP1 SWAP2 SUB SWAP1 REVERT JUMPDEST PUSH1 0x1 PUSH1 0x5 PUSH0 DUP5 DUP2 MSTORE PUSH1 0x20 ADD SWAP1 DUP2 MSTORE PUSH1 0x20 ADD PUSH0 KECCAK256 PUSH1 0x9 ADD SLOAD SUB PUSH2 0x16B6 JUMPI PUSH1 0x2 PUSH1 0x5 PUSH0 DUP5 DUP2 MSTORE PUSH1 0x20 ADD SWAP1 DUP2 MSTORE PUSH1 0x20 ADD PUSH0 KECCAK256 PUSH1 0x9 ADD DUP2 SWAP1 SSTORE POP PUSH2 0x172A JUMP JUMPDEST PUSH1 0x2 PUSH1 0x5 PUSH0 DUP5 DUP2 MSTORE PUSH1 0x20 ADD SWAP1 DUP2 MSTORE PUSH1 0x20 ADD PUSH0 KECCAK256 PUSH1 0x9 ADD SLOAD SUB PUSH2 0x16F1 JUMPI PUSH1 0x3 PUSH1 0x5 PUSH0 DUP5 DUP2 MSTORE PUSH1 0x20 ADD SWAP1 DUP2 MSTORE PUSH1 0x20 ADD PUSH0 KECCAK256 PUSH1 0x9 ADD DUP2 SWAP1 SSTORE POP PUSH2 0x1729 JUMP JUMPDEST PUSH1 0x3 PUSH1 0x5 PUSH0 DUP5 DUP2 MSTORE PUSH1 0x20 ADD SWAP1 DUP2 MSTORE PUSH1 0x20 ADD PUSH0 KECCAK256 PUSH1 0x9 ADD SLOAD SUB PUSH2 0x1728 JUMPI PUSH1 0x4 PUSH1 0x5 PUSH0 DUP5 DUP2 MSTORE PUSH1 0x20 ADD SWAP1 DUP2 MSTORE PUSH1 0x20 ADD PUSH0 KECCAK256 PUSH1 0x9 ADD DUP2 SWAP1 SSTORE POP JUMPDEST JUMPDEST JUMPDEST PUSH2 0x3E8 PUSH1 0x5 PUSH0 DUP5 DUP2 MSTORE PUSH1 0x20 ADD SWAP1 DUP2 MSTORE PUSH1 0x20 ADD PUSH0 KECCAK256 PUSH1 0xB ADD PUSH0 DUP3 DUP3 SLOAD PUSH2 0x174F SWAP2 SWAP1 PUSH2 0x47D0 JUMP JUMPDEST SWAP3 POP POP DUP2 SWAP1 SSTORE POP POP POP JUMP JUMPDEST PUSH0 PUSH1 0x7 SLOAD SWAP1 POP SWAP1 JUMP JUMPDEST PUSH2 0xE10 DUP2 JUMP JUMPDEST PUSH0 DUP1 PUSH1 0x1 PUSH0 DUP5 PUSH20 0xFFFFFFFFFFFFFFFFFFFFFFFFFFFFFFFFFFFFFFFF AND PUSH20 0xFFFFFFFFFFFFFFFFFFFFFFFFFFFFFFFFFFFFFFFF AND DUP2 MSTORE PUSH1 0x20 ADD SWAP1 DUP2 MSTORE PUSH1 0x20 ADD PUSH0 KECCAK256 SLOAD SUB PUSH2 0x17B6 JUMPI PUSH0 SWAP1 POP PUSH2 0x1940 JUMP JUMPDEST PUSH0 PUSH1 0x3 PUSH0 DUP5 PUSH20 0xFFFFFFFFFFFFFFFFFFFFFFFFFFFFFFFFFFFFFFFF AND PUSH20 0xFFFFFFFFFFFFFFFFFFFFFFFFFFFFFFFFFFFFFFFF AND DUP2 MSTORE PUSH1 0x20 ADD SWAP1 DUP2 MSTORE PUSH1 0x20 ADD PUSH0 KECCAK256 SLOAD TIMESTAMP PUSH2 0x1800 SWAP2 SWAP1 PUSH2 0x445F JUMP JUMPDEST SWAP1 POP PUSH1 0xC PUSH2 0xE10 PUSH2 0x1811 SWAP2 SWAP1 PUSH2 0x4500 JUMP JUMPDEST DUP2 LT ISZERO PUSH2 0x1821 JUMPI PUSH0 SWAP2 POP POP PUSH2 0x1940 JUMP JUMPDEST PUSH0 DUP1 PUSH1 0xC PUSH2 0xE10 PUSH2 0x1832 SWAP2 SWAP1 PUSH2 0x4500 JUMP JUMPDEST DUP4 PUSH2 0x183D SWAP2 SWAP1 PUSH2 0x4500 JUMP JUMPDEST SWAP1 POP PUSH0 JUMPDEST DUP2 DUP2 LT ISZERO PUSH2 0x191B JUMPI PUSH0 PUSH1 0xC PUSH2 0xE10 PUSH2 0x1859 SWAP2 SWAP1 PUSH2 0x4500 JUMP JUMPDEST DUP3 PUSH2 0x1864 SWAP2 SWAP1 PUSH2 0x4492 JUMP JUMPDEST PUSH1 0x3 PUSH0 DUP10 PUSH20 0xFFFFFFFFFFFFFFFFFFFFFFFFFFFFFFFFFFFFFFFF AND PUSH20 0xFFFFFFFFFFFFFFFFFFFFFFFFFFFFFFFFFFFFFFFF AND DUP2 MSTORE PUSH1 0x20 ADD SWAP1 DUP2 MSTORE PUSH1 0x20 ADD PUSH0 KECCAK256 SLOAD PUSH2 0x18AC SWAP2 SWAP1 PUSH2 0x47D0 JUMP JUMPDEST SWAP1 POP PUSH0 PUSH2 0x18F6 PUSH1 0x1 PUSH0 DUP11 PUSH20 0xFFFFFFFFFFFFFFFFFFFFFFFFFFFFFFFFFFFFFFFF AND PUSH20 0xFFFFFFFFFFFFFFFFFFFFFFFFFFFFFFFFFFFFFFFF AND DUP2 MSTORE PUSH1 0x20 ADD SWAP1 DUP2 MSTORE PUSH1 0x20 ADD PUSH0 KECCAK256 SLOAD DUP4 PUSH2 0xEF2 JUMP JUMPDEST SWAP1 POP DUP1 DUP6 PUSH2 0x1904 SWAP2 SWAP1 PUSH2 0x47D0 JUMP JUMPDEST SWAP5 POP POP POP DUP1 DUP1 PUSH2 0x1913 SWAP1 PUSH2 0x41DC JUMP JUMPDEST SWAP2 POP POP PUSH2 0x1841 JUMP JUMPDEST POP PUSH0 PUSH1 0x64 PUSH1 0x3C DUP5 PUSH2 0x192C SWAP2 SWAP1 PUSH2 0x4492 JUMP JUMPDEST PUSH2 0x1936 SWAP2 SWAP1 PUSH2 0x4500 JUMP JUMPDEST SWAP1 POP DUP1 SWAP5 POP POP POP POP POP JUMPDEST SWAP2 SWAP1 POP JUMP JUMPDEST PUSH1 0xC DUP2 DUP1 MLOAD PUSH1 0x20 DUP2 ADD DUP3 ADD DUP1 MLOAD DUP5 DUP3 MSTORE PUSH1 0x20 DUP4 ADD PUSH1 0x20 DUP6 ADD KECCAK256 DUP2 DUP4 MSTORE DUP1 SWAP6 POP POP POP POP POP POP PUSH0 SWAP2 POP SLOAD SWAP1 PUSH2 0x100 EXP SWAP1 DIV PUSH1 0xFF AND DUP2 JUMP JUMPDEST PUSH1 0x6 SLOAD DUP2 JUMP JUMPDEST PUSH0 DUP1 PUSH0 SWAP1 POP JUMPDEST PUSH1 0x6 SLOAD DUP2 LT ISZERO PUSH2 0x1A45 JUMPI DUP3 PUSH20 0xFFFFFFFFFFFFFFFFFFFFFFFFFFFFFFFFFFFFFFFF AND PUSH1 0x5 PUSH0 DUP4 DUP2 MSTORE PUSH1 0x20 ADD SWAP1 DUP2 MSTORE PUSH1 0x20 ADD PUSH0 KECCAK256 PUSH1 0x8 ADD PUSH0 SWAP1 SLOAD SWAP1 PUSH2 0x100 EXP SWAP1 DIV PUSH20 0xFFFFFFFFFFFFFFFFFFFFFFFFFFFFFFFFFFFFFFFF AND PUSH20 0xFFFFFFFFFFFFFFFFFFFFFFFFFFFFFFFFFFFFFFFF AND EQ DUP1 ISZERO PUSH2 0x1A23 JUMPI POP PUSH0 PUSH1 0x5 DUP2 GT ISZERO PUSH2 0x1A0C JUMPI PUSH2 0x1A0B PUSH2 0x4803 JUMP JUMPDEST JUMPDEST PUSH1 0x5 PUSH0 DUP4 DUP2 MSTORE PUSH1 0x20 ADD SWAP1 DUP2 MSTORE PUSH1 0x20 ADD PUSH0 KECCAK256 PUSH1 0x9 ADD SLOAD EQ JUMPDEST ISZERO PUSH2 0x1A32 JUMPI PUSH1 0x1 SWAP2 POP POP PUSH2 0x1A4A JUMP JUMPDEST DUP1 DUP1 PUSH2 0x1A3D SWAP1 PUSH2 0x41DC JUMP JUMPDEST SWAP2 POP POP PUSH2 0x1986 JUMP JUMPDEST POP PUSH0 SWAP1 POP JUMPDEST SWAP2 SWAP1 POP JUMP JUMPDEST PUSH2 0x1A57 PUSH2 0x31E6 JUMP JUMPDEST PUSH0 DUP2 GT PUSH2 0x1A99 JUMPI PUSH1 0x40 MLOAD PUSH32 0x8C379A000000000000000000000000000000000000000000000000000000000 DUP2 MSTORE PUSH1 0x4 ADD PUSH2 0x1A90 SWAP1 PUSH2 0x487A JUMP JUMPDEST PUSH1 0x40 MLOAD DUP1 SWAP2 SUB SWAP1 REVERT JUMPDEST DUP1 PUSH1 0x2 PUSH0 CALLER PUSH20 0xFFFFFFFFFFFFFFFFFFFFFFFFFFFFFFFFFFFFFFFF AND PUSH20 0xFFFFFFFFFFFFFFFFFFFFFFFFFFFFFFFFFFFFFFFF AND DUP2 MSTORE PUSH1 0x20 ADD SWAP1 DUP2 MSTORE PUSH1 0x20 ADD PUSH0 KECCAK256 SLOAD LT ISZERO PUSH2 0x1B19 JUMPI PUSH1 0x40 MLOAD PUSH32 0x8C379A000000000000000000000000000000000000000000000000000000000 DUP2 MSTORE PUSH1 0x4 ADD PUSH2 0x1B10 SWAP1 PUSH2 0x48E2 JUMP JUMPDEST PUSH1 0x40 MLOAD DUP1 SWAP2 SUB SWAP1 REVERT JUMPDEST DUP1 PUSH1 0x2 PUSH0 CALLER PUSH20 0xFFFFFFFFFFFFFFFFFFFFFFFFFFFFFFFFFFFFFFFF AND PUSH20 0xFFFFFFFFFFFFFFFFFFFFFFFFFFFFFFFFFFFFFFFF AND DUP2 MSTORE PUSH1 0x20 ADD SWAP1 DUP2 MSTORE PUSH1 0x20 ADD PUSH0 KECCAK256 PUSH0 DUP3 DUP3 SLOAD PUSH2 0x1B65 SWAP2 SWAP1 PUSH2 0x445F JUMP JUMPDEST SWAP3 POP POP DUP2 SWAP1 SSTORE POP DUP1 PUSH1 0x5 PUSH0 DUP5 DUP2 MSTORE PUSH1 0x20 ADD SWAP1 DUP2 MSTORE PUSH1 0x20 ADD PUSH0 KECCAK256 PUSH1 0xB ADD PUSH0 DUP3 DUP3 SLOAD PUSH2 0x1B8F SWAP2 SWAP1 PUSH2 0x47D0 JUMP JUMPDEST SWAP3 POP POP DUP2 SWAP1 SSTORE POP PUSH2 0x1B9E PUSH2 0x32B5 JUMP JUMPDEST POP POP JUMP JUMPDEST PUSH2 0x1BAA PUSH2 0x31E6 JUMP JUMPDEST PUSH1 0x8 PUSH0 SWAP1 SLOAD SWAP1 PUSH2 0x100 EXP SWAP1 DIV PUSH1 0xFF AND PUSH2 0x1BF8 JUMPI PUSH1 0x40 MLOAD PUSH32 0x8C379A000000000000000000000000000000000000000000000000000000000 DUP2 MSTORE PUSH1 0x4 ADD PUSH2 0x1BEF SWAP1 PUSH2 0x494A JUMP JUMPDEST PUSH1 0x40 MLOAD DUP1 SWAP2 SUB SWAP1 REVERT JUMPDEST PUSH3 0xF4240 DUP2 LT ISZERO PUSH2 0x1C3E JUMPI PUSH1 0x40 MLOAD PUSH32 0x8C379A000000000000000000000000000000000000000000000000000000000 DUP2 MSTORE PUSH1 0x4 ADD PUSH2 0x1C35 SWAP1 PUSH2 0x49B2 JUMP JUMPDEST PUSH1 0x40 MLOAD DUP1 SWAP2 SUB SWAP1 REVERT JUMPDEST PUSH2 0x1C8C CALLER ADDRESS DUP4 PUSH1 0xB PUSH0 SWAP1 SLOAD SWAP1 PUSH2 0x100 EXP SWAP1 DIV PUSH20 0xFFFFFFFFFFFFFFFFFFFFFFFFFFFFFFFFFFFFFFFF AND PUSH20 0xFFFFFFFFFFFFFFFFFFFFFFFFFFFFFFFFFFFFFFFF AND PUSH2 0x3233 SWAP1 SWAP4 SWAP3 SWAP2 SWAP1 PUSH4 0xFFFFFFFF AND JUMP JUMPDEST DUP1 PUSH1 0x1 PUSH0 CALLER PUSH20 0xFFFFFFFFFFFFFFFFFFFFFFFFFFFFFFFFFFFFFFFF AND PUSH20 0xFFFFFFFFFFFFFFFFFFFFFFFFFFFFFFFFFFFFFFFF AND DUP2 MSTORE PUSH1 0x20 ADD SWAP1 DUP2 MSTORE PUSH1 0x20 ADD PUSH0 KECCAK256 PUSH0 DUP3 DUP3 SLOAD PUSH2 0x1CD8 SWAP2 SWAP1 PUSH2 0x47D0 JUMP JUMPDEST SWAP3 POP POP DUP2 SWAP1 SSTORE POP DUP1 PUSH1 0x7 PUSH0 DUP3 DUP3 SLOAD PUSH2 0x1CF0 SWAP2 SWAP1 PUSH2 0x47D0 JUMP JUMPDEST SWAP3 POP POP DUP2 SWAP1 SSTORE POP PUSH0 PUSH1 0x3 PUSH0 CALLER PUSH20 0xFFFFFFFFFFFFFFFFFFFFFFFFFFFFFFFFFFFFFFFF AND PUSH20 0xFFFFFFFFFFFFFFFFFFFFFFFFFFFFFFFFFFFFFFFF AND DUP2 MSTORE PUSH1 0x20 ADD SWAP1 DUP2 MSTORE PUSH1 0x20 ADD PUSH0 KECCAK256 SLOAD SUB PUSH2 0x1D7E JUMPI TIMESTAMP PUSH1 0x4 PUSH0 CALLER PUSH20 0xFFFFFFFFFFFFFFFFFFFFFFFFFFFFFFFFFFFFFFFF AND PUSH20 0xFFFFFFFFFFFFFFFFFFFFFFFFFFFFFFFFFFFFFFFF AND DUP2 MSTORE PUSH1 0x20 ADD SWAP1 DUP2 MSTORE PUSH1 0x20 ADD PUSH0 KECCAK256 DUP2 SWAP1 SSTORE POP JUMPDEST TIMESTAMP PUSH1 0x3 PUSH0 CALLER PUSH20 0xFFFFFFFFFFFFFFFFFFFFFFFFFFFFFFFFFFFFFFFF AND PUSH20 0xFFFFFFFFFFFFFFFFFFFFFFFFFFFFFFFFFFFFFFFF AND DUP2 MSTORE PUSH1 0x20 ADD SWAP1 DUP2 MSTORE PUSH1 0x20 ADD PUSH0 KECCAK256 DUP2 SWAP1 SSTORE POP PUSH2 0x1DC8 PUSH2 0x32B5 JUMP JUMPDEST POP JUMP JUMPDEST PUSH3 0xF4240 DUP2 JUMP JUMPDEST PUSH1 0xA PUSH0 SWAP1 SLOAD SWAP1 PUSH2 0x100 EXP SWAP1 DIV PUSH20 0xFFFFFFFFFFFFFFFFFFFFFFFFFFFFFFFFFFFFFFFF AND DUP2 JUMP JUMPDEST PUSH1 0xA PUSH0 SWAP1 SLOAD SWAP1 PUSH2 0x100 EXP SWAP1 DIV PUSH20 0xFFFFFFFFFFFFFFFFFFFFFFFFFFFFFFFFFFFFFFFF AND PUSH20 0xFFFFFFFFFFFFFFFFFFFFFFFFFFFFFFFFFFFFFFFF AND CALLER PUSH20 0xFFFFFFFFFFFFFFFFFFFFFFFFFFFFFFFFFFFFFFFF AND EQ PUSH2 0x1E86 JUMPI PUSH1 0x40 MLOAD PUSH32 0x8C379A000000000000000000000000000000000000000000000000000000000 DUP2 MSTORE PUSH1 0x4 ADD PUSH2 0x1E7D SWAP1 PUSH2 0x4A40 JUMP JUMPDEST PUSH1 0x40 MLOAD DUP1 SWAP2 SUB SWAP1 REVERT JUMPDEST PUSH1 0x40 MLOAD DUP1 PUSH1 0x40 ADD PUSH1 0x40 MSTORE DUP1 PUSH1 0xB DUP2 MSTORE PUSH1 0x20 ADD PUSH32 0x6368616E676541646D696E000000000000000000000000000000000000000000 DUP2 MSTORE POP PUSH1 0xC DUP2 PUSH1 0x40 MLOAD PUSH2 0x1ECC SWAP2 SWAP1 PUSH2 0x4379 JUMP JUMPDEST SWAP1 DUP2 MSTORE PUSH1 0x20 ADD PUSH1 0x40 MLOAD DUP1 SWAP2 SUB SWAP1 KECCAK256 PUSH0 SWAP1 SLOAD SWAP1 PUSH2 0x100 EXP SWAP1 DIV PUSH1 0xFF AND PUSH2 0x1F26 JUMPI PUSH1 0x40 MLOAD PUSH32 0x8C379A000000000000000000000000000000000000000000000000000000000 DUP2 MSTORE PUSH1 0x4 ADD PUSH2 0x1F1D SWAP1 PUSH2 0x43D9 JUMP JUMPDEST PUSH1 0x40 MLOAD DUP1 SWAP2 SUB SWAP1 REVERT JUMPDEST PUSH0 PUSH20 0xFFFFFFFFFFFFFFFFFFFFFFFFFFFFFFFFFFFFFFFF AND DUP3 PUSH20 0xFFFFFFFFFFFFFFFFFFFFFFFFFFFFFFFFFFFFFFFF AND SUB PUSH2 0x1F94 JUMPI PUSH1 0x40 MLOAD PUSH32 0x8C379A000000000000000000000000000000000000000000000000000000000 DUP2 MSTORE PUSH1 0x4 ADD PUSH2 0x1F8B SWAP1 PUSH2 0x4AA8 JUMP JUMPDEST PUSH1 0x40 MLOAD DUP1 SWAP2 SUB SWAP1 REVERT JUMPDEST DUP2 PUSH1 0x8 PUSH1 0x1 PUSH2 0x100 EXP DUP2 SLOAD DUP2 PUSH20 0xFFFFFFFFFFFFFFFFFFFFFFFFFFFFFFFFFFFFFFFF MUL NOT AND SWAP1 DUP4 PUSH20 0xFFFFFFFFFFFFFFFFFFFFFFFFFFFFFFFFFFFFFFFF AND MUL OR SWAP1 SSTORE POP POP POP JUMP JUMPDEST PUSH1 0x8 PUSH1 0x1 SWAP1 SLOAD SWAP1 PUSH2 0x100 EXP SWAP1 DIV PUSH20 0xFFFFFFFFFFFFFFFFFFFFFFFFFFFFFFFFFFFFFFFF AND PUSH20 0xFFFFFFFFFFFFFFFFFFFFFFFFFFFFFFFFFFFFFFFF AND CALLER PUSH20 0xFFFFFFFFFFFFFFFFFFFFFFFFFFFFFFFFFFFFFFFF AND EQ PUSH2 0x2069 JUMPI PUSH1 0x40 MLOAD PUSH32 0x8C379A000000000000000000000000000000000000000000000000000000000 DUP2 MSTORE PUSH1 0x4 ADD PUSH2 0x2060 SWAP1 PUSH2 0x4293 JUMP JUMPDEST PUSH1 0x40 MLOAD DUP1 SWAP2 SUB SWAP1 REVERT JUMPDEST PUSH1 0x8 PUSH0 SWAP1 SLOAD SWAP1 PUSH2 0x100 EXP SWAP1 DIV PUSH1 0xFF AND ISZERO PUSH1 0x8 PUSH0 PUSH2 0x100 EXP DUP2 SLOAD DUP2 PUSH1 0xFF MUL NOT AND SWAP1 DUP4 ISZERO ISZERO MUL OR SWAP1 SSTORE POP JUMP JUMPDEST PUSH1 0x8 PUSH1 0x1 SWAP1 SLOAD SWAP1 PUSH2 0x100 EXP SWAP1 DIV PUSH20 0xFFFFFFFFFFFFFFFFFFFFFFFFFFFFFFFFFFFFFFFF AND PUSH20 0xFFFFFFFFFFFFFFFFFFFFFFFFFFFFFFFFFFFFFFFF AND CALLER PUSH20 0xFFFFFFFFFFFFFFFFFFFFFFFFFFFFFFFFFFFFFFFF AND EQ PUSH2 0x2123 JUMPI PUSH1 0x40 MLOAD PUSH32 0x8C379A000000000000000000000000000000000000000000000000000000000 DUP2 MSTORE PUSH1 0x4 ADD PUSH2 0x211A SWAP1 PUSH2 0x4293 JUMP JUMPDEST PUSH1 0x40 MLOAD DUP1 SWAP2 SUB SWAP1 REVERT JUMPDEST PUSH1 0x40 MLOAD DUP1 PUSH1 0x40 ADD PUSH1 0x40 MSTORE DUP1 PUSH1 0xD DUP2 MSTORE PUSH1 0x20 ADD PUSH32 0x72656D6F7665456C656D656E7400000000000000000000000000000000000000 DUP2 MSTORE POP PUSH1 0xC DUP2 PUSH1 0x40 MLOAD PUSH2 0x2169 SWAP2 SWAP1 PUSH2 0x4379 JUMP JUMPDEST SWAP1 DUP2 MSTORE PUSH1 0x20 ADD PUSH1 0x40 MLOAD DUP1 SWAP2 SUB SWAP1 KECCAK256 PUSH0 SWAP1 SLOAD SWAP1 PUSH2 0x100 EXP SWAP1 DIV PUSH1 0xFF AND PUSH2 0x21C3 JUMPI PUSH1 0x40 MLOAD PUSH32 0x8C379A000000000000000000000000000000000000000000000000000000000 DUP2 MSTORE PUSH1 0x4 ADD PUSH2 0x21BA SWAP1 PUSH2 0x43D9 JUMP JUMPDEST PUSH1 0x40 MLOAD DUP1 SWAP2 SUB SWAP1 REVERT JUMPDEST PUSH1 0x5 DUP1 PUSH0 DUP5 DUP2 MSTORE PUSH1 0x20 ADD SWAP1 DUP2 MSTORE PUSH1 0x20 ADD PUSH0 KECCAK256 PUSH1 0x9 ADD DUP2 SWAP1 SSTORE POP PUSH32 0xCEC9CDFF740B6D842DF3489C0DCAFE7E1592ACFCDAE1E8E5DAED0378935144AA DUP3 PUSH1 0x40 MLOAD PUSH2 0x220B SWAP2 SWAP1 PUSH2 0x37E5 JUMP JUMPDEST PUSH1 0x40 MLOAD DUP1 SWAP2 SUB SWAP1 LOG1 POP POP JUMP JUMPDEST CALLER PUSH20 0xFFFFFFFFFFFFFFFFFFFFFFFFFFFFFFFFFFFFFFFF AND PUSH1 0x5 PUSH0 DUP5 DUP2 MSTORE PUSH1 0x20 ADD SWAP1 DUP2 MSTORE PUSH1 0x20 ADD PUSH0 KECCAK256 PUSH1 0x8 ADD PUSH0 SWAP1 SLOAD SWAP1 PUSH2 0x100 EXP SWAP1 DIV PUSH20 0xFFFFFFFFFFFFFFFFFFFFFFFFFFFFFFFFFFFFFFFF AND PUSH20 0xFFFFFFFFFFFFFFFFFFFFFFFFFFFFFFFFFFFFFFFF AND EQ PUSH2 0x22B8 JUMPI PUSH1 0x40 MLOAD PUSH32 0x8C379A000000000000000000000000000000000000000000000000000000000 DUP2 MSTORE PUSH1 0x4 ADD PUSH2 0x22AF SWAP1 PUSH2 0x4B10 JUMP JUMPDEST PUSH1 0x40 MLOAD DUP1 SWAP2 SUB SWAP1 REVERT JUMPDEST DUP1 PUSH1 0x5 PUSH0 DUP5 DUP2 MSTORE PUSH1 0x20 ADD SWAP1 DUP2 MSTORE PUSH1 0x20 ADD PUSH0 KECCAK256 PUSH1 0x4 ADD SWAP1 DUP2 PUSH2 0x22D9 SWAP2 SWAP1 PUSH2 0x40B9 JUMP JUMPDEST POP TIMESTAMP PUSH1 0x5 PUSH0 DUP5 DUP2 MSTORE PUSH1 0x20 ADD SWAP1 DUP2 MSTORE PUSH1 0x20 ADD PUSH0 KECCAK256 PUSH1 0xA ADD DUP2 SWAP1 SSTORE POP POP POP JUMP JUMPDEST CALLER PUSH20 0xFFFFFFFFFFFFFFFFFFFFFFFFFFFFFFFFFFFFFFFF AND PUSH1 0x5 PUSH0 DUP5 DUP2 MSTORE PUSH1 0x20 ADD SWAP1 DUP2 MSTORE PUSH1 0x20 ADD PUSH0 KECCAK256 PUSH1 0x8 ADD PUSH0 SWAP1 SLOAD SWAP1 PUSH2 0x100 EXP SWAP1 DIV PUSH20 0xFFFFFFFFFFFFFFFFFFFFFFFFFFFFFFFFFFFFFFFF AND PUSH20 0xFFFFFFFFFFFFFFFFFFFFFFFFFFFFFFFFFFFFFFFF AND EQ PUSH2 0x2398 JUMPI PUSH1 0x40 MLOAD PUSH32 0x8C379A000000000000000000000000000000000000000000000000000000000 DUP2 MSTORE PUSH1 0x4 ADD PUSH2 0x238F SWAP1 PUSH2 0x4B10 JUMP JUMPDEST PUSH1 0x40 MLOAD DUP1 SWAP2 SUB SWAP1 REVERT JUMPDEST DUP1 PUSH1 0x5 PUSH0 DUP5 DUP2 MSTORE PUSH1 0x20 ADD SWAP1 DUP2 MSTORE PUSH1 0x20 ADD PUSH0 KECCAK256 PUSH1 0x3 ADD SWAP1 DUP2 PUSH2 0x23B9 SWAP2 SWAP1 PUSH2 0x40B9 JUMP JUMPDEST POP TIMESTAMP PUSH1 0x5 PUSH0 DUP5 DUP2 MSTORE PUSH1 0x20 ADD SWAP1 DUP2 MSTORE PUSH1 0x20 ADD PUSH0 KECCAK256 PUSH1 0xA ADD DUP2 SWAP1 SSTORE POP POP POP JUMP JUMPDEST PUSH1 0x2 PUSH1 0x20 MSTORE DUP1 PUSH0 MSTORE PUSH1 0x40 PUSH0 KECCAK256 PUSH0 SWAP2 POP SWAP1 POP SLOAD DUP2 JUMP JUMPDEST PUSH5 0x2540BE400 DUP2 JUMP JUMPDEST CALLER PUSH20 0xFFFFFFFFFFFFFFFFFFFFFFFFFFFFFFFFFFFFFFFF AND PUSH1 0x5 PUSH0 DUP5 DUP2 MSTORE PUSH1 0x20 ADD SWAP1 DUP2 MSTORE PUSH1 0x20 ADD PUSH0 KECCAK256 PUSH1 0x8 ADD PUSH0 SWAP1 SLOAD SWAP1 PUSH2 0x100 EXP SWAP1 DIV PUSH20 0xFFFFFFFFFFFFFFFFFFFFFFFFFFFFFFFFFFFFFFFF AND PUSH20 0xFFFFFFFFFFFFFFFFFFFFFFFFFFFFFFFFFFFFFFFF AND EQ PUSH2 0x2496 JUMPI PUSH1 0x40 MLOAD PUSH32 0x8C379A000000000000000000000000000000000000000000000000000000000 DUP2 MSTORE PUSH1 0x4 ADD PUSH2 0x248D SWAP1 PUSH2 0x4B10 JUMP JUMPDEST PUSH1 0x40 MLOAD DUP1 SWAP2 SUB SWAP1 REVERT JUMPDEST DUP1 PUSH1 0x5 PUSH0 DUP5 DUP2 MSTORE PUSH1 0x20 ADD SWAP1 DUP2 MSTORE PUSH1 0x20 ADD PUSH0 KECCAK256 PUSH1 0x5 ADD SWAP1 DUP2 PUSH2 0x24B7 SWAP2 SWAP1 PUSH2 0x40B9 JUMP JUMPDEST POP TIMESTAMP PUSH1 0x5 PUSH0 DUP5 DUP2 MSTORE PUSH1 0x20 ADD SWAP1 DUP2 MSTORE PUSH1 0x20 ADD PUSH0 KECCAK256 PUSH1 0xA ADD DUP2 SWAP1 SSTORE POP POP POP JUMP JUMPDEST PUSH1 0x8 PUSH1 0x1 SWAP1 SLOAD SWAP1 PUSH2 0x100 EXP SWAP1 DIV PUSH20 0xFFFFFFFFFFFFFFFFFFFFFFFFFFFFFFFFFFFFFFFF AND PUSH20 0xFFFFFFFFFFFFFFFFFFFFFFFFFFFFFFFFFFFFFFFF AND CALLER PUSH20 0xFFFFFFFFFFFFFFFFFFFFFFFFFFFFFFFFFFFFFFFF AND EQ PUSH2 0x2565 JUMPI PUSH1 0x40 MLOAD PUSH32 0x8C379A000000000000000000000000000000000000000000000000000000000 DUP2 MSTORE PUSH1 0x4 ADD PUSH2 0x255C SWAP1 PUSH2 0x4293 JUMP JUMPDEST PUSH1 0x40 MLOAD DUP1 SWAP2 SUB SWAP1 REVERT JUMPDEST PUSH1 0x40 MLOAD DUP1 PUSH1 0x40 ADD PUSH1 0x40 MSTORE DUP1 PUSH1 0xE DUP2 MSTORE PUSH1 0x20 ADD PUSH32 0x617070726F7665456C656D656E74000000000000000000000000000000000000 DUP2 MSTORE POP PUSH1 0xC DUP2 PUSH1 0x40 MLOAD PUSH2 0x25AB SWAP2 SWAP1 PUSH2 0x4379 JUMP JUMPDEST SWAP1 DUP2 MSTORE PUSH1 0x20 ADD PUSH1 0x40 MLOAD DUP1 SWAP2 SUB SWAP1 KECCAK256 PUSH0 SWAP1 SLOAD SWAP1 PUSH2 0x100 EXP SWAP1 DIV PUSH1 0xFF AND PUSH2 0x2605 JUMPI PUSH1 0x40 MLOAD PUSH32 0x8C379A000000000000000000000000000000000000000000000000000000000 DUP2 MSTORE PUSH1 0x4 ADD PUSH2 0x25FC SWAP1 PUSH2 0x43D9 JUMP JUMPDEST PUSH1 0x40 MLOAD DUP1 SWAP2 SUB SWAP1 REVERT JUMPDEST PUSH0 PUSH1 0x5 PUSH0 DUP5 DUP2 MSTORE PUSH1 0x20 ADD SWAP1 DUP2 MSTORE PUSH1 0x20 ADD PUSH0 KECCAK256 PUSH1 0x9 ADD SLOAD EQ PUSH2 0x265B JUMPI PUSH1 0x40 MLOAD PUSH32 0x8C379A000000000000000000000000000000000000000000000000000000000 DUP2 MSTORE PUSH1 0x4 ADD PUSH2 0x2652 SWAP1 PUSH2 0x4441 JUMP JUMPDEST PUSH1 0x40 MLOAD DUP1 SWAP2 SUB SWAP1 REVERT JUMPDEST PUSH1 0x1 PUSH1 0x5 PUSH0 DUP5 DUP2 MSTORE PUSH1 0x20 ADD SWAP1 DUP2 MSTORE PUSH1 0x20 ADD PUSH0 KECCAK256 PUSH1 0x9 ADD DUP2 SWAP1 SSTORE POP PUSH32 0x95FCCD35767ACD458FA3AB76976172CDEFE7357A3CF51BC50B93C41C53984C1D DUP3 PUSH1 0x40 MLOAD PUSH2 0x26A4 SWAP2 SWAP1 PUSH2 0x37E5 JUMP JUMPDEST PUSH1 0x40 MLOAD DUP1 SWAP2 SUB SWAP1 LOG1 POP POP JUMP JUMPDEST PUSH0 PUSH1 0x3 PUSH0 DUP4 PUSH20 0xFFFFFFFFFFFFFFFFFFFFFFFFFFFFFFFFFFFFFFFF AND PUSH20 0xFFFFFFFFFFFFFFFFFFFFFFFFFFFFFFFFFFFFFFFF AND DUP2 MSTORE PUSH1 0x20 ADD SWAP1 DUP2 MSTORE PUSH1 0x20 ADD PUSH0 KECCAK256 SLOAD SWAP1 POP SWAP2 SWAP1 POP JUMP JUMPDEST PUSH2 0x26FE PUSH2 0x31E6 JUMP JUMPDEST PUSH0 PUSH1 0x1 PUSH0 CALLER PUSH20 0xFFFFFFFFFFFFFFFFFFFFFFFFFFFFFFFFFFFFFFFF AND PUSH20 0xFFFFFFFFFFFFFFFFFFFFFFFFFFFFFFFFFFFFFFFF AND DUP2 MSTORE PUSH1 0x20 ADD SWAP1 DUP2 MSTORE PUSH1 0x20 ADD PUSH0 KECCAK256 SLOAD GT PUSH2 0x277D JUMPI PUSH1 0x40 MLOAD PUSH32 0x8C379A000000000000000000000000000000000000000000000000000000000 DUP2 MSTORE PUSH1 0x4 ADD PUSH2 0x2774 SWAP1 PUSH2 0x4B78 JUMP JUMPDEST PUSH1 0x40 MLOAD DUP1 SWAP2 SUB SWAP1 REVERT JUMPDEST PUSH0 PUSH1 0x3 PUSH0 CALLER PUSH20 0xFFFFFFFFFFFFFFFFFFFFFFFFFFFFFFFFFFFFFFFF AND PUSH20 0xFFFFFFFFFFFFFFFFFFFFFFFFFFFFFFFFFFFFFFFF AND DUP2 MSTORE PUSH1 0x20 ADD SWAP1 DUP2 MSTORE PUSH1 0x20 ADD PUSH0 KECCAK256 SLOAD TIMESTAMP PUSH2 0x27C7 SWAP2 SWAP1 PUSH2 0x445F JUMP JUMPDEST SWAP1 POP PUSH1 0xC PUSH2 0xE10 PUSH2 0x27D8 SWAP2 SWAP1 PUSH2 0x4500 JUMP JUMPDEST DUP2 LT ISZERO PUSH2 0x281A JUMPI PUSH1 0x40 MLOAD PUSH32 0x8C379A000000000000000000000000000000000000000000000000000000000 DUP2 MSTORE PUSH1 0x4 ADD PUSH2 0x2811 SWAP1 PUSH2 0x4BE0 JUMP JUMPDEST PUSH1 0x40 MLOAD DUP1 SWAP2 SUB SWAP1 REVERT JUMPDEST PUSH0 DUP1 PUSH1 0xC PUSH2 0xE10 PUSH2 0x282B SWAP2 SWAP1 PUSH2 0x4500 JUMP JUMPDEST DUP4 PUSH2 0x2836 SWAP2 SWAP1 PUSH2 0x4500 JUMP JUMPDEST SWAP1 POP PUSH0 JUMPDEST DUP2 DUP2 LT ISZERO PUSH2 0x2914 JUMPI PUSH0 PUSH1 0xC PUSH2 0xE10 PUSH2 0x2852 SWAP2 SWAP1 PUSH2 0x4500 JUMP JUMPDEST DUP3 PUSH2 0x285D SWAP2 SWAP1 PUSH2 0x4492 JUMP JUMPDEST PUSH1 0x3 PUSH0 CALLER PUSH20 0xFFFFFFFFFFFFFFFFFFFFFFFFFFFFFFFFFFFFFFFF AND PUSH20 0xFFFFFFFFFFFFFFFFFFFFFFFFFFFFFFFFFFFFFFFF AND DUP2 MSTORE PUSH1 0x20 ADD SWAP1 DUP2 MSTORE PUSH1 0x20 ADD PUSH0 KECCAK256 SLOAD PUSH2 0x28A5 SWAP2 SWAP1 PUSH2 0x47D0 JUMP JUMPDEST SWAP1 POP PUSH0 PUSH2 0x28EF PUSH1 0x1 PUSH0 CALLER PUSH20 0xFFFFFFFFFFFFFFFFFFFFFFFFFFFFFFFFFFFFFFFF AND PUSH20 0xFFFFFFFFFFFFFFFFFFFFFFFFFFFFFFFFFFFFFFFF AND DUP2 MSTORE PUSH1 0x20 ADD SWAP1 DUP2 MSTORE PUSH1 0x20 ADD PUSH0 KECCAK256 SLOAD DUP4 PUSH2 0xEF2 JUMP JUMPDEST SWAP1 POP DUP1 DUP6 PUSH2 0x28FD SWAP2 SWAP1 PUSH2 0x47D0 JUMP JUMPDEST SWAP5 POP POP POP DUP1 DUP1 PUSH2 0x290C SWAP1 PUSH2 0x41DC JUMP JUMPDEST SWAP2 POP POP PUSH2 0x283A JUMP JUMPDEST POP PUSH0 PUSH1 0x64 PUSH1 0x3C DUP5 PUSH2 0x2925 SWAP2 SWAP1 PUSH2 0x4492 JUMP JUMPDEST PUSH2 0x292F SWAP2 SWAP1 PUSH2 0x4500 JUMP JUMPDEST SWAP1 POP PUSH0 PUSH1 0x64 PUSH1 0x28 DUP6 PUSH2 0x2941 SWAP2 SWAP1 PUSH2 0x4492 JUMP JUMPDEST PUSH2 0x294B SWAP2 SWAP1 PUSH2 0x4500 JUMP JUMPDEST SWAP1 POP PUSH3 0x989680 DUP3 PUSH2 0x295C SWAP2 SWAP1 PUSH2 0x4500 JUMP JUMPDEST PUSH1 0x2 PUSH0 CALLER PUSH20 0xFFFFFFFFFFFFFFFFFFFFFFFFFFFFFFFFFFFFFFFF AND PUSH20 0xFFFFFFFFFFFFFFFFFFFFFFFFFFFFFFFFFFFFFFFF AND DUP2 MSTORE PUSH1 0x20 ADD SWAP1 DUP2 MSTORE PUSH1 0x20 ADD PUSH0 KECCAK256 PUSH0 DUP3 DUP3 SLOAD PUSH2 0x29A7 SWAP2 SWAP1 PUSH2 0x47D0 JUMP JUMPDEST SWAP3 POP POP DUP2 SWAP1 SSTORE POP TIMESTAMP PUSH1 0x3 PUSH0 CALLER PUSH20 0xFFFFFFFFFFFFFFFFFFFFFFFFFFFFFFFFFFFFFFFF AND PUSH20 0xFFFFFFFFFFFFFFFFFFFFFFFFFFFFFFFFFFFFFFFF AND DUP2 MSTORE PUSH1 0x20 ADD SWAP1 DUP2 MSTORE PUSH1 0x20 ADD PUSH0 KECCAK256 DUP2 SWAP1 SSTORE POP PUSH2 0x2A3C CALLER DUP4 PUSH1 0xB PUSH0 SWAP1 SLOAD SWAP1 PUSH2 0x100 EXP SWAP1 DIV PUSH20 0xFFFFFFFFFFFFFFFFFFFFFFFFFFFFFFFFFFFFFFFF AND PUSH20 0xFFFFFFFFFFFFFFFFFFFFFFFFFFFFFFFFFFFFFFFF AND PUSH2 0x32BE SWAP1 SWAP3 SWAP2 SWAP1 PUSH4 0xFFFFFFFF AND JUMP JUMPDEST PUSH2 0x2A45 DUP2 PUSH2 0x333D JUMP JUMPDEST POP POP POP POP POP PUSH2 0x2A52 PUSH2 0x32B5 JUMP JUMPDEST JUMP JUMPDEST PUSH0 PUSH1 0xB PUSH0 SWAP1 SLOAD SWAP1 PUSH2 0x100 EXP SWAP1 DIV PUSH20 0xFFFFFFFFFFFFFFFFFFFFFFFFFFFFFFFFFFFFFFFF AND PUSH20 0xFFFFFFFFFFFFFFFFFFFFFFFFFFFFFFFFFFFFFFFF AND PUSH4 0x70A08231 ADDRESS PUSH1 0x40 MLOAD DUP3 PUSH4 0xFFFFFFFF AND PUSH1 0xE0 SHL DUP2 MSTORE PUSH1 0x4 ADD PUSH2 0x2AAF SWAP2 SWAP1 PUSH2 0x3B44 JUMP JUMPDEST PUSH1 0x20 PUSH1 0x40 MLOAD DUP1 DUP4 SUB DUP2 DUP7 GAS STATICCALL ISZERO DUP1 ISZERO PUSH2 0x2ACA JUMPI RETURNDATASIZE PUSH0 DUP1 RETURNDATACOPY RETURNDATASIZE PUSH0 REVERT JUMPDEST POP POP POP POP PUSH1 0x40 MLOAD RETURNDATASIZE PUSH1 0x1F NOT PUSH1 0x1F DUP3 ADD AND DUP3 ADD DUP1 PUSH1 0x40 MSTORE POP DUP2 ADD SWAP1 PUSH2 0x2AEE SWAP2 SWAP1 PUSH2 0x3E0F JUMP JUMPDEST SWAP1 POP SWAP1 JUMP JUMPDEST PUSH1 0xA PUSH0 SWAP1 SLOAD SWAP1 PUSH2 0x100 EXP SWAP1 DIV PUSH20 0xFFFFFFFFFFFFFFFFFFFFFFFFFFFFFFFFFFFFFFFF AND PUSH20 0xFFFFFFFFFFFFFFFFFFFFFFFFFFFFFFFFFFFFFFFF AND CALLER PUSH20 0xFFFFFFFFFFFFFFFFFFFFFFFFFFFFFFFFFFFFFFFF AND EQ PUSH2 0x2B82 JUMPI PUSH1 0x40 MLOAD PUSH32 0x8C379A000000000000000000000000000000000000000000000000000000000 DUP2 MSTORE PUSH1 0x4 ADD PUSH2 0x2B79 SWAP1 PUSH2 0x4A40 JUMP JUMPDEST PUSH1 0x40 MLOAD DUP1 SWAP2 SUB SWAP1 REVERT JUMPDEST PUSH1 0x40 MLOAD DUP1 PUSH1 0x40 ADD PUSH1 0x40 MSTORE DUP1 PUSH1 0x11 DUP2 MSTORE PUSH1 0x20 ADD PUSH32 0x6368616E67655365636F6E6441646D696E000000000000000000000000000000 DUP2 MSTORE POP PUSH1 0xC DUP2 PUSH1 0x40 MLOAD PUSH2 0x2BC8 SWAP2 SWAP1 PUSH2 0x4379 JUMP JUMPDEST SWAP1 DUP2 MSTORE PUSH1 0x20 ADD PUSH1 0x40 MLOAD DUP1 SWAP2 SUB SWAP1 KECCAK256 PUSH0 SWAP1 SLOAD SWAP1 PUSH2 0x100 EXP SWAP1 DIV PUSH1 0xFF AND PUSH2 0x2C22 JUMPI PUSH1 0x40 MLOAD PUSH32 0x8C379A000000000000000000000000000000000000000000000000000000000 DUP2 MSTORE PUSH1 0x4 ADD PUSH2 0x2C19 SWAP1 PUSH2 0x43D9 JUMP JUMPDEST PUSH1 0x40 MLOAD DUP1 SWAP2 SUB SWAP1 REVERT JUMPDEST PUSH0 PUSH20 0xFFFFFFFFFFFFFFFFFFFFFFFFFFFFFFFFFFFFFFFF AND DUP3 PUSH20 0xFFFFFFFFFFFFFFFFFFFFFFFFFFFFFFFFFFFFFFFF AND SUB PUSH2 0x2C90 JUMPI PUSH1 0x40 MLOAD PUSH32 0x8C379A000000000000000000000000000000000000000000000000000000000 DUP2 MSTORE PUSH1 0x4 ADD PUSH2 0x2C87 SWAP1 PUSH2 0x4C6E JUMP JUMPDEST PUSH1 0x40 MLOAD DUP1 SWAP2 SUB SWAP1 REVERT JUMPDEST DUP2 PUSH1 0x9 PUSH0 PUSH2 0x100 EXP DUP2 SLOAD DUP2 PUSH20 0xFFFFFFFFFFFFFFFFFFFFFFFFFFFFFFFFFFFFFFFF MUL NOT AND SWAP1 DUP4 PUSH20 0xFFFFFFFFFFFFFFFFFFFFFFFFFFFFFFFFFFFFFFFF AND MUL OR SWAP1 SSTORE POP POP POP JUMP JUMPDEST PUSH1 0x5 PUSH1 0x20 MSTORE DUP1 PUSH0 MSTORE PUSH1 0x40 PUSH0 KECCAK256 PUSH0 SWAP2 POP SWAP1 POP DUP1 PUSH0 ADD DUP1 SLOAD PUSH2 0x2CF3 SWAP1 PUSH2 0x3EF5 JUMP JUMPDEST DUP1 PUSH1 0x1F ADD PUSH1 0x20 DUP1 SWAP2 DIV MUL PUSH1 0x20 ADD PUSH1 0x40 MLOAD SWAP1 DUP2 ADD PUSH1 0x40 MSTORE DUP1 SWAP3 SWAP2 SWAP1 DUP2 DUP2 MSTORE PUSH1 0x20 ADD DUP3 DUP1 SLOAD PUSH2 0x2D1F SWAP1 PUSH2 0x3EF5 JUMP JUMPDEST DUP1 ISZERO PUSH2 0x2D6A JUMPI DUP1 PUSH1 0x1F LT PUSH2 0x2D41 JUMPI PUSH2 0x100 DUP1 DUP4 SLOAD DIV MUL DUP4 MSTORE SWAP2 PUSH1 0x20 ADD SWAP2 PUSH2 0x2D6A JUMP JUMPDEST DUP3 ADD SWAP2 SWAP1 PUSH0 MSTORE PUSH1 0x20 PUSH0 KECCAK256 SWAP1 JUMPDEST DUP2 SLOAD DUP2 MSTORE SWAP1 PUSH1 0x1 ADD SWAP1 PUSH1 0x20 ADD DUP1 DUP4 GT PUSH2 0x2D4D JUMPI DUP3 SWAP1 SUB PUSH1 0x1F AND DUP3 ADD SWAP2 JUMPDEST POP POP POP POP POP SWAP1 DUP1 PUSH1 0x1 ADD DUP1 SLOAD PUSH2 0x2D7F SWAP1 PUSH2 0x3EF5 JUMP JUMPDEST DUP1 PUSH1 0x1F ADD PUSH1 0x20 DUP1 SWAP2 DIV MUL PUSH1 0x20 ADD PUSH1 0x40 MLOAD SWAP1 DUP2 ADD PUSH1 0x40 MSTORE DUP1 SWAP3 SWAP2 SWAP1 DUP2 DUP2 MSTORE PUSH1 0x20 ADD DUP3 DUP1 SLOAD PUSH2 0x2DAB SWAP1 PUSH2 0x3EF5 JUMP JUMPDEST DUP1 ISZERO PUSH2 0x2DF6 JUMPI DUP1 PUSH1 0x1F LT PUSH2 0x2DCD JUMPI PUSH2 0x100 DUP1 DUP4 SLOAD DIV MUL DUP4 MSTORE SWAP2 PUSH1 0x20 ADD SWAP2 PUSH2 0x2DF6 JUMP JUMPDEST DUP3 ADD SWAP2 SWAP1 PUSH0 MSTORE PUSH1 0x20 PUSH0 KECCAK256 SWAP1 JUMPDEST DUP2 SLOAD DUP2 MSTORE SWAP1 PUSH1 0x1 ADD SWAP1 PUSH1 0x20 ADD DUP1 DUP4 GT PUSH2 0x2DD9 JUMPI DUP3 SWAP1 SUB PUSH1 0x1F AND DUP3 ADD SWAP2 JUMPDEST POP POP POP POP POP SWAP1 DUP1 PUSH1 0x2 ADD DUP1 SLOAD PUSH2 0x2E0B SWAP1 PUSH2 0x3EF5 JUMP JUMPDEST DUP1 PUSH1 0x1F ADD PUSH1 0x20 DUP1 SWAP2 DIV MUL PUSH1 0x20 ADD PUSH1 0x40 MLOAD SWAP1 DUP2 ADD PUSH1 0x40 MSTORE DUP1 SWAP3 SWAP2 SWAP1 DUP2 DUP2 MSTORE PUSH1 0x20 ADD DUP3 DUP1 SLOAD PUSH2 0x2E37 SWAP1 PUSH2 0x3EF5 JUMP JUMPDEST DUP1 ISZERO PUSH2 0x2E82 JUMPI DUP1 PUSH1 0x1F LT PUSH2 0x2E59 JUMPI PUSH2 0x100 DUP1 DUP4 SLOAD DIV MUL DUP4 MSTORE SWAP2 PUSH1 0x20 ADD SWAP2 PUSH2 0x2E82 JUMP JUMPDEST DUP3 ADD SWAP2 SWAP1 PUSH0 MSTORE PUSH1 0x20 PUSH0 KECCAK256 SWAP1 JUMPDEST DUP2 SLOAD DUP2 MSTORE SWAP1 PUSH1 0x1 ADD SWAP1 PUSH1 0x20 ADD DUP1 DUP4 GT PUSH2 0x2E65 JUMPI DUP3 SWAP1 SUB PUSH1 0x1F AND DUP3 ADD SWAP2 JUMPDEST POP POP POP POP POP SWAP1 DUP1 PUSH1 0x3 ADD DUP1 SLOAD PUSH2 0x2E97 SWAP1 PUSH2 0x3EF5 JUMP JUMPDEST DUP1 PUSH1 0x1F ADD PUSH1 0x20 DUP1 SWAP2 DIV MUL PUSH1 0x20 ADD PUSH1 0x40 MLOAD SWAP1 DUP2 ADD PUSH1 0x40 MSTORE DUP1 SWAP3 SWAP2 SWAP1 DUP2 DUP2 MSTORE PUSH1 0x20 ADD DUP3 DUP1 SLOAD PUSH2 0x2EC3 SWAP1 PUSH2 0x3EF5 JUMP JUMPDEST DUP1 ISZERO PUSH2 0x2F0E JUMPI DUP1 PUSH1 0x1F LT PUSH2 0x2EE5 JUMPI PUSH2 0x100 DUP1 DUP4 SLOAD DIV MUL DUP4 MSTORE SWAP2 PUSH1 0x20 ADD SWAP2 PUSH2 0x2F0E JUMP JUMPDEST DUP3 ADD SWAP2 SWAP1 PUSH0 MSTORE PUSH1 0x20 PUSH0 KECCAK256 SWAP1 JUMPDEST DUP2 SLOAD DUP2 MSTORE SWAP1 PUSH1 0x1 ADD SWAP1 PUSH1 0x20 ADD DUP1 DUP4 GT PUSH2 0x2EF1 JUMPI DUP3 SWAP1 SUB PUSH1 0x1F AND DUP3 ADD SWAP2 JUMPDEST POP POP POP POP POP SWAP1 DUP1 PUSH1 0x4 ADD DUP1 SLOAD PUSH2 0x2F23 SWAP1 PUSH2 0x3EF5 JUMP JUMPDEST DUP1 PUSH1 0x1F ADD PUSH1 0x20 DUP1 SWAP2 DIV MUL PUSH1 0x20 ADD PUSH1 0x40 MLOAD SWAP1 DUP2 ADD PUSH1 0x40 MSTORE DUP1 SWAP3 SWAP2 SWAP1 DUP2 DUP2 MSTORE PUSH1 0x20 ADD DUP3 DUP1 SLOAD PUSH2 0x2F4F SWAP1 PUSH2 0x3EF5 JUMP JUMPDEST DUP1 ISZERO PUSH2 0x2F9A JUMPI DUP1 PUSH1 0x1F LT PUSH2 0x2F71 JUMPI PUSH2 0x100 DUP1 DUP4 SLOAD DIV MUL DUP4 MSTORE SWAP2 PUSH1 0x20 ADD SWAP2 PUSH2 0x2F9A JUMP JUMPDEST DUP3 ADD SWAP2 SWAP1 PUSH0 MSTORE PUSH1 0x20 PUSH0 KECCAK256 SWAP1 JUMPDEST DUP2 SLOAD DUP2 MSTORE SWAP1 PUSH1 0x1 ADD SWAP1 PUSH1 0x20 ADD DUP1 DUP4 GT PUSH2 0x2F7D JUMPI DUP3 SWAP1 SUB PUSH1 0x1F AND DUP3 ADD SWAP2 JUMPDEST POP POP POP POP POP SWAP1 DUP1 PUSH1 0x5 ADD DUP1 SLOAD PUSH2 0x2FAF SWAP1 PUSH2 0x3EF5 JUMP JUMPDEST DUP1 PUSH1 0x1F ADD PUSH1 0x20 DUP1 SWAP2 DIV MUL PUSH1 0x20 ADD PUSH1 0x40 MLOAD SWAP1 DUP2 ADD PUSH1 0x40 MSTORE DUP1 SWAP3 SWAP2 SWAP1 DUP2 DUP2 MSTORE PUSH1 0x20 ADD DUP3 DUP1 SLOAD PUSH2 0x2FDB SWAP1 PUSH2 0x3EF5 JUMP JUMPDEST DUP1 ISZERO PUSH2 0x3026 JUMPI DUP1 PUSH1 0x1F LT PUSH2 0x2FFD JUMPI PUSH2 0x100 DUP1 DUP4 SLOAD DIV MUL DUP4 MSTORE SWAP2 PUSH1 0x20 ADD SWAP2 PUSH2 0x3026 JUMP JUMPDEST DUP3 ADD SWAP2 SWAP1 PUSH0 MSTORE PUSH1 0x20 PUSH0 KECCAK256 SWAP1 JUMPDEST DUP2 SLOAD DUP2 MSTORE SWAP1 PUSH1 0x1 ADD SWAP1 PUSH1 0x20 ADD DUP1 DUP4 GT PUSH2 0x3009 JUMPI DUP3 SWAP1 SUB PUSH1 0x1F AND DUP3 ADD SWAP2 JUMPDEST POP POP POP POP POP SWAP1 DUP1 PUSH1 0x6 ADD DUP1 SLOAD PUSH2 0x303B SWAP1 PUSH2 0x3EF5 JUMP JUMPDEST DUP1 PUSH1 0x1F ADD PUSH1 0x20 DUP1 SWAP2 DIV MUL PUSH1 0x20 ADD PUSH1 0x40 MLOAD SWAP1 DUP2 ADD PUSH1 0x40 MSTORE DUP1 SWAP3 SWAP2 SWAP1 DUP2 DUP2 MSTORE PUSH1 0x20 ADD DUP3 DUP1 SLOAD PUSH2 0x3067 SWAP1 PUSH2 0x3EF5 JUMP JUMPDEST DUP1 ISZERO PUSH2 0x30B2 JUMPI DUP1 PUSH1 0x1F LT PUSH2 0x3089 JUMPI PUSH2 0x100 DUP1 DUP4 SLOAD DIV MUL DUP4 MSTORE SWAP2 PUSH1 0x20 ADD SWAP2 PUSH2 0x30B2 JUMP JUMPDEST DUP3 ADD SWAP2 SWAP1 PUSH0 MSTORE PUSH1 0x20 PUSH0 KECCAK256 SWAP1 JUMPDEST DUP2 SLOAD DUP2 MSTORE SWAP1 PUSH1 0x1 ADD SWAP1 PUSH1 0x20 ADD DUP1 DUP4 GT PUSH2 0x3095 JUMPI DUP3 SWAP1 SUB PUSH1 0x1F AND DUP3 ADD SWAP2 JUMPDEST POP POP POP POP POP SWAP1 DUP1 PUSH1 0x7 ADD DUP1 SLOAD PUSH2 0x30C7 SWAP1 PUSH2 0x3EF5 JUMP JUMPDEST DUP1 PUSH1 0x1F ADD PUSH1 0x20 DUP1 SWAP2 DIV MUL PUSH1 0x20 ADD PUSH1 0x40 MLOAD SWAP1 DUP2 ADD PUSH1 0x40 MSTORE DUP1 SWAP3 SWAP2 SWAP1 DUP2 DUP2 MSTORE PUSH1 0x20 ADD DUP3 DUP1 SLOAD PUSH2 0x30F3 SWAP1 PUSH2 0x3EF5 JUMP JUMPDEST DUP1 ISZERO PUSH2 0x313E JUMPI DUP1 PUSH1 0x1F LT PUSH2 0x3115 JUMPI PUSH2 0x100 DUP1 DUP4 SLOAD DIV MUL DUP4 MSTORE SWAP2 PUSH1 0x20 ADD SWAP2 PUSH2 0x313E JUMP JUMPDEST DUP3 ADD SWAP2 SWAP1 PUSH0 MSTORE PUSH1 0x20 PUSH0 KECCAK256 SWAP1 JUMPDEST DUP2 SLOAD DUP2 MSTORE SWAP1 PUSH1 0x1 ADD SWAP1 PUSH1 0x20 ADD DUP1 DUP4 GT PUSH2 0x3121 JUMPI DUP3 SWAP1 SUB PUSH1 0x1F AND DUP3 ADD SWAP2 JUMPDEST POP POP POP POP POP SWAP1 DUP1 PUSH1 0x8 ADD PUSH0 SWAP1 SLOAD SWAP1 PUSH2 0x100 EXP SWAP1 DIV PUSH20 0xFFFFFFFFFFFFFFFFFFFFFFFFFFFFFFFFFFFFFFFF AND SWAP1 DUP1 PUSH1 0x9 ADD SLOAD SWAP1 DUP1 PUSH1 0xA ADD SLOAD SWAP1 DUP1 PUSH1 0xB ADD SLOAD SWAP1 POP DUP13 JUMP JUMPDEST PUSH1 0x8 PUSH1 0x1 SWAP1 SLOAD SWAP1 PUSH2 0x100 EXP SWAP1 DIV PUSH20 0xFFFFFFFFFFFFFFFFFFFFFFFFFFFFFFFFFFFFFFFF AND DUP2 JUMP JUMPDEST PUSH0 DUP1 PUSH2 0xE10 DUP4 PUSH2 0x31B5 SWAP2 SWAP1 PUSH2 0x4500 JUMP JUMPDEST SWAP1 POP PUSH1 0x3 DUP2 LT PUSH2 0x31C9 JUMPI PUSH1 0x3 SWAP2 POP POP PUSH2 0x31E1 JUMP JUMPDEST PUSH1 0x2 DUP2 SUB PUSH2 0x31DB JUMPI PUSH1 0x2 SWAP2 POP POP PUSH2 0x31E1 JUMP JUMPDEST PUSH1 0x1 SWAP2 POP POP JUMPDEST SWAP2 SWAP1 POP JUMP JUMPDEST PUSH1 0x2 PUSH0 SLOAD SUB PUSH2 0x322A JUMPI PUSH1 0x40 MLOAD PUSH32 0x8C379A000000000000000000000000000000000000000000000000000000000 DUP2 MSTORE PUSH1 0x4 ADD PUSH2 0x3221 SWAP1 PUSH2 0x4CD6 JUMP JUMPDEST PUSH1 0x40 MLOAD DUP1 SWAP2 SUB SWAP1 REVERT JUMPDEST PUSH1 0x2 PUSH0 DUP2 SWAP1 SSTORE POP JUMP JUMPDEST PUSH2 0x32AF DUP5 DUP6 PUSH20 0xFFFFFFFFFFFFFFFFFFFFFFFFFFFFFFFFFFFFFFFF AND PUSH4 0x23B872DD DUP7 DUP7 DUP7 PUSH1 0x40 MLOAD PUSH1 0x24 ADD PUSH2 0x3268 SWAP4 SWAP3 SWAP2 SWAP1 PUSH2 0x4CF4 JUMP JUMPDEST PUSH1 0x40 MLOAD PUSH1 0x20 DUP2 DUP4 SUB SUB DUP2 MSTORE SWAP1 PUSH1 0x40 MSTORE SWAP2 POP PUSH1 0xE0 SHL PUSH1 0x20 DUP3 ADD DUP1 MLOAD PUSH28 0xFFFFFFFFFFFFFFFFFFFFFFFFFFFFFFFFFFFFFFFFFFFFFFFFFFFFFFFF DUP4 DUP2 DUP4 AND OR DUP4 MSTORE POP POP POP POP PUSH2 0x3444 JUMP JUMPDEST POP POP POP POP JUMP JUMPDEST PUSH1 0x1 PUSH0 DUP2 SWAP1 SSTORE POP JUMP JUMPDEST PUSH2 0x3338 DUP4 DUP5 PUSH20 0xFFFFFFFFFFFFFFFFFFFFFFFFFFFFFFFFFFFFFFFF AND PUSH4 0xA9059CBB DUP6 DUP6 PUSH1 0x40 MLOAD PUSH1 0x24 ADD PUSH2 0x32F1 SWAP3 SWAP2 SWAP1 PUSH2 0x4D29 JUMP JUMPDEST PUSH1 0x40 MLOAD PUSH1 0x20 DUP2 DUP4 SUB SUB DUP2 MSTORE SWAP1 PUSH1 0x40 MSTORE SWAP2 POP PUSH1 0xE0 SHL PUSH1 0x20 DUP3 ADD DUP1 MLOAD PUSH28 0xFFFFFFFFFFFFFFFFFFFFFFFFFFFFFFFFFFFFFFFFFFFFFFFFFFFFFFFF DUP4 DUP2 DUP4 AND OR DUP4 MSTORE POP POP POP POP PUSH2 0x3444 JUMP JUMPDEST POP POP POP JUMP JUMPDEST PUSH0 PUSH2 0x3346 PUSH2 0x34D9 JUMP JUMPDEST SWAP1 POP PUSH0 DUP2 SUB PUSH2 0x3355 JUMPI POP PUSH2 0x3441 JUMP JUMPDEST PUSH0 JUMPDEST PUSH1 0x6 SLOAD DUP2 LT ISZERO PUSH2 0x343E JUMPI PUSH0 PUSH1 0x5 PUSH0 DUP4 DUP2 MSTORE PUSH1 0x20 ADD SWAP1 DUP2 MSTORE PUSH1 0x20 ADD PUSH0 KECCAK256 SWAP1 POP PUSH1 0x5 DUP1 DUP2 GT ISZERO PUSH2 0x3388 JUMPI PUSH2 0x3387 PUSH2 0x4803 JUMP JUMPDEST JUMPDEST DUP2 PUSH1 0x9 ADD SLOAD EQ PUSH2 0x342A JUMPI PUSH0 DUP4 DUP6 DUP4 PUSH1 0xB ADD SLOAD PUSH2 0x33A4 SWAP2 SWAP1 PUSH2 0x4492 JUMP JUMPDEST PUSH2 0x33AE SWAP2 SWAP1 PUSH2 0x4500 JUMP JUMPDEST SWAP1 POP PUSH0 DUP2 GT ISZERO PUSH2 0x3428 JUMPI PUSH2 0x3427 DUP3 PUSH1 0x8 ADD PUSH0 SWAP1 SLOAD SWAP1 PUSH2 0x100 EXP SWAP1 DIV PUSH20 0xFFFFFFFFFFFFFFFFFFFFFFFFFFFFFFFFFFFFFFFF AND DUP3 PUSH1 0xB PUSH0 SWAP1 SLOAD SWAP1 PUSH2 0x100 EXP SWAP1 DIV PUSH20 0xFFFFFFFFFFFFFFFFFFFFFFFFFFFFFFFFFFFFFFFF AND PUSH20 0xFFFFFFFFFFFFFFFFFFFFFFFFFFFFFFFFFFFFFFFF AND PUSH2 0x32BE SWAP1 SWAP3 SWAP2 SWAP1 PUSH4 0xFFFFFFFF AND JUMP JUMPDEST JUMPDEST POP JUMPDEST POP DUP1 DUP1 PUSH2 0x3436 SWAP1 PUSH2 0x41DC JUMP JUMPDEST SWAP2 POP POP PUSH2 0x3357 JUMP JUMPDEST POP POP JUMPDEST POP JUMP JUMPDEST PUSH0 PUSH2 0x346E DUP3 DUP5 PUSH20 0xFFFFFFFFFFFFFFFFFFFFFFFFFFFFFFFFFFFFFFFF AND PUSH2 0x3555 SWAP1 SWAP2 SWAP1 PUSH4 0xFFFFFFFF AND JUMP JUMPDEST SWAP1 POP PUSH0 DUP2 MLOAD EQ ISZERO DUP1 ISZERO PUSH2 0x3492 JUMPI POP DUP1 DUP1 PUSH1 0x20 ADD SWAP1 MLOAD DUP2 ADD SWAP1 PUSH2 0x3490 SWAP2 SWAP1 PUSH2 0x4D64 JUMP JUMPDEST ISZERO JUMPDEST ISZERO PUSH2 0x34D4 JUMPI DUP3 PUSH1 0x40 MLOAD PUSH32 0x5274AFE700000000000000000000000000000000000000000000000000000000 DUP2 MSTORE PUSH1 0x4 ADD PUSH2 0x34CB SWAP2 SWAP1 PUSH2 0x3B44 JUMP JUMPDEST PUSH1 0x40 MLOAD DUP1 SWAP2 SUB SWAP1 REVERT JUMPDEST POP POP POP JUMP JUMPDEST PUSH0 DUP1 PUSH0 SWAP1 POP PUSH0 JUMPDEST PUSH1 0x6 SLOAD DUP2 LT ISZERO PUSH2 0x354D JUMPI PUSH1 0x5 DUP1 DUP2 GT ISZERO PUSH2 0x34FD JUMPI PUSH2 0x34FC PUSH2 0x4803 JUMP JUMPDEST JUMPDEST PUSH1 0x5 PUSH0 DUP4 DUP2 MSTORE PUSH1 0x20 ADD SWAP1 DUP2 MSTORE PUSH1 0x20 ADD PUSH0 KECCAK256 PUSH1 0x9 ADD SLOAD EQ PUSH2 0x353A JUMPI PUSH1 0x5 PUSH0 DUP3 DUP2 MSTORE PUSH1 0x20 ADD SWAP1 DUP2 MSTORE PUSH1 0x20 ADD PUSH0 KECCAK256 PUSH1 0xB ADD SLOAD DUP3 PUSH2 0x3537 SWAP2 SWAP1 PUSH2 0x47D0 JUMP JUMPDEST SWAP2 POP JUMPDEST DUP1 DUP1 PUSH2 0x3545 SWAP1 PUSH2 0x41DC JUMP JUMPDEST SWAP2 POP POP PUSH2 0x34E0 JUMP JUMPDEST POP DUP1 SWAP2 POP POP SWAP1 JUMP JUMPDEST PUSH1 0x60 PUSH2 0x3562 DUP4 DUP4 PUSH0 PUSH2 0x356A JUMP JUMPDEST SWAP1 POP SWAP3 SWAP2 POP POP JUMP JUMPDEST PUSH1 0x60 DUP2 SELFBALANCE LT ISZERO PUSH2 0x35B1 JUMPI ADDRESS PUSH1 0x40 MLOAD PUSH32 0xCD78605900000000000000000000000000000000000000000000000000000000 DUP2 MSTORE PUSH1 0x4 ADD PUSH2 0x35A8 SWAP2 SWAP1 PUSH2 0x3B44 JUMP JUMPDEST PUSH1 0x40 MLOAD DUP1 SWAP2 SUB SWAP1 REVERT JUMPDEST PUSH0 DUP1 DUP6 PUSH20 0xFFFFFFFFFFFFFFFFFFFFFFFFFFFFFFFFFFFFFFFF AND DUP5 DUP7 PUSH1 0x40 MLOAD PUSH2 0x35D9 SWAP2 SWAP1 PUSH2 0x4DD3 JUMP JUMPDEST PUSH0 PUSH1 0x40 MLOAD DUP1 DUP4 SUB DUP2 DUP6 DUP8 GAS CALL SWAP3 POP POP POP RETURNDATASIZE DUP1 PUSH0 DUP2 EQ PUSH2 0x3613 JUMPI PUSH1 0x40 MLOAD SWAP2 POP PUSH1 0x1F NOT PUSH1 0x3F RETURNDATASIZE ADD AND DUP3 ADD PUSH1 0x40 MSTORE RETURNDATASIZE DUP3 MSTORE RETURNDATASIZE PUSH0 PUSH1 0x20 DUP5 ADD RETURNDATACOPY PUSH2 0x3618 JUMP JUMPDEST PUSH1 0x60 SWAP2 POP JUMPDEST POP SWAP2 POP SWAP2 POP PUSH2 0x3628 DUP7 DUP4 DUP4 PUSH2 0x3633 JUMP JUMPDEST SWAP3 POP POP POP SWAP4 SWAP3 POP POP POP JUMP JUMPDEST PUSH1 0x60 DUP3 PUSH2 0x3648 JUMPI PUSH2 0x3643 DUP3 PUSH2 0x36C0 JUMP JUMPDEST PUSH2 0x36B8 JUMP JUMPDEST PUSH0 DUP3 MLOAD EQ DUP1 ISZERO PUSH2 0x366E JUMPI POP PUSH0 DUP5 PUSH20 0xFFFFFFFFFFFFFFFFFFFFFFFFFFFFFFFFFFFFFFFF AND EXTCODESIZE EQ JUMPDEST ISZERO PUSH2 0x36B0 JUMPI DUP4 PUSH1 0x40 MLOAD PUSH32 0x9996B31500000000000000000000000000000000000000000000000000000000 DUP2 MSTORE PUSH1 0x4 ADD PUSH2 0x36A7 SWAP2 SWAP1 PUSH2 0x3B44 JUMP JUMPDEST PUSH1 0x40 MLOAD DUP1 SWAP2 SUB SWAP1 REVERT JUMPDEST DUP2 SWAP1 POP PUSH2 0x36B9 JUMP JUMPDEST JUMPDEST SWAP4 SWAP3 POP POP POP JUMP JUMPDEST PUSH0 DUP2 MLOAD GT ISZERO PUSH2 0x36D2 JUMPI DUP1 MLOAD DUP1 DUP3 PUSH1 0x20 ADD REVERT JUMPDEST PUSH1 0x40 MLOAD PUSH32 0x1425EA4200000000000000000000000000000000000000000000000000000000 DUP2 MSTORE PUSH1 0x4 ADD PUSH1 0x40 MLOAD DUP1 SWAP2 SUB SWAP1 REVERT JUMPDEST PUSH0 DUP2 ISZERO ISZERO SWAP1 POP SWAP2 SWAP1 POP JUMP JUMPDEST PUSH2 0x3718 DUP2 PUSH2 0x3704 JUMP JUMPDEST DUP3 MSTORE POP POP JUMP JUMPDEST PUSH0 PUSH1 0x20 DUP3 ADD SWAP1 POP PUSH2 0x3731 PUSH0 DUP4 ADD DUP5 PUSH2 0x370F JUMP JUMPDEST SWAP3 SWAP2 POP POP JUMP JUMPDEST PUSH0 PUSH1 0x40 MLOAD SWAP1 POP SWAP1 JUMP JUMPDEST PUSH0 DUP1 REVERT JUMPDEST PUSH0 DUP1 REVERT JUMPDEST PUSH0 PUSH20 0xFFFFFFFFFFFFFFFFFFFFFFFFFFFFFFFFFFFFFFFF DUP3 AND SWAP1 POP SWAP2 SWAP1 POP JUMP JUMPDEST PUSH0 PUSH2 0x3771 DUP3 PUSH2 0x3748 JUMP JUMPDEST SWAP1 POP SWAP2 SWAP1 POP JUMP JUMPDEST PUSH2 0x3781 DUP2 PUSH2 0x3767 JUMP JUMPDEST DUP2 EQ PUSH2 0x378B JUMPI PUSH0 DUP1 REVERT JUMPDEST POP JUMP JUMPDEST PUSH0 DUP2 CALLDATALOAD SWAP1 POP PUSH2 0x379C DUP2 PUSH2 0x3778 JUMP JUMPDEST SWAP3 SWAP2 POP POP JUMP JUMPDEST PUSH0 PUSH1 0x20 DUP3 DUP5 SUB SLT ISZERO PUSH2 0x37B7 JUMPI PUSH2 0x37B6 PUSH2 0x3740 JUMP JUMPDEST JUMPDEST PUSH0 PUSH2 0x37C4 DUP5 DUP3 DUP6 ADD PUSH2 0x378E JUMP JUMPDEST SWAP2 POP POP SWAP3 SWAP2 POP POP JUMP JUMPDEST PUSH0 DUP2 SWAP1 POP SWAP2 SWAP1 POP JUMP JUMPDEST PUSH2 0x37DF DUP2 PUSH2 0x37CD JUMP JUMPDEST DUP3 MSTORE POP POP JUMP JUMPDEST PUSH0 PUSH1 0x20 DUP3 ADD SWAP1 POP PUSH2 0x37F8 PUSH0 DUP4 ADD DUP5 PUSH2 0x37D6 JUMP JUMPDEST SWAP3 SWAP2 POP POP JUMP JUMPDEST PUSH0 DUP1 REVERT JUMPDEST PUSH0 DUP1 REVERT JUMPDEST PUSH0 PUSH1 0x1F NOT PUSH1 0x1F DUP4 ADD AND SWAP1 POP SWAP2 SWAP1 POP JUMP JUMPDEST PUSH32 0x4E487B7100000000000000000000000000000000000000000000000000000000 PUSH0 MSTORE PUSH1 0x41 PUSH1 0x4 MSTORE PUSH1 0x24 PUSH0 REVERT JUMPDEST PUSH2 0x384C DUP3 PUSH2 0x3806 JUMP JUMPDEST DUP2 ADD DUP2 DUP2 LT PUSH8 0xFFFFFFFFFFFFFFFF DUP3 GT OR ISZERO PUSH2 0x386B JUMPI PUSH2 0x386A PUSH2 0x3816 JUMP JUMPDEST JUMPDEST DUP1 PUSH1 0x40 MSTORE POP POP POP JUMP JUMPDEST PUSH0 PUSH2 0x387D PUSH2 0x3737 JUMP JUMPDEST SWAP1 POP PUSH2 0x3889 DUP3 DUP3 PUSH2 0x3843 JUMP JUMPDEST SWAP2 SWAP1 POP JUMP JUMPDEST PUSH0 PUSH8 0xFFFFFFFFFFFFFFFF DUP3 GT ISZERO PUSH2 0x38A8 JUMPI PUSH2 0x38A7 PUSH2 0x3816 JUMP JUMPDEST JUMPDEST PUSH2 0x38B1 DUP3 PUSH2 0x3806 JUMP JUMPDEST SWAP1 POP PUSH1 0x20 DUP2 ADD SWAP1 POP SWAP2 SWAP1 POP JUMP JUMPDEST DUP3 DUP2 DUP4 CALLDATACOPY PUSH0 DUP4 DUP4 ADD MSTORE POP POP POP JUMP JUMPDEST PUSH0 PUSH2 0x38DE PUSH2 0x38D9 DUP5 PUSH2 0x388E JUMP JUMPDEST PUSH2 0x3874 JUMP JUMPDEST SWAP1 POP DUP3 DUP2 MSTORE PUSH1 0x20 DUP2 ADD DUP5 DUP5 DUP5 ADD GT ISZERO PUSH2 0x38FA JUMPI PUSH2 0x38F9 PUSH2 0x3802 JUMP JUMPDEST JUMPDEST PUSH2 0x3905 DUP5 DUP3 DUP6 PUSH2 0x38BE JUMP JUMPDEST POP SWAP4 SWAP3 POP POP POP JUMP JUMPDEST PUSH0 DUP3 PUSH1 0x1F DUP4 ADD SLT PUSH2 0x3921 JUMPI PUSH2 0x3920 PUSH2 0x37FE JUMP JUMPDEST JUMPDEST DUP2 CALLDATALOAD PUSH2 0x3931 DUP5 DUP3 PUSH1 0x20 DUP7 ADD PUSH2 0x38CC JUMP JUMPDEST SWAP2 POP POP SWAP3 SWAP2 POP POP JUMP JUMPDEST PUSH0 DUP1 PUSH0 DUP1 PUSH0 PUSH1 0xA0 DUP7 DUP9 SUB SLT ISZERO PUSH2 0x3953 JUMPI PUSH2 0x3952 PUSH2 0x3740 JUMP JUMPDEST JUMPDEST PUSH0 DUP7 ADD CALLDATALOAD PUSH8 0xFFFFFFFFFFFFFFFF DUP2 GT ISZERO PUSH2 0x3970 JUMPI PUSH2 0x396F PUSH2 0x3744 JUMP JUMPDEST JUMPDEST PUSH2 0x397C DUP9 DUP3 DUP10 ADD PUSH2 0x390D JUMP JUMPDEST SWAP6 POP POP PUSH1 0x20 DUP7 ADD CALLDATALOAD PUSH8 0xFFFFFFFFFFFFFFFF DUP2 GT ISZERO PUSH2 0x399D JUMPI PUSH2 0x399C PUSH2 0x3744 JUMP JUMPDEST JUMPDEST PUSH2 0x39A9 DUP9 DUP3 DUP10 ADD PUSH2 0x390D JUMP JUMPDEST SWAP5 POP POP PUSH1 0x40 DUP7 ADD CALLDATALOAD PUSH8 0xFFFFFFFFFFFFFFFF DUP2 GT ISZERO PUSH2 0x39CA JUMPI PUSH2 0x39C9 PUSH2 0x3744 JUMP JUMPDEST JUMPDEST PUSH2 0x39D6 DUP9 DUP3 DUP10 ADD PUSH2 0x390D JUMP JUMPDEST SWAP4 POP POP PUSH1 0x60 DUP7 ADD CALLDATALOAD PUSH8 0xFFFFFFFFFFFFFFFF DUP2 GT ISZERO PUSH2 0x39F7 JUMPI PUSH2 0x39F6 PUSH2 0x3744 JUMP JUMPDEST JUMPDEST PUSH2 0x3A03 DUP9 DUP3 DUP10 ADD PUSH2 0x390D JUMP JUMPDEST SWAP3 POP POP PUSH1 0x80 DUP7 ADD CALLDATALOAD PUSH8 0xFFFFFFFFFFFFFFFF DUP2 GT ISZERO PUSH2 0x3A24 JUMPI PUSH2 0x3A23 PUSH2 0x3744 JUMP JUMPDEST JUMPDEST PUSH2 0x3A30 DUP9 DUP3 DUP10 ADD PUSH2 0x390D JUMP JUMPDEST SWAP2 POP POP SWAP3 SWAP6 POP SWAP3 SWAP6 SWAP1 SWAP4 POP JUMP JUMPDEST PUSH0 DUP2 SWAP1 POP SWAP2 SWAP1 POP JUMP JUMPDEST PUSH0 PUSH2 0x3A60 PUSH2 0x3A5B PUSH2 0x3A56 DUP5 PUSH2 0x3748 JUMP JUMPDEST PUSH2 0x3A3D JUMP JUMPDEST PUSH2 0x3748 JUMP JUMPDEST SWAP1 POP SWAP2 SWAP1 POP JUMP JUMPDEST PUSH0 PUSH2 0x3A71 DUP3 PUSH2 0x3A46 JUMP JUMPDEST SWAP1 POP SWAP2 SWAP1 POP JUMP JUMPDEST PUSH0 PUSH2 0x3A82 DUP3 PUSH2 0x3A67 JUMP JUMPDEST SWAP1 POP SWAP2 SWAP1 POP JUMP JUMPDEST PUSH2 0x3A92 DUP2 PUSH2 0x3A78 JUMP JUMPDEST DUP3 MSTORE POP POP JUMP JUMPDEST PUSH0 PUSH1 0x20 DUP3 ADD SWAP1 POP PUSH2 0x3AAB PUSH0 DUP4 ADD DUP5 PUSH2 0x3A89 JUMP JUMPDEST SWAP3 SWAP2 POP POP JUMP JUMPDEST PUSH2 0x3ABA DUP2 PUSH2 0x3704 JUMP JUMPDEST DUP2 EQ PUSH2 0x3AC4 JUMPI PUSH0 DUP1 REVERT JUMPDEST POP JUMP JUMPDEST PUSH0 DUP2 CALLDATALOAD SWAP1 POP PUSH2 0x3AD5 DUP2 PUSH2 0x3AB1 JUMP JUMPDEST SWAP3 SWAP2 POP POP JUMP JUMPDEST PUSH0 DUP1 PUSH1 0x40 DUP4 DUP6 SUB SLT ISZERO PUSH2 0x3AF1 JUMPI PUSH2 0x3AF0 PUSH2 0x3740 JUMP JUMPDEST JUMPDEST PUSH0 DUP4 ADD CALLDATALOAD PUSH8 0xFFFFFFFFFFFFFFFF DUP2 GT ISZERO PUSH2 0x3B0E JUMPI PUSH2 0x3B0D PUSH2 0x3744 JUMP JUMPDEST JUMPDEST PUSH2 0x3B1A DUP6 DUP3 DUP7 ADD PUSH2 0x390D JUMP JUMPDEST SWAP3 POP POP PUSH1 0x20 PUSH2 0x3B2B DUP6 DUP3 DUP7 ADD PUSH2 0x3AC7 JUMP JUMPDEST SWAP2 POP POP SWAP3 POP SWAP3 SWAP1 POP JUMP JUMPDEST PUSH2 0x3B3E DUP2 PUSH2 0x3767 JUMP JUMPDEST DUP3 MSTORE POP POP JUMP JUMPDEST PUSH0 PUSH1 0x20 DUP3 ADD SWAP1 POP PUSH2 0x3B57 PUSH0 DUP4 ADD DUP5 PUSH2 0x3B35 JUMP JUMPDEST SWAP3 SWAP2 POP POP JUMP JUMPDEST PUSH2 0x3B66 DUP2 PUSH2 0x37CD JUMP JUMPDEST DUP2 EQ PUSH2 0x3B70 JUMPI PUSH0 DUP1 REVERT JUMPDEST POP JUMP JUMPDEST PUSH0 DUP2 CALLDATALOAD SWAP1 POP PUSH2 0x3B81 DUP2 PUSH2 0x3B5D JUMP JUMPDEST SWAP3 SWAP2 POP POP JUMP JUMPDEST PUSH0 PUSH1 0x20 DUP3 DUP5 SUB SLT ISZERO PUSH2 0x3B9C JUMPI PUSH2 0x3B9B PUSH2 0x3740 JUMP JUMPDEST JUMPDEST PUSH0 PUSH2 0x3BA9 DUP5 DUP3 DUP6 ADD PUSH2 0x3B73 JUMP JUMPDEST SWAP2 POP POP SWAP3 SWAP2 POP POP JUMP JUMPDEST PUSH0 DUP1 PUSH1 0x40 DUP4 DUP6 SUB SLT ISZERO PUSH2 0x3BC8 JUMPI PUSH2 0x3BC7 PUSH2 0x3740 JUMP JUMPDEST JUMPDEST PUSH0 PUSH2 0x3BD5 DUP6 DUP3 DUP7 ADD PUSH2 0x3B73 JUMP JUMPDEST SWAP3 POP POP PUSH1 0x20 PUSH2 0x3BE6 DUP6 DUP3 DUP7 ADD PUSH2 0x3B73 JUMP JUMPDEST SWAP2 POP POP SWAP3 POP SWAP3 SWAP1 POP JUMP JUMPDEST PUSH0 PUSH1 0x20 DUP3 DUP5 SUB SLT ISZERO PUSH2 0x3C05 JUMPI PUSH2 0x3C04 PUSH2 0x3740 JUMP JUMPDEST JUMPDEST PUSH0 DUP3 ADD CALLDATALOAD PUSH8 0xFFFFFFFFFFFFFFFF DUP2 GT ISZERO PUSH2 0x3C22 JUMPI PUSH2 0x3C21 PUSH2 0x3744 JUMP JUMPDEST JUMPDEST PUSH2 0x3C2E DUP5 DUP3 DUP6 ADD PUSH2 0x390D JUMP JUMPDEST SWAP2 POP POP SWAP3 SWAP2 POP POP JUMP JUMPDEST PUSH0 DUP1 PUSH1 0x40 DUP4 DUP6 SUB SLT ISZERO PUSH2 0x3C4D JUMPI PUSH2 0x3C4C PUSH2 0x3740 JUMP JUMPDEST JUMPDEST PUSH0 PUSH2 0x3C5A DUP6 DUP3 DUP7 ADD PUSH2 0x3B73 JUMP JUMPDEST SWAP3 POP POP PUSH1 0x20 DUP4 ADD CALLDATALOAD PUSH8 0xFFFFFFFFFFFFFFFF DUP2 GT ISZERO PUSH2 0x3C7B JUMPI PUSH2 0x3C7A PUSH2 0x3744 JUMP JUMPDEST JUMPDEST PUSH2 0x3C87 DUP6 DUP3 DUP7 ADD PUSH2 0x390D JUMP JUMPDEST SWAP2 POP POP SWAP3 POP SWAP3 SWAP1 POP JUMP JUMPDEST PUSH0 DUP2 MLOAD SWAP1 POP SWAP2 SWAP1 POP JUMP JUMPDEST PUSH0 DUP3 DUP3 MSTORE PUSH1 0x20 DUP3 ADD SWAP1 POP SWAP3 SWAP2 POP POP JUMP JUMPDEST PUSH0 JUMPDEST DUP4 DUP2 LT ISZERO PUSH2 0x3CC8 JUMPI DUP1 DUP3 ADD MLOAD DUP2 DUP5 ADD MSTORE PUSH1 0x20 DUP2 ADD SWAP1 POP PUSH2 0x3CAD JUMP JUMPDEST PUSH0 DUP5 DUP5 ADD MSTORE POP POP POP POP JUMP JUMPDEST PUSH0 PUSH2 0x3CDD DUP3 PUSH2 0x3C91 JUMP JUMPDEST PUSH2 0x3CE7 DUP2 DUP6 PUSH2 0x3C9B JUMP JUMPDEST SWAP4 POP PUSH2 0x3CF7 DUP2 DUP6 PUSH1 0x20 DUP7 ADD PUSH2 0x3CAB JUMP JUMPDEST PUSH2 0x3D00 DUP2 PUSH2 0x3806 JUMP JUMPDEST DUP5 ADD SWAP2 POP POP SWAP3 SWAP2 POP POP JUMP JUMPDEST PUSH0 PUSH2 0x180 DUP3 ADD SWAP1 POP DUP2 DUP2 SUB PUSH0 DUP4 ADD MSTORE PUSH2 0x3D24 DUP2 DUP16 PUSH2 0x3CD3 JUMP JUMPDEST SWAP1 POP DUP2 DUP2 SUB PUSH1 0x20 DUP4 ADD MSTORE PUSH2 0x3D38 DUP2 DUP15 PUSH2 0x3CD3 JUMP JUMPDEST SWAP1 POP DUP2 DUP2 SUB PUSH1 0x40 DUP4 ADD MSTORE PUSH2 0x3D4C DUP2 DUP14 PUSH2 0x3CD3 JUMP JUMPDEST SWAP1 POP DUP2 DUP2 SUB PUSH1 0x60 DUP4 ADD MSTORE PUSH2 0x3D60 DUP2 DUP13 PUSH2 0x3CD3 JUMP JUMPDEST SWAP1 POP DUP2 DUP2 SUB PUSH1 0x80 DUP4 ADD MSTORE PUSH2 0x3D74 DUP2 DUP12 PUSH2 0x3CD3 JUMP JUMPDEST SWAP1 POP DUP2 DUP2 SUB PUSH1 0xA0 DUP4 ADD MSTORE PUSH2 0x3D88 DUP2 DUP11 PUSH2 0x3CD3 JUMP JUMPDEST SWAP1 POP DUP2 DUP2 SUB PUSH1 0xC0 DUP4 ADD MSTORE PUSH2 0x3D9C DUP2 DUP10 PUSH2 0x3CD3 JUMP JUMPDEST SWAP1 POP DUP2 DUP2 SUB PUSH1 0xE0 DUP4 ADD MSTORE PUSH2 0x3DB0 DUP2 DUP9 PUSH2 0x3CD3 JUMP JUMPDEST SWAP1 POP PUSH2 0x3DC0 PUSH2 0x100 DUP4 ADD DUP8 PUSH2 0x3B35 JUMP JUMPDEST PUSH2 0x3DCE PUSH2 0x120 DUP4 ADD DUP7 PUSH2 0x37D6 JUMP JUMPDEST PUSH2 0x3DDC PUSH2 0x140 DUP4 ADD DUP6 PUSH2 0x37D6 JUMP JUMPDEST PUSH2 0x3DEA PUSH2 0x160 DUP4 ADD DUP5 PUSH2 0x37D6 JUMP JUMPDEST SWAP14 SWAP13 POP POP POP POP POP POP POP POP POP POP POP POP POP JUMP JUMPDEST PUSH0 DUP2 MLOAD SWAP1 POP PUSH2 0x3E09 DUP2 PUSH2 0x3B5D JUMP JUMPDEST SWAP3 SWAP2 POP POP JUMP JUMPDEST PUSH0 PUSH1 0x20 DUP3 DUP5 SUB SLT ISZERO PUSH2 0x3E24 JUMPI PUSH2 0x3E23 PUSH2 0x3740 JUMP JUMPDEST JUMPDEST PUSH0 PUSH2 0x3E31 DUP5 DUP3 DUP6 ADD PUSH2 0x3DFB JUMP JUMPDEST SWAP2 POP POP SWAP3 SWAP2 POP POP JUMP JUMPDEST PUSH32 0x496E73756666696369656E7420746F6B656E7320746F2063726561746520656C PUSH0 DUP3 ADD MSTORE PUSH32 0x656D656E74000000000000000000000000000000000000000000000000000000 PUSH1 0x20 DUP3 ADD MSTORE POP JUMP JUMPDEST PUSH0 PUSH2 0x3E94 PUSH1 0x25 DUP4 PUSH2 0x3C9B JUMP JUMPDEST SWAP2 POP PUSH2 0x3E9F DUP3 PUSH2 0x3E3A JUMP JUMPDEST PUSH1 0x40 DUP3 ADD SWAP1 POP SWAP2 SWAP1 POP JUMP JUMPDEST PUSH0 PUSH1 0x20 DUP3 ADD SWAP1 POP DUP2 DUP2 SUB PUSH0 DUP4 ADD MSTORE PUSH2 0x3EC1 DUP2 PUSH2 0x3E88 JUMP JUMPDEST SWAP1 POP SWAP2 SWAP1 POP JUMP JUMPDEST PUSH32 0x4E487B7100000000000000000000000000000000000000000000000000000000 PUSH0 MSTORE PUSH1 0x22 PUSH1 0x4 MSTORE PUSH1 0x24 PUSH0 REVERT JUMPDEST PUSH0 PUSH1 0x2 DUP3 DIV SWAP1 POP PUSH1 0x1 DUP3 AND DUP1 PUSH2 0x3F0C JUMPI PUSH1 0x7F DUP3 AND SWAP2 POP JUMPDEST PUSH1 0x20 DUP3 LT DUP2 SUB PUSH2 0x3F1F JUMPI PUSH2 0x3F1E PUSH2 0x3EC8 JUMP JUMPDEST JUMPDEST POP SWAP2 SWAP1 POP JUMP JUMPDEST PUSH0 DUP2 SWAP1 POP DUP2 PUSH0 MSTORE PUSH1 0x20 PUSH0 KECCAK256 SWAP1 POP SWAP2 SWAP1 POP JUMP JUMPDEST PUSH0 PUSH1 0x20 PUSH1 0x1F DUP4 ADD DIV SWAP1 POP SWAP2 SWAP1 POP JUMP JUMPDEST PUSH0 DUP3 DUP3 SHL SWAP1 POP SWAP3 SWAP2 POP POP JUMP JUMPDEST PUSH0 PUSH1 0x8 DUP4 MUL PUSH2 0x3F81 PUSH32 0xFFFFFFFFFFFFFFFFFFFFFFFFFFFFFFFFFFFFFFFFFFFFFFFFFFFFFFFFFFFFFFFF DUP3 PUSH2 0x3F46 JUMP JUMPDEST PUSH2 0x3F8B DUP7 DUP4 PUSH2 0x3F46 JUMP JUMPDEST SWAP6 POP DUP1 NOT DUP5 AND SWAP4 POP DUP1 DUP7 AND DUP5 OR SWAP3 POP POP POP SWAP4 SWAP3 POP POP POP JUMP JUMPDEST PUSH0 PUSH2 0x3FBD PUSH2 0x3FB8 PUSH2 0x3FB3 DUP5 PUSH2 0x37CD JUMP JUMPDEST PUSH2 0x3A3D JUMP JUMPDEST PUSH2 0x37CD JUMP JUMPDEST SWAP1 POP SWAP2 SWAP1 POP JUMP JUMPDEST PUSH0 DUP2 SWAP1 POP SWAP2 SWAP1 POP JUMP JUMPDEST PUSH2 0x3FD6 DUP4 PUSH2 0x3FA3 JUMP JUMPDEST PUSH2 0x3FEA PUSH2 0x3FE2 DUP3 PUSH2 0x3FC4 JUMP JUMPDEST DUP5 DUP5 SLOAD PUSH2 0x3F52 JUMP JUMPDEST DUP3 SSTORE POP POP POP POP JUMP JUMPDEST PUSH0 SWAP1 JUMP JUMPDEST PUSH2 0x3FFE PUSH2 0x3FF2 JUMP JUMPDEST PUSH2 0x4009 DUP2 DUP5 DUP5 PUSH2 0x3FCD JUMP JUMPDEST POP POP POP JUMP JUMPDEST JUMPDEST DUP2 DUP2 LT ISZERO PUSH2 0x402C JUMPI PUSH2 0x4021 PUSH0 DUP3 PUSH2 0x3FF6 JUMP JUMPDEST PUSH1 0x1 DUP2 ADD SWAP1 POP PUSH2 0x400F JUMP JUMPDEST POP POP JUMP JUMPDEST PUSH1 0x1F DUP3 GT ISZERO PUSH2 0x4071 JUMPI PUSH2 0x4042 DUP2 PUSH2 0x3F25 JUMP JUMPDEST PUSH2 0x404B DUP5 PUSH2 0x3F37 JUMP JUMPDEST DUP2 ADD PUSH1 0x20 DUP6 LT ISZERO PUSH2 0x405A JUMPI DUP2 SWAP1 POP JUMPDEST PUSH2 0x406E PUSH2 0x4066 DUP6 PUSH2 0x3F37 JUMP JUMPDEST DUP4 ADD DUP3 PUSH2 0x400E JUMP JUMPDEST POP POP JUMPDEST POP POP POP JUMP JUMPDEST PUSH0 DUP3 DUP3 SHR SWAP1 POP SWAP3 SWAP2 POP POP JUMP JUMPDEST PUSH0 PUSH2 0x4091 PUSH0 NOT DUP5 PUSH1 0x8 MUL PUSH2 0x4076 JUMP JUMPDEST NOT DUP1 DUP4 AND SWAP2 POP POP SWAP3 SWAP2 POP POP JUMP JUMPDEST PUSH0 PUSH2 0x40A9 DUP4 DUP4 PUSH2 0x4082 JUMP JUMPDEST SWAP2 POP DUP3 PUSH1 0x2 MUL DUP3 OR SWAP1 POP SWAP3 SWAP2 POP POP JUMP JUMPDEST PUSH2 0x40C2 DUP3 PUSH2 0x3C91 JUMP JUMPDEST PUSH8 0xFFFFFFFFFFFFFFFF DUP2 GT ISZERO PUSH2 0x40DB JUMPI PUSH2 0x40DA PUSH2 0x3816 JUMP JUMPDEST JUMPDEST PUSH2 0x40E5 DUP3 SLOAD PUSH2 0x3EF5 JUMP JUMPDEST PUSH2 0x40F0 DUP3 DUP3 DUP6 PUSH2 0x4030 JUMP JUMPDEST PUSH0 PUSH1 0x20 SWAP1 POP PUSH1 0x1F DUP4 GT PUSH1 0x1 DUP2 EQ PUSH2 0x4121 JUMPI PUSH0 DUP5 ISZERO PUSH2 0x410F JUMPI DUP3 DUP8 ADD MLOAD SWAP1 POP JUMPDEST PUSH2 0x4119 DUP6 DUP3 PUSH2 0x409E JUMP JUMPDEST DUP7 SSTORE POP PUSH2 0x4180 JUMP JUMPDEST PUSH1 0x1F NOT DUP5 AND PUSH2 0x412F DUP7 PUSH2 0x3F25 JUMP JUMPDEST PUSH0 JUMPDEST DUP3 DUP2 LT ISZERO PUSH2 0x4156 JUMPI DUP5 DUP10 ADD MLOAD DUP3 SSTORE PUSH1 0x1 DUP3 ADD SWAP2 POP PUSH1 0x20 DUP6 ADD SWAP5 POP PUSH1 0x20 DUP2 ADD SWAP1 POP PUSH2 0x4131 JUMP JUMPDEST DUP7 DUP4 LT ISZERO PUSH2 0x4173 JUMPI DUP5 DUP10 ADD MLOAD PUSH2 0x416F PUSH1 0x1F DUP10 AND DUP3 PUSH2 0x4082 JUMP JUMPDEST DUP4 SSTORE POP JUMPDEST PUSH1 0x1 PUSH1 0x2 DUP9 MUL ADD DUP9 SSTORE POP POP POP JUMPDEST POP POP POP POP POP POP JUMP JUMPDEST PUSH0 PUSH1 0x40 DUP3 ADD SWAP1 POP PUSH2 0x419B PUSH0 DUP4 ADD DUP6 PUSH2 0x37D6 JUMP JUMPDEST PUSH2 0x41A8 PUSH1 0x20 DUP4 ADD DUP5 PUSH2 0x3B35 JUMP JUMPDEST SWAP4 SWAP3 POP POP POP JUMP JUMPDEST PUSH32 0x4E487B7100000000000000000000000000000000000000000000000000000000 PUSH0 MSTORE PUSH1 0x11 PUSH1 0x4 MSTORE PUSH1 0x24 PUSH0 REVERT JUMPDEST PUSH0 PUSH2 0x41E6 DUP3 PUSH2 0x37CD JUMP JUMPDEST SWAP2 POP PUSH32 0xFFFFFFFFFFFFFFFFFFFFFFFFFFFFFFFFFFFFFFFFFFFFFFFFFFFFFFFFFFFFFFFF DUP3 SUB PUSH2 0x4218 JUMPI PUSH2 0x4217 PUSH2 0x41AF JUMP JUMPDEST JUMPDEST PUSH1 0x1 DUP3 ADD SWAP1 POP SWAP2 SWAP1 POP JUMP JUMPDEST PUSH32 0x4F6E6C792061646D696E2063616E20706572666F726D20746869732061637469 PUSH0 DUP3 ADD MSTORE PUSH32 0x6F6E000000000000000000000000000000000000000000000000000000000000 PUSH1 0x20 DUP3 ADD MSTORE POP JUMP JUMPDEST PUSH0 PUSH2 0x427D PUSH1 0x22 DUP4 PUSH2 0x3C9B JUMP JUMPDEST SWAP2 POP PUSH2 0x4288 DUP3 PUSH2 0x4223 JUMP JUMPDEST PUSH1 0x40 DUP3 ADD SWAP1 POP SWAP2 SWAP1 POP JUMP JUMPDEST PUSH0 PUSH1 0x20 DUP3 ADD SWAP1 POP DUP2 DUP2 SUB PUSH0 DUP4 ADD MSTORE PUSH2 0x42AA DUP2 PUSH2 0x4271 JUMP JUMPDEST SWAP1 POP SWAP2 SWAP1 POP JUMP JUMPDEST PUSH32 0x41646D696E2063616E206F6E6C7920746F67676C65206368616E67655365636F PUSH0 DUP3 ADD MSTORE PUSH32 0x6E6441646D696E00000000000000000000000000000000000000000000000000 PUSH1 0x20 DUP3 ADD MSTORE POP JUMP JUMPDEST PUSH0 PUSH2 0x430B PUSH1 0x27 DUP4 PUSH2 0x3C9B JUMP JUMPDEST SWAP2 POP PUSH2 0x4316 DUP3 PUSH2 0x42B1 JUMP JUMPDEST PUSH1 0x40 DUP3 ADD SWAP1 POP SWAP2 SWAP1 POP JUMP JUMPDEST PUSH0 PUSH1 0x20 DUP3 ADD SWAP1 POP DUP2 DUP2 SUB PUSH0 DUP4 ADD MSTORE PUSH2 0x4338 DUP2 PUSH2 0x42FF JUMP JUMPDEST SWAP1 POP SWAP2 SWAP1 POP JUMP JUMPDEST PUSH0 DUP2 SWAP1 POP SWAP3 SWAP2 POP POP JUMP JUMPDEST PUSH0 PUSH2 0x4353 DUP3 PUSH2 0x3C91 JUMP JUMPDEST PUSH2 0x435D DUP2 DUP6 PUSH2 0x433F JUMP JUMPDEST SWAP4 POP PUSH2 0x436D DUP2 DUP6 PUSH1 0x20 DUP7 ADD PUSH2 0x3CAB JUMP JUMPDEST DUP1 DUP5 ADD SWAP2 POP POP SWAP3 SWAP2 POP POP JUMP JUMPDEST PUSH0 PUSH2 0x4384 DUP3 DUP5 PUSH2 0x4349 JUMP JUMPDEST SWAP2 POP DUP2 SWAP1 POP SWAP3 SWAP2 POP POP JUMP JUMPDEST PUSH32 0x46756E6374696F6E2069732064697361626C6564000000000000000000000000 PUSH0 DUP3 ADD MSTORE POP JUMP JUMPDEST PUSH0 PUSH2 0x43C3 PUSH1 0x14 DUP4 PUSH2 0x3C9B JUMP JUMPDEST SWAP2 POP PUSH2 0x43CE DUP3 PUSH2 0x438F JUMP JUMPDEST PUSH1 0x20 DUP3 ADD SWAP1 POP SWAP2 SWAP1 POP JUMP JUMPDEST PUSH0 PUSH1 0x20 DUP3 ADD SWAP1 POP DUP2 DUP2 SUB PUSH0 DUP4 ADD MSTORE PUSH2 0x43F0 DUP2 PUSH2 0x43B7 JUMP JUMPDEST SWAP1 POP SWAP2 SWAP1 POP JUMP JUMPDEST PUSH32 0x456C656D656E74206973206E6F742070656E64696E6720617070726F76616C00 PUSH0 DUP3 ADD MSTORE POP JUMP JUMPDEST PUSH0 PUSH2 0x442B PUSH1 0x1F DUP4 PUSH2 0x3C9B JUMP JUMPDEST SWAP2 POP PUSH2 0x4436 DUP3 PUSH2 0x43F7 JUMP JUMPDEST PUSH1 0x20 DUP3 ADD SWAP1 POP SWAP2 SWAP1 POP JUMP JUMPDEST PUSH0 PUSH1 0x20 DUP3 ADD SWAP1 POP DUP2 DUP2 SUB PUSH0 DUP4 ADD MSTORE PUSH2 0x4458 DUP2 PUSH2 0x441F JUMP JUMPDEST SWAP1 POP SWAP2 SWAP1 POP JUMP JUMPDEST PUSH0 PUSH2 0x4469 DUP3 PUSH2 0x37CD JUMP JUMPDEST SWAP2 POP PUSH2 0x4474 DUP4 PUSH2 0x37CD JUMP JUMPDEST SWAP3 POP DUP3 DUP3 SUB SWAP1 POP DUP2 DUP2 GT ISZERO PUSH2 0x448C JUMPI PUSH2 0x448B PUSH2 0x41AF JUMP JUMPDEST JUMPDEST SWAP3 SWAP2 POP POP JUMP JUMPDEST PUSH0 PUSH2 0x449C DUP3 PUSH2 0x37CD JUMP JUMPDEST SWAP2 POP PUSH2 0x44A7 DUP4 PUSH2 0x37CD JUMP JUMPDEST SWAP3 POP DUP3 DUP3 MUL PUSH2 0x44B5 DUP2 PUSH2 0x37CD JUMP JUMPDEST SWAP2 POP DUP3 DUP3 DIV DUP5 EQ DUP4 ISZERO OR PUSH2 0x44CC JUMPI PUSH2 0x44CB PUSH2 0x41AF JUMP JUMPDEST JUMPDEST POP SWAP3 SWAP2 POP POP JUMP JUMPDEST PUSH32 0x4E487B7100000000000000000000000000000000000000000000000000000000 PUSH0 MSTORE PUSH1 0x12 PUSH1 0x4 MSTORE PUSH1 0x24 PUSH0 REVERT JUMPDEST PUSH0 PUSH2 0x450A DUP3 PUSH2 0x37CD JUMP JUMPDEST SWAP2 POP PUSH2 0x4515 DUP4 PUSH2 0x37CD JUMP JUMPDEST SWAP3 POP DUP3 PUSH2 0x4525 JUMPI PUSH2 0x4524 PUSH2 0x44D3 JUMP JUMPDEST JUMPDEST DUP3 DUP3 DIV SWAP1 POP SWAP3 SWAP2 POP POP JUMP JUMPDEST PUSH32 0x4D696E696D756D20756E7374616B6520616D6F756E74206973203120746F6B65 PUSH0 DUP3 ADD MSTORE PUSH32 0x6E00000000000000000000000000000000000000000000000000000000000000 PUSH1 0x20 DUP3 ADD MSTORE POP JUMP JUMPDEST PUSH0 PUSH2 0x458A PUSH1 0x21 DUP4 PUSH2 0x3C9B JUMP JUMPDEST SWAP2 POP PUSH2 0x4595 DUP3 PUSH2 0x4530 JUMP JUMPDEST PUSH1 0x40 DUP3 ADD SWAP1 POP SWAP2 SWAP1 POP JUMP JUMPDEST PUSH0 PUSH1 0x20 DUP3 ADD SWAP1 POP DUP2 DUP2 SUB PUSH0 DUP4 ADD MSTORE PUSH2 0x45B7 DUP2 PUSH2 0x457E JUMP JUMPDEST SWAP1 POP SWAP2 SWAP1 POP JUMP JUMPDEST PUSH32 0x496E73756666696369656E74207374616B656420616D6F756E74000000000000 PUSH0 DUP3 ADD MSTORE POP JUMP JUMPDEST PUSH0 PUSH2 0x45F2 PUSH1 0x1A DUP4 PUSH2 0x3C9B JUMP JUMPDEST SWAP2 POP PUSH2 0x45FD DUP3 PUSH2 0x45BE JUMP JUMPDEST PUSH1 0x20 DUP3 ADD SWAP1 POP SWAP2 SWAP1 POP JUMP JUMPDEST PUSH0 PUSH1 0x20 DUP3 ADD SWAP1 POP DUP2 DUP2 SUB PUSH0 DUP4 ADD MSTORE PUSH2 0x461F DUP2 PUSH2 0x45E6 JUMP JUMPDEST SWAP1 POP SWAP2 SWAP1 POP JUMP JUMPDEST PUSH32 0x4F6E6C79207365636F6E642061646D696E2063616E20706572666F726D207468 PUSH0 DUP3 ADD MSTORE PUSH32 0x697320616374696F6E0000000000000000000000000000000000000000000000 PUSH1 0x20 DUP3 ADD MSTORE POP JUMP JUMPDEST PUSH0 PUSH2 0x4680 PUSH1 0x29 DUP4 PUSH2 0x3C9B JUMP JUMPDEST SWAP2 POP PUSH2 0x468B DUP3 PUSH2 0x4626 JUMP JUMPDEST PUSH1 0x40 DUP3 ADD SWAP1 POP SWAP2 SWAP1 POP JUMP JUMPDEST PUSH0 PUSH1 0x20 DUP3 ADD SWAP1 POP DUP2 DUP2 SUB PUSH0 DUP4 ADD MSTORE PUSH2 0x46AD DUP2 PUSH2 0x4674 JUMP JUMPDEST SWAP1 POP SWAP2 SWAP1 POP JUMP JUMPDEST PUSH32 0x5365636F6E642061646D696E2063616E6E6F7420746F67676C65206368616E67 PUSH0 DUP3 ADD MSTORE PUSH32 0x655365636F6E6441646D696E0000000000000000000000000000000000000000 PUSH1 0x20 DUP3 ADD MSTORE POP JUMP JUMPDEST PUSH0 PUSH2 0x470E PUSH1 0x2C DUP4 PUSH2 0x3C9B JUMP JUMPDEST SWAP2 POP PUSH2 0x4719 DUP3 PUSH2 0x46B4 JUMP JUMPDEST PUSH1 0x40 DUP3 ADD SWAP1 POP SWAP2 SWAP1 POP JUMP JUMPDEST PUSH0 PUSH1 0x20 DUP3 ADD SWAP1 POP DUP2 DUP2 SUB PUSH0 DUP4 ADD MSTORE PUSH2 0x473B DUP2 PUSH2 0x4702 JUMP JUMPDEST SWAP1 POP SWAP2 SWAP1 POP JUMP JUMPDEST PUSH32 0x456C656D656E7420697320616C726561647920696E2074686520507265737469 PUSH0 DUP3 ADD MSTORE PUSH32 0x6765207068617365000000000000000000000000000000000000000000000000 PUSH1 0x20 DUP3 ADD MSTORE POP JUMP JUMPDEST PUSH0 PUSH2 0x479C PUSH1 0x28 DUP4 PUSH2 0x3C9B JUMP JUMPDEST SWAP2 POP PUSH2 0x47A7 DUP3 PUSH2 0x4742 JUMP JUMPDEST PUSH1 0x40 DUP3 ADD SWAP1 POP SWAP2 SWAP1 POP JUMP JUMPDEST PUSH0 PUSH1 0x20 DUP3 ADD SWAP1 POP DUP2 DUP2 SUB PUSH0 DUP4 ADD MSTORE PUSH2 0x47C9 DUP2 PUSH2 0x4790 JUMP JUMPDEST SWAP1 POP SWAP2 SWAP1 POP JUMP JUMPDEST PUSH0 PUSH2 0x47DA DUP3 PUSH2 0x37CD JUMP JUMPDEST SWAP2 POP PUSH2 0x47E5 DUP4 PUSH2 0x37CD JUMP JUMPDEST SWAP3 POP DUP3 DUP3 ADD SWAP1 POP DUP1 DUP3 GT ISZERO PUSH2 0x47FD JUMPI PUSH2 0x47FC PUSH2 0x41AF JUMP JUMPDEST JUMPDEST SWAP3 SWAP2 POP POP JUMP JUMPDEST PUSH32 0x4E487B7100000000000000000000000000000000000000000000000000000000 PUSH0 MSTORE PUSH1 0x21 PUSH1 0x4 MSTORE PUSH1 0x24 PUSH0 REVERT JUMPDEST PUSH32 0x416D6F756E74206D7573742062652067726561746572207468616E207A65726F PUSH0 DUP3 ADD MSTORE POP JUMP JUMPDEST PUSH0 PUSH2 0x4864 PUSH1 0x20 DUP4 PUSH2 0x3C9B JUMP JUMPDEST SWAP2 POP PUSH2 0x486F DUP3 PUSH2 0x4830 JUMP JUMPDEST PUSH1 0x20 DUP3 ADD SWAP1 POP SWAP2 SWAP1 POP JUMP JUMPDEST PUSH0 PUSH1 0x20 DUP3 ADD SWAP1 POP DUP2 DUP2 SUB PUSH0 DUP4 ADD MSTORE PUSH2 0x4891 DUP2 PUSH2 0x4858 JUMP JUMPDEST SWAP1 POP SWAP2 SWAP1 POP JUMP JUMPDEST PUSH32 0x496E73756666696369656E7420766F74696E6720706F77657200000000000000 PUSH0 DUP3 ADD MSTORE POP JUMP JUMPDEST PUSH0 PUSH2 0x48CC PUSH1 0x19 DUP4 PUSH2 0x3C9B JUMP JUMPDEST SWAP2 POP PUSH2 0x48D7 DUP3 PUSH2 0x4898 JUMP JUMPDEST PUSH1 0x20 DUP3 ADD SWAP1 POP SWAP2 SWAP1 POP JUMP JUMPDEST PUSH0 PUSH1 0x20 DUP3 ADD SWAP1 POP DUP2 DUP2 SUB PUSH0 DUP4 ADD MSTORE PUSH2 0x48F9 DUP2 PUSH2 0x48C0 JUMP JUMPDEST SWAP1 POP SWAP2 SWAP1 POP JUMP JUMPDEST PUSH32 0x5374616B696E672069732064697361626C656400000000000000000000000000 PUSH0 DUP3 ADD MSTORE POP JUMP JUMPDEST PUSH0 PUSH2 0x4934 PUSH1 0x13 DUP4 PUSH2 0x3C9B JUMP JUMPDEST SWAP2 POP PUSH2 0x493F DUP3 PUSH2 0x4900 JUMP JUMPDEST PUSH1 0x20 DUP3 ADD SWAP1 POP SWAP2 SWAP1 POP JUMP JUMPDEST PUSH0 PUSH1 0x20 DUP3 ADD SWAP1 POP DUP2 DUP2 SUB PUSH0 DUP4 ADD MSTORE PUSH2 0x4961 DUP2 PUSH2 0x4928 JUMP JUMPDEST SWAP1 POP SWAP2 SWAP1 POP JUMP JUMPDEST PUSH32 0x4D696E696D756D207374616B6520616D6F756E74206973203120746F6B656E00 PUSH0 DUP3 ADD MSTORE POP JUMP JUMPDEST PUSH0 PUSH2 0x499C PUSH1 0x1F DUP4 PUSH2 0x3C9B JUMP JUMPDEST SWAP2 POP PUSH2 0x49A7 DUP3 PUSH2 0x4968 JUMP JUMPDEST PUSH1 0x20 DUP3 ADD SWAP1 POP SWAP2 SWAP1 POP JUMP JUMPDEST PUSH0 PUSH1 0x20 DUP3 ADD SWAP1 POP DUP2 DUP2 SUB PUSH0 DUP4 ADD MSTORE PUSH2 0x49C9 DUP2 PUSH2 0x4990 JUMP JUMPDEST SWAP1 POP SWAP2 SWAP1 POP JUMP JUMPDEST PUSH32 0x4F6E6C792074686972642061646D696E2063616E20706572666F726D20746869 PUSH0 DUP3 ADD MSTORE PUSH32 0x7320616374696F6E000000000000000000000000000000000000000000000000 PUSH1 0x20 DUP3 ADD MSTORE POP JUMP JUMPDEST PUSH0 PUSH2 0x4A2A PUSH1 0x28 DUP4 PUSH2 0x3C9B JUMP JUMPDEST SWAP2 POP PUSH2 0x4A35 DUP3 PUSH2 0x49D0 JUMP JUMPDEST PUSH1 0x40 DUP3 ADD SWAP1 POP SWAP2 SWAP1 POP JUMP JUMPDEST PUSH0 PUSH1 0x20 DUP3 ADD SWAP1 POP DUP2 DUP2 SUB PUSH0 DUP4 ADD MSTORE PUSH2 0x4A57 DUP2 PUSH2 0x4A1E JUMP JUMPDEST SWAP1 POP SWAP2 SWAP1 POP JUMP JUMPDEST PUSH32 0x4E65772061646D696E20616464726573732063616E6E6F74206265207A65726F PUSH0 DUP3 ADD MSTORE POP JUMP JUMPDEST PUSH0 PUSH2 0x4A92 PUSH1 0x20 DUP4 PUSH2 0x3C9B JUMP JUMPDEST SWAP2 POP PUSH2 0x4A9D DUP3 PUSH2 0x4A5E JUMP JUMPDEST PUSH1 0x20 DUP3 ADD SWAP1 POP SWAP2 SWAP1 POP JUMP JUMPDEST PUSH0 PUSH1 0x20 DUP3 ADD SWAP1 POP DUP2 DUP2 SUB PUSH0 DUP4 ADD MSTORE PUSH2 0x4ABF DUP2 PUSH2 0x4A86 JUMP JUMPDEST SWAP1 POP SWAP2 SWAP1 POP JUMP JUMPDEST PUSH32 0x4F6E6C792063726561746F722063616E20757064617465000000000000000000 PUSH0 DUP3 ADD MSTORE POP JUMP JUMPDEST PUSH0 PUSH2 0x4AFA PUSH1 0x17 DUP4 PUSH2 0x3C9B JUMP JUMPDEST SWAP2 POP PUSH2 0x4B05 DUP3 PUSH2 0x4AC6 JUMP JUMPDEST PUSH1 0x20 DUP3 ADD SWAP1 POP SWAP2 SWAP1 POP JUMP JUMPDEST PUSH0 PUSH1 0x20 DUP3 ADD SWAP1 POP DUP2 DUP2 SUB PUSH0 DUP4 ADD MSTORE PUSH2 0x4B27 DUP2 PUSH2 0x4AEE JUMP JUMPDEST SWAP1 POP SWAP2 SWAP1 POP JUMP JUMPDEST PUSH32 0x4E6F207374616B656420616D6F756E7400000000000000000000000000000000 PUSH0 DUP3 ADD MSTORE POP JUMP JUMPDEST PUSH0 PUSH2 0x4B62 PUSH1 0x10 DUP4 PUSH2 0x3C9B JUMP JUMPDEST SWAP2 POP PUSH2 0x4B6D DUP3 PUSH2 0x4B2E JUMP JUMPDEST PUSH1 0x20 DUP3 ADD SWAP1 POP SWAP2 SWAP1 POP JUMP JUMPDEST PUSH0 PUSH1 0x20 DUP3 ADD SWAP1 POP DUP2 DUP2 SUB PUSH0 DUP4 ADD MSTORE PUSH2 0x4B8F DUP2 PUSH2 0x4B56 JUMP JUMPDEST SWAP1 POP SWAP2 SWAP1 POP JUMP JUMPDEST PUSH32 0x43616E6E6F7420636C61696D206265666F72652061206D6F6E74680000000000 PUSH0 DUP3 ADD MSTORE POP JUMP JUMPDEST PUSH0 PUSH2 0x4BCA PUSH1 0x1B DUP4 PUSH2 0x3C9B JUMP JUMPDEST SWAP2 POP PUSH2 0x4BD5 DUP3 PUSH2 0x4B96 JUMP JUMPDEST PUSH1 0x20 DUP3 ADD SWAP1 POP SWAP2 SWAP1 POP JUMP JUMPDEST PUSH0 PUSH1 0x20 DUP3 ADD SWAP1 POP DUP2 DUP2 SUB PUSH0 DUP4 ADD MSTORE PUSH2 0x4BF7 DUP2 PUSH2 0x4BBE JUMP JUMPDEST SWAP1 POP SWAP2 SWAP1 POP JUMP JUMPDEST PUSH32 0x4E6577207365636F6E642061646D696E20616464726573732063616E6E6F7420 PUSH0 DUP3 ADD MSTORE PUSH32 0x6265207A65726F00000000000000000000000000000000000000000000000000 PUSH1 0x20 DUP3 ADD MSTORE POP JUMP JUMPDEST PUSH0 PUSH2 0x4C58 PUSH1 0x27 DUP4 PUSH2 0x3C9B JUMP JUMPDEST SWAP2 POP PUSH2 0x4C63 DUP3 PUSH2 0x4BFE JUMP JUMPDEST PUSH1 0x40 DUP3 ADD SWAP1 POP SWAP2 SWAP1 POP JUMP JUMPDEST PUSH0 PUSH1 0x20 DUP3 ADD SWAP1 POP DUP2 DUP2 SUB PUSH0 DUP4 ADD MSTORE PUSH2 0x4C85 DUP2 PUSH2 0x4C4C JUMP JUMPDEST SWAP1 POP SWAP2 SWAP1 POP JUMP JUMPDEST PUSH32 0x5265656E7472616E637947756172643A207265656E7472616E742063616C6C00 PUSH0 DUP3 ADD MSTORE POP JUMP JUMPDEST PUSH0 PUSH2 0x4CC0 PUSH1 0x1F DUP4 PUSH2 0x3C9B JUMP JUMPDEST SWAP2 POP PUSH2 0x4CCB DUP3 PUSH2 0x4C8C JUMP JUMPDEST PUSH1 0x20 DUP3 ADD SWAP1 POP SWAP2 SWAP1 POP JUMP JUMPDEST PUSH0 PUSH1 0x20 DUP3 ADD SWAP1 POP DUP2 DUP2 SUB PUSH0 DUP4 ADD MSTORE PUSH2 0x4CED DUP2 PUSH2 0x4CB4 JUMP JUMPDEST SWAP1 POP SWAP2 SWAP1 POP JUMP JUMPDEST PUSH0 PUSH1 0x60 DUP3 ADD SWAP1 POP PUSH2 0x4D07 PUSH0 DUP4 ADD DUP7 PUSH2 0x3B35 JUMP JUMPDEST PUSH2 0x4D14 PUSH1 0x20 DUP4 ADD DUP6 PUSH2 0x3B35 JUMP JUMPDEST PUSH2 0x4D21 PUSH1 0x40 DUP4 ADD DUP5 PUSH2 0x37D6 JUMP JUMPDEST SWAP5 SWAP4 POP POP POP POP JUMP JUMPDEST PUSH0 PUSH1 0x40 DUP3 ADD SWAP1 POP PUSH2 0x4D3C PUSH0 DUP4 ADD DUP6 PUSH2 0x3B35 JUMP JUMPDEST PUSH2 0x4D49 PUSH1 0x20 DUP4 ADD DUP5 PUSH2 0x37D6 JUMP JUMPDEST SWAP4 SWAP3 POP POP POP JUMP JUMPDEST PUSH0 DUP2 MLOAD SWAP1 POP PUSH2 0x4D5E DUP2 PUSH2 0x3AB1 JUMP JUMPDEST SWAP3 SWAP2 POP POP JUMP JUMPDEST PUSH0 PUSH1 0x20 DUP3 DUP5 SUB SLT ISZERO PUSH2 0x4D79 JUMPI PUSH2 0x4D78 PUSH2 0x3740 JUMP JUMPDEST JUMPDEST PUSH0 PUSH2 0x4D86 DUP5 DUP3 DUP6 ADD PUSH2 0x4D50 JUMP JUMPDEST SWAP2 POP POP SWAP3 SWAP2 POP POP JUMP JUMPDEST PUSH0 DUP2 MLOAD SWAP1 POP SWAP2 SWAP1 POP JUMP JUMPDEST PUSH0 DUP2 SWAP1 POP SWAP3 SWAP2 POP POP JUMP JUMPDEST PUSH0 PUSH2 0x4DAD DUP3 PUSH2 0x4D8F JUMP JUMPDEST PUSH2 0x4DB7 DUP2 DUP6 PUSH2 0x4D99 JUMP JUMPDEST SWAP4 POP PUSH2 0x4DC7 DUP2 DUP6 PUSH1 0x20 DUP7 ADD PUSH2 0x3CAB JUMP JUMPDEST DUP1 DUP5 ADD SWAP2 POP POP SWAP3 SWAP2 POP POP JUMP JUMPDEST PUSH0 PUSH2 0x4DDE DUP3 DUP5 PUSH2 0x4DA3 JUMP JUMPDEST SWAP2 POP DUP2 SWAP1 POP SWAP3 SWAP2 POP POP JUMP INVALID LOG2 PUSH5 0x6970667358 0x22 SLT KECCAK256 0xDE 0xA5 PUSH23 0x77E8C9D05DA8E97C0B2F04C5C4943A733BEA24741BC9BA SWAP9 SWAP16 0x4E 0x28 SLT OR PUSH5 0x736F6C6343 STOP ADDMOD EQ STOP CALLER "
		},
		"gasEstimates": {
			"creation": {
				"codeDepositCost": "3999800",
				"executionCost": "infinite",
				"totalCost": "infinite"
			},
			"external": {
				"ELEMENT_CREATION_COST()": "392",
				"MINIMUM_STAKE_AMOUNT()": "437",
				"SECONDS_IN_MONTH()": "infinite",
				"SECONDS_IN_YEAR()": "414",
				"admin()": "2691",
				"approveElement(uint256)": "infinite",
				"calculateMonthlyReward(uint256,uint256)": "infinite",
				"changeAdmin(address)": "infinite",
				"changeGeneralStatus()": "28834",
				"changeSecondAdmin(address)": "infinite",
				"claimMonthlyReward()": "infinite",
				"confirmUpdate(uint256)": "infinite",
				"createElement(string,string,string,string,string)": "infinite",
				"elementCount()": "2580",
				"elements(uint256)": "infinite",
				"functionStatus(string)": "infinite",
				"generalStatus()": "2513",
				"getAnnualRewardRate(uint256)": "infinite",
				"getClaimableReward(address)": "infinite",
				"getLastClaimedDate(address)": "2962",
				"getTotalStakedTokens()": "2499",
				"getTotalTokenBalance()": "infinite",
				"hasPendingApplication(address)": "infinite",
				"lastClaimed(address)": "2871",
				"lopToken()": "infinite",
				"refuseUpdate(uint256)": "infinite",
				"rejectElement(uint256)": "infinite",
				"removeElement(uint256)": "infinite",
				"secondAdmin()": "2598",
				"stakeTokens(uint256)": "infinite",
				"stakes(address)": "2937",
				"startingDate(address)": "2870",
				"thirdAdmin()": "2642",
				"toggleFunctionStatus(string,bool)": "infinite",
				"toggleFunctionStatusByAdmin(string,bool)": "infinite",
				"totalStakedTokens()": "2559",
				"updateElementMetrics(uint256,string)": "infinite",
				"updateElementTutorial(uint256,string)": "infinite",
				"updateElementWebsite(uint256,string)": "infinite",
				"voteOnElement(uint256,uint256)": "infinite",
				"votingPower(address)": "2847",
				"withdrawStake(uint256)": "infinite"
			},
			"internal": {
				"distributeElementReward(uint256)": "infinite",
				"getTotalVotes()": "infinite"
			}
		},
		"methodIdentifiers": {
			"ELEMENT_CREATION_COST()": "c5e48e5a",
			"MINIMUM_STAKE_AMOUNT()": "84d804be",
			"SECONDS_IN_MONTH()": "27855b13",
			"SECONDS_IN_YEAR()": "5dcc9391",
			"admin()": "f851a440",
			"approveElement(uint256)": "c9b3829f",
			"calculateMonthlyReward(uint256,uint256)": "20cb13ab",
			"changeAdmin(address)": "8f283970",
			"changeGeneralStatus()": "8fddd022",
			"changeSecondAdmin(address)": "dd8087d1",
			"claimMonthlyReward()": "d4f1e386",
			"confirmUpdate(uint256)": "3b72bad5",
			"createElement(string,string,string,string,string)": "0a274280",
			"elementCount()": "67be4673",
			"elements(uint256)": "e0d64b37",
			"functionStatus(string)": "613dab3e",
			"generalStatus()": "0053b4b3",
			"getAnnualRewardRate(uint256)": "f9089bf2",
			"getClaimableReward(address)": "5ff329af",
			"getLastClaimedDate(address)": "cc78d728",
			"getTotalStakedTokens()": "51d18598",
			"getTotalTokenBalance()": "d69eca4c",
			"hasPendingApplication(address)": "6b8d04fb",
			"lastClaimed(address)": "013eba92",
			"lopToken()": "0d67f59e",
			"refuseUpdate(uint256)": "36ead39f",
			"rejectElement(uint256)": "1faa1128",
			"removeElement(uint256)": "9fc37abf",
			"secondAdmin()": "1d32e9b3",
			"stakeTokens(uint256)": "7547c7a3",
			"stakes(address)": "16934fc4",
			"startingDate(address)": "1d002cc0",
			"thirdAdmin()": "8b52e06c",
			"toggleFunctionStatus(string,bool)": "2a9aaa76",
			"toggleFunctionStatusByAdmin(string,bool)": "17504b98",
			"totalStakedTokens()": "3ae73259",
			"updateElementMetrics(uint256,string)": "c7b3564e",
			"updateElementTutorial(uint256,string)": "a721ebdd",
			"updateElementWebsite(uint256,string)": "b17146c8",
			"voteOnElement(uint256,uint256)": "72bae674",
			"votingPower(address)": "c07473f6",
			"withdrawStake(uint256)": "25d5971f"
		}
	},
	"abi": [
		{
			"inputs": [
				{
					"internalType": "address",
					"name": "_lopToken",
					"type": "address"
				},
				{
					"internalType": "address",
					"name": "_secondAdmin",
					"type": "address"
				},
				{
					"internalType": "address",
					"name": "_thirdAdmin",
					"type": "address"
				}
			],
			"stateMutability": "nonpayable",
			"type": "constructor"
		},
		{
			"inputs": [
				{
					"internalType": "address",
					"name": "target",
					"type": "address"
				}
			],
			"name": "AddressEmptyCode",
			"type": "error"
		},
		{
			"inputs": [
				{
					"internalType": "address",
					"name": "account",
					"type": "address"
				}
			],
			"name": "AddressInsufficientBalance",
			"type": "error"
		},
		{
			"inputs": [],
			"name": "FailedInnerCall",
			"type": "error"
		},
		{
			"inputs": [
				{
					"internalType": "address",
					"name": "token",
					"type": "address"
				}
			],
			"name": "SafeERC20FailedOperation",
			"type": "error"
		},
		{
			"anonymous": false,
			"inputs": [
				{
					"indexed": false,
					"internalType": "uint256",
					"name": "elementId",
					"type": "uint256"
				}
			],
			"name": "ElementApproved",
			"type": "event"
		},
		{
			"anonymous": false,
			"inputs": [
				{
					"indexed": false,
					"internalType": "uint256",
					"name": "elementId",
					"type": "uint256"
				},
				{
					"indexed": false,
					"internalType": "address",
					"name": "creator",
					"type": "address"
				}
			],
			"name": "ElementCreated",
			"type": "event"
		},
		{
			"anonymous": false,
			"inputs": [
				{
					"indexed": false,
					"internalType": "uint256",
					"name": "elementId",
					"type": "uint256"
				}
			],
			"name": "ElementRejected",
			"type": "event"
		},
		{
			"anonymous": false,
			"inputs": [
				{
					"indexed": false,
					"internalType": "uint256",
					"name": "elementId",
					"type": "uint256"
				}
			],
			"name": "ElementRemoved",
			"type": "event"
		},
		{
			"inputs": [],
			"name": "ELEMENT_CREATION_COST",
			"outputs": [
				{
					"internalType": "uint256",
					"name": "",
					"type": "uint256"
				}
			],
			"stateMutability": "view",
			"type": "function"
		},
		{
			"inputs": [],
			"name": "MINIMUM_STAKE_AMOUNT",
			"outputs": [
				{
					"internalType": "uint256",
					"name": "",
					"type": "uint256"
				}
			],
			"stateMutability": "view",
			"type": "function"
		},
		{
			"inputs": [],
			"name": "SECONDS_IN_MONTH",
			"outputs": [
				{
					"internalType": "uint256",
					"name": "",
					"type": "uint256"
				}
			],
			"stateMutability": "view",
			"type": "function"
		},
		{
			"inputs": [],
			"name": "SECONDS_IN_YEAR",
			"outputs": [
				{
					"internalType": "uint256",
					"name": "",
					"type": "uint256"
				}
			],
			"stateMutability": "view",
			"type": "function"
		},
		{
			"inputs": [],
			"name": "admin",
			"outputs": [
				{
					"internalType": "address",
					"name": "",
					"type": "address"
				}
			],
			"stateMutability": "view",
			"type": "function"
		},
		{
			"inputs": [
				{
					"internalType": "uint256",
					"name": "elementId",
					"type": "uint256"
				}
			],
			"name": "approveElement",
			"outputs": [],
			"stateMutability": "nonpayable",
			"type": "function"
		},
		{
			"inputs": [
				{
					"internalType": "uint256",
					"name": "stakeAmount",
					"type": "uint256"
				},
				{
					"internalType": "uint256",
					"name": "startTime",
					"type": "uint256"
				}
			],
			"name": "calculateMonthlyReward",
			"outputs": [
				{
					"internalType": "uint256",
					"name": "",
					"type": "uint256"
				}
			],
			"stateMutability": "view",
			"type": "function"
		},
		{
			"inputs": [
				{
					"internalType": "address",
					"name": "newAdmin",
					"type": "address"
				}
			],
			"name": "changeAdmin",
			"outputs": [],
			"stateMutability": "nonpayable",
			"type": "function"
		},
		{
			"inputs": [],
			"name": "changeGeneralStatus",
			"outputs": [],
			"stateMutability": "nonpayable",
			"type": "function"
		},
		{
			"inputs": [
				{
					"internalType": "address",
					"name": "newSecondAdmin",
					"type": "address"
				}
			],
			"name": "changeSecondAdmin",
			"outputs": [],
			"stateMutability": "nonpayable",
			"type": "function"
		},
		{
			"inputs": [],
			"name": "claimMonthlyReward",
			"outputs": [],
			"stateMutability": "nonpayable",
			"type": "function"
		},
		{
			"inputs": [
				{
					"internalType": "uint256",
					"name": "elementId",
					"type": "uint256"
				}
			],
			"name": "confirmUpdate",
			"outputs": [],
			"stateMutability": "nonpayable",
			"type": "function"
		},
		{
			"inputs": [
				{
					"internalType": "string",
					"name": "name",
					"type": "string"
				},
				{
					"internalType": "string",
					"name": "description",
					"type": "string"
				},
				{
					"internalType": "string",
					"name": "whitepaperLink",
					"type": "string"
				},
				{
					"internalType": "string",
					"name": "email",
					"type": "string"
				},
				{
					"internalType": "string",
					"name": "logoUrl",
					"type": "string"
				}
			],
			"name": "createElement",
			"outputs": [],
			"stateMutability": "nonpayable",
			"type": "function"
		},
		{
			"inputs": [],
			"name": "elementCount",
			"outputs": [
				{
					"internalType": "uint256",
					"name": "",
					"type": "uint256"
				}
			],
			"stateMutability": "view",
			"type": "function"
		},
		{
			"inputs": [
				{
					"internalType": "uint256",
					"name": "",
					"type": "uint256"
				}
			],
			"name": "elements",
			"outputs": [
				{
					"internalType": "string",
					"name": "name",
					"type": "string"
				},
				{
					"internalType": "string",
					"name": "description",
					"type": "string"
				},
				{
					"internalType": "string",
					"name": "whitepaperLink",
					"type": "string"
				},
				{
					"internalType": "string",
					"name": "websiteLink",
					"type": "string"
				},
				{
					"internalType": "string",
					"name": "tutorialLink",
					"type": "string"
				},
				{
					"internalType": "string",
					"name": "performanceMetricsLink",
					"type": "string"
				},
				{
					"internalType": "string",
					"name": "email",
					"type": "string"
				},
				{
					"internalType": "string",
					"name": "logoUrl",
					"type": "string"
				},
				{
					"internalType": "address",
					"name": "creator",
					"type": "address"
				},
				{
					"internalType": "uint256",
					"name": "phase",
					"type": "uint256"
				},
				{
					"internalType": "uint256",
					"name": "lastUpdate",
					"type": "uint256"
				},
				{
					"internalType": "uint256",
					"name": "voteCount",
					"type": "uint256"
				}
			],
			"stateMutability": "view",
			"type": "function"
		},
		{
			"inputs": [
				{
					"internalType": "string",
					"name": "",
					"type": "string"
				}
			],
			"name": "functionStatus",
			"outputs": [
				{
					"internalType": "bool",
					"name": "",
					"type": "bool"
				}
			],
			"stateMutability": "view",
			"type": "function"
		},
		{
			"inputs": [],
			"name": "generalStatus",
			"outputs": [
				{
					"internalType": "bool",
					"name": "",
					"type": "bool"
				}
			],
			"stateMutability": "view",
			"type": "function"
		},
		{
			"inputs": [
				{
					"internalType": "uint256",
					"name": "timeElapsed",
					"type": "uint256"
				}
			],
			"name": "getAnnualRewardRate",
			"outputs": [
				{
					"internalType": "uint256",
					"name": "",
					"type": "uint256"
				}
			],
			"stateMutability": "pure",
			"type": "function"
		},
		{
			"inputs": [
				{
					"internalType": "address",
					"name": "user",
					"type": "address"
				}
			],
			"name": "getClaimableReward",
			"outputs": [
				{
					"internalType": "uint256",
					"name": "",
					"type": "uint256"
				}
			],
			"stateMutability": "view",
			"type": "function"
		},
		{
			"inputs": [
				{
					"internalType": "address",
					"name": "user",
					"type": "address"
				}
			],
			"name": "getLastClaimedDate",
			"outputs": [
				{
					"internalType": "uint256",
					"name": "",
					"type": "uint256"
				}
			],
			"stateMutability": "view",
			"type": "function"
		},
		{
			"inputs": [],
			"name": "getTotalStakedTokens",
			"outputs": [
				{
					"internalType": "uint256",
					"name": "",
					"type": "uint256"
				}
			],
			"stateMutability": "view",
			"type": "function"
		},
		{
			"inputs": [],
			"name": "getTotalTokenBalance",
			"outputs": [
				{
					"internalType": "uint256",
					"name": "",
					"type": "uint256"
				}
			],
			"stateMutability": "view",
			"type": "function"
		},
		{
			"inputs": [
				{
					"internalType": "address",
					"name": "creator",
					"type": "address"
				}
			],
			"name": "hasPendingApplication",
			"outputs": [
				{
					"internalType": "bool",
					"name": "",
					"type": "bool"
				}
			],
			"stateMutability": "view",
			"type": "function"
		},
		{
			"inputs": [
				{
					"internalType": "address",
					"name": "",
					"type": "address"
				}
			],
			"name": "lastClaimed",
			"outputs": [
				{
					"internalType": "uint256",
					"name": "",
					"type": "uint256"
				}
			],
			"stateMutability": "view",
			"type": "function"
		},
		{
			"inputs": [],
			"name": "lopToken",
			"outputs": [
				{
					"internalType": "contract IERC20",
					"name": "",
					"type": "address"
				}
			],
			"stateMutability": "view",
			"type": "function"
		},
		{
			"inputs": [
				{
					"internalType": "uint256",
					"name": "elementId",
					"type": "uint256"
				}
			],
			"name": "refuseUpdate",
			"outputs": [],
			"stateMutability": "nonpayable",
			"type": "function"
		},
		{
			"inputs": [
				{
					"internalType": "uint256",
					"name": "elementId",
					"type": "uint256"
				}
			],
			"name": "rejectElement",
			"outputs": [],
			"stateMutability": "nonpayable",
			"type": "function"
		},
		{
			"inputs": [
				{
					"internalType": "uint256",
					"name": "elementId",
					"type": "uint256"
				}
			],
			"name": "removeElement",
			"outputs": [],
			"stateMutability": "nonpayable",
			"type": "function"
		},
		{
			"inputs": [],
			"name": "secondAdmin",
			"outputs": [
				{
					"internalType": "address",
					"name": "",
					"type": "address"
				}
			],
			"stateMutability": "view",
			"type": "function"
		},
		{
			"inputs": [
				{
					"internalType": "uint256",
					"name": "amount",
					"type": "uint256"
				}
			],
			"name": "stakeTokens",
			"outputs": [],
			"stateMutability": "nonpayable",
			"type": "function"
		},
		{
			"inputs": [
				{
					"internalType": "address",
					"name": "",
					"type": "address"
				}
			],
			"name": "stakes",
			"outputs": [
				{
					"internalType": "uint256",
					"name": "",
					"type": "uint256"
				}
			],
			"stateMutability": "view",
			"type": "function"
		},
		{
			"inputs": [
				{
					"internalType": "address",
					"name": "",
					"type": "address"
				}
			],
			"name": "startingDate",
			"outputs": [
				{
					"internalType": "uint256",
					"name": "",
					"type": "uint256"
				}
			],
			"stateMutability": "view",
			"type": "function"
		},
		{
			"inputs": [],
			"name": "thirdAdmin",
			"outputs": [
				{
					"internalType": "address",
					"name": "",
					"type": "address"
				}
			],
			"stateMutability": "view",
			"type": "function"
		},
		{
			"inputs": [
				{
					"internalType": "string",
					"name": "functionName",
					"type": "string"
				},
				{
					"internalType": "bool",
					"name": "status",
					"type": "bool"
				}
			],
			"name": "toggleFunctionStatus",
			"outputs": [],
			"stateMutability": "nonpayable",
			"type": "function"
		},
		{
			"inputs": [
				{
					"internalType": "string",
					"name": "functionName",
					"type": "string"
				},
				{
					"internalType": "bool",
					"name": "status",
					"type": "bool"
				}
			],
			"name": "toggleFunctionStatusByAdmin",
			"outputs": [],
			"stateMutability": "nonpayable",
			"type": "function"
		},
		{
			"inputs": [],
			"name": "totalStakedTokens",
			"outputs": [
				{
					"internalType": "uint256",
					"name": "",
					"type": "uint256"
				}
			],
			"stateMutability": "view",
			"type": "function"
		},
		{
			"inputs": [
				{
					"internalType": "uint256",
					"name": "elementId",
					"type": "uint256"
				},
				{
					"internalType": "string",
					"name": "performanceMetricsLink",
					"type": "string"
				}
			],
			"name": "updateElementMetrics",
			"outputs": [],
			"stateMutability": "nonpayable",
			"type": "function"
		},
		{
			"inputs": [
				{
					"internalType": "uint256",
					"name": "elementId",
					"type": "uint256"
				},
				{
					"internalType": "string",
					"name": "tutorialLink",
					"type": "string"
				}
			],
			"name": "updateElementTutorial",
			"outputs": [],
			"stateMutability": "nonpayable",
			"type": "function"
		},
		{
			"inputs": [
				{
					"internalType": "uint256",
					"name": "elementId",
					"type": "uint256"
				},
				{
					"internalType": "string",
					"name": "websiteLink",
					"type": "string"
				}
			],
			"name": "updateElementWebsite",
			"outputs": [],
			"stateMutability": "nonpayable",
			"type": "function"
		},
		{
			"inputs": [
				{
					"internalType": "uint256",
					"name": "elementId",
					"type": "uint256"
				},
				{
					"internalType": "uint256",
					"name": "amount",
					"type": "uint256"
				}
			],
			"name": "voteOnElement",
			"outputs": [],
			"stateMutability": "nonpayable",
			"type": "function"
		},
		{
			"inputs": [
				{
					"internalType": "address",
					"name": "",
					"type": "address"
				}
			],
			"name": "votingPower",
			"outputs": [
				{
					"internalType": "uint256",
					"name": "",
					"type": "uint256"
				}
			],
			"stateMutability": "view",
			"type": "function"
		},
		{
			"inputs": [
				{
					"internalType": "uint256",
					"name": "amount",
					"type": "uint256"
				}
			],
			"name": "withdrawStake",
			"outputs": [],
			"stateMutability": "nonpayable",
			"type": "function"
		}
	]
}