{
	"data": {
		"bytecode": {
			"linkReferences": {},
			"object": "60806040523480156200001157600080fd5b50604051620044e4380380620044e483398181016040528101906200003791906200027f565b33600660006101000a81548173ffffffffffffffffffffffffffffffffffffffff021916908373ffffffffffffffffffffffffffffffffffffffff16021790555081600860006101000a81548173ffffffffffffffffffffffffffffffffffffffff021916908373ffffffffffffffffffffffffffffffffffffffff16021790555080600760006101000a81548173ffffffffffffffffffffffffffffffffffffffff021916908373ffffffffffffffffffffffffffffffffffffffff160217905550600160096040516200010c9062000321565b908152602001604051809103902060006101000a81548160ff02191690831515021790555060016009604051620001439062000388565b908152602001604051809103902060006101000a81548160ff021916908315150217905550600160096040516200017a90620003ef565b908152602001604051809103902060006101000a81548160ff02191690831515021790555060016009604051620001b19062000456565b908152602001604051809103902060006101000a81548160ff02191690831515021790555060016009604051620001e890620004bd565b908152602001604051809103902060006101000a81548160ff0219169083151502179055505050620004d4565b600080fd5b600073ffffffffffffffffffffffffffffffffffffffff82169050919050565b600062000247826200021a565b9050919050565b62000259816200023a565b81146200026557600080fd5b50565b60008151905062000279816200024e565b92915050565b6000806040838503121562000299576200029862000215565b5b6000620002a98582860162000268565b9250506020620002bc8582860162000268565b9150509250929050565b600081905092915050565b7f617070726f7665456c656d656e74000000000000000000000000000000000000600082015250565b600062000309600e83620002c6565b91506200031682620002d1565b600e82019050919050565b60006200032e82620002fa565b9150819050919050565b7f72656a656374456c656d656e7400000000000000000000000000000000000000600082015250565b600062000370600d83620002c6565b91506200037d8262000338565b600d82019050919050565b6000620003958262000361565b9150819050919050565b7f72656d6f7665456c656d656e7400000000000000000000000000000000000000600082015250565b6000620003d7600d83620002c6565b9150620003e4826200039f565b600d82019050919050565b6000620003fc82620003c8565b9150819050919050565b7f636f6e6669726d55706461746500000000000000000000000000000000000000600082015250565b60006200043e600d83620002c6565b91506200044b8262000406565b600d82019050919050565b600062000463826200042f565b9150819050919050565b7f7265667573655570646174650000000000000000000000000000000000000000600082015250565b6000620004a5600c83620002c6565b9150620004b2826200046d565b600c82019050919050565b6000620004ca8262000496565b9150819050919050565b61400080620004e46000396000f3fe608060405234801561001057600080fd5b50600436106101fb5760003560e01c806367be46731161011a578063c07473f6116100ad578063cc78d7281161007c578063cc78d728146105be578063d4f1e386146105ee578063e0d64b37146105f8578063f851a44014610633578063f9089bf214610651576101fb565b8063c07473f614610538578063c5e48e5a14610568578063c7b3564e14610586578063c9b3829f146105a2576101fb565b806384d804be116100e957806384d804be146104c65780639fc37abf146104e4578063a721ebdd14610500578063b17146c81461051c576101fb565b806367be4673146104405780636b8d04fb1461045e57806372bae6741461048e5780637547c7a3146104aa576101fb565b806325d5971f116101925780633b72bad5116101615780633b72bad5146103a65780635dcc9391146103c25780635ff329af146103e0578063613dab3e14610410576101fb565b806325d5971f1461033457806327855b13146103505780632a9aaa761461036e57806336ead39f1461038a576101fb565b80631d002cc0116101ce5780631d002cc01461029a5780631d32e9b3146102ca5780631faa1128146102e857806320cb13ab14610304576101fb565b8063013eba92146102005780630a274280146102305780630d67f59e1461024c57806316934fc41461026a575b600080fd5b61021a60048036038101906102159190612cd0565b610681565b6040516102279190612d16565b60405180910390f35b61024a60048036038101906102459190612e77565b610699565b005b610254610a49565b6040516102619190612fdd565b60405180910390f35b610284600480360381019061027f9190612cd0565b610a6f565b6040516102919190612d16565b60405180910390f35b6102b460048036038101906102af9190612cd0565b610a87565b6040516102c19190612d16565b60405180910390f35b6102d2610a9f565b6040516102df9190613007565b60405180910390f35b61030260048036038101906102fd919061304e565b610ac5565b005b61031e6004803603810190610319919061307b565b610c6f565b60405161032b9190612d16565b60405180910390f35b61034e6004803603810190610349919061304e565b610cc1565b005b610358610ebd565b6040516103659190612d16565b60405180910390f35b610388600480360381019061038391906130f3565b610ecf565b005b6103a4600480360381019061039f919061304e565b610f99565b005b6103c060048036038101906103bb919061304e565b611226565b005b6103ca61149c565b6040516103d79190612d16565b60405180910390f35b6103fa60048036038101906103f59190612cd0565b6114a2565b6040516104079190612d16565b60405180910390f35b61042a6004803603810190610425919061314f565b61168d565b60405161043791906131a7565b60405180910390f35b6104486116c3565b6040516104559190612d16565b60405180910390f35b61047860048036038101906104739190612cd0565b6116c9565b60405161048591906131a7565b60405180910390f35b6104a860048036038101906104a3919061307b565b6117a1565b005b6104c460048036038101906104bf919061304e565b6118aa565b005b6104ce611afa565b6040516104db9190612d16565b60405180910390f35b6104fe60048036038101906104f9919061304e565b611b02565b005b61051a600480360381019061051591906131c2565b611c53565b005b610536600480360381019061053191906131c2565b611d3a565b005b610552600480360381019061054d9190612cd0565b611e21565b60405161055f9190612d16565b60405180910390f35b610570611e39565b60405161057d9190612d16565b60405180910390f35b6105a0600480360381019061059b91906131c2565b611e42565b005b6105bc60048036038101906105b7919061304e565b611f29565b005b6105d860048036038101906105d39190612cd0565b6120d3565b6040516105e59190612d16565b60405180910390f35b6105f661211c565b005b610612600480360381019061060d919061304e565b612510565b60405161062a9c9b9a9998979695949392919061329d565b60405180910390f35b61063b6129d0565b6040516106489190613007565b60405180910390f35b61066b6004803603810190610666919061304e565b6129f6565b6040516106789190612d16565b60405180910390f35b60026020528060005260406000206000915090505481565b6402540be400600860009054906101000a900473ffffffffffffffffffffffffffffffffffffffff1673ffffffffffffffffffffffffffffffffffffffff166370a08231336040518263ffffffff1660e01b81526004016106fa9190613007565b602060405180830381865afa158015610717573d6000803e3d6000fd5b505050506040513d601f19601f8201168201806040525081019061073b91906133a4565b101561077c576040517f08c379a000000000000000000000000000000000000000000000000000000000815260040161077390613443565b60405180910390fd5b600860009054906101000a900473ffffffffffffffffffffffffffffffffffffffff1673ffffffffffffffffffffffffffffffffffffffff166323b872dd33306402540be4006040518463ffffffff1660e01b81526004016107e093929190613463565b6020604051808303816000875af11580156107ff573d6000803e3d6000fd5b505050506040513d601f19601f8201168201806040525081019061082391906134af565b610862576040517f08c379a000000000000000000000000000000000000000000000000000000000815260040161085990613528565b60405180910390fd5b6040518061018001604052808681526020018581526020018481526020016040518060200160405280600081525081526020016040518060200160405280600081525081526020016040518060200160405280600081525081526020018381526020018281526020013373ffffffffffffffffffffffffffffffffffffffff1681526020016000815260200142815260200160018152506004600060055481526020019081526020016000206000820151816000019081610923919061374a565b506020820151816001019081610939919061374a565b50604082015181600201908161094f919061374a565b506060820151816003019081610965919061374a565b50608082015181600401908161097b919061374a565b5060a0820151816005019081610991919061374a565b5060c08201518160060190816109a7919061374a565b5060e08201518160070190816109bd919061374a565b506101008201518160080160006101000a81548173ffffffffffffffffffffffffffffffffffffffff021916908373ffffffffffffffffffffffffffffffffffffffff160217905550610120820151816009015561014082015181600a015561016082015181600b015590505060056000815480929190610a3d9061384b565b91905055505050505050565b600860009054906101000a900473ffffffffffffffffffffffffffffffffffffffff1681565b60006020528060005260406000206000915090505481565b60036020528060005260406000206000915090505481565b600760009054906101000a900473ffffffffffffffffffffffffffffffffffffffff1681565b600660009054906101000a900473ffffffffffffffffffffffffffffffffffffffff1673ffffffffffffffffffffffffffffffffffffffff163373ffffffffffffffffffffffffffffffffffffffff1614610b55576040517f08c379a0000000000000000000000000000000000000000000000000000000008152600401610b4c90613905565b60405180910390fd5b6040518060400160405280600d81526020017f72656a656374456c656d656e7400000000000000000000000000000000000000815250600981604051610b9b9190613961565b908152602001604051809103902060009054906101000a900460ff16610bf6576040517f08c379a0000000000000000000000000000000000000000000000000000000008152600401610bed906139c4565b60405180910390fd5b6000600460008481526020019081526020016000206009015414610c4f576040517f08c379a0000000000000000000000000000000000000000000000000000000008152600401610c4690613a30565b60405180910390fd5b600560046000848152602001908152602001600020600901819055505050565b6000808242610c7e9190613a50565b90506000610c8b826129f6565b90506000600c60648388610c9f9190613a84565b610ca99190613af5565b610cb39190613af5565b905080935050505092915050565b806000803373ffffffffffffffffffffffffffffffffffffffff1673ffffffffffffffffffffffffffffffffffffffff168152602001908152602001600020541015610d42576040517f08c379a0000000000000000000000000000000000000000000000000000000008152600401610d3990613b72565b60405180910390fd5b806000803373ffffffffffffffffffffffffffffffffffffffff1673ffffffffffffffffffffffffffffffffffffffff1681526020019081526020016000206000828254610d909190613a50565b9250508190555042600260003373ffffffffffffffffffffffffffffffffffffffff1673ffffffffffffffffffffffffffffffffffffffff16815260200190815260200160002081905550600860009054906101000a900473ffffffffffffffffffffffffffffffffffffffff1673ffffffffffffffffffffffffffffffffffffffff1663a9059cbb33836040518363ffffffff1660e01b8152600401610e38929190613b92565b6020604051808303816000875af1158015610e57573d6000803e3d6000fd5b505050506040513d601f19601f82011682018060405250810190610e7b91906134af565b610eba576040517f08c379a0000000000000000000000000000000000000000000000000000000008152600401610eb190613528565b60405180910390fd5b50565b600c610e10610ecc9190613af5565b81565b600760009054906101000a900473ffffffffffffffffffffffffffffffffffffffff1673ffffffffffffffffffffffffffffffffffffffff163373ffffffffffffffffffffffffffffffffffffffff1614610f5f576040517f08c379a0000000000000000000000000000000000000000000000000000000008152600401610f5690613c2d565b60405180910390fd5b80600983604051610f709190613961565b908152602001604051809103902060006101000a81548160ff0219169083151502179055505050565b600660009054906101000a900473ffffffffffffffffffffffffffffffffffffffff1673ffffffffffffffffffffffffffffffffffffffff163373ffffffffffffffffffffffffffffffffffffffff1614611029576040517f08c379a000000000000000000000000000000000000000000000000000000000815260040161102090613905565b60405180910390fd5b6040518060400160405280600c81526020017f726566757365557064617465000000000000000000000000000000000000000081525060098160405161106f9190613961565b908152602001604051809103902060009054906101000a900460ff166110ca576040517f08c379a00000000000000000000000000000000000000000000000000000000081526004016110c1906139c4565b60405180910390fd5b60048060008481526020019081526020016000206009015403611122576040517f08c379a000000000000000000000000000000000000000000000000000000000815260040161111990613cbf565b60405180910390fd5b60016004600084815260200190815260200160002060090154036111785760405180602001604052806000815250600460008481526020019081526020016000206003019081611172919061374a565b50611222565b60026004600084815260200190815260200160002060090154036111ce57604051806020016040528060008152506004600084815260200190815260200160002060040190816111c8919061374a565b50611221565b6003600460008481526020019081526020016000206009015403611220576040518060200160405280600081525060046000848152602001908152602001600020600501908161121e919061374a565b505b5b5b5050565b600660009054906101000a900473ffffffffffffffffffffffffffffffffffffffff1673ffffffffffffffffffffffffffffffffffffffff163373ffffffffffffffffffffffffffffffffffffffff16146112b6576040517f08c379a00000000000000000000000000000000000000000000000000000000081526004016112ad90613905565b60405180910390fd5b6040518060400160405280600d81526020017f636f6e6669726d557064617465000000000000000000000000000000000000008152506009816040516112fc9190613961565b908152602001604051809103902060009054906101000a900460ff16611357576040517f08c379a000000000000000000000000000000000000000000000000000000000815260040161134e906139c4565b60405180910390fd5b600480600084815260200190815260200160002060090154036113af576040517f08c379a00000000000000000000000000000000000000000000000000000000081526004016113a690613cbf565b60405180910390fd5b60016004600084815260200190815260200160002060090154036113ee5760026004600084815260200190815260200160002060090181905550611469565b600260046000848152602001908152602001600020600901540361142d5760036004600084815260200190815260200160002060090181905550611468565b6003600460008481526020019081526020016000206009015403611467576004806000848152602001908152602001600020600901819055505b5b5b6103e860046000848152602001908152602001600020600b0160008282546114919190613cdf565b925050819055505050565b610e1081565b6000806000808473ffffffffffffffffffffffffffffffffffffffff1673ffffffffffffffffffffffffffffffffffffffff16815260200190815260200160002054036114f25760009050611688565b6000600260008473ffffffffffffffffffffffffffffffffffffffff1673ffffffffffffffffffffffffffffffffffffffff168152602001908152602001600020544261153f9190613a50565b9050600c610e106115509190613af5565b811015611561576000915050611688565b600080600c610e106115739190613af5565b8361157e9190613af5565b905060005b81811015611662576000600c610e1061159c9190613af5565b826115a79190613a84565b600260008973ffffffffffffffffffffffffffffffffffffffff1673ffffffffffffffffffffffffffffffffffffffff168152602001908152602001600020546115f19190613cdf565b9050600061163d6000808a73ffffffffffffffffffffffffffffffffffffffff1673ffffffffffffffffffffffffffffffffffffffff1681526020019081526020016000205483610c6f565b9050808561164b9190613cdf565b94505050808061165a9061384b565b915050611583565b5060006064603c846116749190613a84565b61167e9190613af5565b9050809450505050505b919050565b6009818051602081018201805184825260208301602085012081835280955050505050506000915054906101000a900460ff1681565b60055481565b600080600090505b600554811015611796578273ffffffffffffffffffffffffffffffffffffffff166004600083815260200190815260200160002060080160009054906101000a900473ffffffffffffffffffffffffffffffffffffffff1673ffffffffffffffffffffffffffffffffffffffff1614801561177457506000600581111561175b5761175a613d13565b5b6004600083815260200190815260200160002060090154145b1561178357600191505061179c565b808061178e9061384b565b9150506116d1565b50600090505b919050565b6000600160003373ffffffffffffffffffffffffffffffffffffffff1673ffffffffffffffffffffffffffffffffffffffff1681526020019081526020016000205411611823576040517f08c379a000000000000000000000000000000000000000000000000000000000815260040161181a90613d8e565b60405180910390fd5b80600160003373ffffffffffffffffffffffffffffffffffffffff1673ffffffffffffffffffffffffffffffffffffffff16815260200190815260200160002060008282546118729190613a50565b925050819055508060046000848152602001908152602001600020600b01600082825461189f9190613cdf565b925050819055505050565b633b9aca008110156118f1576040517f08c379a00000000000000000000000000000000000000000000000000000000081526004016118e890613dfa565b60405180910390fd5b600860009054906101000a900473ffffffffffffffffffffffffffffffffffffffff1673ffffffffffffffffffffffffffffffffffffffff166323b872dd3330846040518463ffffffff1660e01b815260040161195093929190613463565b6020604051808303816000875af115801561196f573d6000803e3d6000fd5b505050506040513d601f19601f8201168201806040525081019061199391906134af565b6119d2576040517f08c379a00000000000000000000000000000000000000000000000000000000081526004016119c990613528565b60405180910390fd5b806000803373ffffffffffffffffffffffffffffffffffffffff1673ffffffffffffffffffffffffffffffffffffffff1681526020019081526020016000206000828254611a209190613cdf565b925050819055506000600260003373ffffffffffffffffffffffffffffffffffffffff1673ffffffffffffffffffffffffffffffffffffffff1681526020019081526020016000205403611ab35742600360003373ffffffffffffffffffffffffffffffffffffffff1673ffffffffffffffffffffffffffffffffffffffff168152602001908152602001600020819055505b42600260003373ffffffffffffffffffffffffffffffffffffffff1673ffffffffffffffffffffffffffffffffffffffff1681526020019081526020016000208190555050565b633b9aca0081565b600660009054906101000a900473ffffffffffffffffffffffffffffffffffffffff1673ffffffffffffffffffffffffffffffffffffffff163373ffffffffffffffffffffffffffffffffffffffff1614611b92576040517f08c379a0000000000000000000000000000000000000000000000000000000008152600401611b8990613905565b60405180910390fd5b6040518060400160405280600d81526020017f72656d6f7665456c656d656e7400000000000000000000000000000000000000815250600981604051611bd89190613961565b908152602001604051809103902060009054906101000a900460ff16611c33576040517f08c379a0000000000000000000000000000000000000000000000000000000008152600401611c2a906139c4565b60405180910390fd5b600560046000848152602001908152602001600020600901819055505050565b3373ffffffffffffffffffffffffffffffffffffffff166004600084815260200190815260200160002060080160009054906101000a900473ffffffffffffffffffffffffffffffffffffffff1673ffffffffffffffffffffffffffffffffffffffff1614611cf7576040517f08c379a0000000000000000000000000000000000000000000000000000000008152600401611cee90613e66565b60405180910390fd5b80600460008481526020019081526020016000206004019081611d1a919061374a565b504260046000848152602001908152602001600020600a01819055505050565b3373ffffffffffffffffffffffffffffffffffffffff166004600084815260200190815260200160002060080160009054906101000a900473ffffffffffffffffffffffffffffffffffffffff1673ffffffffffffffffffffffffffffffffffffffff1614611dde576040517f08c379a0000000000000000000000000000000000000000000000000000000008152600401611dd590613e66565b60405180910390fd5b80600460008481526020019081526020016000206003019081611e01919061374a565b504260046000848152602001908152602001600020600a01819055505050565b60016020528060005260406000206000915090505481565b6402540be40081565b3373ffffffffffffffffffffffffffffffffffffffff166004600084815260200190815260200160002060080160009054906101000a900473ffffffffffffffffffffffffffffffffffffffff1673ffffffffffffffffffffffffffffffffffffffff1614611ee6576040517f08c379a0000000000000000000000000000000000000000000000000000000008152600401611edd90613e66565b60405180910390fd5b80600460008481526020019081526020016000206005019081611f09919061374a565b504260046000848152602001908152602001600020600a01819055505050565b600660009054906101000a900473ffffffffffffffffffffffffffffffffffffffff1673ffffffffffffffffffffffffffffffffffffffff163373ffffffffffffffffffffffffffffffffffffffff1614611fb9576040517f08c379a0000000000000000000000000000000000000000000000000000000008152600401611fb090613905565b60405180910390fd5b6040518060400160405280600e81526020017f617070726f7665456c656d656e74000000000000000000000000000000000000815250600981604051611fff9190613961565b908152602001604051809103902060009054906101000a900460ff1661205a576040517f08c379a0000000000000000000000000000000000000000000000000000000008152600401612051906139c4565b60405180910390fd5b60006004600084815260200190815260200160002060090154146120b3576040517f08c379a00000000000000000000000000000000000000000000000000000000081526004016120aa90613a30565b60405180910390fd5b600160046000848152602001908152602001600020600901819055505050565b6000600260008373ffffffffffffffffffffffffffffffffffffffff1673ffffffffffffffffffffffffffffffffffffffff168152602001908152602001600020549050919050565b60008060003373ffffffffffffffffffffffffffffffffffffffff1673ffffffffffffffffffffffffffffffffffffffff168152602001908152602001600020541161219d576040517f08c379a000000000000000000000000000000000000000000000000000000000815260040161219490613ed2565b60405180910390fd5b6000600260003373ffffffffffffffffffffffffffffffffffffffff1673ffffffffffffffffffffffffffffffffffffffff16815260200190815260200160002054426121ea9190613a50565b9050600c610e106121fb9190613af5565b81101561223d576040517f08c379a000000000000000000000000000000000000000000000000000000000815260040161223490613f3e565b60405180910390fd5b600080600c610e1061224f9190613af5565b8361225a9190613af5565b905060005b8181101561233e576000600c610e106122789190613af5565b826122839190613a84565b600260003373ffffffffffffffffffffffffffffffffffffffff1673ffffffffffffffffffffffffffffffffffffffff168152602001908152602001600020546122cd9190613cdf565b905060006123196000803373ffffffffffffffffffffffffffffffffffffffff1673ffffffffffffffffffffffffffffffffffffffff1681526020019081526020016000205483610c6f565b905080856123279190613cdf565b9450505080806123369061384b565b91505061225f565b5060006064603c846123509190613a84565b61235a9190613af5565b90506000606460288561236d9190613a84565b6123779190613af5565b905061238281612a38565b62989680826123919190613af5565b600160003373ffffffffffffffffffffffffffffffffffffffff1673ffffffffffffffffffffffffffffffffffffffff16815260200190815260200160002060008282546123df9190613cdf565b9250508190555042600260003373ffffffffffffffffffffffffffffffffffffffff1673ffffffffffffffffffffffffffffffffffffffff16815260200190815260200160002081905550600860009054906101000a900473ffffffffffffffffffffffffffffffffffffffff1673ffffffffffffffffffffffffffffffffffffffff1663a9059cbb33846040518363ffffffff1660e01b8152600401612487929190613b92565b6020604051808303816000875af11580156124a6573d6000803e3d6000fd5b505050506040513d601f19601f820116820180604052508101906124ca91906134af565b612509576040517f08c379a000000000000000000000000000000000000000000000000000000000815260040161250090613528565b60405180910390fd5b5050505050565b600460205280600052604060002060009150905080600001805461253390613577565b80601f016020809104026020016040519081016040528092919081815260200182805461255f90613577565b80156125ac5780601f10612581576101008083540402835291602001916125ac565b820191906000526020600020905b81548152906001019060200180831161258f57829003601f168201915b5050505050908060010180546125c190613577565b80601f01602080910402602001604051908101604052809291908181526020018280546125ed90613577565b801561263a5780601f1061260f5761010080835404028352916020019161263a565b820191906000526020600020905b81548152906001019060200180831161261d57829003601f168201915b50505050509080600201805461264f90613577565b80601f016020809104026020016040519081016040528092919081815260200182805461267b90613577565b80156126c85780601f1061269d576101008083540402835291602001916126c8565b820191906000526020600020905b8154815290600101906020018083116126ab57829003601f168201915b5050505050908060030180546126dd90613577565b80601f016020809104026020016040519081016040528092919081815260200182805461270990613577565b80156127565780601f1061272b57610100808354040283529160200191612756565b820191906000526020600020905b81548152906001019060200180831161273957829003601f168201915b50505050509080600401805461276b90613577565b80601f016020809104026020016040519081016040528092919081815260200182805461279790613577565b80156127e45780601f106127b9576101008083540402835291602001916127e4565b820191906000526020600020905b8154815290600101906020018083116127c757829003601f168201915b5050505050908060050180546127f990613577565b80601f016020809104026020016040519081016040528092919081815260200182805461282590613577565b80156128725780601f1061284757610100808354040283529160200191612872565b820191906000526020600020905b81548152906001019060200180831161285557829003601f168201915b50505050509080600601805461288790613577565b80601f01602080910402602001604051908101604052809291908181526020018280546128b390613577565b80156129005780601f106128d557610100808354040283529160200191612900565b820191906000526020600020905b8154815290600101906020018083116128e357829003601f168201915b50505050509080600701805461291590613577565b80601f016020809104026020016040519081016040528092919081815260200182805461294190613577565b801561298e5780601f106129635761010080835404028352916020019161298e565b820191906000526020600020905b81548152906001019060200180831161297157829003601f168201915b5050505050908060080160009054906101000a900473ffffffffffffffffffffffffffffffffffffffff169080600901549080600a01549080600b015490508c565b600660009054906101000a900473ffffffffffffffffffffffffffffffffffffffff1681565b600080610e1083612a079190613af5565b905060038110612a1b576003915050612a33565b60028103612a2d576002915050612a33565b60019150505b919050565b6000612a42612bdb565b905060008103612a525750612bd8565b60005b600554811015612bd5576000600460008381526020019081526020016000209050600580811115612a8957612a88613d13565b5b816009015414612bc1576000838583600b0154612aa69190613a84565b612ab09190613af5565b90506000811115612bbf57600860009054906101000a900473ffffffffffffffffffffffffffffffffffffffff1673ffffffffffffffffffffffffffffffffffffffff1663a9059cbb8360080160009054906101000a900473ffffffffffffffffffffffffffffffffffffffff16836040518363ffffffff1660e01b8152600401612b3c929190613b92565b6020604051808303816000875af1158015612b5b573d6000803e3d6000fd5b505050506040513d601f19601f82011682018060405250810190612b7f91906134af565b612bbe576040517f08c379a0000000000000000000000000000000000000000000000000000000008152600401612bb590613faa565b60405180910390fd5b5b505b508080612bcd9061384b565b915050612a55565b50505b50565b6000806000905060005b600554811015612c5657600580811115612c0257612c01613d13565b5b600460008381526020019081526020016000206009015414612c435760046000828152602001908152602001600020600b015482612c409190613cdf565b91505b8080612c4e9061384b565b915050612be5565b508091505090565b6000604051905090565b600080fd5b600080fd5b600073ffffffffffffffffffffffffffffffffffffffff82169050919050565b6000612c9d82612c72565b9050919050565b612cad81612c92565b8114612cb857600080fd5b50565b600081359050612cca81612ca4565b92915050565b600060208284031215612ce657612ce5612c68565b5b6000612cf484828501612cbb565b91505092915050565b6000819050919050565b612d1081612cfd565b82525050565b6000602082019050612d2b6000830184612d07565b92915050565b600080fd5b600080fd5b6000601f19601f8301169050919050565b7f4e487b7100000000000000000000000000000000000000000000000000000000600052604160045260246000fd5b612d8482612d3b565b810181811067ffffffffffffffff82111715612da357612da2612d4c565b5b80604052505050565b6000612db6612c5e565b9050612dc28282612d7b565b919050565b600067ffffffffffffffff821115612de257612de1612d4c565b5b612deb82612d3b565b9050602081019050919050565b82818337600083830152505050565b6000612e1a612e1584612dc7565b612dac565b905082815260208101848484011115612e3657612e35612d36565b5b612e41848285612df8565b509392505050565b600082601f830112612e5e57612e5d612d31565b5b8135612e6e848260208601612e07565b91505092915050565b600080600080600060a08688031215612e9357612e92612c68565b5b600086013567ffffffffffffffff811115612eb157612eb0612c6d565b5b612ebd88828901612e49565b955050602086013567ffffffffffffffff811115612ede57612edd612c6d565b5b612eea88828901612e49565b945050604086013567ffffffffffffffff811115612f0b57612f0a612c6d565b5b612f1788828901612e49565b935050606086013567ffffffffffffffff811115612f3857612f37612c6d565b5b612f4488828901612e49565b925050608086013567ffffffffffffffff811115612f6557612f64612c6d565b5b612f7188828901612e49565b9150509295509295909350565b6000819050919050565b6000612fa3612f9e612f9984612c72565b612f7e565b612c72565b9050919050565b6000612fb582612f88565b9050919050565b6000612fc782612faa565b9050919050565b612fd781612fbc565b82525050565b6000602082019050612ff26000830184612fce565b92915050565b61300181612c92565b82525050565b600060208201905061301c6000830184612ff8565b92915050565b61302b81612cfd565b811461303657600080fd5b50565b60008135905061304881613022565b92915050565b60006020828403121561306457613063612c68565b5b600061307284828501613039565b91505092915050565b6000806040838503121561309257613091612c68565b5b60006130a085828601613039565b92505060206130b185828601613039565b9150509250929050565b60008115159050919050565b6130d0816130bb565b81146130db57600080fd5b50565b6000813590506130ed816130c7565b92915050565b6000806040838503121561310a57613109612c68565b5b600083013567ffffffffffffffff81111561312857613127612c6d565b5b61313485828601612e49565b9250506020613145858286016130de565b9150509250929050565b60006020828403121561316557613164612c68565b5b600082013567ffffffffffffffff81111561318357613182612c6d565b5b61318f84828501612e49565b91505092915050565b6131a1816130bb565b82525050565b60006020820190506131bc6000830184613198565b92915050565b600080604083850312156131d9576131d8612c68565b5b60006131e785828601613039565b925050602083013567ffffffffffffffff81111561320857613207612c6d565b5b61321485828601612e49565b9150509250929050565b600081519050919050565b600082825260208201905092915050565b60005b8381101561325857808201518184015260208101905061323d565b60008484015250505050565b600061326f8261321e565b6132798185613229565b935061328981856020860161323a565b61329281612d3b565b840191505092915050565b60006101808201905081810360008301526132b8818f613264565b905081810360208301526132cc818e613264565b905081810360408301526132e0818d613264565b905081810360608301526132f4818c613264565b90508181036080830152613308818b613264565b905081810360a083015261331c818a613264565b905081810360c08301526133308189613264565b905081810360e08301526133448188613264565b9050613354610100830187612ff8565b613362610120830186612d07565b613370610140830185612d07565b61337e610160830184612d07565b9d9c50505050505050505050505050565b60008151905061339e81613022565b92915050565b6000602082840312156133ba576133b9612c68565b5b60006133c88482850161338f565b91505092915050565b7f496e73756666696369656e7420746f6b656e7320746f2063726561746520656c60008201527f656d656e74000000000000000000000000000000000000000000000000000000602082015250565b600061342d602583613229565b9150613438826133d1565b604082019050919050565b6000602082019050818103600083015261345c81613420565b9050919050565b60006060820190506134786000830186612ff8565b6134856020830185612ff8565b6134926040830184612d07565b949350505050565b6000815190506134a9816130c7565b92915050565b6000602082840312156134c5576134c4612c68565b5b60006134d38482850161349a565b91505092915050565b7f546f6b656e207472616e73666572206661696c65640000000000000000000000600082015250565b6000613512601583613229565b915061351d826134dc565b602082019050919050565b6000602082019050818103600083015261354181613505565b9050919050565b7f4e487b7100000000000000000000000000000000000000000000000000000000600052602260045260246000fd5b6000600282049050600182168061358f57607f821691505b6020821081036135a2576135a1613548565b5b50919050565b60008190508160005260206000209050919050565b60006020601f8301049050919050565b600082821b905092915050565b60006008830261360a7fffffffffffffffffffffffffffffffffffffffffffffffffffffffffffffffff826135cd565b61361486836135cd565b95508019841693508086168417925050509392505050565b600061364761364261363d84612cfd565b612f7e565b612cfd565b9050919050565b6000819050919050565b6136618361362c565b61367561366d8261364e565b8484546135da565b825550505050565b600090565b61368a61367d565b613695818484613658565b505050565b5b818110156136b9576136ae600082613682565b60018101905061369b565b5050565b601f8211156136fe576136cf816135a8565b6136d8846135bd565b810160208510156136e7578190505b6136fb6136f3856135bd565b83018261369a565b50505b505050565b600082821c905092915050565b600061372160001984600802613703565b1980831691505092915050565b600061373a8383613710565b9150826002028217905092915050565b6137538261321e565b67ffffffffffffffff81111561376c5761376b612d4c565b5b6137768254613577565b6137818282856136bd565b600060209050601f8311600181146137b457600084156137a2578287015190505b6137ac858261372e565b865550613814565b601f1984166137c2866135a8565b60005b828110156137ea578489015182556001820191506020850194506020810190506137c5565b868310156138075784890151613803601f891682613710565b8355505b6001600288020188555050505b505050505050565b7f4e487b7100000000000000000000000000000000000000000000000000000000600052601160045260246000fd5b600061385682612cfd565b91507fffffffffffffffffffffffffffffffffffffffffffffffffffffffffffffffff82036138885761388761381c565b5b600182019050919050565b7f4f6e6c792061646d696e2063616e20706572666f726d2074686973206163746960008201527f6f6e000000000000000000000000000000000000000000000000000000000000602082015250565b60006138ef602283613229565b91506138fa82613893565b604082019050919050565b6000602082019050818103600083015261391e816138e2565b9050919050565b600081905092915050565b600061393b8261321e565b6139458185613925565b935061395581856020860161323a565b80840191505092915050565b600061396d8284613930565b915081905092915050565b7f46756e6374696f6e2069732064697361626c6564000000000000000000000000600082015250565b60006139ae601483613229565b91506139b982613978565b602082019050919050565b600060208201905081810360008301526139dd816139a1565b9050919050565b7f456c656d656e74206973206e6f742070656e64696e6720617070726f76616c00600082015250565b6000613a1a601f83613229565b9150613a25826139e4565b602082019050919050565b60006020820190508181036000830152613a4981613a0d565b9050919050565b6000613a5b82612cfd565b9150613a6683612cfd565b9250828203905081811115613a7e57613a7d61381c565b5b92915050565b6000613a8f82612cfd565b9150613a9a83612cfd565b9250828202613aa881612cfd565b91508282048414831517613abf57613abe61381c565b5b5092915050565b7f4e487b7100000000000000000000000000000000000000000000000000000000600052601260045260246000fd5b6000613b0082612cfd565b9150613b0b83612cfd565b925082613b1b57613b1a613ac6565b5b828204905092915050565b7f496e73756666696369656e74207374616b656420616d6f756e74000000000000600082015250565b6000613b5c601a83613229565b9150613b6782613b26565b602082019050919050565b60006020820190508181036000830152613b8b81613b4f565b9050919050565b6000604082019050613ba76000830185612ff8565b613bb46020830184612d07565b9392505050565b7f4f6e6c79207365636f6e642061646d696e2063616e20706572666f726d20746860008201527f697320616374696f6e0000000000000000000000000000000000000000000000602082015250565b6000613c17602983613229565b9150613c2282613bbb565b604082019050919050565b60006020820190508181036000830152613c4681613c0a565b9050919050565b7f456c656d656e7420697320616c726561647920696e207468652050726573746960008201527f6765207068617365000000000000000000000000000000000000000000000000602082015250565b6000613ca9602883613229565b9150613cb482613c4d565b604082019050919050565b60006020820190508181036000830152613cd881613c9c565b9050919050565b6000613cea82612cfd565b9150613cf583612cfd565b9250828201905080821115613d0d57613d0c61381c565b5b92915050565b7f4e487b7100000000000000000000000000000000000000000000000000000000600052602160045260246000fd5b7f4e6f20766f74696e6720706f7765720000000000000000000000000000000000600082015250565b6000613d78600f83613229565b9150613d8382613d42565b602082019050919050565b60006020820190508181036000830152613da781613d6b565b9050919050565b7f4d696e696d756d207374616b6520616d6f756e74206973203120746f6b656e00600082015250565b6000613de4601f83613229565b9150613def82613dae565b602082019050919050565b60006020820190508181036000830152613e1381613dd7565b9050919050565b7f4f6e6c792063726561746f722063616e20757064617465000000000000000000600082015250565b6000613e50601783613229565b9150613e5b82613e1a565b602082019050919050565b60006020820190508181036000830152613e7f81613e43565b9050919050565b7f4e6f207374616b656420616d6f756e7400000000000000000000000000000000600082015250565b6000613ebc601083613229565b9150613ec782613e86565b602082019050919050565b60006020820190508181036000830152613eeb81613eaf565b9050919050565b7f43616e6e6f7420636c61696d206265666f72652061206d6f6e74680000000000600082015250565b6000613f28601b83613229565b9150613f3382613ef2565b602082019050919050565b60006020820190508181036000830152613f5781613f1b565b9050919050565b7f456c656d656e7420726577617264207472616e73666572206661696c65640000600082015250565b6000613f94601e83613229565b9150613f9f82613f5e565b602082019050919050565b60006020820190508181036000830152613fc381613f87565b905091905056fea26469706673582212209b3f6f78d38fb4f8c51b504cc55803d6cb4e48ee6627225aef4631629efd710d64736f6c63430008120033",
			"opcodes": "PUSH1 0x80 PUSH1 0x40 MSTORE CALLVALUE DUP1 ISZERO PUSH3 0x11 JUMPI PUSH1 0x0 DUP1 REVERT JUMPDEST POP PUSH1 0x40 MLOAD PUSH3 0x44E4 CODESIZE SUB DUP1 PUSH3 0x44E4 DUP4 CODECOPY DUP2 DUP2 ADD PUSH1 0x40 MSTORE DUP2 ADD SWAP1 PUSH3 0x37 SWAP2 SWAP1 PUSH3 0x27F JUMP JUMPDEST CALLER PUSH1 0x6 PUSH1 0x0 PUSH2 0x100 EXP DUP2 SLOAD DUP2 PUSH20 0xFFFFFFFFFFFFFFFFFFFFFFFFFFFFFFFFFFFFFFFF MUL NOT AND SWAP1 DUP4 PUSH20 0xFFFFFFFFFFFFFFFFFFFFFFFFFFFFFFFFFFFFFFFF AND MUL OR SWAP1 SSTORE POP DUP2 PUSH1 0x8 PUSH1 0x0 PUSH2 0x100 EXP DUP2 SLOAD DUP2 PUSH20 0xFFFFFFFFFFFFFFFFFFFFFFFFFFFFFFFFFFFFFFFF MUL NOT AND SWAP1 DUP4 PUSH20 0xFFFFFFFFFFFFFFFFFFFFFFFFFFFFFFFFFFFFFFFF AND MUL OR SWAP1 SSTORE POP DUP1 PUSH1 0x7 PUSH1 0x0 PUSH2 0x100 EXP DUP2 SLOAD DUP2 PUSH20 0xFFFFFFFFFFFFFFFFFFFFFFFFFFFFFFFFFFFFFFFF MUL NOT AND SWAP1 DUP4 PUSH20 0xFFFFFFFFFFFFFFFFFFFFFFFFFFFFFFFFFFFFFFFF AND MUL OR SWAP1 SSTORE POP PUSH1 0x1 PUSH1 0x9 PUSH1 0x40 MLOAD PUSH3 0x10C SWAP1 PUSH3 0x321 JUMP JUMPDEST SWAP1 DUP2 MSTORE PUSH1 0x20 ADD PUSH1 0x40 MLOAD DUP1 SWAP2 SUB SWAP1 KECCAK256 PUSH1 0x0 PUSH2 0x100 EXP DUP2 SLOAD DUP2 PUSH1 0xFF MUL NOT AND SWAP1 DUP4 ISZERO ISZERO MUL OR SWAP1 SSTORE POP PUSH1 0x1 PUSH1 0x9 PUSH1 0x40 MLOAD PUSH3 0x143 SWAP1 PUSH3 0x388 JUMP JUMPDEST SWAP1 DUP2 MSTORE PUSH1 0x20 ADD PUSH1 0x40 MLOAD DUP1 SWAP2 SUB SWAP1 KECCAK256 PUSH1 0x0 PUSH2 0x100 EXP DUP2 SLOAD DUP2 PUSH1 0xFF MUL NOT AND SWAP1 DUP4 ISZERO ISZERO MUL OR SWAP1 SSTORE POP PUSH1 0x1 PUSH1 0x9 PUSH1 0x40 MLOAD PUSH3 0x17A SWAP1 PUSH3 0x3EF JUMP JUMPDEST SWAP1 DUP2 MSTORE PUSH1 0x20 ADD PUSH1 0x40 MLOAD DUP1 SWAP2 SUB SWAP1 KECCAK256 PUSH1 0x0 PUSH2 0x100 EXP DUP2 SLOAD DUP2 PUSH1 0xFF MUL NOT AND SWAP1 DUP4 ISZERO ISZERO MUL OR SWAP1 SSTORE POP PUSH1 0x1 PUSH1 0x9 PUSH1 0x40 MLOAD PUSH3 0x1B1 SWAP1 PUSH3 0x456 JUMP JUMPDEST SWAP1 DUP2 MSTORE PUSH1 0x20 ADD PUSH1 0x40 MLOAD DUP1 SWAP2 SUB SWAP1 KECCAK256 PUSH1 0x0 PUSH2 0x100 EXP DUP2 SLOAD DUP2 PUSH1 0xFF MUL NOT AND SWAP1 DUP4 ISZERO ISZERO MUL OR SWAP1 SSTORE POP PUSH1 0x1 PUSH1 0x9 PUSH1 0x40 MLOAD PUSH3 0x1E8 SWAP1 PUSH3 0x4BD JUMP JUMPDEST SWAP1 DUP2 MSTORE PUSH1 0x20 ADD PUSH1 0x40 MLOAD DUP1 SWAP2 SUB SWAP1 KECCAK256 PUSH1 0x0 PUSH2 0x100 EXP DUP2 SLOAD DUP2 PUSH1 0xFF MUL NOT AND SWAP1 DUP4 ISZERO ISZERO MUL OR SWAP1 SSTORE POP POP POP PUSH3 0x4D4 JUMP JUMPDEST PUSH1 0x0 DUP1 REVERT JUMPDEST PUSH1 0x0 PUSH20 0xFFFFFFFFFFFFFFFFFFFFFFFFFFFFFFFFFFFFFFFF DUP3 AND SWAP1 POP SWAP2 SWAP1 POP JUMP JUMPDEST PUSH1 0x0 PUSH3 0x247 DUP3 PUSH3 0x21A JUMP JUMPDEST SWAP1 POP SWAP2 SWAP1 POP JUMP JUMPDEST PUSH3 0x259 DUP2 PUSH3 0x23A JUMP JUMPDEST DUP2 EQ PUSH3 0x265 JUMPI PUSH1 0x0 DUP1 REVERT JUMPDEST POP JUMP JUMPDEST PUSH1 0x0 DUP2 MLOAD SWAP1 POP PUSH3 0x279 DUP2 PUSH3 0x24E JUMP JUMPDEST SWAP3 SWAP2 POP POP JUMP JUMPDEST PUSH1 0x0 DUP1 PUSH1 0x40 DUP4 DUP6 SUB SLT ISZERO PUSH3 0x299 JUMPI PUSH3 0x298 PUSH3 0x215 JUMP JUMPDEST JUMPDEST PUSH1 0x0 PUSH3 0x2A9 DUP6 DUP3 DUP7 ADD PUSH3 0x268 JUMP JUMPDEST SWAP3 POP POP PUSH1 0x20 PUSH3 0x2BC DUP6 DUP3 DUP7 ADD PUSH3 0x268 JUMP JUMPDEST SWAP2 POP POP SWAP3 POP SWAP3 SWAP1 POP JUMP JUMPDEST PUSH1 0x0 DUP2 SWAP1 POP SWAP3 SWAP2 POP POP JUMP JUMPDEST PUSH32 0x617070726F7665456C656D656E74000000000000000000000000000000000000 PUSH1 0x0 DUP3 ADD MSTORE POP JUMP JUMPDEST PUSH1 0x0 PUSH3 0x309 PUSH1 0xE DUP4 PUSH3 0x2C6 JUMP JUMPDEST SWAP2 POP PUSH3 0x316 DUP3 PUSH3 0x2D1 JUMP JUMPDEST PUSH1 0xE DUP3 ADD SWAP1 POP SWAP2 SWAP1 POP JUMP JUMPDEST PUSH1 0x0 PUSH3 0x32E DUP3 PUSH3 0x2FA JUMP JUMPDEST SWAP2 POP DUP2 SWAP1 POP SWAP2 SWAP1 POP JUMP JUMPDEST PUSH32 0x72656A656374456C656D656E7400000000000000000000000000000000000000 PUSH1 0x0 DUP3 ADD MSTORE POP JUMP JUMPDEST PUSH1 0x0 PUSH3 0x370 PUSH1 0xD DUP4 PUSH3 0x2C6 JUMP JUMPDEST SWAP2 POP PUSH3 0x37D DUP3 PUSH3 0x338 JUMP JUMPDEST PUSH1 0xD DUP3 ADD SWAP1 POP SWAP2 SWAP1 POP JUMP JUMPDEST PUSH1 0x0 PUSH3 0x395 DUP3 PUSH3 0x361 JUMP JUMPDEST SWAP2 POP DUP2 SWAP1 POP SWAP2 SWAP1 POP JUMP JUMPDEST PUSH32 0x72656D6F7665456C656D656E7400000000000000000000000000000000000000 PUSH1 0x0 DUP3 ADD MSTORE POP JUMP JUMPDEST PUSH1 0x0 PUSH3 0x3D7 PUSH1 0xD DUP4 PUSH3 0x2C6 JUMP JUMPDEST SWAP2 POP PUSH3 0x3E4 DUP3 PUSH3 0x39F JUMP JUMPDEST PUSH1 0xD DUP3 ADD SWAP1 POP SWAP2 SWAP1 POP JUMP JUMPDEST PUSH1 0x0 PUSH3 0x3FC DUP3 PUSH3 0x3C8 JUMP JUMPDEST SWAP2 POP DUP2 SWAP1 POP SWAP2 SWAP1 POP JUMP JUMPDEST PUSH32 0x636F6E6669726D55706461746500000000000000000000000000000000000000 PUSH1 0x0 DUP3 ADD MSTORE POP JUMP JUMPDEST PUSH1 0x0 PUSH3 0x43E PUSH1 0xD DUP4 PUSH3 0x2C6 JUMP JUMPDEST SWAP2 POP PUSH3 0x44B DUP3 PUSH3 0x406 JUMP JUMPDEST PUSH1 0xD DUP3 ADD SWAP1 POP SWAP2 SWAP1 POP JUMP JUMPDEST PUSH1 0x0 PUSH3 0x463 DUP3 PUSH3 0x42F JUMP JUMPDEST SWAP2 POP DUP2 SWAP1 POP SWAP2 SWAP1 POP JUMP JUMPDEST PUSH32 0x7265667573655570646174650000000000000000000000000000000000000000 PUSH1 0x0 DUP3 ADD MSTORE POP JUMP JUMPDEST PUSH1 0x0 PUSH3 0x4A5 PUSH1 0xC DUP4 PUSH3 0x2C6 JUMP JUMPDEST SWAP2 POP PUSH3 0x4B2 DUP3 PUSH3 0x46D JUMP JUMPDEST PUSH1 0xC DUP3 ADD SWAP1 POP SWAP2 SWAP1 POP JUMP JUMPDEST PUSH1 0x0 PUSH3 0x4CA DUP3 PUSH3 0x496 JUMP JUMPDEST SWAP2 POP DUP2 SWAP1 POP SWAP2 SWAP1 POP JUMP JUMPDEST PUSH2 0x4000 DUP1 PUSH3 0x4E4 PUSH1 0x0 CODECOPY PUSH1 0x0 RETURN INVALID PUSH1 0x80 PUSH1 0x40 MSTORE CALLVALUE DUP1 ISZERO PUSH2 0x10 JUMPI PUSH1 0x0 DUP1 REVERT JUMPDEST POP PUSH1 0x4 CALLDATASIZE LT PUSH2 0x1FB JUMPI PUSH1 0x0 CALLDATALOAD PUSH1 0xE0 SHR DUP1 PUSH4 0x67BE4673 GT PUSH2 0x11A JUMPI DUP1 PUSH4 0xC07473F6 GT PUSH2 0xAD JUMPI DUP1 PUSH4 0xCC78D728 GT PUSH2 0x7C JUMPI DUP1 PUSH4 0xCC78D728 EQ PUSH2 0x5BE JUMPI DUP1 PUSH4 0xD4F1E386 EQ PUSH2 0x5EE JUMPI DUP1 PUSH4 0xE0D64B37 EQ PUSH2 0x5F8 JUMPI DUP1 PUSH4 0xF851A440 EQ PUSH2 0x633 JUMPI DUP1 PUSH4 0xF9089BF2 EQ PUSH2 0x651 JUMPI PUSH2 0x1FB JUMP JUMPDEST DUP1 PUSH4 0xC07473F6 EQ PUSH2 0x538 JUMPI DUP1 PUSH4 0xC5E48E5A EQ PUSH2 0x568 JUMPI DUP1 PUSH4 0xC7B3564E EQ PUSH2 0x586 JUMPI DUP1 PUSH4 0xC9B3829F EQ PUSH2 0x5A2 JUMPI PUSH2 0x1FB JUMP JUMPDEST DUP1 PUSH4 0x84D804BE GT PUSH2 0xE9 JUMPI DUP1 PUSH4 0x84D804BE EQ PUSH2 0x4C6 JUMPI DUP1 PUSH4 0x9FC37ABF EQ PUSH2 0x4E4 JUMPI DUP1 PUSH4 0xA721EBDD EQ PUSH2 0x500 JUMPI DUP1 PUSH4 0xB17146C8 EQ PUSH2 0x51C JUMPI PUSH2 0x1FB JUMP JUMPDEST DUP1 PUSH4 0x67BE4673 EQ PUSH2 0x440 JUMPI DUP1 PUSH4 0x6B8D04FB EQ PUSH2 0x45E JUMPI DUP1 PUSH4 0x72BAE674 EQ PUSH2 0x48E JUMPI DUP1 PUSH4 0x7547C7A3 EQ PUSH2 0x4AA JUMPI PUSH2 0x1FB JUMP JUMPDEST DUP1 PUSH4 0x25D5971F GT PUSH2 0x192 JUMPI DUP1 PUSH4 0x3B72BAD5 GT PUSH2 0x161 JUMPI DUP1 PUSH4 0x3B72BAD5 EQ PUSH2 0x3A6 JUMPI DUP1 PUSH4 0x5DCC9391 EQ PUSH2 0x3C2 JUMPI DUP1 PUSH4 0x5FF329AF EQ PUSH2 0x3E0 JUMPI DUP1 PUSH4 0x613DAB3E EQ PUSH2 0x410 JUMPI PUSH2 0x1FB JUMP JUMPDEST DUP1 PUSH4 0x25D5971F EQ PUSH2 0x334 JUMPI DUP1 PUSH4 0x27855B13 EQ PUSH2 0x350 JUMPI DUP1 PUSH4 0x2A9AAA76 EQ PUSH2 0x36E JUMPI DUP1 PUSH4 0x36EAD39F EQ PUSH2 0x38A JUMPI PUSH2 0x1FB JUMP JUMPDEST DUP1 PUSH4 0x1D002CC0 GT PUSH2 0x1CE JUMPI DUP1 PUSH4 0x1D002CC0 EQ PUSH2 0x29A JUMPI DUP1 PUSH4 0x1D32E9B3 EQ PUSH2 0x2CA JUMPI DUP1 PUSH4 0x1FAA1128 EQ PUSH2 0x2E8 JUMPI DUP1 PUSH4 0x20CB13AB EQ PUSH2 0x304 JUMPI PUSH2 0x1FB JUMP JUMPDEST DUP1 PUSH4 0x13EBA92 EQ PUSH2 0x200 JUMPI DUP1 PUSH4 0xA274280 EQ PUSH2 0x230 JUMPI DUP1 PUSH4 0xD67F59E EQ PUSH2 0x24C JUMPI DUP1 PUSH4 0x16934FC4 EQ PUSH2 0x26A JUMPI JUMPDEST PUSH1 0x0 DUP1 REVERT JUMPDEST PUSH2 0x21A PUSH1 0x4 DUP1 CALLDATASIZE SUB DUP2 ADD SWAP1 PUSH2 0x215 SWAP2 SWAP1 PUSH2 0x2CD0 JUMP JUMPDEST PUSH2 0x681 JUMP JUMPDEST PUSH1 0x40 MLOAD PUSH2 0x227 SWAP2 SWAP1 PUSH2 0x2D16 JUMP JUMPDEST PUSH1 0x40 MLOAD DUP1 SWAP2 SUB SWAP1 RETURN JUMPDEST PUSH2 0x24A PUSH1 0x4 DUP1 CALLDATASIZE SUB DUP2 ADD SWAP1 PUSH2 0x245 SWAP2 SWAP1 PUSH2 0x2E77 JUMP JUMPDEST PUSH2 0x699 JUMP JUMPDEST STOP JUMPDEST PUSH2 0x254 PUSH2 0xA49 JUMP JUMPDEST PUSH1 0x40 MLOAD PUSH2 0x261 SWAP2 SWAP1 PUSH2 0x2FDD JUMP JUMPDEST PUSH1 0x40 MLOAD DUP1 SWAP2 SUB SWAP1 RETURN JUMPDEST PUSH2 0x284 PUSH1 0x4 DUP1 CALLDATASIZE SUB DUP2 ADD SWAP1 PUSH2 0x27F SWAP2 SWAP1 PUSH2 0x2CD0 JUMP JUMPDEST PUSH2 0xA6F JUMP JUMPDEST PUSH1 0x40 MLOAD PUSH2 0x291 SWAP2 SWAP1 PUSH2 0x2D16 JUMP JUMPDEST PUSH1 0x40 MLOAD DUP1 SWAP2 SUB SWAP1 RETURN JUMPDEST PUSH2 0x2B4 PUSH1 0x4 DUP1 CALLDATASIZE SUB DUP2 ADD SWAP1 PUSH2 0x2AF SWAP2 SWAP1 PUSH2 0x2CD0 JUMP JUMPDEST PUSH2 0xA87 JUMP JUMPDEST PUSH1 0x40 MLOAD PUSH2 0x2C1 SWAP2 SWAP1 PUSH2 0x2D16 JUMP JUMPDEST PUSH1 0x40 MLOAD DUP1 SWAP2 SUB SWAP1 RETURN JUMPDEST PUSH2 0x2D2 PUSH2 0xA9F JUMP JUMPDEST PUSH1 0x40 MLOAD PUSH2 0x2DF SWAP2 SWAP1 PUSH2 0x3007 JUMP JUMPDEST PUSH1 0x40 MLOAD DUP1 SWAP2 SUB SWAP1 RETURN JUMPDEST PUSH2 0x302 PUSH1 0x4 DUP1 CALLDATASIZE SUB DUP2 ADD SWAP1 PUSH2 0x2FD SWAP2 SWAP1 PUSH2 0x304E JUMP JUMPDEST PUSH2 0xAC5 JUMP JUMPDEST STOP JUMPDEST PUSH2 0x31E PUSH1 0x4 DUP1 CALLDATASIZE SUB DUP2 ADD SWAP1 PUSH2 0x319 SWAP2 SWAP1 PUSH2 0x307B JUMP JUMPDEST PUSH2 0xC6F JUMP JUMPDEST PUSH1 0x40 MLOAD PUSH2 0x32B SWAP2 SWAP1 PUSH2 0x2D16 JUMP JUMPDEST PUSH1 0x40 MLOAD DUP1 SWAP2 SUB SWAP1 RETURN JUMPDEST PUSH2 0x34E PUSH1 0x4 DUP1 CALLDATASIZE SUB DUP2 ADD SWAP1 PUSH2 0x349 SWAP2 SWAP1 PUSH2 0x304E JUMP JUMPDEST PUSH2 0xCC1 JUMP JUMPDEST STOP JUMPDEST PUSH2 0x358 PUSH2 0xEBD JUMP JUMPDEST PUSH1 0x40 MLOAD PUSH2 0x365 SWAP2 SWAP1 PUSH2 0x2D16 JUMP JUMPDEST PUSH1 0x40 MLOAD DUP1 SWAP2 SUB SWAP1 RETURN JUMPDEST PUSH2 0x388 PUSH1 0x4 DUP1 CALLDATASIZE SUB DUP2 ADD SWAP1 PUSH2 0x383 SWAP2 SWAP1 PUSH2 0x30F3 JUMP JUMPDEST PUSH2 0xECF JUMP JUMPDEST STOP JUMPDEST PUSH2 0x3A4 PUSH1 0x4 DUP1 CALLDATASIZE SUB DUP2 ADD SWAP1 PUSH2 0x39F SWAP2 SWAP1 PUSH2 0x304E JUMP JUMPDEST PUSH2 0xF99 JUMP JUMPDEST STOP JUMPDEST PUSH2 0x3C0 PUSH1 0x4 DUP1 CALLDATASIZE SUB DUP2 ADD SWAP1 PUSH2 0x3BB SWAP2 SWAP1 PUSH2 0x304E JUMP JUMPDEST PUSH2 0x1226 JUMP JUMPDEST STOP JUMPDEST PUSH2 0x3CA PUSH2 0x149C JUMP JUMPDEST PUSH1 0x40 MLOAD PUSH2 0x3D7 SWAP2 SWAP1 PUSH2 0x2D16 JUMP JUMPDEST PUSH1 0x40 MLOAD DUP1 SWAP2 SUB SWAP1 RETURN JUMPDEST PUSH2 0x3FA PUSH1 0x4 DUP1 CALLDATASIZE SUB DUP2 ADD SWAP1 PUSH2 0x3F5 SWAP2 SWAP1 PUSH2 0x2CD0 JUMP JUMPDEST PUSH2 0x14A2 JUMP JUMPDEST PUSH1 0x40 MLOAD PUSH2 0x407 SWAP2 SWAP1 PUSH2 0x2D16 JUMP JUMPDEST PUSH1 0x40 MLOAD DUP1 SWAP2 SUB SWAP1 RETURN JUMPDEST PUSH2 0x42A PUSH1 0x4 DUP1 CALLDATASIZE SUB DUP2 ADD SWAP1 PUSH2 0x425 SWAP2 SWAP1 PUSH2 0x314F JUMP JUMPDEST PUSH2 0x168D JUMP JUMPDEST PUSH1 0x40 MLOAD PUSH2 0x437 SWAP2 SWAP1 PUSH2 0x31A7 JUMP JUMPDEST PUSH1 0x40 MLOAD DUP1 SWAP2 SUB SWAP1 RETURN JUMPDEST PUSH2 0x448 PUSH2 0x16C3 JUMP JUMPDEST PUSH1 0x40 MLOAD PUSH2 0x455 SWAP2 SWAP1 PUSH2 0x2D16 JUMP JUMPDEST PUSH1 0x40 MLOAD DUP1 SWAP2 SUB SWAP1 RETURN JUMPDEST PUSH2 0x478 PUSH1 0x4 DUP1 CALLDATASIZE SUB DUP2 ADD SWAP1 PUSH2 0x473 SWAP2 SWAP1 PUSH2 0x2CD0 JUMP JUMPDEST PUSH2 0x16C9 JUMP JUMPDEST PUSH1 0x40 MLOAD PUSH2 0x485 SWAP2 SWAP1 PUSH2 0x31A7 JUMP JUMPDEST PUSH1 0x40 MLOAD DUP1 SWAP2 SUB SWAP1 RETURN JUMPDEST PUSH2 0x4A8 PUSH1 0x4 DUP1 CALLDATASIZE SUB DUP2 ADD SWAP1 PUSH2 0x4A3 SWAP2 SWAP1 PUSH2 0x307B JUMP JUMPDEST PUSH2 0x17A1 JUMP JUMPDEST STOP JUMPDEST PUSH2 0x4C4 PUSH1 0x4 DUP1 CALLDATASIZE SUB DUP2 ADD SWAP1 PUSH2 0x4BF SWAP2 SWAP1 PUSH2 0x304E JUMP JUMPDEST PUSH2 0x18AA JUMP JUMPDEST STOP JUMPDEST PUSH2 0x4CE PUSH2 0x1AFA JUMP JUMPDEST PUSH1 0x40 MLOAD PUSH2 0x4DB SWAP2 SWAP1 PUSH2 0x2D16 JUMP JUMPDEST PUSH1 0x40 MLOAD DUP1 SWAP2 SUB SWAP1 RETURN JUMPDEST PUSH2 0x4FE PUSH1 0x4 DUP1 CALLDATASIZE SUB DUP2 ADD SWAP1 PUSH2 0x4F9 SWAP2 SWAP1 PUSH2 0x304E JUMP JUMPDEST PUSH2 0x1B02 JUMP JUMPDEST STOP JUMPDEST PUSH2 0x51A PUSH1 0x4 DUP1 CALLDATASIZE SUB DUP2 ADD SWAP1 PUSH2 0x515 SWAP2 SWAP1 PUSH2 0x31C2 JUMP JUMPDEST PUSH2 0x1C53 JUMP JUMPDEST STOP JUMPDEST PUSH2 0x536 PUSH1 0x4 DUP1 CALLDATASIZE SUB DUP2 ADD SWAP1 PUSH2 0x531 SWAP2 SWAP1 PUSH2 0x31C2 JUMP JUMPDEST PUSH2 0x1D3A JUMP JUMPDEST STOP JUMPDEST PUSH2 0x552 PUSH1 0x4 DUP1 CALLDATASIZE SUB DUP2 ADD SWAP1 PUSH2 0x54D SWAP2 SWAP1 PUSH2 0x2CD0 JUMP JUMPDEST PUSH2 0x1E21 JUMP JUMPDEST PUSH1 0x40 MLOAD PUSH2 0x55F SWAP2 SWAP1 PUSH2 0x2D16 JUMP JUMPDEST PUSH1 0x40 MLOAD DUP1 SWAP2 SUB SWAP1 RETURN JUMPDEST PUSH2 0x570 PUSH2 0x1E39 JUMP JUMPDEST PUSH1 0x40 MLOAD PUSH2 0x57D SWAP2 SWAP1 PUSH2 0x2D16 JUMP JUMPDEST PUSH1 0x40 MLOAD DUP1 SWAP2 SUB SWAP1 RETURN JUMPDEST PUSH2 0x5A0 PUSH1 0x4 DUP1 CALLDATASIZE SUB DUP2 ADD SWAP1 PUSH2 0x59B SWAP2 SWAP1 PUSH2 0x31C2 JUMP JUMPDEST PUSH2 0x1E42 JUMP JUMPDEST STOP JUMPDEST PUSH2 0x5BC PUSH1 0x4 DUP1 CALLDATASIZE SUB DUP2 ADD SWAP1 PUSH2 0x5B7 SWAP2 SWAP1 PUSH2 0x304E JUMP JUMPDEST PUSH2 0x1F29 JUMP JUMPDEST STOP JUMPDEST PUSH2 0x5D8 PUSH1 0x4 DUP1 CALLDATASIZE SUB DUP2 ADD SWAP1 PUSH2 0x5D3 SWAP2 SWAP1 PUSH2 0x2CD0 JUMP JUMPDEST PUSH2 0x20D3 JUMP JUMPDEST PUSH1 0x40 MLOAD PUSH2 0x5E5 SWAP2 SWAP1 PUSH2 0x2D16 JUMP JUMPDEST PUSH1 0x40 MLOAD DUP1 SWAP2 SUB SWAP1 RETURN JUMPDEST PUSH2 0x5F6 PUSH2 0x211C JUMP JUMPDEST STOP JUMPDEST PUSH2 0x612 PUSH1 0x4 DUP1 CALLDATASIZE SUB DUP2 ADD SWAP1 PUSH2 0x60D SWAP2 SWAP1 PUSH2 0x304E JUMP JUMPDEST PUSH2 0x2510 JUMP JUMPDEST PUSH1 0x40 MLOAD PUSH2 0x62A SWAP13 SWAP12 SWAP11 SWAP10 SWAP9 SWAP8 SWAP7 SWAP6 SWAP5 SWAP4 SWAP3 SWAP2 SWAP1 PUSH2 0x329D JUMP JUMPDEST PUSH1 0x40 MLOAD DUP1 SWAP2 SUB SWAP1 RETURN JUMPDEST PUSH2 0x63B PUSH2 0x29D0 JUMP JUMPDEST PUSH1 0x40 MLOAD PUSH2 0x648 SWAP2 SWAP1 PUSH2 0x3007 JUMP JUMPDEST PUSH1 0x40 MLOAD DUP1 SWAP2 SUB SWAP1 RETURN JUMPDEST PUSH2 0x66B PUSH1 0x4 DUP1 CALLDATASIZE SUB DUP2 ADD SWAP1 PUSH2 0x666 SWAP2 SWAP1 PUSH2 0x304E JUMP JUMPDEST PUSH2 0x29F6 JUMP JUMPDEST PUSH1 0x40 MLOAD PUSH2 0x678 SWAP2 SWAP1 PUSH2 0x2D16 JUMP JUMPDEST PUSH1 0x40 MLOAD DUP1 SWAP2 SUB SWAP1 RETURN JUMPDEST PUSH1 0x2 PUSH1 0x20 MSTORE DUP1 PUSH1 0x0 MSTORE PUSH1 0x40 PUSH1 0x0 KECCAK256 PUSH1 0x0 SWAP2 POP SWAP1 POP SLOAD DUP2 JUMP JUMPDEST PUSH5 0x2540BE400 PUSH1 0x8 PUSH1 0x0 SWAP1 SLOAD SWAP1 PUSH2 0x100 EXP SWAP1 DIV PUSH20 0xFFFFFFFFFFFFFFFFFFFFFFFFFFFFFFFFFFFFFFFF AND PUSH20 0xFFFFFFFFFFFFFFFFFFFFFFFFFFFFFFFFFFFFFFFF AND PUSH4 0x70A08231 CALLER PUSH1 0x40 MLOAD DUP3 PUSH4 0xFFFFFFFF AND PUSH1 0xE0 SHL DUP2 MSTORE PUSH1 0x4 ADD PUSH2 0x6FA SWAP2 SWAP1 PUSH2 0x3007 JUMP JUMPDEST PUSH1 0x20 PUSH1 0x40 MLOAD DUP1 DUP4 SUB DUP2 DUP7 GAS STATICCALL ISZERO DUP1 ISZERO PUSH2 0x717 JUMPI RETURNDATASIZE PUSH1 0x0 DUP1 RETURNDATACOPY RETURNDATASIZE PUSH1 0x0 REVERT JUMPDEST POP POP POP POP PUSH1 0x40 MLOAD RETURNDATASIZE PUSH1 0x1F NOT PUSH1 0x1F DUP3 ADD AND DUP3 ADD DUP1 PUSH1 0x40 MSTORE POP DUP2 ADD SWAP1 PUSH2 0x73B SWAP2 SWAP1 PUSH2 0x33A4 JUMP JUMPDEST LT ISZERO PUSH2 0x77C JUMPI PUSH1 0x40 MLOAD PUSH32 0x8C379A000000000000000000000000000000000000000000000000000000000 DUP2 MSTORE PUSH1 0x4 ADD PUSH2 0x773 SWAP1 PUSH2 0x3443 JUMP JUMPDEST PUSH1 0x40 MLOAD DUP1 SWAP2 SUB SWAP1 REVERT JUMPDEST PUSH1 0x8 PUSH1 0x0 SWAP1 SLOAD SWAP1 PUSH2 0x100 EXP SWAP1 DIV PUSH20 0xFFFFFFFFFFFFFFFFFFFFFFFFFFFFFFFFFFFFFFFF AND PUSH20 0xFFFFFFFFFFFFFFFFFFFFFFFFFFFFFFFFFFFFFFFF AND PUSH4 0x23B872DD CALLER ADDRESS PUSH5 0x2540BE400 PUSH1 0x40 MLOAD DUP5 PUSH4 0xFFFFFFFF AND PUSH1 0xE0 SHL DUP2 MSTORE PUSH1 0x4 ADD PUSH2 0x7E0 SWAP4 SWAP3 SWAP2 SWAP1 PUSH2 0x3463 JUMP JUMPDEST PUSH1 0x20 PUSH1 0x40 MLOAD DUP1 DUP4 SUB DUP2 PUSH1 0x0 DUP8 GAS CALL ISZERO DUP1 ISZERO PUSH2 0x7FF JUMPI RETURNDATASIZE PUSH1 0x0 DUP1 RETURNDATACOPY RETURNDATASIZE PUSH1 0x0 REVERT JUMPDEST POP POP POP POP PUSH1 0x40 MLOAD RETURNDATASIZE PUSH1 0x1F NOT PUSH1 0x1F DUP3 ADD AND DUP3 ADD DUP1 PUSH1 0x40 MSTORE POP DUP2 ADD SWAP1 PUSH2 0x823 SWAP2 SWAP1 PUSH2 0x34AF JUMP JUMPDEST PUSH2 0x862 JUMPI PUSH1 0x40 MLOAD PUSH32 0x8C379A000000000000000000000000000000000000000000000000000000000 DUP2 MSTORE PUSH1 0x4 ADD PUSH2 0x859 SWAP1 PUSH2 0x3528 JUMP JUMPDEST PUSH1 0x40 MLOAD DUP1 SWAP2 SUB SWAP1 REVERT JUMPDEST PUSH1 0x40 MLOAD DUP1 PUSH2 0x180 ADD PUSH1 0x40 MSTORE DUP1 DUP7 DUP2 MSTORE PUSH1 0x20 ADD DUP6 DUP2 MSTORE PUSH1 0x20 ADD DUP5 DUP2 MSTORE PUSH1 0x20 ADD PUSH1 0x40 MLOAD DUP1 PUSH1 0x20 ADD PUSH1 0x40 MSTORE DUP1 PUSH1 0x0 DUP2 MSTORE POP DUP2 MSTORE PUSH1 0x20 ADD PUSH1 0x40 MLOAD DUP1 PUSH1 0x20 ADD PUSH1 0x40 MSTORE DUP1 PUSH1 0x0 DUP2 MSTORE POP DUP2 MSTORE PUSH1 0x20 ADD PUSH1 0x40 MLOAD DUP1 PUSH1 0x20 ADD PUSH1 0x40 MSTORE DUP1 PUSH1 0x0 DUP2 MSTORE POP DUP2 MSTORE PUSH1 0x20 ADD DUP4 DUP2 MSTORE PUSH1 0x20 ADD DUP3 DUP2 MSTORE PUSH1 0x20 ADD CALLER PUSH20 0xFFFFFFFFFFFFFFFFFFFFFFFFFFFFFFFFFFFFFFFF AND DUP2 MSTORE PUSH1 0x20 ADD PUSH1 0x0 DUP2 MSTORE PUSH1 0x20 ADD TIMESTAMP DUP2 MSTORE PUSH1 0x20 ADD PUSH1 0x1 DUP2 MSTORE POP PUSH1 0x4 PUSH1 0x0 PUSH1 0x5 SLOAD DUP2 MSTORE PUSH1 0x20 ADD SWAP1 DUP2 MSTORE PUSH1 0x20 ADD PUSH1 0x0 KECCAK256 PUSH1 0x0 DUP3 ADD MLOAD DUP2 PUSH1 0x0 ADD SWAP1 DUP2 PUSH2 0x923 SWAP2 SWAP1 PUSH2 0x374A JUMP JUMPDEST POP PUSH1 0x20 DUP3 ADD MLOAD DUP2 PUSH1 0x1 ADD SWAP1 DUP2 PUSH2 0x939 SWAP2 SWAP1 PUSH2 0x374A JUMP JUMPDEST POP PUSH1 0x40 DUP3 ADD MLOAD DUP2 PUSH1 0x2 ADD SWAP1 DUP2 PUSH2 0x94F SWAP2 SWAP1 PUSH2 0x374A JUMP JUMPDEST POP PUSH1 0x60 DUP3 ADD MLOAD DUP2 PUSH1 0x3 ADD SWAP1 DUP2 PUSH2 0x965 SWAP2 SWAP1 PUSH2 0x374A JUMP JUMPDEST POP PUSH1 0x80 DUP3 ADD MLOAD DUP2 PUSH1 0x4 ADD SWAP1 DUP2 PUSH2 0x97B SWAP2 SWAP1 PUSH2 0x374A JUMP JUMPDEST POP PUSH1 0xA0 DUP3 ADD MLOAD DUP2 PUSH1 0x5 ADD SWAP1 DUP2 PUSH2 0x991 SWAP2 SWAP1 PUSH2 0x374A JUMP JUMPDEST POP PUSH1 0xC0 DUP3 ADD MLOAD DUP2 PUSH1 0x6 ADD SWAP1 DUP2 PUSH2 0x9A7 SWAP2 SWAP1 PUSH2 0x374A JUMP JUMPDEST POP PUSH1 0xE0 DUP3 ADD MLOAD DUP2 PUSH1 0x7 ADD SWAP1 DUP2 PUSH2 0x9BD SWAP2 SWAP1 PUSH2 0x374A JUMP JUMPDEST POP PUSH2 0x100 DUP3 ADD MLOAD DUP2 PUSH1 0x8 ADD PUSH1 0x0 PUSH2 0x100 EXP DUP2 SLOAD DUP2 PUSH20 0xFFFFFFFFFFFFFFFFFFFFFFFFFFFFFFFFFFFFFFFF MUL NOT AND SWAP1 DUP4 PUSH20 0xFFFFFFFFFFFFFFFFFFFFFFFFFFFFFFFFFFFFFFFF AND MUL OR SWAP1 SSTORE POP PUSH2 0x120 DUP3 ADD MLOAD DUP2 PUSH1 0x9 ADD SSTORE PUSH2 0x140 DUP3 ADD MLOAD DUP2 PUSH1 0xA ADD SSTORE PUSH2 0x160 DUP3 ADD MLOAD DUP2 PUSH1 0xB ADD SSTORE SWAP1 POP POP PUSH1 0x5 PUSH1 0x0 DUP2 SLOAD DUP1 SWAP3 SWAP2 SWAP1 PUSH2 0xA3D SWAP1 PUSH2 0x384B JUMP JUMPDEST SWAP2 SWAP1 POP SSTORE POP POP POP POP POP POP JUMP JUMPDEST PUSH1 0x8 PUSH1 0x0 SWAP1 SLOAD SWAP1 PUSH2 0x100 EXP SWAP1 DIV PUSH20 0xFFFFFFFFFFFFFFFFFFFFFFFFFFFFFFFFFFFFFFFF AND DUP2 JUMP JUMPDEST PUSH1 0x0 PUSH1 0x20 MSTORE DUP1 PUSH1 0x0 MSTORE PUSH1 0x40 PUSH1 0x0 KECCAK256 PUSH1 0x0 SWAP2 POP SWAP1 POP SLOAD DUP2 JUMP JUMPDEST PUSH1 0x3 PUSH1 0x20 MSTORE DUP1 PUSH1 0x0 MSTORE PUSH1 0x40 PUSH1 0x0 KECCAK256 PUSH1 0x0 SWAP2 POP SWAP1 POP SLOAD DUP2 JUMP JUMPDEST PUSH1 0x7 PUSH1 0x0 SWAP1 SLOAD SWAP1 PUSH2 0x100 EXP SWAP1 DIV PUSH20 0xFFFFFFFFFFFFFFFFFFFFFFFFFFFFFFFFFFFFFFFF AND DUP2 JUMP JUMPDEST PUSH1 0x6 PUSH1 0x0 SWAP1 SLOAD SWAP1 PUSH2 0x100 EXP SWAP1 DIV PUSH20 0xFFFFFFFFFFFFFFFFFFFFFFFFFFFFFFFFFFFFFFFF AND PUSH20 0xFFFFFFFFFFFFFFFFFFFFFFFFFFFFFFFFFFFFFFFF AND CALLER PUSH20 0xFFFFFFFFFFFFFFFFFFFFFFFFFFFFFFFFFFFFFFFF AND EQ PUSH2 0xB55 JUMPI PUSH1 0x40 MLOAD PUSH32 0x8C379A000000000000000000000000000000000000000000000000000000000 DUP2 MSTORE PUSH1 0x4 ADD PUSH2 0xB4C SWAP1 PUSH2 0x3905 JUMP JUMPDEST PUSH1 0x40 MLOAD DUP1 SWAP2 SUB SWAP1 REVERT JUMPDEST PUSH1 0x40 MLOAD DUP1 PUSH1 0x40 ADD PUSH1 0x40 MSTORE DUP1 PUSH1 0xD DUP2 MSTORE PUSH1 0x20 ADD PUSH32 0x72656A656374456C656D656E7400000000000000000000000000000000000000 DUP2 MSTORE POP PUSH1 0x9 DUP2 PUSH1 0x40 MLOAD PUSH2 0xB9B SWAP2 SWAP1 PUSH2 0x3961 JUMP JUMPDEST SWAP1 DUP2 MSTORE PUSH1 0x20 ADD PUSH1 0x40 MLOAD DUP1 SWAP2 SUB SWAP1 KECCAK256 PUSH1 0x0 SWAP1 SLOAD SWAP1 PUSH2 0x100 EXP SWAP1 DIV PUSH1 0xFF AND PUSH2 0xBF6 JUMPI PUSH1 0x40 MLOAD PUSH32 0x8C379A000000000000000000000000000000000000000000000000000000000 DUP2 MSTORE PUSH1 0x4 ADD PUSH2 0xBED SWAP1 PUSH2 0x39C4 JUMP JUMPDEST PUSH1 0x40 MLOAD DUP1 SWAP2 SUB SWAP1 REVERT JUMPDEST PUSH1 0x0 PUSH1 0x4 PUSH1 0x0 DUP5 DUP2 MSTORE PUSH1 0x20 ADD SWAP1 DUP2 MSTORE PUSH1 0x20 ADD PUSH1 0x0 KECCAK256 PUSH1 0x9 ADD SLOAD EQ PUSH2 0xC4F JUMPI PUSH1 0x40 MLOAD PUSH32 0x8C379A000000000000000000000000000000000000000000000000000000000 DUP2 MSTORE PUSH1 0x4 ADD PUSH2 0xC46 SWAP1 PUSH2 0x3A30 JUMP JUMPDEST PUSH1 0x40 MLOAD DUP1 SWAP2 SUB SWAP1 REVERT JUMPDEST PUSH1 0x5 PUSH1 0x4 PUSH1 0x0 DUP5 DUP2 MSTORE PUSH1 0x20 ADD SWAP1 DUP2 MSTORE PUSH1 0x20 ADD PUSH1 0x0 KECCAK256 PUSH1 0x9 ADD DUP2 SWAP1 SSTORE POP POP POP JUMP JUMPDEST PUSH1 0x0 DUP1 DUP3 TIMESTAMP PUSH2 0xC7E SWAP2 SWAP1 PUSH2 0x3A50 JUMP JUMPDEST SWAP1 POP PUSH1 0x0 PUSH2 0xC8B DUP3 PUSH2 0x29F6 JUMP JUMPDEST SWAP1 POP PUSH1 0x0 PUSH1 0xC PUSH1 0x64 DUP4 DUP9 PUSH2 0xC9F SWAP2 SWAP1 PUSH2 0x3A84 JUMP JUMPDEST PUSH2 0xCA9 SWAP2 SWAP1 PUSH2 0x3AF5 JUMP JUMPDEST PUSH2 0xCB3 SWAP2 SWAP1 PUSH2 0x3AF5 JUMP JUMPDEST SWAP1 POP DUP1 SWAP4 POP POP POP POP SWAP3 SWAP2 POP POP JUMP JUMPDEST DUP1 PUSH1 0x0 DUP1 CALLER PUSH20 0xFFFFFFFFFFFFFFFFFFFFFFFFFFFFFFFFFFFFFFFF AND PUSH20 0xFFFFFFFFFFFFFFFFFFFFFFFFFFFFFFFFFFFFFFFF AND DUP2 MSTORE PUSH1 0x20 ADD SWAP1 DUP2 MSTORE PUSH1 0x20 ADD PUSH1 0x0 KECCAK256 SLOAD LT ISZERO PUSH2 0xD42 JUMPI PUSH1 0x40 MLOAD PUSH32 0x8C379A000000000000000000000000000000000000000000000000000000000 DUP2 MSTORE PUSH1 0x4 ADD PUSH2 0xD39 SWAP1 PUSH2 0x3B72 JUMP JUMPDEST PUSH1 0x40 MLOAD DUP1 SWAP2 SUB SWAP1 REVERT JUMPDEST DUP1 PUSH1 0x0 DUP1 CALLER PUSH20 0xFFFFFFFFFFFFFFFFFFFFFFFFFFFFFFFFFFFFFFFF AND PUSH20 0xFFFFFFFFFFFFFFFFFFFFFFFFFFFFFFFFFFFFFFFF AND DUP2 MSTORE PUSH1 0x20 ADD SWAP1 DUP2 MSTORE PUSH1 0x20 ADD PUSH1 0x0 KECCAK256 PUSH1 0x0 DUP3 DUP3 SLOAD PUSH2 0xD90 SWAP2 SWAP1 PUSH2 0x3A50 JUMP JUMPDEST SWAP3 POP POP DUP2 SWAP1 SSTORE POP TIMESTAMP PUSH1 0x2 PUSH1 0x0 CALLER PUSH20 0xFFFFFFFFFFFFFFFFFFFFFFFFFFFFFFFFFFFFFFFF AND PUSH20 0xFFFFFFFFFFFFFFFFFFFFFFFFFFFFFFFFFFFFFFFF AND DUP2 MSTORE PUSH1 0x20 ADD SWAP1 DUP2 MSTORE PUSH1 0x20 ADD PUSH1 0x0 KECCAK256 DUP2 SWAP1 SSTORE POP PUSH1 0x8 PUSH1 0x0 SWAP1 SLOAD SWAP1 PUSH2 0x100 EXP SWAP1 DIV PUSH20 0xFFFFFFFFFFFFFFFFFFFFFFFFFFFFFFFFFFFFFFFF AND PUSH20 0xFFFFFFFFFFFFFFFFFFFFFFFFFFFFFFFFFFFFFFFF AND PUSH4 0xA9059CBB CALLER DUP4 PUSH1 0x40 MLOAD DUP4 PUSH4 0xFFFFFFFF AND PUSH1 0xE0 SHL DUP2 MSTORE PUSH1 0x4 ADD PUSH2 0xE38 SWAP3 SWAP2 SWAP1 PUSH2 0x3B92 JUMP JUMPDEST PUSH1 0x20 PUSH1 0x40 MLOAD DUP1 DUP4 SUB DUP2 PUSH1 0x0 DUP8 GAS CALL ISZERO DUP1 ISZERO PUSH2 0xE57 JUMPI RETURNDATASIZE PUSH1 0x0 DUP1 RETURNDATACOPY RETURNDATASIZE PUSH1 0x0 REVERT JUMPDEST POP POP POP POP PUSH1 0x40 MLOAD RETURNDATASIZE PUSH1 0x1F NOT PUSH1 0x1F DUP3 ADD AND DUP3 ADD DUP1 PUSH1 0x40 MSTORE POP DUP2 ADD SWAP1 PUSH2 0xE7B SWAP2 SWAP1 PUSH2 0x34AF JUMP JUMPDEST PUSH2 0xEBA JUMPI PUSH1 0x40 MLOAD PUSH32 0x8C379A000000000000000000000000000000000000000000000000000000000 DUP2 MSTORE PUSH1 0x4 ADD PUSH2 0xEB1 SWAP1 PUSH2 0x3528 JUMP JUMPDEST PUSH1 0x40 MLOAD DUP1 SWAP2 SUB SWAP1 REVERT JUMPDEST POP JUMP JUMPDEST PUSH1 0xC PUSH2 0xE10 PUSH2 0xECC SWAP2 SWAP1 PUSH2 0x3AF5 JUMP JUMPDEST DUP2 JUMP JUMPDEST PUSH1 0x7 PUSH1 0x0 SWAP1 SLOAD SWAP1 PUSH2 0x100 EXP SWAP1 DIV PUSH20 0xFFFFFFFFFFFFFFFFFFFFFFFFFFFFFFFFFFFFFFFF AND PUSH20 0xFFFFFFFFFFFFFFFFFFFFFFFFFFFFFFFFFFFFFFFF AND CALLER PUSH20 0xFFFFFFFFFFFFFFFFFFFFFFFFFFFFFFFFFFFFFFFF AND EQ PUSH2 0xF5F JUMPI PUSH1 0x40 MLOAD PUSH32 0x8C379A000000000000000000000000000000000000000000000000000000000 DUP2 MSTORE PUSH1 0x4 ADD PUSH2 0xF56 SWAP1 PUSH2 0x3C2D JUMP JUMPDEST PUSH1 0x40 MLOAD DUP1 SWAP2 SUB SWAP1 REVERT JUMPDEST DUP1 PUSH1 0x9 DUP4 PUSH1 0x40 MLOAD PUSH2 0xF70 SWAP2 SWAP1 PUSH2 0x3961 JUMP JUMPDEST SWAP1 DUP2 MSTORE PUSH1 0x20 ADD PUSH1 0x40 MLOAD DUP1 SWAP2 SUB SWAP1 KECCAK256 PUSH1 0x0 PUSH2 0x100 EXP DUP2 SLOAD DUP2 PUSH1 0xFF MUL NOT AND SWAP1 DUP4 ISZERO ISZERO MUL OR SWAP1 SSTORE POP POP POP JUMP JUMPDEST PUSH1 0x6 PUSH1 0x0 SWAP1 SLOAD SWAP1 PUSH2 0x100 EXP SWAP1 DIV PUSH20 0xFFFFFFFFFFFFFFFFFFFFFFFFFFFFFFFFFFFFFFFF AND PUSH20 0xFFFFFFFFFFFFFFFFFFFFFFFFFFFFFFFFFFFFFFFF AND CALLER PUSH20 0xFFFFFFFFFFFFFFFFFFFFFFFFFFFFFFFFFFFFFFFF AND EQ PUSH2 0x1029 JUMPI PUSH1 0x40 MLOAD PUSH32 0x8C379A000000000000000000000000000000000000000000000000000000000 DUP2 MSTORE PUSH1 0x4 ADD PUSH2 0x1020 SWAP1 PUSH2 0x3905 JUMP JUMPDEST PUSH1 0x40 MLOAD DUP1 SWAP2 SUB SWAP1 REVERT JUMPDEST PUSH1 0x40 MLOAD DUP1 PUSH1 0x40 ADD PUSH1 0x40 MSTORE DUP1 PUSH1 0xC DUP2 MSTORE PUSH1 0x20 ADD PUSH32 0x7265667573655570646174650000000000000000000000000000000000000000 DUP2 MSTORE POP PUSH1 0x9 DUP2 PUSH1 0x40 MLOAD PUSH2 0x106F SWAP2 SWAP1 PUSH2 0x3961 JUMP JUMPDEST SWAP1 DUP2 MSTORE PUSH1 0x20 ADD PUSH1 0x40 MLOAD DUP1 SWAP2 SUB SWAP1 KECCAK256 PUSH1 0x0 SWAP1 SLOAD SWAP1 PUSH2 0x100 EXP SWAP1 DIV PUSH1 0xFF AND PUSH2 0x10CA JUMPI PUSH1 0x40 MLOAD PUSH32 0x8C379A000000000000000000000000000000000000000000000000000000000 DUP2 MSTORE PUSH1 0x4 ADD PUSH2 0x10C1 SWAP1 PUSH2 0x39C4 JUMP JUMPDEST PUSH1 0x40 MLOAD DUP1 SWAP2 SUB SWAP1 REVERT JUMPDEST PUSH1 0x4 DUP1 PUSH1 0x0 DUP5 DUP2 MSTORE PUSH1 0x20 ADD SWAP1 DUP2 MSTORE PUSH1 0x20 ADD PUSH1 0x0 KECCAK256 PUSH1 0x9 ADD SLOAD SUB PUSH2 0x1122 JUMPI PUSH1 0x40 MLOAD PUSH32 0x8C379A000000000000000000000000000000000000000000000000000000000 DUP2 MSTORE PUSH1 0x4 ADD PUSH2 0x1119 SWAP1 PUSH2 0x3CBF JUMP JUMPDEST PUSH1 0x40 MLOAD DUP1 SWAP2 SUB SWAP1 REVERT JUMPDEST PUSH1 0x1 PUSH1 0x4 PUSH1 0x0 DUP5 DUP2 MSTORE PUSH1 0x20 ADD SWAP1 DUP2 MSTORE PUSH1 0x20 ADD PUSH1 0x0 KECCAK256 PUSH1 0x9 ADD SLOAD SUB PUSH2 0x1178 JUMPI PUSH1 0x40 MLOAD DUP1 PUSH1 0x20 ADD PUSH1 0x40 MSTORE DUP1 PUSH1 0x0 DUP2 MSTORE POP PUSH1 0x4 PUSH1 0x0 DUP5 DUP2 MSTORE PUSH1 0x20 ADD SWAP1 DUP2 MSTORE PUSH1 0x20 ADD PUSH1 0x0 KECCAK256 PUSH1 0x3 ADD SWAP1 DUP2 PUSH2 0x1172 SWAP2 SWAP1 PUSH2 0x374A JUMP JUMPDEST POP PUSH2 0x1222 JUMP JUMPDEST PUSH1 0x2 PUSH1 0x4 PUSH1 0x0 DUP5 DUP2 MSTORE PUSH1 0x20 ADD SWAP1 DUP2 MSTORE PUSH1 0x20 ADD PUSH1 0x0 KECCAK256 PUSH1 0x9 ADD SLOAD SUB PUSH2 0x11CE JUMPI PUSH1 0x40 MLOAD DUP1 PUSH1 0x20 ADD PUSH1 0x40 MSTORE DUP1 PUSH1 0x0 DUP2 MSTORE POP PUSH1 0x4 PUSH1 0x0 DUP5 DUP2 MSTORE PUSH1 0x20 ADD SWAP1 DUP2 MSTORE PUSH1 0x20 ADD PUSH1 0x0 KECCAK256 PUSH1 0x4 ADD SWAP1 DUP2 PUSH2 0x11C8 SWAP2 SWAP1 PUSH2 0x374A JUMP JUMPDEST POP PUSH2 0x1221 JUMP JUMPDEST PUSH1 0x3 PUSH1 0x4 PUSH1 0x0 DUP5 DUP2 MSTORE PUSH1 0x20 ADD SWAP1 DUP2 MSTORE PUSH1 0x20 ADD PUSH1 0x0 KECCAK256 PUSH1 0x9 ADD SLOAD SUB PUSH2 0x1220 JUMPI PUSH1 0x40 MLOAD DUP1 PUSH1 0x20 ADD PUSH1 0x40 MSTORE DUP1 PUSH1 0x0 DUP2 MSTORE POP PUSH1 0x4 PUSH1 0x0 DUP5 DUP2 MSTORE PUSH1 0x20 ADD SWAP1 DUP2 MSTORE PUSH1 0x20 ADD PUSH1 0x0 KECCAK256 PUSH1 0x5 ADD SWAP1 DUP2 PUSH2 0x121E SWAP2 SWAP1 PUSH2 0x374A JUMP JUMPDEST POP JUMPDEST JUMPDEST JUMPDEST POP POP JUMP JUMPDEST PUSH1 0x6 PUSH1 0x0 SWAP1 SLOAD SWAP1 PUSH2 0x100 EXP SWAP1 DIV PUSH20 0xFFFFFFFFFFFFFFFFFFFFFFFFFFFFFFFFFFFFFFFF AND PUSH20 0xFFFFFFFFFFFFFFFFFFFFFFFFFFFFFFFFFFFFFFFF AND CALLER PUSH20 0xFFFFFFFFFFFFFFFFFFFFFFFFFFFFFFFFFFFFFFFF AND EQ PUSH2 0x12B6 JUMPI PUSH1 0x40 MLOAD PUSH32 0x8C379A000000000000000000000000000000000000000000000000000000000 DUP2 MSTORE PUSH1 0x4 ADD PUSH2 0x12AD SWAP1 PUSH2 0x3905 JUMP JUMPDEST PUSH1 0x40 MLOAD DUP1 SWAP2 SUB SWAP1 REVERT JUMPDEST PUSH1 0x40 MLOAD DUP1 PUSH1 0x40 ADD PUSH1 0x40 MSTORE DUP1 PUSH1 0xD DUP2 MSTORE PUSH1 0x20 ADD PUSH32 0x636F6E6669726D55706461746500000000000000000000000000000000000000 DUP2 MSTORE POP PUSH1 0x9 DUP2 PUSH1 0x40 MLOAD PUSH2 0x12FC SWAP2 SWAP1 PUSH2 0x3961 JUMP JUMPDEST SWAP1 DUP2 MSTORE PUSH1 0x20 ADD PUSH1 0x40 MLOAD DUP1 SWAP2 SUB SWAP1 KECCAK256 PUSH1 0x0 SWAP1 SLOAD SWAP1 PUSH2 0x100 EXP SWAP1 DIV PUSH1 0xFF AND PUSH2 0x1357 JUMPI PUSH1 0x40 MLOAD PUSH32 0x8C379A000000000000000000000000000000000000000000000000000000000 DUP2 MSTORE PUSH1 0x4 ADD PUSH2 0x134E SWAP1 PUSH2 0x39C4 JUMP JUMPDEST PUSH1 0x40 MLOAD DUP1 SWAP2 SUB SWAP1 REVERT JUMPDEST PUSH1 0x4 DUP1 PUSH1 0x0 DUP5 DUP2 MSTORE PUSH1 0x20 ADD SWAP1 DUP2 MSTORE PUSH1 0x20 ADD PUSH1 0x0 KECCAK256 PUSH1 0x9 ADD SLOAD SUB PUSH2 0x13AF JUMPI PUSH1 0x40 MLOAD PUSH32 0x8C379A000000000000000000000000000000000000000000000000000000000 DUP2 MSTORE PUSH1 0x4 ADD PUSH2 0x13A6 SWAP1 PUSH2 0x3CBF JUMP JUMPDEST PUSH1 0x40 MLOAD DUP1 SWAP2 SUB SWAP1 REVERT JUMPDEST PUSH1 0x1 PUSH1 0x4 PUSH1 0x0 DUP5 DUP2 MSTORE PUSH1 0x20 ADD SWAP1 DUP2 MSTORE PUSH1 0x20 ADD PUSH1 0x0 KECCAK256 PUSH1 0x9 ADD SLOAD SUB PUSH2 0x13EE JUMPI PUSH1 0x2 PUSH1 0x4 PUSH1 0x0 DUP5 DUP2 MSTORE PUSH1 0x20 ADD SWAP1 DUP2 MSTORE PUSH1 0x20 ADD PUSH1 0x0 KECCAK256 PUSH1 0x9 ADD DUP2 SWAP1 SSTORE POP PUSH2 0x1469 JUMP JUMPDEST PUSH1 0x2 PUSH1 0x4 PUSH1 0x0 DUP5 DUP2 MSTORE PUSH1 0x20 ADD SWAP1 DUP2 MSTORE PUSH1 0x20 ADD PUSH1 0x0 KECCAK256 PUSH1 0x9 ADD SLOAD SUB PUSH2 0x142D JUMPI PUSH1 0x3 PUSH1 0x4 PUSH1 0x0 DUP5 DUP2 MSTORE PUSH1 0x20 ADD SWAP1 DUP2 MSTORE PUSH1 0x20 ADD PUSH1 0x0 KECCAK256 PUSH1 0x9 ADD DUP2 SWAP1 SSTORE POP PUSH2 0x1468 JUMP JUMPDEST PUSH1 0x3 PUSH1 0x4 PUSH1 0x0 DUP5 DUP2 MSTORE PUSH1 0x20 ADD SWAP1 DUP2 MSTORE PUSH1 0x20 ADD PUSH1 0x0 KECCAK256 PUSH1 0x9 ADD SLOAD SUB PUSH2 0x1467 JUMPI PUSH1 0x4 DUP1 PUSH1 0x0 DUP5 DUP2 MSTORE PUSH1 0x20 ADD SWAP1 DUP2 MSTORE PUSH1 0x20 ADD PUSH1 0x0 KECCAK256 PUSH1 0x9 ADD DUP2 SWAP1 SSTORE POP JUMPDEST JUMPDEST JUMPDEST PUSH2 0x3E8 PUSH1 0x4 PUSH1 0x0 DUP5 DUP2 MSTORE PUSH1 0x20 ADD SWAP1 DUP2 MSTORE PUSH1 0x20 ADD PUSH1 0x0 KECCAK256 PUSH1 0xB ADD PUSH1 0x0 DUP3 DUP3 SLOAD PUSH2 0x1491 SWAP2 SWAP1 PUSH2 0x3CDF JUMP JUMPDEST SWAP3 POP POP DUP2 SWAP1 SSTORE POP POP POP JUMP JUMPDEST PUSH2 0xE10 DUP2 JUMP JUMPDEST PUSH1 0x0 DUP1 PUSH1 0x0 DUP1 DUP5 PUSH20 0xFFFFFFFFFFFFFFFFFFFFFFFFFFFFFFFFFFFFFFFF AND PUSH20 0xFFFFFFFFFFFFFFFFFFFFFFFFFFFFFFFFFFFFFFFF AND DUP2 MSTORE PUSH1 0x20 ADD SWAP1 DUP2 MSTORE PUSH1 0x20 ADD PUSH1 0x0 KECCAK256 SLOAD SUB PUSH2 0x14F2 JUMPI PUSH1 0x0 SWAP1 POP PUSH2 0x1688 JUMP JUMPDEST PUSH1 0x0 PUSH1 0x2 PUSH1 0x0 DUP5 PUSH20 0xFFFFFFFFFFFFFFFFFFFFFFFFFFFFFFFFFFFFFFFF AND PUSH20 0xFFFFFFFFFFFFFFFFFFFFFFFFFFFFFFFFFFFFFFFF AND DUP2 MSTORE PUSH1 0x20 ADD SWAP1 DUP2 MSTORE PUSH1 0x20 ADD PUSH1 0x0 KECCAK256 SLOAD TIMESTAMP PUSH2 0x153F SWAP2 SWAP1 PUSH2 0x3A50 JUMP JUMPDEST SWAP1 POP PUSH1 0xC PUSH2 0xE10 PUSH2 0x1550 SWAP2 SWAP1 PUSH2 0x3AF5 JUMP JUMPDEST DUP2 LT ISZERO PUSH2 0x1561 JUMPI PUSH1 0x0 SWAP2 POP POP PUSH2 0x1688 JUMP JUMPDEST PUSH1 0x0 DUP1 PUSH1 0xC PUSH2 0xE10 PUSH2 0x1573 SWAP2 SWAP1 PUSH2 0x3AF5 JUMP JUMPDEST DUP4 PUSH2 0x157E SWAP2 SWAP1 PUSH2 0x3AF5 JUMP JUMPDEST SWAP1 POP PUSH1 0x0 JUMPDEST DUP2 DUP2 LT ISZERO PUSH2 0x1662 JUMPI PUSH1 0x0 PUSH1 0xC PUSH2 0xE10 PUSH2 0x159C SWAP2 SWAP1 PUSH2 0x3AF5 JUMP JUMPDEST DUP3 PUSH2 0x15A7 SWAP2 SWAP1 PUSH2 0x3A84 JUMP JUMPDEST PUSH1 0x2 PUSH1 0x0 DUP10 PUSH20 0xFFFFFFFFFFFFFFFFFFFFFFFFFFFFFFFFFFFFFFFF AND PUSH20 0xFFFFFFFFFFFFFFFFFFFFFFFFFFFFFFFFFFFFFFFF AND DUP2 MSTORE PUSH1 0x20 ADD SWAP1 DUP2 MSTORE PUSH1 0x20 ADD PUSH1 0x0 KECCAK256 SLOAD PUSH2 0x15F1 SWAP2 SWAP1 PUSH2 0x3CDF JUMP JUMPDEST SWAP1 POP PUSH1 0x0 PUSH2 0x163D PUSH1 0x0 DUP1 DUP11 PUSH20 0xFFFFFFFFFFFFFFFFFFFFFFFFFFFFFFFFFFFFFFFF AND PUSH20 0xFFFFFFFFFFFFFFFFFFFFFFFFFFFFFFFFFFFFFFFF AND DUP2 MSTORE PUSH1 0x20 ADD SWAP1 DUP2 MSTORE PUSH1 0x20 ADD PUSH1 0x0 KECCAK256 SLOAD DUP4 PUSH2 0xC6F JUMP JUMPDEST SWAP1 POP DUP1 DUP6 PUSH2 0x164B SWAP2 SWAP1 PUSH2 0x3CDF JUMP JUMPDEST SWAP5 POP POP POP DUP1 DUP1 PUSH2 0x165A SWAP1 PUSH2 0x384B JUMP JUMPDEST SWAP2 POP POP PUSH2 0x1583 JUMP JUMPDEST POP PUSH1 0x0 PUSH1 0x64 PUSH1 0x3C DUP5 PUSH2 0x1674 SWAP2 SWAP1 PUSH2 0x3A84 JUMP JUMPDEST PUSH2 0x167E SWAP2 SWAP1 PUSH2 0x3AF5 JUMP JUMPDEST SWAP1 POP DUP1 SWAP5 POP POP POP POP POP JUMPDEST SWAP2 SWAP1 POP JUMP JUMPDEST PUSH1 0x9 DUP2 DUP1 MLOAD PUSH1 0x20 DUP2 ADD DUP3 ADD DUP1 MLOAD DUP5 DUP3 MSTORE PUSH1 0x20 DUP4 ADD PUSH1 0x20 DUP6 ADD KECCAK256 DUP2 DUP4 MSTORE DUP1 SWAP6 POP POP POP POP POP POP PUSH1 0x0 SWAP2 POP SLOAD SWAP1 PUSH2 0x100 EXP SWAP1 DIV PUSH1 0xFF AND DUP2 JUMP JUMPDEST PUSH1 0x5 SLOAD DUP2 JUMP JUMPDEST PUSH1 0x0 DUP1 PUSH1 0x0 SWAP1 POP JUMPDEST PUSH1 0x5 SLOAD DUP2 LT ISZERO PUSH2 0x1796 JUMPI DUP3 PUSH20 0xFFFFFFFFFFFFFFFFFFFFFFFFFFFFFFFFFFFFFFFF AND PUSH1 0x4 PUSH1 0x0 DUP4 DUP2 MSTORE PUSH1 0x20 ADD SWAP1 DUP2 MSTORE PUSH1 0x20 ADD PUSH1 0x0 KECCAK256 PUSH1 0x8 ADD PUSH1 0x0 SWAP1 SLOAD SWAP1 PUSH2 0x100 EXP SWAP1 DIV PUSH20 0xFFFFFFFFFFFFFFFFFFFFFFFFFFFFFFFFFFFFFFFF AND PUSH20 0xFFFFFFFFFFFFFFFFFFFFFFFFFFFFFFFFFFFFFFFF AND EQ DUP1 ISZERO PUSH2 0x1774 JUMPI POP PUSH1 0x0 PUSH1 0x5 DUP2 GT ISZERO PUSH2 0x175B JUMPI PUSH2 0x175A PUSH2 0x3D13 JUMP JUMPDEST JUMPDEST PUSH1 0x4 PUSH1 0x0 DUP4 DUP2 MSTORE PUSH1 0x20 ADD SWAP1 DUP2 MSTORE PUSH1 0x20 ADD PUSH1 0x0 KECCAK256 PUSH1 0x9 ADD SLOAD EQ JUMPDEST ISZERO PUSH2 0x1783 JUMPI PUSH1 0x1 SWAP2 POP POP PUSH2 0x179C JUMP JUMPDEST DUP1 DUP1 PUSH2 0x178E SWAP1 PUSH2 0x384B JUMP JUMPDEST SWAP2 POP POP PUSH2 0x16D1 JUMP JUMPDEST POP PUSH1 0x0 SWAP1 POP JUMPDEST SWAP2 SWAP1 POP JUMP JUMPDEST PUSH1 0x0 PUSH1 0x1 PUSH1 0x0 CALLER PUSH20 0xFFFFFFFFFFFFFFFFFFFFFFFFFFFFFFFFFFFFFFFF AND PUSH20 0xFFFFFFFFFFFFFFFFFFFFFFFFFFFFFFFFFFFFFFFF AND DUP2 MSTORE PUSH1 0x20 ADD SWAP1 DUP2 MSTORE PUSH1 0x20 ADD PUSH1 0x0 KECCAK256 SLOAD GT PUSH2 0x1823 JUMPI PUSH1 0x40 MLOAD PUSH32 0x8C379A000000000000000000000000000000000000000000000000000000000 DUP2 MSTORE PUSH1 0x4 ADD PUSH2 0x181A SWAP1 PUSH2 0x3D8E JUMP JUMPDEST PUSH1 0x40 MLOAD DUP1 SWAP2 SUB SWAP1 REVERT JUMPDEST DUP1 PUSH1 0x1 PUSH1 0x0 CALLER PUSH20 0xFFFFFFFFFFFFFFFFFFFFFFFFFFFFFFFFFFFFFFFF AND PUSH20 0xFFFFFFFFFFFFFFFFFFFFFFFFFFFFFFFFFFFFFFFF AND DUP2 MSTORE PUSH1 0x20 ADD SWAP1 DUP2 MSTORE PUSH1 0x20 ADD PUSH1 0x0 KECCAK256 PUSH1 0x0 DUP3 DUP3 SLOAD PUSH2 0x1872 SWAP2 SWAP1 PUSH2 0x3A50 JUMP JUMPDEST SWAP3 POP POP DUP2 SWAP1 SSTORE POP DUP1 PUSH1 0x4 PUSH1 0x0 DUP5 DUP2 MSTORE PUSH1 0x20 ADD SWAP1 DUP2 MSTORE PUSH1 0x20 ADD PUSH1 0x0 KECCAK256 PUSH1 0xB ADD PUSH1 0x0 DUP3 DUP3 SLOAD PUSH2 0x189F SWAP2 SWAP1 PUSH2 0x3CDF JUMP JUMPDEST SWAP3 POP POP DUP2 SWAP1 SSTORE POP POP POP JUMP JUMPDEST PUSH4 0x3B9ACA00 DUP2 LT ISZERO PUSH2 0x18F1 JUMPI PUSH1 0x40 MLOAD PUSH32 0x8C379A000000000000000000000000000000000000000000000000000000000 DUP2 MSTORE PUSH1 0x4 ADD PUSH2 0x18E8 SWAP1 PUSH2 0x3DFA JUMP JUMPDEST PUSH1 0x40 MLOAD DUP1 SWAP2 SUB SWAP1 REVERT JUMPDEST PUSH1 0x8 PUSH1 0x0 SWAP1 SLOAD SWAP1 PUSH2 0x100 EXP SWAP1 DIV PUSH20 0xFFFFFFFFFFFFFFFFFFFFFFFFFFFFFFFFFFFFFFFF AND PUSH20 0xFFFFFFFFFFFFFFFFFFFFFFFFFFFFFFFFFFFFFFFF AND PUSH4 0x23B872DD CALLER ADDRESS DUP5 PUSH1 0x40 MLOAD DUP5 PUSH4 0xFFFFFFFF AND PUSH1 0xE0 SHL DUP2 MSTORE PUSH1 0x4 ADD PUSH2 0x1950 SWAP4 SWAP3 SWAP2 SWAP1 PUSH2 0x3463 JUMP JUMPDEST PUSH1 0x20 PUSH1 0x40 MLOAD DUP1 DUP4 SUB DUP2 PUSH1 0x0 DUP8 GAS CALL ISZERO DUP1 ISZERO PUSH2 0x196F JUMPI RETURNDATASIZE PUSH1 0x0 DUP1 RETURNDATACOPY RETURNDATASIZE PUSH1 0x0 REVERT JUMPDEST POP POP POP POP PUSH1 0x40 MLOAD RETURNDATASIZE PUSH1 0x1F NOT PUSH1 0x1F DUP3 ADD AND DUP3 ADD DUP1 PUSH1 0x40 MSTORE POP DUP2 ADD SWAP1 PUSH2 0x1993 SWAP2 SWAP1 PUSH2 0x34AF JUMP JUMPDEST PUSH2 0x19D2 JUMPI PUSH1 0x40 MLOAD PUSH32 0x8C379A000000000000000000000000000000000000000000000000000000000 DUP2 MSTORE PUSH1 0x4 ADD PUSH2 0x19C9 SWAP1 PUSH2 0x3528 JUMP JUMPDEST PUSH1 0x40 MLOAD DUP1 SWAP2 SUB SWAP1 REVERT JUMPDEST DUP1 PUSH1 0x0 DUP1 CALLER PUSH20 0xFFFFFFFFFFFFFFFFFFFFFFFFFFFFFFFFFFFFFFFF AND PUSH20 0xFFFFFFFFFFFFFFFFFFFFFFFFFFFFFFFFFFFFFFFF AND DUP2 MSTORE PUSH1 0x20 ADD SWAP1 DUP2 MSTORE PUSH1 0x20 ADD PUSH1 0x0 KECCAK256 PUSH1 0x0 DUP3 DUP3 SLOAD PUSH2 0x1A20 SWAP2 SWAP1 PUSH2 0x3CDF JUMP JUMPDEST SWAP3 POP POP DUP2 SWAP1 SSTORE POP PUSH1 0x0 PUSH1 0x2 PUSH1 0x0 CALLER PUSH20 0xFFFFFFFFFFFFFFFFFFFFFFFFFFFFFFFFFFFFFFFF AND PUSH20 0xFFFFFFFFFFFFFFFFFFFFFFFFFFFFFFFFFFFFFFFF AND DUP2 MSTORE PUSH1 0x20 ADD SWAP1 DUP2 MSTORE PUSH1 0x20 ADD PUSH1 0x0 KECCAK256 SLOAD SUB PUSH2 0x1AB3 JUMPI TIMESTAMP PUSH1 0x3 PUSH1 0x0 CALLER PUSH20 0xFFFFFFFFFFFFFFFFFFFFFFFFFFFFFFFFFFFFFFFF AND PUSH20 0xFFFFFFFFFFFFFFFFFFFFFFFFFFFFFFFFFFFFFFFF AND DUP2 MSTORE PUSH1 0x20 ADD SWAP1 DUP2 MSTORE PUSH1 0x20 ADD PUSH1 0x0 KECCAK256 DUP2 SWAP1 SSTORE POP JUMPDEST TIMESTAMP PUSH1 0x2 PUSH1 0x0 CALLER PUSH20 0xFFFFFFFFFFFFFFFFFFFFFFFFFFFFFFFFFFFFFFFF AND PUSH20 0xFFFFFFFFFFFFFFFFFFFFFFFFFFFFFFFFFFFFFFFF AND DUP2 MSTORE PUSH1 0x20 ADD SWAP1 DUP2 MSTORE PUSH1 0x20 ADD PUSH1 0x0 KECCAK256 DUP2 SWAP1 SSTORE POP POP JUMP JUMPDEST PUSH4 0x3B9ACA00 DUP2 JUMP JUMPDEST PUSH1 0x6 PUSH1 0x0 SWAP1 SLOAD SWAP1 PUSH2 0x100 EXP SWAP1 DIV PUSH20 0xFFFFFFFFFFFFFFFFFFFFFFFFFFFFFFFFFFFFFFFF AND PUSH20 0xFFFFFFFFFFFFFFFFFFFFFFFFFFFFFFFFFFFFFFFF AND CALLER PUSH20 0xFFFFFFFFFFFFFFFFFFFFFFFFFFFFFFFFFFFFFFFF AND EQ PUSH2 0x1B92 JUMPI PUSH1 0x40 MLOAD PUSH32 0x8C379A000000000000000000000000000000000000000000000000000000000 DUP2 MSTORE PUSH1 0x4 ADD PUSH2 0x1B89 SWAP1 PUSH2 0x3905 JUMP JUMPDEST PUSH1 0x40 MLOAD DUP1 SWAP2 SUB SWAP1 REVERT JUMPDEST PUSH1 0x40 MLOAD DUP1 PUSH1 0x40 ADD PUSH1 0x40 MSTORE DUP1 PUSH1 0xD DUP2 MSTORE PUSH1 0x20 ADD PUSH32 0x72656D6F7665456C656D656E7400000000000000000000000000000000000000 DUP2 MSTORE POP PUSH1 0x9 DUP2 PUSH1 0x40 MLOAD PUSH2 0x1BD8 SWAP2 SWAP1 PUSH2 0x3961 JUMP JUMPDEST SWAP1 DUP2 MSTORE PUSH1 0x20 ADD PUSH1 0x40 MLOAD DUP1 SWAP2 SUB SWAP1 KECCAK256 PUSH1 0x0 SWAP1 SLOAD SWAP1 PUSH2 0x100 EXP SWAP1 DIV PUSH1 0xFF AND PUSH2 0x1C33 JUMPI PUSH1 0x40 MLOAD PUSH32 0x8C379A000000000000000000000000000000000000000000000000000000000 DUP2 MSTORE PUSH1 0x4 ADD PUSH2 0x1C2A SWAP1 PUSH2 0x39C4 JUMP JUMPDEST PUSH1 0x40 MLOAD DUP1 SWAP2 SUB SWAP1 REVERT JUMPDEST PUSH1 0x5 PUSH1 0x4 PUSH1 0x0 DUP5 DUP2 MSTORE PUSH1 0x20 ADD SWAP1 DUP2 MSTORE PUSH1 0x20 ADD PUSH1 0x0 KECCAK256 PUSH1 0x9 ADD DUP2 SWAP1 SSTORE POP POP POP JUMP JUMPDEST CALLER PUSH20 0xFFFFFFFFFFFFFFFFFFFFFFFFFFFFFFFFFFFFFFFF AND PUSH1 0x4 PUSH1 0x0 DUP5 DUP2 MSTORE PUSH1 0x20 ADD SWAP1 DUP2 MSTORE PUSH1 0x20 ADD PUSH1 0x0 KECCAK256 PUSH1 0x8 ADD PUSH1 0x0 SWAP1 SLOAD SWAP1 PUSH2 0x100 EXP SWAP1 DIV PUSH20 0xFFFFFFFFFFFFFFFFFFFFFFFFFFFFFFFFFFFFFFFF AND PUSH20 0xFFFFFFFFFFFFFFFFFFFFFFFFFFFFFFFFFFFFFFFF AND EQ PUSH2 0x1CF7 JUMPI PUSH1 0x40 MLOAD PUSH32 0x8C379A000000000000000000000000000000000000000000000000000000000 DUP2 MSTORE PUSH1 0x4 ADD PUSH2 0x1CEE SWAP1 PUSH2 0x3E66 JUMP JUMPDEST PUSH1 0x40 MLOAD DUP1 SWAP2 SUB SWAP1 REVERT JUMPDEST DUP1 PUSH1 0x4 PUSH1 0x0 DUP5 DUP2 MSTORE PUSH1 0x20 ADD SWAP1 DUP2 MSTORE PUSH1 0x20 ADD PUSH1 0x0 KECCAK256 PUSH1 0x4 ADD SWAP1 DUP2 PUSH2 0x1D1A SWAP2 SWAP1 PUSH2 0x374A JUMP JUMPDEST POP TIMESTAMP PUSH1 0x4 PUSH1 0x0 DUP5 DUP2 MSTORE PUSH1 0x20 ADD SWAP1 DUP2 MSTORE PUSH1 0x20 ADD PUSH1 0x0 KECCAK256 PUSH1 0xA ADD DUP2 SWAP1 SSTORE POP POP POP JUMP JUMPDEST CALLER PUSH20 0xFFFFFFFFFFFFFFFFFFFFFFFFFFFFFFFFFFFFFFFF AND PUSH1 0x4 PUSH1 0x0 DUP5 DUP2 MSTORE PUSH1 0x20 ADD SWAP1 DUP2 MSTORE PUSH1 0x20 ADD PUSH1 0x0 KECCAK256 PUSH1 0x8 ADD PUSH1 0x0 SWAP1 SLOAD SWAP1 PUSH2 0x100 EXP SWAP1 DIV PUSH20 0xFFFFFFFFFFFFFFFFFFFFFFFFFFFFFFFFFFFFFFFF AND PUSH20 0xFFFFFFFFFFFFFFFFFFFFFFFFFFFFFFFFFFFFFFFF AND EQ PUSH2 0x1DDE JUMPI PUSH1 0x40 MLOAD PUSH32 0x8C379A000000000000000000000000000000000000000000000000000000000 DUP2 MSTORE PUSH1 0x4 ADD PUSH2 0x1DD5 SWAP1 PUSH2 0x3E66 JUMP JUMPDEST PUSH1 0x40 MLOAD DUP1 SWAP2 SUB SWAP1 REVERT JUMPDEST DUP1 PUSH1 0x4 PUSH1 0x0 DUP5 DUP2 MSTORE PUSH1 0x20 ADD SWAP1 DUP2 MSTORE PUSH1 0x20 ADD PUSH1 0x0 KECCAK256 PUSH1 0x3 ADD SWAP1 DUP2 PUSH2 0x1E01 SWAP2 SWAP1 PUSH2 0x374A JUMP JUMPDEST POP TIMESTAMP PUSH1 0x4 PUSH1 0x0 DUP5 DUP2 MSTORE PUSH1 0x20 ADD SWAP1 DUP2 MSTORE PUSH1 0x20 ADD PUSH1 0x0 KECCAK256 PUSH1 0xA ADD DUP2 SWAP1 SSTORE POP POP POP JUMP JUMPDEST PUSH1 0x1 PUSH1 0x20 MSTORE DUP1 PUSH1 0x0 MSTORE PUSH1 0x40 PUSH1 0x0 KECCAK256 PUSH1 0x0 SWAP2 POP SWAP1 POP SLOAD DUP2 JUMP JUMPDEST PUSH5 0x2540BE400 DUP2 JUMP JUMPDEST CALLER PUSH20 0xFFFFFFFFFFFFFFFFFFFFFFFFFFFFFFFFFFFFFFFF AND PUSH1 0x4 PUSH1 0x0 DUP5 DUP2 MSTORE PUSH1 0x20 ADD SWAP1 DUP2 MSTORE PUSH1 0x20 ADD PUSH1 0x0 KECCAK256 PUSH1 0x8 ADD PUSH1 0x0 SWAP1 SLOAD SWAP1 PUSH2 0x100 EXP SWAP1 DIV PUSH20 0xFFFFFFFFFFFFFFFFFFFFFFFFFFFFFFFFFFFFFFFF AND PUSH20 0xFFFFFFFFFFFFFFFFFFFFFFFFFFFFFFFFFFFFFFFF AND EQ PUSH2 0x1EE6 JUMPI PUSH1 0x40 MLOAD PUSH32 0x8C379A000000000000000000000000000000000000000000000000000000000 DUP2 MSTORE PUSH1 0x4 ADD PUSH2 0x1EDD SWAP1 PUSH2 0x3E66 JUMP JUMPDEST PUSH1 0x40 MLOAD DUP1 SWAP2 SUB SWAP1 REVERT JUMPDEST DUP1 PUSH1 0x4 PUSH1 0x0 DUP5 DUP2 MSTORE PUSH1 0x20 ADD SWAP1 DUP2 MSTORE PUSH1 0x20 ADD PUSH1 0x0 KECCAK256 PUSH1 0x5 ADD SWAP1 DUP2 PUSH2 0x1F09 SWAP2 SWAP1 PUSH2 0x374A JUMP JUMPDEST POP TIMESTAMP PUSH1 0x4 PUSH1 0x0 DUP5 DUP2 MSTORE PUSH1 0x20 ADD SWAP1 DUP2 MSTORE PUSH1 0x20 ADD PUSH1 0x0 KECCAK256 PUSH1 0xA ADD DUP2 SWAP1 SSTORE POP POP POP JUMP JUMPDEST PUSH1 0x6 PUSH1 0x0 SWAP1 SLOAD SWAP1 PUSH2 0x100 EXP SWAP1 DIV PUSH20 0xFFFFFFFFFFFFFFFFFFFFFFFFFFFFFFFFFFFFFFFF AND PUSH20 0xFFFFFFFFFFFFFFFFFFFFFFFFFFFFFFFFFFFFFFFF AND CALLER PUSH20 0xFFFFFFFFFFFFFFFFFFFFFFFFFFFFFFFFFFFFFFFF AND EQ PUSH2 0x1FB9 JUMPI PUSH1 0x40 MLOAD PUSH32 0x8C379A000000000000000000000000000000000000000000000000000000000 DUP2 MSTORE PUSH1 0x4 ADD PUSH2 0x1FB0 SWAP1 PUSH2 0x3905 JUMP JUMPDEST PUSH1 0x40 MLOAD DUP1 SWAP2 SUB SWAP1 REVERT JUMPDEST PUSH1 0x40 MLOAD DUP1 PUSH1 0x40 ADD PUSH1 0x40 MSTORE DUP1 PUSH1 0xE DUP2 MSTORE PUSH1 0x20 ADD PUSH32 0x617070726F7665456C656D656E74000000000000000000000000000000000000 DUP2 MSTORE POP PUSH1 0x9 DUP2 PUSH1 0x40 MLOAD PUSH2 0x1FFF SWAP2 SWAP1 PUSH2 0x3961 JUMP JUMPDEST SWAP1 DUP2 MSTORE PUSH1 0x20 ADD PUSH1 0x40 MLOAD DUP1 SWAP2 SUB SWAP1 KECCAK256 PUSH1 0x0 SWAP1 SLOAD SWAP1 PUSH2 0x100 EXP SWAP1 DIV PUSH1 0xFF AND PUSH2 0x205A JUMPI PUSH1 0x40 MLOAD PUSH32 0x8C379A000000000000000000000000000000000000000000000000000000000 DUP2 MSTORE PUSH1 0x4 ADD PUSH2 0x2051 SWAP1 PUSH2 0x39C4 JUMP JUMPDEST PUSH1 0x40 MLOAD DUP1 SWAP2 SUB SWAP1 REVERT JUMPDEST PUSH1 0x0 PUSH1 0x4 PUSH1 0x0 DUP5 DUP2 MSTORE PUSH1 0x20 ADD SWAP1 DUP2 MSTORE PUSH1 0x20 ADD PUSH1 0x0 KECCAK256 PUSH1 0x9 ADD SLOAD EQ PUSH2 0x20B3 JUMPI PUSH1 0x40 MLOAD PUSH32 0x8C379A000000000000000000000000000000000000000000000000000000000 DUP2 MSTORE PUSH1 0x4 ADD PUSH2 0x20AA SWAP1 PUSH2 0x3A30 JUMP JUMPDEST PUSH1 0x40 MLOAD DUP1 SWAP2 SUB SWAP1 REVERT JUMPDEST PUSH1 0x1 PUSH1 0x4 PUSH1 0x0 DUP5 DUP2 MSTORE PUSH1 0x20 ADD SWAP1 DUP2 MSTORE PUSH1 0x20 ADD PUSH1 0x0 KECCAK256 PUSH1 0x9 ADD DUP2 SWAP1 SSTORE POP POP POP JUMP JUMPDEST PUSH1 0x0 PUSH1 0x2 PUSH1 0x0 DUP4 PUSH20 0xFFFFFFFFFFFFFFFFFFFFFFFFFFFFFFFFFFFFFFFF AND PUSH20 0xFFFFFFFFFFFFFFFFFFFFFFFFFFFFFFFFFFFFFFFF AND DUP2 MSTORE PUSH1 0x20 ADD SWAP1 DUP2 MSTORE PUSH1 0x20 ADD PUSH1 0x0 KECCAK256 SLOAD SWAP1 POP SWAP2 SWAP1 POP JUMP JUMPDEST PUSH1 0x0 DUP1 PUSH1 0x0 CALLER PUSH20 0xFFFFFFFFFFFFFFFFFFFFFFFFFFFFFFFFFFFFFFFF AND PUSH20 0xFFFFFFFFFFFFFFFFFFFFFFFFFFFFFFFFFFFFFFFF AND DUP2 MSTORE PUSH1 0x20 ADD SWAP1 DUP2 MSTORE PUSH1 0x20 ADD PUSH1 0x0 KECCAK256 SLOAD GT PUSH2 0x219D JUMPI PUSH1 0x40 MLOAD PUSH32 0x8C379A000000000000000000000000000000000000000000000000000000000 DUP2 MSTORE PUSH1 0x4 ADD PUSH2 0x2194 SWAP1 PUSH2 0x3ED2 JUMP JUMPDEST PUSH1 0x40 MLOAD DUP1 SWAP2 SUB SWAP1 REVERT JUMPDEST PUSH1 0x0 PUSH1 0x2 PUSH1 0x0 CALLER PUSH20 0xFFFFFFFFFFFFFFFFFFFFFFFFFFFFFFFFFFFFFFFF AND PUSH20 0xFFFFFFFFFFFFFFFFFFFFFFFFFFFFFFFFFFFFFFFF AND DUP2 MSTORE PUSH1 0x20 ADD SWAP1 DUP2 MSTORE PUSH1 0x20 ADD PUSH1 0x0 KECCAK256 SLOAD TIMESTAMP PUSH2 0x21EA SWAP2 SWAP1 PUSH2 0x3A50 JUMP JUMPDEST SWAP1 POP PUSH1 0xC PUSH2 0xE10 PUSH2 0x21FB SWAP2 SWAP1 PUSH2 0x3AF5 JUMP JUMPDEST DUP2 LT ISZERO PUSH2 0x223D JUMPI PUSH1 0x40 MLOAD PUSH32 0x8C379A000000000000000000000000000000000000000000000000000000000 DUP2 MSTORE PUSH1 0x4 ADD PUSH2 0x2234 SWAP1 PUSH2 0x3F3E JUMP JUMPDEST PUSH1 0x40 MLOAD DUP1 SWAP2 SUB SWAP1 REVERT JUMPDEST PUSH1 0x0 DUP1 PUSH1 0xC PUSH2 0xE10 PUSH2 0x224F SWAP2 SWAP1 PUSH2 0x3AF5 JUMP JUMPDEST DUP4 PUSH2 0x225A SWAP2 SWAP1 PUSH2 0x3AF5 JUMP JUMPDEST SWAP1 POP PUSH1 0x0 JUMPDEST DUP2 DUP2 LT ISZERO PUSH2 0x233E JUMPI PUSH1 0x0 PUSH1 0xC PUSH2 0xE10 PUSH2 0x2278 SWAP2 SWAP1 PUSH2 0x3AF5 JUMP JUMPDEST DUP3 PUSH2 0x2283 SWAP2 SWAP1 PUSH2 0x3A84 JUMP JUMPDEST PUSH1 0x2 PUSH1 0x0 CALLER PUSH20 0xFFFFFFFFFFFFFFFFFFFFFFFFFFFFFFFFFFFFFFFF AND PUSH20 0xFFFFFFFFFFFFFFFFFFFFFFFFFFFFFFFFFFFFFFFF AND DUP2 MSTORE PUSH1 0x20 ADD SWAP1 DUP2 MSTORE PUSH1 0x20 ADD PUSH1 0x0 KECCAK256 SLOAD PUSH2 0x22CD SWAP2 SWAP1 PUSH2 0x3CDF JUMP JUMPDEST SWAP1 POP PUSH1 0x0 PUSH2 0x2319 PUSH1 0x0 DUP1 CALLER PUSH20 0xFFFFFFFFFFFFFFFFFFFFFFFFFFFFFFFFFFFFFFFF AND PUSH20 0xFFFFFFFFFFFFFFFFFFFFFFFFFFFFFFFFFFFFFFFF AND DUP2 MSTORE PUSH1 0x20 ADD SWAP1 DUP2 MSTORE PUSH1 0x20 ADD PUSH1 0x0 KECCAK256 SLOAD DUP4 PUSH2 0xC6F JUMP JUMPDEST SWAP1 POP DUP1 DUP6 PUSH2 0x2327 SWAP2 SWAP1 PUSH2 0x3CDF JUMP JUMPDEST SWAP5 POP POP POP DUP1 DUP1 PUSH2 0x2336 SWAP1 PUSH2 0x384B JUMP JUMPDEST SWAP2 POP POP PUSH2 0x225F JUMP JUMPDEST POP PUSH1 0x0 PUSH1 0x64 PUSH1 0x3C DUP5 PUSH2 0x2350 SWAP2 SWAP1 PUSH2 0x3A84 JUMP JUMPDEST PUSH2 0x235A SWAP2 SWAP1 PUSH2 0x3AF5 JUMP JUMPDEST SWAP1 POP PUSH1 0x0 PUSH1 0x64 PUSH1 0x28 DUP6 PUSH2 0x236D SWAP2 SWAP1 PUSH2 0x3A84 JUMP JUMPDEST PUSH2 0x2377 SWAP2 SWAP1 PUSH2 0x3AF5 JUMP JUMPDEST SWAP1 POP PUSH2 0x2382 DUP2 PUSH2 0x2A38 JUMP JUMPDEST PUSH3 0x989680 DUP3 PUSH2 0x2391 SWAP2 SWAP1 PUSH2 0x3AF5 JUMP JUMPDEST PUSH1 0x1 PUSH1 0x0 CALLER PUSH20 0xFFFFFFFFFFFFFFFFFFFFFFFFFFFFFFFFFFFFFFFF AND PUSH20 0xFFFFFFFFFFFFFFFFFFFFFFFFFFFFFFFFFFFFFFFF AND DUP2 MSTORE PUSH1 0x20 ADD SWAP1 DUP2 MSTORE PUSH1 0x20 ADD PUSH1 0x0 KECCAK256 PUSH1 0x0 DUP3 DUP3 SLOAD PUSH2 0x23DF SWAP2 SWAP1 PUSH2 0x3CDF JUMP JUMPDEST SWAP3 POP POP DUP2 SWAP1 SSTORE POP TIMESTAMP PUSH1 0x2 PUSH1 0x0 CALLER PUSH20 0xFFFFFFFFFFFFFFFFFFFFFFFFFFFFFFFFFFFFFFFF AND PUSH20 0xFFFFFFFFFFFFFFFFFFFFFFFFFFFFFFFFFFFFFFFF AND DUP2 MSTORE PUSH1 0x20 ADD SWAP1 DUP2 MSTORE PUSH1 0x20 ADD PUSH1 0x0 KECCAK256 DUP2 SWAP1 SSTORE POP PUSH1 0x8 PUSH1 0x0 SWAP1 SLOAD SWAP1 PUSH2 0x100 EXP SWAP1 DIV PUSH20 0xFFFFFFFFFFFFFFFFFFFFFFFFFFFFFFFFFFFFFFFF AND PUSH20 0xFFFFFFFFFFFFFFFFFFFFFFFFFFFFFFFFFFFFFFFF AND PUSH4 0xA9059CBB CALLER DUP5 PUSH1 0x40 MLOAD DUP4 PUSH4 0xFFFFFFFF AND PUSH1 0xE0 SHL DUP2 MSTORE PUSH1 0x4 ADD PUSH2 0x2487 SWAP3 SWAP2 SWAP1 PUSH2 0x3B92 JUMP JUMPDEST PUSH1 0x20 PUSH1 0x40 MLOAD DUP1 DUP4 SUB DUP2 PUSH1 0x0 DUP8 GAS CALL ISZERO DUP1 ISZERO PUSH2 0x24A6 JUMPI RETURNDATASIZE PUSH1 0x0 DUP1 RETURNDATACOPY RETURNDATASIZE PUSH1 0x0 REVERT JUMPDEST POP POP POP POP PUSH1 0x40 MLOAD RETURNDATASIZE PUSH1 0x1F NOT PUSH1 0x1F DUP3 ADD AND DUP3 ADD DUP1 PUSH1 0x40 MSTORE POP DUP2 ADD SWAP1 PUSH2 0x24CA SWAP2 SWAP1 PUSH2 0x34AF JUMP JUMPDEST PUSH2 0x2509 JUMPI PUSH1 0x40 MLOAD PUSH32 0x8C379A000000000000000000000000000000000000000000000000000000000 DUP2 MSTORE PUSH1 0x4 ADD PUSH2 0x2500 SWAP1 PUSH2 0x3528 JUMP JUMPDEST PUSH1 0x40 MLOAD DUP1 SWAP2 SUB SWAP1 REVERT JUMPDEST POP POP POP POP POP JUMP JUMPDEST PUSH1 0x4 PUSH1 0x20 MSTORE DUP1 PUSH1 0x0 MSTORE PUSH1 0x40 PUSH1 0x0 KECCAK256 PUSH1 0x0 SWAP2 POP SWAP1 POP DUP1 PUSH1 0x0 ADD DUP1 SLOAD PUSH2 0x2533 SWAP1 PUSH2 0x3577 JUMP JUMPDEST DUP1 PUSH1 0x1F ADD PUSH1 0x20 DUP1 SWAP2 DIV MUL PUSH1 0x20 ADD PUSH1 0x40 MLOAD SWAP1 DUP2 ADD PUSH1 0x40 MSTORE DUP1 SWAP3 SWAP2 SWAP1 DUP2 DUP2 MSTORE PUSH1 0x20 ADD DUP3 DUP1 SLOAD PUSH2 0x255F SWAP1 PUSH2 0x3577 JUMP JUMPDEST DUP1 ISZERO PUSH2 0x25AC JUMPI DUP1 PUSH1 0x1F LT PUSH2 0x2581 JUMPI PUSH2 0x100 DUP1 DUP4 SLOAD DIV MUL DUP4 MSTORE SWAP2 PUSH1 0x20 ADD SWAP2 PUSH2 0x25AC JUMP JUMPDEST DUP3 ADD SWAP2 SWAP1 PUSH1 0x0 MSTORE PUSH1 0x20 PUSH1 0x0 KECCAK256 SWAP1 JUMPDEST DUP2 SLOAD DUP2 MSTORE SWAP1 PUSH1 0x1 ADD SWAP1 PUSH1 0x20 ADD DUP1 DUP4 GT PUSH2 0x258F JUMPI DUP3 SWAP1 SUB PUSH1 0x1F AND DUP3 ADD SWAP2 JUMPDEST POP POP POP POP POP SWAP1 DUP1 PUSH1 0x1 ADD DUP1 SLOAD PUSH2 0x25C1 SWAP1 PUSH2 0x3577 JUMP JUMPDEST DUP1 PUSH1 0x1F ADD PUSH1 0x20 DUP1 SWAP2 DIV MUL PUSH1 0x20 ADD PUSH1 0x40 MLOAD SWAP1 DUP2 ADD PUSH1 0x40 MSTORE DUP1 SWAP3 SWAP2 SWAP1 DUP2 DUP2 MSTORE PUSH1 0x20 ADD DUP3 DUP1 SLOAD PUSH2 0x25ED SWAP1 PUSH2 0x3577 JUMP JUMPDEST DUP1 ISZERO PUSH2 0x263A JUMPI DUP1 PUSH1 0x1F LT PUSH2 0x260F JUMPI PUSH2 0x100 DUP1 DUP4 SLOAD DIV MUL DUP4 MSTORE SWAP2 PUSH1 0x20 ADD SWAP2 PUSH2 0x263A JUMP JUMPDEST DUP3 ADD SWAP2 SWAP1 PUSH1 0x0 MSTORE PUSH1 0x20 PUSH1 0x0 KECCAK256 SWAP1 JUMPDEST DUP2 SLOAD DUP2 MSTORE SWAP1 PUSH1 0x1 ADD SWAP1 PUSH1 0x20 ADD DUP1 DUP4 GT PUSH2 0x261D JUMPI DUP3 SWAP1 SUB PUSH1 0x1F AND DUP3 ADD SWAP2 JUMPDEST POP POP POP POP POP SWAP1 DUP1 PUSH1 0x2 ADD DUP1 SLOAD PUSH2 0x264F SWAP1 PUSH2 0x3577 JUMP JUMPDEST DUP1 PUSH1 0x1F ADD PUSH1 0x20 DUP1 SWAP2 DIV MUL PUSH1 0x20 ADD PUSH1 0x40 MLOAD SWAP1 DUP2 ADD PUSH1 0x40 MSTORE DUP1 SWAP3 SWAP2 SWAP1 DUP2 DUP2 MSTORE PUSH1 0x20 ADD DUP3 DUP1 SLOAD PUSH2 0x267B SWAP1 PUSH2 0x3577 JUMP JUMPDEST DUP1 ISZERO PUSH2 0x26C8 JUMPI DUP1 PUSH1 0x1F LT PUSH2 0x269D JUMPI PUSH2 0x100 DUP1 DUP4 SLOAD DIV MUL DUP4 MSTORE SWAP2 PUSH1 0x20 ADD SWAP2 PUSH2 0x26C8 JUMP JUMPDEST DUP3 ADD SWAP2 SWAP1 PUSH1 0x0 MSTORE PUSH1 0x20 PUSH1 0x0 KECCAK256 SWAP1 JUMPDEST DUP2 SLOAD DUP2 MSTORE SWAP1 PUSH1 0x1 ADD SWAP1 PUSH1 0x20 ADD DUP1 DUP4 GT PUSH2 0x26AB JUMPI DUP3 SWAP1 SUB PUSH1 0x1F AND DUP3 ADD SWAP2 JUMPDEST POP POP POP POP POP SWAP1 DUP1 PUSH1 0x3 ADD DUP1 SLOAD PUSH2 0x26DD SWAP1 PUSH2 0x3577 JUMP JUMPDEST DUP1 PUSH1 0x1F ADD PUSH1 0x20 DUP1 SWAP2 DIV MUL PUSH1 0x20 ADD PUSH1 0x40 MLOAD SWAP1 DUP2 ADD PUSH1 0x40 MSTORE DUP1 SWAP3 SWAP2 SWAP1 DUP2 DUP2 MSTORE PUSH1 0x20 ADD DUP3 DUP1 SLOAD PUSH2 0x2709 SWAP1 PUSH2 0x3577 JUMP JUMPDEST DUP1 ISZERO PUSH2 0x2756 JUMPI DUP1 PUSH1 0x1F LT PUSH2 0x272B JUMPI PUSH2 0x100 DUP1 DUP4 SLOAD DIV MUL DUP4 MSTORE SWAP2 PUSH1 0x20 ADD SWAP2 PUSH2 0x2756 JUMP JUMPDEST DUP3 ADD SWAP2 SWAP1 PUSH1 0x0 MSTORE PUSH1 0x20 PUSH1 0x0 KECCAK256 SWAP1 JUMPDEST DUP2 SLOAD DUP2 MSTORE SWAP1 PUSH1 0x1 ADD SWAP1 PUSH1 0x20 ADD DUP1 DUP4 GT PUSH2 0x2739 JUMPI DUP3 SWAP1 SUB PUSH1 0x1F AND DUP3 ADD SWAP2 JUMPDEST POP POP POP POP POP SWAP1 DUP1 PUSH1 0x4 ADD DUP1 SLOAD PUSH2 0x276B SWAP1 PUSH2 0x3577 JUMP JUMPDEST DUP1 PUSH1 0x1F ADD PUSH1 0x20 DUP1 SWAP2 DIV MUL PUSH1 0x20 ADD PUSH1 0x40 MLOAD SWAP1 DUP2 ADD PUSH1 0x40 MSTORE DUP1 SWAP3 SWAP2 SWAP1 DUP2 DUP2 MSTORE PUSH1 0x20 ADD DUP3 DUP1 SLOAD PUSH2 0x2797 SWAP1 PUSH2 0x3577 JUMP JUMPDEST DUP1 ISZERO PUSH2 0x27E4 JUMPI DUP1 PUSH1 0x1F LT PUSH2 0x27B9 JUMPI PUSH2 0x100 DUP1 DUP4 SLOAD DIV MUL DUP4 MSTORE SWAP2 PUSH1 0x20 ADD SWAP2 PUSH2 0x27E4 JUMP JUMPDEST DUP3 ADD SWAP2 SWAP1 PUSH1 0x0 MSTORE PUSH1 0x20 PUSH1 0x0 KECCAK256 SWAP1 JUMPDEST DUP2 SLOAD DUP2 MSTORE SWAP1 PUSH1 0x1 ADD SWAP1 PUSH1 0x20 ADD DUP1 DUP4 GT PUSH2 0x27C7 JUMPI DUP3 SWAP1 SUB PUSH1 0x1F AND DUP3 ADD SWAP2 JUMPDEST POP POP POP POP POP SWAP1 DUP1 PUSH1 0x5 ADD DUP1 SLOAD PUSH2 0x27F9 SWAP1 PUSH2 0x3577 JUMP JUMPDEST DUP1 PUSH1 0x1F ADD PUSH1 0x20 DUP1 SWAP2 DIV MUL PUSH1 0x20 ADD PUSH1 0x40 MLOAD SWAP1 DUP2 ADD PUSH1 0x40 MSTORE DUP1 SWAP3 SWAP2 SWAP1 DUP2 DUP2 MSTORE PUSH1 0x20 ADD DUP3 DUP1 SLOAD PUSH2 0x2825 SWAP1 PUSH2 0x3577 JUMP JUMPDEST DUP1 ISZERO PUSH2 0x2872 JUMPI DUP1 PUSH1 0x1F LT PUSH2 0x2847 JUMPI PUSH2 0x100 DUP1 DUP4 SLOAD DIV MUL DUP4 MSTORE SWAP2 PUSH1 0x20 ADD SWAP2 PUSH2 0x2872 JUMP JUMPDEST DUP3 ADD SWAP2 SWAP1 PUSH1 0x0 MSTORE PUSH1 0x20 PUSH1 0x0 KECCAK256 SWAP1 JUMPDEST DUP2 SLOAD DUP2 MSTORE SWAP1 PUSH1 0x1 ADD SWAP1 PUSH1 0x20 ADD DUP1 DUP4 GT PUSH2 0x2855 JUMPI DUP3 SWAP1 SUB PUSH1 0x1F AND DUP3 ADD SWAP2 JUMPDEST POP POP POP POP POP SWAP1 DUP1 PUSH1 0x6 ADD DUP1 SLOAD PUSH2 0x2887 SWAP1 PUSH2 0x3577 JUMP JUMPDEST DUP1 PUSH1 0x1F ADD PUSH1 0x20 DUP1 SWAP2 DIV MUL PUSH1 0x20 ADD PUSH1 0x40 MLOAD SWAP1 DUP2 ADD PUSH1 0x40 MSTORE DUP1 SWAP3 SWAP2 SWAP1 DUP2 DUP2 MSTORE PUSH1 0x20 ADD DUP3 DUP1 SLOAD PUSH2 0x28B3 SWAP1 PUSH2 0x3577 JUMP JUMPDEST DUP1 ISZERO PUSH2 0x2900 JUMPI DUP1 PUSH1 0x1F LT PUSH2 0x28D5 JUMPI PUSH2 0x100 DUP1 DUP4 SLOAD DIV MUL DUP4 MSTORE SWAP2 PUSH1 0x20 ADD SWAP2 PUSH2 0x2900 JUMP JUMPDEST DUP3 ADD SWAP2 SWAP1 PUSH1 0x0 MSTORE PUSH1 0x20 PUSH1 0x0 KECCAK256 SWAP1 JUMPDEST DUP2 SLOAD DUP2 MSTORE SWAP1 PUSH1 0x1 ADD SWAP1 PUSH1 0x20 ADD DUP1 DUP4 GT PUSH2 0x28E3 JUMPI DUP3 SWAP1 SUB PUSH1 0x1F AND DUP3 ADD SWAP2 JUMPDEST POP POP POP POP POP SWAP1 DUP1 PUSH1 0x7 ADD DUP1 SLOAD PUSH2 0x2915 SWAP1 PUSH2 0x3577 JUMP JUMPDEST DUP1 PUSH1 0x1F ADD PUSH1 0x20 DUP1 SWAP2 DIV MUL PUSH1 0x20 ADD PUSH1 0x40 MLOAD SWAP1 DUP2 ADD PUSH1 0x40 MSTORE DUP1 SWAP3 SWAP2 SWAP1 DUP2 DUP2 MSTORE PUSH1 0x20 ADD DUP3 DUP1 SLOAD PUSH2 0x2941 SWAP1 PUSH2 0x3577 JUMP JUMPDEST DUP1 ISZERO PUSH2 0x298E JUMPI DUP1 PUSH1 0x1F LT PUSH2 0x2963 JUMPI PUSH2 0x100 DUP1 DUP4 SLOAD DIV MUL DUP4 MSTORE SWAP2 PUSH1 0x20 ADD SWAP2 PUSH2 0x298E JUMP JUMPDEST DUP3 ADD SWAP2 SWAP1 PUSH1 0x0 MSTORE PUSH1 0x20 PUSH1 0x0 KECCAK256 SWAP1 JUMPDEST DUP2 SLOAD DUP2 MSTORE SWAP1 PUSH1 0x1 ADD SWAP1 PUSH1 0x20 ADD DUP1 DUP4 GT PUSH2 0x2971 JUMPI DUP3 SWAP1 SUB PUSH1 0x1F AND DUP3 ADD SWAP2 JUMPDEST POP POP POP POP POP SWAP1 DUP1 PUSH1 0x8 ADD PUSH1 0x0 SWAP1 SLOAD SWAP1 PUSH2 0x100 EXP SWAP1 DIV PUSH20 0xFFFFFFFFFFFFFFFFFFFFFFFFFFFFFFFFFFFFFFFF AND SWAP1 DUP1 PUSH1 0x9 ADD SLOAD SWAP1 DUP1 PUSH1 0xA ADD SLOAD SWAP1 DUP1 PUSH1 0xB ADD SLOAD SWAP1 POP DUP13 JUMP JUMPDEST PUSH1 0x6 PUSH1 0x0 SWAP1 SLOAD SWAP1 PUSH2 0x100 EXP SWAP1 DIV PUSH20 0xFFFFFFFFFFFFFFFFFFFFFFFFFFFFFFFFFFFFFFFF AND DUP2 JUMP JUMPDEST PUSH1 0x0 DUP1 PUSH2 0xE10 DUP4 PUSH2 0x2A07 SWAP2 SWAP1 PUSH2 0x3AF5 JUMP JUMPDEST SWAP1 POP PUSH1 0x3 DUP2 LT PUSH2 0x2A1B JUMPI PUSH1 0x3 SWAP2 POP POP PUSH2 0x2A33 JUMP JUMPDEST PUSH1 0x2 DUP2 SUB PUSH2 0x2A2D JUMPI PUSH1 0x2 SWAP2 POP POP PUSH2 0x2A33 JUMP JUMPDEST PUSH1 0x1 SWAP2 POP POP JUMPDEST SWAP2 SWAP1 POP JUMP JUMPDEST PUSH1 0x0 PUSH2 0x2A42 PUSH2 0x2BDB JUMP JUMPDEST SWAP1 POP PUSH1 0x0 DUP2 SUB PUSH2 0x2A52 JUMPI POP PUSH2 0x2BD8 JUMP JUMPDEST PUSH1 0x0 JUMPDEST PUSH1 0x5 SLOAD DUP2 LT ISZERO PUSH2 0x2BD5 JUMPI PUSH1 0x0 PUSH1 0x4 PUSH1 0x0 DUP4 DUP2 MSTORE PUSH1 0x20 ADD SWAP1 DUP2 MSTORE PUSH1 0x20 ADD PUSH1 0x0 KECCAK256 SWAP1 POP PUSH1 0x5 DUP1 DUP2 GT ISZERO PUSH2 0x2A89 JUMPI PUSH2 0x2A88 PUSH2 0x3D13 JUMP JUMPDEST JUMPDEST DUP2 PUSH1 0x9 ADD SLOAD EQ PUSH2 0x2BC1 JUMPI PUSH1 0x0 DUP4 DUP6 DUP4 PUSH1 0xB ADD SLOAD PUSH2 0x2AA6 SWAP2 SWAP1 PUSH2 0x3A84 JUMP JUMPDEST PUSH2 0x2AB0 SWAP2 SWAP1 PUSH2 0x3AF5 JUMP JUMPDEST SWAP1 POP PUSH1 0x0 DUP2 GT ISZERO PUSH2 0x2BBF JUMPI PUSH1 0x8 PUSH1 0x0 SWAP1 SLOAD SWAP1 PUSH2 0x100 EXP SWAP1 DIV PUSH20 0xFFFFFFFFFFFFFFFFFFFFFFFFFFFFFFFFFFFFFFFF AND PUSH20 0xFFFFFFFFFFFFFFFFFFFFFFFFFFFFFFFFFFFFFFFF AND PUSH4 0xA9059CBB DUP4 PUSH1 0x8 ADD PUSH1 0x0 SWAP1 SLOAD SWAP1 PUSH2 0x100 EXP SWAP1 DIV PUSH20 0xFFFFFFFFFFFFFFFFFFFFFFFFFFFFFFFFFFFFFFFF AND DUP4 PUSH1 0x40 MLOAD DUP4 PUSH4 0xFFFFFFFF AND PUSH1 0xE0 SHL DUP2 MSTORE PUSH1 0x4 ADD PUSH2 0x2B3C SWAP3 SWAP2 SWAP1 PUSH2 0x3B92 JUMP JUMPDEST PUSH1 0x20 PUSH1 0x40 MLOAD DUP1 DUP4 SUB DUP2 PUSH1 0x0 DUP8 GAS CALL ISZERO DUP1 ISZERO PUSH2 0x2B5B JUMPI RETURNDATASIZE PUSH1 0x0 DUP1 RETURNDATACOPY RETURNDATASIZE PUSH1 0x0 REVERT JUMPDEST POP POP POP POP PUSH1 0x40 MLOAD RETURNDATASIZE PUSH1 0x1F NOT PUSH1 0x1F DUP3 ADD AND DUP3 ADD DUP1 PUSH1 0x40 MSTORE POP DUP2 ADD SWAP1 PUSH2 0x2B7F SWAP2 SWAP1 PUSH2 0x34AF JUMP JUMPDEST PUSH2 0x2BBE JUMPI PUSH1 0x40 MLOAD PUSH32 0x8C379A000000000000000000000000000000000000000000000000000000000 DUP2 MSTORE PUSH1 0x4 ADD PUSH2 0x2BB5 SWAP1 PUSH2 0x3FAA JUMP JUMPDEST PUSH1 0x40 MLOAD DUP1 SWAP2 SUB SWAP1 REVERT JUMPDEST JUMPDEST POP JUMPDEST POP DUP1 DUP1 PUSH2 0x2BCD SWAP1 PUSH2 0x384B JUMP JUMPDEST SWAP2 POP POP PUSH2 0x2A55 JUMP JUMPDEST POP POP JUMPDEST POP JUMP JUMPDEST PUSH1 0x0 DUP1 PUSH1 0x0 SWAP1 POP PUSH1 0x0 JUMPDEST PUSH1 0x5 SLOAD DUP2 LT ISZERO PUSH2 0x2C56 JUMPI PUSH1 0x5 DUP1 DUP2 GT ISZERO PUSH2 0x2C02 JUMPI PUSH2 0x2C01 PUSH2 0x3D13 JUMP JUMPDEST JUMPDEST PUSH1 0x4 PUSH1 0x0 DUP4 DUP2 MSTORE PUSH1 0x20 ADD SWAP1 DUP2 MSTORE PUSH1 0x20 ADD PUSH1 0x0 KECCAK256 PUSH1 0x9 ADD SLOAD EQ PUSH2 0x2C43 JUMPI PUSH1 0x4 PUSH1 0x0 DUP3 DUP2 MSTORE PUSH1 0x20 ADD SWAP1 DUP2 MSTORE PUSH1 0x20 ADD PUSH1 0x0 KECCAK256 PUSH1 0xB ADD SLOAD DUP3 PUSH2 0x2C40 SWAP2 SWAP1 PUSH2 0x3CDF JUMP JUMPDEST SWAP2 POP JUMPDEST DUP1 DUP1 PUSH2 0x2C4E SWAP1 PUSH2 0x384B JUMP JUMPDEST SWAP2 POP POP PUSH2 0x2BE5 JUMP JUMPDEST POP DUP1 SWAP2 POP POP SWAP1 JUMP JUMPDEST PUSH1 0x0 PUSH1 0x40 MLOAD SWAP1 POP SWAP1 JUMP JUMPDEST PUSH1 0x0 DUP1 REVERT JUMPDEST PUSH1 0x0 DUP1 REVERT JUMPDEST PUSH1 0x0 PUSH20 0xFFFFFFFFFFFFFFFFFFFFFFFFFFFFFFFFFFFFFFFF DUP3 AND SWAP1 POP SWAP2 SWAP1 POP JUMP JUMPDEST PUSH1 0x0 PUSH2 0x2C9D DUP3 PUSH2 0x2C72 JUMP JUMPDEST SWAP1 POP SWAP2 SWAP1 POP JUMP JUMPDEST PUSH2 0x2CAD DUP2 PUSH2 0x2C92 JUMP JUMPDEST DUP2 EQ PUSH2 0x2CB8 JUMPI PUSH1 0x0 DUP1 REVERT JUMPDEST POP JUMP JUMPDEST PUSH1 0x0 DUP2 CALLDATALOAD SWAP1 POP PUSH2 0x2CCA DUP2 PUSH2 0x2CA4 JUMP JUMPDEST SWAP3 SWAP2 POP POP JUMP JUMPDEST PUSH1 0x0 PUSH1 0x20 DUP3 DUP5 SUB SLT ISZERO PUSH2 0x2CE6 JUMPI PUSH2 0x2CE5 PUSH2 0x2C68 JUMP JUMPDEST JUMPDEST PUSH1 0x0 PUSH2 0x2CF4 DUP5 DUP3 DUP6 ADD PUSH2 0x2CBB JUMP JUMPDEST SWAP2 POP POP SWAP3 SWAP2 POP POP JUMP JUMPDEST PUSH1 0x0 DUP2 SWAP1 POP SWAP2 SWAP1 POP JUMP JUMPDEST PUSH2 0x2D10 DUP2 PUSH2 0x2CFD JUMP JUMPDEST DUP3 MSTORE POP POP JUMP JUMPDEST PUSH1 0x0 PUSH1 0x20 DUP3 ADD SWAP1 POP PUSH2 0x2D2B PUSH1 0x0 DUP4 ADD DUP5 PUSH2 0x2D07 JUMP JUMPDEST SWAP3 SWAP2 POP POP JUMP JUMPDEST PUSH1 0x0 DUP1 REVERT JUMPDEST PUSH1 0x0 DUP1 REVERT JUMPDEST PUSH1 0x0 PUSH1 0x1F NOT PUSH1 0x1F DUP4 ADD AND SWAP1 POP SWAP2 SWAP1 POP JUMP JUMPDEST PUSH32 0x4E487B7100000000000000000000000000000000000000000000000000000000 PUSH1 0x0 MSTORE PUSH1 0x41 PUSH1 0x4 MSTORE PUSH1 0x24 PUSH1 0x0 REVERT JUMPDEST PUSH2 0x2D84 DUP3 PUSH2 0x2D3B JUMP JUMPDEST DUP2 ADD DUP2 DUP2 LT PUSH8 0xFFFFFFFFFFFFFFFF DUP3 GT OR ISZERO PUSH2 0x2DA3 JUMPI PUSH2 0x2DA2 PUSH2 0x2D4C JUMP JUMPDEST JUMPDEST DUP1 PUSH1 0x40 MSTORE POP POP POP JUMP JUMPDEST PUSH1 0x0 PUSH2 0x2DB6 PUSH2 0x2C5E JUMP JUMPDEST SWAP1 POP PUSH2 0x2DC2 DUP3 DUP3 PUSH2 0x2D7B JUMP JUMPDEST SWAP2 SWAP1 POP JUMP JUMPDEST PUSH1 0x0 PUSH8 0xFFFFFFFFFFFFFFFF DUP3 GT ISZERO PUSH2 0x2DE2 JUMPI PUSH2 0x2DE1 PUSH2 0x2D4C JUMP JUMPDEST JUMPDEST PUSH2 0x2DEB DUP3 PUSH2 0x2D3B JUMP JUMPDEST SWAP1 POP PUSH1 0x20 DUP2 ADD SWAP1 POP SWAP2 SWAP1 POP JUMP JUMPDEST DUP3 DUP2 DUP4 CALLDATACOPY PUSH1 0x0 DUP4 DUP4 ADD MSTORE POP POP POP JUMP JUMPDEST PUSH1 0x0 PUSH2 0x2E1A PUSH2 0x2E15 DUP5 PUSH2 0x2DC7 JUMP JUMPDEST PUSH2 0x2DAC JUMP JUMPDEST SWAP1 POP DUP3 DUP2 MSTORE PUSH1 0x20 DUP2 ADD DUP5 DUP5 DUP5 ADD GT ISZERO PUSH2 0x2E36 JUMPI PUSH2 0x2E35 PUSH2 0x2D36 JUMP JUMPDEST JUMPDEST PUSH2 0x2E41 DUP5 DUP3 DUP6 PUSH2 0x2DF8 JUMP JUMPDEST POP SWAP4 SWAP3 POP POP POP JUMP JUMPDEST PUSH1 0x0 DUP3 PUSH1 0x1F DUP4 ADD SLT PUSH2 0x2E5E JUMPI PUSH2 0x2E5D PUSH2 0x2D31 JUMP JUMPDEST JUMPDEST DUP2 CALLDATALOAD PUSH2 0x2E6E DUP5 DUP3 PUSH1 0x20 DUP7 ADD PUSH2 0x2E07 JUMP JUMPDEST SWAP2 POP POP SWAP3 SWAP2 POP POP JUMP JUMPDEST PUSH1 0x0 DUP1 PUSH1 0x0 DUP1 PUSH1 0x0 PUSH1 0xA0 DUP7 DUP9 SUB SLT ISZERO PUSH2 0x2E93 JUMPI PUSH2 0x2E92 PUSH2 0x2C68 JUMP JUMPDEST JUMPDEST PUSH1 0x0 DUP7 ADD CALLDATALOAD PUSH8 0xFFFFFFFFFFFFFFFF DUP2 GT ISZERO PUSH2 0x2EB1 JUMPI PUSH2 0x2EB0 PUSH2 0x2C6D JUMP JUMPDEST JUMPDEST PUSH2 0x2EBD DUP9 DUP3 DUP10 ADD PUSH2 0x2E49 JUMP JUMPDEST SWAP6 POP POP PUSH1 0x20 DUP7 ADD CALLDATALOAD PUSH8 0xFFFFFFFFFFFFFFFF DUP2 GT ISZERO PUSH2 0x2EDE JUMPI PUSH2 0x2EDD PUSH2 0x2C6D JUMP JUMPDEST JUMPDEST PUSH2 0x2EEA DUP9 DUP3 DUP10 ADD PUSH2 0x2E49 JUMP JUMPDEST SWAP5 POP POP PUSH1 0x40 DUP7 ADD CALLDATALOAD PUSH8 0xFFFFFFFFFFFFFFFF DUP2 GT ISZERO PUSH2 0x2F0B JUMPI PUSH2 0x2F0A PUSH2 0x2C6D JUMP JUMPDEST JUMPDEST PUSH2 0x2F17 DUP9 DUP3 DUP10 ADD PUSH2 0x2E49 JUMP JUMPDEST SWAP4 POP POP PUSH1 0x60 DUP7 ADD CALLDATALOAD PUSH8 0xFFFFFFFFFFFFFFFF DUP2 GT ISZERO PUSH2 0x2F38 JUMPI PUSH2 0x2F37 PUSH2 0x2C6D JUMP JUMPDEST JUMPDEST PUSH2 0x2F44 DUP9 DUP3 DUP10 ADD PUSH2 0x2E49 JUMP JUMPDEST SWAP3 POP POP PUSH1 0x80 DUP7 ADD CALLDATALOAD PUSH8 0xFFFFFFFFFFFFFFFF DUP2 GT ISZERO PUSH2 0x2F65 JUMPI PUSH2 0x2F64 PUSH2 0x2C6D JUMP JUMPDEST JUMPDEST PUSH2 0x2F71 DUP9 DUP3 DUP10 ADD PUSH2 0x2E49 JUMP JUMPDEST SWAP2 POP POP SWAP3 SWAP6 POP SWAP3 SWAP6 SWAP1 SWAP4 POP JUMP JUMPDEST PUSH1 0x0 DUP2 SWAP1 POP SWAP2 SWAP1 POP JUMP JUMPDEST PUSH1 0x0 PUSH2 0x2FA3 PUSH2 0x2F9E PUSH2 0x2F99 DUP5 PUSH2 0x2C72 JUMP JUMPDEST PUSH2 0x2F7E JUMP JUMPDEST PUSH2 0x2C72 JUMP JUMPDEST SWAP1 POP SWAP2 SWAP1 POP JUMP JUMPDEST PUSH1 0x0 PUSH2 0x2FB5 DUP3 PUSH2 0x2F88 JUMP JUMPDEST SWAP1 POP SWAP2 SWAP1 POP JUMP JUMPDEST PUSH1 0x0 PUSH2 0x2FC7 DUP3 PUSH2 0x2FAA JUMP JUMPDEST SWAP1 POP SWAP2 SWAP1 POP JUMP JUMPDEST PUSH2 0x2FD7 DUP2 PUSH2 0x2FBC JUMP JUMPDEST DUP3 MSTORE POP POP JUMP JUMPDEST PUSH1 0x0 PUSH1 0x20 DUP3 ADD SWAP1 POP PUSH2 0x2FF2 PUSH1 0x0 DUP4 ADD DUP5 PUSH2 0x2FCE JUMP JUMPDEST SWAP3 SWAP2 POP POP JUMP JUMPDEST PUSH2 0x3001 DUP2 PUSH2 0x2C92 JUMP JUMPDEST DUP3 MSTORE POP POP JUMP JUMPDEST PUSH1 0x0 PUSH1 0x20 DUP3 ADD SWAP1 POP PUSH2 0x301C PUSH1 0x0 DUP4 ADD DUP5 PUSH2 0x2FF8 JUMP JUMPDEST SWAP3 SWAP2 POP POP JUMP JUMPDEST PUSH2 0x302B DUP2 PUSH2 0x2CFD JUMP JUMPDEST DUP2 EQ PUSH2 0x3036 JUMPI PUSH1 0x0 DUP1 REVERT JUMPDEST POP JUMP JUMPDEST PUSH1 0x0 DUP2 CALLDATALOAD SWAP1 POP PUSH2 0x3048 DUP2 PUSH2 0x3022 JUMP JUMPDEST SWAP3 SWAP2 POP POP JUMP JUMPDEST PUSH1 0x0 PUSH1 0x20 DUP3 DUP5 SUB SLT ISZERO PUSH2 0x3064 JUMPI PUSH2 0x3063 PUSH2 0x2C68 JUMP JUMPDEST JUMPDEST PUSH1 0x0 PUSH2 0x3072 DUP5 DUP3 DUP6 ADD PUSH2 0x3039 JUMP JUMPDEST SWAP2 POP POP SWAP3 SWAP2 POP POP JUMP JUMPDEST PUSH1 0x0 DUP1 PUSH1 0x40 DUP4 DUP6 SUB SLT ISZERO PUSH2 0x3092 JUMPI PUSH2 0x3091 PUSH2 0x2C68 JUMP JUMPDEST JUMPDEST PUSH1 0x0 PUSH2 0x30A0 DUP6 DUP3 DUP7 ADD PUSH2 0x3039 JUMP JUMPDEST SWAP3 POP POP PUSH1 0x20 PUSH2 0x30B1 DUP6 DUP3 DUP7 ADD PUSH2 0x3039 JUMP JUMPDEST SWAP2 POP POP SWAP3 POP SWAP3 SWAP1 POP JUMP JUMPDEST PUSH1 0x0 DUP2 ISZERO ISZERO SWAP1 POP SWAP2 SWAP1 POP JUMP JUMPDEST PUSH2 0x30D0 DUP2 PUSH2 0x30BB JUMP JUMPDEST DUP2 EQ PUSH2 0x30DB JUMPI PUSH1 0x0 DUP1 REVERT JUMPDEST POP JUMP JUMPDEST PUSH1 0x0 DUP2 CALLDATALOAD SWAP1 POP PUSH2 0x30ED DUP2 PUSH2 0x30C7 JUMP JUMPDEST SWAP3 SWAP2 POP POP JUMP JUMPDEST PUSH1 0x0 DUP1 PUSH1 0x40 DUP4 DUP6 SUB SLT ISZERO PUSH2 0x310A JUMPI PUSH2 0x3109 PUSH2 0x2C68 JUMP JUMPDEST JUMPDEST PUSH1 0x0 DUP4 ADD CALLDATALOAD PUSH8 0xFFFFFFFFFFFFFFFF DUP2 GT ISZERO PUSH2 0x3128 JUMPI PUSH2 0x3127 PUSH2 0x2C6D JUMP JUMPDEST JUMPDEST PUSH2 0x3134 DUP6 DUP3 DUP7 ADD PUSH2 0x2E49 JUMP JUMPDEST SWAP3 POP POP PUSH1 0x20 PUSH2 0x3145 DUP6 DUP3 DUP7 ADD PUSH2 0x30DE JUMP JUMPDEST SWAP2 POP POP SWAP3 POP SWAP3 SWAP1 POP JUMP JUMPDEST PUSH1 0x0 PUSH1 0x20 DUP3 DUP5 SUB SLT ISZERO PUSH2 0x3165 JUMPI PUSH2 0x3164 PUSH2 0x2C68 JUMP JUMPDEST JUMPDEST PUSH1 0x0 DUP3 ADD CALLDATALOAD PUSH8 0xFFFFFFFFFFFFFFFF DUP2 GT ISZERO PUSH2 0x3183 JUMPI PUSH2 0x3182 PUSH2 0x2C6D JUMP JUMPDEST JUMPDEST PUSH2 0x318F DUP5 DUP3 DUP6 ADD PUSH2 0x2E49 JUMP JUMPDEST SWAP2 POP POP SWAP3 SWAP2 POP POP JUMP JUMPDEST PUSH2 0x31A1 DUP2 PUSH2 0x30BB JUMP JUMPDEST DUP3 MSTORE POP POP JUMP JUMPDEST PUSH1 0x0 PUSH1 0x20 DUP3 ADD SWAP1 POP PUSH2 0x31BC PUSH1 0x0 DUP4 ADD DUP5 PUSH2 0x3198 JUMP JUMPDEST SWAP3 SWAP2 POP POP JUMP JUMPDEST PUSH1 0x0 DUP1 PUSH1 0x40 DUP4 DUP6 SUB SLT ISZERO PUSH2 0x31D9 JUMPI PUSH2 0x31D8 PUSH2 0x2C68 JUMP JUMPDEST JUMPDEST PUSH1 0x0 PUSH2 0x31E7 DUP6 DUP3 DUP7 ADD PUSH2 0x3039 JUMP JUMPDEST SWAP3 POP POP PUSH1 0x20 DUP4 ADD CALLDATALOAD PUSH8 0xFFFFFFFFFFFFFFFF DUP2 GT ISZERO PUSH2 0x3208 JUMPI PUSH2 0x3207 PUSH2 0x2C6D JUMP JUMPDEST JUMPDEST PUSH2 0x3214 DUP6 DUP3 DUP7 ADD PUSH2 0x2E49 JUMP JUMPDEST SWAP2 POP POP SWAP3 POP SWAP3 SWAP1 POP JUMP JUMPDEST PUSH1 0x0 DUP2 MLOAD SWAP1 POP SWAP2 SWAP1 POP JUMP JUMPDEST PUSH1 0x0 DUP3 DUP3 MSTORE PUSH1 0x20 DUP3 ADD SWAP1 POP SWAP3 SWAP2 POP POP JUMP JUMPDEST PUSH1 0x0 JUMPDEST DUP4 DUP2 LT ISZERO PUSH2 0x3258 JUMPI DUP1 DUP3 ADD MLOAD DUP2 DUP5 ADD MSTORE PUSH1 0x20 DUP2 ADD SWAP1 POP PUSH2 0x323D JUMP JUMPDEST PUSH1 0x0 DUP5 DUP5 ADD MSTORE POP POP POP POP JUMP JUMPDEST PUSH1 0x0 PUSH2 0x326F DUP3 PUSH2 0x321E JUMP JUMPDEST PUSH2 0x3279 DUP2 DUP6 PUSH2 0x3229 JUMP JUMPDEST SWAP4 POP PUSH2 0x3289 DUP2 DUP6 PUSH1 0x20 DUP7 ADD PUSH2 0x323A JUMP JUMPDEST PUSH2 0x3292 DUP2 PUSH2 0x2D3B JUMP JUMPDEST DUP5 ADD SWAP2 POP POP SWAP3 SWAP2 POP POP JUMP JUMPDEST PUSH1 0x0 PUSH2 0x180 DUP3 ADD SWAP1 POP DUP2 DUP2 SUB PUSH1 0x0 DUP4 ADD MSTORE PUSH2 0x32B8 DUP2 DUP16 PUSH2 0x3264 JUMP JUMPDEST SWAP1 POP DUP2 DUP2 SUB PUSH1 0x20 DUP4 ADD MSTORE PUSH2 0x32CC DUP2 DUP15 PUSH2 0x3264 JUMP JUMPDEST SWAP1 POP DUP2 DUP2 SUB PUSH1 0x40 DUP4 ADD MSTORE PUSH2 0x32E0 DUP2 DUP14 PUSH2 0x3264 JUMP JUMPDEST SWAP1 POP DUP2 DUP2 SUB PUSH1 0x60 DUP4 ADD MSTORE PUSH2 0x32F4 DUP2 DUP13 PUSH2 0x3264 JUMP JUMPDEST SWAP1 POP DUP2 DUP2 SUB PUSH1 0x80 DUP4 ADD MSTORE PUSH2 0x3308 DUP2 DUP12 PUSH2 0x3264 JUMP JUMPDEST SWAP1 POP DUP2 DUP2 SUB PUSH1 0xA0 DUP4 ADD MSTORE PUSH2 0x331C DUP2 DUP11 PUSH2 0x3264 JUMP JUMPDEST SWAP1 POP DUP2 DUP2 SUB PUSH1 0xC0 DUP4 ADD MSTORE PUSH2 0x3330 DUP2 DUP10 PUSH2 0x3264 JUMP JUMPDEST SWAP1 POP DUP2 DUP2 SUB PUSH1 0xE0 DUP4 ADD MSTORE PUSH2 0x3344 DUP2 DUP9 PUSH2 0x3264 JUMP JUMPDEST SWAP1 POP PUSH2 0x3354 PUSH2 0x100 DUP4 ADD DUP8 PUSH2 0x2FF8 JUMP JUMPDEST PUSH2 0x3362 PUSH2 0x120 DUP4 ADD DUP7 PUSH2 0x2D07 JUMP JUMPDEST PUSH2 0x3370 PUSH2 0x140 DUP4 ADD DUP6 PUSH2 0x2D07 JUMP JUMPDEST PUSH2 0x337E PUSH2 0x160 DUP4 ADD DUP5 PUSH2 0x2D07 JUMP JUMPDEST SWAP14 SWAP13 POP POP POP POP POP POP POP POP POP POP POP POP POP JUMP JUMPDEST PUSH1 0x0 DUP2 MLOAD SWAP1 POP PUSH2 0x339E DUP2 PUSH2 0x3022 JUMP JUMPDEST SWAP3 SWAP2 POP POP JUMP JUMPDEST PUSH1 0x0 PUSH1 0x20 DUP3 DUP5 SUB SLT ISZERO PUSH2 0x33BA JUMPI PUSH2 0x33B9 PUSH2 0x2C68 JUMP JUMPDEST JUMPDEST PUSH1 0x0 PUSH2 0x33C8 DUP5 DUP3 DUP6 ADD PUSH2 0x338F JUMP JUMPDEST SWAP2 POP POP SWAP3 SWAP2 POP POP JUMP JUMPDEST PUSH32 0x496E73756666696369656E7420746F6B656E7320746F2063726561746520656C PUSH1 0x0 DUP3 ADD MSTORE PUSH32 0x656D656E74000000000000000000000000000000000000000000000000000000 PUSH1 0x20 DUP3 ADD MSTORE POP JUMP JUMPDEST PUSH1 0x0 PUSH2 0x342D PUSH1 0x25 DUP4 PUSH2 0x3229 JUMP JUMPDEST SWAP2 POP PUSH2 0x3438 DUP3 PUSH2 0x33D1 JUMP JUMPDEST PUSH1 0x40 DUP3 ADD SWAP1 POP SWAP2 SWAP1 POP JUMP JUMPDEST PUSH1 0x0 PUSH1 0x20 DUP3 ADD SWAP1 POP DUP2 DUP2 SUB PUSH1 0x0 DUP4 ADD MSTORE PUSH2 0x345C DUP2 PUSH2 0x3420 JUMP JUMPDEST SWAP1 POP SWAP2 SWAP1 POP JUMP JUMPDEST PUSH1 0x0 PUSH1 0x60 DUP3 ADD SWAP1 POP PUSH2 0x3478 PUSH1 0x0 DUP4 ADD DUP7 PUSH2 0x2FF8 JUMP JUMPDEST PUSH2 0x3485 PUSH1 0x20 DUP4 ADD DUP6 PUSH2 0x2FF8 JUMP JUMPDEST PUSH2 0x3492 PUSH1 0x40 DUP4 ADD DUP5 PUSH2 0x2D07 JUMP JUMPDEST SWAP5 SWAP4 POP POP POP POP JUMP JUMPDEST PUSH1 0x0 DUP2 MLOAD SWAP1 POP PUSH2 0x34A9 DUP2 PUSH2 0x30C7 JUMP JUMPDEST SWAP3 SWAP2 POP POP JUMP JUMPDEST PUSH1 0x0 PUSH1 0x20 DUP3 DUP5 SUB SLT ISZERO PUSH2 0x34C5 JUMPI PUSH2 0x34C4 PUSH2 0x2C68 JUMP JUMPDEST JUMPDEST PUSH1 0x0 PUSH2 0x34D3 DUP5 DUP3 DUP6 ADD PUSH2 0x349A JUMP JUMPDEST SWAP2 POP POP SWAP3 SWAP2 POP POP JUMP JUMPDEST PUSH32 0x546F6B656E207472616E73666572206661696C65640000000000000000000000 PUSH1 0x0 DUP3 ADD MSTORE POP JUMP JUMPDEST PUSH1 0x0 PUSH2 0x3512 PUSH1 0x15 DUP4 PUSH2 0x3229 JUMP JUMPDEST SWAP2 POP PUSH2 0x351D DUP3 PUSH2 0x34DC JUMP JUMPDEST PUSH1 0x20 DUP3 ADD SWAP1 POP SWAP2 SWAP1 POP JUMP JUMPDEST PUSH1 0x0 PUSH1 0x20 DUP3 ADD SWAP1 POP DUP2 DUP2 SUB PUSH1 0x0 DUP4 ADD MSTORE PUSH2 0x3541 DUP2 PUSH2 0x3505 JUMP JUMPDEST SWAP1 POP SWAP2 SWAP1 POP JUMP JUMPDEST PUSH32 0x4E487B7100000000000000000000000000000000000000000000000000000000 PUSH1 0x0 MSTORE PUSH1 0x22 PUSH1 0x4 MSTORE PUSH1 0x24 PUSH1 0x0 REVERT JUMPDEST PUSH1 0x0 PUSH1 0x2 DUP3 DIV SWAP1 POP PUSH1 0x1 DUP3 AND DUP1 PUSH2 0x358F JUMPI PUSH1 0x7F DUP3 AND SWAP2 POP JUMPDEST PUSH1 0x20 DUP3 LT DUP2 SUB PUSH2 0x35A2 JUMPI PUSH2 0x35A1 PUSH2 0x3548 JUMP JUMPDEST JUMPDEST POP SWAP2 SWAP1 POP JUMP JUMPDEST PUSH1 0x0 DUP2 SWAP1 POP DUP2 PUSH1 0x0 MSTORE PUSH1 0x20 PUSH1 0x0 KECCAK256 SWAP1 POP SWAP2 SWAP1 POP JUMP JUMPDEST PUSH1 0x0 PUSH1 0x20 PUSH1 0x1F DUP4 ADD DIV SWAP1 POP SWAP2 SWAP1 POP JUMP JUMPDEST PUSH1 0x0 DUP3 DUP3 SHL SWAP1 POP SWAP3 SWAP2 POP POP JUMP JUMPDEST PUSH1 0x0 PUSH1 0x8 DUP4 MUL PUSH2 0x360A PUSH32 0xFFFFFFFFFFFFFFFFFFFFFFFFFFFFFFFFFFFFFFFFFFFFFFFFFFFFFFFFFFFFFFFF DUP3 PUSH2 0x35CD JUMP JUMPDEST PUSH2 0x3614 DUP7 DUP4 PUSH2 0x35CD JUMP JUMPDEST SWAP6 POP DUP1 NOT DUP5 AND SWAP4 POP DUP1 DUP7 AND DUP5 OR SWAP3 POP POP POP SWAP4 SWAP3 POP POP POP JUMP JUMPDEST PUSH1 0x0 PUSH2 0x3647 PUSH2 0x3642 PUSH2 0x363D DUP5 PUSH2 0x2CFD JUMP JUMPDEST PUSH2 0x2F7E JUMP JUMPDEST PUSH2 0x2CFD JUMP JUMPDEST SWAP1 POP SWAP2 SWAP1 POP JUMP JUMPDEST PUSH1 0x0 DUP2 SWAP1 POP SWAP2 SWAP1 POP JUMP JUMPDEST PUSH2 0x3661 DUP4 PUSH2 0x362C JUMP JUMPDEST PUSH2 0x3675 PUSH2 0x366D DUP3 PUSH2 0x364E JUMP JUMPDEST DUP5 DUP5 SLOAD PUSH2 0x35DA JUMP JUMPDEST DUP3 SSTORE POP POP POP POP JUMP JUMPDEST PUSH1 0x0 SWAP1 JUMP JUMPDEST PUSH2 0x368A PUSH2 0x367D JUMP JUMPDEST PUSH2 0x3695 DUP2 DUP5 DUP5 PUSH2 0x3658 JUMP JUMPDEST POP POP POP JUMP JUMPDEST JUMPDEST DUP2 DUP2 LT ISZERO PUSH2 0x36B9 JUMPI PUSH2 0x36AE PUSH1 0x0 DUP3 PUSH2 0x3682 JUMP JUMPDEST PUSH1 0x1 DUP2 ADD SWAP1 POP PUSH2 0x369B JUMP JUMPDEST POP POP JUMP JUMPDEST PUSH1 0x1F DUP3 GT ISZERO PUSH2 0x36FE JUMPI PUSH2 0x36CF DUP2 PUSH2 0x35A8 JUMP JUMPDEST PUSH2 0x36D8 DUP5 PUSH2 0x35BD JUMP JUMPDEST DUP2 ADD PUSH1 0x20 DUP6 LT ISZERO PUSH2 0x36E7 JUMPI DUP2 SWAP1 POP JUMPDEST PUSH2 0x36FB PUSH2 0x36F3 DUP6 PUSH2 0x35BD JUMP JUMPDEST DUP4 ADD DUP3 PUSH2 0x369A JUMP JUMPDEST POP POP JUMPDEST POP POP POP JUMP JUMPDEST PUSH1 0x0 DUP3 DUP3 SHR SWAP1 POP SWAP3 SWAP2 POP POP JUMP JUMPDEST PUSH1 0x0 PUSH2 0x3721 PUSH1 0x0 NOT DUP5 PUSH1 0x8 MUL PUSH2 0x3703 JUMP JUMPDEST NOT DUP1 DUP4 AND SWAP2 POP POP SWAP3 SWAP2 POP POP JUMP JUMPDEST PUSH1 0x0 PUSH2 0x373A DUP4 DUP4 PUSH2 0x3710 JUMP JUMPDEST SWAP2 POP DUP3 PUSH1 0x2 MUL DUP3 OR SWAP1 POP SWAP3 SWAP2 POP POP JUMP JUMPDEST PUSH2 0x3753 DUP3 PUSH2 0x321E JUMP JUMPDEST PUSH8 0xFFFFFFFFFFFFFFFF DUP2 GT ISZERO PUSH2 0x376C JUMPI PUSH2 0x376B PUSH2 0x2D4C JUMP JUMPDEST JUMPDEST PUSH2 0x3776 DUP3 SLOAD PUSH2 0x3577 JUMP JUMPDEST PUSH2 0x3781 DUP3 DUP3 DUP6 PUSH2 0x36BD JUMP JUMPDEST PUSH1 0x0 PUSH1 0x20 SWAP1 POP PUSH1 0x1F DUP4 GT PUSH1 0x1 DUP2 EQ PUSH2 0x37B4 JUMPI PUSH1 0x0 DUP5 ISZERO PUSH2 0x37A2 JUMPI DUP3 DUP8 ADD MLOAD SWAP1 POP JUMPDEST PUSH2 0x37AC DUP6 DUP3 PUSH2 0x372E JUMP JUMPDEST DUP7 SSTORE POP PUSH2 0x3814 JUMP JUMPDEST PUSH1 0x1F NOT DUP5 AND PUSH2 0x37C2 DUP7 PUSH2 0x35A8 JUMP JUMPDEST PUSH1 0x0 JUMPDEST DUP3 DUP2 LT ISZERO PUSH2 0x37EA JUMPI DUP5 DUP10 ADD MLOAD DUP3 SSTORE PUSH1 0x1 DUP3 ADD SWAP2 POP PUSH1 0x20 DUP6 ADD SWAP5 POP PUSH1 0x20 DUP2 ADD SWAP1 POP PUSH2 0x37C5 JUMP JUMPDEST DUP7 DUP4 LT ISZERO PUSH2 0x3807 JUMPI DUP5 DUP10 ADD MLOAD PUSH2 0x3803 PUSH1 0x1F DUP10 AND DUP3 PUSH2 0x3710 JUMP JUMPDEST DUP4 SSTORE POP JUMPDEST PUSH1 0x1 PUSH1 0x2 DUP9 MUL ADD DUP9 SSTORE POP POP POP JUMPDEST POP POP POP POP POP POP JUMP JUMPDEST PUSH32 0x4E487B7100000000000000000000000000000000000000000000000000000000 PUSH1 0x0 MSTORE PUSH1 0x11 PUSH1 0x4 MSTORE PUSH1 0x24 PUSH1 0x0 REVERT JUMPDEST PUSH1 0x0 PUSH2 0x3856 DUP3 PUSH2 0x2CFD JUMP JUMPDEST SWAP2 POP PUSH32 0xFFFFFFFFFFFFFFFFFFFFFFFFFFFFFFFFFFFFFFFFFFFFFFFFFFFFFFFFFFFFFFFF DUP3 SUB PUSH2 0x3888 JUMPI PUSH2 0x3887 PUSH2 0x381C JUMP JUMPDEST JUMPDEST PUSH1 0x1 DUP3 ADD SWAP1 POP SWAP2 SWAP1 POP JUMP JUMPDEST PUSH32 0x4F6E6C792061646D696E2063616E20706572666F726D20746869732061637469 PUSH1 0x0 DUP3 ADD MSTORE PUSH32 0x6F6E000000000000000000000000000000000000000000000000000000000000 PUSH1 0x20 DUP3 ADD MSTORE POP JUMP JUMPDEST PUSH1 0x0 PUSH2 0x38EF PUSH1 0x22 DUP4 PUSH2 0x3229 JUMP JUMPDEST SWAP2 POP PUSH2 0x38FA DUP3 PUSH2 0x3893 JUMP JUMPDEST PUSH1 0x40 DUP3 ADD SWAP1 POP SWAP2 SWAP1 POP JUMP JUMPDEST PUSH1 0x0 PUSH1 0x20 DUP3 ADD SWAP1 POP DUP2 DUP2 SUB PUSH1 0x0 DUP4 ADD MSTORE PUSH2 0x391E DUP2 PUSH2 0x38E2 JUMP JUMPDEST SWAP1 POP SWAP2 SWAP1 POP JUMP JUMPDEST PUSH1 0x0 DUP2 SWAP1 POP SWAP3 SWAP2 POP POP JUMP JUMPDEST PUSH1 0x0 PUSH2 0x393B DUP3 PUSH2 0x321E JUMP JUMPDEST PUSH2 0x3945 DUP2 DUP6 PUSH2 0x3925 JUMP JUMPDEST SWAP4 POP PUSH2 0x3955 DUP2 DUP6 PUSH1 0x20 DUP7 ADD PUSH2 0x323A JUMP JUMPDEST DUP1 DUP5 ADD SWAP2 POP POP SWAP3 SWAP2 POP POP JUMP JUMPDEST PUSH1 0x0 PUSH2 0x396D DUP3 DUP5 PUSH2 0x3930 JUMP JUMPDEST SWAP2 POP DUP2 SWAP1 POP SWAP3 SWAP2 POP POP JUMP JUMPDEST PUSH32 0x46756E6374696F6E2069732064697361626C6564000000000000000000000000 PUSH1 0x0 DUP3 ADD MSTORE POP JUMP JUMPDEST PUSH1 0x0 PUSH2 0x39AE PUSH1 0x14 DUP4 PUSH2 0x3229 JUMP JUMPDEST SWAP2 POP PUSH2 0x39B9 DUP3 PUSH2 0x3978 JUMP JUMPDEST PUSH1 0x20 DUP3 ADD SWAP1 POP SWAP2 SWAP1 POP JUMP JUMPDEST PUSH1 0x0 PUSH1 0x20 DUP3 ADD SWAP1 POP DUP2 DUP2 SUB PUSH1 0x0 DUP4 ADD MSTORE PUSH2 0x39DD DUP2 PUSH2 0x39A1 JUMP JUMPDEST SWAP1 POP SWAP2 SWAP1 POP JUMP JUMPDEST PUSH32 0x456C656D656E74206973206E6F742070656E64696E6720617070726F76616C00 PUSH1 0x0 DUP3 ADD MSTORE POP JUMP JUMPDEST PUSH1 0x0 PUSH2 0x3A1A PUSH1 0x1F DUP4 PUSH2 0x3229 JUMP JUMPDEST SWAP2 POP PUSH2 0x3A25 DUP3 PUSH2 0x39E4 JUMP JUMPDEST PUSH1 0x20 DUP3 ADD SWAP1 POP SWAP2 SWAP1 POP JUMP JUMPDEST PUSH1 0x0 PUSH1 0x20 DUP3 ADD SWAP1 POP DUP2 DUP2 SUB PUSH1 0x0 DUP4 ADD MSTORE PUSH2 0x3A49 DUP2 PUSH2 0x3A0D JUMP JUMPDEST SWAP1 POP SWAP2 SWAP1 POP JUMP JUMPDEST PUSH1 0x0 PUSH2 0x3A5B DUP3 PUSH2 0x2CFD JUMP JUMPDEST SWAP2 POP PUSH2 0x3A66 DUP4 PUSH2 0x2CFD JUMP JUMPDEST SWAP3 POP DUP3 DUP3 SUB SWAP1 POP DUP2 DUP2 GT ISZERO PUSH2 0x3A7E JUMPI PUSH2 0x3A7D PUSH2 0x381C JUMP JUMPDEST JUMPDEST SWAP3 SWAP2 POP POP JUMP JUMPDEST PUSH1 0x0 PUSH2 0x3A8F DUP3 PUSH2 0x2CFD JUMP JUMPDEST SWAP2 POP PUSH2 0x3A9A DUP4 PUSH2 0x2CFD JUMP JUMPDEST SWAP3 POP DUP3 DUP3 MUL PUSH2 0x3AA8 DUP2 PUSH2 0x2CFD JUMP JUMPDEST SWAP2 POP DUP3 DUP3 DIV DUP5 EQ DUP4 ISZERO OR PUSH2 0x3ABF JUMPI PUSH2 0x3ABE PUSH2 0x381C JUMP JUMPDEST JUMPDEST POP SWAP3 SWAP2 POP POP JUMP JUMPDEST PUSH32 0x4E487B7100000000000000000000000000000000000000000000000000000000 PUSH1 0x0 MSTORE PUSH1 0x12 PUSH1 0x4 MSTORE PUSH1 0x24 PUSH1 0x0 REVERT JUMPDEST PUSH1 0x0 PUSH2 0x3B00 DUP3 PUSH2 0x2CFD JUMP JUMPDEST SWAP2 POP PUSH2 0x3B0B DUP4 PUSH2 0x2CFD JUMP JUMPDEST SWAP3 POP DUP3 PUSH2 0x3B1B JUMPI PUSH2 0x3B1A PUSH2 0x3AC6 JUMP JUMPDEST JUMPDEST DUP3 DUP3 DIV SWAP1 POP SWAP3 SWAP2 POP POP JUMP JUMPDEST PUSH32 0x496E73756666696369656E74207374616B656420616D6F756E74000000000000 PUSH1 0x0 DUP3 ADD MSTORE POP JUMP JUMPDEST PUSH1 0x0 PUSH2 0x3B5C PUSH1 0x1A DUP4 PUSH2 0x3229 JUMP JUMPDEST SWAP2 POP PUSH2 0x3B67 DUP3 PUSH2 0x3B26 JUMP JUMPDEST PUSH1 0x20 DUP3 ADD SWAP1 POP SWAP2 SWAP1 POP JUMP JUMPDEST PUSH1 0x0 PUSH1 0x20 DUP3 ADD SWAP1 POP DUP2 DUP2 SUB PUSH1 0x0 DUP4 ADD MSTORE PUSH2 0x3B8B DUP2 PUSH2 0x3B4F JUMP JUMPDEST SWAP1 POP SWAP2 SWAP1 POP JUMP JUMPDEST PUSH1 0x0 PUSH1 0x40 DUP3 ADD SWAP1 POP PUSH2 0x3BA7 PUSH1 0x0 DUP4 ADD DUP6 PUSH2 0x2FF8 JUMP JUMPDEST PUSH2 0x3BB4 PUSH1 0x20 DUP4 ADD DUP5 PUSH2 0x2D07 JUMP JUMPDEST SWAP4 SWAP3 POP POP POP JUMP JUMPDEST PUSH32 0x4F6E6C79207365636F6E642061646D696E2063616E20706572666F726D207468 PUSH1 0x0 DUP3 ADD MSTORE PUSH32 0x697320616374696F6E0000000000000000000000000000000000000000000000 PUSH1 0x20 DUP3 ADD MSTORE POP JUMP JUMPDEST PUSH1 0x0 PUSH2 0x3C17 PUSH1 0x29 DUP4 PUSH2 0x3229 JUMP JUMPDEST SWAP2 POP PUSH2 0x3C22 DUP3 PUSH2 0x3BBB JUMP JUMPDEST PUSH1 0x40 DUP3 ADD SWAP1 POP SWAP2 SWAP1 POP JUMP JUMPDEST PUSH1 0x0 PUSH1 0x20 DUP3 ADD SWAP1 POP DUP2 DUP2 SUB PUSH1 0x0 DUP4 ADD MSTORE PUSH2 0x3C46 DUP2 PUSH2 0x3C0A JUMP JUMPDEST SWAP1 POP SWAP2 SWAP1 POP JUMP JUMPDEST PUSH32 0x456C656D656E7420697320616C726561647920696E2074686520507265737469 PUSH1 0x0 DUP3 ADD MSTORE PUSH32 0x6765207068617365000000000000000000000000000000000000000000000000 PUSH1 0x20 DUP3 ADD MSTORE POP JUMP JUMPDEST PUSH1 0x0 PUSH2 0x3CA9 PUSH1 0x28 DUP4 PUSH2 0x3229 JUMP JUMPDEST SWAP2 POP PUSH2 0x3CB4 DUP3 PUSH2 0x3C4D JUMP JUMPDEST PUSH1 0x40 DUP3 ADD SWAP1 POP SWAP2 SWAP1 POP JUMP JUMPDEST PUSH1 0x0 PUSH1 0x20 DUP3 ADD SWAP1 POP DUP2 DUP2 SUB PUSH1 0x0 DUP4 ADD MSTORE PUSH2 0x3CD8 DUP2 PUSH2 0x3C9C JUMP JUMPDEST SWAP1 POP SWAP2 SWAP1 POP JUMP JUMPDEST PUSH1 0x0 PUSH2 0x3CEA DUP3 PUSH2 0x2CFD JUMP JUMPDEST SWAP2 POP PUSH2 0x3CF5 DUP4 PUSH2 0x2CFD JUMP JUMPDEST SWAP3 POP DUP3 DUP3 ADD SWAP1 POP DUP1 DUP3 GT ISZERO PUSH2 0x3D0D JUMPI PUSH2 0x3D0C PUSH2 0x381C JUMP JUMPDEST JUMPDEST SWAP3 SWAP2 POP POP JUMP JUMPDEST PUSH32 0x4E487B7100000000000000000000000000000000000000000000000000000000 PUSH1 0x0 MSTORE PUSH1 0x21 PUSH1 0x4 MSTORE PUSH1 0x24 PUSH1 0x0 REVERT JUMPDEST PUSH32 0x4E6F20766F74696E6720706F7765720000000000000000000000000000000000 PUSH1 0x0 DUP3 ADD MSTORE POP JUMP JUMPDEST PUSH1 0x0 PUSH2 0x3D78 PUSH1 0xF DUP4 PUSH2 0x3229 JUMP JUMPDEST SWAP2 POP PUSH2 0x3D83 DUP3 PUSH2 0x3D42 JUMP JUMPDEST PUSH1 0x20 DUP3 ADD SWAP1 POP SWAP2 SWAP1 POP JUMP JUMPDEST PUSH1 0x0 PUSH1 0x20 DUP3 ADD SWAP1 POP DUP2 DUP2 SUB PUSH1 0x0 DUP4 ADD MSTORE PUSH2 0x3DA7 DUP2 PUSH2 0x3D6B JUMP JUMPDEST SWAP1 POP SWAP2 SWAP1 POP JUMP JUMPDEST PUSH32 0x4D696E696D756D207374616B6520616D6F756E74206973203120746F6B656E00 PUSH1 0x0 DUP3 ADD MSTORE POP JUMP JUMPDEST PUSH1 0x0 PUSH2 0x3DE4 PUSH1 0x1F DUP4 PUSH2 0x3229 JUMP JUMPDEST SWAP2 POP PUSH2 0x3DEF DUP3 PUSH2 0x3DAE JUMP JUMPDEST PUSH1 0x20 DUP3 ADD SWAP1 POP SWAP2 SWAP1 POP JUMP JUMPDEST PUSH1 0x0 PUSH1 0x20 DUP3 ADD SWAP1 POP DUP2 DUP2 SUB PUSH1 0x0 DUP4 ADD MSTORE PUSH2 0x3E13 DUP2 PUSH2 0x3DD7 JUMP JUMPDEST SWAP1 POP SWAP2 SWAP1 POP JUMP JUMPDEST PUSH32 0x4F6E6C792063726561746F722063616E20757064617465000000000000000000 PUSH1 0x0 DUP3 ADD MSTORE POP JUMP JUMPDEST PUSH1 0x0 PUSH2 0x3E50 PUSH1 0x17 DUP4 PUSH2 0x3229 JUMP JUMPDEST SWAP2 POP PUSH2 0x3E5B DUP3 PUSH2 0x3E1A JUMP JUMPDEST PUSH1 0x20 DUP3 ADD SWAP1 POP SWAP2 SWAP1 POP JUMP JUMPDEST PUSH1 0x0 PUSH1 0x20 DUP3 ADD SWAP1 POP DUP2 DUP2 SUB PUSH1 0x0 DUP4 ADD MSTORE PUSH2 0x3E7F DUP2 PUSH2 0x3E43 JUMP JUMPDEST SWAP1 POP SWAP2 SWAP1 POP JUMP JUMPDEST PUSH32 0x4E6F207374616B656420616D6F756E7400000000000000000000000000000000 PUSH1 0x0 DUP3 ADD MSTORE POP JUMP JUMPDEST PUSH1 0x0 PUSH2 0x3EBC PUSH1 0x10 DUP4 PUSH2 0x3229 JUMP JUMPDEST SWAP2 POP PUSH2 0x3EC7 DUP3 PUSH2 0x3E86 JUMP JUMPDEST PUSH1 0x20 DUP3 ADD SWAP1 POP SWAP2 SWAP1 POP JUMP JUMPDEST PUSH1 0x0 PUSH1 0x20 DUP3 ADD SWAP1 POP DUP2 DUP2 SUB PUSH1 0x0 DUP4 ADD MSTORE PUSH2 0x3EEB DUP2 PUSH2 0x3EAF JUMP JUMPDEST SWAP1 POP SWAP2 SWAP1 POP JUMP JUMPDEST PUSH32 0x43616E6E6F7420636C61696D206265666F72652061206D6F6E74680000000000 PUSH1 0x0 DUP3 ADD MSTORE POP JUMP JUMPDEST PUSH1 0x0 PUSH2 0x3F28 PUSH1 0x1B DUP4 PUSH2 0x3229 JUMP JUMPDEST SWAP2 POP PUSH2 0x3F33 DUP3 PUSH2 0x3EF2 JUMP JUMPDEST PUSH1 0x20 DUP3 ADD SWAP1 POP SWAP2 SWAP1 POP JUMP JUMPDEST PUSH1 0x0 PUSH1 0x20 DUP3 ADD SWAP1 POP DUP2 DUP2 SUB PUSH1 0x0 DUP4 ADD MSTORE PUSH2 0x3F57 DUP2 PUSH2 0x3F1B JUMP JUMPDEST SWAP1 POP SWAP2 SWAP1 POP JUMP JUMPDEST PUSH32 0x456C656D656E7420726577617264207472616E73666572206661696C65640000 PUSH1 0x0 DUP3 ADD MSTORE POP JUMP JUMPDEST PUSH1 0x0 PUSH2 0x3F94 PUSH1 0x1E DUP4 PUSH2 0x3229 JUMP JUMPDEST SWAP2 POP PUSH2 0x3F9F DUP3 PUSH2 0x3F5E JUMP JUMPDEST PUSH1 0x20 DUP3 ADD SWAP1 POP SWAP2 SWAP1 POP JUMP JUMPDEST PUSH1 0x0 PUSH1 0x20 DUP3 ADD SWAP1 POP DUP2 DUP2 SUB PUSH1 0x0 DUP4 ADD MSTORE PUSH2 0x3FC3 DUP2 PUSH2 0x3F87 JUMP JUMPDEST SWAP1 POP SWAP2 SWAP1 POP JUMP INVALID LOG2 PUSH5 0x6970667358 0x22 SLT KECCAK256 SWAP12 EXTCODEHASH PUSH16 0x78D38FB4F8C51B504CC55803D6CB4E48 0xEE PUSH7 0x27225AEF463162 SWAP15 REVERT PUSH18 0xD64736F6C63430008120033000000000000 "
		},
		"gasEstimates": {
			"creation": {
				"codeDepositCost": "3276800",
				"executionCost": "infinite",
				"totalCost": "infinite"
			},
			"external": {
				"ELEMENT_CREATION_COST()": "396",
				"MINIMUM_STAKE_AMOUNT()": "374",
				"SECONDS_IN_MONTH()": "infinite",
				"SECONDS_IN_YEAR()": "396",
				"admin()": "2624",
				"approveElement(uint256)": "infinite",
				"calculateMonthlyReward(uint256,uint256)": "infinite",
				"claimMonthlyReward()": "infinite",
				"confirmUpdate(uint256)": "infinite",
				"createElement(string,string,string,string,string)": "infinite",
				"elementCount()": "2475",
				"elements(uint256)": "infinite",
				"functionStatus(string)": "infinite",
				"getAnnualRewardRate(uint256)": "infinite",
				"getClaimableReward(address)": "infinite",
				"getLastClaimedDate(address)": "2885",
				"hasPendingApplication(address)": "infinite",
				"lastClaimed(address)": "2861",
				"lopToken()": "infinite",
				"refuseUpdate(uint256)": "infinite",
				"rejectElement(uint256)": "infinite",
				"removeElement(uint256)": "infinite",
				"secondAdmin()": "2582",
				"stakeTokens(uint256)": "infinite",
				"stakes(address)": "2927",
				"startingDate(address)": "2860",
				"toggleFunctionStatus(string,bool)": "infinite",
				"updateElementMetrics(uint256,string)": "infinite",
				"updateElementTutorial(uint256,string)": "infinite",
				"updateElementWebsite(uint256,string)": "infinite",
				"voteOnElement(uint256,uint256)": "infinite",
				"votingPower(address)": "2859",
				"withdrawStake(uint256)": "infinite"
			},
			"internal": {
				"distributeElementReward(uint256)": "infinite",
				"getTotalVotes()": "infinite"
			}
		},
		"methodIdentifiers": {
			"ELEMENT_CREATION_COST()": "c5e48e5a",
			"MINIMUM_STAKE_AMOUNT()": "84d804be",
			"SECONDS_IN_MONTH()": "27855b13",
			"SECONDS_IN_YEAR()": "5dcc9391",
			"admin()": "f851a440",
			"approveElement(uint256)": "c9b3829f",
			"calculateMonthlyReward(uint256,uint256)": "20cb13ab",
			"claimMonthlyReward()": "d4f1e386",
			"confirmUpdate(uint256)": "3b72bad5",
			"createElement(string,string,string,string,string)": "0a274280",
			"elementCount()": "67be4673",
			"elements(uint256)": "e0d64b37",
			"functionStatus(string)": "613dab3e",
			"getAnnualRewardRate(uint256)": "f9089bf2",
			"getClaimableReward(address)": "5ff329af",
			"getLastClaimedDate(address)": "cc78d728",
			"hasPendingApplication(address)": "6b8d04fb",
			"lastClaimed(address)": "013eba92",
			"lopToken()": "0d67f59e",
			"refuseUpdate(uint256)": "36ead39f",
			"rejectElement(uint256)": "1faa1128",
			"removeElement(uint256)": "9fc37abf",
			"secondAdmin()": "1d32e9b3",
			"stakeTokens(uint256)": "7547c7a3",
			"stakes(address)": "16934fc4",
			"startingDate(address)": "1d002cc0",
			"toggleFunctionStatus(string,bool)": "2a9aaa76",
			"updateElementMetrics(uint256,string)": "c7b3564e",
			"updateElementTutorial(uint256,string)": "a721ebdd",
			"updateElementWebsite(uint256,string)": "b17146c8",
			"voteOnElement(uint256,uint256)": "72bae674",
			"votingPower(address)": "c07473f6",
			"withdrawStake(uint256)": "25d5971f"
		}
	},
	"abi": [
		{
			"inputs": [
				{
					"internalType": "address",
					"name": "_lopToken",
					"type": "address"
				},
				{
					"internalType": "address",
					"name": "_secondAdmin",
					"type": "address"
				}
			],
			"stateMutability": "nonpayable",
			"type": "constructor"
		},
		{
			"inputs": [],
			"name": "ELEMENT_CREATION_COST",
			"outputs": [
				{
					"internalType": "uint256",
					"name": "",
					"type": "uint256"
				}
			],
			"stateMutability": "view",
			"type": "function"
		},
		{
			"inputs": [],
			"name": "MINIMUM_STAKE_AMOUNT",
			"outputs": [
				{
					"internalType": "uint256",
					"name": "",
					"type": "uint256"
				}
			],
			"stateMutability": "view",
			"type": "function"
		},
		{
			"inputs": [],
			"name": "SECONDS_IN_MONTH",
			"outputs": [
				{
					"internalType": "uint256",
					"name": "",
					"type": "uint256"
				}
			],
			"stateMutability": "view",
			"type": "function"
		},
		{
			"inputs": [],
			"name": "SECONDS_IN_YEAR",
			"outputs": [
				{
					"internalType": "uint256",
					"name": "",
					"type": "uint256"
				}
			],
			"stateMutability": "view",
			"type": "function"
		},
		{
			"inputs": [],
			"name": "admin",
			"outputs": [
				{
					"internalType": "address",
					"name": "",
					"type": "address"
				}
			],
			"stateMutability": "view",
			"type": "function"
		},
		{
			"inputs": [
				{
					"internalType": "uint256",
					"name": "elementId",
					"type": "uint256"
				}
			],
			"name": "approveElement",
			"outputs": [],
			"stateMutability": "nonpayable",
			"type": "function"
		},
		{
			"inputs": [
				{
					"internalType": "uint256",
					"name": "stakeAmount",
					"type": "uint256"
				},
				{
					"internalType": "uint256",
					"name": "startTime",
					"type": "uint256"
				}
			],
			"name": "calculateMonthlyReward",
			"outputs": [
				{
					"internalType": "uint256",
					"name": "",
					"type": "uint256"
				}
			],
			"stateMutability": "view",
			"type": "function"
		},
		{
			"inputs": [],
			"name": "claimMonthlyReward",
			"outputs": [],
			"stateMutability": "nonpayable",
			"type": "function"
		},
		{
			"inputs": [
				{
					"internalType": "uint256",
					"name": "elementId",
					"type": "uint256"
				}
			],
			"name": "confirmUpdate",
			"outputs": [],
			"stateMutability": "nonpayable",
			"type": "function"
		},
		{
			"inputs": [
				{
					"internalType": "string",
					"name": "name",
					"type": "string"
				},
				{
					"internalType": "string",
					"name": "description",
					"type": "string"
				},
				{
					"internalType": "string",
					"name": "whitepaperLink",
					"type": "string"
				},
				{
					"internalType": "string",
					"name": "email",
					"type": "string"
				},
				{
					"internalType": "string",
					"name": "logoUrl",
					"type": "string"
				}
			],
			"name": "createElement",
			"outputs": [],
			"stateMutability": "nonpayable",
			"type": "function"
		},
		{
			"inputs": [],
			"name": "elementCount",
			"outputs": [
				{
					"internalType": "uint256",
					"name": "",
					"type": "uint256"
				}
			],
			"stateMutability": "view",
			"type": "function"
		},
		{
			"inputs": [
				{
					"internalType": "uint256",
					"name": "",
					"type": "uint256"
				}
			],
			"name": "elements",
			"outputs": [
				{
					"internalType": "string",
					"name": "name",
					"type": "string"
				},
				{
					"internalType": "string",
					"name": "description",
					"type": "string"
				},
				{
					"internalType": "string",
					"name": "whitepaperLink",
					"type": "string"
				},
				{
					"internalType": "string",
					"name": "websiteLink",
					"type": "string"
				},
				{
					"internalType": "string",
					"name": "tutorialLink",
					"type": "string"
				},
				{
					"internalType": "string",
					"name": "performanceMetricsLink",
					"type": "string"
				},
				{
					"internalType": "string",
					"name": "email",
					"type": "string"
				},
				{
					"internalType": "string",
					"name": "logoUrl",
					"type": "string"
				},
				{
					"internalType": "address",
					"name": "creator",
					"type": "address"
				},
				{
					"internalType": "uint256",
					"name": "phase",
					"type": "uint256"
				},
				{
					"internalType": "uint256",
					"name": "lastUpdate",
					"type": "uint256"
				},
				{
					"internalType": "uint256",
					"name": "voteCount",
					"type": "uint256"
				}
			],
			"stateMutability": "view",
			"type": "function"
		},
		{
			"inputs": [
				{
					"internalType": "string",
					"name": "",
					"type": "string"
				}
			],
			"name": "functionStatus",
			"outputs": [
				{
					"internalType": "bool",
					"name": "",
					"type": "bool"
				}
			],
			"stateMutability": "view",
			"type": "function"
		},
		{
			"inputs": [
				{
					"internalType": "uint256",
					"name": "timeElapsed",
					"type": "uint256"
				}
			],
			"name": "getAnnualRewardRate",
			"outputs": [
				{
					"internalType": "uint256",
					"name": "",
					"type": "uint256"
				}
			],
			"stateMutability": "pure",
			"type": "function"
		},
		{
			"inputs": [
				{
					"internalType": "address",
					"name": "user",
					"type": "address"
				}
			],
			"name": "getClaimableReward",
			"outputs": [
				{
					"internalType": "uint256",
					"name": "",
					"type": "uint256"
				}
			],
			"stateMutability": "view",
			"type": "function"
		},
		{
			"inputs": [
				{
					"internalType": "address",
					"name": "user",
					"type": "address"
				}
			],
			"name": "getLastClaimedDate",
			"outputs": [
				{
					"internalType": "uint256",
					"name": "",
					"type": "uint256"
				}
			],
			"stateMutability": "view",
			"type": "function"
		},
		{
			"inputs": [
				{
					"internalType": "address",
					"name": "creator",
					"type": "address"
				}
			],
			"name": "hasPendingApplication",
			"outputs": [
				{
					"internalType": "bool",
					"name": "",
					"type": "bool"
				}
			],
			"stateMutability": "view",
			"type": "function"
		},
		{
			"inputs": [
				{
					"internalType": "address",
					"name": "",
					"type": "address"
				}
			],
			"name": "lastClaimed",
			"outputs": [
				{
					"internalType": "uint256",
					"name": "",
					"type": "uint256"
				}
			],
			"stateMutability": "view",
			"type": "function"
		},
		{
			"inputs": [],
			"name": "lopToken",
			"outputs": [
				{
					"internalType": "contract IERC20",
					"name": "",
					"type": "address"
				}
			],
			"stateMutability": "view",
			"type": "function"
		},
		{
			"inputs": [
				{
					"internalType": "uint256",
					"name": "elementId",
					"type": "uint256"
				}
			],
			"name": "refuseUpdate",
			"outputs": [],
			"stateMutability": "nonpayable",
			"type": "function"
		},
		{
			"inputs": [
				{
					"internalType": "uint256",
					"name": "elementId",
					"type": "uint256"
				}
			],
			"name": "rejectElement",
			"outputs": [],
			"stateMutability": "nonpayable",
			"type": "function"
		},
		{
			"inputs": [
				{
					"internalType": "uint256",
					"name": "elementId",
					"type": "uint256"
				}
			],
			"name": "removeElement",
			"outputs": [],
			"stateMutability": "nonpayable",
			"type": "function"
		},
		{
			"inputs": [],
			"name": "secondAdmin",
			"outputs": [
				{
					"internalType": "address",
					"name": "",
					"type": "address"
				}
			],
			"stateMutability": "view",
			"type": "function"
		},
		{
			"inputs": [
				{
					"internalType": "uint256",
					"name": "amount",
					"type": "uint256"
				}
			],
			"name": "stakeTokens",
			"outputs": [],
			"stateMutability": "nonpayable",
			"type": "function"
		},
		{
			"inputs": [
				{
					"internalType": "address",
					"name": "",
					"type": "address"
				}
			],
			"name": "stakes",
			"outputs": [
				{
					"internalType": "uint256",
					"name": "",
					"type": "uint256"
				}
			],
			"stateMutability": "view",
			"type": "function"
		},
		{
			"inputs": [
				{
					"internalType": "address",
					"name": "",
					"type": "address"
				}
			],
			"name": "startingDate",
			"outputs": [
				{
					"internalType": "uint256",
					"name": "",
					"type": "uint256"
				}
			],
			"stateMutability": "view",
			"type": "function"
		},
		{
			"inputs": [
				{
					"internalType": "string",
					"name": "functionName",
					"type": "string"
				},
				{
					"internalType": "bool",
					"name": "status",
					"type": "bool"
				}
			],
			"name": "toggleFunctionStatus",
			"outputs": [],
			"stateMutability": "nonpayable",
			"type": "function"
		},
		{
			"inputs": [
				{
					"internalType": "uint256",
					"name": "elementId",
					"type": "uint256"
				},
				{
					"internalType": "string",
					"name": "performanceMetricsLink",
					"type": "string"
				}
			],
			"name": "updateElementMetrics",
			"outputs": [],
			"stateMutability": "nonpayable",
			"type": "function"
		},
		{
			"inputs": [
				{
					"internalType": "uint256",
					"name": "elementId",
					"type": "uint256"
				},
				{
					"internalType": "string",
					"name": "tutorialLink",
					"type": "string"
				}
			],
			"name": "updateElementTutorial",
			"outputs": [],
			"stateMutability": "nonpayable",
			"type": "function"
		},
		{
			"inputs": [
				{
					"internalType": "uint256",
					"name": "elementId",
					"type": "uint256"
				},
				{
					"internalType": "string",
					"name": "websiteLink",
					"type": "string"
				}
			],
			"name": "updateElementWebsite",
			"outputs": [],
			"stateMutability": "nonpayable",
			"type": "function"
		},
		{
			"inputs": [
				{
					"internalType": "uint256",
					"name": "elementId",
					"type": "uint256"
				},
				{
					"internalType": "uint256",
					"name": "amount",
					"type": "uint256"
				}
			],
			"name": "voteOnElement",
			"outputs": [],
			"stateMutability": "nonpayable",
			"type": "function"
		},
		{
			"inputs": [
				{
					"internalType": "address",
					"name": "",
					"type": "address"
				}
			],
			"name": "votingPower",
			"outputs": [
				{
					"internalType": "uint256",
					"name": "",
					"type": "uint256"
				}
			],
			"stateMutability": "view",
			"type": "function"
		},
		{
			"inputs": [
				{
					"internalType": "uint256",
					"name": "amount",
					"type": "uint256"
				}
			],
			"name": "withdrawStake",
			"outputs": [],
			"stateMutability": "nonpayable",
			"type": "function"
		}
	]
}