{
	"data": {
		"bytecode": {
			"linkReferences": {},
			"object": "608060405234801562000010575f80fd5b50604051620054ba380380620054ba833981810160405281019062000036919062000339565b60015f8190555033600860016101000a81548173ffffffffffffffffffffffffffffffffffffffff021916908373ffffffffffffffffffffffffffffffffffffffff16021790555082600b5f6101000a81548173ffffffffffffffffffffffffffffffffffffffff021916908373ffffffffffffffffffffffffffffffffffffffff1602179055508160095f6101000a81548173ffffffffffffffffffffffffffffffffffffffff021916908373ffffffffffffffffffffffffffffffffffffffff16021790555080600a5f6101000a81548173ffffffffffffffffffffffffffffffffffffffff021916908373ffffffffffffffffffffffffffffffffffffffff1602179055505f600c6040516200014f90620003ea565b90815260200160405180910390205f6101000a81548160ff0219169083151502179055505f600c60405162000184906200044e565b90815260200160405180910390205f6101000a81548160ff0219169083151502179055505f600c604051620001b990620004b2565b90815260200160405180910390205f6101000a81548160ff0219169083151502179055505f600c604051620001ee9062000516565b90815260200160405180910390205f6101000a81548160ff0219169083151502179055505f600c60405162000223906200057a565b90815260200160405180910390205f6101000a81548160ff0219169083151502179055505f600c6040516200025890620005de565b90815260200160405180910390205f6101000a81548160ff0219169083151502179055505f600c6040516200028d9062000642565b90815260200160405180910390205f6101000a81548160ff021916908315150217905550600160085f6101000a81548160ff02191690831515021790555050505062000658565b5f80fd5b5f73ffffffffffffffffffffffffffffffffffffffff82169050919050565b5f6200030382620002d8565b9050919050565b6200031581620002f7565b811462000320575f80fd5b50565b5f8151905062000333816200030a565b92915050565b5f805f60608486031215620003535762000352620002d4565b5b5f620003628682870162000323565b9350506020620003758682870162000323565b9250506040620003888682870162000323565b9150509250925092565b5f81905092915050565b7f617070726f7665456c656d656e740000000000000000000000000000000000005f82015250565b5f620003d2600e8362000392565b9150620003df826200039c565b600e82019050919050565b5f620003f682620003c4565b9150819050919050565b7f72656a656374456c656d656e74000000000000000000000000000000000000005f82015250565b5f62000436600d8362000392565b9150620004438262000400565b600d82019050919050565b5f6200045a8262000428565b9150819050919050565b7f72656d6f7665456c656d656e74000000000000000000000000000000000000005f82015250565b5f6200049a600d8362000392565b9150620004a78262000464565b600d82019050919050565b5f620004be826200048c565b9150819050919050565b7f636f6e6669726d557064617465000000000000000000000000000000000000005f82015250565b5f620004fe600d8362000392565b91506200050b82620004c8565b600d82019050919050565b5f6200052282620004f0565b9150819050919050565b7f72656675736555706461746500000000000000000000000000000000000000005f82015250565b5f62000562600c8362000392565b91506200056f826200052c565b600c82019050919050565b5f620005868262000554565b9150819050919050565b7f6368616e676541646d696e0000000000000000000000000000000000000000005f82015250565b5f620005c6600b8362000392565b9150620005d38262000590565b600b82019050919050565b5f620005ea82620005b8565b9150819050919050565b7f6368616e67655365636f6e6441646d696e0000000000000000000000000000005f82015250565b5f6200062a60118362000392565b91506200063782620005f4565b601182019050919050565b5f6200064e826200061c565b9150819050919050565b614e5480620006665f395ff3fe608060405234801561000f575f80fd5b506004361061025b575f3560e01c80636b8d04fb11610144578063c07473f6116100c1578063d4f1e38611610085578063d4f1e38614610707578063d69eca4c14610711578063dd8087d11461072f578063e0d64b371461074b578063f851a44014610786578063f9089bf2146107a45761025b565b8063c07473f614610651578063c5e48e5a14610681578063c7b3564e1461069f578063c9b3829f146106bb578063cc78d728146106d75761025b565b80638f283970116101085780638f283970146105d75780638fddd022146105f35780639fc37abf146105fd578063a721ebdd14610619578063b17146c8146106355761025b565b80636b8d04fb1461053357806372bae674146105635780637547c7a31461057f57806384d804be1461059b5780638b52e06c146105b95761025b565b806325d5971f116101dd5780633b72bad5116101a15780633b72bad51461045d57806351d18598146104795780635dcc9391146104975780635ff329af146104b5578063613dab3e146104e557806367be4673146105155761025b565b806325d5971f146103cd57806327855b13146103e95780632a9aaa761461040757806336ead39f146104235780633ae732591461043f5761025b565b806317504b981161022457806317504b98146103175780631d002cc0146103335780631d32e9b3146103635780631faa11281461038157806320cb13ab1461039d5761025b565b806253b4b31461025f578063013eba921461027d5780630a274280146102ad5780630d67f59e146102c957806316934fc4146102e7575b5f80fd5b6102676107d4565b6040516102749190613753565b60405180910390f35b610297600480360381019061029291906137d7565b6107e6565b6040516102a4919061381a565b60405180910390f35b6102c760048036038101906102c2919061396f565b6107fb565b005b6102d1610b56565b6040516102de9190613acd565b60405180910390f35b61030160048036038101906102fc91906137d7565b610b7b565b60405161030e919061381a565b60405180910390f35b610331600480360381019061032c9190613b10565b610b90565b005b61034d600480360381019061034891906137d7565b610cde565b60405161035a919061381a565b60405180910390f35b61036b610cf3565b6040516103789190613b79565b60405180910390f35b61039b60048036038101906103969190613bbc565b610d18565b005b6103b760048036038101906103b29190613be7565b610ef2565b6040516103c4919061381a565b60405180910390f35b6103e760048036038101906103e29190613bbc565b610f41565b005b6103f1611113565b6040516103fe919061381a565b60405180910390f35b610421600480360381019061041c9190613b10565b611125565b005b61043d60048036038101906104389190613bbc565b611272565b005b6104476114ee565b604051610454919061381a565b60405180910390f35b61047760048036038101906104729190613bbc565b6114f4565b005b61048161175a565b60405161048e919061381a565b60405180910390f35b61049f611763565b6040516104ac919061381a565b60405180910390f35b6104cf60048036038101906104ca91906137d7565b611769565b6040516104dc919061381a565b60405180910390f35b6104ff60048036038101906104fa9190613c25565b611945565b60405161050c9190613753565b60405180910390f35b61051d61197a565b60405161052a919061381a565b60405180910390f35b61054d600480360381019061054891906137d7565b611980565b60405161055a9190613753565b60405180910390f35b61057d60048036038101906105789190613be7565b611a4f565b005b61059960048036038101906105949190613bbc565b611ba2565b005b6105a3611dcb565b6040516105b0919061381a565b60405180910390f35b6105c1611dd2565b6040516105ce9190613b79565b60405180910390f35b6105f160048036038101906105ec91906137d7565b611df7565b005b6105fb611fd9565b005b61061760048036038101906106129190613bbc565b6120b8565b005b610633600480360381019061062e9190613c6c565b61223c565b005b61064f600480360381019061064a9190613c6c565b61231c565b005b61066b600480360381019061066691906137d7565b6123fc565b604051610678919061381a565b60405180910390f35b610689612411565b604051610696919061381a565b60405180910390f35b6106b960048036038101906106b49190613c6c565b61241a565b005b6106d560048036038101906106d09190613bbc565b6124fa565b005b6106f160048036038101906106ec91906137d7565b6126d5565b6040516106fe919061381a565b60405180910390f35b61070f61271b565b005b610719612a79565b604051610726919061381a565b60405180910390f35b610749600480360381019061074491906137d7565b612b18565b005b61076560048036038101906107609190613bbc565b612cf9565b60405161077d9c9b9a99989796959493929190613d40565b60405180910390f35b61078e6131a4565b60405161079b9190613b79565b60405180910390f35b6107be60048036038101906107b99190613bbc565b6131ca565b6040516107cb919061381a565b60405180910390f35b60085f9054906101000a900460ff1681565b6003602052805f5260405f205f915090505481565b61080361320b565b6402540be400600b5f9054906101000a900473ffffffffffffffffffffffffffffffffffffffff1673ffffffffffffffffffffffffffffffffffffffff166370a08231336040518263ffffffff1660e01b81526004016108639190613b79565b602060405180830381865afa15801561087e573d5f803e3d5ffd5b505050506040513d601f19601f820116820180604052508101906108a29190613e44565b10156108e3576040517f08c379a00000000000000000000000000000000000000000000000000000000081526004016108da90613edf565b60405180910390fd5b61093633306402540be400600b5f9054906101000a900473ffffffffffffffffffffffffffffffffffffffff1673ffffffffffffffffffffffffffffffffffffffff16613258909392919063ffffffff16565b60405180610180016040528086815260200185815260200184815260200160405180602001604052805f815250815260200160405180602001604052805f815250815260200160405180602001604052805f81525081526020018381526020018281526020013373ffffffffffffffffffffffffffffffffffffffff1681526020015f8152602001428152602001600181525060055f60065481526020019081526020015f205f820151815f0190816109ef91906140ee565b506020820151816001019081610a0591906140ee565b506040820151816002019081610a1b91906140ee565b506060820151816003019081610a3191906140ee565b506080820151816004019081610a4791906140ee565b5060a0820151816005019081610a5d91906140ee565b5060c0820151816006019081610a7391906140ee565b5060e0820151816007019081610a8991906140ee565b50610100820151816008015f6101000a81548173ffffffffffffffffffffffffffffffffffffffff021916908373ffffffffffffffffffffffffffffffffffffffff160217905550610120820151816009015561014082015181600a015561016082015181600b01559050507ff0d06e2e518a804c9a10fa68cab030edcf83b96217600c6415d780008923fef660065433604051610b289291906141bd565b60405180910390a160065f815480929190610b4290614211565b9190505550610b4f6132da565b5050505050565b600b5f9054906101000a900473ffffffffffffffffffffffffffffffffffffffff1681565b6001602052805f5260405f205f915090505481565b600860019054906101000a900473ffffffffffffffffffffffffffffffffffffffff1673ffffffffffffffffffffffffffffffffffffffff163373ffffffffffffffffffffffffffffffffffffffff1614610c20576040517f08c379a0000000000000000000000000000000000000000000000000000000008152600401610c17906142c8565b60405180910390fd5b6040518060400160405280601181526020017f6368616e67655365636f6e6441646d696e00000000000000000000000000000081525080519060200120828051906020012014610ca5576040517f08c379a0000000000000000000000000000000000000000000000000000000008152600401610c9c90614356565b60405180910390fd5b80600c83604051610cb691906143ae565b90815260200160405180910390205f6101000a81548160ff0219169083151502179055505050565b6004602052805f5260405f205f915090505481565b60095f9054906101000a900473ffffffffffffffffffffffffffffffffffffffff1681565b600860019054906101000a900473ffffffffffffffffffffffffffffffffffffffff1673ffffffffffffffffffffffffffffffffffffffff163373ffffffffffffffffffffffffffffffffffffffff1614610da8576040517f08c379a0000000000000000000000000000000000000000000000000000000008152600401610d9f906142c8565b60405180910390fd5b6040518060400160405280600d81526020017f72656a656374456c656d656e7400000000000000000000000000000000000000815250600c81604051610dee91906143ae565b90815260200160405180910390205f9054906101000a900460ff16610e48576040517f08c379a0000000000000000000000000000000000000000000000000000000008152600401610e3f9061440e565b60405180910390fd5b5f60055f8481526020019081526020015f206009015414610e9e576040517f08c379a0000000000000000000000000000000000000000000000000000000008152600401610e9590614476565b60405180910390fd5b6005805f8481526020019081526020015f20600901819055507f7421121a093bc9eb406a03cd9273c7efbf9d3d438d9904850f9048abf95bb7f482604051610ee6919061381a565b60405180910390a15050565b5f808242610f009190614494565b90505f610f0c826131ca565b90505f600c60648388610f1f91906144c7565b610f299190614535565b610f339190614535565b905080935050505092915050565b610f4961320b565b620f4240811015610f8f576040517f08c379a0000000000000000000000000000000000000000000000000000000008152600401610f86906145d5565b60405180910390fd5b8060015f3373ffffffffffffffffffffffffffffffffffffffff1673ffffffffffffffffffffffffffffffffffffffff1681526020019081526020015f2054101561100f576040517f08c379a00000000000000000000000000000000000000000000000000000000081526004016110069061463d565b60405180910390fd5b8060015f3373ffffffffffffffffffffffffffffffffffffffff1673ffffffffffffffffffffffffffffffffffffffff1681526020019081526020015f205f82825461105b9190614494565b925050819055508060075f8282546110739190614494565b925050819055504260035f3373ffffffffffffffffffffffffffffffffffffffff1673ffffffffffffffffffffffffffffffffffffffff1681526020019081526020015f20819055506111083382600b5f9054906101000a900473ffffffffffffffffffffffffffffffffffffffff1673ffffffffffffffffffffffffffffffffffffffff166132e39092919063ffffffff16565b6111106132da565b50565b600c610e106111229190614535565b81565b60095f9054906101000a900473ffffffffffffffffffffffffffffffffffffffff1673ffffffffffffffffffffffffffffffffffffffff163373ffffffffffffffffffffffffffffffffffffffff16146111b4576040517f08c379a00000000000000000000000000000000000000000000000000000000081526004016111ab906146cb565b60405180910390fd5b6040518060400160405280601181526020017f6368616e67655365636f6e6441646d696e00000000000000000000000000000081525080519060200120828051906020012003611239576040517f08c379a000000000000000000000000000000000000000000000000000000000815260040161123090614759565b60405180910390fd5b80600c8360405161124a91906143ae565b90815260200160405180910390205f6101000a81548160ff0219169083151502179055505050565b600860019054906101000a900473ffffffffffffffffffffffffffffffffffffffff1673ffffffffffffffffffffffffffffffffffffffff163373ffffffffffffffffffffffffffffffffffffffff1614611302576040517f08c379a00000000000000000000000000000000000000000000000000000000081526004016112f9906142c8565b60405180910390fd5b6040518060400160405280600c81526020017f7265667573655570646174650000000000000000000000000000000000000000815250600c8160405161134891906143ae565b90815260200160405180910390205f9054906101000a900460ff166113a2576040517f08c379a00000000000000000000000000000000000000000000000000000000081526004016113999061440e565b60405180910390fd5b600460055f8481526020019081526020015f2060090154036113f9576040517f08c379a00000000000000000000000000000000000000000000000000000000081526004016113f0906147e7565b60405180910390fd5b600160055f8481526020019081526020015f20600901540361144a5760405180602001604052805f81525060055f8481526020019081526020015f20600301908161144491906140ee565b506114ea565b600260055f8481526020019081526020015f20600901540361149b5760405180602001604052805f81525060055f8481526020019081526020015f20600401908161149591906140ee565b506114e9565b600360055f8481526020019081526020015f2060090154036114e85760405180602001604052805f81525060055f8481526020019081526020015f2060050190816114e691906140ee565b505b5b5b5050565b60075481565b600860019054906101000a900473ffffffffffffffffffffffffffffffffffffffff1673ffffffffffffffffffffffffffffffffffffffff163373ffffffffffffffffffffffffffffffffffffffff1614611584576040517f08c379a000000000000000000000000000000000000000000000000000000000815260040161157b906142c8565b60405180910390fd5b6040518060400160405280600d81526020017f636f6e6669726d55706461746500000000000000000000000000000000000000815250600c816040516115ca91906143ae565b90815260200160405180910390205f9054906101000a900460ff16611624576040517f08c379a000000000000000000000000000000000000000000000000000000000815260040161161b9061440e565b60405180910390fd5b600460055f8481526020019081526020015f20600901540361167b576040517f08c379a0000000000000000000000000000000000000000000000000000000008152600401611672906147e7565b60405180910390fd5b600160055f8481526020019081526020015f2060090154036116b657600260055f8481526020019081526020015f206009018190555061172a565b600260055f8481526020019081526020015f2060090154036116f157600360055f8481526020019081526020015f2060090181905550611729565b600360055f8481526020019081526020015f20600901540361172857600460055f8481526020019081526020015f20600901819055505b5b5b6103e860055f8481526020019081526020015f20600b015f82825461174f9190614805565b925050819055505050565b5f600754905090565b610e1081565b5f8060015f8473ffffffffffffffffffffffffffffffffffffffff1673ffffffffffffffffffffffffffffffffffffffff1681526020019081526020015f2054036117b6575f9050611940565b5f60035f8473ffffffffffffffffffffffffffffffffffffffff1673ffffffffffffffffffffffffffffffffffffffff1681526020019081526020015f2054426118009190614494565b9050600c610e106118119190614535565b811015611821575f915050611940565b5f80600c610e106118329190614535565b8361183d9190614535565b90505f5b8181101561191b575f600c610e106118599190614535565b8261186491906144c7565b60035f8973ffffffffffffffffffffffffffffffffffffffff1673ffffffffffffffffffffffffffffffffffffffff1681526020019081526020015f20546118ac9190614805565b90505f6118f660015f8a73ffffffffffffffffffffffffffffffffffffffff1673ffffffffffffffffffffffffffffffffffffffff1681526020019081526020015f205483610ef2565b905080856119049190614805565b94505050808061191390614211565b915050611841565b505f6064603c8461192c91906144c7565b6119369190614535565b9050809450505050505b919050565b600c818051602081018201805184825260208301602085012081835280955050505050505f915054906101000a900460ff1681565b60065481565b5f805f90505b600654811015611a45578273ffffffffffffffffffffffffffffffffffffffff1660055f8381526020019081526020015f206008015f9054906101000a900473ffffffffffffffffffffffffffffffffffffffff1673ffffffffffffffffffffffffffffffffffffffff16148015611a2357505f6005811115611a0c57611a0b614838565b5b60055f8381526020019081526020015f2060090154145b15611a32576001915050611a4a565b8080611a3d90614211565b915050611986565b505f90505b919050565b611a5761320b565b5f8111611a99576040517f08c379a0000000000000000000000000000000000000000000000000000000008152600401611a90906148af565b60405180910390fd5b8060025f3373ffffffffffffffffffffffffffffffffffffffff1673ffffffffffffffffffffffffffffffffffffffff1681526020019081526020015f20541015611b19576040517f08c379a0000000000000000000000000000000000000000000000000000000008152600401611b1090614917565b60405180910390fd5b8060025f3373ffffffffffffffffffffffffffffffffffffffff1673ffffffffffffffffffffffffffffffffffffffff1681526020019081526020015f205f828254611b659190614494565b925050819055508060055f8481526020019081526020015f20600b015f828254611b8f9190614805565b92505081905550611b9e6132da565b5050565b611baa61320b565b60085f9054906101000a900460ff16611bf8576040517f08c379a0000000000000000000000000000000000000000000000000000000008152600401611bef9061497f565b60405180910390fd5b620f4240811015611c3e576040517f08c379a0000000000000000000000000000000000000000000000000000000008152600401611c35906149e7565b60405180910390fd5b611c8c333083600b5f9054906101000a900473ffffffffffffffffffffffffffffffffffffffff1673ffffffffffffffffffffffffffffffffffffffff16613258909392919063ffffffff16565b8060015f3373ffffffffffffffffffffffffffffffffffffffff1673ffffffffffffffffffffffffffffffffffffffff1681526020019081526020015f205f828254611cd89190614805565b925050819055508060075f828254611cf09190614805565b925050819055505f60035f3373ffffffffffffffffffffffffffffffffffffffff1673ffffffffffffffffffffffffffffffffffffffff1681526020019081526020015f205403611d7e574260045f3373ffffffffffffffffffffffffffffffffffffffff1673ffffffffffffffffffffffffffffffffffffffff1681526020019081526020015f20819055505b4260035f3373ffffffffffffffffffffffffffffffffffffffff1673ffffffffffffffffffffffffffffffffffffffff1681526020019081526020015f2081905550611dc86132da565b50565b620f424081565b600a5f9054906101000a900473ffffffffffffffffffffffffffffffffffffffff1681565b600a5f9054906101000a900473ffffffffffffffffffffffffffffffffffffffff1673ffffffffffffffffffffffffffffffffffffffff163373ffffffffffffffffffffffffffffffffffffffff1614611e86576040517f08c379a0000000000000000000000000000000000000000000000000000000008152600401611e7d90614a75565b60405180910390fd5b6040518060400160405280600b81526020017f6368616e676541646d696e000000000000000000000000000000000000000000815250600c81604051611ecc91906143ae565b90815260200160405180910390205f9054906101000a900460ff16611f26576040517f08c379a0000000000000000000000000000000000000000000000000000000008152600401611f1d9061440e565b60405180910390fd5b5f73ffffffffffffffffffffffffffffffffffffffff168273ffffffffffffffffffffffffffffffffffffffff1603611f94576040517f08c379a0000000000000000000000000000000000000000000000000000000008152600401611f8b90614add565b60405180910390fd5b81600860016101000a81548173ffffffffffffffffffffffffffffffffffffffff021916908373ffffffffffffffffffffffffffffffffffffffff1602179055505050565b600860019054906101000a900473ffffffffffffffffffffffffffffffffffffffff1673ffffffffffffffffffffffffffffffffffffffff163373ffffffffffffffffffffffffffffffffffffffff1614612069576040517f08c379a0000000000000000000000000000000000000000000000000000000008152600401612060906142c8565b60405180910390fd5b60085f9054906101000a900460ff161561209b575f60085f6101000a81548160ff0219169083151502179055506120b6565b600160085f6101000a81548160ff0219169083151502179055505b565b600860019054906101000a900473ffffffffffffffffffffffffffffffffffffffff1673ffffffffffffffffffffffffffffffffffffffff163373ffffffffffffffffffffffffffffffffffffffff1614612148576040517f08c379a000000000000000000000000000000000000000000000000000000000815260040161213f906142c8565b60405180910390fd5b6040518060400160405280600d81526020017f72656d6f7665456c656d656e7400000000000000000000000000000000000000815250600c8160405161218e91906143ae565b90815260200160405180910390205f9054906101000a900460ff166121e8576040517f08c379a00000000000000000000000000000000000000000000000000000000081526004016121df9061440e565b60405180910390fd5b6005805f8481526020019081526020015f20600901819055507fcec9cdff740b6d842df3489c0dcafe7e1592acfcdae1e8e5daed0378935144aa82604051612230919061381a565b60405180910390a15050565b3373ffffffffffffffffffffffffffffffffffffffff1660055f8481526020019081526020015f206008015f9054906101000a900473ffffffffffffffffffffffffffffffffffffffff1673ffffffffffffffffffffffffffffffffffffffff16146122dd576040517f08c379a00000000000000000000000000000000000000000000000000000000081526004016122d490614b45565b60405180910390fd5b8060055f8481526020019081526020015f2060040190816122fe91906140ee565b504260055f8481526020019081526020015f20600a01819055505050565b3373ffffffffffffffffffffffffffffffffffffffff1660055f8481526020019081526020015f206008015f9054906101000a900473ffffffffffffffffffffffffffffffffffffffff1673ffffffffffffffffffffffffffffffffffffffff16146123bd576040517f08c379a00000000000000000000000000000000000000000000000000000000081526004016123b490614b45565b60405180910390fd5b8060055f8481526020019081526020015f2060030190816123de91906140ee565b504260055f8481526020019081526020015f20600a01819055505050565b6002602052805f5260405f205f915090505481565b6402540be40081565b3373ffffffffffffffffffffffffffffffffffffffff1660055f8481526020019081526020015f206008015f9054906101000a900473ffffffffffffffffffffffffffffffffffffffff1673ffffffffffffffffffffffffffffffffffffffff16146124bb576040517f08c379a00000000000000000000000000000000000000000000000000000000081526004016124b290614b45565b60405180910390fd5b8060055f8481526020019081526020015f2060050190816124dc91906140ee565b504260055f8481526020019081526020015f20600a01819055505050565b600860019054906101000a900473ffffffffffffffffffffffffffffffffffffffff1673ffffffffffffffffffffffffffffffffffffffff163373ffffffffffffffffffffffffffffffffffffffff161461258a576040517f08c379a0000000000000000000000000000000000000000000000000000000008152600401612581906142c8565b60405180910390fd5b6040518060400160405280600e81526020017f617070726f7665456c656d656e74000000000000000000000000000000000000815250600c816040516125d091906143ae565b90815260200160405180910390205f9054906101000a900460ff1661262a576040517f08c379a00000000000000000000000000000000000000000000000000000000081526004016126219061440e565b60405180910390fd5b5f60055f8481526020019081526020015f206009015414612680576040517f08c379a000000000000000000000000000000000000000000000000000000000815260040161267790614476565b60405180910390fd5b600160055f8481526020019081526020015f20600901819055507f95fccd35767acd458fa3ab76976172cdefe7357a3cf51bc50b93c41c53984c1d826040516126c9919061381a565b60405180910390a15050565b5f60035f8373ffffffffffffffffffffffffffffffffffffffff1673ffffffffffffffffffffffffffffffffffffffff1681526020019081526020015f20549050919050565b61272361320b565b5f60015f3373ffffffffffffffffffffffffffffffffffffffff1673ffffffffffffffffffffffffffffffffffffffff1681526020019081526020015f2054116127a2576040517f08c379a000000000000000000000000000000000000000000000000000000000815260040161279990614bad565b60405180910390fd5b5f60035f3373ffffffffffffffffffffffffffffffffffffffff1673ffffffffffffffffffffffffffffffffffffffff1681526020019081526020015f2054426127ec9190614494565b9050600c610e106127fd9190614535565b81101561283f576040517f08c379a000000000000000000000000000000000000000000000000000000000815260040161283690614c15565b60405180910390fd5b5f80600c610e106128509190614535565b8361285b9190614535565b90505f5b81811015612939575f600c610e106128779190614535565b8261288291906144c7565b60035f3373ffffffffffffffffffffffffffffffffffffffff1673ffffffffffffffffffffffffffffffffffffffff1681526020019081526020015f20546128ca9190614805565b90505f61291460015f3373ffffffffffffffffffffffffffffffffffffffff1673ffffffffffffffffffffffffffffffffffffffff1681526020019081526020015f205483610ef2565b905080856129229190614805565b94505050808061293190614211565b91505061285f565b505f6064603c8461294a91906144c7565b6129549190614535565b90505f606460288561296691906144c7565b6129709190614535565b905061297b81613362565b629896808261298a9190614535565b60025f3373ffffffffffffffffffffffffffffffffffffffff1673ffffffffffffffffffffffffffffffffffffffff1681526020019081526020015f205f8282546129d59190614805565b925050819055504260035f3373ffffffffffffffffffffffffffffffffffffffff1673ffffffffffffffffffffffffffffffffffffffff1681526020019081526020015f2081905550612a6a3383600b5f9054906101000a900473ffffffffffffffffffffffffffffffffffffffff1673ffffffffffffffffffffffffffffffffffffffff166132e39092919063ffffffff16565b5050505050612a776132da565b565b5f600b5f9054906101000a900473ffffffffffffffffffffffffffffffffffffffff1673ffffffffffffffffffffffffffffffffffffffff166370a08231306040518263ffffffff1660e01b8152600401612ad49190613b79565b602060405180830381865afa158015612aef573d5f803e3d5ffd5b505050506040513d601f19601f82011682018060405250810190612b139190613e44565b905090565b600a5f9054906101000a900473ffffffffffffffffffffffffffffffffffffffff1673ffffffffffffffffffffffffffffffffffffffff163373ffffffffffffffffffffffffffffffffffffffff1614612ba7576040517f08c379a0000000000000000000000000000000000000000000000000000000008152600401612b9e90614a75565b60405180910390fd5b6040518060400160405280601181526020017f6368616e67655365636f6e6441646d696e000000000000000000000000000000815250600c81604051612bed91906143ae565b90815260200160405180910390205f9054906101000a900460ff16612c47576040517f08c379a0000000000000000000000000000000000000000000000000000000008152600401612c3e9061440e565b60405180910390fd5b5f73ffffffffffffffffffffffffffffffffffffffff168273ffffffffffffffffffffffffffffffffffffffff1603612cb5576040517f08c379a0000000000000000000000000000000000000000000000000000000008152600401612cac90614ca3565b60405180910390fd5b8160095f6101000a81548173ffffffffffffffffffffffffffffffffffffffff021916908373ffffffffffffffffffffffffffffffffffffffff1602179055505050565b6005602052805f5260405f205f91509050805f018054612d1890613f2a565b80601f0160208091040260200160405190810160405280929190818152602001828054612d4490613f2a565b8015612d8f5780601f10612d6657610100808354040283529160200191612d8f565b820191905f5260205f20905b815481529060010190602001808311612d7257829003601f168201915b505050505090806001018054612da490613f2a565b80601f0160208091040260200160405190810160405280929190818152602001828054612dd090613f2a565b8015612e1b5780601f10612df257610100808354040283529160200191612e1b565b820191905f5260205f20905b815481529060010190602001808311612dfe57829003601f168201915b505050505090806002018054612e3090613f2a565b80601f0160208091040260200160405190810160405280929190818152602001828054612e5c90613f2a565b8015612ea75780601f10612e7e57610100808354040283529160200191612ea7565b820191905f5260205f20905b815481529060010190602001808311612e8a57829003601f168201915b505050505090806003018054612ebc90613f2a565b80601f0160208091040260200160405190810160405280929190818152602001828054612ee890613f2a565b8015612f335780601f10612f0a57610100808354040283529160200191612f33565b820191905f5260205f20905b815481529060010190602001808311612f1657829003601f168201915b505050505090806004018054612f4890613f2a565b80601f0160208091040260200160405190810160405280929190818152602001828054612f7490613f2a565b8015612fbf5780601f10612f9657610100808354040283529160200191612fbf565b820191905f5260205f20905b815481529060010190602001808311612fa257829003601f168201915b505050505090806005018054612fd490613f2a565b80601f016020809104026020016040519081016040528092919081815260200182805461300090613f2a565b801561304b5780601f106130225761010080835404028352916020019161304b565b820191905f5260205f20905b81548152906001019060200180831161302e57829003601f168201915b50505050509080600601805461306090613f2a565b80601f016020809104026020016040519081016040528092919081815260200182805461308c90613f2a565b80156130d75780601f106130ae576101008083540402835291602001916130d7565b820191905f5260205f20905b8154815290600101906020018083116130ba57829003601f168201915b5050505050908060070180546130ec90613f2a565b80601f016020809104026020016040519081016040528092919081815260200182805461311890613f2a565b80156131635780601f1061313a57610100808354040283529160200191613163565b820191905f5260205f20905b81548152906001019060200180831161314657829003601f168201915b505050505090806008015f9054906101000a900473ffffffffffffffffffffffffffffffffffffffff169080600901549080600a01549080600b015490508c565b600860019054906101000a900473ffffffffffffffffffffffffffffffffffffffff1681565b5f80610e10836131da9190614535565b9050600381106131ee576003915050613206565b60028103613200576002915050613206565b60019150505b919050565b60025f540361324f576040517f08c379a000000000000000000000000000000000000000000000000000000000815260040161324690614d0b565b60405180910390fd5b60025f81905550565b6132d4848573ffffffffffffffffffffffffffffffffffffffff166323b872dd86868660405160240161328d93929190614d29565b604051602081830303815290604052915060e01b6020820180517bffffffffffffffffffffffffffffffffffffffffffffffffffffffff8381831617835250505050613479565b50505050565b60015f81905550565b61335d838473ffffffffffffffffffffffffffffffffffffffff1663a9059cbb8585604051602401613316929190614d5e565b604051602081830303815290604052915060e01b6020820180517bffffffffffffffffffffffffffffffffffffffffffffffffffffffff8381831617835250505050613479565b505050565b61336a61320b565b5f61337361350e565b90505f8103613382575061346e565b5f5b60065481101561346b575f60055f8381526020019081526020015f2090506005808111156133b5576133b4614838565b5b816009015414613457575f838583600b01546133d191906144c7565b6133db9190614535565b90505f81111561345557613454826008015f9054906101000a900473ffffffffffffffffffffffffffffffffffffffff1682600b5f9054906101000a900473ffffffffffffffffffffffffffffffffffffffff1673ffffffffffffffffffffffffffffffffffffffff166132e39092919063ffffffff16565b5b505b50808061346390614211565b915050613384565b50505b6134766132da565b50565b5f6134a3828473ffffffffffffffffffffffffffffffffffffffff1661358a90919063ffffffff16565b90505f8151141580156134c75750808060200190518101906134c59190614d99565b155b1561350957826040517f5274afe70000000000000000000000000000000000000000000000000000000081526004016135009190613b79565b60405180910390fd5b505050565b5f805f90505f5b6006548110156135825760058081111561353257613531614838565b5b60055f8381526020019081526020015f20600901541461356f5760055f8281526020019081526020015f20600b01548261356c9190614805565b91505b808061357a90614211565b915050613515565b508091505090565b606061359783835f61359f565b905092915050565b6060814710156135e657306040517fcd7860590000000000000000000000000000000000000000000000000000000081526004016135dd9190613b79565b60405180910390fd5b5f808573ffffffffffffffffffffffffffffffffffffffff16848660405161360e9190614e08565b5f6040518083038185875af1925050503d805f8114613648576040519150601f19603f3d011682016040523d82523d5f602084013e61364d565b606091505b509150915061365d868383613668565b925050509392505050565b60608261367d57613678826136f5565b6136ed565b5f82511480156136a357505f8473ffffffffffffffffffffffffffffffffffffffff163b145b156136e557836040517f9996b3150000000000000000000000000000000000000000000000000000000081526004016136dc9190613b79565b60405180910390fd5b8190506136ee565b5b9392505050565b5f815111156137075780518082602001fd5b6040517f1425ea4200000000000000000000000000000000000000000000000000000000815260040160405180910390fd5b5f8115159050919050565b61374d81613739565b82525050565b5f6020820190506137665f830184613744565b92915050565b5f604051905090565b5f80fd5b5f80fd5b5f73ffffffffffffffffffffffffffffffffffffffff82169050919050565b5f6137a68261377d565b9050919050565b6137b68161379c565b81146137c0575f80fd5b50565b5f813590506137d1816137ad565b92915050565b5f602082840312156137ec576137eb613775565b5b5f6137f9848285016137c3565b91505092915050565b5f819050919050565b61381481613802565b82525050565b5f60208201905061382d5f83018461380b565b92915050565b5f80fd5b5f80fd5b5f601f19601f8301169050919050565b7f4e487b71000000000000000000000000000000000000000000000000000000005f52604160045260245ffd5b6138818261383b565b810181811067ffffffffffffffff821117156138a05761389f61384b565b5b80604052505050565b5f6138b261376c565b90506138be8282613878565b919050565b5f67ffffffffffffffff8211156138dd576138dc61384b565b5b6138e68261383b565b9050602081019050919050565b828183375f83830152505050565b5f61391361390e846138c3565b6138a9565b90508281526020810184848401111561392f5761392e613837565b5b61393a8482856138f3565b509392505050565b5f82601f83011261395657613955613833565b5b8135613966848260208601613901565b91505092915050565b5f805f805f60a0868803121561398857613987613775565b5b5f86013567ffffffffffffffff8111156139a5576139a4613779565b5b6139b188828901613942565b955050602086013567ffffffffffffffff8111156139d2576139d1613779565b5b6139de88828901613942565b945050604086013567ffffffffffffffff8111156139ff576139fe613779565b5b613a0b88828901613942565b935050606086013567ffffffffffffffff811115613a2c57613a2b613779565b5b613a3888828901613942565b925050608086013567ffffffffffffffff811115613a5957613a58613779565b5b613a6588828901613942565b9150509295509295909350565b5f819050919050565b5f613a95613a90613a8b8461377d565b613a72565b61377d565b9050919050565b5f613aa682613a7b565b9050919050565b5f613ab782613a9c565b9050919050565b613ac781613aad565b82525050565b5f602082019050613ae05f830184613abe565b92915050565b613aef81613739565b8114613af9575f80fd5b50565b5f81359050613b0a81613ae6565b92915050565b5f8060408385031215613b2657613b25613775565b5b5f83013567ffffffffffffffff811115613b4357613b42613779565b5b613b4f85828601613942565b9250506020613b6085828601613afc565b9150509250929050565b613b738161379c565b82525050565b5f602082019050613b8c5f830184613b6a565b92915050565b613b9b81613802565b8114613ba5575f80fd5b50565b5f81359050613bb681613b92565b92915050565b5f60208284031215613bd157613bd0613775565b5b5f613bde84828501613ba8565b91505092915050565b5f8060408385031215613bfd57613bfc613775565b5b5f613c0a85828601613ba8565b9250506020613c1b85828601613ba8565b9150509250929050565b5f60208284031215613c3a57613c39613775565b5b5f82013567ffffffffffffffff811115613c5757613c56613779565b5b613c6384828501613942565b91505092915050565b5f8060408385031215613c8257613c81613775565b5b5f613c8f85828601613ba8565b925050602083013567ffffffffffffffff811115613cb057613caf613779565b5b613cbc85828601613942565b9150509250929050565b5f81519050919050565b5f82825260208201905092915050565b5f5b83811015613cfd578082015181840152602081019050613ce2565b5f8484015250505050565b5f613d1282613cc6565b613d1c8185613cd0565b9350613d2c818560208601613ce0565b613d358161383b565b840191505092915050565b5f610180820190508181035f830152613d59818f613d08565b90508181036020830152613d6d818e613d08565b90508181036040830152613d81818d613d08565b90508181036060830152613d95818c613d08565b90508181036080830152613da9818b613d08565b905081810360a0830152613dbd818a613d08565b905081810360c0830152613dd18189613d08565b905081810360e0830152613de58188613d08565b9050613df5610100830187613b6a565b613e0361012083018661380b565b613e1161014083018561380b565b613e1f61016083018461380b565b9d9c50505050505050505050505050565b5f81519050613e3e81613b92565b92915050565b5f60208284031215613e5957613e58613775565b5b5f613e6684828501613e30565b91505092915050565b7f496e73756666696369656e7420746f6b656e7320746f2063726561746520656c5f8201527f656d656e74000000000000000000000000000000000000000000000000000000602082015250565b5f613ec9602583613cd0565b9150613ed482613e6f565b604082019050919050565b5f6020820190508181035f830152613ef681613ebd565b9050919050565b7f4e487b71000000000000000000000000000000000000000000000000000000005f52602260045260245ffd5b5f6002820490506001821680613f4157607f821691505b602082108103613f5457613f53613efd565b5b50919050565b5f819050815f5260205f209050919050565b5f6020601f8301049050919050565b5f82821b905092915050565b5f60088302613fb67fffffffffffffffffffffffffffffffffffffffffffffffffffffffffffffffff82613f7b565b613fc08683613f7b565b95508019841693508086168417925050509392505050565b5f613ff2613fed613fe884613802565b613a72565b613802565b9050919050565b5f819050919050565b61400b83613fd8565b61401f61401782613ff9565b848454613f87565b825550505050565b5f90565b614033614027565b61403e818484614002565b505050565b5b81811015614061576140565f8261402b565b600181019050614044565b5050565b601f8211156140a65761407781613f5a565b61408084613f6c565b8101602085101561408f578190505b6140a361409b85613f6c565b830182614043565b50505b505050565b5f82821c905092915050565b5f6140c65f19846008026140ab565b1980831691505092915050565b5f6140de83836140b7565b9150826002028217905092915050565b6140f782613cc6565b67ffffffffffffffff8111156141105761410f61384b565b5b61411a8254613f2a565b614125828285614065565b5f60209050601f831160018114614156575f8415614144578287015190505b61414e85826140d3565b8655506141b5565b601f19841661416486613f5a565b5f5b8281101561418b57848901518255600182019150602085019450602081019050614166565b868310156141a857848901516141a4601f8916826140b7565b8355505b6001600288020188555050505b505050505050565b5f6040820190506141d05f83018561380b565b6141dd6020830184613b6a565b9392505050565b7f4e487b71000000000000000000000000000000000000000000000000000000005f52601160045260245ffd5b5f61421b82613802565b91507fffffffffffffffffffffffffffffffffffffffffffffffffffffffffffffffff820361424d5761424c6141e4565b5b600182019050919050565b7f4f6e6c792061646d696e2063616e20706572666f726d207468697320616374695f8201527f6f6e000000000000000000000000000000000000000000000000000000000000602082015250565b5f6142b2602283613cd0565b91506142bd82614258565b604082019050919050565b5f6020820190508181035f8301526142df816142a6565b9050919050565b7f41646d696e2063616e206f6e6c7920746f67676c65206368616e67655365636f5f8201527f6e6441646d696e00000000000000000000000000000000000000000000000000602082015250565b5f614340602783613cd0565b915061434b826142e6565b604082019050919050565b5f6020820190508181035f83015261436d81614334565b9050919050565b5f81905092915050565b5f61438882613cc6565b6143928185614374565b93506143a2818560208601613ce0565b80840191505092915050565b5f6143b9828461437e565b915081905092915050565b7f46756e6374696f6e2069732064697361626c65640000000000000000000000005f82015250565b5f6143f8601483613cd0565b9150614403826143c4565b602082019050919050565b5f6020820190508181035f830152614425816143ec565b9050919050565b7f456c656d656e74206973206e6f742070656e64696e6720617070726f76616c005f82015250565b5f614460601f83613cd0565b915061446b8261442c565b602082019050919050565b5f6020820190508181035f83015261448d81614454565b9050919050565b5f61449e82613802565b91506144a983613802565b92508282039050818111156144c1576144c06141e4565b5b92915050565b5f6144d182613802565b91506144dc83613802565b92508282026144ea81613802565b91508282048414831517614501576145006141e4565b5b5092915050565b7f4e487b71000000000000000000000000000000000000000000000000000000005f52601260045260245ffd5b5f61453f82613802565b915061454a83613802565b92508261455a57614559614508565b5b828204905092915050565b7f4d696e696d756d20756e7374616b6520616d6f756e74206973203120746f6b655f8201527f6e00000000000000000000000000000000000000000000000000000000000000602082015250565b5f6145bf602183613cd0565b91506145ca82614565565b604082019050919050565b5f6020820190508181035f8301526145ec816145b3565b9050919050565b7f496e73756666696369656e74207374616b656420616d6f756e740000000000005f82015250565b5f614627601a83613cd0565b9150614632826145f3565b602082019050919050565b5f6020820190508181035f8301526146548161461b565b9050919050565b7f4f6e6c79207365636f6e642061646d696e2063616e20706572666f726d2074685f8201527f697320616374696f6e0000000000000000000000000000000000000000000000602082015250565b5f6146b5602983613cd0565b91506146c08261465b565b604082019050919050565b5f6020820190508181035f8301526146e2816146a9565b9050919050565b7f5365636f6e642061646d696e2063616e6e6f7420746f67676c65206368616e675f8201527f655365636f6e6441646d696e0000000000000000000000000000000000000000602082015250565b5f614743602c83613cd0565b915061474e826146e9565b604082019050919050565b5f6020820190508181035f83015261477081614737565b9050919050565b7f456c656d656e7420697320616c726561647920696e20746865205072657374695f8201527f6765207068617365000000000000000000000000000000000000000000000000602082015250565b5f6147d1602883613cd0565b91506147dc82614777565b604082019050919050565b5f6020820190508181035f8301526147fe816147c5565b9050919050565b5f61480f82613802565b915061481a83613802565b9250828201905080821115614832576148316141e4565b5b92915050565b7f4e487b71000000000000000000000000000000000000000000000000000000005f52602160045260245ffd5b7f416d6f756e74206d7573742062652067726561746572207468616e207a65726f5f82015250565b5f614899602083613cd0565b91506148a482614865565b602082019050919050565b5f6020820190508181035f8301526148c68161488d565b9050919050565b7f496e73756666696369656e7420766f74696e6720706f776572000000000000005f82015250565b5f614901601983613cd0565b915061490c826148cd565b602082019050919050565b5f6020820190508181035f83015261492e816148f5565b9050919050565b7f5374616b696e672069732064697361626c6564000000000000000000000000005f82015250565b5f614969601383613cd0565b915061497482614935565b602082019050919050565b5f6020820190508181035f8301526149968161495d565b9050919050565b7f4d696e696d756d207374616b6520616d6f756e74206973203120746f6b656e005f82015250565b5f6149d1601f83613cd0565b91506149dc8261499d565b602082019050919050565b5f6020820190508181035f8301526149fe816149c5565b9050919050565b7f4f6e6c792074686972642061646d696e2063616e20706572666f726d207468695f8201527f7320616374696f6e000000000000000000000000000000000000000000000000602082015250565b5f614a5f602883613cd0565b9150614a6a82614a05565b604082019050919050565b5f6020820190508181035f830152614a8c81614a53565b9050919050565b7f4e65772061646d696e20616464726573732063616e6e6f74206265207a65726f5f82015250565b5f614ac7602083613cd0565b9150614ad282614a93565b602082019050919050565b5f6020820190508181035f830152614af481614abb565b9050919050565b7f4f6e6c792063726561746f722063616e207570646174650000000000000000005f82015250565b5f614b2f601783613cd0565b9150614b3a82614afb565b602082019050919050565b5f6020820190508181035f830152614b5c81614b23565b9050919050565b7f4e6f207374616b656420616d6f756e74000000000000000000000000000000005f82015250565b5f614b97601083613cd0565b9150614ba282614b63565b602082019050919050565b5f6020820190508181035f830152614bc481614b8b565b9050919050565b7f43616e6e6f7420636c61696d206265666f72652061206d6f6e746800000000005f82015250565b5f614bff601b83613cd0565b9150614c0a82614bcb565b602082019050919050565b5f6020820190508181035f830152614c2c81614bf3565b9050919050565b7f4e6577207365636f6e642061646d696e20616464726573732063616e6e6f74205f8201527f6265207a65726f00000000000000000000000000000000000000000000000000602082015250565b5f614c8d602783613cd0565b9150614c9882614c33565b604082019050919050565b5f6020820190508181035f830152614cba81614c81565b9050919050565b7f5265656e7472616e637947756172643a207265656e7472616e742063616c6c005f82015250565b5f614cf5601f83613cd0565b9150614d0082614cc1565b602082019050919050565b5f6020820190508181035f830152614d2281614ce9565b9050919050565b5f606082019050614d3c5f830186613b6a565b614d496020830185613b6a565b614d56604083018461380b565b949350505050565b5f604082019050614d715f830185613b6a565b614d7e602083018461380b565b9392505050565b5f81519050614d9381613ae6565b92915050565b5f60208284031215614dae57614dad613775565b5b5f614dbb84828501614d85565b91505092915050565b5f81519050919050565b5f81905092915050565b5f614de282614dc4565b614dec8185614dce565b9350614dfc818560208601613ce0565b80840191505092915050565b5f614e138284614dd8565b91508190509291505056fea2646970667358221220405db2d2f43186fbe99814c2358c8bb91d07c79e710bee6bfdaa2b5497f50f0864736f6c63430008140033",
			"opcodes": "PUSH1 0x80 PUSH1 0x40 MSTORE CALLVALUE DUP1 ISZERO PUSH3 0x10 JUMPI PUSH0 DUP1 REVERT JUMPDEST POP PUSH1 0x40 MLOAD PUSH3 0x54BA CODESIZE SUB DUP1 PUSH3 0x54BA DUP4 CODECOPY DUP2 DUP2 ADD PUSH1 0x40 MSTORE DUP2 ADD SWAP1 PUSH3 0x36 SWAP2 SWAP1 PUSH3 0x339 JUMP JUMPDEST PUSH1 0x1 PUSH0 DUP2 SWAP1 SSTORE POP CALLER PUSH1 0x8 PUSH1 0x1 PUSH2 0x100 EXP DUP2 SLOAD DUP2 PUSH20 0xFFFFFFFFFFFFFFFFFFFFFFFFFFFFFFFFFFFFFFFF MUL NOT AND SWAP1 DUP4 PUSH20 0xFFFFFFFFFFFFFFFFFFFFFFFFFFFFFFFFFFFFFFFF AND MUL OR SWAP1 SSTORE POP DUP3 PUSH1 0xB PUSH0 PUSH2 0x100 EXP DUP2 SLOAD DUP2 PUSH20 0xFFFFFFFFFFFFFFFFFFFFFFFFFFFFFFFFFFFFFFFF MUL NOT AND SWAP1 DUP4 PUSH20 0xFFFFFFFFFFFFFFFFFFFFFFFFFFFFFFFFFFFFFFFF AND MUL OR SWAP1 SSTORE POP DUP2 PUSH1 0x9 PUSH0 PUSH2 0x100 EXP DUP2 SLOAD DUP2 PUSH20 0xFFFFFFFFFFFFFFFFFFFFFFFFFFFFFFFFFFFFFFFF MUL NOT AND SWAP1 DUP4 PUSH20 0xFFFFFFFFFFFFFFFFFFFFFFFFFFFFFFFFFFFFFFFF AND MUL OR SWAP1 SSTORE POP DUP1 PUSH1 0xA PUSH0 PUSH2 0x100 EXP DUP2 SLOAD DUP2 PUSH20 0xFFFFFFFFFFFFFFFFFFFFFFFFFFFFFFFFFFFFFFFF MUL NOT AND SWAP1 DUP4 PUSH20 0xFFFFFFFFFFFFFFFFFFFFFFFFFFFFFFFFFFFFFFFF AND MUL OR SWAP1 SSTORE POP PUSH0 PUSH1 0xC PUSH1 0x40 MLOAD PUSH3 0x14F SWAP1 PUSH3 0x3EA JUMP JUMPDEST SWAP1 DUP2 MSTORE PUSH1 0x20 ADD PUSH1 0x40 MLOAD DUP1 SWAP2 SUB SWAP1 KECCAK256 PUSH0 PUSH2 0x100 EXP DUP2 SLOAD DUP2 PUSH1 0xFF MUL NOT AND SWAP1 DUP4 ISZERO ISZERO MUL OR SWAP1 SSTORE POP PUSH0 PUSH1 0xC PUSH1 0x40 MLOAD PUSH3 0x184 SWAP1 PUSH3 0x44E JUMP JUMPDEST SWAP1 DUP2 MSTORE PUSH1 0x20 ADD PUSH1 0x40 MLOAD DUP1 SWAP2 SUB SWAP1 KECCAK256 PUSH0 PUSH2 0x100 EXP DUP2 SLOAD DUP2 PUSH1 0xFF MUL NOT AND SWAP1 DUP4 ISZERO ISZERO MUL OR SWAP1 SSTORE POP PUSH0 PUSH1 0xC PUSH1 0x40 MLOAD PUSH3 0x1B9 SWAP1 PUSH3 0x4B2 JUMP JUMPDEST SWAP1 DUP2 MSTORE PUSH1 0x20 ADD PUSH1 0x40 MLOAD DUP1 SWAP2 SUB SWAP1 KECCAK256 PUSH0 PUSH2 0x100 EXP DUP2 SLOAD DUP2 PUSH1 0xFF MUL NOT AND SWAP1 DUP4 ISZERO ISZERO MUL OR SWAP1 SSTORE POP PUSH0 PUSH1 0xC PUSH1 0x40 MLOAD PUSH3 0x1EE SWAP1 PUSH3 0x516 JUMP JUMPDEST SWAP1 DUP2 MSTORE PUSH1 0x20 ADD PUSH1 0x40 MLOAD DUP1 SWAP2 SUB SWAP1 KECCAK256 PUSH0 PUSH2 0x100 EXP DUP2 SLOAD DUP2 PUSH1 0xFF MUL NOT AND SWAP1 DUP4 ISZERO ISZERO MUL OR SWAP1 SSTORE POP PUSH0 PUSH1 0xC PUSH1 0x40 MLOAD PUSH3 0x223 SWAP1 PUSH3 0x57A JUMP JUMPDEST SWAP1 DUP2 MSTORE PUSH1 0x20 ADD PUSH1 0x40 MLOAD DUP1 SWAP2 SUB SWAP1 KECCAK256 PUSH0 PUSH2 0x100 EXP DUP2 SLOAD DUP2 PUSH1 0xFF MUL NOT AND SWAP1 DUP4 ISZERO ISZERO MUL OR SWAP1 SSTORE POP PUSH0 PUSH1 0xC PUSH1 0x40 MLOAD PUSH3 0x258 SWAP1 PUSH3 0x5DE JUMP JUMPDEST SWAP1 DUP2 MSTORE PUSH1 0x20 ADD PUSH1 0x40 MLOAD DUP1 SWAP2 SUB SWAP1 KECCAK256 PUSH0 PUSH2 0x100 EXP DUP2 SLOAD DUP2 PUSH1 0xFF MUL NOT AND SWAP1 DUP4 ISZERO ISZERO MUL OR SWAP1 SSTORE POP PUSH0 PUSH1 0xC PUSH1 0x40 MLOAD PUSH3 0x28D SWAP1 PUSH3 0x642 JUMP JUMPDEST SWAP1 DUP2 MSTORE PUSH1 0x20 ADD PUSH1 0x40 MLOAD DUP1 SWAP2 SUB SWAP1 KECCAK256 PUSH0 PUSH2 0x100 EXP DUP2 SLOAD DUP2 PUSH1 0xFF MUL NOT AND SWAP1 DUP4 ISZERO ISZERO MUL OR SWAP1 SSTORE POP PUSH1 0x1 PUSH1 0x8 PUSH0 PUSH2 0x100 EXP DUP2 SLOAD DUP2 PUSH1 0xFF MUL NOT AND SWAP1 DUP4 ISZERO ISZERO MUL OR SWAP1 SSTORE POP POP POP POP PUSH3 0x658 JUMP JUMPDEST PUSH0 DUP1 REVERT JUMPDEST PUSH0 PUSH20 0xFFFFFFFFFFFFFFFFFFFFFFFFFFFFFFFFFFFFFFFF DUP3 AND SWAP1 POP SWAP2 SWAP1 POP JUMP JUMPDEST PUSH0 PUSH3 0x303 DUP3 PUSH3 0x2D8 JUMP JUMPDEST SWAP1 POP SWAP2 SWAP1 POP JUMP JUMPDEST PUSH3 0x315 DUP2 PUSH3 0x2F7 JUMP JUMPDEST DUP2 EQ PUSH3 0x320 JUMPI PUSH0 DUP1 REVERT JUMPDEST POP JUMP JUMPDEST PUSH0 DUP2 MLOAD SWAP1 POP PUSH3 0x333 DUP2 PUSH3 0x30A JUMP JUMPDEST SWAP3 SWAP2 POP POP JUMP JUMPDEST PUSH0 DUP1 PUSH0 PUSH1 0x60 DUP5 DUP7 SUB SLT ISZERO PUSH3 0x353 JUMPI PUSH3 0x352 PUSH3 0x2D4 JUMP JUMPDEST JUMPDEST PUSH0 PUSH3 0x362 DUP7 DUP3 DUP8 ADD PUSH3 0x323 JUMP JUMPDEST SWAP4 POP POP PUSH1 0x20 PUSH3 0x375 DUP7 DUP3 DUP8 ADD PUSH3 0x323 JUMP JUMPDEST SWAP3 POP POP PUSH1 0x40 PUSH3 0x388 DUP7 DUP3 DUP8 ADD PUSH3 0x323 JUMP JUMPDEST SWAP2 POP POP SWAP3 POP SWAP3 POP SWAP3 JUMP JUMPDEST PUSH0 DUP2 SWAP1 POP SWAP3 SWAP2 POP POP JUMP JUMPDEST PUSH32 0x617070726F7665456C656D656E74000000000000000000000000000000000000 PUSH0 DUP3 ADD MSTORE POP JUMP JUMPDEST PUSH0 PUSH3 0x3D2 PUSH1 0xE DUP4 PUSH3 0x392 JUMP JUMPDEST SWAP2 POP PUSH3 0x3DF DUP3 PUSH3 0x39C JUMP JUMPDEST PUSH1 0xE DUP3 ADD SWAP1 POP SWAP2 SWAP1 POP JUMP JUMPDEST PUSH0 PUSH3 0x3F6 DUP3 PUSH3 0x3C4 JUMP JUMPDEST SWAP2 POP DUP2 SWAP1 POP SWAP2 SWAP1 POP JUMP JUMPDEST PUSH32 0x72656A656374456C656D656E7400000000000000000000000000000000000000 PUSH0 DUP3 ADD MSTORE POP JUMP JUMPDEST PUSH0 PUSH3 0x436 PUSH1 0xD DUP4 PUSH3 0x392 JUMP JUMPDEST SWAP2 POP PUSH3 0x443 DUP3 PUSH3 0x400 JUMP JUMPDEST PUSH1 0xD DUP3 ADD SWAP1 POP SWAP2 SWAP1 POP JUMP JUMPDEST PUSH0 PUSH3 0x45A DUP3 PUSH3 0x428 JUMP JUMPDEST SWAP2 POP DUP2 SWAP1 POP SWAP2 SWAP1 POP JUMP JUMPDEST PUSH32 0x72656D6F7665456C656D656E7400000000000000000000000000000000000000 PUSH0 DUP3 ADD MSTORE POP JUMP JUMPDEST PUSH0 PUSH3 0x49A PUSH1 0xD DUP4 PUSH3 0x392 JUMP JUMPDEST SWAP2 POP PUSH3 0x4A7 DUP3 PUSH3 0x464 JUMP JUMPDEST PUSH1 0xD DUP3 ADD SWAP1 POP SWAP2 SWAP1 POP JUMP JUMPDEST PUSH0 PUSH3 0x4BE DUP3 PUSH3 0x48C JUMP JUMPDEST SWAP2 POP DUP2 SWAP1 POP SWAP2 SWAP1 POP JUMP JUMPDEST PUSH32 0x636F6E6669726D55706461746500000000000000000000000000000000000000 PUSH0 DUP3 ADD MSTORE POP JUMP JUMPDEST PUSH0 PUSH3 0x4FE PUSH1 0xD DUP4 PUSH3 0x392 JUMP JUMPDEST SWAP2 POP PUSH3 0x50B DUP3 PUSH3 0x4C8 JUMP JUMPDEST PUSH1 0xD DUP3 ADD SWAP1 POP SWAP2 SWAP1 POP JUMP JUMPDEST PUSH0 PUSH3 0x522 DUP3 PUSH3 0x4F0 JUMP JUMPDEST SWAP2 POP DUP2 SWAP1 POP SWAP2 SWAP1 POP JUMP JUMPDEST PUSH32 0x7265667573655570646174650000000000000000000000000000000000000000 PUSH0 DUP3 ADD MSTORE POP JUMP JUMPDEST PUSH0 PUSH3 0x562 PUSH1 0xC DUP4 PUSH3 0x392 JUMP JUMPDEST SWAP2 POP PUSH3 0x56F DUP3 PUSH3 0x52C JUMP JUMPDEST PUSH1 0xC DUP3 ADD SWAP1 POP SWAP2 SWAP1 POP JUMP JUMPDEST PUSH0 PUSH3 0x586 DUP3 PUSH3 0x554 JUMP JUMPDEST SWAP2 POP DUP2 SWAP1 POP SWAP2 SWAP1 POP JUMP JUMPDEST PUSH32 0x6368616E676541646D696E000000000000000000000000000000000000000000 PUSH0 DUP3 ADD MSTORE POP JUMP JUMPDEST PUSH0 PUSH3 0x5C6 PUSH1 0xB DUP4 PUSH3 0x392 JUMP JUMPDEST SWAP2 POP PUSH3 0x5D3 DUP3 PUSH3 0x590 JUMP JUMPDEST PUSH1 0xB DUP3 ADD SWAP1 POP SWAP2 SWAP1 POP JUMP JUMPDEST PUSH0 PUSH3 0x5EA DUP3 PUSH3 0x5B8 JUMP JUMPDEST SWAP2 POP DUP2 SWAP1 POP SWAP2 SWAP1 POP JUMP JUMPDEST PUSH32 0x6368616E67655365636F6E6441646D696E000000000000000000000000000000 PUSH0 DUP3 ADD MSTORE POP JUMP JUMPDEST PUSH0 PUSH3 0x62A PUSH1 0x11 DUP4 PUSH3 0x392 JUMP JUMPDEST SWAP2 POP PUSH3 0x637 DUP3 PUSH3 0x5F4 JUMP JUMPDEST PUSH1 0x11 DUP3 ADD SWAP1 POP SWAP2 SWAP1 POP JUMP JUMPDEST PUSH0 PUSH3 0x64E DUP3 PUSH3 0x61C JUMP JUMPDEST SWAP2 POP DUP2 SWAP1 POP SWAP2 SWAP1 POP JUMP JUMPDEST PUSH2 0x4E54 DUP1 PUSH3 0x666 PUSH0 CODECOPY PUSH0 RETURN INVALID PUSH1 0x80 PUSH1 0x40 MSTORE CALLVALUE DUP1 ISZERO PUSH2 0xF JUMPI PUSH0 DUP1 REVERT JUMPDEST POP PUSH1 0x4 CALLDATASIZE LT PUSH2 0x25B JUMPI PUSH0 CALLDATALOAD PUSH1 0xE0 SHR DUP1 PUSH4 0x6B8D04FB GT PUSH2 0x144 JUMPI DUP1 PUSH4 0xC07473F6 GT PUSH2 0xC1 JUMPI DUP1 PUSH4 0xD4F1E386 GT PUSH2 0x85 JUMPI DUP1 PUSH4 0xD4F1E386 EQ PUSH2 0x707 JUMPI DUP1 PUSH4 0xD69ECA4C EQ PUSH2 0x711 JUMPI DUP1 PUSH4 0xDD8087D1 EQ PUSH2 0x72F JUMPI DUP1 PUSH4 0xE0D64B37 EQ PUSH2 0x74B JUMPI DUP1 PUSH4 0xF851A440 EQ PUSH2 0x786 JUMPI DUP1 PUSH4 0xF9089BF2 EQ PUSH2 0x7A4 JUMPI PUSH2 0x25B JUMP JUMPDEST DUP1 PUSH4 0xC07473F6 EQ PUSH2 0x651 JUMPI DUP1 PUSH4 0xC5E48E5A EQ PUSH2 0x681 JUMPI DUP1 PUSH4 0xC7B3564E EQ PUSH2 0x69F JUMPI DUP1 PUSH4 0xC9B3829F EQ PUSH2 0x6BB JUMPI DUP1 PUSH4 0xCC78D728 EQ PUSH2 0x6D7 JUMPI PUSH2 0x25B JUMP JUMPDEST DUP1 PUSH4 0x8F283970 GT PUSH2 0x108 JUMPI DUP1 PUSH4 0x8F283970 EQ PUSH2 0x5D7 JUMPI DUP1 PUSH4 0x8FDDD022 EQ PUSH2 0x5F3 JUMPI DUP1 PUSH4 0x9FC37ABF EQ PUSH2 0x5FD JUMPI DUP1 PUSH4 0xA721EBDD EQ PUSH2 0x619 JUMPI DUP1 PUSH4 0xB17146C8 EQ PUSH2 0x635 JUMPI PUSH2 0x25B JUMP JUMPDEST DUP1 PUSH4 0x6B8D04FB EQ PUSH2 0x533 JUMPI DUP1 PUSH4 0x72BAE674 EQ PUSH2 0x563 JUMPI DUP1 PUSH4 0x7547C7A3 EQ PUSH2 0x57F JUMPI DUP1 PUSH4 0x84D804BE EQ PUSH2 0x59B JUMPI DUP1 PUSH4 0x8B52E06C EQ PUSH2 0x5B9 JUMPI PUSH2 0x25B JUMP JUMPDEST DUP1 PUSH4 0x25D5971F GT PUSH2 0x1DD JUMPI DUP1 PUSH4 0x3B72BAD5 GT PUSH2 0x1A1 JUMPI DUP1 PUSH4 0x3B72BAD5 EQ PUSH2 0x45D JUMPI DUP1 PUSH4 0x51D18598 EQ PUSH2 0x479 JUMPI DUP1 PUSH4 0x5DCC9391 EQ PUSH2 0x497 JUMPI DUP1 PUSH4 0x5FF329AF EQ PUSH2 0x4B5 JUMPI DUP1 PUSH4 0x613DAB3E EQ PUSH2 0x4E5 JUMPI DUP1 PUSH4 0x67BE4673 EQ PUSH2 0x515 JUMPI PUSH2 0x25B JUMP JUMPDEST DUP1 PUSH4 0x25D5971F EQ PUSH2 0x3CD JUMPI DUP1 PUSH4 0x27855B13 EQ PUSH2 0x3E9 JUMPI DUP1 PUSH4 0x2A9AAA76 EQ PUSH2 0x407 JUMPI DUP1 PUSH4 0x36EAD39F EQ PUSH2 0x423 JUMPI DUP1 PUSH4 0x3AE73259 EQ PUSH2 0x43F JUMPI PUSH2 0x25B JUMP JUMPDEST DUP1 PUSH4 0x17504B98 GT PUSH2 0x224 JUMPI DUP1 PUSH4 0x17504B98 EQ PUSH2 0x317 JUMPI DUP1 PUSH4 0x1D002CC0 EQ PUSH2 0x333 JUMPI DUP1 PUSH4 0x1D32E9B3 EQ PUSH2 0x363 JUMPI DUP1 PUSH4 0x1FAA1128 EQ PUSH2 0x381 JUMPI DUP1 PUSH4 0x20CB13AB EQ PUSH2 0x39D JUMPI PUSH2 0x25B JUMP JUMPDEST DUP1 PUSH3 0x53B4B3 EQ PUSH2 0x25F JUMPI DUP1 PUSH4 0x13EBA92 EQ PUSH2 0x27D JUMPI DUP1 PUSH4 0xA274280 EQ PUSH2 0x2AD JUMPI DUP1 PUSH4 0xD67F59E EQ PUSH2 0x2C9 JUMPI DUP1 PUSH4 0x16934FC4 EQ PUSH2 0x2E7 JUMPI JUMPDEST PUSH0 DUP1 REVERT JUMPDEST PUSH2 0x267 PUSH2 0x7D4 JUMP JUMPDEST PUSH1 0x40 MLOAD PUSH2 0x274 SWAP2 SWAP1 PUSH2 0x3753 JUMP JUMPDEST PUSH1 0x40 MLOAD DUP1 SWAP2 SUB SWAP1 RETURN JUMPDEST PUSH2 0x297 PUSH1 0x4 DUP1 CALLDATASIZE SUB DUP2 ADD SWAP1 PUSH2 0x292 SWAP2 SWAP1 PUSH2 0x37D7 JUMP JUMPDEST PUSH2 0x7E6 JUMP JUMPDEST PUSH1 0x40 MLOAD PUSH2 0x2A4 SWAP2 SWAP1 PUSH2 0x381A JUMP JUMPDEST PUSH1 0x40 MLOAD DUP1 SWAP2 SUB SWAP1 RETURN JUMPDEST PUSH2 0x2C7 PUSH1 0x4 DUP1 CALLDATASIZE SUB DUP2 ADD SWAP1 PUSH2 0x2C2 SWAP2 SWAP1 PUSH2 0x396F JUMP JUMPDEST PUSH2 0x7FB JUMP JUMPDEST STOP JUMPDEST PUSH2 0x2D1 PUSH2 0xB56 JUMP JUMPDEST PUSH1 0x40 MLOAD PUSH2 0x2DE SWAP2 SWAP1 PUSH2 0x3ACD JUMP JUMPDEST PUSH1 0x40 MLOAD DUP1 SWAP2 SUB SWAP1 RETURN JUMPDEST PUSH2 0x301 PUSH1 0x4 DUP1 CALLDATASIZE SUB DUP2 ADD SWAP1 PUSH2 0x2FC SWAP2 SWAP1 PUSH2 0x37D7 JUMP JUMPDEST PUSH2 0xB7B JUMP JUMPDEST PUSH1 0x40 MLOAD PUSH2 0x30E SWAP2 SWAP1 PUSH2 0x381A JUMP JUMPDEST PUSH1 0x40 MLOAD DUP1 SWAP2 SUB SWAP1 RETURN JUMPDEST PUSH2 0x331 PUSH1 0x4 DUP1 CALLDATASIZE SUB DUP2 ADD SWAP1 PUSH2 0x32C SWAP2 SWAP1 PUSH2 0x3B10 JUMP JUMPDEST PUSH2 0xB90 JUMP JUMPDEST STOP JUMPDEST PUSH2 0x34D PUSH1 0x4 DUP1 CALLDATASIZE SUB DUP2 ADD SWAP1 PUSH2 0x348 SWAP2 SWAP1 PUSH2 0x37D7 JUMP JUMPDEST PUSH2 0xCDE JUMP JUMPDEST PUSH1 0x40 MLOAD PUSH2 0x35A SWAP2 SWAP1 PUSH2 0x381A JUMP JUMPDEST PUSH1 0x40 MLOAD DUP1 SWAP2 SUB SWAP1 RETURN JUMPDEST PUSH2 0x36B PUSH2 0xCF3 JUMP JUMPDEST PUSH1 0x40 MLOAD PUSH2 0x378 SWAP2 SWAP1 PUSH2 0x3B79 JUMP JUMPDEST PUSH1 0x40 MLOAD DUP1 SWAP2 SUB SWAP1 RETURN JUMPDEST PUSH2 0x39B PUSH1 0x4 DUP1 CALLDATASIZE SUB DUP2 ADD SWAP1 PUSH2 0x396 SWAP2 SWAP1 PUSH2 0x3BBC JUMP JUMPDEST PUSH2 0xD18 JUMP JUMPDEST STOP JUMPDEST PUSH2 0x3B7 PUSH1 0x4 DUP1 CALLDATASIZE SUB DUP2 ADD SWAP1 PUSH2 0x3B2 SWAP2 SWAP1 PUSH2 0x3BE7 JUMP JUMPDEST PUSH2 0xEF2 JUMP JUMPDEST PUSH1 0x40 MLOAD PUSH2 0x3C4 SWAP2 SWAP1 PUSH2 0x381A JUMP JUMPDEST PUSH1 0x40 MLOAD DUP1 SWAP2 SUB SWAP1 RETURN JUMPDEST PUSH2 0x3E7 PUSH1 0x4 DUP1 CALLDATASIZE SUB DUP2 ADD SWAP1 PUSH2 0x3E2 SWAP2 SWAP1 PUSH2 0x3BBC JUMP JUMPDEST PUSH2 0xF41 JUMP JUMPDEST STOP JUMPDEST PUSH2 0x3F1 PUSH2 0x1113 JUMP JUMPDEST PUSH1 0x40 MLOAD PUSH2 0x3FE SWAP2 SWAP1 PUSH2 0x381A JUMP JUMPDEST PUSH1 0x40 MLOAD DUP1 SWAP2 SUB SWAP1 RETURN JUMPDEST PUSH2 0x421 PUSH1 0x4 DUP1 CALLDATASIZE SUB DUP2 ADD SWAP1 PUSH2 0x41C SWAP2 SWAP1 PUSH2 0x3B10 JUMP JUMPDEST PUSH2 0x1125 JUMP JUMPDEST STOP JUMPDEST PUSH2 0x43D PUSH1 0x4 DUP1 CALLDATASIZE SUB DUP2 ADD SWAP1 PUSH2 0x438 SWAP2 SWAP1 PUSH2 0x3BBC JUMP JUMPDEST PUSH2 0x1272 JUMP JUMPDEST STOP JUMPDEST PUSH2 0x447 PUSH2 0x14EE JUMP JUMPDEST PUSH1 0x40 MLOAD PUSH2 0x454 SWAP2 SWAP1 PUSH2 0x381A JUMP JUMPDEST PUSH1 0x40 MLOAD DUP1 SWAP2 SUB SWAP1 RETURN JUMPDEST PUSH2 0x477 PUSH1 0x4 DUP1 CALLDATASIZE SUB DUP2 ADD SWAP1 PUSH2 0x472 SWAP2 SWAP1 PUSH2 0x3BBC JUMP JUMPDEST PUSH2 0x14F4 JUMP JUMPDEST STOP JUMPDEST PUSH2 0x481 PUSH2 0x175A JUMP JUMPDEST PUSH1 0x40 MLOAD PUSH2 0x48E SWAP2 SWAP1 PUSH2 0x381A JUMP JUMPDEST PUSH1 0x40 MLOAD DUP1 SWAP2 SUB SWAP1 RETURN JUMPDEST PUSH2 0x49F PUSH2 0x1763 JUMP JUMPDEST PUSH1 0x40 MLOAD PUSH2 0x4AC SWAP2 SWAP1 PUSH2 0x381A JUMP JUMPDEST PUSH1 0x40 MLOAD DUP1 SWAP2 SUB SWAP1 RETURN JUMPDEST PUSH2 0x4CF PUSH1 0x4 DUP1 CALLDATASIZE SUB DUP2 ADD SWAP1 PUSH2 0x4CA SWAP2 SWAP1 PUSH2 0x37D7 JUMP JUMPDEST PUSH2 0x1769 JUMP JUMPDEST PUSH1 0x40 MLOAD PUSH2 0x4DC SWAP2 SWAP1 PUSH2 0x381A JUMP JUMPDEST PUSH1 0x40 MLOAD DUP1 SWAP2 SUB SWAP1 RETURN JUMPDEST PUSH2 0x4FF PUSH1 0x4 DUP1 CALLDATASIZE SUB DUP2 ADD SWAP1 PUSH2 0x4FA SWAP2 SWAP1 PUSH2 0x3C25 JUMP JUMPDEST PUSH2 0x1945 JUMP JUMPDEST PUSH1 0x40 MLOAD PUSH2 0x50C SWAP2 SWAP1 PUSH2 0x3753 JUMP JUMPDEST PUSH1 0x40 MLOAD DUP1 SWAP2 SUB SWAP1 RETURN JUMPDEST PUSH2 0x51D PUSH2 0x197A JUMP JUMPDEST PUSH1 0x40 MLOAD PUSH2 0x52A SWAP2 SWAP1 PUSH2 0x381A JUMP JUMPDEST PUSH1 0x40 MLOAD DUP1 SWAP2 SUB SWAP1 RETURN JUMPDEST PUSH2 0x54D PUSH1 0x4 DUP1 CALLDATASIZE SUB DUP2 ADD SWAP1 PUSH2 0x548 SWAP2 SWAP1 PUSH2 0x37D7 JUMP JUMPDEST PUSH2 0x1980 JUMP JUMPDEST PUSH1 0x40 MLOAD PUSH2 0x55A SWAP2 SWAP1 PUSH2 0x3753 JUMP JUMPDEST PUSH1 0x40 MLOAD DUP1 SWAP2 SUB SWAP1 RETURN JUMPDEST PUSH2 0x57D PUSH1 0x4 DUP1 CALLDATASIZE SUB DUP2 ADD SWAP1 PUSH2 0x578 SWAP2 SWAP1 PUSH2 0x3BE7 JUMP JUMPDEST PUSH2 0x1A4F JUMP JUMPDEST STOP JUMPDEST PUSH2 0x599 PUSH1 0x4 DUP1 CALLDATASIZE SUB DUP2 ADD SWAP1 PUSH2 0x594 SWAP2 SWAP1 PUSH2 0x3BBC JUMP JUMPDEST PUSH2 0x1BA2 JUMP JUMPDEST STOP JUMPDEST PUSH2 0x5A3 PUSH2 0x1DCB JUMP JUMPDEST PUSH1 0x40 MLOAD PUSH2 0x5B0 SWAP2 SWAP1 PUSH2 0x381A JUMP JUMPDEST PUSH1 0x40 MLOAD DUP1 SWAP2 SUB SWAP1 RETURN JUMPDEST PUSH2 0x5C1 PUSH2 0x1DD2 JUMP JUMPDEST PUSH1 0x40 MLOAD PUSH2 0x5CE SWAP2 SWAP1 PUSH2 0x3B79 JUMP JUMPDEST PUSH1 0x40 MLOAD DUP1 SWAP2 SUB SWAP1 RETURN JUMPDEST PUSH2 0x5F1 PUSH1 0x4 DUP1 CALLDATASIZE SUB DUP2 ADD SWAP1 PUSH2 0x5EC SWAP2 SWAP1 PUSH2 0x37D7 JUMP JUMPDEST PUSH2 0x1DF7 JUMP JUMPDEST STOP JUMPDEST PUSH2 0x5FB PUSH2 0x1FD9 JUMP JUMPDEST STOP JUMPDEST PUSH2 0x617 PUSH1 0x4 DUP1 CALLDATASIZE SUB DUP2 ADD SWAP1 PUSH2 0x612 SWAP2 SWAP1 PUSH2 0x3BBC JUMP JUMPDEST PUSH2 0x20B8 JUMP JUMPDEST STOP JUMPDEST PUSH2 0x633 PUSH1 0x4 DUP1 CALLDATASIZE SUB DUP2 ADD SWAP1 PUSH2 0x62E SWAP2 SWAP1 PUSH2 0x3C6C JUMP JUMPDEST PUSH2 0x223C JUMP JUMPDEST STOP JUMPDEST PUSH2 0x64F PUSH1 0x4 DUP1 CALLDATASIZE SUB DUP2 ADD SWAP1 PUSH2 0x64A SWAP2 SWAP1 PUSH2 0x3C6C JUMP JUMPDEST PUSH2 0x231C JUMP JUMPDEST STOP JUMPDEST PUSH2 0x66B PUSH1 0x4 DUP1 CALLDATASIZE SUB DUP2 ADD SWAP1 PUSH2 0x666 SWAP2 SWAP1 PUSH2 0x37D7 JUMP JUMPDEST PUSH2 0x23FC JUMP JUMPDEST PUSH1 0x40 MLOAD PUSH2 0x678 SWAP2 SWAP1 PUSH2 0x381A JUMP JUMPDEST PUSH1 0x40 MLOAD DUP1 SWAP2 SUB SWAP1 RETURN JUMPDEST PUSH2 0x689 PUSH2 0x2411 JUMP JUMPDEST PUSH1 0x40 MLOAD PUSH2 0x696 SWAP2 SWAP1 PUSH2 0x381A JUMP JUMPDEST PUSH1 0x40 MLOAD DUP1 SWAP2 SUB SWAP1 RETURN JUMPDEST PUSH2 0x6B9 PUSH1 0x4 DUP1 CALLDATASIZE SUB DUP2 ADD SWAP1 PUSH2 0x6B4 SWAP2 SWAP1 PUSH2 0x3C6C JUMP JUMPDEST PUSH2 0x241A JUMP JUMPDEST STOP JUMPDEST PUSH2 0x6D5 PUSH1 0x4 DUP1 CALLDATASIZE SUB DUP2 ADD SWAP1 PUSH2 0x6D0 SWAP2 SWAP1 PUSH2 0x3BBC JUMP JUMPDEST PUSH2 0x24FA JUMP JUMPDEST STOP JUMPDEST PUSH2 0x6F1 PUSH1 0x4 DUP1 CALLDATASIZE SUB DUP2 ADD SWAP1 PUSH2 0x6EC SWAP2 SWAP1 PUSH2 0x37D7 JUMP JUMPDEST PUSH2 0x26D5 JUMP JUMPDEST PUSH1 0x40 MLOAD PUSH2 0x6FE SWAP2 SWAP1 PUSH2 0x381A JUMP JUMPDEST PUSH1 0x40 MLOAD DUP1 SWAP2 SUB SWAP1 RETURN JUMPDEST PUSH2 0x70F PUSH2 0x271B JUMP JUMPDEST STOP JUMPDEST PUSH2 0x719 PUSH2 0x2A79 JUMP JUMPDEST PUSH1 0x40 MLOAD PUSH2 0x726 SWAP2 SWAP1 PUSH2 0x381A JUMP JUMPDEST PUSH1 0x40 MLOAD DUP1 SWAP2 SUB SWAP1 RETURN JUMPDEST PUSH2 0x749 PUSH1 0x4 DUP1 CALLDATASIZE SUB DUP2 ADD SWAP1 PUSH2 0x744 SWAP2 SWAP1 PUSH2 0x37D7 JUMP JUMPDEST PUSH2 0x2B18 JUMP JUMPDEST STOP JUMPDEST PUSH2 0x765 PUSH1 0x4 DUP1 CALLDATASIZE SUB DUP2 ADD SWAP1 PUSH2 0x760 SWAP2 SWAP1 PUSH2 0x3BBC JUMP JUMPDEST PUSH2 0x2CF9 JUMP JUMPDEST PUSH1 0x40 MLOAD PUSH2 0x77D SWAP13 SWAP12 SWAP11 SWAP10 SWAP9 SWAP8 SWAP7 SWAP6 SWAP5 SWAP4 SWAP3 SWAP2 SWAP1 PUSH2 0x3D40 JUMP JUMPDEST PUSH1 0x40 MLOAD DUP1 SWAP2 SUB SWAP1 RETURN JUMPDEST PUSH2 0x78E PUSH2 0x31A4 JUMP JUMPDEST PUSH1 0x40 MLOAD PUSH2 0x79B SWAP2 SWAP1 PUSH2 0x3B79 JUMP JUMPDEST PUSH1 0x40 MLOAD DUP1 SWAP2 SUB SWAP1 RETURN JUMPDEST PUSH2 0x7BE PUSH1 0x4 DUP1 CALLDATASIZE SUB DUP2 ADD SWAP1 PUSH2 0x7B9 SWAP2 SWAP1 PUSH2 0x3BBC JUMP JUMPDEST PUSH2 0x31CA JUMP JUMPDEST PUSH1 0x40 MLOAD PUSH2 0x7CB SWAP2 SWAP1 PUSH2 0x381A JUMP JUMPDEST PUSH1 0x40 MLOAD DUP1 SWAP2 SUB SWAP1 RETURN JUMPDEST PUSH1 0x8 PUSH0 SWAP1 SLOAD SWAP1 PUSH2 0x100 EXP SWAP1 DIV PUSH1 0xFF AND DUP2 JUMP JUMPDEST PUSH1 0x3 PUSH1 0x20 MSTORE DUP1 PUSH0 MSTORE PUSH1 0x40 PUSH0 KECCAK256 PUSH0 SWAP2 POP SWAP1 POP SLOAD DUP2 JUMP JUMPDEST PUSH2 0x803 PUSH2 0x320B JUMP JUMPDEST PUSH5 0x2540BE400 PUSH1 0xB PUSH0 SWAP1 SLOAD SWAP1 PUSH2 0x100 EXP SWAP1 DIV PUSH20 0xFFFFFFFFFFFFFFFFFFFFFFFFFFFFFFFFFFFFFFFF AND PUSH20 0xFFFFFFFFFFFFFFFFFFFFFFFFFFFFFFFFFFFFFFFF AND PUSH4 0x70A08231 CALLER PUSH1 0x40 MLOAD DUP3 PUSH4 0xFFFFFFFF AND PUSH1 0xE0 SHL DUP2 MSTORE PUSH1 0x4 ADD PUSH2 0x863 SWAP2 SWAP1 PUSH2 0x3B79 JUMP JUMPDEST PUSH1 0x20 PUSH1 0x40 MLOAD DUP1 DUP4 SUB DUP2 DUP7 GAS STATICCALL ISZERO DUP1 ISZERO PUSH2 0x87E JUMPI RETURNDATASIZE PUSH0 DUP1 RETURNDATACOPY RETURNDATASIZE PUSH0 REVERT JUMPDEST POP POP POP POP PUSH1 0x40 MLOAD RETURNDATASIZE PUSH1 0x1F NOT PUSH1 0x1F DUP3 ADD AND DUP3 ADD DUP1 PUSH1 0x40 MSTORE POP DUP2 ADD SWAP1 PUSH2 0x8A2 SWAP2 SWAP1 PUSH2 0x3E44 JUMP JUMPDEST LT ISZERO PUSH2 0x8E3 JUMPI PUSH1 0x40 MLOAD PUSH32 0x8C379A000000000000000000000000000000000000000000000000000000000 DUP2 MSTORE PUSH1 0x4 ADD PUSH2 0x8DA SWAP1 PUSH2 0x3EDF JUMP JUMPDEST PUSH1 0x40 MLOAD DUP1 SWAP2 SUB SWAP1 REVERT JUMPDEST PUSH2 0x936 CALLER ADDRESS PUSH5 0x2540BE400 PUSH1 0xB PUSH0 SWAP1 SLOAD SWAP1 PUSH2 0x100 EXP SWAP1 DIV PUSH20 0xFFFFFFFFFFFFFFFFFFFFFFFFFFFFFFFFFFFFFFFF AND PUSH20 0xFFFFFFFFFFFFFFFFFFFFFFFFFFFFFFFFFFFFFFFF AND PUSH2 0x3258 SWAP1 SWAP4 SWAP3 SWAP2 SWAP1 PUSH4 0xFFFFFFFF AND JUMP JUMPDEST PUSH1 0x40 MLOAD DUP1 PUSH2 0x180 ADD PUSH1 0x40 MSTORE DUP1 DUP7 DUP2 MSTORE PUSH1 0x20 ADD DUP6 DUP2 MSTORE PUSH1 0x20 ADD DUP5 DUP2 MSTORE PUSH1 0x20 ADD PUSH1 0x40 MLOAD DUP1 PUSH1 0x20 ADD PUSH1 0x40 MSTORE DUP1 PUSH0 DUP2 MSTORE POP DUP2 MSTORE PUSH1 0x20 ADD PUSH1 0x40 MLOAD DUP1 PUSH1 0x20 ADD PUSH1 0x40 MSTORE DUP1 PUSH0 DUP2 MSTORE POP DUP2 MSTORE PUSH1 0x20 ADD PUSH1 0x40 MLOAD DUP1 PUSH1 0x20 ADD PUSH1 0x40 MSTORE DUP1 PUSH0 DUP2 MSTORE POP DUP2 MSTORE PUSH1 0x20 ADD DUP4 DUP2 MSTORE PUSH1 0x20 ADD DUP3 DUP2 MSTORE PUSH1 0x20 ADD CALLER PUSH20 0xFFFFFFFFFFFFFFFFFFFFFFFFFFFFFFFFFFFFFFFF AND DUP2 MSTORE PUSH1 0x20 ADD PUSH0 DUP2 MSTORE PUSH1 0x20 ADD TIMESTAMP DUP2 MSTORE PUSH1 0x20 ADD PUSH1 0x1 DUP2 MSTORE POP PUSH1 0x5 PUSH0 PUSH1 0x6 SLOAD DUP2 MSTORE PUSH1 0x20 ADD SWAP1 DUP2 MSTORE PUSH1 0x20 ADD PUSH0 KECCAK256 PUSH0 DUP3 ADD MLOAD DUP2 PUSH0 ADD SWAP1 DUP2 PUSH2 0x9EF SWAP2 SWAP1 PUSH2 0x40EE JUMP JUMPDEST POP PUSH1 0x20 DUP3 ADD MLOAD DUP2 PUSH1 0x1 ADD SWAP1 DUP2 PUSH2 0xA05 SWAP2 SWAP1 PUSH2 0x40EE JUMP JUMPDEST POP PUSH1 0x40 DUP3 ADD MLOAD DUP2 PUSH1 0x2 ADD SWAP1 DUP2 PUSH2 0xA1B SWAP2 SWAP1 PUSH2 0x40EE JUMP JUMPDEST POP PUSH1 0x60 DUP3 ADD MLOAD DUP2 PUSH1 0x3 ADD SWAP1 DUP2 PUSH2 0xA31 SWAP2 SWAP1 PUSH2 0x40EE JUMP JUMPDEST POP PUSH1 0x80 DUP3 ADD MLOAD DUP2 PUSH1 0x4 ADD SWAP1 DUP2 PUSH2 0xA47 SWAP2 SWAP1 PUSH2 0x40EE JUMP JUMPDEST POP PUSH1 0xA0 DUP3 ADD MLOAD DUP2 PUSH1 0x5 ADD SWAP1 DUP2 PUSH2 0xA5D SWAP2 SWAP1 PUSH2 0x40EE JUMP JUMPDEST POP PUSH1 0xC0 DUP3 ADD MLOAD DUP2 PUSH1 0x6 ADD SWAP1 DUP2 PUSH2 0xA73 SWAP2 SWAP1 PUSH2 0x40EE JUMP JUMPDEST POP PUSH1 0xE0 DUP3 ADD MLOAD DUP2 PUSH1 0x7 ADD SWAP1 DUP2 PUSH2 0xA89 SWAP2 SWAP1 PUSH2 0x40EE JUMP JUMPDEST POP PUSH2 0x100 DUP3 ADD MLOAD DUP2 PUSH1 0x8 ADD PUSH0 PUSH2 0x100 EXP DUP2 SLOAD DUP2 PUSH20 0xFFFFFFFFFFFFFFFFFFFFFFFFFFFFFFFFFFFFFFFF MUL NOT AND SWAP1 DUP4 PUSH20 0xFFFFFFFFFFFFFFFFFFFFFFFFFFFFFFFFFFFFFFFF AND MUL OR SWAP1 SSTORE POP PUSH2 0x120 DUP3 ADD MLOAD DUP2 PUSH1 0x9 ADD SSTORE PUSH2 0x140 DUP3 ADD MLOAD DUP2 PUSH1 0xA ADD SSTORE PUSH2 0x160 DUP3 ADD MLOAD DUP2 PUSH1 0xB ADD SSTORE SWAP1 POP POP PUSH32 0xF0D06E2E518A804C9A10FA68CAB030EDCF83B96217600C6415D780008923FEF6 PUSH1 0x6 SLOAD CALLER PUSH1 0x40 MLOAD PUSH2 0xB28 SWAP3 SWAP2 SWAP1 PUSH2 0x41BD JUMP JUMPDEST PUSH1 0x40 MLOAD DUP1 SWAP2 SUB SWAP1 LOG1 PUSH1 0x6 PUSH0 DUP2 SLOAD DUP1 SWAP3 SWAP2 SWAP1 PUSH2 0xB42 SWAP1 PUSH2 0x4211 JUMP JUMPDEST SWAP2 SWAP1 POP SSTORE POP PUSH2 0xB4F PUSH2 0x32DA JUMP JUMPDEST POP POP POP POP POP JUMP JUMPDEST PUSH1 0xB PUSH0 SWAP1 SLOAD SWAP1 PUSH2 0x100 EXP SWAP1 DIV PUSH20 0xFFFFFFFFFFFFFFFFFFFFFFFFFFFFFFFFFFFFFFFF AND DUP2 JUMP JUMPDEST PUSH1 0x1 PUSH1 0x20 MSTORE DUP1 PUSH0 MSTORE PUSH1 0x40 PUSH0 KECCAK256 PUSH0 SWAP2 POP SWAP1 POP SLOAD DUP2 JUMP JUMPDEST PUSH1 0x8 PUSH1 0x1 SWAP1 SLOAD SWAP1 PUSH2 0x100 EXP SWAP1 DIV PUSH20 0xFFFFFFFFFFFFFFFFFFFFFFFFFFFFFFFFFFFFFFFF AND PUSH20 0xFFFFFFFFFFFFFFFFFFFFFFFFFFFFFFFFFFFFFFFF AND CALLER PUSH20 0xFFFFFFFFFFFFFFFFFFFFFFFFFFFFFFFFFFFFFFFF AND EQ PUSH2 0xC20 JUMPI PUSH1 0x40 MLOAD PUSH32 0x8C379A000000000000000000000000000000000000000000000000000000000 DUP2 MSTORE PUSH1 0x4 ADD PUSH2 0xC17 SWAP1 PUSH2 0x42C8 JUMP JUMPDEST PUSH1 0x40 MLOAD DUP1 SWAP2 SUB SWAP1 REVERT JUMPDEST PUSH1 0x40 MLOAD DUP1 PUSH1 0x40 ADD PUSH1 0x40 MSTORE DUP1 PUSH1 0x11 DUP2 MSTORE PUSH1 0x20 ADD PUSH32 0x6368616E67655365636F6E6441646D696E000000000000000000000000000000 DUP2 MSTORE POP DUP1 MLOAD SWAP1 PUSH1 0x20 ADD KECCAK256 DUP3 DUP1 MLOAD SWAP1 PUSH1 0x20 ADD KECCAK256 EQ PUSH2 0xCA5 JUMPI PUSH1 0x40 MLOAD PUSH32 0x8C379A000000000000000000000000000000000000000000000000000000000 DUP2 MSTORE PUSH1 0x4 ADD PUSH2 0xC9C SWAP1 PUSH2 0x4356 JUMP JUMPDEST PUSH1 0x40 MLOAD DUP1 SWAP2 SUB SWAP1 REVERT JUMPDEST DUP1 PUSH1 0xC DUP4 PUSH1 0x40 MLOAD PUSH2 0xCB6 SWAP2 SWAP1 PUSH2 0x43AE JUMP JUMPDEST SWAP1 DUP2 MSTORE PUSH1 0x20 ADD PUSH1 0x40 MLOAD DUP1 SWAP2 SUB SWAP1 KECCAK256 PUSH0 PUSH2 0x100 EXP DUP2 SLOAD DUP2 PUSH1 0xFF MUL NOT AND SWAP1 DUP4 ISZERO ISZERO MUL OR SWAP1 SSTORE POP POP POP JUMP JUMPDEST PUSH1 0x4 PUSH1 0x20 MSTORE DUP1 PUSH0 MSTORE PUSH1 0x40 PUSH0 KECCAK256 PUSH0 SWAP2 POP SWAP1 POP SLOAD DUP2 JUMP JUMPDEST PUSH1 0x9 PUSH0 SWAP1 SLOAD SWAP1 PUSH2 0x100 EXP SWAP1 DIV PUSH20 0xFFFFFFFFFFFFFFFFFFFFFFFFFFFFFFFFFFFFFFFF AND DUP2 JUMP JUMPDEST PUSH1 0x8 PUSH1 0x1 SWAP1 SLOAD SWAP1 PUSH2 0x100 EXP SWAP1 DIV PUSH20 0xFFFFFFFFFFFFFFFFFFFFFFFFFFFFFFFFFFFFFFFF AND PUSH20 0xFFFFFFFFFFFFFFFFFFFFFFFFFFFFFFFFFFFFFFFF AND CALLER PUSH20 0xFFFFFFFFFFFFFFFFFFFFFFFFFFFFFFFFFFFFFFFF AND EQ PUSH2 0xDA8 JUMPI PUSH1 0x40 MLOAD PUSH32 0x8C379A000000000000000000000000000000000000000000000000000000000 DUP2 MSTORE PUSH1 0x4 ADD PUSH2 0xD9F SWAP1 PUSH2 0x42C8 JUMP JUMPDEST PUSH1 0x40 MLOAD DUP1 SWAP2 SUB SWAP1 REVERT JUMPDEST PUSH1 0x40 MLOAD DUP1 PUSH1 0x40 ADD PUSH1 0x40 MSTORE DUP1 PUSH1 0xD DUP2 MSTORE PUSH1 0x20 ADD PUSH32 0x72656A656374456C656D656E7400000000000000000000000000000000000000 DUP2 MSTORE POP PUSH1 0xC DUP2 PUSH1 0x40 MLOAD PUSH2 0xDEE SWAP2 SWAP1 PUSH2 0x43AE JUMP JUMPDEST SWAP1 DUP2 MSTORE PUSH1 0x20 ADD PUSH1 0x40 MLOAD DUP1 SWAP2 SUB SWAP1 KECCAK256 PUSH0 SWAP1 SLOAD SWAP1 PUSH2 0x100 EXP SWAP1 DIV PUSH1 0xFF AND PUSH2 0xE48 JUMPI PUSH1 0x40 MLOAD PUSH32 0x8C379A000000000000000000000000000000000000000000000000000000000 DUP2 MSTORE PUSH1 0x4 ADD PUSH2 0xE3F SWAP1 PUSH2 0x440E JUMP JUMPDEST PUSH1 0x40 MLOAD DUP1 SWAP2 SUB SWAP1 REVERT JUMPDEST PUSH0 PUSH1 0x5 PUSH0 DUP5 DUP2 MSTORE PUSH1 0x20 ADD SWAP1 DUP2 MSTORE PUSH1 0x20 ADD PUSH0 KECCAK256 PUSH1 0x9 ADD SLOAD EQ PUSH2 0xE9E JUMPI PUSH1 0x40 MLOAD PUSH32 0x8C379A000000000000000000000000000000000000000000000000000000000 DUP2 MSTORE PUSH1 0x4 ADD PUSH2 0xE95 SWAP1 PUSH2 0x4476 JUMP JUMPDEST PUSH1 0x40 MLOAD DUP1 SWAP2 SUB SWAP1 REVERT JUMPDEST PUSH1 0x5 DUP1 PUSH0 DUP5 DUP2 MSTORE PUSH1 0x20 ADD SWAP1 DUP2 MSTORE PUSH1 0x20 ADD PUSH0 KECCAK256 PUSH1 0x9 ADD DUP2 SWAP1 SSTORE POP PUSH32 0x7421121A093BC9EB406A03CD9273C7EFBF9D3D438D9904850F9048ABF95BB7F4 DUP3 PUSH1 0x40 MLOAD PUSH2 0xEE6 SWAP2 SWAP1 PUSH2 0x381A JUMP JUMPDEST PUSH1 0x40 MLOAD DUP1 SWAP2 SUB SWAP1 LOG1 POP POP JUMP JUMPDEST PUSH0 DUP1 DUP3 TIMESTAMP PUSH2 0xF00 SWAP2 SWAP1 PUSH2 0x4494 JUMP JUMPDEST SWAP1 POP PUSH0 PUSH2 0xF0C DUP3 PUSH2 0x31CA JUMP JUMPDEST SWAP1 POP PUSH0 PUSH1 0xC PUSH1 0x64 DUP4 DUP9 PUSH2 0xF1F SWAP2 SWAP1 PUSH2 0x44C7 JUMP JUMPDEST PUSH2 0xF29 SWAP2 SWAP1 PUSH2 0x4535 JUMP JUMPDEST PUSH2 0xF33 SWAP2 SWAP1 PUSH2 0x4535 JUMP JUMPDEST SWAP1 POP DUP1 SWAP4 POP POP POP POP SWAP3 SWAP2 POP POP JUMP JUMPDEST PUSH2 0xF49 PUSH2 0x320B JUMP JUMPDEST PUSH3 0xF4240 DUP2 LT ISZERO PUSH2 0xF8F JUMPI PUSH1 0x40 MLOAD PUSH32 0x8C379A000000000000000000000000000000000000000000000000000000000 DUP2 MSTORE PUSH1 0x4 ADD PUSH2 0xF86 SWAP1 PUSH2 0x45D5 JUMP JUMPDEST PUSH1 0x40 MLOAD DUP1 SWAP2 SUB SWAP1 REVERT JUMPDEST DUP1 PUSH1 0x1 PUSH0 CALLER PUSH20 0xFFFFFFFFFFFFFFFFFFFFFFFFFFFFFFFFFFFFFFFF AND PUSH20 0xFFFFFFFFFFFFFFFFFFFFFFFFFFFFFFFFFFFFFFFF AND DUP2 MSTORE PUSH1 0x20 ADD SWAP1 DUP2 MSTORE PUSH1 0x20 ADD PUSH0 KECCAK256 SLOAD LT ISZERO PUSH2 0x100F JUMPI PUSH1 0x40 MLOAD PUSH32 0x8C379A000000000000000000000000000000000000000000000000000000000 DUP2 MSTORE PUSH1 0x4 ADD PUSH2 0x1006 SWAP1 PUSH2 0x463D JUMP JUMPDEST PUSH1 0x40 MLOAD DUP1 SWAP2 SUB SWAP1 REVERT JUMPDEST DUP1 PUSH1 0x1 PUSH0 CALLER PUSH20 0xFFFFFFFFFFFFFFFFFFFFFFFFFFFFFFFFFFFFFFFF AND PUSH20 0xFFFFFFFFFFFFFFFFFFFFFFFFFFFFFFFFFFFFFFFF AND DUP2 MSTORE PUSH1 0x20 ADD SWAP1 DUP2 MSTORE PUSH1 0x20 ADD PUSH0 KECCAK256 PUSH0 DUP3 DUP3 SLOAD PUSH2 0x105B SWAP2 SWAP1 PUSH2 0x4494 JUMP JUMPDEST SWAP3 POP POP DUP2 SWAP1 SSTORE POP DUP1 PUSH1 0x7 PUSH0 DUP3 DUP3 SLOAD PUSH2 0x1073 SWAP2 SWAP1 PUSH2 0x4494 JUMP JUMPDEST SWAP3 POP POP DUP2 SWAP1 SSTORE POP TIMESTAMP PUSH1 0x3 PUSH0 CALLER PUSH20 0xFFFFFFFFFFFFFFFFFFFFFFFFFFFFFFFFFFFFFFFF AND PUSH20 0xFFFFFFFFFFFFFFFFFFFFFFFFFFFFFFFFFFFFFFFF AND DUP2 MSTORE PUSH1 0x20 ADD SWAP1 DUP2 MSTORE PUSH1 0x20 ADD PUSH0 KECCAK256 DUP2 SWAP1 SSTORE POP PUSH2 0x1108 CALLER DUP3 PUSH1 0xB PUSH0 SWAP1 SLOAD SWAP1 PUSH2 0x100 EXP SWAP1 DIV PUSH20 0xFFFFFFFFFFFFFFFFFFFFFFFFFFFFFFFFFFFFFFFF AND PUSH20 0xFFFFFFFFFFFFFFFFFFFFFFFFFFFFFFFFFFFFFFFF AND PUSH2 0x32E3 SWAP1 SWAP3 SWAP2 SWAP1 PUSH4 0xFFFFFFFF AND JUMP JUMPDEST PUSH2 0x1110 PUSH2 0x32DA JUMP JUMPDEST POP JUMP JUMPDEST PUSH1 0xC PUSH2 0xE10 PUSH2 0x1122 SWAP2 SWAP1 PUSH2 0x4535 JUMP JUMPDEST DUP2 JUMP JUMPDEST PUSH1 0x9 PUSH0 SWAP1 SLOAD SWAP1 PUSH2 0x100 EXP SWAP1 DIV PUSH20 0xFFFFFFFFFFFFFFFFFFFFFFFFFFFFFFFFFFFFFFFF AND PUSH20 0xFFFFFFFFFFFFFFFFFFFFFFFFFFFFFFFFFFFFFFFF AND CALLER PUSH20 0xFFFFFFFFFFFFFFFFFFFFFFFFFFFFFFFFFFFFFFFF AND EQ PUSH2 0x11B4 JUMPI PUSH1 0x40 MLOAD PUSH32 0x8C379A000000000000000000000000000000000000000000000000000000000 DUP2 MSTORE PUSH1 0x4 ADD PUSH2 0x11AB SWAP1 PUSH2 0x46CB JUMP JUMPDEST PUSH1 0x40 MLOAD DUP1 SWAP2 SUB SWAP1 REVERT JUMPDEST PUSH1 0x40 MLOAD DUP1 PUSH1 0x40 ADD PUSH1 0x40 MSTORE DUP1 PUSH1 0x11 DUP2 MSTORE PUSH1 0x20 ADD PUSH32 0x6368616E67655365636F6E6441646D696E000000000000000000000000000000 DUP2 MSTORE POP DUP1 MLOAD SWAP1 PUSH1 0x20 ADD KECCAK256 DUP3 DUP1 MLOAD SWAP1 PUSH1 0x20 ADD KECCAK256 SUB PUSH2 0x1239 JUMPI PUSH1 0x40 MLOAD PUSH32 0x8C379A000000000000000000000000000000000000000000000000000000000 DUP2 MSTORE PUSH1 0x4 ADD PUSH2 0x1230 SWAP1 PUSH2 0x4759 JUMP JUMPDEST PUSH1 0x40 MLOAD DUP1 SWAP2 SUB SWAP1 REVERT JUMPDEST DUP1 PUSH1 0xC DUP4 PUSH1 0x40 MLOAD PUSH2 0x124A SWAP2 SWAP1 PUSH2 0x43AE JUMP JUMPDEST SWAP1 DUP2 MSTORE PUSH1 0x20 ADD PUSH1 0x40 MLOAD DUP1 SWAP2 SUB SWAP1 KECCAK256 PUSH0 PUSH2 0x100 EXP DUP2 SLOAD DUP2 PUSH1 0xFF MUL NOT AND SWAP1 DUP4 ISZERO ISZERO MUL OR SWAP1 SSTORE POP POP POP JUMP JUMPDEST PUSH1 0x8 PUSH1 0x1 SWAP1 SLOAD SWAP1 PUSH2 0x100 EXP SWAP1 DIV PUSH20 0xFFFFFFFFFFFFFFFFFFFFFFFFFFFFFFFFFFFFFFFF AND PUSH20 0xFFFFFFFFFFFFFFFFFFFFFFFFFFFFFFFFFFFFFFFF AND CALLER PUSH20 0xFFFFFFFFFFFFFFFFFFFFFFFFFFFFFFFFFFFFFFFF AND EQ PUSH2 0x1302 JUMPI PUSH1 0x40 MLOAD PUSH32 0x8C379A000000000000000000000000000000000000000000000000000000000 DUP2 MSTORE PUSH1 0x4 ADD PUSH2 0x12F9 SWAP1 PUSH2 0x42C8 JUMP JUMPDEST PUSH1 0x40 MLOAD DUP1 SWAP2 SUB SWAP1 REVERT JUMPDEST PUSH1 0x40 MLOAD DUP1 PUSH1 0x40 ADD PUSH1 0x40 MSTORE DUP1 PUSH1 0xC DUP2 MSTORE PUSH1 0x20 ADD PUSH32 0x7265667573655570646174650000000000000000000000000000000000000000 DUP2 MSTORE POP PUSH1 0xC DUP2 PUSH1 0x40 MLOAD PUSH2 0x1348 SWAP2 SWAP1 PUSH2 0x43AE JUMP JUMPDEST SWAP1 DUP2 MSTORE PUSH1 0x20 ADD PUSH1 0x40 MLOAD DUP1 SWAP2 SUB SWAP1 KECCAK256 PUSH0 SWAP1 SLOAD SWAP1 PUSH2 0x100 EXP SWAP1 DIV PUSH1 0xFF AND PUSH2 0x13A2 JUMPI PUSH1 0x40 MLOAD PUSH32 0x8C379A000000000000000000000000000000000000000000000000000000000 DUP2 MSTORE PUSH1 0x4 ADD PUSH2 0x1399 SWAP1 PUSH2 0x440E JUMP JUMPDEST PUSH1 0x40 MLOAD DUP1 SWAP2 SUB SWAP1 REVERT JUMPDEST PUSH1 0x4 PUSH1 0x5 PUSH0 DUP5 DUP2 MSTORE PUSH1 0x20 ADD SWAP1 DUP2 MSTORE PUSH1 0x20 ADD PUSH0 KECCAK256 PUSH1 0x9 ADD SLOAD SUB PUSH2 0x13F9 JUMPI PUSH1 0x40 MLOAD PUSH32 0x8C379A000000000000000000000000000000000000000000000000000000000 DUP2 MSTORE PUSH1 0x4 ADD PUSH2 0x13F0 SWAP1 PUSH2 0x47E7 JUMP JUMPDEST PUSH1 0x40 MLOAD DUP1 SWAP2 SUB SWAP1 REVERT JUMPDEST PUSH1 0x1 PUSH1 0x5 PUSH0 DUP5 DUP2 MSTORE PUSH1 0x20 ADD SWAP1 DUP2 MSTORE PUSH1 0x20 ADD PUSH0 KECCAK256 PUSH1 0x9 ADD SLOAD SUB PUSH2 0x144A JUMPI PUSH1 0x40 MLOAD DUP1 PUSH1 0x20 ADD PUSH1 0x40 MSTORE DUP1 PUSH0 DUP2 MSTORE POP PUSH1 0x5 PUSH0 DUP5 DUP2 MSTORE PUSH1 0x20 ADD SWAP1 DUP2 MSTORE PUSH1 0x20 ADD PUSH0 KECCAK256 PUSH1 0x3 ADD SWAP1 DUP2 PUSH2 0x1444 SWAP2 SWAP1 PUSH2 0x40EE JUMP JUMPDEST POP PUSH2 0x14EA JUMP JUMPDEST PUSH1 0x2 PUSH1 0x5 PUSH0 DUP5 DUP2 MSTORE PUSH1 0x20 ADD SWAP1 DUP2 MSTORE PUSH1 0x20 ADD PUSH0 KECCAK256 PUSH1 0x9 ADD SLOAD SUB PUSH2 0x149B JUMPI PUSH1 0x40 MLOAD DUP1 PUSH1 0x20 ADD PUSH1 0x40 MSTORE DUP1 PUSH0 DUP2 MSTORE POP PUSH1 0x5 PUSH0 DUP5 DUP2 MSTORE PUSH1 0x20 ADD SWAP1 DUP2 MSTORE PUSH1 0x20 ADD PUSH0 KECCAK256 PUSH1 0x4 ADD SWAP1 DUP2 PUSH2 0x1495 SWAP2 SWAP1 PUSH2 0x40EE JUMP JUMPDEST POP PUSH2 0x14E9 JUMP JUMPDEST PUSH1 0x3 PUSH1 0x5 PUSH0 DUP5 DUP2 MSTORE PUSH1 0x20 ADD SWAP1 DUP2 MSTORE PUSH1 0x20 ADD PUSH0 KECCAK256 PUSH1 0x9 ADD SLOAD SUB PUSH2 0x14E8 JUMPI PUSH1 0x40 MLOAD DUP1 PUSH1 0x20 ADD PUSH1 0x40 MSTORE DUP1 PUSH0 DUP2 MSTORE POP PUSH1 0x5 PUSH0 DUP5 DUP2 MSTORE PUSH1 0x20 ADD SWAP1 DUP2 MSTORE PUSH1 0x20 ADD PUSH0 KECCAK256 PUSH1 0x5 ADD SWAP1 DUP2 PUSH2 0x14E6 SWAP2 SWAP1 PUSH2 0x40EE JUMP JUMPDEST POP JUMPDEST JUMPDEST JUMPDEST POP POP JUMP JUMPDEST PUSH1 0x7 SLOAD DUP2 JUMP JUMPDEST PUSH1 0x8 PUSH1 0x1 SWAP1 SLOAD SWAP1 PUSH2 0x100 EXP SWAP1 DIV PUSH20 0xFFFFFFFFFFFFFFFFFFFFFFFFFFFFFFFFFFFFFFFF AND PUSH20 0xFFFFFFFFFFFFFFFFFFFFFFFFFFFFFFFFFFFFFFFF AND CALLER PUSH20 0xFFFFFFFFFFFFFFFFFFFFFFFFFFFFFFFFFFFFFFFF AND EQ PUSH2 0x1584 JUMPI PUSH1 0x40 MLOAD PUSH32 0x8C379A000000000000000000000000000000000000000000000000000000000 DUP2 MSTORE PUSH1 0x4 ADD PUSH2 0x157B SWAP1 PUSH2 0x42C8 JUMP JUMPDEST PUSH1 0x40 MLOAD DUP1 SWAP2 SUB SWAP1 REVERT JUMPDEST PUSH1 0x40 MLOAD DUP1 PUSH1 0x40 ADD PUSH1 0x40 MSTORE DUP1 PUSH1 0xD DUP2 MSTORE PUSH1 0x20 ADD PUSH32 0x636F6E6669726D55706461746500000000000000000000000000000000000000 DUP2 MSTORE POP PUSH1 0xC DUP2 PUSH1 0x40 MLOAD PUSH2 0x15CA SWAP2 SWAP1 PUSH2 0x43AE JUMP JUMPDEST SWAP1 DUP2 MSTORE PUSH1 0x20 ADD PUSH1 0x40 MLOAD DUP1 SWAP2 SUB SWAP1 KECCAK256 PUSH0 SWAP1 SLOAD SWAP1 PUSH2 0x100 EXP SWAP1 DIV PUSH1 0xFF AND PUSH2 0x1624 JUMPI PUSH1 0x40 MLOAD PUSH32 0x8C379A000000000000000000000000000000000000000000000000000000000 DUP2 MSTORE PUSH1 0x4 ADD PUSH2 0x161B SWAP1 PUSH2 0x440E JUMP JUMPDEST PUSH1 0x40 MLOAD DUP1 SWAP2 SUB SWAP1 REVERT JUMPDEST PUSH1 0x4 PUSH1 0x5 PUSH0 DUP5 DUP2 MSTORE PUSH1 0x20 ADD SWAP1 DUP2 MSTORE PUSH1 0x20 ADD PUSH0 KECCAK256 PUSH1 0x9 ADD SLOAD SUB PUSH2 0x167B JUMPI PUSH1 0x40 MLOAD PUSH32 0x8C379A000000000000000000000000000000000000000000000000000000000 DUP2 MSTORE PUSH1 0x4 ADD PUSH2 0x1672 SWAP1 PUSH2 0x47E7 JUMP JUMPDEST PUSH1 0x40 MLOAD DUP1 SWAP2 SUB SWAP1 REVERT JUMPDEST PUSH1 0x1 PUSH1 0x5 PUSH0 DUP5 DUP2 MSTORE PUSH1 0x20 ADD SWAP1 DUP2 MSTORE PUSH1 0x20 ADD PUSH0 KECCAK256 PUSH1 0x9 ADD SLOAD SUB PUSH2 0x16B6 JUMPI PUSH1 0x2 PUSH1 0x5 PUSH0 DUP5 DUP2 MSTORE PUSH1 0x20 ADD SWAP1 DUP2 MSTORE PUSH1 0x20 ADD PUSH0 KECCAK256 PUSH1 0x9 ADD DUP2 SWAP1 SSTORE POP PUSH2 0x172A JUMP JUMPDEST PUSH1 0x2 PUSH1 0x5 PUSH0 DUP5 DUP2 MSTORE PUSH1 0x20 ADD SWAP1 DUP2 MSTORE PUSH1 0x20 ADD PUSH0 KECCAK256 PUSH1 0x9 ADD SLOAD SUB PUSH2 0x16F1 JUMPI PUSH1 0x3 PUSH1 0x5 PUSH0 DUP5 DUP2 MSTORE PUSH1 0x20 ADD SWAP1 DUP2 MSTORE PUSH1 0x20 ADD PUSH0 KECCAK256 PUSH1 0x9 ADD DUP2 SWAP1 SSTORE POP PUSH2 0x1729 JUMP JUMPDEST PUSH1 0x3 PUSH1 0x5 PUSH0 DUP5 DUP2 MSTORE PUSH1 0x20 ADD SWAP1 DUP2 MSTORE PUSH1 0x20 ADD PUSH0 KECCAK256 PUSH1 0x9 ADD SLOAD SUB PUSH2 0x1728 JUMPI PUSH1 0x4 PUSH1 0x5 PUSH0 DUP5 DUP2 MSTORE PUSH1 0x20 ADD SWAP1 DUP2 MSTORE PUSH1 0x20 ADD PUSH0 KECCAK256 PUSH1 0x9 ADD DUP2 SWAP1 SSTORE POP JUMPDEST JUMPDEST JUMPDEST PUSH2 0x3E8 PUSH1 0x5 PUSH0 DUP5 DUP2 MSTORE PUSH1 0x20 ADD SWAP1 DUP2 MSTORE PUSH1 0x20 ADD PUSH0 KECCAK256 PUSH1 0xB ADD PUSH0 DUP3 DUP3 SLOAD PUSH2 0x174F SWAP2 SWAP1 PUSH2 0x4805 JUMP JUMPDEST SWAP3 POP POP DUP2 SWAP1 SSTORE POP POP POP JUMP JUMPDEST PUSH0 PUSH1 0x7 SLOAD SWAP1 POP SWAP1 JUMP JUMPDEST PUSH2 0xE10 DUP2 JUMP JUMPDEST PUSH0 DUP1 PUSH1 0x1 PUSH0 DUP5 PUSH20 0xFFFFFFFFFFFFFFFFFFFFFFFFFFFFFFFFFFFFFFFF AND PUSH20 0xFFFFFFFFFFFFFFFFFFFFFFFFFFFFFFFFFFFFFFFF AND DUP2 MSTORE PUSH1 0x20 ADD SWAP1 DUP2 MSTORE PUSH1 0x20 ADD PUSH0 KECCAK256 SLOAD SUB PUSH2 0x17B6 JUMPI PUSH0 SWAP1 POP PUSH2 0x1940 JUMP JUMPDEST PUSH0 PUSH1 0x3 PUSH0 DUP5 PUSH20 0xFFFFFFFFFFFFFFFFFFFFFFFFFFFFFFFFFFFFFFFF AND PUSH20 0xFFFFFFFFFFFFFFFFFFFFFFFFFFFFFFFFFFFFFFFF AND DUP2 MSTORE PUSH1 0x20 ADD SWAP1 DUP2 MSTORE PUSH1 0x20 ADD PUSH0 KECCAK256 SLOAD TIMESTAMP PUSH2 0x1800 SWAP2 SWAP1 PUSH2 0x4494 JUMP JUMPDEST SWAP1 POP PUSH1 0xC PUSH2 0xE10 PUSH2 0x1811 SWAP2 SWAP1 PUSH2 0x4535 JUMP JUMPDEST DUP2 LT ISZERO PUSH2 0x1821 JUMPI PUSH0 SWAP2 POP POP PUSH2 0x1940 JUMP JUMPDEST PUSH0 DUP1 PUSH1 0xC PUSH2 0xE10 PUSH2 0x1832 SWAP2 SWAP1 PUSH2 0x4535 JUMP JUMPDEST DUP4 PUSH2 0x183D SWAP2 SWAP1 PUSH2 0x4535 JUMP JUMPDEST SWAP1 POP PUSH0 JUMPDEST DUP2 DUP2 LT ISZERO PUSH2 0x191B JUMPI PUSH0 PUSH1 0xC PUSH2 0xE10 PUSH2 0x1859 SWAP2 SWAP1 PUSH2 0x4535 JUMP JUMPDEST DUP3 PUSH2 0x1864 SWAP2 SWAP1 PUSH2 0x44C7 JUMP JUMPDEST PUSH1 0x3 PUSH0 DUP10 PUSH20 0xFFFFFFFFFFFFFFFFFFFFFFFFFFFFFFFFFFFFFFFF AND PUSH20 0xFFFFFFFFFFFFFFFFFFFFFFFFFFFFFFFFFFFFFFFF AND DUP2 MSTORE PUSH1 0x20 ADD SWAP1 DUP2 MSTORE PUSH1 0x20 ADD PUSH0 KECCAK256 SLOAD PUSH2 0x18AC SWAP2 SWAP1 PUSH2 0x4805 JUMP JUMPDEST SWAP1 POP PUSH0 PUSH2 0x18F6 PUSH1 0x1 PUSH0 DUP11 PUSH20 0xFFFFFFFFFFFFFFFFFFFFFFFFFFFFFFFFFFFFFFFF AND PUSH20 0xFFFFFFFFFFFFFFFFFFFFFFFFFFFFFFFFFFFFFFFF AND DUP2 MSTORE PUSH1 0x20 ADD SWAP1 DUP2 MSTORE PUSH1 0x20 ADD PUSH0 KECCAK256 SLOAD DUP4 PUSH2 0xEF2 JUMP JUMPDEST SWAP1 POP DUP1 DUP6 PUSH2 0x1904 SWAP2 SWAP1 PUSH2 0x4805 JUMP JUMPDEST SWAP5 POP POP POP DUP1 DUP1 PUSH2 0x1913 SWAP1 PUSH2 0x4211 JUMP JUMPDEST SWAP2 POP POP PUSH2 0x1841 JUMP JUMPDEST POP PUSH0 PUSH1 0x64 PUSH1 0x3C DUP5 PUSH2 0x192C SWAP2 SWAP1 PUSH2 0x44C7 JUMP JUMPDEST PUSH2 0x1936 SWAP2 SWAP1 PUSH2 0x4535 JUMP JUMPDEST SWAP1 POP DUP1 SWAP5 POP POP POP POP POP JUMPDEST SWAP2 SWAP1 POP JUMP JUMPDEST PUSH1 0xC DUP2 DUP1 MLOAD PUSH1 0x20 DUP2 ADD DUP3 ADD DUP1 MLOAD DUP5 DUP3 MSTORE PUSH1 0x20 DUP4 ADD PUSH1 0x20 DUP6 ADD KECCAK256 DUP2 DUP4 MSTORE DUP1 SWAP6 POP POP POP POP POP POP PUSH0 SWAP2 POP SLOAD SWAP1 PUSH2 0x100 EXP SWAP1 DIV PUSH1 0xFF AND DUP2 JUMP JUMPDEST PUSH1 0x6 SLOAD DUP2 JUMP JUMPDEST PUSH0 DUP1 PUSH0 SWAP1 POP JUMPDEST PUSH1 0x6 SLOAD DUP2 LT ISZERO PUSH2 0x1A45 JUMPI DUP3 PUSH20 0xFFFFFFFFFFFFFFFFFFFFFFFFFFFFFFFFFFFFFFFF AND PUSH1 0x5 PUSH0 DUP4 DUP2 MSTORE PUSH1 0x20 ADD SWAP1 DUP2 MSTORE PUSH1 0x20 ADD PUSH0 KECCAK256 PUSH1 0x8 ADD PUSH0 SWAP1 SLOAD SWAP1 PUSH2 0x100 EXP SWAP1 DIV PUSH20 0xFFFFFFFFFFFFFFFFFFFFFFFFFFFFFFFFFFFFFFFF AND PUSH20 0xFFFFFFFFFFFFFFFFFFFFFFFFFFFFFFFFFFFFFFFF AND EQ DUP1 ISZERO PUSH2 0x1A23 JUMPI POP PUSH0 PUSH1 0x5 DUP2 GT ISZERO PUSH2 0x1A0C JUMPI PUSH2 0x1A0B PUSH2 0x4838 JUMP JUMPDEST JUMPDEST PUSH1 0x5 PUSH0 DUP4 DUP2 MSTORE PUSH1 0x20 ADD SWAP1 DUP2 MSTORE PUSH1 0x20 ADD PUSH0 KECCAK256 PUSH1 0x9 ADD SLOAD EQ JUMPDEST ISZERO PUSH2 0x1A32 JUMPI PUSH1 0x1 SWAP2 POP POP PUSH2 0x1A4A JUMP JUMPDEST DUP1 DUP1 PUSH2 0x1A3D SWAP1 PUSH2 0x4211 JUMP JUMPDEST SWAP2 POP POP PUSH2 0x1986 JUMP JUMPDEST POP PUSH0 SWAP1 POP JUMPDEST SWAP2 SWAP1 POP JUMP JUMPDEST PUSH2 0x1A57 PUSH2 0x320B JUMP JUMPDEST PUSH0 DUP2 GT PUSH2 0x1A99 JUMPI PUSH1 0x40 MLOAD PUSH32 0x8C379A000000000000000000000000000000000000000000000000000000000 DUP2 MSTORE PUSH1 0x4 ADD PUSH2 0x1A90 SWAP1 PUSH2 0x48AF JUMP JUMPDEST PUSH1 0x40 MLOAD DUP1 SWAP2 SUB SWAP1 REVERT JUMPDEST DUP1 PUSH1 0x2 PUSH0 CALLER PUSH20 0xFFFFFFFFFFFFFFFFFFFFFFFFFFFFFFFFFFFFFFFF AND PUSH20 0xFFFFFFFFFFFFFFFFFFFFFFFFFFFFFFFFFFFFFFFF AND DUP2 MSTORE PUSH1 0x20 ADD SWAP1 DUP2 MSTORE PUSH1 0x20 ADD PUSH0 KECCAK256 SLOAD LT ISZERO PUSH2 0x1B19 JUMPI PUSH1 0x40 MLOAD PUSH32 0x8C379A000000000000000000000000000000000000000000000000000000000 DUP2 MSTORE PUSH1 0x4 ADD PUSH2 0x1B10 SWAP1 PUSH2 0x4917 JUMP JUMPDEST PUSH1 0x40 MLOAD DUP1 SWAP2 SUB SWAP1 REVERT JUMPDEST DUP1 PUSH1 0x2 PUSH0 CALLER PUSH20 0xFFFFFFFFFFFFFFFFFFFFFFFFFFFFFFFFFFFFFFFF AND PUSH20 0xFFFFFFFFFFFFFFFFFFFFFFFFFFFFFFFFFFFFFFFF AND DUP2 MSTORE PUSH1 0x20 ADD SWAP1 DUP2 MSTORE PUSH1 0x20 ADD PUSH0 KECCAK256 PUSH0 DUP3 DUP3 SLOAD PUSH2 0x1B65 SWAP2 SWAP1 PUSH2 0x4494 JUMP JUMPDEST SWAP3 POP POP DUP2 SWAP1 SSTORE POP DUP1 PUSH1 0x5 PUSH0 DUP5 DUP2 MSTORE PUSH1 0x20 ADD SWAP1 DUP2 MSTORE PUSH1 0x20 ADD PUSH0 KECCAK256 PUSH1 0xB ADD PUSH0 DUP3 DUP3 SLOAD PUSH2 0x1B8F SWAP2 SWAP1 PUSH2 0x4805 JUMP JUMPDEST SWAP3 POP POP DUP2 SWAP1 SSTORE POP PUSH2 0x1B9E PUSH2 0x32DA JUMP JUMPDEST POP POP JUMP JUMPDEST PUSH2 0x1BAA PUSH2 0x320B JUMP JUMPDEST PUSH1 0x8 PUSH0 SWAP1 SLOAD SWAP1 PUSH2 0x100 EXP SWAP1 DIV PUSH1 0xFF AND PUSH2 0x1BF8 JUMPI PUSH1 0x40 MLOAD PUSH32 0x8C379A000000000000000000000000000000000000000000000000000000000 DUP2 MSTORE PUSH1 0x4 ADD PUSH2 0x1BEF SWAP1 PUSH2 0x497F JUMP JUMPDEST PUSH1 0x40 MLOAD DUP1 SWAP2 SUB SWAP1 REVERT JUMPDEST PUSH3 0xF4240 DUP2 LT ISZERO PUSH2 0x1C3E JUMPI PUSH1 0x40 MLOAD PUSH32 0x8C379A000000000000000000000000000000000000000000000000000000000 DUP2 MSTORE PUSH1 0x4 ADD PUSH2 0x1C35 SWAP1 PUSH2 0x49E7 JUMP JUMPDEST PUSH1 0x40 MLOAD DUP1 SWAP2 SUB SWAP1 REVERT JUMPDEST PUSH2 0x1C8C CALLER ADDRESS DUP4 PUSH1 0xB PUSH0 SWAP1 SLOAD SWAP1 PUSH2 0x100 EXP SWAP1 DIV PUSH20 0xFFFFFFFFFFFFFFFFFFFFFFFFFFFFFFFFFFFFFFFF AND PUSH20 0xFFFFFFFFFFFFFFFFFFFFFFFFFFFFFFFFFFFFFFFF AND PUSH2 0x3258 SWAP1 SWAP4 SWAP3 SWAP2 SWAP1 PUSH4 0xFFFFFFFF AND JUMP JUMPDEST DUP1 PUSH1 0x1 PUSH0 CALLER PUSH20 0xFFFFFFFFFFFFFFFFFFFFFFFFFFFFFFFFFFFFFFFF AND PUSH20 0xFFFFFFFFFFFFFFFFFFFFFFFFFFFFFFFFFFFFFFFF AND DUP2 MSTORE PUSH1 0x20 ADD SWAP1 DUP2 MSTORE PUSH1 0x20 ADD PUSH0 KECCAK256 PUSH0 DUP3 DUP3 SLOAD PUSH2 0x1CD8 SWAP2 SWAP1 PUSH2 0x4805 JUMP JUMPDEST SWAP3 POP POP DUP2 SWAP1 SSTORE POP DUP1 PUSH1 0x7 PUSH0 DUP3 DUP3 SLOAD PUSH2 0x1CF0 SWAP2 SWAP1 PUSH2 0x4805 JUMP JUMPDEST SWAP3 POP POP DUP2 SWAP1 SSTORE POP PUSH0 PUSH1 0x3 PUSH0 CALLER PUSH20 0xFFFFFFFFFFFFFFFFFFFFFFFFFFFFFFFFFFFFFFFF AND PUSH20 0xFFFFFFFFFFFFFFFFFFFFFFFFFFFFFFFFFFFFFFFF AND DUP2 MSTORE PUSH1 0x20 ADD SWAP1 DUP2 MSTORE PUSH1 0x20 ADD PUSH0 KECCAK256 SLOAD SUB PUSH2 0x1D7E JUMPI TIMESTAMP PUSH1 0x4 PUSH0 CALLER PUSH20 0xFFFFFFFFFFFFFFFFFFFFFFFFFFFFFFFFFFFFFFFF AND PUSH20 0xFFFFFFFFFFFFFFFFFFFFFFFFFFFFFFFFFFFFFFFF AND DUP2 MSTORE PUSH1 0x20 ADD SWAP1 DUP2 MSTORE PUSH1 0x20 ADD PUSH0 KECCAK256 DUP2 SWAP1 SSTORE POP JUMPDEST TIMESTAMP PUSH1 0x3 PUSH0 CALLER PUSH20 0xFFFFFFFFFFFFFFFFFFFFFFFFFFFFFFFFFFFFFFFF AND PUSH20 0xFFFFFFFFFFFFFFFFFFFFFFFFFFFFFFFFFFFFFFFF AND DUP2 MSTORE PUSH1 0x20 ADD SWAP1 DUP2 MSTORE PUSH1 0x20 ADD PUSH0 KECCAK256 DUP2 SWAP1 SSTORE POP PUSH2 0x1DC8 PUSH2 0x32DA JUMP JUMPDEST POP JUMP JUMPDEST PUSH3 0xF4240 DUP2 JUMP JUMPDEST PUSH1 0xA PUSH0 SWAP1 SLOAD SWAP1 PUSH2 0x100 EXP SWAP1 DIV PUSH20 0xFFFFFFFFFFFFFFFFFFFFFFFFFFFFFFFFFFFFFFFF AND DUP2 JUMP JUMPDEST PUSH1 0xA PUSH0 SWAP1 SLOAD SWAP1 PUSH2 0x100 EXP SWAP1 DIV PUSH20 0xFFFFFFFFFFFFFFFFFFFFFFFFFFFFFFFFFFFFFFFF AND PUSH20 0xFFFFFFFFFFFFFFFFFFFFFFFFFFFFFFFFFFFFFFFF AND CALLER PUSH20 0xFFFFFFFFFFFFFFFFFFFFFFFFFFFFFFFFFFFFFFFF AND EQ PUSH2 0x1E86 JUMPI PUSH1 0x40 MLOAD PUSH32 0x8C379A000000000000000000000000000000000000000000000000000000000 DUP2 MSTORE PUSH1 0x4 ADD PUSH2 0x1E7D SWAP1 PUSH2 0x4A75 JUMP JUMPDEST PUSH1 0x40 MLOAD DUP1 SWAP2 SUB SWAP1 REVERT JUMPDEST PUSH1 0x40 MLOAD DUP1 PUSH1 0x40 ADD PUSH1 0x40 MSTORE DUP1 PUSH1 0xB DUP2 MSTORE PUSH1 0x20 ADD PUSH32 0x6368616E676541646D696E000000000000000000000000000000000000000000 DUP2 MSTORE POP PUSH1 0xC DUP2 PUSH1 0x40 MLOAD PUSH2 0x1ECC SWAP2 SWAP1 PUSH2 0x43AE JUMP JUMPDEST SWAP1 DUP2 MSTORE PUSH1 0x20 ADD PUSH1 0x40 MLOAD DUP1 SWAP2 SUB SWAP1 KECCAK256 PUSH0 SWAP1 SLOAD SWAP1 PUSH2 0x100 EXP SWAP1 DIV PUSH1 0xFF AND PUSH2 0x1F26 JUMPI PUSH1 0x40 MLOAD PUSH32 0x8C379A000000000000000000000000000000000000000000000000000000000 DUP2 MSTORE PUSH1 0x4 ADD PUSH2 0x1F1D SWAP1 PUSH2 0x440E JUMP JUMPDEST PUSH1 0x40 MLOAD DUP1 SWAP2 SUB SWAP1 REVERT JUMPDEST PUSH0 PUSH20 0xFFFFFFFFFFFFFFFFFFFFFFFFFFFFFFFFFFFFFFFF AND DUP3 PUSH20 0xFFFFFFFFFFFFFFFFFFFFFFFFFFFFFFFFFFFFFFFF AND SUB PUSH2 0x1F94 JUMPI PUSH1 0x40 MLOAD PUSH32 0x8C379A000000000000000000000000000000000000000000000000000000000 DUP2 MSTORE PUSH1 0x4 ADD PUSH2 0x1F8B SWAP1 PUSH2 0x4ADD JUMP JUMPDEST PUSH1 0x40 MLOAD DUP1 SWAP2 SUB SWAP1 REVERT JUMPDEST DUP2 PUSH1 0x8 PUSH1 0x1 PUSH2 0x100 EXP DUP2 SLOAD DUP2 PUSH20 0xFFFFFFFFFFFFFFFFFFFFFFFFFFFFFFFFFFFFFFFF MUL NOT AND SWAP1 DUP4 PUSH20 0xFFFFFFFFFFFFFFFFFFFFFFFFFFFFFFFFFFFFFFFF AND MUL OR SWAP1 SSTORE POP POP POP JUMP JUMPDEST PUSH1 0x8 PUSH1 0x1 SWAP1 SLOAD SWAP1 PUSH2 0x100 EXP SWAP1 DIV PUSH20 0xFFFFFFFFFFFFFFFFFFFFFFFFFFFFFFFFFFFFFFFF AND PUSH20 0xFFFFFFFFFFFFFFFFFFFFFFFFFFFFFFFFFFFFFFFF AND CALLER PUSH20 0xFFFFFFFFFFFFFFFFFFFFFFFFFFFFFFFFFFFFFFFF AND EQ PUSH2 0x2069 JUMPI PUSH1 0x40 MLOAD PUSH32 0x8C379A000000000000000000000000000000000000000000000000000000000 DUP2 MSTORE PUSH1 0x4 ADD PUSH2 0x2060 SWAP1 PUSH2 0x42C8 JUMP JUMPDEST PUSH1 0x40 MLOAD DUP1 SWAP2 SUB SWAP1 REVERT JUMPDEST PUSH1 0x8 PUSH0 SWAP1 SLOAD SWAP1 PUSH2 0x100 EXP SWAP1 DIV PUSH1 0xFF AND ISZERO PUSH2 0x209B JUMPI PUSH0 PUSH1 0x8 PUSH0 PUSH2 0x100 EXP DUP2 SLOAD DUP2 PUSH1 0xFF MUL NOT AND SWAP1 DUP4 ISZERO ISZERO MUL OR SWAP1 SSTORE POP PUSH2 0x20B6 JUMP JUMPDEST PUSH1 0x1 PUSH1 0x8 PUSH0 PUSH2 0x100 EXP DUP2 SLOAD DUP2 PUSH1 0xFF MUL NOT AND SWAP1 DUP4 ISZERO ISZERO MUL OR SWAP1 SSTORE POP JUMPDEST JUMP JUMPDEST PUSH1 0x8 PUSH1 0x1 SWAP1 SLOAD SWAP1 PUSH2 0x100 EXP SWAP1 DIV PUSH20 0xFFFFFFFFFFFFFFFFFFFFFFFFFFFFFFFFFFFFFFFF AND PUSH20 0xFFFFFFFFFFFFFFFFFFFFFFFFFFFFFFFFFFFFFFFF AND CALLER PUSH20 0xFFFFFFFFFFFFFFFFFFFFFFFFFFFFFFFFFFFFFFFF AND EQ PUSH2 0x2148 JUMPI PUSH1 0x40 MLOAD PUSH32 0x8C379A000000000000000000000000000000000000000000000000000000000 DUP2 MSTORE PUSH1 0x4 ADD PUSH2 0x213F SWAP1 PUSH2 0x42C8 JUMP JUMPDEST PUSH1 0x40 MLOAD DUP1 SWAP2 SUB SWAP1 REVERT JUMPDEST PUSH1 0x40 MLOAD DUP1 PUSH1 0x40 ADD PUSH1 0x40 MSTORE DUP1 PUSH1 0xD DUP2 MSTORE PUSH1 0x20 ADD PUSH32 0x72656D6F7665456C656D656E7400000000000000000000000000000000000000 DUP2 MSTORE POP PUSH1 0xC DUP2 PUSH1 0x40 MLOAD PUSH2 0x218E SWAP2 SWAP1 PUSH2 0x43AE JUMP JUMPDEST SWAP1 DUP2 MSTORE PUSH1 0x20 ADD PUSH1 0x40 MLOAD DUP1 SWAP2 SUB SWAP1 KECCAK256 PUSH0 SWAP1 SLOAD SWAP1 PUSH2 0x100 EXP SWAP1 DIV PUSH1 0xFF AND PUSH2 0x21E8 JUMPI PUSH1 0x40 MLOAD PUSH32 0x8C379A000000000000000000000000000000000000000000000000000000000 DUP2 MSTORE PUSH1 0x4 ADD PUSH2 0x21DF SWAP1 PUSH2 0x440E JUMP JUMPDEST PUSH1 0x40 MLOAD DUP1 SWAP2 SUB SWAP1 REVERT JUMPDEST PUSH1 0x5 DUP1 PUSH0 DUP5 DUP2 MSTORE PUSH1 0x20 ADD SWAP1 DUP2 MSTORE PUSH1 0x20 ADD PUSH0 KECCAK256 PUSH1 0x9 ADD DUP2 SWAP1 SSTORE POP PUSH32 0xCEC9CDFF740B6D842DF3489C0DCAFE7E1592ACFCDAE1E8E5DAED0378935144AA DUP3 PUSH1 0x40 MLOAD PUSH2 0x2230 SWAP2 SWAP1 PUSH2 0x381A JUMP JUMPDEST PUSH1 0x40 MLOAD DUP1 SWAP2 SUB SWAP1 LOG1 POP POP JUMP JUMPDEST CALLER PUSH20 0xFFFFFFFFFFFFFFFFFFFFFFFFFFFFFFFFFFFFFFFF AND PUSH1 0x5 PUSH0 DUP5 DUP2 MSTORE PUSH1 0x20 ADD SWAP1 DUP2 MSTORE PUSH1 0x20 ADD PUSH0 KECCAK256 PUSH1 0x8 ADD PUSH0 SWAP1 SLOAD SWAP1 PUSH2 0x100 EXP SWAP1 DIV PUSH20 0xFFFFFFFFFFFFFFFFFFFFFFFFFFFFFFFFFFFFFFFF AND PUSH20 0xFFFFFFFFFFFFFFFFFFFFFFFFFFFFFFFFFFFFFFFF AND EQ PUSH2 0x22DD JUMPI PUSH1 0x40 MLOAD PUSH32 0x8C379A000000000000000000000000000000000000000000000000000000000 DUP2 MSTORE PUSH1 0x4 ADD PUSH2 0x22D4 SWAP1 PUSH2 0x4B45 JUMP JUMPDEST PUSH1 0x40 MLOAD DUP1 SWAP2 SUB SWAP1 REVERT JUMPDEST DUP1 PUSH1 0x5 PUSH0 DUP5 DUP2 MSTORE PUSH1 0x20 ADD SWAP1 DUP2 MSTORE PUSH1 0x20 ADD PUSH0 KECCAK256 PUSH1 0x4 ADD SWAP1 DUP2 PUSH2 0x22FE SWAP2 SWAP1 PUSH2 0x40EE JUMP JUMPDEST POP TIMESTAMP PUSH1 0x5 PUSH0 DUP5 DUP2 MSTORE PUSH1 0x20 ADD SWAP1 DUP2 MSTORE PUSH1 0x20 ADD PUSH0 KECCAK256 PUSH1 0xA ADD DUP2 SWAP1 SSTORE POP POP POP JUMP JUMPDEST CALLER PUSH20 0xFFFFFFFFFFFFFFFFFFFFFFFFFFFFFFFFFFFFFFFF AND PUSH1 0x5 PUSH0 DUP5 DUP2 MSTORE PUSH1 0x20 ADD SWAP1 DUP2 MSTORE PUSH1 0x20 ADD PUSH0 KECCAK256 PUSH1 0x8 ADD PUSH0 SWAP1 SLOAD SWAP1 PUSH2 0x100 EXP SWAP1 DIV PUSH20 0xFFFFFFFFFFFFFFFFFFFFFFFFFFFFFFFFFFFFFFFF AND PUSH20 0xFFFFFFFFFFFFFFFFFFFFFFFFFFFFFFFFFFFFFFFF AND EQ PUSH2 0x23BD JUMPI PUSH1 0x40 MLOAD PUSH32 0x8C379A000000000000000000000000000000000000000000000000000000000 DUP2 MSTORE PUSH1 0x4 ADD PUSH2 0x23B4 SWAP1 PUSH2 0x4B45 JUMP JUMPDEST PUSH1 0x40 MLOAD DUP1 SWAP2 SUB SWAP1 REVERT JUMPDEST DUP1 PUSH1 0x5 PUSH0 DUP5 DUP2 MSTORE PUSH1 0x20 ADD SWAP1 DUP2 MSTORE PUSH1 0x20 ADD PUSH0 KECCAK256 PUSH1 0x3 ADD SWAP1 DUP2 PUSH2 0x23DE SWAP2 SWAP1 PUSH2 0x40EE JUMP JUMPDEST POP TIMESTAMP PUSH1 0x5 PUSH0 DUP5 DUP2 MSTORE PUSH1 0x20 ADD SWAP1 DUP2 MSTORE PUSH1 0x20 ADD PUSH0 KECCAK256 PUSH1 0xA ADD DUP2 SWAP1 SSTORE POP POP POP JUMP JUMPDEST PUSH1 0x2 PUSH1 0x20 MSTORE DUP1 PUSH0 MSTORE PUSH1 0x40 PUSH0 KECCAK256 PUSH0 SWAP2 POP SWAP1 POP SLOAD DUP2 JUMP JUMPDEST PUSH5 0x2540BE400 DUP2 JUMP JUMPDEST CALLER PUSH20 0xFFFFFFFFFFFFFFFFFFFFFFFFFFFFFFFFFFFFFFFF AND PUSH1 0x5 PUSH0 DUP5 DUP2 MSTORE PUSH1 0x20 ADD SWAP1 DUP2 MSTORE PUSH1 0x20 ADD PUSH0 KECCAK256 PUSH1 0x8 ADD PUSH0 SWAP1 SLOAD SWAP1 PUSH2 0x100 EXP SWAP1 DIV PUSH20 0xFFFFFFFFFFFFFFFFFFFFFFFFFFFFFFFFFFFFFFFF AND PUSH20 0xFFFFFFFFFFFFFFFFFFFFFFFFFFFFFFFFFFFFFFFF AND EQ PUSH2 0x24BB JUMPI PUSH1 0x40 MLOAD PUSH32 0x8C379A000000000000000000000000000000000000000000000000000000000 DUP2 MSTORE PUSH1 0x4 ADD PUSH2 0x24B2 SWAP1 PUSH2 0x4B45 JUMP JUMPDEST PUSH1 0x40 MLOAD DUP1 SWAP2 SUB SWAP1 REVERT JUMPDEST DUP1 PUSH1 0x5 PUSH0 DUP5 DUP2 MSTORE PUSH1 0x20 ADD SWAP1 DUP2 MSTORE PUSH1 0x20 ADD PUSH0 KECCAK256 PUSH1 0x5 ADD SWAP1 DUP2 PUSH2 0x24DC SWAP2 SWAP1 PUSH2 0x40EE JUMP JUMPDEST POP TIMESTAMP PUSH1 0x5 PUSH0 DUP5 DUP2 MSTORE PUSH1 0x20 ADD SWAP1 DUP2 MSTORE PUSH1 0x20 ADD PUSH0 KECCAK256 PUSH1 0xA ADD DUP2 SWAP1 SSTORE POP POP POP JUMP JUMPDEST PUSH1 0x8 PUSH1 0x1 SWAP1 SLOAD SWAP1 PUSH2 0x100 EXP SWAP1 DIV PUSH20 0xFFFFFFFFFFFFFFFFFFFFFFFFFFFFFFFFFFFFFFFF AND PUSH20 0xFFFFFFFFFFFFFFFFFFFFFFFFFFFFFFFFFFFFFFFF AND CALLER PUSH20 0xFFFFFFFFFFFFFFFFFFFFFFFFFFFFFFFFFFFFFFFF AND EQ PUSH2 0x258A JUMPI PUSH1 0x40 MLOAD PUSH32 0x8C379A000000000000000000000000000000000000000000000000000000000 DUP2 MSTORE PUSH1 0x4 ADD PUSH2 0x2581 SWAP1 PUSH2 0x42C8 JUMP JUMPDEST PUSH1 0x40 MLOAD DUP1 SWAP2 SUB SWAP1 REVERT JUMPDEST PUSH1 0x40 MLOAD DUP1 PUSH1 0x40 ADD PUSH1 0x40 MSTORE DUP1 PUSH1 0xE DUP2 MSTORE PUSH1 0x20 ADD PUSH32 0x617070726F7665456C656D656E74000000000000000000000000000000000000 DUP2 MSTORE POP PUSH1 0xC DUP2 PUSH1 0x40 MLOAD PUSH2 0x25D0 SWAP2 SWAP1 PUSH2 0x43AE JUMP JUMPDEST SWAP1 DUP2 MSTORE PUSH1 0x20 ADD PUSH1 0x40 MLOAD DUP1 SWAP2 SUB SWAP1 KECCAK256 PUSH0 SWAP1 SLOAD SWAP1 PUSH2 0x100 EXP SWAP1 DIV PUSH1 0xFF AND PUSH2 0x262A JUMPI PUSH1 0x40 MLOAD PUSH32 0x8C379A000000000000000000000000000000000000000000000000000000000 DUP2 MSTORE PUSH1 0x4 ADD PUSH2 0x2621 SWAP1 PUSH2 0x440E JUMP JUMPDEST PUSH1 0x40 MLOAD DUP1 SWAP2 SUB SWAP1 REVERT JUMPDEST PUSH0 PUSH1 0x5 PUSH0 DUP5 DUP2 MSTORE PUSH1 0x20 ADD SWAP1 DUP2 MSTORE PUSH1 0x20 ADD PUSH0 KECCAK256 PUSH1 0x9 ADD SLOAD EQ PUSH2 0x2680 JUMPI PUSH1 0x40 MLOAD PUSH32 0x8C379A000000000000000000000000000000000000000000000000000000000 DUP2 MSTORE PUSH1 0x4 ADD PUSH2 0x2677 SWAP1 PUSH2 0x4476 JUMP JUMPDEST PUSH1 0x40 MLOAD DUP1 SWAP2 SUB SWAP1 REVERT JUMPDEST PUSH1 0x1 PUSH1 0x5 PUSH0 DUP5 DUP2 MSTORE PUSH1 0x20 ADD SWAP1 DUP2 MSTORE PUSH1 0x20 ADD PUSH0 KECCAK256 PUSH1 0x9 ADD DUP2 SWAP1 SSTORE POP PUSH32 0x95FCCD35767ACD458FA3AB76976172CDEFE7357A3CF51BC50B93C41C53984C1D DUP3 PUSH1 0x40 MLOAD PUSH2 0x26C9 SWAP2 SWAP1 PUSH2 0x381A JUMP JUMPDEST PUSH1 0x40 MLOAD DUP1 SWAP2 SUB SWAP1 LOG1 POP POP JUMP JUMPDEST PUSH0 PUSH1 0x3 PUSH0 DUP4 PUSH20 0xFFFFFFFFFFFFFFFFFFFFFFFFFFFFFFFFFFFFFFFF AND PUSH20 0xFFFFFFFFFFFFFFFFFFFFFFFFFFFFFFFFFFFFFFFF AND DUP2 MSTORE PUSH1 0x20 ADD SWAP1 DUP2 MSTORE PUSH1 0x20 ADD PUSH0 KECCAK256 SLOAD SWAP1 POP SWAP2 SWAP1 POP JUMP JUMPDEST PUSH2 0x2723 PUSH2 0x320B JUMP JUMPDEST PUSH0 PUSH1 0x1 PUSH0 CALLER PUSH20 0xFFFFFFFFFFFFFFFFFFFFFFFFFFFFFFFFFFFFFFFF AND PUSH20 0xFFFFFFFFFFFFFFFFFFFFFFFFFFFFFFFFFFFFFFFF AND DUP2 MSTORE PUSH1 0x20 ADD SWAP1 DUP2 MSTORE PUSH1 0x20 ADD PUSH0 KECCAK256 SLOAD GT PUSH2 0x27A2 JUMPI PUSH1 0x40 MLOAD PUSH32 0x8C379A000000000000000000000000000000000000000000000000000000000 DUP2 MSTORE PUSH1 0x4 ADD PUSH2 0x2799 SWAP1 PUSH2 0x4BAD JUMP JUMPDEST PUSH1 0x40 MLOAD DUP1 SWAP2 SUB SWAP1 REVERT JUMPDEST PUSH0 PUSH1 0x3 PUSH0 CALLER PUSH20 0xFFFFFFFFFFFFFFFFFFFFFFFFFFFFFFFFFFFFFFFF AND PUSH20 0xFFFFFFFFFFFFFFFFFFFFFFFFFFFFFFFFFFFFFFFF AND DUP2 MSTORE PUSH1 0x20 ADD SWAP1 DUP2 MSTORE PUSH1 0x20 ADD PUSH0 KECCAK256 SLOAD TIMESTAMP PUSH2 0x27EC SWAP2 SWAP1 PUSH2 0x4494 JUMP JUMPDEST SWAP1 POP PUSH1 0xC PUSH2 0xE10 PUSH2 0x27FD SWAP2 SWAP1 PUSH2 0x4535 JUMP JUMPDEST DUP2 LT ISZERO PUSH2 0x283F JUMPI PUSH1 0x40 MLOAD PUSH32 0x8C379A000000000000000000000000000000000000000000000000000000000 DUP2 MSTORE PUSH1 0x4 ADD PUSH2 0x2836 SWAP1 PUSH2 0x4C15 JUMP JUMPDEST PUSH1 0x40 MLOAD DUP1 SWAP2 SUB SWAP1 REVERT JUMPDEST PUSH0 DUP1 PUSH1 0xC PUSH2 0xE10 PUSH2 0x2850 SWAP2 SWAP1 PUSH2 0x4535 JUMP JUMPDEST DUP4 PUSH2 0x285B SWAP2 SWAP1 PUSH2 0x4535 JUMP JUMPDEST SWAP1 POP PUSH0 JUMPDEST DUP2 DUP2 LT ISZERO PUSH2 0x2939 JUMPI PUSH0 PUSH1 0xC PUSH2 0xE10 PUSH2 0x2877 SWAP2 SWAP1 PUSH2 0x4535 JUMP JUMPDEST DUP3 PUSH2 0x2882 SWAP2 SWAP1 PUSH2 0x44C7 JUMP JUMPDEST PUSH1 0x3 PUSH0 CALLER PUSH20 0xFFFFFFFFFFFFFFFFFFFFFFFFFFFFFFFFFFFFFFFF AND PUSH20 0xFFFFFFFFFFFFFFFFFFFFFFFFFFFFFFFFFFFFFFFF AND DUP2 MSTORE PUSH1 0x20 ADD SWAP1 DUP2 MSTORE PUSH1 0x20 ADD PUSH0 KECCAK256 SLOAD PUSH2 0x28CA SWAP2 SWAP1 PUSH2 0x4805 JUMP JUMPDEST SWAP1 POP PUSH0 PUSH2 0x2914 PUSH1 0x1 PUSH0 CALLER PUSH20 0xFFFFFFFFFFFFFFFFFFFFFFFFFFFFFFFFFFFFFFFF AND PUSH20 0xFFFFFFFFFFFFFFFFFFFFFFFFFFFFFFFFFFFFFFFF AND DUP2 MSTORE PUSH1 0x20 ADD SWAP1 DUP2 MSTORE PUSH1 0x20 ADD PUSH0 KECCAK256 SLOAD DUP4 PUSH2 0xEF2 JUMP JUMPDEST SWAP1 POP DUP1 DUP6 PUSH2 0x2922 SWAP2 SWAP1 PUSH2 0x4805 JUMP JUMPDEST SWAP5 POP POP POP DUP1 DUP1 PUSH2 0x2931 SWAP1 PUSH2 0x4211 JUMP JUMPDEST SWAP2 POP POP PUSH2 0x285F JUMP JUMPDEST POP PUSH0 PUSH1 0x64 PUSH1 0x3C DUP5 PUSH2 0x294A SWAP2 SWAP1 PUSH2 0x44C7 JUMP JUMPDEST PUSH2 0x2954 SWAP2 SWAP1 PUSH2 0x4535 JUMP JUMPDEST SWAP1 POP PUSH0 PUSH1 0x64 PUSH1 0x28 DUP6 PUSH2 0x2966 SWAP2 SWAP1 PUSH2 0x44C7 JUMP JUMPDEST PUSH2 0x2970 SWAP2 SWAP1 PUSH2 0x4535 JUMP JUMPDEST SWAP1 POP PUSH2 0x297B DUP2 PUSH2 0x3362 JUMP JUMPDEST PUSH3 0x989680 DUP3 PUSH2 0x298A SWAP2 SWAP1 PUSH2 0x4535 JUMP JUMPDEST PUSH1 0x2 PUSH0 CALLER PUSH20 0xFFFFFFFFFFFFFFFFFFFFFFFFFFFFFFFFFFFFFFFF AND PUSH20 0xFFFFFFFFFFFFFFFFFFFFFFFFFFFFFFFFFFFFFFFF AND DUP2 MSTORE PUSH1 0x20 ADD SWAP1 DUP2 MSTORE PUSH1 0x20 ADD PUSH0 KECCAK256 PUSH0 DUP3 DUP3 SLOAD PUSH2 0x29D5 SWAP2 SWAP1 PUSH2 0x4805 JUMP JUMPDEST SWAP3 POP POP DUP2 SWAP1 SSTORE POP TIMESTAMP PUSH1 0x3 PUSH0 CALLER PUSH20 0xFFFFFFFFFFFFFFFFFFFFFFFFFFFFFFFFFFFFFFFF AND PUSH20 0xFFFFFFFFFFFFFFFFFFFFFFFFFFFFFFFFFFFFFFFF AND DUP2 MSTORE PUSH1 0x20 ADD SWAP1 DUP2 MSTORE PUSH1 0x20 ADD PUSH0 KECCAK256 DUP2 SWAP1 SSTORE POP PUSH2 0x2A6A CALLER DUP4 PUSH1 0xB PUSH0 SWAP1 SLOAD SWAP1 PUSH2 0x100 EXP SWAP1 DIV PUSH20 0xFFFFFFFFFFFFFFFFFFFFFFFFFFFFFFFFFFFFFFFF AND PUSH20 0xFFFFFFFFFFFFFFFFFFFFFFFFFFFFFFFFFFFFFFFF AND PUSH2 0x32E3 SWAP1 SWAP3 SWAP2 SWAP1 PUSH4 0xFFFFFFFF AND JUMP JUMPDEST POP POP POP POP POP PUSH2 0x2A77 PUSH2 0x32DA JUMP JUMPDEST JUMP JUMPDEST PUSH0 PUSH1 0xB PUSH0 SWAP1 SLOAD SWAP1 PUSH2 0x100 EXP SWAP1 DIV PUSH20 0xFFFFFFFFFFFFFFFFFFFFFFFFFFFFFFFFFFFFFFFF AND PUSH20 0xFFFFFFFFFFFFFFFFFFFFFFFFFFFFFFFFFFFFFFFF AND PUSH4 0x70A08231 ADDRESS PUSH1 0x40 MLOAD DUP3 PUSH4 0xFFFFFFFF AND PUSH1 0xE0 SHL DUP2 MSTORE PUSH1 0x4 ADD PUSH2 0x2AD4 SWAP2 SWAP1 PUSH2 0x3B79 JUMP JUMPDEST PUSH1 0x20 PUSH1 0x40 MLOAD DUP1 DUP4 SUB DUP2 DUP7 GAS STATICCALL ISZERO DUP1 ISZERO PUSH2 0x2AEF JUMPI RETURNDATASIZE PUSH0 DUP1 RETURNDATACOPY RETURNDATASIZE PUSH0 REVERT JUMPDEST POP POP POP POP PUSH1 0x40 MLOAD RETURNDATASIZE PUSH1 0x1F NOT PUSH1 0x1F DUP3 ADD AND DUP3 ADD DUP1 PUSH1 0x40 MSTORE POP DUP2 ADD SWAP1 PUSH2 0x2B13 SWAP2 SWAP1 PUSH2 0x3E44 JUMP JUMPDEST SWAP1 POP SWAP1 JUMP JUMPDEST PUSH1 0xA PUSH0 SWAP1 SLOAD SWAP1 PUSH2 0x100 EXP SWAP1 DIV PUSH20 0xFFFFFFFFFFFFFFFFFFFFFFFFFFFFFFFFFFFFFFFF AND PUSH20 0xFFFFFFFFFFFFFFFFFFFFFFFFFFFFFFFFFFFFFFFF AND CALLER PUSH20 0xFFFFFFFFFFFFFFFFFFFFFFFFFFFFFFFFFFFFFFFF AND EQ PUSH2 0x2BA7 JUMPI PUSH1 0x40 MLOAD PUSH32 0x8C379A000000000000000000000000000000000000000000000000000000000 DUP2 MSTORE PUSH1 0x4 ADD PUSH2 0x2B9E SWAP1 PUSH2 0x4A75 JUMP JUMPDEST PUSH1 0x40 MLOAD DUP1 SWAP2 SUB SWAP1 REVERT JUMPDEST PUSH1 0x40 MLOAD DUP1 PUSH1 0x40 ADD PUSH1 0x40 MSTORE DUP1 PUSH1 0x11 DUP2 MSTORE PUSH1 0x20 ADD PUSH32 0x6368616E67655365636F6E6441646D696E000000000000000000000000000000 DUP2 MSTORE POP PUSH1 0xC DUP2 PUSH1 0x40 MLOAD PUSH2 0x2BED SWAP2 SWAP1 PUSH2 0x43AE JUMP JUMPDEST SWAP1 DUP2 MSTORE PUSH1 0x20 ADD PUSH1 0x40 MLOAD DUP1 SWAP2 SUB SWAP1 KECCAK256 PUSH0 SWAP1 SLOAD SWAP1 PUSH2 0x100 EXP SWAP1 DIV PUSH1 0xFF AND PUSH2 0x2C47 JUMPI PUSH1 0x40 MLOAD PUSH32 0x8C379A000000000000000000000000000000000000000000000000000000000 DUP2 MSTORE PUSH1 0x4 ADD PUSH2 0x2C3E SWAP1 PUSH2 0x440E JUMP JUMPDEST PUSH1 0x40 MLOAD DUP1 SWAP2 SUB SWAP1 REVERT JUMPDEST PUSH0 PUSH20 0xFFFFFFFFFFFFFFFFFFFFFFFFFFFFFFFFFFFFFFFF AND DUP3 PUSH20 0xFFFFFFFFFFFFFFFFFFFFFFFFFFFFFFFFFFFFFFFF AND SUB PUSH2 0x2CB5 JUMPI PUSH1 0x40 MLOAD PUSH32 0x8C379A000000000000000000000000000000000000000000000000000000000 DUP2 MSTORE PUSH1 0x4 ADD PUSH2 0x2CAC SWAP1 PUSH2 0x4CA3 JUMP JUMPDEST PUSH1 0x40 MLOAD DUP1 SWAP2 SUB SWAP1 REVERT JUMPDEST DUP2 PUSH1 0x9 PUSH0 PUSH2 0x100 EXP DUP2 SLOAD DUP2 PUSH20 0xFFFFFFFFFFFFFFFFFFFFFFFFFFFFFFFFFFFFFFFF MUL NOT AND SWAP1 DUP4 PUSH20 0xFFFFFFFFFFFFFFFFFFFFFFFFFFFFFFFFFFFFFFFF AND MUL OR SWAP1 SSTORE POP POP POP JUMP JUMPDEST PUSH1 0x5 PUSH1 0x20 MSTORE DUP1 PUSH0 MSTORE PUSH1 0x40 PUSH0 KECCAK256 PUSH0 SWAP2 POP SWAP1 POP DUP1 PUSH0 ADD DUP1 SLOAD PUSH2 0x2D18 SWAP1 PUSH2 0x3F2A JUMP JUMPDEST DUP1 PUSH1 0x1F ADD PUSH1 0x20 DUP1 SWAP2 DIV MUL PUSH1 0x20 ADD PUSH1 0x40 MLOAD SWAP1 DUP2 ADD PUSH1 0x40 MSTORE DUP1 SWAP3 SWAP2 SWAP1 DUP2 DUP2 MSTORE PUSH1 0x20 ADD DUP3 DUP1 SLOAD PUSH2 0x2D44 SWAP1 PUSH2 0x3F2A JUMP JUMPDEST DUP1 ISZERO PUSH2 0x2D8F JUMPI DUP1 PUSH1 0x1F LT PUSH2 0x2D66 JUMPI PUSH2 0x100 DUP1 DUP4 SLOAD DIV MUL DUP4 MSTORE SWAP2 PUSH1 0x20 ADD SWAP2 PUSH2 0x2D8F JUMP JUMPDEST DUP3 ADD SWAP2 SWAP1 PUSH0 MSTORE PUSH1 0x20 PUSH0 KECCAK256 SWAP1 JUMPDEST DUP2 SLOAD DUP2 MSTORE SWAP1 PUSH1 0x1 ADD SWAP1 PUSH1 0x20 ADD DUP1 DUP4 GT PUSH2 0x2D72 JUMPI DUP3 SWAP1 SUB PUSH1 0x1F AND DUP3 ADD SWAP2 JUMPDEST POP POP POP POP POP SWAP1 DUP1 PUSH1 0x1 ADD DUP1 SLOAD PUSH2 0x2DA4 SWAP1 PUSH2 0x3F2A JUMP JUMPDEST DUP1 PUSH1 0x1F ADD PUSH1 0x20 DUP1 SWAP2 DIV MUL PUSH1 0x20 ADD PUSH1 0x40 MLOAD SWAP1 DUP2 ADD PUSH1 0x40 MSTORE DUP1 SWAP3 SWAP2 SWAP1 DUP2 DUP2 MSTORE PUSH1 0x20 ADD DUP3 DUP1 SLOAD PUSH2 0x2DD0 SWAP1 PUSH2 0x3F2A JUMP JUMPDEST DUP1 ISZERO PUSH2 0x2E1B JUMPI DUP1 PUSH1 0x1F LT PUSH2 0x2DF2 JUMPI PUSH2 0x100 DUP1 DUP4 SLOAD DIV MUL DUP4 MSTORE SWAP2 PUSH1 0x20 ADD SWAP2 PUSH2 0x2E1B JUMP JUMPDEST DUP3 ADD SWAP2 SWAP1 PUSH0 MSTORE PUSH1 0x20 PUSH0 KECCAK256 SWAP1 JUMPDEST DUP2 SLOAD DUP2 MSTORE SWAP1 PUSH1 0x1 ADD SWAP1 PUSH1 0x20 ADD DUP1 DUP4 GT PUSH2 0x2DFE JUMPI DUP3 SWAP1 SUB PUSH1 0x1F AND DUP3 ADD SWAP2 JUMPDEST POP POP POP POP POP SWAP1 DUP1 PUSH1 0x2 ADD DUP1 SLOAD PUSH2 0x2E30 SWAP1 PUSH2 0x3F2A JUMP JUMPDEST DUP1 PUSH1 0x1F ADD PUSH1 0x20 DUP1 SWAP2 DIV MUL PUSH1 0x20 ADD PUSH1 0x40 MLOAD SWAP1 DUP2 ADD PUSH1 0x40 MSTORE DUP1 SWAP3 SWAP2 SWAP1 DUP2 DUP2 MSTORE PUSH1 0x20 ADD DUP3 DUP1 SLOAD PUSH2 0x2E5C SWAP1 PUSH2 0x3F2A JUMP JUMPDEST DUP1 ISZERO PUSH2 0x2EA7 JUMPI DUP1 PUSH1 0x1F LT PUSH2 0x2E7E JUMPI PUSH2 0x100 DUP1 DUP4 SLOAD DIV MUL DUP4 MSTORE SWAP2 PUSH1 0x20 ADD SWAP2 PUSH2 0x2EA7 JUMP JUMPDEST DUP3 ADD SWAP2 SWAP1 PUSH0 MSTORE PUSH1 0x20 PUSH0 KECCAK256 SWAP1 JUMPDEST DUP2 SLOAD DUP2 MSTORE SWAP1 PUSH1 0x1 ADD SWAP1 PUSH1 0x20 ADD DUP1 DUP4 GT PUSH2 0x2E8A JUMPI DUP3 SWAP1 SUB PUSH1 0x1F AND DUP3 ADD SWAP2 JUMPDEST POP POP POP POP POP SWAP1 DUP1 PUSH1 0x3 ADD DUP1 SLOAD PUSH2 0x2EBC SWAP1 PUSH2 0x3F2A JUMP JUMPDEST DUP1 PUSH1 0x1F ADD PUSH1 0x20 DUP1 SWAP2 DIV MUL PUSH1 0x20 ADD PUSH1 0x40 MLOAD SWAP1 DUP2 ADD PUSH1 0x40 MSTORE DUP1 SWAP3 SWAP2 SWAP1 DUP2 DUP2 MSTORE PUSH1 0x20 ADD DUP3 DUP1 SLOAD PUSH2 0x2EE8 SWAP1 PUSH2 0x3F2A JUMP JUMPDEST DUP1 ISZERO PUSH2 0x2F33 JUMPI DUP1 PUSH1 0x1F LT PUSH2 0x2F0A JUMPI PUSH2 0x100 DUP1 DUP4 SLOAD DIV MUL DUP4 MSTORE SWAP2 PUSH1 0x20 ADD SWAP2 PUSH2 0x2F33 JUMP JUMPDEST DUP3 ADD SWAP2 SWAP1 PUSH0 MSTORE PUSH1 0x20 PUSH0 KECCAK256 SWAP1 JUMPDEST DUP2 SLOAD DUP2 MSTORE SWAP1 PUSH1 0x1 ADD SWAP1 PUSH1 0x20 ADD DUP1 DUP4 GT PUSH2 0x2F16 JUMPI DUP3 SWAP1 SUB PUSH1 0x1F AND DUP3 ADD SWAP2 JUMPDEST POP POP POP POP POP SWAP1 DUP1 PUSH1 0x4 ADD DUP1 SLOAD PUSH2 0x2F48 SWAP1 PUSH2 0x3F2A JUMP JUMPDEST DUP1 PUSH1 0x1F ADD PUSH1 0x20 DUP1 SWAP2 DIV MUL PUSH1 0x20 ADD PUSH1 0x40 MLOAD SWAP1 DUP2 ADD PUSH1 0x40 MSTORE DUP1 SWAP3 SWAP2 SWAP1 DUP2 DUP2 MSTORE PUSH1 0x20 ADD DUP3 DUP1 SLOAD PUSH2 0x2F74 SWAP1 PUSH2 0x3F2A JUMP JUMPDEST DUP1 ISZERO PUSH2 0x2FBF JUMPI DUP1 PUSH1 0x1F LT PUSH2 0x2F96 JUMPI PUSH2 0x100 DUP1 DUP4 SLOAD DIV MUL DUP4 MSTORE SWAP2 PUSH1 0x20 ADD SWAP2 PUSH2 0x2FBF JUMP JUMPDEST DUP3 ADD SWAP2 SWAP1 PUSH0 MSTORE PUSH1 0x20 PUSH0 KECCAK256 SWAP1 JUMPDEST DUP2 SLOAD DUP2 MSTORE SWAP1 PUSH1 0x1 ADD SWAP1 PUSH1 0x20 ADD DUP1 DUP4 GT PUSH2 0x2FA2 JUMPI DUP3 SWAP1 SUB PUSH1 0x1F AND DUP3 ADD SWAP2 JUMPDEST POP POP POP POP POP SWAP1 DUP1 PUSH1 0x5 ADD DUP1 SLOAD PUSH2 0x2FD4 SWAP1 PUSH2 0x3F2A JUMP JUMPDEST DUP1 PUSH1 0x1F ADD PUSH1 0x20 DUP1 SWAP2 DIV MUL PUSH1 0x20 ADD PUSH1 0x40 MLOAD SWAP1 DUP2 ADD PUSH1 0x40 MSTORE DUP1 SWAP3 SWAP2 SWAP1 DUP2 DUP2 MSTORE PUSH1 0x20 ADD DUP3 DUP1 SLOAD PUSH2 0x3000 SWAP1 PUSH2 0x3F2A JUMP JUMPDEST DUP1 ISZERO PUSH2 0x304B JUMPI DUP1 PUSH1 0x1F LT PUSH2 0x3022 JUMPI PUSH2 0x100 DUP1 DUP4 SLOAD DIV MUL DUP4 MSTORE SWAP2 PUSH1 0x20 ADD SWAP2 PUSH2 0x304B JUMP JUMPDEST DUP3 ADD SWAP2 SWAP1 PUSH0 MSTORE PUSH1 0x20 PUSH0 KECCAK256 SWAP1 JUMPDEST DUP2 SLOAD DUP2 MSTORE SWAP1 PUSH1 0x1 ADD SWAP1 PUSH1 0x20 ADD DUP1 DUP4 GT PUSH2 0x302E JUMPI DUP3 SWAP1 SUB PUSH1 0x1F AND DUP3 ADD SWAP2 JUMPDEST POP POP POP POP POP SWAP1 DUP1 PUSH1 0x6 ADD DUP1 SLOAD PUSH2 0x3060 SWAP1 PUSH2 0x3F2A JUMP JUMPDEST DUP1 PUSH1 0x1F ADD PUSH1 0x20 DUP1 SWAP2 DIV MUL PUSH1 0x20 ADD PUSH1 0x40 MLOAD SWAP1 DUP2 ADD PUSH1 0x40 MSTORE DUP1 SWAP3 SWAP2 SWAP1 DUP2 DUP2 MSTORE PUSH1 0x20 ADD DUP3 DUP1 SLOAD PUSH2 0x308C SWAP1 PUSH2 0x3F2A JUMP JUMPDEST DUP1 ISZERO PUSH2 0x30D7 JUMPI DUP1 PUSH1 0x1F LT PUSH2 0x30AE JUMPI PUSH2 0x100 DUP1 DUP4 SLOAD DIV MUL DUP4 MSTORE SWAP2 PUSH1 0x20 ADD SWAP2 PUSH2 0x30D7 JUMP JUMPDEST DUP3 ADD SWAP2 SWAP1 PUSH0 MSTORE PUSH1 0x20 PUSH0 KECCAK256 SWAP1 JUMPDEST DUP2 SLOAD DUP2 MSTORE SWAP1 PUSH1 0x1 ADD SWAP1 PUSH1 0x20 ADD DUP1 DUP4 GT PUSH2 0x30BA JUMPI DUP3 SWAP1 SUB PUSH1 0x1F AND DUP3 ADD SWAP2 JUMPDEST POP POP POP POP POP SWAP1 DUP1 PUSH1 0x7 ADD DUP1 SLOAD PUSH2 0x30EC SWAP1 PUSH2 0x3F2A JUMP JUMPDEST DUP1 PUSH1 0x1F ADD PUSH1 0x20 DUP1 SWAP2 DIV MUL PUSH1 0x20 ADD PUSH1 0x40 MLOAD SWAP1 DUP2 ADD PUSH1 0x40 MSTORE DUP1 SWAP3 SWAP2 SWAP1 DUP2 DUP2 MSTORE PUSH1 0x20 ADD DUP3 DUP1 SLOAD PUSH2 0x3118 SWAP1 PUSH2 0x3F2A JUMP JUMPDEST DUP1 ISZERO PUSH2 0x3163 JUMPI DUP1 PUSH1 0x1F LT PUSH2 0x313A JUMPI PUSH2 0x100 DUP1 DUP4 SLOAD DIV MUL DUP4 MSTORE SWAP2 PUSH1 0x20 ADD SWAP2 PUSH2 0x3163 JUMP JUMPDEST DUP3 ADD SWAP2 SWAP1 PUSH0 MSTORE PUSH1 0x20 PUSH0 KECCAK256 SWAP1 JUMPDEST DUP2 SLOAD DUP2 MSTORE SWAP1 PUSH1 0x1 ADD SWAP1 PUSH1 0x20 ADD DUP1 DUP4 GT PUSH2 0x3146 JUMPI DUP3 SWAP1 SUB PUSH1 0x1F AND DUP3 ADD SWAP2 JUMPDEST POP POP POP POP POP SWAP1 DUP1 PUSH1 0x8 ADD PUSH0 SWAP1 SLOAD SWAP1 PUSH2 0x100 EXP SWAP1 DIV PUSH20 0xFFFFFFFFFFFFFFFFFFFFFFFFFFFFFFFFFFFFFFFF AND SWAP1 DUP1 PUSH1 0x9 ADD SLOAD SWAP1 DUP1 PUSH1 0xA ADD SLOAD SWAP1 DUP1 PUSH1 0xB ADD SLOAD SWAP1 POP DUP13 JUMP JUMPDEST PUSH1 0x8 PUSH1 0x1 SWAP1 SLOAD SWAP1 PUSH2 0x100 EXP SWAP1 DIV PUSH20 0xFFFFFFFFFFFFFFFFFFFFFFFFFFFFFFFFFFFFFFFF AND DUP2 JUMP JUMPDEST PUSH0 DUP1 PUSH2 0xE10 DUP4 PUSH2 0x31DA SWAP2 SWAP1 PUSH2 0x4535 JUMP JUMPDEST SWAP1 POP PUSH1 0x3 DUP2 LT PUSH2 0x31EE JUMPI PUSH1 0x3 SWAP2 POP POP PUSH2 0x3206 JUMP JUMPDEST PUSH1 0x2 DUP2 SUB PUSH2 0x3200 JUMPI PUSH1 0x2 SWAP2 POP POP PUSH2 0x3206 JUMP JUMPDEST PUSH1 0x1 SWAP2 POP POP JUMPDEST SWAP2 SWAP1 POP JUMP JUMPDEST PUSH1 0x2 PUSH0 SLOAD SUB PUSH2 0x324F JUMPI PUSH1 0x40 MLOAD PUSH32 0x8C379A000000000000000000000000000000000000000000000000000000000 DUP2 MSTORE PUSH1 0x4 ADD PUSH2 0x3246 SWAP1 PUSH2 0x4D0B JUMP JUMPDEST PUSH1 0x40 MLOAD DUP1 SWAP2 SUB SWAP1 REVERT JUMPDEST PUSH1 0x2 PUSH0 DUP2 SWAP1 SSTORE POP JUMP JUMPDEST PUSH2 0x32D4 DUP5 DUP6 PUSH20 0xFFFFFFFFFFFFFFFFFFFFFFFFFFFFFFFFFFFFFFFF AND PUSH4 0x23B872DD DUP7 DUP7 DUP7 PUSH1 0x40 MLOAD PUSH1 0x24 ADD PUSH2 0x328D SWAP4 SWAP3 SWAP2 SWAP1 PUSH2 0x4D29 JUMP JUMPDEST PUSH1 0x40 MLOAD PUSH1 0x20 DUP2 DUP4 SUB SUB DUP2 MSTORE SWAP1 PUSH1 0x40 MSTORE SWAP2 POP PUSH1 0xE0 SHL PUSH1 0x20 DUP3 ADD DUP1 MLOAD PUSH28 0xFFFFFFFFFFFFFFFFFFFFFFFFFFFFFFFFFFFFFFFFFFFFFFFFFFFFFFFF DUP4 DUP2 DUP4 AND OR DUP4 MSTORE POP POP POP POP PUSH2 0x3479 JUMP JUMPDEST POP POP POP POP JUMP JUMPDEST PUSH1 0x1 PUSH0 DUP2 SWAP1 SSTORE POP JUMP JUMPDEST PUSH2 0x335D DUP4 DUP5 PUSH20 0xFFFFFFFFFFFFFFFFFFFFFFFFFFFFFFFFFFFFFFFF AND PUSH4 0xA9059CBB DUP6 DUP6 PUSH1 0x40 MLOAD PUSH1 0x24 ADD PUSH2 0x3316 SWAP3 SWAP2 SWAP1 PUSH2 0x4D5E JUMP JUMPDEST PUSH1 0x40 MLOAD PUSH1 0x20 DUP2 DUP4 SUB SUB DUP2 MSTORE SWAP1 PUSH1 0x40 MSTORE SWAP2 POP PUSH1 0xE0 SHL PUSH1 0x20 DUP3 ADD DUP1 MLOAD PUSH28 0xFFFFFFFFFFFFFFFFFFFFFFFFFFFFFFFFFFFFFFFFFFFFFFFFFFFFFFFF DUP4 DUP2 DUP4 AND OR DUP4 MSTORE POP POP POP POP PUSH2 0x3479 JUMP JUMPDEST POP POP POP JUMP JUMPDEST PUSH2 0x336A PUSH2 0x320B JUMP JUMPDEST PUSH0 PUSH2 0x3373 PUSH2 0x350E JUMP JUMPDEST SWAP1 POP PUSH0 DUP2 SUB PUSH2 0x3382 JUMPI POP PUSH2 0x346E JUMP JUMPDEST PUSH0 JUMPDEST PUSH1 0x6 SLOAD DUP2 LT ISZERO PUSH2 0x346B JUMPI PUSH0 PUSH1 0x5 PUSH0 DUP4 DUP2 MSTORE PUSH1 0x20 ADD SWAP1 DUP2 MSTORE PUSH1 0x20 ADD PUSH0 KECCAK256 SWAP1 POP PUSH1 0x5 DUP1 DUP2 GT ISZERO PUSH2 0x33B5 JUMPI PUSH2 0x33B4 PUSH2 0x4838 JUMP JUMPDEST JUMPDEST DUP2 PUSH1 0x9 ADD SLOAD EQ PUSH2 0x3457 JUMPI PUSH0 DUP4 DUP6 DUP4 PUSH1 0xB ADD SLOAD PUSH2 0x33D1 SWAP2 SWAP1 PUSH2 0x44C7 JUMP JUMPDEST PUSH2 0x33DB SWAP2 SWAP1 PUSH2 0x4535 JUMP JUMPDEST SWAP1 POP PUSH0 DUP2 GT ISZERO PUSH2 0x3455 JUMPI PUSH2 0x3454 DUP3 PUSH1 0x8 ADD PUSH0 SWAP1 SLOAD SWAP1 PUSH2 0x100 EXP SWAP1 DIV PUSH20 0xFFFFFFFFFFFFFFFFFFFFFFFFFFFFFFFFFFFFFFFF AND DUP3 PUSH1 0xB PUSH0 SWAP1 SLOAD SWAP1 PUSH2 0x100 EXP SWAP1 DIV PUSH20 0xFFFFFFFFFFFFFFFFFFFFFFFFFFFFFFFFFFFFFFFF AND PUSH20 0xFFFFFFFFFFFFFFFFFFFFFFFFFFFFFFFFFFFFFFFF AND PUSH2 0x32E3 SWAP1 SWAP3 SWAP2 SWAP1 PUSH4 0xFFFFFFFF AND JUMP JUMPDEST JUMPDEST POP JUMPDEST POP DUP1 DUP1 PUSH2 0x3463 SWAP1 PUSH2 0x4211 JUMP JUMPDEST SWAP2 POP POP PUSH2 0x3384 JUMP JUMPDEST POP POP JUMPDEST PUSH2 0x3476 PUSH2 0x32DA JUMP JUMPDEST POP JUMP JUMPDEST PUSH0 PUSH2 0x34A3 DUP3 DUP5 PUSH20 0xFFFFFFFFFFFFFFFFFFFFFFFFFFFFFFFFFFFFFFFF AND PUSH2 0x358A SWAP1 SWAP2 SWAP1 PUSH4 0xFFFFFFFF AND JUMP JUMPDEST SWAP1 POP PUSH0 DUP2 MLOAD EQ ISZERO DUP1 ISZERO PUSH2 0x34C7 JUMPI POP DUP1 DUP1 PUSH1 0x20 ADD SWAP1 MLOAD DUP2 ADD SWAP1 PUSH2 0x34C5 SWAP2 SWAP1 PUSH2 0x4D99 JUMP JUMPDEST ISZERO JUMPDEST ISZERO PUSH2 0x3509 JUMPI DUP3 PUSH1 0x40 MLOAD PUSH32 0x5274AFE700000000000000000000000000000000000000000000000000000000 DUP2 MSTORE PUSH1 0x4 ADD PUSH2 0x3500 SWAP2 SWAP1 PUSH2 0x3B79 JUMP JUMPDEST PUSH1 0x40 MLOAD DUP1 SWAP2 SUB SWAP1 REVERT JUMPDEST POP POP POP JUMP JUMPDEST PUSH0 DUP1 PUSH0 SWAP1 POP PUSH0 JUMPDEST PUSH1 0x6 SLOAD DUP2 LT ISZERO PUSH2 0x3582 JUMPI PUSH1 0x5 DUP1 DUP2 GT ISZERO PUSH2 0x3532 JUMPI PUSH2 0x3531 PUSH2 0x4838 JUMP JUMPDEST JUMPDEST PUSH1 0x5 PUSH0 DUP4 DUP2 MSTORE PUSH1 0x20 ADD SWAP1 DUP2 MSTORE PUSH1 0x20 ADD PUSH0 KECCAK256 PUSH1 0x9 ADD SLOAD EQ PUSH2 0x356F JUMPI PUSH1 0x5 PUSH0 DUP3 DUP2 MSTORE PUSH1 0x20 ADD SWAP1 DUP2 MSTORE PUSH1 0x20 ADD PUSH0 KECCAK256 PUSH1 0xB ADD SLOAD DUP3 PUSH2 0x356C SWAP2 SWAP1 PUSH2 0x4805 JUMP JUMPDEST SWAP2 POP JUMPDEST DUP1 DUP1 PUSH2 0x357A SWAP1 PUSH2 0x4211 JUMP JUMPDEST SWAP2 POP POP PUSH2 0x3515 JUMP JUMPDEST POP DUP1 SWAP2 POP POP SWAP1 JUMP JUMPDEST PUSH1 0x60 PUSH2 0x3597 DUP4 DUP4 PUSH0 PUSH2 0x359F JUMP JUMPDEST SWAP1 POP SWAP3 SWAP2 POP POP JUMP JUMPDEST PUSH1 0x60 DUP2 SELFBALANCE LT ISZERO PUSH2 0x35E6 JUMPI ADDRESS PUSH1 0x40 MLOAD PUSH32 0xCD78605900000000000000000000000000000000000000000000000000000000 DUP2 MSTORE PUSH1 0x4 ADD PUSH2 0x35DD SWAP2 SWAP1 PUSH2 0x3B79 JUMP JUMPDEST PUSH1 0x40 MLOAD DUP1 SWAP2 SUB SWAP1 REVERT JUMPDEST PUSH0 DUP1 DUP6 PUSH20 0xFFFFFFFFFFFFFFFFFFFFFFFFFFFFFFFFFFFFFFFF AND DUP5 DUP7 PUSH1 0x40 MLOAD PUSH2 0x360E SWAP2 SWAP1 PUSH2 0x4E08 JUMP JUMPDEST PUSH0 PUSH1 0x40 MLOAD DUP1 DUP4 SUB DUP2 DUP6 DUP8 GAS CALL SWAP3 POP POP POP RETURNDATASIZE DUP1 PUSH0 DUP2 EQ PUSH2 0x3648 JUMPI PUSH1 0x40 MLOAD SWAP2 POP PUSH1 0x1F NOT PUSH1 0x3F RETURNDATASIZE ADD AND DUP3 ADD PUSH1 0x40 MSTORE RETURNDATASIZE DUP3 MSTORE RETURNDATASIZE PUSH0 PUSH1 0x20 DUP5 ADD RETURNDATACOPY PUSH2 0x364D JUMP JUMPDEST PUSH1 0x60 SWAP2 POP JUMPDEST POP SWAP2 POP SWAP2 POP PUSH2 0x365D DUP7 DUP4 DUP4 PUSH2 0x3668 JUMP JUMPDEST SWAP3 POP POP POP SWAP4 SWAP3 POP POP POP JUMP JUMPDEST PUSH1 0x60 DUP3 PUSH2 0x367D JUMPI PUSH2 0x3678 DUP3 PUSH2 0x36F5 JUMP JUMPDEST PUSH2 0x36ED JUMP JUMPDEST PUSH0 DUP3 MLOAD EQ DUP1 ISZERO PUSH2 0x36A3 JUMPI POP PUSH0 DUP5 PUSH20 0xFFFFFFFFFFFFFFFFFFFFFFFFFFFFFFFFFFFFFFFF AND EXTCODESIZE EQ JUMPDEST ISZERO PUSH2 0x36E5 JUMPI DUP4 PUSH1 0x40 MLOAD PUSH32 0x9996B31500000000000000000000000000000000000000000000000000000000 DUP2 MSTORE PUSH1 0x4 ADD PUSH2 0x36DC SWAP2 SWAP1 PUSH2 0x3B79 JUMP JUMPDEST PUSH1 0x40 MLOAD DUP1 SWAP2 SUB SWAP1 REVERT JUMPDEST DUP2 SWAP1 POP PUSH2 0x36EE JUMP JUMPDEST JUMPDEST SWAP4 SWAP3 POP POP POP JUMP JUMPDEST PUSH0 DUP2 MLOAD GT ISZERO PUSH2 0x3707 JUMPI DUP1 MLOAD DUP1 DUP3 PUSH1 0x20 ADD REVERT JUMPDEST PUSH1 0x40 MLOAD PUSH32 0x1425EA4200000000000000000000000000000000000000000000000000000000 DUP2 MSTORE PUSH1 0x4 ADD PUSH1 0x40 MLOAD DUP1 SWAP2 SUB SWAP1 REVERT JUMPDEST PUSH0 DUP2 ISZERO ISZERO SWAP1 POP SWAP2 SWAP1 POP JUMP JUMPDEST PUSH2 0x374D DUP2 PUSH2 0x3739 JUMP JUMPDEST DUP3 MSTORE POP POP JUMP JUMPDEST PUSH0 PUSH1 0x20 DUP3 ADD SWAP1 POP PUSH2 0x3766 PUSH0 DUP4 ADD DUP5 PUSH2 0x3744 JUMP JUMPDEST SWAP3 SWAP2 POP POP JUMP JUMPDEST PUSH0 PUSH1 0x40 MLOAD SWAP1 POP SWAP1 JUMP JUMPDEST PUSH0 DUP1 REVERT JUMPDEST PUSH0 DUP1 REVERT JUMPDEST PUSH0 PUSH20 0xFFFFFFFFFFFFFFFFFFFFFFFFFFFFFFFFFFFFFFFF DUP3 AND SWAP1 POP SWAP2 SWAP1 POP JUMP JUMPDEST PUSH0 PUSH2 0x37A6 DUP3 PUSH2 0x377D JUMP JUMPDEST SWAP1 POP SWAP2 SWAP1 POP JUMP JUMPDEST PUSH2 0x37B6 DUP2 PUSH2 0x379C JUMP JUMPDEST DUP2 EQ PUSH2 0x37C0 JUMPI PUSH0 DUP1 REVERT JUMPDEST POP JUMP JUMPDEST PUSH0 DUP2 CALLDATALOAD SWAP1 POP PUSH2 0x37D1 DUP2 PUSH2 0x37AD JUMP JUMPDEST SWAP3 SWAP2 POP POP JUMP JUMPDEST PUSH0 PUSH1 0x20 DUP3 DUP5 SUB SLT ISZERO PUSH2 0x37EC JUMPI PUSH2 0x37EB PUSH2 0x3775 JUMP JUMPDEST JUMPDEST PUSH0 PUSH2 0x37F9 DUP5 DUP3 DUP6 ADD PUSH2 0x37C3 JUMP JUMPDEST SWAP2 POP POP SWAP3 SWAP2 POP POP JUMP JUMPDEST PUSH0 DUP2 SWAP1 POP SWAP2 SWAP1 POP JUMP JUMPDEST PUSH2 0x3814 DUP2 PUSH2 0x3802 JUMP JUMPDEST DUP3 MSTORE POP POP JUMP JUMPDEST PUSH0 PUSH1 0x20 DUP3 ADD SWAP1 POP PUSH2 0x382D PUSH0 DUP4 ADD DUP5 PUSH2 0x380B JUMP JUMPDEST SWAP3 SWAP2 POP POP JUMP JUMPDEST PUSH0 DUP1 REVERT JUMPDEST PUSH0 DUP1 REVERT JUMPDEST PUSH0 PUSH1 0x1F NOT PUSH1 0x1F DUP4 ADD AND SWAP1 POP SWAP2 SWAP1 POP JUMP JUMPDEST PUSH32 0x4E487B7100000000000000000000000000000000000000000000000000000000 PUSH0 MSTORE PUSH1 0x41 PUSH1 0x4 MSTORE PUSH1 0x24 PUSH0 REVERT JUMPDEST PUSH2 0x3881 DUP3 PUSH2 0x383B JUMP JUMPDEST DUP2 ADD DUP2 DUP2 LT PUSH8 0xFFFFFFFFFFFFFFFF DUP3 GT OR ISZERO PUSH2 0x38A0 JUMPI PUSH2 0x389F PUSH2 0x384B JUMP JUMPDEST JUMPDEST DUP1 PUSH1 0x40 MSTORE POP POP POP JUMP JUMPDEST PUSH0 PUSH2 0x38B2 PUSH2 0x376C JUMP JUMPDEST SWAP1 POP PUSH2 0x38BE DUP3 DUP3 PUSH2 0x3878 JUMP JUMPDEST SWAP2 SWAP1 POP JUMP JUMPDEST PUSH0 PUSH8 0xFFFFFFFFFFFFFFFF DUP3 GT ISZERO PUSH2 0x38DD JUMPI PUSH2 0x38DC PUSH2 0x384B JUMP JUMPDEST JUMPDEST PUSH2 0x38E6 DUP3 PUSH2 0x383B JUMP JUMPDEST SWAP1 POP PUSH1 0x20 DUP2 ADD SWAP1 POP SWAP2 SWAP1 POP JUMP JUMPDEST DUP3 DUP2 DUP4 CALLDATACOPY PUSH0 DUP4 DUP4 ADD MSTORE POP POP POP JUMP JUMPDEST PUSH0 PUSH2 0x3913 PUSH2 0x390E DUP5 PUSH2 0x38C3 JUMP JUMPDEST PUSH2 0x38A9 JUMP JUMPDEST SWAP1 POP DUP3 DUP2 MSTORE PUSH1 0x20 DUP2 ADD DUP5 DUP5 DUP5 ADD GT ISZERO PUSH2 0x392F JUMPI PUSH2 0x392E PUSH2 0x3837 JUMP JUMPDEST JUMPDEST PUSH2 0x393A DUP5 DUP3 DUP6 PUSH2 0x38F3 JUMP JUMPDEST POP SWAP4 SWAP3 POP POP POP JUMP JUMPDEST PUSH0 DUP3 PUSH1 0x1F DUP4 ADD SLT PUSH2 0x3956 JUMPI PUSH2 0x3955 PUSH2 0x3833 JUMP JUMPDEST JUMPDEST DUP2 CALLDATALOAD PUSH2 0x3966 DUP5 DUP3 PUSH1 0x20 DUP7 ADD PUSH2 0x3901 JUMP JUMPDEST SWAP2 POP POP SWAP3 SWAP2 POP POP JUMP JUMPDEST PUSH0 DUP1 PUSH0 DUP1 PUSH0 PUSH1 0xA0 DUP7 DUP9 SUB SLT ISZERO PUSH2 0x3988 JUMPI PUSH2 0x3987 PUSH2 0x3775 JUMP JUMPDEST JUMPDEST PUSH0 DUP7 ADD CALLDATALOAD PUSH8 0xFFFFFFFFFFFFFFFF DUP2 GT ISZERO PUSH2 0x39A5 JUMPI PUSH2 0x39A4 PUSH2 0x3779 JUMP JUMPDEST JUMPDEST PUSH2 0x39B1 DUP9 DUP3 DUP10 ADD PUSH2 0x3942 JUMP JUMPDEST SWAP6 POP POP PUSH1 0x20 DUP7 ADD CALLDATALOAD PUSH8 0xFFFFFFFFFFFFFFFF DUP2 GT ISZERO PUSH2 0x39D2 JUMPI PUSH2 0x39D1 PUSH2 0x3779 JUMP JUMPDEST JUMPDEST PUSH2 0x39DE DUP9 DUP3 DUP10 ADD PUSH2 0x3942 JUMP JUMPDEST SWAP5 POP POP PUSH1 0x40 DUP7 ADD CALLDATALOAD PUSH8 0xFFFFFFFFFFFFFFFF DUP2 GT ISZERO PUSH2 0x39FF JUMPI PUSH2 0x39FE PUSH2 0x3779 JUMP JUMPDEST JUMPDEST PUSH2 0x3A0B DUP9 DUP3 DUP10 ADD PUSH2 0x3942 JUMP JUMPDEST SWAP4 POP POP PUSH1 0x60 DUP7 ADD CALLDATALOAD PUSH8 0xFFFFFFFFFFFFFFFF DUP2 GT ISZERO PUSH2 0x3A2C JUMPI PUSH2 0x3A2B PUSH2 0x3779 JUMP JUMPDEST JUMPDEST PUSH2 0x3A38 DUP9 DUP3 DUP10 ADD PUSH2 0x3942 JUMP JUMPDEST SWAP3 POP POP PUSH1 0x80 DUP7 ADD CALLDATALOAD PUSH8 0xFFFFFFFFFFFFFFFF DUP2 GT ISZERO PUSH2 0x3A59 JUMPI PUSH2 0x3A58 PUSH2 0x3779 JUMP JUMPDEST JUMPDEST PUSH2 0x3A65 DUP9 DUP3 DUP10 ADD PUSH2 0x3942 JUMP JUMPDEST SWAP2 POP POP SWAP3 SWAP6 POP SWAP3 SWAP6 SWAP1 SWAP4 POP JUMP JUMPDEST PUSH0 DUP2 SWAP1 POP SWAP2 SWAP1 POP JUMP JUMPDEST PUSH0 PUSH2 0x3A95 PUSH2 0x3A90 PUSH2 0x3A8B DUP5 PUSH2 0x377D JUMP JUMPDEST PUSH2 0x3A72 JUMP JUMPDEST PUSH2 0x377D JUMP JUMPDEST SWAP1 POP SWAP2 SWAP1 POP JUMP JUMPDEST PUSH0 PUSH2 0x3AA6 DUP3 PUSH2 0x3A7B JUMP JUMPDEST SWAP1 POP SWAP2 SWAP1 POP JUMP JUMPDEST PUSH0 PUSH2 0x3AB7 DUP3 PUSH2 0x3A9C JUMP JUMPDEST SWAP1 POP SWAP2 SWAP1 POP JUMP JUMPDEST PUSH2 0x3AC7 DUP2 PUSH2 0x3AAD JUMP JUMPDEST DUP3 MSTORE POP POP JUMP JUMPDEST PUSH0 PUSH1 0x20 DUP3 ADD SWAP1 POP PUSH2 0x3AE0 PUSH0 DUP4 ADD DUP5 PUSH2 0x3ABE JUMP JUMPDEST SWAP3 SWAP2 POP POP JUMP JUMPDEST PUSH2 0x3AEF DUP2 PUSH2 0x3739 JUMP JUMPDEST DUP2 EQ PUSH2 0x3AF9 JUMPI PUSH0 DUP1 REVERT JUMPDEST POP JUMP JUMPDEST PUSH0 DUP2 CALLDATALOAD SWAP1 POP PUSH2 0x3B0A DUP2 PUSH2 0x3AE6 JUMP JUMPDEST SWAP3 SWAP2 POP POP JUMP JUMPDEST PUSH0 DUP1 PUSH1 0x40 DUP4 DUP6 SUB SLT ISZERO PUSH2 0x3B26 JUMPI PUSH2 0x3B25 PUSH2 0x3775 JUMP JUMPDEST JUMPDEST PUSH0 DUP4 ADD CALLDATALOAD PUSH8 0xFFFFFFFFFFFFFFFF DUP2 GT ISZERO PUSH2 0x3B43 JUMPI PUSH2 0x3B42 PUSH2 0x3779 JUMP JUMPDEST JUMPDEST PUSH2 0x3B4F DUP6 DUP3 DUP7 ADD PUSH2 0x3942 JUMP JUMPDEST SWAP3 POP POP PUSH1 0x20 PUSH2 0x3B60 DUP6 DUP3 DUP7 ADD PUSH2 0x3AFC JUMP JUMPDEST SWAP2 POP POP SWAP3 POP SWAP3 SWAP1 POP JUMP JUMPDEST PUSH2 0x3B73 DUP2 PUSH2 0x379C JUMP JUMPDEST DUP3 MSTORE POP POP JUMP JUMPDEST PUSH0 PUSH1 0x20 DUP3 ADD SWAP1 POP PUSH2 0x3B8C PUSH0 DUP4 ADD DUP5 PUSH2 0x3B6A JUMP JUMPDEST SWAP3 SWAP2 POP POP JUMP JUMPDEST PUSH2 0x3B9B DUP2 PUSH2 0x3802 JUMP JUMPDEST DUP2 EQ PUSH2 0x3BA5 JUMPI PUSH0 DUP1 REVERT JUMPDEST POP JUMP JUMPDEST PUSH0 DUP2 CALLDATALOAD SWAP1 POP PUSH2 0x3BB6 DUP2 PUSH2 0x3B92 JUMP JUMPDEST SWAP3 SWAP2 POP POP JUMP JUMPDEST PUSH0 PUSH1 0x20 DUP3 DUP5 SUB SLT ISZERO PUSH2 0x3BD1 JUMPI PUSH2 0x3BD0 PUSH2 0x3775 JUMP JUMPDEST JUMPDEST PUSH0 PUSH2 0x3BDE DUP5 DUP3 DUP6 ADD PUSH2 0x3BA8 JUMP JUMPDEST SWAP2 POP POP SWAP3 SWAP2 POP POP JUMP JUMPDEST PUSH0 DUP1 PUSH1 0x40 DUP4 DUP6 SUB SLT ISZERO PUSH2 0x3BFD JUMPI PUSH2 0x3BFC PUSH2 0x3775 JUMP JUMPDEST JUMPDEST PUSH0 PUSH2 0x3C0A DUP6 DUP3 DUP7 ADD PUSH2 0x3BA8 JUMP JUMPDEST SWAP3 POP POP PUSH1 0x20 PUSH2 0x3C1B DUP6 DUP3 DUP7 ADD PUSH2 0x3BA8 JUMP JUMPDEST SWAP2 POP POP SWAP3 POP SWAP3 SWAP1 POP JUMP JUMPDEST PUSH0 PUSH1 0x20 DUP3 DUP5 SUB SLT ISZERO PUSH2 0x3C3A JUMPI PUSH2 0x3C39 PUSH2 0x3775 JUMP JUMPDEST JUMPDEST PUSH0 DUP3 ADD CALLDATALOAD PUSH8 0xFFFFFFFFFFFFFFFF DUP2 GT ISZERO PUSH2 0x3C57 JUMPI PUSH2 0x3C56 PUSH2 0x3779 JUMP JUMPDEST JUMPDEST PUSH2 0x3C63 DUP5 DUP3 DUP6 ADD PUSH2 0x3942 JUMP JUMPDEST SWAP2 POP POP SWAP3 SWAP2 POP POP JUMP JUMPDEST PUSH0 DUP1 PUSH1 0x40 DUP4 DUP6 SUB SLT ISZERO PUSH2 0x3C82 JUMPI PUSH2 0x3C81 PUSH2 0x3775 JUMP JUMPDEST JUMPDEST PUSH0 PUSH2 0x3C8F DUP6 DUP3 DUP7 ADD PUSH2 0x3BA8 JUMP JUMPDEST SWAP3 POP POP PUSH1 0x20 DUP4 ADD CALLDATALOAD PUSH8 0xFFFFFFFFFFFFFFFF DUP2 GT ISZERO PUSH2 0x3CB0 JUMPI PUSH2 0x3CAF PUSH2 0x3779 JUMP JUMPDEST JUMPDEST PUSH2 0x3CBC DUP6 DUP3 DUP7 ADD PUSH2 0x3942 JUMP JUMPDEST SWAP2 POP POP SWAP3 POP SWAP3 SWAP1 POP JUMP JUMPDEST PUSH0 DUP2 MLOAD SWAP1 POP SWAP2 SWAP1 POP JUMP JUMPDEST PUSH0 DUP3 DUP3 MSTORE PUSH1 0x20 DUP3 ADD SWAP1 POP SWAP3 SWAP2 POP POP JUMP JUMPDEST PUSH0 JUMPDEST DUP4 DUP2 LT ISZERO PUSH2 0x3CFD JUMPI DUP1 DUP3 ADD MLOAD DUP2 DUP5 ADD MSTORE PUSH1 0x20 DUP2 ADD SWAP1 POP PUSH2 0x3CE2 JUMP JUMPDEST PUSH0 DUP5 DUP5 ADD MSTORE POP POP POP POP JUMP JUMPDEST PUSH0 PUSH2 0x3D12 DUP3 PUSH2 0x3CC6 JUMP JUMPDEST PUSH2 0x3D1C DUP2 DUP6 PUSH2 0x3CD0 JUMP JUMPDEST SWAP4 POP PUSH2 0x3D2C DUP2 DUP6 PUSH1 0x20 DUP7 ADD PUSH2 0x3CE0 JUMP JUMPDEST PUSH2 0x3D35 DUP2 PUSH2 0x383B JUMP JUMPDEST DUP5 ADD SWAP2 POP POP SWAP3 SWAP2 POP POP JUMP JUMPDEST PUSH0 PUSH2 0x180 DUP3 ADD SWAP1 POP DUP2 DUP2 SUB PUSH0 DUP4 ADD MSTORE PUSH2 0x3D59 DUP2 DUP16 PUSH2 0x3D08 JUMP JUMPDEST SWAP1 POP DUP2 DUP2 SUB PUSH1 0x20 DUP4 ADD MSTORE PUSH2 0x3D6D DUP2 DUP15 PUSH2 0x3D08 JUMP JUMPDEST SWAP1 POP DUP2 DUP2 SUB PUSH1 0x40 DUP4 ADD MSTORE PUSH2 0x3D81 DUP2 DUP14 PUSH2 0x3D08 JUMP JUMPDEST SWAP1 POP DUP2 DUP2 SUB PUSH1 0x60 DUP4 ADD MSTORE PUSH2 0x3D95 DUP2 DUP13 PUSH2 0x3D08 JUMP JUMPDEST SWAP1 POP DUP2 DUP2 SUB PUSH1 0x80 DUP4 ADD MSTORE PUSH2 0x3DA9 DUP2 DUP12 PUSH2 0x3D08 JUMP JUMPDEST SWAP1 POP DUP2 DUP2 SUB PUSH1 0xA0 DUP4 ADD MSTORE PUSH2 0x3DBD DUP2 DUP11 PUSH2 0x3D08 JUMP JUMPDEST SWAP1 POP DUP2 DUP2 SUB PUSH1 0xC0 DUP4 ADD MSTORE PUSH2 0x3DD1 DUP2 DUP10 PUSH2 0x3D08 JUMP JUMPDEST SWAP1 POP DUP2 DUP2 SUB PUSH1 0xE0 DUP4 ADD MSTORE PUSH2 0x3DE5 DUP2 DUP9 PUSH2 0x3D08 JUMP JUMPDEST SWAP1 POP PUSH2 0x3DF5 PUSH2 0x100 DUP4 ADD DUP8 PUSH2 0x3B6A JUMP JUMPDEST PUSH2 0x3E03 PUSH2 0x120 DUP4 ADD DUP7 PUSH2 0x380B JUMP JUMPDEST PUSH2 0x3E11 PUSH2 0x140 DUP4 ADD DUP6 PUSH2 0x380B JUMP JUMPDEST PUSH2 0x3E1F PUSH2 0x160 DUP4 ADD DUP5 PUSH2 0x380B JUMP JUMPDEST SWAP14 SWAP13 POP POP POP POP POP POP POP POP POP POP POP POP POP JUMP JUMPDEST PUSH0 DUP2 MLOAD SWAP1 POP PUSH2 0x3E3E DUP2 PUSH2 0x3B92 JUMP JUMPDEST SWAP3 SWAP2 POP POP JUMP JUMPDEST PUSH0 PUSH1 0x20 DUP3 DUP5 SUB SLT ISZERO PUSH2 0x3E59 JUMPI PUSH2 0x3E58 PUSH2 0x3775 JUMP JUMPDEST JUMPDEST PUSH0 PUSH2 0x3E66 DUP5 DUP3 DUP6 ADD PUSH2 0x3E30 JUMP JUMPDEST SWAP2 POP POP SWAP3 SWAP2 POP POP JUMP JUMPDEST PUSH32 0x496E73756666696369656E7420746F6B656E7320746F2063726561746520656C PUSH0 DUP3 ADD MSTORE PUSH32 0x656D656E74000000000000000000000000000000000000000000000000000000 PUSH1 0x20 DUP3 ADD MSTORE POP JUMP JUMPDEST PUSH0 PUSH2 0x3EC9 PUSH1 0x25 DUP4 PUSH2 0x3CD0 JUMP JUMPDEST SWAP2 POP PUSH2 0x3ED4 DUP3 PUSH2 0x3E6F JUMP JUMPDEST PUSH1 0x40 DUP3 ADD SWAP1 POP SWAP2 SWAP1 POP JUMP JUMPDEST PUSH0 PUSH1 0x20 DUP3 ADD SWAP1 POP DUP2 DUP2 SUB PUSH0 DUP4 ADD MSTORE PUSH2 0x3EF6 DUP2 PUSH2 0x3EBD JUMP JUMPDEST SWAP1 POP SWAP2 SWAP1 POP JUMP JUMPDEST PUSH32 0x4E487B7100000000000000000000000000000000000000000000000000000000 PUSH0 MSTORE PUSH1 0x22 PUSH1 0x4 MSTORE PUSH1 0x24 PUSH0 REVERT JUMPDEST PUSH0 PUSH1 0x2 DUP3 DIV SWAP1 POP PUSH1 0x1 DUP3 AND DUP1 PUSH2 0x3F41 JUMPI PUSH1 0x7F DUP3 AND SWAP2 POP JUMPDEST PUSH1 0x20 DUP3 LT DUP2 SUB PUSH2 0x3F54 JUMPI PUSH2 0x3F53 PUSH2 0x3EFD JUMP JUMPDEST JUMPDEST POP SWAP2 SWAP1 POP JUMP JUMPDEST PUSH0 DUP2 SWAP1 POP DUP2 PUSH0 MSTORE PUSH1 0x20 PUSH0 KECCAK256 SWAP1 POP SWAP2 SWAP1 POP JUMP JUMPDEST PUSH0 PUSH1 0x20 PUSH1 0x1F DUP4 ADD DIV SWAP1 POP SWAP2 SWAP1 POP JUMP JUMPDEST PUSH0 DUP3 DUP3 SHL SWAP1 POP SWAP3 SWAP2 POP POP JUMP JUMPDEST PUSH0 PUSH1 0x8 DUP4 MUL PUSH2 0x3FB6 PUSH32 0xFFFFFFFFFFFFFFFFFFFFFFFFFFFFFFFFFFFFFFFFFFFFFFFFFFFFFFFFFFFFFFFF DUP3 PUSH2 0x3F7B JUMP JUMPDEST PUSH2 0x3FC0 DUP7 DUP4 PUSH2 0x3F7B JUMP JUMPDEST SWAP6 POP DUP1 NOT DUP5 AND SWAP4 POP DUP1 DUP7 AND DUP5 OR SWAP3 POP POP POP SWAP4 SWAP3 POP POP POP JUMP JUMPDEST PUSH0 PUSH2 0x3FF2 PUSH2 0x3FED PUSH2 0x3FE8 DUP5 PUSH2 0x3802 JUMP JUMPDEST PUSH2 0x3A72 JUMP JUMPDEST PUSH2 0x3802 JUMP JUMPDEST SWAP1 POP SWAP2 SWAP1 POP JUMP JUMPDEST PUSH0 DUP2 SWAP1 POP SWAP2 SWAP1 POP JUMP JUMPDEST PUSH2 0x400B DUP4 PUSH2 0x3FD8 JUMP JUMPDEST PUSH2 0x401F PUSH2 0x4017 DUP3 PUSH2 0x3FF9 JUMP JUMPDEST DUP5 DUP5 SLOAD PUSH2 0x3F87 JUMP JUMPDEST DUP3 SSTORE POP POP POP POP JUMP JUMPDEST PUSH0 SWAP1 JUMP JUMPDEST PUSH2 0x4033 PUSH2 0x4027 JUMP JUMPDEST PUSH2 0x403E DUP2 DUP5 DUP5 PUSH2 0x4002 JUMP JUMPDEST POP POP POP JUMP JUMPDEST JUMPDEST DUP2 DUP2 LT ISZERO PUSH2 0x4061 JUMPI PUSH2 0x4056 PUSH0 DUP3 PUSH2 0x402B JUMP JUMPDEST PUSH1 0x1 DUP2 ADD SWAP1 POP PUSH2 0x4044 JUMP JUMPDEST POP POP JUMP JUMPDEST PUSH1 0x1F DUP3 GT ISZERO PUSH2 0x40A6 JUMPI PUSH2 0x4077 DUP2 PUSH2 0x3F5A JUMP JUMPDEST PUSH2 0x4080 DUP5 PUSH2 0x3F6C JUMP JUMPDEST DUP2 ADD PUSH1 0x20 DUP6 LT ISZERO PUSH2 0x408F JUMPI DUP2 SWAP1 POP JUMPDEST PUSH2 0x40A3 PUSH2 0x409B DUP6 PUSH2 0x3F6C JUMP JUMPDEST DUP4 ADD DUP3 PUSH2 0x4043 JUMP JUMPDEST POP POP JUMPDEST POP POP POP JUMP JUMPDEST PUSH0 DUP3 DUP3 SHR SWAP1 POP SWAP3 SWAP2 POP POP JUMP JUMPDEST PUSH0 PUSH2 0x40C6 PUSH0 NOT DUP5 PUSH1 0x8 MUL PUSH2 0x40AB JUMP JUMPDEST NOT DUP1 DUP4 AND SWAP2 POP POP SWAP3 SWAP2 POP POP JUMP JUMPDEST PUSH0 PUSH2 0x40DE DUP4 DUP4 PUSH2 0x40B7 JUMP JUMPDEST SWAP2 POP DUP3 PUSH1 0x2 MUL DUP3 OR SWAP1 POP SWAP3 SWAP2 POP POP JUMP JUMPDEST PUSH2 0x40F7 DUP3 PUSH2 0x3CC6 JUMP JUMPDEST PUSH8 0xFFFFFFFFFFFFFFFF DUP2 GT ISZERO PUSH2 0x4110 JUMPI PUSH2 0x410F PUSH2 0x384B JUMP JUMPDEST JUMPDEST PUSH2 0x411A DUP3 SLOAD PUSH2 0x3F2A JUMP JUMPDEST PUSH2 0x4125 DUP3 DUP3 DUP6 PUSH2 0x4065 JUMP JUMPDEST PUSH0 PUSH1 0x20 SWAP1 POP PUSH1 0x1F DUP4 GT PUSH1 0x1 DUP2 EQ PUSH2 0x4156 JUMPI PUSH0 DUP5 ISZERO PUSH2 0x4144 JUMPI DUP3 DUP8 ADD MLOAD SWAP1 POP JUMPDEST PUSH2 0x414E DUP6 DUP3 PUSH2 0x40D3 JUMP JUMPDEST DUP7 SSTORE POP PUSH2 0x41B5 JUMP JUMPDEST PUSH1 0x1F NOT DUP5 AND PUSH2 0x4164 DUP7 PUSH2 0x3F5A JUMP JUMPDEST PUSH0 JUMPDEST DUP3 DUP2 LT ISZERO PUSH2 0x418B JUMPI DUP5 DUP10 ADD MLOAD DUP3 SSTORE PUSH1 0x1 DUP3 ADD SWAP2 POP PUSH1 0x20 DUP6 ADD SWAP5 POP PUSH1 0x20 DUP2 ADD SWAP1 POP PUSH2 0x4166 JUMP JUMPDEST DUP7 DUP4 LT ISZERO PUSH2 0x41A8 JUMPI DUP5 DUP10 ADD MLOAD PUSH2 0x41A4 PUSH1 0x1F DUP10 AND DUP3 PUSH2 0x40B7 JUMP JUMPDEST DUP4 SSTORE POP JUMPDEST PUSH1 0x1 PUSH1 0x2 DUP9 MUL ADD DUP9 SSTORE POP POP POP JUMPDEST POP POP POP POP POP POP JUMP JUMPDEST PUSH0 PUSH1 0x40 DUP3 ADD SWAP1 POP PUSH2 0x41D0 PUSH0 DUP4 ADD DUP6 PUSH2 0x380B JUMP JUMPDEST PUSH2 0x41DD PUSH1 0x20 DUP4 ADD DUP5 PUSH2 0x3B6A JUMP JUMPDEST SWAP4 SWAP3 POP POP POP JUMP JUMPDEST PUSH32 0x4E487B7100000000000000000000000000000000000000000000000000000000 PUSH0 MSTORE PUSH1 0x11 PUSH1 0x4 MSTORE PUSH1 0x24 PUSH0 REVERT JUMPDEST PUSH0 PUSH2 0x421B DUP3 PUSH2 0x3802 JUMP JUMPDEST SWAP2 POP PUSH32 0xFFFFFFFFFFFFFFFFFFFFFFFFFFFFFFFFFFFFFFFFFFFFFFFFFFFFFFFFFFFFFFFF DUP3 SUB PUSH2 0x424D JUMPI PUSH2 0x424C PUSH2 0x41E4 JUMP JUMPDEST JUMPDEST PUSH1 0x1 DUP3 ADD SWAP1 POP SWAP2 SWAP1 POP JUMP JUMPDEST PUSH32 0x4F6E6C792061646D696E2063616E20706572666F726D20746869732061637469 PUSH0 DUP3 ADD MSTORE PUSH32 0x6F6E000000000000000000000000000000000000000000000000000000000000 PUSH1 0x20 DUP3 ADD MSTORE POP JUMP JUMPDEST PUSH0 PUSH2 0x42B2 PUSH1 0x22 DUP4 PUSH2 0x3CD0 JUMP JUMPDEST SWAP2 POP PUSH2 0x42BD DUP3 PUSH2 0x4258 JUMP JUMPDEST PUSH1 0x40 DUP3 ADD SWAP1 POP SWAP2 SWAP1 POP JUMP JUMPDEST PUSH0 PUSH1 0x20 DUP3 ADD SWAP1 POP DUP2 DUP2 SUB PUSH0 DUP4 ADD MSTORE PUSH2 0x42DF DUP2 PUSH2 0x42A6 JUMP JUMPDEST SWAP1 POP SWAP2 SWAP1 POP JUMP JUMPDEST PUSH32 0x41646D696E2063616E206F6E6C7920746F67676C65206368616E67655365636F PUSH0 DUP3 ADD MSTORE PUSH32 0x6E6441646D696E00000000000000000000000000000000000000000000000000 PUSH1 0x20 DUP3 ADD MSTORE POP JUMP JUMPDEST PUSH0 PUSH2 0x4340 PUSH1 0x27 DUP4 PUSH2 0x3CD0 JUMP JUMPDEST SWAP2 POP PUSH2 0x434B DUP3 PUSH2 0x42E6 JUMP JUMPDEST PUSH1 0x40 DUP3 ADD SWAP1 POP SWAP2 SWAP1 POP JUMP JUMPDEST PUSH0 PUSH1 0x20 DUP3 ADD SWAP1 POP DUP2 DUP2 SUB PUSH0 DUP4 ADD MSTORE PUSH2 0x436D DUP2 PUSH2 0x4334 JUMP JUMPDEST SWAP1 POP SWAP2 SWAP1 POP JUMP JUMPDEST PUSH0 DUP2 SWAP1 POP SWAP3 SWAP2 POP POP JUMP JUMPDEST PUSH0 PUSH2 0x4388 DUP3 PUSH2 0x3CC6 JUMP JUMPDEST PUSH2 0x4392 DUP2 DUP6 PUSH2 0x4374 JUMP JUMPDEST SWAP4 POP PUSH2 0x43A2 DUP2 DUP6 PUSH1 0x20 DUP7 ADD PUSH2 0x3CE0 JUMP JUMPDEST DUP1 DUP5 ADD SWAP2 POP POP SWAP3 SWAP2 POP POP JUMP JUMPDEST PUSH0 PUSH2 0x43B9 DUP3 DUP5 PUSH2 0x437E JUMP JUMPDEST SWAP2 POP DUP2 SWAP1 POP SWAP3 SWAP2 POP POP JUMP JUMPDEST PUSH32 0x46756E6374696F6E2069732064697361626C6564000000000000000000000000 PUSH0 DUP3 ADD MSTORE POP JUMP JUMPDEST PUSH0 PUSH2 0x43F8 PUSH1 0x14 DUP4 PUSH2 0x3CD0 JUMP JUMPDEST SWAP2 POP PUSH2 0x4403 DUP3 PUSH2 0x43C4 JUMP JUMPDEST PUSH1 0x20 DUP3 ADD SWAP1 POP SWAP2 SWAP1 POP JUMP JUMPDEST PUSH0 PUSH1 0x20 DUP3 ADD SWAP1 POP DUP2 DUP2 SUB PUSH0 DUP4 ADD MSTORE PUSH2 0x4425 DUP2 PUSH2 0x43EC JUMP JUMPDEST SWAP1 POP SWAP2 SWAP1 POP JUMP JUMPDEST PUSH32 0x456C656D656E74206973206E6F742070656E64696E6720617070726F76616C00 PUSH0 DUP3 ADD MSTORE POP JUMP JUMPDEST PUSH0 PUSH2 0x4460 PUSH1 0x1F DUP4 PUSH2 0x3CD0 JUMP JUMPDEST SWAP2 POP PUSH2 0x446B DUP3 PUSH2 0x442C JUMP JUMPDEST PUSH1 0x20 DUP3 ADD SWAP1 POP SWAP2 SWAP1 POP JUMP JUMPDEST PUSH0 PUSH1 0x20 DUP3 ADD SWAP1 POP DUP2 DUP2 SUB PUSH0 DUP4 ADD MSTORE PUSH2 0x448D DUP2 PUSH2 0x4454 JUMP JUMPDEST SWAP1 POP SWAP2 SWAP1 POP JUMP JUMPDEST PUSH0 PUSH2 0x449E DUP3 PUSH2 0x3802 JUMP JUMPDEST SWAP2 POP PUSH2 0x44A9 DUP4 PUSH2 0x3802 JUMP JUMPDEST SWAP3 POP DUP3 DUP3 SUB SWAP1 POP DUP2 DUP2 GT ISZERO PUSH2 0x44C1 JUMPI PUSH2 0x44C0 PUSH2 0x41E4 JUMP JUMPDEST JUMPDEST SWAP3 SWAP2 POP POP JUMP JUMPDEST PUSH0 PUSH2 0x44D1 DUP3 PUSH2 0x3802 JUMP JUMPDEST SWAP2 POP PUSH2 0x44DC DUP4 PUSH2 0x3802 JUMP JUMPDEST SWAP3 POP DUP3 DUP3 MUL PUSH2 0x44EA DUP2 PUSH2 0x3802 JUMP JUMPDEST SWAP2 POP DUP3 DUP3 DIV DUP5 EQ DUP4 ISZERO OR PUSH2 0x4501 JUMPI PUSH2 0x4500 PUSH2 0x41E4 JUMP JUMPDEST JUMPDEST POP SWAP3 SWAP2 POP POP JUMP JUMPDEST PUSH32 0x4E487B7100000000000000000000000000000000000000000000000000000000 PUSH0 MSTORE PUSH1 0x12 PUSH1 0x4 MSTORE PUSH1 0x24 PUSH0 REVERT JUMPDEST PUSH0 PUSH2 0x453F DUP3 PUSH2 0x3802 JUMP JUMPDEST SWAP2 POP PUSH2 0x454A DUP4 PUSH2 0x3802 JUMP JUMPDEST SWAP3 POP DUP3 PUSH2 0x455A JUMPI PUSH2 0x4559 PUSH2 0x4508 JUMP JUMPDEST JUMPDEST DUP3 DUP3 DIV SWAP1 POP SWAP3 SWAP2 POP POP JUMP JUMPDEST PUSH32 0x4D696E696D756D20756E7374616B6520616D6F756E74206973203120746F6B65 PUSH0 DUP3 ADD MSTORE PUSH32 0x6E00000000000000000000000000000000000000000000000000000000000000 PUSH1 0x20 DUP3 ADD MSTORE POP JUMP JUMPDEST PUSH0 PUSH2 0x45BF PUSH1 0x21 DUP4 PUSH2 0x3CD0 JUMP JUMPDEST SWAP2 POP PUSH2 0x45CA DUP3 PUSH2 0x4565 JUMP JUMPDEST PUSH1 0x40 DUP3 ADD SWAP1 POP SWAP2 SWAP1 POP JUMP JUMPDEST PUSH0 PUSH1 0x20 DUP3 ADD SWAP1 POP DUP2 DUP2 SUB PUSH0 DUP4 ADD MSTORE PUSH2 0x45EC DUP2 PUSH2 0x45B3 JUMP JUMPDEST SWAP1 POP SWAP2 SWAP1 POP JUMP JUMPDEST PUSH32 0x496E73756666696369656E74207374616B656420616D6F756E74000000000000 PUSH0 DUP3 ADD MSTORE POP JUMP JUMPDEST PUSH0 PUSH2 0x4627 PUSH1 0x1A DUP4 PUSH2 0x3CD0 JUMP JUMPDEST SWAP2 POP PUSH2 0x4632 DUP3 PUSH2 0x45F3 JUMP JUMPDEST PUSH1 0x20 DUP3 ADD SWAP1 POP SWAP2 SWAP1 POP JUMP JUMPDEST PUSH0 PUSH1 0x20 DUP3 ADD SWAP1 POP DUP2 DUP2 SUB PUSH0 DUP4 ADD MSTORE PUSH2 0x4654 DUP2 PUSH2 0x461B JUMP JUMPDEST SWAP1 POP SWAP2 SWAP1 POP JUMP JUMPDEST PUSH32 0x4F6E6C79207365636F6E642061646D696E2063616E20706572666F726D207468 PUSH0 DUP3 ADD MSTORE PUSH32 0x697320616374696F6E0000000000000000000000000000000000000000000000 PUSH1 0x20 DUP3 ADD MSTORE POP JUMP JUMPDEST PUSH0 PUSH2 0x46B5 PUSH1 0x29 DUP4 PUSH2 0x3CD0 JUMP JUMPDEST SWAP2 POP PUSH2 0x46C0 DUP3 PUSH2 0x465B JUMP JUMPDEST PUSH1 0x40 DUP3 ADD SWAP1 POP SWAP2 SWAP1 POP JUMP JUMPDEST PUSH0 PUSH1 0x20 DUP3 ADD SWAP1 POP DUP2 DUP2 SUB PUSH0 DUP4 ADD MSTORE PUSH2 0x46E2 DUP2 PUSH2 0x46A9 JUMP JUMPDEST SWAP1 POP SWAP2 SWAP1 POP JUMP JUMPDEST PUSH32 0x5365636F6E642061646D696E2063616E6E6F7420746F67676C65206368616E67 PUSH0 DUP3 ADD MSTORE PUSH32 0x655365636F6E6441646D696E0000000000000000000000000000000000000000 PUSH1 0x20 DUP3 ADD MSTORE POP JUMP JUMPDEST PUSH0 PUSH2 0x4743 PUSH1 0x2C DUP4 PUSH2 0x3CD0 JUMP JUMPDEST SWAP2 POP PUSH2 0x474E DUP3 PUSH2 0x46E9 JUMP JUMPDEST PUSH1 0x40 DUP3 ADD SWAP1 POP SWAP2 SWAP1 POP JUMP JUMPDEST PUSH0 PUSH1 0x20 DUP3 ADD SWAP1 POP DUP2 DUP2 SUB PUSH0 DUP4 ADD MSTORE PUSH2 0x4770 DUP2 PUSH2 0x4737 JUMP JUMPDEST SWAP1 POP SWAP2 SWAP1 POP JUMP JUMPDEST PUSH32 0x456C656D656E7420697320616C726561647920696E2074686520507265737469 PUSH0 DUP3 ADD MSTORE PUSH32 0x6765207068617365000000000000000000000000000000000000000000000000 PUSH1 0x20 DUP3 ADD MSTORE POP JUMP JUMPDEST PUSH0 PUSH2 0x47D1 PUSH1 0x28 DUP4 PUSH2 0x3CD0 JUMP JUMPDEST SWAP2 POP PUSH2 0x47DC DUP3 PUSH2 0x4777 JUMP JUMPDEST PUSH1 0x40 DUP3 ADD SWAP1 POP SWAP2 SWAP1 POP JUMP JUMPDEST PUSH0 PUSH1 0x20 DUP3 ADD SWAP1 POP DUP2 DUP2 SUB PUSH0 DUP4 ADD MSTORE PUSH2 0x47FE DUP2 PUSH2 0x47C5 JUMP JUMPDEST SWAP1 POP SWAP2 SWAP1 POP JUMP JUMPDEST PUSH0 PUSH2 0x480F DUP3 PUSH2 0x3802 JUMP JUMPDEST SWAP2 POP PUSH2 0x481A DUP4 PUSH2 0x3802 JUMP JUMPDEST SWAP3 POP DUP3 DUP3 ADD SWAP1 POP DUP1 DUP3 GT ISZERO PUSH2 0x4832 JUMPI PUSH2 0x4831 PUSH2 0x41E4 JUMP JUMPDEST JUMPDEST SWAP3 SWAP2 POP POP JUMP JUMPDEST PUSH32 0x4E487B7100000000000000000000000000000000000000000000000000000000 PUSH0 MSTORE PUSH1 0x21 PUSH1 0x4 MSTORE PUSH1 0x24 PUSH0 REVERT JUMPDEST PUSH32 0x416D6F756E74206D7573742062652067726561746572207468616E207A65726F PUSH0 DUP3 ADD MSTORE POP JUMP JUMPDEST PUSH0 PUSH2 0x4899 PUSH1 0x20 DUP4 PUSH2 0x3CD0 JUMP JUMPDEST SWAP2 POP PUSH2 0x48A4 DUP3 PUSH2 0x4865 JUMP JUMPDEST PUSH1 0x20 DUP3 ADD SWAP1 POP SWAP2 SWAP1 POP JUMP JUMPDEST PUSH0 PUSH1 0x20 DUP3 ADD SWAP1 POP DUP2 DUP2 SUB PUSH0 DUP4 ADD MSTORE PUSH2 0x48C6 DUP2 PUSH2 0x488D JUMP JUMPDEST SWAP1 POP SWAP2 SWAP1 POP JUMP JUMPDEST PUSH32 0x496E73756666696369656E7420766F74696E6720706F77657200000000000000 PUSH0 DUP3 ADD MSTORE POP JUMP JUMPDEST PUSH0 PUSH2 0x4901 PUSH1 0x19 DUP4 PUSH2 0x3CD0 JUMP JUMPDEST SWAP2 POP PUSH2 0x490C DUP3 PUSH2 0x48CD JUMP JUMPDEST PUSH1 0x20 DUP3 ADD SWAP1 POP SWAP2 SWAP1 POP JUMP JUMPDEST PUSH0 PUSH1 0x20 DUP3 ADD SWAP1 POP DUP2 DUP2 SUB PUSH0 DUP4 ADD MSTORE PUSH2 0x492E DUP2 PUSH2 0x48F5 JUMP JUMPDEST SWAP1 POP SWAP2 SWAP1 POP JUMP JUMPDEST PUSH32 0x5374616B696E672069732064697361626C656400000000000000000000000000 PUSH0 DUP3 ADD MSTORE POP JUMP JUMPDEST PUSH0 PUSH2 0x4969 PUSH1 0x13 DUP4 PUSH2 0x3CD0 JUMP JUMPDEST SWAP2 POP PUSH2 0x4974 DUP3 PUSH2 0x4935 JUMP JUMPDEST PUSH1 0x20 DUP3 ADD SWAP1 POP SWAP2 SWAP1 POP JUMP JUMPDEST PUSH0 PUSH1 0x20 DUP3 ADD SWAP1 POP DUP2 DUP2 SUB PUSH0 DUP4 ADD MSTORE PUSH2 0x4996 DUP2 PUSH2 0x495D JUMP JUMPDEST SWAP1 POP SWAP2 SWAP1 POP JUMP JUMPDEST PUSH32 0x4D696E696D756D207374616B6520616D6F756E74206973203120746F6B656E00 PUSH0 DUP3 ADD MSTORE POP JUMP JUMPDEST PUSH0 PUSH2 0x49D1 PUSH1 0x1F DUP4 PUSH2 0x3CD0 JUMP JUMPDEST SWAP2 POP PUSH2 0x49DC DUP3 PUSH2 0x499D JUMP JUMPDEST PUSH1 0x20 DUP3 ADD SWAP1 POP SWAP2 SWAP1 POP JUMP JUMPDEST PUSH0 PUSH1 0x20 DUP3 ADD SWAP1 POP DUP2 DUP2 SUB PUSH0 DUP4 ADD MSTORE PUSH2 0x49FE DUP2 PUSH2 0x49C5 JUMP JUMPDEST SWAP1 POP SWAP2 SWAP1 POP JUMP JUMPDEST PUSH32 0x4F6E6C792074686972642061646D696E2063616E20706572666F726D20746869 PUSH0 DUP3 ADD MSTORE PUSH32 0x7320616374696F6E000000000000000000000000000000000000000000000000 PUSH1 0x20 DUP3 ADD MSTORE POP JUMP JUMPDEST PUSH0 PUSH2 0x4A5F PUSH1 0x28 DUP4 PUSH2 0x3CD0 JUMP JUMPDEST SWAP2 POP PUSH2 0x4A6A DUP3 PUSH2 0x4A05 JUMP JUMPDEST PUSH1 0x40 DUP3 ADD SWAP1 POP SWAP2 SWAP1 POP JUMP JUMPDEST PUSH0 PUSH1 0x20 DUP3 ADD SWAP1 POP DUP2 DUP2 SUB PUSH0 DUP4 ADD MSTORE PUSH2 0x4A8C DUP2 PUSH2 0x4A53 JUMP JUMPDEST SWAP1 POP SWAP2 SWAP1 POP JUMP JUMPDEST PUSH32 0x4E65772061646D696E20616464726573732063616E6E6F74206265207A65726F PUSH0 DUP3 ADD MSTORE POP JUMP JUMPDEST PUSH0 PUSH2 0x4AC7 PUSH1 0x20 DUP4 PUSH2 0x3CD0 JUMP JUMPDEST SWAP2 POP PUSH2 0x4AD2 DUP3 PUSH2 0x4A93 JUMP JUMPDEST PUSH1 0x20 DUP3 ADD SWAP1 POP SWAP2 SWAP1 POP JUMP JUMPDEST PUSH0 PUSH1 0x20 DUP3 ADD SWAP1 POP DUP2 DUP2 SUB PUSH0 DUP4 ADD MSTORE PUSH2 0x4AF4 DUP2 PUSH2 0x4ABB JUMP JUMPDEST SWAP1 POP SWAP2 SWAP1 POP JUMP JUMPDEST PUSH32 0x4F6E6C792063726561746F722063616E20757064617465000000000000000000 PUSH0 DUP3 ADD MSTORE POP JUMP JUMPDEST PUSH0 PUSH2 0x4B2F PUSH1 0x17 DUP4 PUSH2 0x3CD0 JUMP JUMPDEST SWAP2 POP PUSH2 0x4B3A DUP3 PUSH2 0x4AFB JUMP JUMPDEST PUSH1 0x20 DUP3 ADD SWAP1 POP SWAP2 SWAP1 POP JUMP JUMPDEST PUSH0 PUSH1 0x20 DUP3 ADD SWAP1 POP DUP2 DUP2 SUB PUSH0 DUP4 ADD MSTORE PUSH2 0x4B5C DUP2 PUSH2 0x4B23 JUMP JUMPDEST SWAP1 POP SWAP2 SWAP1 POP JUMP JUMPDEST PUSH32 0x4E6F207374616B656420616D6F756E7400000000000000000000000000000000 PUSH0 DUP3 ADD MSTORE POP JUMP JUMPDEST PUSH0 PUSH2 0x4B97 PUSH1 0x10 DUP4 PUSH2 0x3CD0 JUMP JUMPDEST SWAP2 POP PUSH2 0x4BA2 DUP3 PUSH2 0x4B63 JUMP JUMPDEST PUSH1 0x20 DUP3 ADD SWAP1 POP SWAP2 SWAP1 POP JUMP JUMPDEST PUSH0 PUSH1 0x20 DUP3 ADD SWAP1 POP DUP2 DUP2 SUB PUSH0 DUP4 ADD MSTORE PUSH2 0x4BC4 DUP2 PUSH2 0x4B8B JUMP JUMPDEST SWAP1 POP SWAP2 SWAP1 POP JUMP JUMPDEST PUSH32 0x43616E6E6F7420636C61696D206265666F72652061206D6F6E74680000000000 PUSH0 DUP3 ADD MSTORE POP JUMP JUMPDEST PUSH0 PUSH2 0x4BFF PUSH1 0x1B DUP4 PUSH2 0x3CD0 JUMP JUMPDEST SWAP2 POP PUSH2 0x4C0A DUP3 PUSH2 0x4BCB JUMP JUMPDEST PUSH1 0x20 DUP3 ADD SWAP1 POP SWAP2 SWAP1 POP JUMP JUMPDEST PUSH0 PUSH1 0x20 DUP3 ADD SWAP1 POP DUP2 DUP2 SUB PUSH0 DUP4 ADD MSTORE PUSH2 0x4C2C DUP2 PUSH2 0x4BF3 JUMP JUMPDEST SWAP1 POP SWAP2 SWAP1 POP JUMP JUMPDEST PUSH32 0x4E6577207365636F6E642061646D696E20616464726573732063616E6E6F7420 PUSH0 DUP3 ADD MSTORE PUSH32 0x6265207A65726F00000000000000000000000000000000000000000000000000 PUSH1 0x20 DUP3 ADD MSTORE POP JUMP JUMPDEST PUSH0 PUSH2 0x4C8D PUSH1 0x27 DUP4 PUSH2 0x3CD0 JUMP JUMPDEST SWAP2 POP PUSH2 0x4C98 DUP3 PUSH2 0x4C33 JUMP JUMPDEST PUSH1 0x40 DUP3 ADD SWAP1 POP SWAP2 SWAP1 POP JUMP JUMPDEST PUSH0 PUSH1 0x20 DUP3 ADD SWAP1 POP DUP2 DUP2 SUB PUSH0 DUP4 ADD MSTORE PUSH2 0x4CBA DUP2 PUSH2 0x4C81 JUMP JUMPDEST SWAP1 POP SWAP2 SWAP1 POP JUMP JUMPDEST PUSH32 0x5265656E7472616E637947756172643A207265656E7472616E742063616C6C00 PUSH0 DUP3 ADD MSTORE POP JUMP JUMPDEST PUSH0 PUSH2 0x4CF5 PUSH1 0x1F DUP4 PUSH2 0x3CD0 JUMP JUMPDEST SWAP2 POP PUSH2 0x4D00 DUP3 PUSH2 0x4CC1 JUMP JUMPDEST PUSH1 0x20 DUP3 ADD SWAP1 POP SWAP2 SWAP1 POP JUMP JUMPDEST PUSH0 PUSH1 0x20 DUP3 ADD SWAP1 POP DUP2 DUP2 SUB PUSH0 DUP4 ADD MSTORE PUSH2 0x4D22 DUP2 PUSH2 0x4CE9 JUMP JUMPDEST SWAP1 POP SWAP2 SWAP1 POP JUMP JUMPDEST PUSH0 PUSH1 0x60 DUP3 ADD SWAP1 POP PUSH2 0x4D3C PUSH0 DUP4 ADD DUP7 PUSH2 0x3B6A JUMP JUMPDEST PUSH2 0x4D49 PUSH1 0x20 DUP4 ADD DUP6 PUSH2 0x3B6A JUMP JUMPDEST PUSH2 0x4D56 PUSH1 0x40 DUP4 ADD DUP5 PUSH2 0x380B JUMP JUMPDEST SWAP5 SWAP4 POP POP POP POP JUMP JUMPDEST PUSH0 PUSH1 0x40 DUP3 ADD SWAP1 POP PUSH2 0x4D71 PUSH0 DUP4 ADD DUP6 PUSH2 0x3B6A JUMP JUMPDEST PUSH2 0x4D7E PUSH1 0x20 DUP4 ADD DUP5 PUSH2 0x380B JUMP JUMPDEST SWAP4 SWAP3 POP POP POP JUMP JUMPDEST PUSH0 DUP2 MLOAD SWAP1 POP PUSH2 0x4D93 DUP2 PUSH2 0x3AE6 JUMP JUMPDEST SWAP3 SWAP2 POP POP JUMP JUMPDEST PUSH0 PUSH1 0x20 DUP3 DUP5 SUB SLT ISZERO PUSH2 0x4DAE JUMPI PUSH2 0x4DAD PUSH2 0x3775 JUMP JUMPDEST JUMPDEST PUSH0 PUSH2 0x4DBB DUP5 DUP3 DUP6 ADD PUSH2 0x4D85 JUMP JUMPDEST SWAP2 POP POP SWAP3 SWAP2 POP POP JUMP JUMPDEST PUSH0 DUP2 MLOAD SWAP1 POP SWAP2 SWAP1 POP JUMP JUMPDEST PUSH0 DUP2 SWAP1 POP SWAP3 SWAP2 POP POP JUMP JUMPDEST PUSH0 PUSH2 0x4DE2 DUP3 PUSH2 0x4DC4 JUMP JUMPDEST PUSH2 0x4DEC DUP2 DUP6 PUSH2 0x4DCE JUMP JUMPDEST SWAP4 POP PUSH2 0x4DFC DUP2 DUP6 PUSH1 0x20 DUP7 ADD PUSH2 0x3CE0 JUMP JUMPDEST DUP1 DUP5 ADD SWAP2 POP POP SWAP3 SWAP2 POP POP JUMP JUMPDEST PUSH0 PUSH2 0x4E13 DUP3 DUP5 PUSH2 0x4DD8 JUMP JUMPDEST SWAP2 POP DUP2 SWAP1 POP SWAP3 SWAP2 POP POP JUMP INVALID LOG2 PUSH5 0x6970667358 0x22 SLT KECCAK256 BLOCKHASH 0x5D 0xB2 0xD2 DELEGATECALL BALANCE DUP7 0xFB 0xE9 SWAP9 EQ 0xC2 CALLDATALOAD DUP13 DUP12 0xB9 SAR SMOD 0xC7 SWAP15 PUSH18 0xBEE6BFDAA2B5497F50F0864736F6C634300 ADDMOD EQ STOP CALLER "
		},
		"gasEstimates": {
			"creation": {
				"codeDepositCost": "4010400",
				"executionCost": "infinite",
				"totalCost": "infinite"
			},
			"external": {
				"ELEMENT_CREATION_COST()": "392",
				"MINIMUM_STAKE_AMOUNT()": "437",
				"SECONDS_IN_MONTH()": "infinite",
				"SECONDS_IN_YEAR()": "414",
				"admin()": "2691",
				"approveElement(uint256)": "infinite",
				"calculateMonthlyReward(uint256,uint256)": "infinite",
				"changeAdmin(address)": "infinite",
				"changeGeneralStatus()": "28861",
				"changeSecondAdmin(address)": "infinite",
				"claimMonthlyReward()": "infinite",
				"confirmUpdate(uint256)": "infinite",
				"createElement(string,string,string,string,string)": "infinite",
				"elementCount()": "2580",
				"elements(uint256)": "infinite",
				"functionStatus(string)": "infinite",
				"generalStatus()": "2513",
				"getAnnualRewardRate(uint256)": "infinite",
				"getClaimableReward(address)": "infinite",
				"getLastClaimedDate(address)": "2962",
				"getTotalStakedTokens()": "2499",
				"getTotalTokenBalance()": "infinite",
				"hasPendingApplication(address)": "infinite",
				"lastClaimed(address)": "2871",
				"lopToken()": "infinite",
				"refuseUpdate(uint256)": "infinite",
				"rejectElement(uint256)": "infinite",
				"removeElement(uint256)": "infinite",
				"secondAdmin()": "2598",
				"stakeTokens(uint256)": "infinite",
				"stakes(address)": "2937",
				"startingDate(address)": "2870",
				"thirdAdmin()": "2642",
				"toggleFunctionStatus(string,bool)": "infinite",
				"toggleFunctionStatusByAdmin(string,bool)": "infinite",
				"totalStakedTokens()": "2559",
				"updateElementMetrics(uint256,string)": "infinite",
				"updateElementTutorial(uint256,string)": "infinite",
				"updateElementWebsite(uint256,string)": "infinite",
				"voteOnElement(uint256,uint256)": "infinite",
				"votingPower(address)": "2847",
				"withdrawStake(uint256)": "infinite"
			},
			"internal": {
				"distributeElementReward(uint256)": "infinite",
				"getTotalVotes()": "infinite"
			}
		},
		"methodIdentifiers": {
			"ELEMENT_CREATION_COST()": "c5e48e5a",
			"MINIMUM_STAKE_AMOUNT()": "84d804be",
			"SECONDS_IN_MONTH()": "27855b13",
			"SECONDS_IN_YEAR()": "5dcc9391",
			"admin()": "f851a440",
			"approveElement(uint256)": "c9b3829f",
			"calculateMonthlyReward(uint256,uint256)": "20cb13ab",
			"changeAdmin(address)": "8f283970",
			"changeGeneralStatus()": "8fddd022",
			"changeSecondAdmin(address)": "dd8087d1",
			"claimMonthlyReward()": "d4f1e386",
			"confirmUpdate(uint256)": "3b72bad5",
			"createElement(string,string,string,string,string)": "0a274280",
			"elementCount()": "67be4673",
			"elements(uint256)": "e0d64b37",
			"functionStatus(string)": "613dab3e",
			"generalStatus()": "0053b4b3",
			"getAnnualRewardRate(uint256)": "f9089bf2",
			"getClaimableReward(address)": "5ff329af",
			"getLastClaimedDate(address)": "cc78d728",
			"getTotalStakedTokens()": "51d18598",
			"getTotalTokenBalance()": "d69eca4c",
			"hasPendingApplication(address)": "6b8d04fb",
			"lastClaimed(address)": "013eba92",
			"lopToken()": "0d67f59e",
			"refuseUpdate(uint256)": "36ead39f",
			"rejectElement(uint256)": "1faa1128",
			"removeElement(uint256)": "9fc37abf",
			"secondAdmin()": "1d32e9b3",
			"stakeTokens(uint256)": "7547c7a3",
			"stakes(address)": "16934fc4",
			"startingDate(address)": "1d002cc0",
			"thirdAdmin()": "8b52e06c",
			"toggleFunctionStatus(string,bool)": "2a9aaa76",
			"toggleFunctionStatusByAdmin(string,bool)": "17504b98",
			"totalStakedTokens()": "3ae73259",
			"updateElementMetrics(uint256,string)": "c7b3564e",
			"updateElementTutorial(uint256,string)": "a721ebdd",
			"updateElementWebsite(uint256,string)": "b17146c8",
			"voteOnElement(uint256,uint256)": "72bae674",
			"votingPower(address)": "c07473f6",
			"withdrawStake(uint256)": "25d5971f"
		}
	},
	"abi": [
		{
			"inputs": [
				{
					"internalType": "address",
					"name": "_lopToken",
					"type": "address"
				},
				{
					"internalType": "address",
					"name": "_secondAdmin",
					"type": "address"
				},
				{
					"internalType": "address",
					"name": "_thirdAdmin",
					"type": "address"
				}
			],
			"stateMutability": "nonpayable",
			"type": "constructor"
		},
		{
			"inputs": [
				{
					"internalType": "address",
					"name": "target",
					"type": "address"
				}
			],
			"name": "AddressEmptyCode",
			"type": "error"
		},
		{
			"inputs": [
				{
					"internalType": "address",
					"name": "account",
					"type": "address"
				}
			],
			"name": "AddressInsufficientBalance",
			"type": "error"
		},
		{
			"inputs": [],
			"name": "FailedInnerCall",
			"type": "error"
		},
		{
			"inputs": [
				{
					"internalType": "address",
					"name": "token",
					"type": "address"
				}
			],
			"name": "SafeERC20FailedOperation",
			"type": "error"
		},
		{
			"anonymous": false,
			"inputs": [
				{
					"indexed": false,
					"internalType": "uint256",
					"name": "elementId",
					"type": "uint256"
				}
			],
			"name": "ElementApproved",
			"type": "event"
		},
		{
			"anonymous": false,
			"inputs": [
				{
					"indexed": false,
					"internalType": "uint256",
					"name": "elementId",
					"type": "uint256"
				},
				{
					"indexed": false,
					"internalType": "address",
					"name": "creator",
					"type": "address"
				}
			],
			"name": "ElementCreated",
			"type": "event"
		},
		{
			"anonymous": false,
			"inputs": [
				{
					"indexed": false,
					"internalType": "uint256",
					"name": "elementId",
					"type": "uint256"
				}
			],
			"name": "ElementRejected",
			"type": "event"
		},
		{
			"anonymous": false,
			"inputs": [
				{
					"indexed": false,
					"internalType": "uint256",
					"name": "elementId",
					"type": "uint256"
				}
			],
			"name": "ElementRemoved",
			"type": "event"
		},
		{
			"inputs": [],
			"name": "ELEMENT_CREATION_COST",
			"outputs": [
				{
					"internalType": "uint256",
					"name": "",
					"type": "uint256"
				}
			],
			"stateMutability": "view",
			"type": "function"
		},
		{
			"inputs": [],
			"name": "MINIMUM_STAKE_AMOUNT",
			"outputs": [
				{
					"internalType": "uint256",
					"name": "",
					"type": "uint256"
				}
			],
			"stateMutability": "view",
			"type": "function"
		},
		{
			"inputs": [],
			"name": "SECONDS_IN_MONTH",
			"outputs": [
				{
					"internalType": "uint256",
					"name": "",
					"type": "uint256"
				}
			],
			"stateMutability": "view",
			"type": "function"
		},
		{
			"inputs": [],
			"name": "SECONDS_IN_YEAR",
			"outputs": [
				{
					"internalType": "uint256",
					"name": "",
					"type": "uint256"
				}
			],
			"stateMutability": "view",
			"type": "function"
		},
		{
			"inputs": [],
			"name": "admin",
			"outputs": [
				{
					"internalType": "address",
					"name": "",
					"type": "address"
				}
			],
			"stateMutability": "view",
			"type": "function"
		},
		{
			"inputs": [
				{
					"internalType": "uint256",
					"name": "elementId",
					"type": "uint256"
				}
			],
			"name": "approveElement",
			"outputs": [],
			"stateMutability": "nonpayable",
			"type": "function"
		},
		{
			"inputs": [
				{
					"internalType": "uint256",
					"name": "stakeAmount",
					"type": "uint256"
				},
				{
					"internalType": "uint256",
					"name": "startTime",
					"type": "uint256"
				}
			],
			"name": "calculateMonthlyReward",
			"outputs": [
				{
					"internalType": "uint256",
					"name": "",
					"type": "uint256"
				}
			],
			"stateMutability": "view",
			"type": "function"
		},
		{
			"inputs": [
				{
					"internalType": "address",
					"name": "newAdmin",
					"type": "address"
				}
			],
			"name": "changeAdmin",
			"outputs": [],
			"stateMutability": "nonpayable",
			"type": "function"
		},
		{
			"inputs": [],
			"name": "changeGeneralStatus",
			"outputs": [],
			"stateMutability": "nonpayable",
			"type": "function"
		},
		{
			"inputs": [
				{
					"internalType": "address",
					"name": "newSecondAdmin",
					"type": "address"
				}
			],
			"name": "changeSecondAdmin",
			"outputs": [],
			"stateMutability": "nonpayable",
			"type": "function"
		},
		{
			"inputs": [],
			"name": "claimMonthlyReward",
			"outputs": [],
			"stateMutability": "nonpayable",
			"type": "function"
		},
		{
			"inputs": [
				{
					"internalType": "uint256",
					"name": "elementId",
					"type": "uint256"
				}
			],
			"name": "confirmUpdate",
			"outputs": [],
			"stateMutability": "nonpayable",
			"type": "function"
		},
		{
			"inputs": [
				{
					"internalType": "string",
					"name": "name",
					"type": "string"
				},
				{
					"internalType": "string",
					"name": "description",
					"type": "string"
				},
				{
					"internalType": "string",
					"name": "whitepaperLink",
					"type": "string"
				},
				{
					"internalType": "string",
					"name": "email",
					"type": "string"
				},
				{
					"internalType": "string",
					"name": "logoUrl",
					"type": "string"
				}
			],
			"name": "createElement",
			"outputs": [],
			"stateMutability": "nonpayable",
			"type": "function"
		},
		{
			"inputs": [],
			"name": "elementCount",
			"outputs": [
				{
					"internalType": "uint256",
					"name": "",
					"type": "uint256"
				}
			],
			"stateMutability": "view",
			"type": "function"
		},
		{
			"inputs": [
				{
					"internalType": "uint256",
					"name": "",
					"type": "uint256"
				}
			],
			"name": "elements",
			"outputs": [
				{
					"internalType": "string",
					"name": "name",
					"type": "string"
				},
				{
					"internalType": "string",
					"name": "description",
					"type": "string"
				},
				{
					"internalType": "string",
					"name": "whitepaperLink",
					"type": "string"
				},
				{
					"internalType": "string",
					"name": "websiteLink",
					"type": "string"
				},
				{
					"internalType": "string",
					"name": "tutorialLink",
					"type": "string"
				},
				{
					"internalType": "string",
					"name": "performanceMetricsLink",
					"type": "string"
				},
				{
					"internalType": "string",
					"name": "email",
					"type": "string"
				},
				{
					"internalType": "string",
					"name": "logoUrl",
					"type": "string"
				},
				{
					"internalType": "address",
					"name": "creator",
					"type": "address"
				},
				{
					"internalType": "uint256",
					"name": "phase",
					"type": "uint256"
				},
				{
					"internalType": "uint256",
					"name": "lastUpdate",
					"type": "uint256"
				},
				{
					"internalType": "uint256",
					"name": "voteCount",
					"type": "uint256"
				}
			],
			"stateMutability": "view",
			"type": "function"
		},
		{
			"inputs": [
				{
					"internalType": "string",
					"name": "",
					"type": "string"
				}
			],
			"name": "functionStatus",
			"outputs": [
				{
					"internalType": "bool",
					"name": "",
					"type": "bool"
				}
			],
			"stateMutability": "view",
			"type": "function"
		},
		{
			"inputs": [],
			"name": "generalStatus",
			"outputs": [
				{
					"internalType": "bool",
					"name": "",
					"type": "bool"
				}
			],
			"stateMutability": "view",
			"type": "function"
		},
		{
			"inputs": [
				{
					"internalType": "uint256",
					"name": "timeElapsed",
					"type": "uint256"
				}
			],
			"name": "getAnnualRewardRate",
			"outputs": [
				{
					"internalType": "uint256",
					"name": "",
					"type": "uint256"
				}
			],
			"stateMutability": "pure",
			"type": "function"
		},
		{
			"inputs": [
				{
					"internalType": "address",
					"name": "user",
					"type": "address"
				}
			],
			"name": "getClaimableReward",
			"outputs": [
				{
					"internalType": "uint256",
					"name": "",
					"type": "uint256"
				}
			],
			"stateMutability": "view",
			"type": "function"
		},
		{
			"inputs": [
				{
					"internalType": "address",
					"name": "user",
					"type": "address"
				}
			],
			"name": "getLastClaimedDate",
			"outputs": [
				{
					"internalType": "uint256",
					"name": "",
					"type": "uint256"
				}
			],
			"stateMutability": "view",
			"type": "function"
		},
		{
			"inputs": [],
			"name": "getTotalStakedTokens",
			"outputs": [
				{
					"internalType": "uint256",
					"name": "",
					"type": "uint256"
				}
			],
			"stateMutability": "view",
			"type": "function"
		},
		{
			"inputs": [],
			"name": "getTotalTokenBalance",
			"outputs": [
				{
					"internalType": "uint256",
					"name": "",
					"type": "uint256"
				}
			],
			"stateMutability": "view",
			"type": "function"
		},
		{
			"inputs": [
				{
					"internalType": "address",
					"name": "creator",
					"type": "address"
				}
			],
			"name": "hasPendingApplication",
			"outputs": [
				{
					"internalType": "bool",
					"name": "",
					"type": "bool"
				}
			],
			"stateMutability": "view",
			"type": "function"
		},
		{
			"inputs": [
				{
					"internalType": "address",
					"name": "",
					"type": "address"
				}
			],
			"name": "lastClaimed",
			"outputs": [
				{
					"internalType": "uint256",
					"name": "",
					"type": "uint256"
				}
			],
			"stateMutability": "view",
			"type": "function"
		},
		{
			"inputs": [],
			"name": "lopToken",
			"outputs": [
				{
					"internalType": "contract IERC20",
					"name": "",
					"type": "address"
				}
			],
			"stateMutability": "view",
			"type": "function"
		},
		{
			"inputs": [
				{
					"internalType": "uint256",
					"name": "elementId",
					"type": "uint256"
				}
			],
			"name": "refuseUpdate",
			"outputs": [],
			"stateMutability": "nonpayable",
			"type": "function"
		},
		{
			"inputs": [
				{
					"internalType": "uint256",
					"name": "elementId",
					"type": "uint256"
				}
			],
			"name": "rejectElement",
			"outputs": [],
			"stateMutability": "nonpayable",
			"type": "function"
		},
		{
			"inputs": [
				{
					"internalType": "uint256",
					"name": "elementId",
					"type": "uint256"
				}
			],
			"name": "removeElement",
			"outputs": [],
			"stateMutability": "nonpayable",
			"type": "function"
		},
		{
			"inputs": [],
			"name": "secondAdmin",
			"outputs": [
				{
					"internalType": "address",
					"name": "",
					"type": "address"
				}
			],
			"stateMutability": "view",
			"type": "function"
		},
		{
			"inputs": [
				{
					"internalType": "uint256",
					"name": "amount",
					"type": "uint256"
				}
			],
			"name": "stakeTokens",
			"outputs": [],
			"stateMutability": "nonpayable",
			"type": "function"
		},
		{
			"inputs": [
				{
					"internalType": "address",
					"name": "",
					"type": "address"
				}
			],
			"name": "stakes",
			"outputs": [
				{
					"internalType": "uint256",
					"name": "",
					"type": "uint256"
				}
			],
			"stateMutability": "view",
			"type": "function"
		},
		{
			"inputs": [
				{
					"internalType": "address",
					"name": "",
					"type": "address"
				}
			],
			"name": "startingDate",
			"outputs": [
				{
					"internalType": "uint256",
					"name": "",
					"type": "uint256"
				}
			],
			"stateMutability": "view",
			"type": "function"
		},
		{
			"inputs": [],
			"name": "thirdAdmin",
			"outputs": [
				{
					"internalType": "address",
					"name": "",
					"type": "address"
				}
			],
			"stateMutability": "view",
			"type": "function"
		},
		{
			"inputs": [
				{
					"internalType": "string",
					"name": "functionName",
					"type": "string"
				},
				{
					"internalType": "bool",
					"name": "status",
					"type": "bool"
				}
			],
			"name": "toggleFunctionStatus",
			"outputs": [],
			"stateMutability": "nonpayable",
			"type": "function"
		},
		{
			"inputs": [
				{
					"internalType": "string",
					"name": "functionName",
					"type": "string"
				},
				{
					"internalType": "bool",
					"name": "status",
					"type": "bool"
				}
			],
			"name": "toggleFunctionStatusByAdmin",
			"outputs": [],
			"stateMutability": "nonpayable",
			"type": "function"
		},
		{
			"inputs": [],
			"name": "totalStakedTokens",
			"outputs": [
				{
					"internalType": "uint256",
					"name": "",
					"type": "uint256"
				}
			],
			"stateMutability": "view",
			"type": "function"
		},
		{
			"inputs": [
				{
					"internalType": "uint256",
					"name": "elementId",
					"type": "uint256"
				},
				{
					"internalType": "string",
					"name": "performanceMetricsLink",
					"type": "string"
				}
			],
			"name": "updateElementMetrics",
			"outputs": [],
			"stateMutability": "nonpayable",
			"type": "function"
		},
		{
			"inputs": [
				{
					"internalType": "uint256",
					"name": "elementId",
					"type": "uint256"
				},
				{
					"internalType": "string",
					"name": "tutorialLink",
					"type": "string"
				}
			],
			"name": "updateElementTutorial",
			"outputs": [],
			"stateMutability": "nonpayable",
			"type": "function"
		},
		{
			"inputs": [
				{
					"internalType": "uint256",
					"name": "elementId",
					"type": "uint256"
				},
				{
					"internalType": "string",
					"name": "websiteLink",
					"type": "string"
				}
			],
			"name": "updateElementWebsite",
			"outputs": [],
			"stateMutability": "nonpayable",
			"type": "function"
		},
		{
			"inputs": [
				{
					"internalType": "uint256",
					"name": "elementId",
					"type": "uint256"
				},
				{
					"internalType": "uint256",
					"name": "amount",
					"type": "uint256"
				}
			],
			"name": "voteOnElement",
			"outputs": [],
			"stateMutability": "nonpayable",
			"type": "function"
		},
		{
			"inputs": [
				{
					"internalType": "address",
					"name": "",
					"type": "address"
				}
			],
			"name": "votingPower",
			"outputs": [
				{
					"internalType": "uint256",
					"name": "",
					"type": "uint256"
				}
			],
			"stateMutability": "view",
			"type": "function"
		},
		{
			"inputs": [
				{
					"internalType": "uint256",
					"name": "amount",
					"type": "uint256"
				}
			],
			"name": "withdrawStake",
			"outputs": [],
			"stateMutability": "nonpayable",
			"type": "function"
		}
	]
}